{"abi":[{"type":"function","name":"borrow","inputs":[{"name":"amount_","type":"uint256","internalType":"uint256"},{"name":"receiver_","type":"address","internalType":"address"}],"outputs":[],"stateMutability":"nonpayable"},{"type":"function","name":"finishBorrow","inputs":[{"name":"receiver_","type":"address","internalType":"address"}],"outputs":[],"stateMutability":"nonpayable"},{"type":"function","name":"getUserAccountData","inputs":[{"name":"user_","type":"address","internalType":"address"}],"outputs":[{"name":"userData","type":"tuple","internalType":"struct UserAccountData","components":[{"name":"totalCollateralBase","type":"uint256","internalType":"uint256"},{"name":"totalDebtBase","type":"uint256","internalType":"uint256"},{"name":"availableBorrowsBase","type":"uint256","internalType":"uint256"},{"name":"currentLiquidationThreshold","type":"uint256","internalType":"uint256"},{"name":"ltv","type":"uint256","internalType":"uint256"},{"name":"healthFactor","type":"uint256","internalType":"uint256"}]}],"stateMutability":"view"},{"type":"function","name":"lend","inputs":[{"name":"amountIn_","type":"uint256","internalType":"uint256"},{"name":"isETH_","type":"bool","internalType":"bool"}],"outputs":[],"stateMutability":"payable"},{"type":"function","name":"performRedemption","inputs":[{"name":"amount_","type":"uint256","internalType":"uint256"},{"name":"owner_","type":"address","internalType":"address"},{"name":"receiver_","type":"address","internalType":"address"},{"name":"token_","type":"uint8","internalType":"enum Tokens"}],"outputs":[{"name":"","type":"uint256","internalType":"uint256"}],"stateMutability":"nonpayable"},{"type":"function","name":"rebuyPT","inputs":[{"name":"amountInUSDC_","type":"uint256","internalType":"uint256"}],"outputs":[],"stateMutability":"nonpayable"},{"type":"event","name":"NewAccountCreated","inputs":[{"name":"account","type":"address","indexed":false,"internalType":"address"}],"anonymous":false}],"bytecode":{"object":"0x6080604052348015600e575f80fd5b50612a578061001c5f395ff3fe608060405260043610610054575f3560e01c80634b3fd148146100585780634e7896a9146100795780634f52db6b146100985780635c8abc38146100ab578063bf92857c146100ca578063f14d93651461013d575b5f80fd5b348015610063575f80fd5b50610077610072366004611d22565b61016a565b005b348015610084575f80fd5b50610077610093366004611d50565b61058d565b6100776100a6366004611d78565b61065e565b3480156100b6575f80fd5b506100776100c5366004611d9b565b610832565b3480156100d5575f80fd5b506100e96100e4366004611d50565b6109cd565b60405161013491905f60c082019050825182526020830151602083015260408301516040830152606083015160608301526080830151608083015260a083015160a083015292915050565b60405180910390f35b348015610148575f80fd5b5061015c610157366004611db2565b610ad8565b604051908152602001610134565b335f908152602e602052604080822054602f549151631375877960e31b8152600481018690526001600160a01b0385811660248301529182166044820181905293929190911690639bac3bc8906064016020604051808303815f875af11580156101d6573d5f803e3d5ffd5b505050506040513d601f19601f820116820180604052508101906101fa9190611e05565b602054602a549192505f918291610220916001600160a01b039182169116308685610e0d565b602a546004805460405163095ea7b360e01b81526001600160a01b03918216928101929092526024820184905292935091169063095ea7b3906044016020604051808303815f875af1158015610278573d5f803e3d5ffd5b505050506040513d601f19601f8201168201806040525081019061029c9190611e1c565b506004546005546040805160808101909152600680545f9485946001600160a01b039182169463c81f847a94309492909316928792600e926103d1928c92829060ff1660038111156102f0576102f0611e37565b600381111561030157610301611e37565b8152815461010090046001600160a01b0316602082015260018201805460409092019161032d90611e4b565b80601f016020809104026020016040519081016040528092919081815260200182805461035990611e4b565b80156103a45780601f1061037b576101008083540402835291602001916103a4565b820191905f5260205f20905b81548152906001019060200180831161038757829003601f168201915b50505091835250506002919091015460ff161515602090910152602a546001600160a01b03169190610f8d565b6040516001600160e01b031960e088901b1681526103f99594939291906009906004016121a2565b6060604051808303815f875af1158015610415573d5f803e3d5ffd5b505050506040513d601f19601f820116820180604052508101906104399190612225565b5050905061047c6040518060400160405280601e81526020017f6e657450744f7574202a2a2a2a2a202d206f776e6564206279206f7a3a20000081525082610fd0565b602480546040516370a0823160e01b81526001600160a01b0389811660048301525f939216916370a082319101602060405180830381865afa1580156104c4573d5f803e3d5ffd5b505050506040513d601f19601f820116820180604052508101906104e89190611e05565b90506105216040518060400160405280601581526020017403ab9b231903232b13a10169034b73a1030b1b19d1605d1b81525082610fd0565b6022546040516340c10f1960e01b81526001600160a01b038a8116600483015260248201849052909116906340c10f19906044015f604051808303815f87803b15801561056c575f80fd5b505af115801561057e573d5f803e3d5ffd5b50505050505050505050505050565b6020546040516370a0823160e01b81523060048201525f916001600160a01b0316906370a0823190602401602060405180830381865afa1580156105d3573d5f803e3d5ffd5b505050506040513d601f19601f820116820180604052508101906105f79190611e05565b6022546040516340c10f1960e01b81526001600160a01b038581166004830152602482018490529293509116906340c10f19906044015f604051808303815f87803b158015610644575f80fd5b505af1158015610656573d5f803e3d5ffd5b505050505050565b6002546001546040805163026b1d5f60e01b815290516001600160a01b03938416939092169163026b1d5f916004808201926020929091908290030181865afa1580156106ad573d5f803e3d5ffd5b505050506040513d601f19601f820116820180604052508101906106d19190612250565b6001600160a01b03161461076c576001546040805163026b1d5f60e01b815290516001600160a01b039092169163026b1d5f916004808201926020929091908290030181865afa158015610727573d5f803e3d5ffd5b505050506040513d601f19601f8201168201806040525081019061074b9190612250565b600280546001600160a01b0319166001600160a01b03929092169190911790555b335f908152602e60205260409020546001600160a01b0316806107d157610791611015565b6040516001600160a01b03821681529091507fe759fda21527aab212bc806c6b81b4e16add78b260f71442690c536ba1de40cd9060200160405180910390a15b811561082c57806001600160a01b031663de407d8f346040518263ffffffff1660e01b81526004015f604051808303818588803b158015610810575f80fd5b505af1158015610822573d5f803e3d5ffd5b5050505050505050565b505b5050565b602d546108775760405162461bcd60e51b815260206004820152600e60248201526d3932b13abca82a1d1032b93937b960911b60448201526064015b60405180910390fd5b6020546040516323b872dd60e01b8152336004820152306024820152604481018390526001600160a01b03909116906323b872dd906064016020604051808303815f875af11580156108cb573d5f803e3d5ffd5b505050506040513d601f19601f820116820180604052508101906108ef9190611e1c565b506023546040516370a0823160e01b81523060048201525f916001600160a01b0316906370a0823190602401602060405180830381865afa158015610936573d5f803e3d5ffd5b505050506040513d601f19601f8201168201806040525081019061095a9190611e05565b60235460405163a9059cbb60e01b8152336004820152602481018390529192506001600160a01b03169063a9059cbb906044016020604051808303815f875af11580156109a9573d5f803e3d5ffd5b505050506040513d601f19601f8201168201806040525081019061082c9190611e1c565b610a006040518060c001604052805f81526020015f81526020015f81526020015f81526020015f81526020015f81525090565b6001600160a01b038281165f908152602e6020526040808220546002549151632fe4a15f60e21b815290841660048201819052938392839283928392839291169063bf92857c9060240160c060405180830381865afa158015610a65573d5f803e3d5ffd5b505050506040513d601f19601f82011682018060405250810190610a89919061226b565b9550955095509550955095506040518060c00160405280878152602001868152602001610ab58661108b565b815260200184815260200183815260200182815250975050505050505050919050565b600480546005546023546040516370a0823160e01b8152309481018590525f94859485946001600160a01b039182169463594a88cc949183169216906370a0823190602401602060405180830381865afa158015610b38573d5f803e3d5ffd5b505050506040513d601f19601f82011682018060405250810190610b5c9190611e05565b604080516080810190915260068054610b89928a929091829060ff1660038111156102f0576102f0611e37565b6040516001600160e01b031960e087901b168152610bb094939291906009906004016122b1565b6060604051808303815f875af1158015610bcc573d5f803e3d5ffd5b505050506040513d601f19601f82011682018060405250810190610bf09190612225565b505090505f805f610c08610c03886110c7565b61111e565b602a5460185460405163095ea7b360e01b81526001600160a01b039182166004820152602481018a9052949750929550909350169063095ea7b3906044016020604051808303815f875af1158015610c62573d5f803e3d5ffd5b505050506040513d601f19601f82011682018060405250810190610c869190611e1c565b505f806018015f9054906101000a90046001600160a01b03166001600160a01b031663c872a3c58585888a878f6040518763ffffffff1660e01b8152600401610cd496959493929190612326565b6020604051808303815f875af1158015610cf0573d5f803e3d5ffd5b505050506040513d601f19601f82011682018060405250810190610d149190611e05565b9050610da16040518060600160405280602581526020016129fd602591396029546040516370a0823160e01b81523060048201526001600160a01b03909116906370a0823190602401602060405180830381865afa158015610d78573d5f803e3d5ffd5b505050506040513d601f19601f82011682018060405250810190610d9c9190611e05565b610fd0565b5f886006811115610db457610db4611e37565b03610de95760405162461bcd60e51b8152602060048201526005602482015264686572653960d81b604482015260640161086e565b6003886006811115610dfd57610dfd611e37565b50509a9950505050505050505050565b60405163095ea7b360e01b815273e592427a0aece92de3edee1f18e0157c0586156460048201819052602482018490525f916001600160a01b0388169063095ea7b3906044016020604051808303815f875af1158015610e6f573d5f803e3d5ffd5b505050506040513d601f19601f82011682018060405250810190610e939190611e1c565b506040805160a0810182526021546bffffffffffffffffffffffff1960608b811b821660c0850152607d60ea1b60d4850181905292811b821660d785015260eb84019290925289821b1660ee830152825180830360e20181526101028301845282526001600160a01b038881166020840152428385015290820187905260808201869052915163c04b8d5960e01b81526101f49284169063c04b8d5990610f3e9084906004016123e2565b6020604051808303815f875af1158015610f5a573d5f803e3d5ffd5b505050506040513d601f19601f82011682018060405250810190610f7e9190611e05565b93505050505b95945050505050565b610f95611c2a565b506040805160a0810182526001600160a01b03851680825260208201859052918101919091525f6060820152608081018290525b9392505050565b61082e8282604051602401610fe6929190612439565b60408051601f198184030181529190526020810180516001600160e01b03166309710a9d60e41b17905261148f565b602f546040515f9182916001600160a01b039091169061103490611c97565b6001600160a01b039091168152602001604051809103905ff08015801561105d573d5f803e3d5ffd5b50335f908152602e6020526040902080546001600160a01b0319166001600160a01b03831617905592915050565b5f60646110ad836127105f60140154600a6110a6919061246e565b919061149b565b6110b79084612481565b6110c19190612494565b92915050565b5f60058260068111156110dc576110dc611e37565b036110f25750506028546001600160a01b031690565b600682600681111561110657611106611e37565b0361111957506029546001600160a01b03165b919050565b611126611ca4565b61112e611cc3565b611136611cf0565b602a546001600160a01b03908116808552601b548216602086018190526028549092166040860181905261116b9291906114b6565b82526029546001600160a01b03908116908516036111ba57601c546001600160a01b039081166060850181905285821660808601526028546029546111b49391821691166114b6565b60208301525b9193909250565b6111f26040518060a001604052805f80191681526020015f81526020015f81526020015f8152602001606081525090565b8152602001906001900390816111c157905050905082815f8151811061121a5761121a6124b3565b60200260200101819052508181600181518110611239576112396124b3565b6020908102919091018101919091528501819052604080516003808252608082019092525f918160200160208202803683375050602a5482519293506001600160a01b0316918391505f90611290576112906124b3565b6001600160a01b0392831660209182029290920101526026548251911690829060019081106112c1576112c16124b3565b6001600160a01b0392831660209182029290920101526027548251911690829060029081106112f2576112f26124b3565b6001600160a01b03928316602091820292909201015260608701829052601654604051637c26833760e11b815291169063f84d066e9061133c905f90869086908b906004016125b1565b5f604051808303815f875af1158015611357573d5f803e3d5ffd5b505050506040513d5f823e601f3d908101601f1916820160405261137e9190810190612622565b50604080516003808252608082019092525f91602082016060803683370190505090506001600160ff1b03815f815181106113bb576113bb6124b3565b6020026020010181815250506001600160ff1b03816002815181106113e2576113e26124b3565b6020908102919091010152608087015250505f6040850152506114029050565b60165460405163095ea7b360e01b81526001600160a01b039182166004820152602481018890529089169063095ea7b3906044016020604051808303815f875af1158015611452573d5f803e3d5ffd5b505050506040513d601f19601f820116820180604052508101906114769190611e1c565b5061148382826001611a92565b98975050505050505050565b61149881611bc5565b50565b5f825f1904841183021582026114af575f80fd5b5091020490565b6114be611cf0565b6114c86003611be5565b601d546001600160a01b0385811691161480806115445750846001600160a01b031663293577506040518163ffffffff1660e01b8152600401602060405180830381865afa15801561151c573d5f803e3d5ffd5b505050506040513d601f19601f820116820180604052508101906115409190611e05565b6002145b156115ec576115536004611be5565b60405163c661065760e01b81525f60048201526001600160a01b03808616919087169063c661065790602401602060405180830381865afa15801561159a573d5f803e3d5ffd5b505050506040513d601f19601f820116820180604052508101906115be9190612250565b6001600160a01b0316036115de575f8252600182815b6020020152611987565b60018083525f9083906115d4565b846001600160a01b031663293577506040518163ffffffff1660e01b8152600401602060405180830381865afa158015611628573d5f803e3d5ffd5b505050506040513d601f19601f8201168201806040525081019061164c9190611e05565b6003036119875761165d6005611be5565b60405163c661065760e01b81525f60048201526001600160a01b03808616919087169063c661065790602401602060405180830381865afa1580156116a4573d5f803e3d5ffd5b505050506040513d601f19601f820116820180604052508101906116c89190612250565b6001600160a01b0316036116e4575f82815b60200201526117e6565b60405163c661065760e01b8152600160048201526001600160a01b03808616919087169063c661065790602401602060405180830381865afa15801561172c573d5f803e3d5ffd5b505050506040513d601f19601f820116820180604052508101906117509190612250565b6001600160a01b031603611767576001825f6116da565b60405163c661065760e01b8152600260048201526001600160a01b03808616919087169063c661065790602401602060405180830381865afa1580156117af573d5f803e3d5ffd5b505050506040513d601f19601f820116820180604052508101906117d39190612250565b6001600160a01b0316036117e657600282525b6117f06006611be5565b60405163c661065760e01b81525f60048201526001600160a01b03808516919087169063c661065790602401602060405180830381865afa158015611837573d5f803e3d5ffd5b505050506040513d601f19601f8201168201806040525081019061185b9190612250565b6001600160a01b031603611878575f8260015b602002015261197d565b60405163c661065760e01b8152600160048201526001600160a01b03808516919087169063c661065790602401602060405180830381865afa1580156118c0573d5f803e3d5ffd5b505050506040513d601f19601f820116820180604052508101906118e49190612250565b6001600160a01b0316036118fb576001828161186e565b60405163c661065760e01b8152600260048201526001600160a01b03808516919087169063c661065790602401602060405180830381865afa158015611943573d5f803e3d5ffd5b505050506040513d601f19601f820116820180604052508101906119679190612250565b6001600160a01b03160361197d57600260208301525b6119876007611be5565b60016040830152602a546001600160a01b03858116911614806119b757506029546001600160a01b038581169116145b156119c95760015b6060830152611a04565b6028546001600160a01b03908116908516036119e65760016119bf565b6020546001600160a01b0390811690851603611a0457600360608301525b611a0e6008611be5565b80611a7857846001600160a01b031663293577506040518163ffffffff1660e01b8152600401602060405180830381865afa158015611a4f573d5f803e3d5ffd5b505050506040513d601f19601f82011682018060405250810190611a739190611e05565b611a7b565b60025b6080830152611a8a6009611be5565b509392505050565b5f8115610fc957601654604080860151602087015160608801516080890151935163945bcec960e01b81525f956001600160a01b03169463945bcec994611ae5949093909290918b9142906004016126ea565b5f604051808303815f875af1158015611b00573d5f803e3d5ffd5b505050506040513d5f823e601f3d908101601f19168201604052611b279190810190612622565b905080600281518110611b3c57611b3c6124b3565b602002602001015173__$5649a79a4e933613092090e5f3465de1d8$__631b5ac4b590916040518263ffffffff1660e01b8152600401611b7e91815260200190565b602060405180830381865af4158015611b99573d5f803e3d5ffd5b505050506040513d601f19601f82011682018060405250810190611bbd9190611e05565b915050610fc9565b80516a636f6e736f6c652e6c6f67602083015f808483855afa5050505050565b61149881604051602401611bfb91815260200190565b60408051601f198184030181529190526020810180516001600160e01b031663f5b1bba960e01b17905261148f565b6040518060a001604052805f6001600160a01b031681526020015f81526020015f6001600160a01b031681526020015f6001600160a01b03168152602001611c926040805160808101909152805f81525f602082018190526060604083018190529091015290565b905290565b610257806127a683390190565b604051806101600160405280600b906020820280368337509192915050565b6040518060a001604052806005905b611cda611cf0565b815260200190600190039081611cd25790505090565b6040518060a001604052806005906020820280368337509192915050565b6001600160a01b0381168114611498575f80fd5b5f8060408385031215611d33575f80fd5b823591506020830135611d4581611d0e565b809150509250929050565b5f60208284031215611d60575f80fd5b8135610fc981611d0e565b8015158114611498575f80fd5b5f8060408385031215611d89575f80fd5b823591506020830135611d4581611d6b565b5f60208284031215611dab575f80fd5b5035919050565b5f805f8060808587031215611dc5575f80fd5b843593506020850135611dd781611d0e565b92506040850135611de781611d0e565b9150606085013560078110611dfa575f80fd5b939692955090935050565b5f60208284031215611e15575f80fd5b5051919050565b5f60208284031215611e2c575f80fd5b8151610fc981611d6b565b634e487b7160e01b5f52602160045260245ffd5b600181811c90821680611e5f57607f821691505b602082108103611e7d57634e487b7160e01b5f52602260045260245ffd5b50919050565b6004811061149857611498611e37565b5f81518084525f5b81811015611eb757602081850181015186830182015201611e9b565b505f602082860101526020601f19601f83011685010191505092915050565b60018060a01b0381511682526020810151602083015260018060a01b03604082015116604083015260018060a01b0360608201511660608301525f608082015160a060808501528051611f2881611e83565b60a085015260208101516001600160a01b031660c08501526040810151608060e0860152611f5a610120860182611e93565b905060608201511515610100860152809250505092915050565b611f7d81611e83565b9052565b80545f90600181811c90821680611f9957607f821691505b602082108103611fb757634e487b7160e01b5f52602260045260245ffd5b81865260208601818015611fd25760018114611fe857612014565b60ff198516825283151560051b82019550612014565b5f878152602090205f5b8581101561200e57815484820152600190910190602001611ff2565b83019650505b505050505092915050565b5f82825480855260208501945060208160051b830101845f5260205f205f5b8381101561213157601f19858403018852606083528154606084015260018201546080840152600282015460a0840152600382015461208360c0850160ff8316611f74565b6001600160a01b03600891821c811660e0860152600484015481166101008601526005840154811661012086015260068401541661014085015260078301546101608501528201546101808085019190915260098301546101a08501526101c08401526120f76101e08401600a8401611f81565b838103602085015261210c81600b8501611f81565b600c840154604095909501949094525060209790970196600d9091019060010161203e565b50909695505050505050565b80546001600160a01b031682526001810154602083015260a0604083018190525f9061216e9084016002840161201f565b8381036060850152612183816003850161201f565b9050838103608085015261219a8160048501611f81565b949350505050565b6001600160a01b03878116825286166020820152604081018590528354606082015260018401546080820152600284015460a0820152600384015460c0820152600484015460e082015261014061010082018190525f9061220590830185611ed6565b828103610120840152612218818561213d565b9998505050505050505050565b5f805f60608486031215612237575f80fd5b5050815160208301516040909301519094929350919050565b5f60208284031215612260575f80fd5b8151610fc981611d0e565b5f805f805f8060c08789031215612280575f80fd5b50508451602086015160408701516060880151608089015160a090990151939a929950909790965094509092509050565b6001600160a01b038681168252851660208201526040810184905260a0606082018190525f906122e390830185611ed6565b8281036080840152611483818561213d565b805f5b60058110156123205781516001600160a01b03168452602093840193909101906001016122f8565b50505050565b610580810181885f5b600b8110156123575781516001600160a01b031683526020928301929091019060010161232f565b5050506101608201875f5b60058110156123a8578151835f5b600581101561238f578251825260209283019290910190600101612370565b50505060a0929092019160209190910190600101612362565b50505085610480830152846104a08301526123c76104c08301856122f5565b6001600160a01b038316610560830152979650505050505050565b602081525f825160a060208401526123fd60c0840182611e93565b905060018060a01b0360208501511660408401526040840151606084015260608401516080840152608084015160a08401528091505092915050565b604081525f61244b6040830185611e93565b90508260208301529392505050565b634e487b7160e01b5f52601160045260245ffd5b808201808211156110c1576110c161245a565b818103818111156110c1576110c161245a565b5f826124ae57634e487b7160e01b5f52601260045260245ffd5b500490565b634e487b7160e01b5f52603260045260245ffd5b634e487b7160e01b5f52604160045260245ffd5b60028110611f7d57611f7d611e37565b5f82825180855260208501945060208160051b830101602085015f5b8381101561213157601f198584030188528151805184526020810151602085015260408101516040850152606081015160608501526080810151905060a0608085015261255760a0850182611e93565b6020998a0199909450929092019150600101612507565b5f8151808452602084019350602083015f5b828110156125a75781516001600160a01b0316865260209586019590910190600101612580565b5093949350505050565b6125bb81866124db565b60e060208201525f6125d060e08301866124eb565b82810360408401526125e2818661256e565b915050610f84606083018480516001600160a01b039081168352602080830151151590840152604080830151909116908301526060908101511515910152565b5f60208284031215612632575f80fd5b815167ffffffffffffffff811115612648575f80fd5b8201601f81018413612658575f80fd5b805167ffffffffffffffff811115612672576126726124c7565b8060051b604051601f19603f830116810181811067ffffffffffffffff8211171561269f5761269f6124c7565b6040529182526020818401810192908101878411156126bc575f80fd5b6020850194505b838510156126df578451808252602095860195909350016126c3565b509695505050505050565b6126f481886124db565b61012060208201525f61270b6101208301886124eb565b828103604084015261271d818861256e565b86516001600160a01b03908116606086810191909152602089015115156080870152604089015190911660a0860152870151151560c0850152905082810360e0840152845180825260208087019201905f5b8181101561278d57835183526020938401939092019160010161276f565b5050610100939093019390935250969550505050505056fe6080604052348015600e575f80fd5b50604051610257380380610257833981016040819052602b91604e565b5f80546001600160a01b0319166001600160a01b03929092169190911790556079565b5f60208284031215605d575f80fd5b81516001600160a01b03811681146072575f80fd5b9392505050565b6101d1806100865f395ff3fe608060405260043610610028575f3560e01c80638406c0791461002c578063de407d8f14610066575b5f80fd5b348015610037575f80fd5b505f5461004a906001600160a01b031681565b6040516001600160a01b03909116815260200160405180910390f35b61006e610070565b005b60405163474cf53d60e01b81527387870bca3f3fd6335c3f4ce8392d69350b4fa4e2600482018190523060248301525f604483015273893411580e590d62ddbca8a703d61cc4a8c7b2b991829063474cf53d9034906064015f604051808303818588803b1580156100df575f80fd5b505af11580156100f1573d5f803e3d5ffd5b50505f54604051630c04a8a160e41b81526001600160a01b0390911660048201525f1960248201527372e95b8931767c79ba4eee721354d6e99a61d004935083925063c04a8a1091506044015f604051808303815f87803b158015610154575f80fd5b505af1158015610166573d5f803e3d5ffd5b50506040513492503091507f60ecce3105bf3b202d7a83cd679868ea5fd87b35901b96d3748136fafe323c65905f90a350505056fea26469706673582212204f09b60a4ad56b9a64ffed687fd5a66eedcc18b17abad5c3408c0ee25ba3fb9364736f6c634300081a0033667261782062616c206f7a202d20706f7374206372762073776170202d206e6f7420303a20a26469706673582212208cbaa480453d789e7ff3a4c90c1a49b65c47d8eb2c2b6b9e402f4341121e730b64736f6c634300081a0033","linkReferences":{"contracts/libraries/HelpersLib.sol":{"HelpersLib":[{"start":7010,"length":20}]}}},"methodIdentifiers":{"borrow(uint256,address)":"4b3fd148","finishBorrow(address)":"4e7896a9","getUserAccountData(address)":"bf92857c","lend(uint256,bool)":"4f52db6b","performRedemption(uint256,address,address,uint8)":"f14d9365","rebuyPT(uint256)":"5c8abc38"},"id":9}