{"abi":[{"type":"function","name":"borrow","inputs":[{"name":"amount_","type":"uint256","internalType":"uint256"},{"name":"receiver_","type":"address","internalType":"address"}],"outputs":[],"stateMutability":"nonpayable"},{"type":"function","name":"lend","inputs":[{"name":"amountIn_","type":"uint256","internalType":"uint256"},{"name":"tokenIn_","type":"address","internalType":"address"}],"outputs":[],"stateMutability":"payable"},{"type":"function","name":"performRedemption","inputs":[{"name":"amount_","type":"uint256","internalType":"uint256"},{"name":"minAmountOut_","type":"uint256","internalType":"uint256"},{"name":"owner_","type":"address","internalType":"address"},{"name":"receiver_","type":"address","internalType":"address"},{"name":"token_","type":"uint8","internalType":"enum Tokens"}],"outputs":[{"name":"","type":"uint256","internalType":"uint256"}],"stateMutability":"nonpayable"},{"type":"event","name":"NewAccountCreated","inputs":[{"name":"account","type":"address","indexed":false,"internalType":"address"}],"anonymous":false},{"type":"error","name":"OZError01","inputs":[{"name":"tokenIn","type":"address","internalType":"address"}]},{"type":"error","name":"OZError02","inputs":[{"name":"amountIn","type":"uint256","internalType":"uint256"},{"name":"msgValue","type":"uint256","internalType":"uint256"}]}],"bytecode":{"object":"0x6080604052348015600e575f80fd5b50611e438061001c5f395ff3fe608060405260043610610033575f3560e01c80634b3fd14814610037578063b188474414610058578063f4771c701461006b575b5f80fd5b348015610042575f80fd5b506100566100513660046112f2565b61009c565b005b6100566100663660046112f2565b610497565b348015610076575f80fd5b5061008a610085366004611320565b610793565b60405190815260200160405180910390f35b335f90815261012660205260409081902054610127549151631375877960e31b8152600481018590526001600160a01b03848116602483015291821660448201819052929190911690639bac3bc8906064015f604051808303815f87803b158015610105575f80fd5b505af1158015610117573d5f803e3d5ffd5b505061011854610123545f9350839250610140916001600160a01b039081169116308885610a5e565b6101235460055460405163095ea7b360e01b81526001600160a01b03918216600482015260248101849052929350169063095ea7b3906044016020604051808303815f875af1158015610195573d5f803e3d5ffd5b505050506040513d601f19601f820116820180604052508101906101b9919061137e565b505f6101dd6040518060600160405280602d8152602001611de1602d913983610b90565b6005546006546040805160808101909152600780545f946001600160a01b039081169463c81f847a94309492909116928892600f92610311928c9290829060ff16600381111561022f5761022f6113a4565b6003811115610240576102406113a4565b8152815461010090046001600160a01b0316602082015260018201805460409092019161026c906113b8565b80601f0160208091040260200160405190810160405280929190818152602001828054610298906113b8565b80156102e35780601f106102ba576101008083540402835291602001916102e3565b820191905f5260205f20905b8154815290600101906020018083116102c657829003601f168201915b50505091835250506002919091015460ff161515602090910152610123546001600160a01b03169190610bd9565b6040516001600160e01b031960e088901b168152610339959493929190600a9060040161171b565b6060604051808303815f875af1158015610355573d5f803e3d5ffd5b505050506040513d601f19601f82011682018060405250810190610379919061179e565b505090506103bc6040518060400160405280601881526020017f6e657450744f757420616674657220505420737761703a20000000000000000081525082610b90565b61011c546040516370a0823160e01b81526001600160a01b0387811660048301525f9216906370a0823190602401602060405180830381865afa158015610405573d5f803e3d5ffd5b505050506040513d601f19601f8201168201806040525081019061042991906117c9565b61011a546040516340c10f1960e01b81526001600160a01b038a81166004830152602482018490529293509116906340c10f19906044015f604051808303815f87803b158015610477575f80fd5b505af1158015610489573d5f803e3d5ffd5b505050505050505050505050565b6002546001546040805163026b1d5f60e01b815290516001600160a01b03938416939092169163026b1d5f916004808201926020929091908290030181865afa1580156104e6573d5f803e3d5ffd5b505050506040513d601f19601f8201168201806040525081019061050a91906117e0565b6001600160a01b0316146105a5576001546040805163026b1d5f60e01b815290516001600160a01b039092169163026b1d5f916004808201926020929091908290030181865afa158015610560573d5f803e3d5ffd5b505050506040513d601f19601f8201168201806040525081019061058491906117e0565b600280546001600160a01b0319166001600160a01b03929092169190911790555b610129546001600160a01b03908116908216036105ea573482146105ea576040516378feddbd60e11b8152600481018390523460248201526044015b60405180910390fd5b6001600160a01b0381165f908152610128602052604090205460ff1661062e576040516331d3c70960e11b81526001600160a01b03821660048201526024016105e1565b335f90815261012660205260408120546001600160a01b03168061069457610654610c17565b6040516001600160a01b03821681529091507fe759fda21527aab212bc806c6b81b4e16add78b260f71442690c536ba1de40cd9060200160405180910390a15b610129546001600160a01b03848116911614610729576040516323b872dd60e01b81523360048201526001600160a01b038281166024830152604482018690528416906323b872dd906064016020604051808303815f875af11580156106fc573d5f803e3d5ffd5b505050506040513d601f19601f82011682018060405250810190610720919061137e565b505f915061072d565b3491505b604051630c2a378960e11b8152600481018590526001600160a01b0384811660248301528216906318546f129084906044015f604051808303818588803b158015610776575f80fd5b505af1158015610788573d5f803e3d5ffd5b505050505050505050565b60055460065461011b546040516370a0823160e01b815230600482018190525f9485946001600160a01b039182169463594a88cc949183169216906370a0823190602401602060405180830381865afa1580156107f2573d5f803e3d5ffd5b505050506040513d601f19601f8201168201806040525081019061081691906117c9565b604080516080810190915260078054610843928e929091829060ff16600381111561022f5761022f6113a4565b6040516001600160e01b031960e087901b16815261086a9493929190600a906004016117fb565b6060604051808303815f875af1158015610886573d5f803e3d5ffd5b505050506040513d601f19601f820116820180604052508101906108aa919061179e565b50909150600890508360088111156108c4576108c46113a4565b03610946576101235460405163a9059cbb60e01b81526001600160a01b038681166004830152602482018490529091169063a9059cbb906044016020604051808303815f875af115801561091a573d5f803e3d5ffd5b505050506040513d601f19601f8201168201806040525081019061093e919061137e565b509050610a55565b5f61095084610cc9565b6101235460195460405163095ea7b360e01b81526001600160a01b03918216600482015260248101869052929350169063095ea7b3906044016020604051808303815f875af11580156109a5573d5f803e3d5ffd5b505050506040513d601f19601f820116820180604052508101906109c9919061137e565b5060195481516020830151604080850151905163c872a3c560e01b81525f946001600160a01b03169363c872a3c593610a0f939192909189918f91908e9060040161187c565b6020604051808303815f875af1158015610a2b573d5f803e3d5ffd5b505050506040513d601f19601f82011682018060405250810190610a4f91906117c9565b93505050505b95945050505050565b60405163095ea7b360e01b815273e592427a0aece92de3edee1f18e0157c0586156460048201819052602482018490525f916001600160a01b0388169063095ea7b3906044016020604051808303815f875af1158015610ac0573d5f803e3d5ffd5b505050506040513d601f19601f82011682018060405250810190610ae4919061137e565b506040805160a081018252610119546bffffffffffffffffffffffff1960608b811b821660c0850152607d60ea1b60d4850181905292811b821660d785015260eb84019290925289821b1660ee830152825180830360e20181526101028301845282526001600160a01b038881166020840152428385015290820187905260808201869052915163c04b8d5960e01b81526101f49284169063c04b8d5990610a0f908490600401611938565b610bd58282604051602401610ba692919061198f565b60408051601f198184030181529190526020810180516001600160e01b03166309710a9d60e41b1790526111a1565b5050565b610be16111cd565b506040805160a0810182526001600160a01b039490941680855260208501939093528301919091525f6060830152608082015290565b61012754610129545f8054600254600454604051939586956001600160a01b03918216959082169482169382169290911690610c529061123a565b6001600160a01b0395861681529385166020850152918416604084015283166060830152909116608082015260a001604051809103905ff080158015610c9a573d5f803e3d5ffd5b50335f9081526101266020526040902080546001600160a01b0319166001600160a01b03831617905592915050565b610cd1611247565b6005826008811115610ce557610ce56113a4565b03610de257604080516101c081019091526021816060810182600b8282826020028201915b81546001600160a01b03168152600190910190602001808311610d0a5750505091835250506040805160a08101909152602090910190600b830160055f835b82821015610d90576040805160a081019182905290600584810287019182845b815481526020019060010190808311610d6957505050505081526020019060010190610d49565b505050908252506040805160a081019182905260209092019190602484019060059082845b81546001600160a01b03168152600190910190602001808311610db5575050505050815250509050919050565b6006826008811115610df657610df66113a4565b03610ea157604080516101c08101909152604a816060810182600b8282826020028201915b81546001600160a01b03168152600190910190602001808311610e1b5750505091835250506040805160a08101909152602090910190600b830160055f835b82821015610d90576040805160a081019182905290600584810287019182845b815481526020019060010190808311610e7a57505050505081526020019060010190610e5a565b6003826008811115610eb557610eb56113a4565b03610f6057604080516101c081019091526073816060810182600b8282826020028201915b81546001600160a01b03168152600190910190602001808311610eda5750505091835250506040805160a08101909152602090910190600b830160055f835b82821015610d90576040805160a081019182905290600584810287019182845b815481526020019060010190808311610f3957505050505081526020019060010190610f19565b6002826008811115610f7457610f746113a4565b0361101f57604080516101c08101909152609c816060810182600b8282826020028201915b81546001600160a01b03168152600190910190602001808311610f995750505091835250506040805160a08101909152602090910190600b830160055f835b82821015610d90576040805160a081019182905290600584810287019182845b815481526020019060010190808311610ff857505050505081526020019060010190610fd8565b5f826008811115611032576110326113a4565b036110dd57604080516101c0810190915260c5816060810182600b8282826020028201915b81546001600160a01b031681526001909101906020018083116110575750505091835250506040805160a08101909152602090910190600b830160055f835b82821015610d90576040805160a081019182905290600584810287019182845b8154815260200190600101908083116110b657505050505081526020019060010190611096565b60078260088111156110f1576110f16113a4565b0361119c57604080516101c0810190915260ee816060810182600b8282826020028201915b81546001600160a01b031681526001909101906020018083116111165750505091835250506040805160a08101909152602090910190600b830160055f835b82821015610d90576040805160a081019182905290600584810287019182845b81548152602001906001019080831161117557505050505081526020019060010190611155565b919050565b6111aa816111ad565b50565b80516a636f6e736f6c652e6c6f67602083015f808483855afa5050505050565b6040518060a001604052805f6001600160a01b031681526020015f81526020015f6001600160a01b031681526020015f6001600160a01b031681526020016112356040805160808101909152805f81525f602082018190526060604083018190529091015290565b905290565b610430806119b183390190565b604051806060016040528061125a611274565b8152602001611267611293565b81526020016112356112c0565b604051806101600160405280600b906020820280368337509192915050565b6040518060a001604052806005905b6112aa6112c0565b8152602001906001900390816112a25790505090565b6040518060a001604052806005906020820280368337509192915050565b6001600160a01b03811681146111aa575f80fd5b5f8060408385031215611303575f80fd5b823591506020830135611315816112de565b809150509250929050565b5f805f805f60a08688031215611334575f80fd5b8535945060208601359350604086013561134d816112de565b9250606086013561135d816112de565b9150608086013560098110611370575f80fd5b809150509295509295909350565b5f6020828403121561138e575f80fd5b8151801515811461139d575f80fd5b9392505050565b634e487b7160e01b5f52602160045260245ffd5b600181811c908216806113cc57607f821691505b6020821081036113ea57634e487b7160e01b5f52602260045260245ffd5b50919050565b600481106111aa57634e487b7160e01b5f52602160045260245ffd5b5f81518084525f5b8181101561143057602081850181015186830182015201611414565b505f602082860101526020601f19601f83011685010191505092915050565b60018060a01b0381511682526020810151602083015260018060a01b03604082015116604083015260018060a01b0360608201511660608301525f608082015160a0608085015280516114a1816113f0565b60a085015260208101516001600160a01b031660c08501526040810151608060e08601526114d361012086018261140c565b905060608201511515610100860152809250505092915050565b6114f6816113f0565b9052565b80545f90600181811c9082168061151257607f821691505b60208210810361153057634e487b7160e01b5f52602260045260245ffd5b8186526020860181801561154b57600181146115615761158d565b60ff198516825283151560051b8201955061158d565b5f878152602090205f5b858110156115875781548482015260019091019060200161156b565b83019650505b505050505092915050565b5f82825480855260208501945060208160051b830101845f5260205f205f5b838110156116aa57601f19858403018852606083528154606084015260018201546080840152600282015460a084015260038201546115fc60c0850160ff83166114ed565b6001600160a01b03600891821c811660e0860152600484015481166101008601526005840154811661012086015260068401541661014085015260078301546101608501528201546101808085019190915260098301546101a08501526101c08401526116706101e08401600a84016114fa565b838103602085015261168581600b85016114fa565b600c840154604095909501949094525060209790970196600d909101906001016115b7565b50909695505050505050565b80546001600160a01b031682526001810154602083015260a0604083018190525f906116e790840160028401611598565b83810360608501526116fc8160038501611598565b9050838103608085015261171381600485016114fa565b949350505050565b6001600160a01b03878116825286166020820152604081018590528354606082015260018401546080820152600284015460a0820152600384015460c0820152600484015460e082015261014061010082018190525f9061177e9083018561144f565b82810361012084015261179181856116b6565b9998505050505050505050565b5f805f606084860312156117b0575f80fd5b5050815160208301516040909301519094929350919050565b5f602082840312156117d9575f80fd5b5051919050565b5f602082840312156117f0575f80fd5b815161139d816112de565b6001600160a01b038681168252851660208201526040810184905260a0606082018190525f9061182d9083018561144f565b828103608084015261183f81856116b6565b98975050505050505050565b805f5b60058110156118765781516001600160a01b031684526020938401939091019060010161184e565b50505050565b610580810181885f5b600b8110156118ad5781516001600160a01b0316835260209283019290910190600101611885565b5050506101608201875f5b60058110156118fe578151835f5b60058110156118e55782518252602092830192909101906001016118c6565b50505060a09290920191602091909101906001016118b8565b50505085610480830152846104a083015261191d6104c083018561184b565b6001600160a01b038316610560830152979650505050505050565b602081525f825160a0602084015261195360c084018261140c565b905060018060a01b0360208501511660408401526040840151606084015260608401516080840152608084015160a08401528091505092915050565b604081525f6119a1604083018561140c565b9050826020830152939250505056fe608060405234801561000f575f80fd5b5060405161043038038061043083398101604081905261002e916100aa565b5f80546001600160a01b03199081166001600160a01b0397881617909155600180548216958716959095179094556002805485169386169390931790925560038054841691851691909117905560048054909216921691909117905561010b565b80516001600160a01b03811681146100a5575f80fd5b919050565b5f805f805f60a086880312156100be575f80fd5b6100c78661008f565b94506100d56020870161008f565b93506100e36040870161008f565b92506100f16060870161008f565b91506100ff6080870161008f565b90509295509295909350565b610318806101185f395ff3fe608060405260043610610028575f3560e01c806318546f121461002c5780638406c07914610041575b5f80fd5b61003f61003a366004610283565b61007b565b005b34801561004c575f80fd5b505f5461005f906001600160a01b031681565b6040516001600160a01b03909116815260200160405180910390f35b6001546001600160a01b03908116908216036101015760025460035460405163474cf53d60e01b81526001600160a01b0391821660048201523060248201525f604482015291169063474cf53d9034906064015f604051808303818588803b1580156100e5575f80fd5b505af11580156100f7573d5f803e3d5ffd5b50505050506101e4565b60035460405163095ea7b360e01b81526001600160a01b039182166004820152602481018490529082169063095ea7b3906044016020604051808303815f875af1158015610151573d5f803e3d5ffd5b505050506040513d601f19601f8201168201806040525081019061017591906102bc565b5060035460405163617ba03760e01b81526001600160a01b038381166004830152602482018590523060448301525f60648301529091169063617ba037906084015f604051808303815f87803b1580156101cd575f80fd5b505af11580156101df573d5f803e3d5ffd5b505050505b600480545f54604051630c04a8a160e41b81526001600160a01b03918216938101939093525f196024840152169063c04a8a10906044015f604051808303815f87803b158015610232575f80fd5b505af1158015610244573d5f803e3d5ffd5b50506040518492506001600160a01b038416915030907f75134c5a30206e01639de7bebafb4f915e3e6cef465a59b1424e26ea3c9faeb7905f90a45050565b5f8060408385031215610294575f80fd5b8235915060208301356001600160a01b03811681146102b1575f80fd5b809150509250929050565b5f602082840312156102cc575f80fd5b815180151581146102db575f80fd5b939250505056fea264697066735822122071a3a0041a18d78fa5df242c416d327c746a92f82b2a5cfcb40e947e7ac80b6864736f6c634300081a003373555344654f7574206265696e67207377617070656420666f72205054202d20696e20626f72726f7728293a20a26469706673582212208316dfd5479482f3883f5296fac51784602fd26552ed262eb98e656d2e1c1a9164736f6c634300081a0033","linkReferences":{}},"methodIdentifiers":{"borrow(uint256,address)":"4b3fd148","lend(uint256,address)":"b1884744","performRedemption(uint256,uint256,address,address,uint8)":"f4771c70"},"id":11}