{"abi":[{"type":"function","name":"borrow","inputs":[{"name":"amount_","type":"uint256","internalType":"uint256"},{"name":"receiver_","type":"address","internalType":"address"}],"outputs":[],"stateMutability":"nonpayable"},{"type":"function","name":"finishBorrow","inputs":[{"name":"receiver_","type":"address","internalType":"address"}],"outputs":[],"stateMutability":"nonpayable"},{"type":"function","name":"getUserAccountData","inputs":[{"name":"user_","type":"address","internalType":"address"}],"outputs":[{"name":"userData","type":"tuple","internalType":"struct UserAccountData","components":[{"name":"totalCollateralBase","type":"uint256","internalType":"uint256"},{"name":"totalDebtBase","type":"uint256","internalType":"uint256"},{"name":"availableBorrowsBase","type":"uint256","internalType":"uint256"},{"name":"currentLiquidationThreshold","type":"uint256","internalType":"uint256"},{"name":"ltv","type":"uint256","internalType":"uint256"},{"name":"healthFactor","type":"uint256","internalType":"uint256"}]}],"stateMutability":"view"},{"type":"function","name":"lend","inputs":[{"name":"amountIn_","type":"uint256","internalType":"uint256"},{"name":"isETH_","type":"bool","internalType":"bool"}],"outputs":[],"stateMutability":"payable"},{"type":"function","name":"rebuyPT","inputs":[{"name":"amountInUSDC_","type":"uint256","internalType":"uint256"}],"outputs":[],"stateMutability":"nonpayable"},{"type":"function","name":"redeem","inputs":[{"name":"amount_","type":"uint256","internalType":"uint256"},{"name":"owner_","type":"address","internalType":"address"},{"name":"receiver_","type":"address","internalType":"address"},{"name":"isETH_","type":"bool","internalType":"bool"}],"outputs":[],"stateMutability":"nonpayable"},{"type":"event","name":"NewAccountCreated","inputs":[{"name":"account","type":"address","indexed":false,"internalType":"address"}],"anonymous":false}],"bytecode":{"object":"0x6080604052348015600e575f80fd5b506120e78061001c5f395ff3fe608060405260043610610054575f3560e01c80634b3fd148146100585780634e7896a9146100795780634f52db6b146100985780635c8abc38146100ab578063be4a0a14146100ca578063bf92857c146100e9575b5f80fd5b348015610063575f80fd5b506100776100723660046115c8565b61015c565b005b348015610084575f80fd5b506100776100933660046115f6565b61047f565b6100776100a6366004611625565b610550565b3480156100b6575f80fd5b506100776100c5366004611648565b610724565b3480156100d5575f80fd5b506100776100e436600461165f565b6108bf565b3480156100f4575f80fd5b506101086101033660046115f6565b610d0c565b60405161015391905f60c082019050825182526020830151602083015260408301516040830152606083015160608301526080830151608083015260a083015160a083015292915050565b60405180910390f35b335f90815260226020526040808220546023549151631375877960e31b8152600481018690526001600160a01b0385811660248301529182166044820181905293929190911690639bac3bc8906064016020604051808303815f875af11580156101c8573d5f803e3d5ffd5b505050506040513d601f19601f820116820180604052508101906101ec91906116af565b601854601f549192505f918291610212916001600160a01b039182169116308685610e17565b601f546004805460405163095ea7b360e01b81526001600160a01b03918216928101929092526024820184905292935091169063095ea7b3906044016020604051808303815f875af115801561026a573d5f803e3d5ffd5b505050506040513d601f19601f8201168201806040525081019061028e91906116c6565b50600454600554601f545f9283926001600160a01b039182169263c81f847a9230928116918691600e916102c391168a610f95565b6040516001600160e01b031960e088901b1681526102eb959493929190600990600401611a44565b6060604051808303815f875af1158015610307573d5f803e3d5ffd5b505050506040513d601f19601f8201168201806040525081019061032b9190611aba565b5050905061036e6040518060400160405280601e81526020017f6e657450744f7574202a2a2a2a2a202d206f776e6564206279206f7a3a200000815250826110c7565b601c546040516370a0823160e01b81526001600160a01b0388811660048301525f9216906370a0823190602401602060405180830381865afa1580156103b6573d5f803e3d5ffd5b505050506040513d601f19601f820116820180604052508101906103da91906116af565b90506104136040518060400160405280601581526020017403ab9b231903232b13a10169034b73a1030b1b19d1605d1b815250826110c7565b601a546040516340c10f1960e01b81526001600160a01b038a8116600483015260248201849052909116906340c10f19906044015f604051808303815f87803b15801561045e575f80fd5b505af1158015610470573d5f803e3d5ffd5b50505050505050505050505050565b6018546040516370a0823160e01b81523060048201525f916001600160a01b0316906370a0823190602401602060405180830381865afa1580156104c5573d5f803e3d5ffd5b505050506040513d601f19601f820116820180604052508101906104e991906116af565b601a546040516340c10f1960e01b81526001600160a01b038581166004830152602482018490529293509116906340c10f19906044015f604051808303815f87803b158015610536575f80fd5b505af1158015610548573d5f803e3d5ffd5b505050505050565b6002546001546040805163026b1d5f60e01b815290516001600160a01b03938416939092169163026b1d5f916004808201926020929091908290030181865afa15801561059f573d5f803e3d5ffd5b505050506040513d601f19601f820116820180604052508101906105c39190611ae5565b6001600160a01b03161461065e576001546040805163026b1d5f60e01b815290516001600160a01b039092169163026b1d5f916004808201926020929091908290030181865afa158015610619573d5f803e3d5ffd5b505050506040513d601f19601f8201168201806040525081019061063d9190611ae5565b600280546001600160a01b0319166001600160a01b03929092169190911790555b335f908152602260205260409020546001600160a01b0316806106c35761068361110c565b6040516001600160a01b03821681529091507fe759fda21527aab212bc806c6b81b4e16add78b260f71442690c536ba1de40cd9060200160405180910390a15b811561071e57806001600160a01b031663de407d8f346040518263ffffffff1660e01b81526004015f604051808303818588803b158015610702575f80fd5b505af1158015610714573d5f803e3d5ffd5b5050505050505050565b505b5050565b6021546107695760405162461bcd60e51b815260206004820152600e60248201526d3932b13abca82a1d1032b93937b960911b60448201526064015b60405180910390fd5b6018546040516323b872dd60e01b8152336004820152306024820152604481018390526001600160a01b03909116906323b872dd906064016020604051808303815f875af11580156107bd573d5f803e3d5ffd5b505050506040513d601f19601f820116820180604052508101906107e191906116c6565b50601b546040516370a0823160e01b81523060048201525f916001600160a01b0316906370a0823190602401602060405180830381865afa158015610828573d5f803e3d5ffd5b505050506040513d601f19601f8201168201806040525081019061084c91906116af565b601b5460405163a9059cbb60e01b8152336004820152602481018390529192506001600160a01b03169063a9059cbb906044016020604051808303815f875af115801561089b573d5f803e3d5ffd5b505050506040513d601f19601f8201168201806040525081019061071e91906116c6565b5f6108ea60405180604001604052806008815260200167039b2b73232b91d160c51b81525033611182565b604080518082018252600b81526a0282a103130b61027ad1d160ad1b6020820152601b5491516370a0823160e01b815230600482015261097c926001600160a01b0316906370a08231906024015b602060405180830381865afa158015610953573d5f803e3d5ffd5b505050506040513d601f19601f8201168201806040525081019061097791906116af565b6110c7565b60048054600554601b546040516370a0823160e01b8152309481018590525f946001600160a01b039485169463594a88cc949193918116929116906370a0823190602401602060405180830381865afa1580156109db573d5f803e3d5ffd5b505050506040513d601f19601f820116820180604052508101906109ff91906116af565b601f54610a15906001600160a01b031688610f95565b6040516001600160e01b031960e087901b168152610a3c9493929190600990600401611b00565b6060604051808303815f875af1158015610a58573d5f803e3d5ffd5b505050506040513d601f19601f82011682018060405250810190610a7c9190611aba565b50509050610ab76040518060400160405280601581526020017403732ba2cb4b2b6322a37b5b2b71039aaa9a2329d1605d1b815250826110c7565b604080518082018252601781527f50542062616c206f7a202d20706f737420737761703a200000000000000000006020820152601b5491516370a0823160e01b8152306004820152610b1b926001600160a01b0316906370a0823190602401610938565b604080518082018252601981527f55534465206f7a202d20706f73742073776170202d20303a20000000000000006020820152601d5491516370a0823160e01b8152306004820152610b7f926001600160a01b0316906370a0823190602401610938565b604080518082018252601e81527f7355534465206f7a202d20706f73742073776170202d206e6f7420303a2000006020820152601f5491516370a0823160e01b8152306004820152610be3926001600160a01b0316906370a0823190602401610938565b610bfa60405180602001604052805f8152506111c7565b8215610c5c57601f54601e545f91610c20916001600160a01b039182169116848661120d565b9050610c5a60405180604001604052806016815260200175030b6b7bab73a2a37b5b2b727baba1015151515151d160551b815250826110c7565b505b604080518082018252601e81527f7355534465206f7a202d20706f7374207769746864726177202d20303a2000006020820152601f5491516370a0823160e01b8152306004820152610cc0926001600160a01b0316906370a0823190602401610938565b61054860405180606001604052806021815260200161209160219139601d546040516370a0823160e01b81523060048201526001600160a01b03909116906370a0823190602401610938565b610d3f6040518060c001604052805f81526020015f81526020015f81526020015f81526020015f81526020015f81525090565b6001600160a01b038281165f90815260226020526040808220546002549151632fe4a15f60e21b815290841660048201819052938392839283928392839291169063bf92857c9060240160c060405180830381865afa158015610da4573d5f803e3d5ffd5b505050506040513d601f19601f82011682018060405250810190610dc89190611b50565b9550955095509550955095506040518060c00160405280878152602001868152602001610df486611390565b815260200184815260200183815260200182815250975050505050505050919050565b60405163095ea7b360e01b815273e592427a0aece92de3edee1f18e0157c0586156460048201819052602482018490525f916001600160a01b0388169063095ea7b3906044016020604051808303815f875af1158015610e79573d5f803e3d5ffd5b505050506040513d601f19601f82011682018060405250810190610e9d91906116c6565b506040805160a0810182526019546bffffffffffffffffffffffff1960608b811b821660c0850152607d60ea1b60d4850181905292811b821660d785015260eb84019290925289821b1660ee830152825180830360e20181526101028301845282526001600160a01b038881166020840152428385015290820187905260808201869052915163c04b8d5960e01b81526101f49284169063c04b8d5990610f48908490600401611b96565b6020604051808303815f875af1158015610f64573d5f803e3d5ffd5b505050506040513d601f19601f82011682018060405250810190610f8891906116af565b9998505050505050505050565b610f9d61153a565b6040805160a0810182526001600160a01b03851680825260208201859052818301525f606082015281516080818101909352600680549293840192829060ff166003811115610fee57610fee6116e1565b6003811115610fff57610fff6116e1565b8152815461010090046001600160a01b0316602082015260018201805460409092019161102b906117f3565b80601f0160208091040260200160405190810160405280929190818152602001828054611057906117f3565b80156110a25780601f10611079576101008083540402835291602001916110a2565b820191905f5260205f20905b81548152906001019060200180831161108557829003601f168201915b50505091835250506002919091015460ff161515602090910152905290505b92915050565b61072082826040516024016110dd929190611bed565b60408051601f198184030181529190526020810180516001600160e01b03166309710a9d60e41b1790526113c6565b6023546040515f9182916001600160a01b039091169061112b906115a7565b6001600160a01b039091168152602001604051809103905ff080158015611154573d5f803e3d5ffd5b50335f90815260226020526040902080546001600160a01b0319166001600160a01b03831617905592915050565b6107208282604051602401611198929190611c0e565b60408051601f198184030181529190526020810180516001600160e01b031663319af33360e01b1790526113c6565b61120a816040516024016111db9190611c37565b60408051601f198184030181529190526020810180516001600160e01b031663104c13eb60e21b1790526113c6565b50565b6040805160c0810180835260155463038fff2d60e41b90915291515f9283929182916001600160a01b0316906338fff2d09060c4808501916020918187030181865afa15801561125f573d5f803e3d5ffd5b505050506040513d601f19601f8201168201806040525081019061128391906116af565b81526020015f81526001600160a01b03808916602083015287166040820152606081018690526080015f6040519080825280601f01601f1916602001820160405280156112d7576020820181803683370190505b5090526040805160808082018352308083525f6020840181905283850191909152606083015260165490840151925163095ea7b360e01b81526001600160a01b03918216600482015260248101939093529293509188169063095ea7b3906044016020604051808303815f875af1158015611354573d5f803e3d5ffd5b505050506040513d601f19601f8201168201806040525081019061137891906116c6565b50611385828286426113cf565b979650505050505050565b5f60646113b2836127105f60140154600a6113ab9190611c5d565b91906114ff565b6113bc9084611c70565b6110c19190611c83565b61120a8161151a565b6016546040516352bbbe2960e01b81525f916001600160a01b0316906352bbbe2990611405908890889088908890600401611ca2565b6020604051808303815f875af192505050801561143f575060408051601f3d908101601f1916820190925261143c918101906116af565b60015b6114bc5761144b611d63565b806308c379a0036114b2575061145f611db5565b8061146a57506114b4565b60405162461bcd60e51b815260206004820152601760248201527f6572726f7220696e205f657865637574655377617028290000000000000000006044820152606401610760565b505b3d5f803e3d5ffd5b805f036114f45760405162461bcd60e51b8152600401610760906020808252600490820152636d79203160e01b604082015260600190565b90505b949350505050565b5f825f190484118302158202611513575f80fd5b5091020490565b80516a636f6e736f6c652e6c6f67602083015f808483855afa5050505050565b6040518060a001604052805f6001600160a01b031681526020015f81526020015f6001600160a01b031681526020015f6001600160a01b031681526020016115a26040805160808101909152805f81525f602082018190526060604083018190529091015290565b905290565b61025780611e3a83390190565b6001600160a01b038116811461120a575f80fd5b5f80604083850312156115d9575f80fd5b8235915060208301356115eb816115b4565b809150509250929050565b5f60208284031215611606575f80fd5b8135611611816115b4565b9392505050565b801515811461120a575f80fd5b5f8060408385031215611636575f80fd5b8235915060208301356115eb81611618565b5f60208284031215611658575f80fd5b5035919050565b5f805f8060808587031215611672575f80fd5b843593506020850135611684816115b4565b92506040850135611694816115b4565b915060608501356116a481611618565b939692955090935050565b5f602082840312156116bf575f80fd5b5051919050565b5f602082840312156116d6575f80fd5b815161161181611618565b634e487b7160e01b5f52602160045260245ffd5b6004811061120a5761120a6116e1565b5f81518084525f5b818110156117295760208185018101518683018201520161170d565b505f602082860101526020601f19601f83011685010191505092915050565b60018060a01b0381511682526020810151602083015260018060a01b03604082015116604083015260018060a01b0360608201511660608301525f608082015160a06080850152805161179a816116f5565b60a085015260208101516001600160a01b031660c08501526040810151608060e08601526117cc610120860182611705565b905060608201511515610100860152809250505092915050565b6117ef816116f5565b9052565b600181811c9082168061180757607f821691505b60208210810361182557634e487b7160e01b5f52602260045260245ffd5b50919050565b80545f90600181811c9082168061184357607f821691505b60208210810361186157634e487b7160e01b5f52602260045260245ffd5b8186526020860181801561187c5760018114611892576118be565b60ff198516825283151560051b820195506118be565b5f878152602090205f5b858110156118b85781548482015260019091019060200161189c565b83019650505b505050505092915050565b5f82825480855260208501945060208160051b830101845f5260205f205f5b838110156119db57601f19858403018852606083528154606084015260018201546080840152600282015460a0840152600382015461192d60c0850160ff83166117e6565b6001600160a01b03600891821c811660e0860152600484015481166101008601526005840154811661012086015260068401541661014085015260078301546101608501528201546101808085019190915260098301546101a08501526101c08401526119a16101e08401600a840161182b565b83810360208501526119b681600b850161182b565b600c840154604095909501949094525060209790970196600d909101906001016118e8565b50909695505050505050565b80546001600160a01b031682526001810154602083015260a0604083018190525f90611a18908401600284016118c9565b8381036060850152611a2d81600385016118c9565b905083810360808501526114f7816004850161182b565b6001600160a01b03878116825286166020820152604081018590528354606082015260018401546080820152600284015460a0820152600384015460c0820152600484015460e082015261014061010082018190525f90611aa790830185611748565b828103610120840152610f8881856119e7565b5f805f60608486031215611acc575f80fd5b5050815160208301516040909301519094929350919050565b5f60208284031215611af5575f80fd5b8151611611816115b4565b6001600160a01b038681168252851660208201526040810184905260a0606082018190525f90611b3290830185611748565b8281036080840152611b4481856119e7565b98975050505050505050565b5f805f805f8060c08789031215611b65575f80fd5b50508451602086015160408701516060880151608089015160a090990151939a929950909790965094509092509050565b602081525f825160a06020840152611bb160c0840182611705565b905060018060a01b0360208501511660408401526040840151606084015260608401516080840152608084015160a08401528091505092915050565b604081525f611bff6040830185611705565b90508260208301529392505050565b604081525f611c206040830185611705565b905060018060a01b03831660208301529392505050565b602081525f6116116020830184611705565b634e487b7160e01b5f52601160045260245ffd5b808201808211156110c1576110c1611c49565b818103818111156110c1576110c1611c49565b5f82611c9d57634e487b7160e01b5f52601260045260245ffd5b500490565b60e08152845160e08201525f602086015160028110611cc357611cc36116e1565b61010083015260408601516001600160a01b03908116610120840152606087015116610140830152608086015161016083015260a086015160c0610180840152611d116101a0840182611705565b915050611d51602083018680516001600160a01b039081168352602080830151151590840152604080830151909116908301526060908101511515910152565b60a082019390935260c0015292915050565b5f60033d1115611d795760045f803e505f5160e01c5b90565b601f8201601f1916810167ffffffffffffffff81118282101715611dae57634e487b7160e01b5f52604160045260245ffd5b6040525050565b5f60443d1015611dc25790565b6040513d600319016004823e80513d602482011167ffffffffffffffff82111715611dec57505090565b808201805167ffffffffffffffff811115611e08575050505090565b3d8401600319018282016020011115611e22575050505090565b611e3160208285010185611d7c565b50939250505056fe6080604052348015600e575f80fd5b50604051610257380380610257833981016040819052602b91604e565b5f80546001600160a01b0319166001600160a01b03929092169190911790556079565b5f60208284031215605d575f80fd5b81516001600160a01b03811681146072575f80fd5b9392505050565b6101d1806100865f395ff3fe608060405260043610610028575f3560e01c80638406c0791461002c578063de407d8f14610066575b5f80fd5b348015610037575f80fd5b505f5461004a906001600160a01b031681565b6040516001600160a01b03909116815260200160405180910390f35b61006e610070565b005b60405163474cf53d60e01b81527387870bca3f3fd6335c3f4ce8392d69350b4fa4e2600482018190523060248301525f604483015273893411580e590d62ddbca8a703d61cc4a8c7b2b991829063474cf53d9034906064015f604051808303818588803b1580156100df575f80fd5b505af11580156100f1573d5f803e3d5ffd5b50505f54604051630c04a8a160e41b81526001600160a01b0390911660048201525f1960248201527372e95b8931767c79ba4eee721354d6e99a61d004935083925063c04a8a1091506044015f604051808303815f87803b158015610154575f80fd5b505af1158015610166573d5f803e3d5ffd5b50506040513492503091507f60ecce3105bf3b202d7a83cd679868ea5fd87b35901b96d3748136fafe323c65905f90a350505056fea2646970667358221220242d550094e1a27e7d80f41e37442a3b6925fcb4bd50f45f24a4a3fd51016b2b64736f6c634300081a003355534465206f7a202d20706f7374207769746864726177202d206e6f7420303a20a2646970667358221220ad9a605be96c47f9d5ecabb0e65f2d803be9a3a75307f1c8f7b67f063c7e6d4f64736f6c634300081a0033","linkReferences":{}},"methodIdentifiers":{"borrow(uint256,address)":"4b3fd148","finishBorrow(address)":"4e7896a9","getUserAccountData(address)":"bf92857c","lend(uint256,bool)":"4f52db6b","rebuyPT(uint256)":"5c8abc38","redeem(uint256,address,address,bool)":"be4a0a14"},"id":9}