{"abi":[{"type":"function","name":"borrow","inputs":[{"name":"amount_","type":"uint256","internalType":"uint256"},{"name":"receiver_","type":"address","internalType":"address"}],"outputs":[],"stateMutability":"nonpayable"},{"type":"function","name":"finishBorrow","inputs":[{"name":"receiver_","type":"address","internalType":"address"}],"outputs":[],"stateMutability":"nonpayable"},{"type":"function","name":"lend","inputs":[{"name":"amountIn_","type":"uint256","internalType":"uint256"},{"name":"isETH_","type":"bool","internalType":"bool"}],"outputs":[],"stateMutability":"payable"},{"type":"function","name":"rebuyPT","inputs":[{"name":"amountInUSDC_","type":"uint256","internalType":"uint256"}],"outputs":[],"stateMutability":"nonpayable"},{"type":"function","name":"redeem","inputs":[{"name":"amount_","type":"uint256","internalType":"uint256"},{"name":"receiver_","type":"address","internalType":"address"}],"outputs":[],"stateMutability":"nonpayable"},{"type":"error","name":"AddressEmptyCode","inputs":[{"name":"target","type":"address","internalType":"address"}]},{"type":"error","name":"FailedInnerCall","inputs":[]}],"bytecode":{"object":"0x6080604052348015600e575f80fd5b506116598061001c5f395ff3fe608060405260043610610049575f3560e01c80634b3fd1481461004d5780634e7896a91461006e5780634f52db6b1461008d5780635c8abc38146100a05780637bde82f2146100bf575b5f80fd5b348015610058575f80fd5b5061006c610067366004611006565b6100de565b005b348015610079575f80fd5b5061006c610088366004611034565b6103a6565b61006c61009b36600461105c565b610477565b3480156100ab575f80fd5b5061006c6100ba36600461107f565b6105fc565b3480156100ca575f80fd5b5061006c6100d9366004611006565b61079c565b6001546040805163026b1d5f60e01b815290515f926001600160a01b03169163026b1d5f9160048083019260209291908290030181865afa158015610125573d5f803e3d5ffd5b505050506040513d601f19601f820116820180604052508101906101499190611096565b60165460035460405163a415bcad60e01b81526001600160a01b0392831660048201526024810187905260448101919091525f606482015230608482015291925082169063a415bcad9060a4015f604051808303815f87803b1580156101ad575f80fd5b505af11580156101bf573d5f803e3d5ffd5b50506016546017546040516370a0823160e01b815230600482018190525f9550859450610244936001600160a01b0390811693169183906370a0823190602401602060405180830381865afa15801561021a573d5f803e3d5ffd5b505050506040513d601f19601f8201168201806040525081019061023e91906110b1565b86610a86565b6017546004805460405163095ea7b360e01b81526001600160a01b03918216928101929092526024820184905292935091169063095ea7b3906044016020604051808303815f875af115801561029c573d5f803e3d5ffd5b505050506040513d601f19601f820116820180604052508101906102c091906110c8565b506004546005546017545f9283926001600160a01b039182169263c81f847a9230928116918691600e916102f591168a610c04565b6040516001600160e01b031960e088901b16815261031d959493929190600990600401611464565b6060604051808303815f875af1158015610339573d5f803e3d5ffd5b505050506040513d601f19601f8201168201806040525081019061035d91906114da565b505090505f61036a610d34565b601c80546001810182555f919091527f0e4562a10381dec21b205ed72637e6b1b523bdd0e4d4d50af5cd23dd4500a21101555050505050505050565b6016546040516370a0823160e01b81523060048201525f916001600160a01b0316906370a0823190602401602060405180830381865afa1580156103ec573d5f803e3d5ffd5b505050506040513d601f19601f8201168201806040525081019061041091906110b1565b6019546040516340c10f1960e01b81526001600160a01b038581166004830152602482018490529293509116906340c10f19906044015f604051808303815f87803b15801561045d575f80fd5b505af115801561046f573d5f803e3d5ffd5b505050505050565b6002546001546040805163026b1d5f60e01b815290516001600160a01b03938416939092169163026b1d5f916004808201926020929091908290030181865afa1580156104c6573d5f803e3d5ffd5b505050506040513d601f19601f820116820180604052508101906104ea9190611096565b6001600160a01b031614610585576001546040805163026b1d5f60e01b815290516001600160a01b039092169163026b1d5f916004808201926020929091908290030181865afa158015610540573d5f803e3d5ffd5b505050506040513d601f19601f820116820180604052508101906105649190611096565b600280546001600160a01b0319166001600160a01b03929092169190911790555b80156105f8575f805460025460405163474cf53d60e01b81526001600160a01b0391821660048201523060248201526044810193909352169063474cf53d9034906064015f604051808303818588803b1580156105e0575f80fd5b505af11580156105f2573d5f803e3d5ffd5b50505050505b5050565b601c546106415760405162461bcd60e51b815260206004820152600e60248201526d3932b13abca82a1d1032b93937b960911b60448201526064015b60405180910390fd5b6016546040516323b872dd60e01b8152336004820152306024820152604481018390526001600160a01b03909116906323b872dd906064016020604051808303815f875af1158015610695573d5f803e3d5ffd5b505050506040513d601f19601f820116820180604052508101906106b991906110c8565b50601a546040516370a0823160e01b81523060048201525f916001600160a01b0316906370a0823190602401602060405180830381865afa158015610700573d5f803e3d5ffd5b505050506040513d601f19601f8201168201806040525081019061072491906110b1565b601a5460405163a9059cbb60e01b8152336004820152602481018390529192506001600160a01b03169063a9059cbb906044016020604051808303815f875af1158015610773573d5f803e3d5ffd5b505050506040513d601f19601f8201168201806040525081019061079791906110c8565b505050565b5f80736c9f097e044506712b58eac670c9a5fd4bccef1390506107df60405180604001604052806008815260200167039b2b73232b91d160c51b81525033610d92565b60408051808201825260168152750282a103130b61037bd1016903839329039bbb0b81d160551b6020820152601a5491516370a0823160e01b815230600482015261087c926001600160a01b0316906370a08231906024015b602060405180830381865afa158015610853573d5f803e3d5ffd5b505050506040513d601f19601f8201168201806040525081019061087791906110b1565b610dd7565b6040805180820182526015815274039aaa9a2329037bd1016903839329039bbb0b81d1605d1b602082015260175491516370a0823160e01b81523060048201526108d8926001600160a01b0316906370a0823190602401610838565b6108ef60405180602001604052805f815250610e1c565b6004546005546017545f926001600160a01b039081169263594a88cc923092918216918a9161091f911689610c04565b6040516001600160e01b031960e087901b1681526109469493929190600990600401611505565b6060604051808303815f875af1158015610962573d5f803e3d5ffd5b505050506040513d601f19601f8201168201806040525081019061098691906114da565b505090506109bf6040518060400160405280601381526020017203732ba2a37b5b2b727baba1039aaa9a2329d1606d1b81525082610dd7565b604080518082018252601781527f50542062616c206f7a202d20706f737420737761703a20000000000000000000602082015290516370a0823160e01b8152306004820152610a2291906001600160a01b038516906370a0823190602401610838565b6040805180820182526016815275039aaa9a2329037bd1016903837b9ba1039bbb0b81d160551b602082015260175491516370a0823160e01b8152306004820152610a7f926001600160a01b0316906370a0823190602401610838565b5050505050565b60405163095ea7b360e01b815273e592427a0aece92de3edee1f18e0157c0586156460048201819052602482018490525f916001600160a01b0388169063095ea7b3906044016020604051808303815f875af1158015610ae8573d5f803e3d5ffd5b505050506040513d601f19601f82011682018060405250810190610b0c91906110c8565b506040805160a0810182526018546bffffffffffffffffffffffff1960608b811b821660c0850152607d60ea1b60d4850181905292811b821660d785015260eb84019290925289821b1660ee830152825180830360e20181526101028301845282526001600160a01b038881166020840152428385015290820187905260808201869052915163c04b8d5960e01b81526101f49284169063c04b8d5990610bb7908490600401611555565b6020604051808303815f875af1158015610bd3573d5f803e3d5ffd5b505050506040513d601f19601f82011682018060405250810190610bf791906110b1565b9998505050505050505050565b610c0c610f85565b6040805160a0810182526001600160a01b03851680825260208201859052818301525f606082015281516080818101909352600680549293840192829060ff166003811115610c5d57610c5d6110e3565b6003811115610c6e57610c6e6110e3565b8152815461010090046001600160a01b03166020820152600182018054604090920191610c9a9061120b565b80601f0160208091040260200160405190810160405280929190818152602001828054610cc69061120b565b8015610d115780601f10610ce857610100808354040283529160200191610d11565b820191905f5260205f20905b815481529060010190602001808311610cf457829003601f168201915b50505091835250506002919091015460ff16151560209091015290529392505050565b6040805160048152602481019091526020810180516001600160e01b03166301efa05d60e01b179052601b545f9190610d76906001600160a01b031682610e62565b905080806020019051810190610d8c91906110b1565b91505090565b6105f88282604051602401610da89291906115ac565b60408051601f198184030181529190526020810180516001600160e01b031663319af33360e01b179052610ed4565b6105f88282604051602401610ded9291906115d5565b60408051601f198184030181529190526020810180516001600160e01b03166309710a9d60e41b179052610ed4565b610e5f81604051602401610e3091906115f6565b60408051601f198184030181529190526020810180516001600160e01b031663104c13eb60e21b179052610ed4565b50565b60605f80846001600160a01b031684604051610e7e9190611608565b5f60405180830381855af49150503d805f8114610eb6576040519150601f19603f3d011682016040523d82523d5f602084013e610ebb565b606091505b5091509150610ecb858383610edd565b95945050505050565b610e5f81610f3c565b606082610ef257610eed82610f5c565b610f35565b8151158015610f0957506001600160a01b0384163b155b15610f3257604051639996b31560e01b81526001600160a01b0385166004820152602401610638565b50805b9392505050565b80516a636f6e736f6c652e6c6f67602083015f808483855afa5050505050565b805115610f6c5780518082602001fd5b604051630a12f52160e11b815260040160405180910390fd5b6040518060a001604052805f6001600160a01b031681526020015f81526020015f6001600160a01b031681526020015f6001600160a01b03168152602001610fed6040805160808101909152805f81525f602082018190526060604083018190529091015290565b905290565b6001600160a01b0381168114610e5f575f80fd5b5f8060408385031215611017575f80fd5b82359150602083013561102981610ff2565b809150509250929050565b5f60208284031215611044575f80fd5b8135610f3581610ff2565b8015158114610e5f575f80fd5b5f806040838503121561106d575f80fd5b8235915060208301356110298161104f565b5f6020828403121561108f575f80fd5b5035919050565b5f602082840312156110a6575f80fd5b8151610f3581610ff2565b5f602082840312156110c1575f80fd5b5051919050565b5f602082840312156110d8575f80fd5b8151610f358161104f565b634e487b7160e01b5f52602160045260245ffd5b60048110610e5f57634e487b7160e01b5f52602160045260245ffd5b5f5b8381101561112d578181015183820152602001611115565b50505f910152565b5f815180845261114c816020860160208601611113565b601f01601f19169290920160200192915050565b60018060a01b0381511682526020810151602083015260018060a01b03604082015116604083015260018060a01b0360608201511660608301525f608082015160a0608085015280516111b2816110f7565b60a085015260208101516001600160a01b031660c08501526040810151608060e08601526111e4610120860182611135565b905060608201511515610100860152809250505092915050565b611207816110f7565b9052565b600181811c9082168061121f57607f821691505b60208210810361123d57634e487b7160e01b5f52602260045260245ffd5b50919050565b80545f90600181811c9082168061125b57607f821691505b60208210810361127957634e487b7160e01b5f52602260045260245ffd5b8186526020860181801561129457600181146112aa576112d6565b60ff198516825283151560051b820195506112d6565b5f878152602090205f5b858110156112d0578154848201526001909101906020016112b4565b83019650505b505050505092915050565b5f82825480855260208501945060208160051b830101845f5260205f205f5b838110156113f357601f19858403018852606083528154606084015260018201546080840152600282015460a0840152600382015461134560c0850160ff83166111fe565b6001600160a01b03600891821c811660e0860152600484015481166101008601526005840154811661012086015260068401541661014085015260078301546101608501528201546101808085019190915260098301546101a08501526101c08401526113b96101e08401600a8401611243565b83810360208501526113ce81600b8501611243565b600c840154604095909501949094525060209790970196600d90910190600101611300565b50909695505050505050565b80546001600160a01b031682526001810154602083015260a0604083018190525f90611430908401600284016112e1565b838103606085015261144581600385016112e1565b9050838103608085015261145c8160048501611243565b949350505050565b6001600160a01b03878116825286166020820152604081018590528354606082015260018401546080820152600284015460a0820152600384015460c0820152600484015460e082015261014061010082018190525f906114c790830185611160565b828103610120840152610bf781856113ff565b5f805f606084860312156114ec575f80fd5b5050815160208301516040909301519094929350919050565b6001600160a01b038681168252851660208201526040810184905260a0606082018190525f9061153790830185611160565b828103608084015261154981856113ff565b98975050505050505050565b602081525f825160a0602084015261157060c0840182611135565b905060018060a01b0360208501511660408401526040840151606084015260608401516080840152608084015160a08401528091505092915050565b604081525f6115be6040830185611135565b905060018060a01b03831660208301529392505050565b604081525f6115e76040830185611135565b90508260208301529392505050565b602081525f610f356020830184611135565b5f8251611619818460208701611113565b919091019291505056fea264697066735822122010912b1bdd34dd24afc6a4aabec51d7fc6d8654abbf913b1bbec750c1b84fccc64736f6c634300081a0033","linkReferences":{}},"methodIdentifiers":{"borrow(uint256,address)":"4b3fd148","finishBorrow(address)":"4e7896a9","lend(uint256,bool)":"4f52db6b","rebuyPT(uint256)":"5c8abc38","redeem(uint256,address)":"7bde82f2"},"id":8}