{"abi":[{"type":"function","name":"borrow","inputs":[{"name":"amount_","type":"uint256","internalType":"uint256"},{"name":"receiver_","type":"address","internalType":"address"}],"outputs":[],"stateMutability":"nonpayable"},{"type":"function","name":"finishBorrow","inputs":[{"name":"receiver_","type":"address","internalType":"address"}],"outputs":[],"stateMutability":"nonpayable"},{"type":"function","name":"getUserAccountData","inputs":[{"name":"user_","type":"address","internalType":"address"}],"outputs":[{"name":"userData","type":"tuple","internalType":"struct UserAccountData","components":[{"name":"totalCollateralBase","type":"uint256","internalType":"uint256"},{"name":"totalDebtBase","type":"uint256","internalType":"uint256"},{"name":"availableBorrowsBase","type":"uint256","internalType":"uint256"},{"name":"currentLiquidationThreshold","type":"uint256","internalType":"uint256"},{"name":"ltv","type":"uint256","internalType":"uint256"},{"name":"healthFactor","type":"uint256","internalType":"uint256"}]}],"stateMutability":"view"},{"type":"function","name":"lend","inputs":[{"name":"amountIn_","type":"uint256","internalType":"uint256"},{"name":"isETH_","type":"bool","internalType":"bool"}],"outputs":[],"stateMutability":"payable"},{"type":"function","name":"performRedemption","inputs":[{"name":"amount_","type":"uint256","internalType":"uint256"},{"name":"owner_","type":"address","internalType":"address"},{"name":"receiver_","type":"address","internalType":"address"},{"name":"token_","type":"uint8","internalType":"enum Tokens"}],"outputs":[{"name":"","type":"uint256","internalType":"uint256"}],"stateMutability":"nonpayable"},{"type":"function","name":"rebuyPT","inputs":[{"name":"amountInUSDC_","type":"uint256","internalType":"uint256"}],"outputs":[],"stateMutability":"nonpayable"},{"type":"event","name":"NewAccountCreated","inputs":[{"name":"account","type":"address","indexed":false,"internalType":"address"}],"anonymous":false}],"bytecode":{"object":"0x6080604052348015600e575f80fd5b506131e08061001c5f395ff3fe608060405260043610610054575f3560e01c80634b3fd148146100585780634e7896a9146100795780634f52db6b146100985780635c8abc38146100ab578063bf92857c146100ca578063f14d93651461013d575b5f80fd5b348015610063575f80fd5b506100776100723660046122c6565b61016a565b005b348015610084575f80fd5b506100776100933660046122f4565b61058d565b6100776100a636600461231c565b61065e565b3480156100b6575f80fd5b506100776100c536600461233f565b610832565b3480156100d5575f80fd5b506100e96100e43660046122f4565b6109cf565b60405161013491905f60c082019050825182526020830151602083015260408301516040830152606083015160608301526080830151608083015260a083015160a083015292915050565b60405180910390f35b348015610148575f80fd5b5061015c610157366004612356565b610ada565b604051908152602001610134565b335f908152602f6020526040808220546030549151631375877960e31b8152600481018690526001600160a01b0385811660248301529182166044820181905293929190911690639bac3bc8906064016020604051808303815f875af11580156101d6573d5f803e3d5ffd5b505050506040513d601f19601f820116820180604052508101906101fa91906123a9565b602154602c549192505f918291610220916001600160a01b039182169116308685610f62565b602c546004805460405163095ea7b360e01b81526001600160a01b03918216928101929092526024820184905292935091169063095ea7b3906044016020604051808303815f875af1158015610278573d5f803e3d5ffd5b505050506040513d601f19601f8201168201806040525081019061029c91906123c0565b506004546005546040805160808101909152600680545f9485946001600160a01b039182169463c81f847a94309492909316928792600e926103d1928c92829060ff1660038111156102f0576102f06123db565b6003811115610301576103016123db565b8152815461010090046001600160a01b0316602082015260018201805460409092019161032d906123ef565b80601f0160208091040260200160405190810160405280929190818152602001828054610359906123ef565b80156103a45780601f1061037b576101008083540402835291602001916103a4565b820191905f5260205f20905b81548152906001019060200180831161038757829003601f168201915b50505091835250506002919091015460ff161515602090910152602c546001600160a01b031691906110e2565b6040516001600160e01b031960e088901b1681526103f995949392919060099060040161273e565b6060604051808303815f875af1158015610415573d5f803e3d5ffd5b505050506040513d601f19601f8201168201806040525081019061043991906127c1565b5050905061047c6040518060400160405280601e81526020017f6e657450744f7574202a2a2a2a2a202d206f776e6564206279206f7a3a20000081525082611125565b6025546040516370a0823160e01b81526001600160a01b0388811660048301525f9216906370a0823190602401602060405180830381865afa1580156104c4573d5f803e3d5ffd5b505050506040513d601f19601f820116820180604052508101906104e891906123a9565b90506105216040518060400160405280601581526020017403ab9b231903232b13a10169034b73a1030b1b19d1605d1b81525082611125565b6023546040516340c10f1960e01b81526001600160a01b038a8116600483015260248201849052909116906340c10f19906044015f604051808303815f87803b15801561056c575f80fd5b505af115801561057e573d5f803e3d5ffd5b50505050505050505050505050565b6021546040516370a0823160e01b81523060048201525f916001600160a01b0316906370a0823190602401602060405180830381865afa1580156105d3573d5f803e3d5ffd5b505050506040513d601f19601f820116820180604052508101906105f791906123a9565b6023546040516340c10f1960e01b81526001600160a01b038581166004830152602482018490529293509116906340c10f19906044015f604051808303815f87803b158015610644575f80fd5b505af1158015610656573d5f803e3d5ffd5b505050505050565b6002546001546040805163026b1d5f60e01b815290516001600160a01b03938416939092169163026b1d5f916004808201926020929091908290030181865afa1580156106ad573d5f803e3d5ffd5b505050506040513d601f19601f820116820180604052508101906106d191906127ec565b6001600160a01b03161461076c576001546040805163026b1d5f60e01b815290516001600160a01b039092169163026b1d5f916004808201926020929091908290030181865afa158015610727573d5f803e3d5ffd5b505050506040513d601f19601f8201168201806040525081019061074b91906127ec565b600280546001600160a01b0319166001600160a01b03929092169190911790555b335f908152602f60205260409020546001600160a01b0316806107d15761079161116a565b6040516001600160a01b03821681529091507fe759fda21527aab212bc806c6b81b4e16add78b260f71442690c536ba1de40cd9060200160405180910390a15b811561082c57806001600160a01b031663de407d8f346040518263ffffffff1660e01b81526004015f604051808303818588803b158015610810575f80fd5b505af1158015610822573d5f803e3d5ffd5b5050505050505050565b505b5050565b602e546108765760405162461bcd60e51b815260206004820152600e60248201526d3932b13abca82a1d1032b93937b960911b604482015260640160405180910390fd5b6021546040516323b872dd60e01b8152336004820152306024820152604481018390526001600160a01b03909116906323b872dd906064016020604051808303815f875af11580156108ca573d5f803e3d5ffd5b505050506040513d601f19601f820116820180604052508101906108ee91906123c0565b50602480546040516370a0823160e01b81523060048201525f926001600160a01b03909216916370a082319101602060405180830381865afa158015610936573d5f803e3d5ffd5b505050506040513d601f19601f8201168201806040525081019061095a91906123a9565b6024805460405163a9059cbb60e01b81523360048201529182018390529192506001600160a01b039091169063a9059cbb906044016020604051808303815f875af11580156109ab573d5f803e3d5ffd5b505050506040513d601f19601f8201168201806040525081019061082c91906123c0565b610a026040518060c001604052805f81526020015f81526020015f81526020015f81526020015f81526020015f81525090565b6001600160a01b038281165f908152602f6020526040808220546002549151632fe4a15f60e21b815290841660048201819052938392839283928392839291169063bf92857c9060240160c060405180830381865afa158015610a67573d5f803e3d5ffd5b505050506040513d601f19601f82011682018060405250810190610a8b9190612807565b9550955095509550955095506040518060c00160405280878152602001868152602001610ab7866111e0565b815260200184815260200183815260200182815250975050505050505050919050565b60048054600554602480546040516370a0823160e01b8152309581018690525f95869586956001600160a01b039182169563594a88cc9593949183169392909216916370a082319101602060405180830381865afa158015610b3e573d5f803e3d5ffd5b505050506040513d601f19601f82011682018060405250810190610b6291906123a9565b604080516080810190915260068054610b8f928a929091829060ff1660038111156102f0576102f06123db565b6040516001600160e01b031960e087901b168152610bb6949392919060099060040161284d565b6060604051808303815f875af1158015610bd2573d5f803e3d5ffd5b505050506040513d601f19601f82011682018060405250810190610bf691906127c1565b5090915060089050846008811115610c1057610c106123db565b03610c9357602c5460405163a9059cbb60e01b81526001600160a01b038781166004830152602482018490529091169063a9059cbb906044016020604051808303815f875af1158015610c65573d5f803e3d5ffd5b505050506040513d601f19601f82011682018060405250810190610c8991906123c0565b509150610f5a9050565b5f805f610ca7610ca28861121c565b611344565b602c5460185460405163095ea7b360e01b81526001600160a01b039182166004820152602481018a9052949750929550909350169063095ea7b3906044016020604051808303815f875af1158015610d01573d5f803e3d5ffd5b505050506040513d601f19601f82011682018060405250810190610d2591906123c0565b50610db260405180606001604052806025815260200161316260259139602c546040516370a0823160e01b81523060048201526001600160a01b03909116906370a08231906024015b602060405180830381865afa158015610d89573d5f803e3d5ffd5b505050506040513d601f19601f82011682018060405250810190610dad91906123a9565b611125565b610dfe604051806060016040528060248152602001613187602491396021546040516370a0823160e01b81523060048201526001600160a01b03909116906370a0823190602401610d6e565b610e1560405180602001604052805f815250611628565b5f806018015f9054906101000a90046001600160a01b03166001600160a01b031663c872a3c58585888a878f6040518763ffffffff1660e01b8152600401610e629695949392919061290b565b6020604051808303815f875af1158015610e7e573d5f803e3d5ffd5b505050506040513d601f19601f82011682018060405250810190610ea291906123a9565b9050610ef060405180606001604052806022815260200161314060229139602c546040516370a0823160e01b81523060048201526001600160a01b03909116906370a0823190602401610d6e565b610f3c60405180606001604052806025815260200161311b602591396021546040516370a0823160e01b81523060048201526001600160a01b03909116906370a0823190602401610d6e565b6003886008811115610f5057610f506123db565b5050955050505050505b949350505050565b60405163095ea7b360e01b815273e592427a0aece92de3edee1f18e0157c0586156460048201819052602482018490525f916001600160a01b0388169063095ea7b3906044016020604051808303815f875af1158015610fc4573d5f803e3d5ffd5b505050506040513d601f19601f82011682018060405250810190610fe891906123c0565b506040805160a0810182526022546bffffffffffffffffffffffff1960608b811b821660c0850152607d60ea1b60d4850181905292811b821660d785015260eb84019290925289821b1660ee830152825180830360e20181526101028301845282526001600160a01b038881166020840152428385015290820187905260808201869052915163c04b8d5960e01b81526101f49284169063c04b8d5990611093908490600401612986565b6020604051808303815f875af11580156110af573d5f803e3d5ffd5b505050506040513d601f19601f820116820180604052508101906110d391906123a9565b93505050505b95945050505050565b6110ea6121ce565b506040805160a0810182526001600160a01b03851680825260208201859052918101919091525f6060820152608081018290525b9392505050565b61082e828260405160240161113b9291906129dd565b60408051601f198184030181529190526020810180516001600160e01b03166309710a9d60e41b17905261193c565b6030546040515f9182916001600160a01b03909116906111899061223b565b6001600160a01b039091168152602001604051809103905ff0801580156111b2573d5f803e3d5ffd5b50335f908152602f6020526040902080546001600160a01b0319166001600160a01b03831617905592915050565b5f6064611202836127105f60140154600a6111fb9190612a12565b9190611945565b61120c9084612a25565b6112169190612a38565b92915050565b5f6005826008811115611231576112316123db565b036112475750506029546001600160a01b031690565b600682600881111561125b5761125b6123db565b03611271575050602a546001600160a01b031690565b6003826008811115611285576112856123db565b0361129b5750506021546001600160a01b031690565b5f8260088111156112ae576112ae6123db565b036112c45750506028546001600160a01b031690565b60078260088111156112d8576112d86123db565b036112ee575050602b546001600160a01b031690565b6002826008811115611302576113026123db565b036113185750506026546001600160a01b031690565b600882600881111561132c5761132c6123db565b0361133f5750602c546001600160a01b03165b919050565b61134c612248565b611354612267565b61135c612294565b601b54602c54602954604080515f80825260208201909252909361139a93859384936001600160a01b03938416939283169290911690600190611960565b60405191955093505f906113b49086908690602001612a6b565b60408051601f19818403018152919052602a549091506001600160a01b039081169087160361141157601c54602954602a546114079260039286926001600160a01b039283169291821691165f87611960565b909550935061161f565b6021546001600160a01b038781169116148061143a57506026546001600160a01b038781169116145b15611504576021545f906001600160a01b0388811691161461146757601f546001600160a01b0316611474565b601d546001600160a01b03165b601c54602954602a549293506114a19260039287926001600160a01b039182169290821691165f88611960565b60405191975095506114b99087908790602001612a6b565b604051602081830303815290604052915082806114d590612a88565b602a549094506114f89150600590859084906001600160a01b03168b5f88611960565b909650945061161f9050565b6028546001600160a01b038781169116148061152d5750602b546001600160a01b038781169116145b1561161f57601c54602954602a5461155c9260039286926001600160a01b039283169291821691165f87611960565b60405191965094506115749086908690602001612a6b565b6040516020818303038152906040529050818061159090612a88565b601d54602a546021549295506115bd935060059286926001600160a01b0390811692811691165f87611960565b60405191965094506115d59086908690602001612a6b565b604051602081830303815290604052905081806115f190612a88565b601e54602154919450611619925060079185916001600160a01b0390811691168a5f87611960565b90955093505b50509193909250565b61166b8160405160240161163c9190612aa0565b60408051601f198184030181529190526020810180516001600160e01b031663104c13eb60e21b17905261193c565b50565b61169f6040518060a001604052805f80191681526020015f81526020015f81526020015f8152602001606081525090565b81526020019060019003908161166e57905050905082815f815181106116c7576116c7612ab2565b602002602001018190525081816001815181106116e6576116e6612ab2565b6020908102919091018101919091528501819052604080516003808252608082019092525f918160200160208202803683375050602c5482519293506001600160a01b0316918391505f9061173d5761173d612ab2565b6001600160a01b03928316602091820292909201015260275482519116908290600190811061176e5761176e612ab2565b6001600160a01b03928316602091820292909201015260285482519116908290600290811061179f5761179f612ab2565b6001600160a01b03928316602091820292909201015260608701829052601654604051637c26833760e11b815291169063f84d066e906117e9905f90869086908b90600401612b9c565b5f604051808303815f875af1158015611804573d5f803e3d5ffd5b505050506040513d5f823e601f3d908101601f1916820160405261182b9190810190612c3e565b50604080516003808252608082019092525f91602082016060803683370190505090506001600160ff1b03815f8151811061186857611868612ab2565b6020026020010181815250506001600160ff1b038160028151811061188f5761188f612ab2565b6020908102919091010152608087015250505f6040850152506118af9050565b60165460405163095ea7b360e01b81526001600160a01b039182166004820152602481018890529089169063095ea7b3906044016020604051808303815f875af11580156118ff573d5f803e3d5ffd5b505050506040513d601f19601f8201168201806040525081019061192391906123c0565b5061193082826001611ade565b98975050505050505050565b61166b81611c11565b5f825f190484118302158202611959575f80fd5b5091020490565b611968612248565b611970612267565b5f8061197b85611c31565b915091508515611a105787828c600b811061199857611998612ab2565b6001600160a01b03909216602092909202015288826119b88d6001612a12565b600b81106119c8576119c8612ab2565b6001600160a01b03909216602092909202015286826119e88d6002612a12565b600b81106119f8576119f8612ab2565b6001600160a01b039092166020929092020152611a80565b84806020019051810190611a249190612ce6565b909250905088828c600b8110611a3c57611a3c612ab2565b6001600160a01b0390921660209290920201528682611a5c8d6001612a12565b600b8110611a6c57611a6c612ab2565b6001600160a01b0390921660209290920201525b5f611a8c8b6002612a12565b611a96908d612de2565b90505f808212611aa65781611aa8565b5f5b9050611ab58b8b8b611c67565b838260058110611ac757611ac7612ab2565b602002015250919b909a5098505050505050505050565b5f811561111e57601654604080860151602087015160608801516080890151935163945bcec960e01b81525f956001600160a01b03169463945bcec994611b31949093909290918b914290600401612e08565b5f604051808303815f875af1158015611b4c573d5f803e3d5ffd5b505050506040513d5f823e601f3d908101601f19168201604052611b739190810190612c3e565b905080600281518110611b8857611b88612ab2565b602002602001015173__$5649a79a4e933613092090e5f3465de1d8$__631b5ac4b590916040518263ffffffff1660e01b8152600401611bca91815260200190565b602060405180830381865af4158015611be5573d5f803e3d5ffd5b505050506040513d601f19601f82011682018060405250810190611c0991906123a9565b91505061111e565b80516a636f6e736f6c652e6c6f67602083015f808483855afa5050505050565b611c39612248565b611c41612267565b825115611c625782806020019051810190611c5c9190612ce6565b90925090505b915091565b611c6f612294565b611c79601f612189565b60405163c661065760e01b8152600260048201525f906001600160a01b0386169063c661065790602401602060405180830381865afa925050508015611cdc575060408051601f3d908101601f19168201909252611cd9918101906127ec565b60015b611ce857506002611cea565b505b80600203611d9557611cfc6004612189565b60405163c661065760e01b81525f60048201526001600160a01b03808616919087169063c661065790602401602060405180830381865afa158015611d43573d5f803e3d5ffd5b505050506040513d601f19601f82011682018060405250810190611d6791906127ec565b6001600160a01b031603611d87575f8252600182815b60200201526120c9565b60018083525f908390611d7d565b611d9f6005612189565b60405163c661065760e01b81525f60048201526001600160a01b03808616919087169063c661065790602401602060405180830381865afa158015611de6573d5f803e3d5ffd5b505050506040513d601f19601f82011682018060405250810190611e0a91906127ec565b6001600160a01b031603611e26575f82815b6020020152611f28565b60405163c661065760e01b8152600160048201526001600160a01b03808616919087169063c661065790602401602060405180830381865afa158015611e6e573d5f803e3d5ffd5b505050506040513d601f19601f82011682018060405250810190611e9291906127ec565b6001600160a01b031603611ea9576001825f611e1c565b60405163c661065760e01b8152600260048201526001600160a01b03808616919087169063c661065790602401602060405180830381865afa158015611ef1573d5f803e3d5ffd5b505050506040513d601f19601f82011682018060405250810190611f1591906127ec565b6001600160a01b031603611f2857600282525b611f326006612189565b60405163c661065760e01b81525f60048201526001600160a01b03808516919087169063c661065790602401602060405180830381865afa158015611f79573d5f803e3d5ffd5b505050506040513d601f19601f82011682018060405250810190611f9d91906127ec565b6001600160a01b031603611fba575f8260015b60200201526120bf565b60405163c661065760e01b8152600160048201526001600160a01b03808516919087169063c661065790602401602060405180830381865afa158015612002573d5f803e3d5ffd5b505050506040513d601f19601f8201168201806040525081019061202691906127ec565b6001600160a01b03160361203d5760018281611fb0565b60405163c661065760e01b8152600260048201526001600160a01b03808516919087169063c661065790602401602060405180830381865afa158015612085573d5f803e3d5ffd5b505050506040513d601f19601f820116820180604052508101906120a991906127ec565b6001600160a01b0316036120bf57600260208301525b6120c96007612189565b60016040830152602c546001600160a01b03858116911614806120f95750602a546001600160a01b038581169116145b1561210b5760015b6060830152612146565b6029546001600160a01b0390811690851603612128576001612101565b6021546001600160a01b039081169085160361214657600360608301525b6121506008612189565b601e546001600160a01b0386811691161461216c57600261216f565b60035b60ff1660808301526121816009612189565b509392505050565b61166b8160405160240161219f91815260200190565b60408051601f198184030181529190526020810180516001600160e01b031663f5b1bba960e01b17905261193c565b6040518060a001604052805f6001600160a01b031681526020015f81526020015f6001600160a01b031681526020015f6001600160a01b031681526020016122366040805160808101909152805f81525f602082018190526060604083018190529091015290565b905290565b61025780612ec483390190565b604051806101600160405280600b906020820280368337509192915050565b6040518060a001604052806005905b61227e612294565b8152602001906001900390816122765790505090565b6040518060a001604052806005906020820280368337509192915050565b6001600160a01b038116811461166b575f80fd5b5f80604083850312156122d7575f80fd5b8235915060208301356122e9816122b2565b809150509250929050565b5f60208284031215612304575f80fd5b813561111e816122b2565b801515811461166b575f80fd5b5f806040838503121561232d575f80fd5b8235915060208301356122e98161230f565b5f6020828403121561234f575f80fd5b5035919050565b5f805f8060808587031215612369575f80fd5b84359350602085013561237b816122b2565b9250604085013561238b816122b2565b915060608501356009811061239e575f80fd5b939692955090935050565b5f602082840312156123b9575f80fd5b5051919050565b5f602082840312156123d0575f80fd5b815161111e8161230f565b634e487b7160e01b5f52602160045260245ffd5b600181811c9082168061240357607f821691505b60208210810361242157634e487b7160e01b5f52602260045260245ffd5b50919050565b6004811061166b5761166b6123db565b5f81518084525f5b8181101561245b5760208185018101518683018201520161243f565b505f602082860101526020601f19601f83011685010191505092915050565b60018060a01b0381511682526020810151602083015260018060a01b03604082015116604083015260018060a01b0360608201511660608301525f608082015160a0608085015280516124cc81612427565b60a085015260208101516001600160a01b031660c08501526040810151608060e08601526124fe610120860182612437565b905060608201511515610100860152809250505092915050565b61252181612427565b9052565b80545f90600181811c9082168061253d57607f821691505b60208210810361255b57634e487b7160e01b5f52602260045260245ffd5b81865260208601818015612576576001811461258c576125b8565b60ff198516825283151560051b820195506125b8565b5f878152602090205f5b858110156125b257815484820152600190910190602001612596565b83019650505b505050505092915050565b5f82825480855260208501945060208160051b830101845f5260205f205f5b838110156126d557601f19858403018852606083528154606084015260018201546080840152600282015460a0840152600382015461262760c0850160ff8316612518565b6001600160a01b03600891821c811660e0860152600484015481166101008601526005840154811661012086015260068401541661014085015260078301546101608501528201546101808085019190915260098301546101a08501526101c084015261269b6101e08401600a8401612525565b83810360208501526126b081600b8501612525565b600c840154604095909501949094525060209790970196600d909101906001016125e2565b50909695505050505050565b80546001600160a01b031682526001810154602083015260a0604083018190525f90612712908401600284016125c3565b838103606085015261272781600385016125c3565b90508381036080850152610f5a8160048501612525565b6001600160a01b03878116825286166020820152604081018590528354606082015260018401546080820152600284015460a0820152600384015460c0820152600484015460e082015261014061010082018190525f906127a19083018561247a565b8281036101208401526127b481856126e1565b9998505050505050505050565b5f805f606084860312156127d3575f80fd5b5050815160208301516040909301519094929350919050565b5f602082840312156127fc575f80fd5b815161111e816122b2565b5f805f805f8060c0878903121561281c575f80fd5b50508451602086015160408701516060880151608089015160a090990151939a929950909790965094509092509050565b6001600160a01b038681168252851660208201526040810184905260a0606082018190525f9061287f9083018561247a565b828103608084015261193081856126e1565b805f5b600b8110156128bc5781516001600160a01b0316845260209384019390910190600101612894565b50505050565b805f5b60058110156128bc578151845f5b60058110156128f25782518252602092830192909101906001016128d3565b50505060a09390930192602091909101906001016128c5565b610580810161291a8289612891565b6129286101608301886128c2565b85610480830152846104a08301526104c08201845f5b60058110156129665781516001600160a01b031683526020928301929091019060010161293e565b5050506001600160a01b0392909216610560919091015295945050505050565b602081525f825160a060208401526129a160c0840182612437565b905060018060a01b0360208501511660408401526040840151606084015260608401516080840152608084015160a08401528091505092915050565b604081525f6129ef6040830185612437565b90508260208301529392505050565b634e487b7160e01b5f52601160045260245ffd5b80820180821115611216576112166129fe565b81810381811115611216576112166129fe565b5f82612a5257634e487b7160e01b5f52601260045260245ffd5b500490565b634e487b7160e01b5f52604160045260245ffd5b6104808101612a7a8285612891565b61111e6101608301846128c2565b5f60018201612a9957612a996129fe565b5060010190565b602081525f61111e6020830184612437565b634e487b7160e01b5f52603260045260245ffd5b60028110612521576125216123db565b5f82825180855260208501945060208160051b830101602085015f5b838110156126d557601f198584030188528151805184526020810151602085015260408101516040850152606081015160608501526080810151905060a06080850152612b4260a0850182612437565b6020998a0199909450929092019150600101612af2565b5f8151808452602084019350602083015f5b82811015612b925781516001600160a01b0316865260209586019590910190600101612b6b565b5093949350505050565b612ba68186612ac6565b60e060208201525f612bbb60e0830186612ad6565b8281036040840152612bcd8186612b59565b9150506110d9606083018480516001600160a01b039081168352602080830151151590840152604080830151909116908301526060908101511515910152565b604051601f8201601f1916810167ffffffffffffffff81118282101715612c3657612c36612a57565b604052919050565b5f60208284031215612c4e575f80fd5b815167ffffffffffffffff811115612c64575f80fd5b8201601f81018413612c74575f80fd5b805167ffffffffffffffff811115612c8e57612c8e612a57565b8060051b612c9e60208201612c0d565b91825260208184018101929081019087841115612cb9575f80fd5b6020850194505b83851015612cdb578451825260209485019490910190612cc0565b979650505050505050565b5f806104808385031215612cf8575f80fd5b83601f840112612d06575f80fd5b610160612d1281612c0d565b908401908086831115612d23575f80fd5b855b83811015612d46578051612d38816122b2565b835260209283019201612d25565b5093505061017f84018513612d59575f80fd5b60a0612d6481612c0d565b80610480870188811115612d76575f80fd5b80851015612dd35788601f860112612d8c575f80fd5b612d9584612c0d565b808587018b811115612da5575f80fd5b875b81811015612dbf578051845260209384019301612da7565b505084525093830193602090920191612d76565b50809450505050509250929050565b8181035f831280158383131683831282161715612e0157612e016129fe565b5092915050565b612e128188612ac6565b61012060208201525f612e29610120830188612ad6565b8281036040840152612e3b8188612b59565b86516001600160a01b03908116606086810191909152602089015115156080870152604089015190911660a0860152870151151560c0850152905082810360e0840152845180825260208087019201905f5b81811015612eab578351835260209384019390920191600101612e8d565b5050610100939093019390935250969550505050505056fe6080604052348015600e575f80fd5b50604051610257380380610257833981016040819052602b91604e565b5f80546001600160a01b0319166001600160a01b03929092169190911790556079565b5f60208284031215605d575f80fd5b81516001600160a01b03811681146072575f80fd5b9392505050565b6101d1806100865f395ff3fe608060405260043610610028575f3560e01c80638406c0791461002c578063de407d8f14610066575b5f80fd5b348015610037575f80fd5b505f5461004a906001600160a01b031681565b6040516001600160a01b03909116815260200160405180910390f35b61006e610070565b005b60405163474cf53d60e01b81527387870bca3f3fd6335c3f4ce8392d69350b4fa4e2600482018190523060248301525f604483015273893411580e590d62ddbca8a703d61cc4a8c7b2b991829063474cf53d9034906064015f604051808303818588803b1580156100df575f80fd5b505af11580156100f1573d5f803e3d5ffd5b50505f54604051630c04a8a160e41b81526001600160a01b0390911660048201525f1960248201527372e95b8931767c79ba4eee721354d6e99a61d004935083925063c04a8a1091506044015f604051808303815f87803b158015610154575f80fd5b505af1158015610166573d5f803e3d5ffd5b50506040513492503091507f60ecce3105bf3b202d7a83cd679868ea5fd87b35901b96d3748136fafe323c65905f90a350505056fea26469706673582212204f09b60a4ad56b9a64ffed687fd5a66eedcc18b17abad5c3408c0ee25ba3fb9364736f6c634300081a0033555344432062616c206f7a202d20706f7374206372762073776170202d206e6f7420303a2073555344652062616c206f7a202d20706f7374206372762073776170202d20303a2073555344652062616c206f7a202d20707265206372762073776170202d206e6f7420303a20555344432062616c206f7a202d20707265206372762073776170202d206e6f7420303a20a26469706673582212206a2de3e31f1431240add9188b471fe5fc0587dd7e00e6eb7b2c054f558fb723864736f6c634300081a0033","linkReferences":{"contracts/libraries/HelpersLib.sol":{"HelpersLib":[{"start":7086,"length":20}]}}},"methodIdentifiers":{"borrow(uint256,address)":"4b3fd148","finishBorrow(address)":"4e7896a9","getUserAccountData(address)":"bf92857c","lend(uint256,bool)":"4f52db6b","performRedemption(uint256,address,address,uint8)":"f14d9365","rebuyPT(uint256)":"5c8abc38"},"id":9}