{"abi":[{"type":"function","name":"borrow","inputs":[{"name":"amount_","type":"uint256","internalType":"uint256"},{"name":"receiver_","type":"address","internalType":"address"}],"outputs":[],"stateMutability":"nonpayable"},{"type":"function","name":"lend","inputs":[{"name":"amountIn_","type":"uint256","internalType":"uint256"},{"name":"tokenIn_","type":"address","internalType":"address"}],"outputs":[],"stateMutability":"payable"},{"type":"function","name":"lend2","inputs":[{"name":"amountIn_","type":"uint256","internalType":"uint256"},{"name":"tokenIn_","type":"address","internalType":"address"}],"outputs":[],"stateMutability":"payable"},{"type":"function","name":"performRedemption","inputs":[{"name":"amount_","type":"uint256","internalType":"uint256"},{"name":"minAmountOut_","type":"uint256","internalType":"uint256"},{"name":"owner_","type":"address","internalType":"address"},{"name":"receiver_","type":"address","internalType":"address"},{"name":"token_","type":"uint8","internalType":"enum Tokens"}],"outputs":[{"name":"","type":"uint256","internalType":"uint256"}],"stateMutability":"nonpayable"},{"type":"event","name":"NewAccountCreated","inputs":[{"name":"account","type":"address","indexed":false,"internalType":"address"}],"anonymous":false},{"type":"error","name":"OZError01","inputs":[{"name":"tokenIn","type":"address","internalType":"address"}]},{"type":"error","name":"OZError02","inputs":[{"name":"amountIn","type":"uint256","internalType":"uint256"},{"name":"msgValue","type":"uint256","internalType":"uint256"}]}],"bytecode":{"object":"0x6080604052348015600e575f80fd5b50612fb28061001c5f395ff3fe60806040526004361061003e575f3560e01c80634b3fd1481461004257806379a72c5e14610063578063b188474414610076578063f4771c7014610089575b5f80fd5b34801561004d575f80fd5b5061006161005c366004611700565b6100ba565b005b610061610071366004611700565b6104b5565b610061610084366004611700565b6107b1565b348015610094575f80fd5b506100a86100a336600461172e565b610acc565b60405190815260200160405180910390f35b335f90815261012660205260409081902054610127549151631375877960e31b8152600481018590526001600160a01b03848116602483015291821660448201819052929190911690639bac3bc8906064015f604051808303815f87803b158015610123575f80fd5b505af1158015610135573d5f803e3d5ffd5b505061011854610123545f935083925061015e916001600160a01b039081169116308885610d97565b6101235460055460405163095ea7b360e01b81526001600160a01b03918216600482015260248101849052929350169063095ea7b3906044016020604051808303815f875af11580156101b3573d5f803e3d5ffd5b505050506040513d601f19601f820116820180604052508101906101d7919061178c565b505f6101fb6040518060600160405280602d8152602001612f50602d913983610ec9565b6005546006546040805160808101909152600780545f946001600160a01b039081169463c81f847a94309492909116928892600f9261032f928c9290829060ff16600381111561024d5761024d6117b2565b600381111561025e5761025e6117b2565b8152815461010090046001600160a01b0316602082015260018201805460409092019161028a906117c6565b80601f01602080910402602001604051908101604052809291908181526020018280546102b6906117c6565b80156103015780601f106102d857610100808354040283529160200191610301565b820191905f5260205f20905b8154815290600101906020018083116102e457829003601f168201915b50505091835250506002919091015460ff161515602090910152610123546001600160a01b03169190610f12565b6040516001600160e01b031960e088901b168152610357959493929190600a90600401611b29565b6060604051808303815f875af1158015610373573d5f803e3d5ffd5b505050506040513d601f19601f820116820180604052508101906103979190611bac565b505090506103da6040518060400160405280601881526020017f6e657450744f757420616674657220505420737761703a20000000000000000081525082610ec9565b61011c546040516370a0823160e01b81526001600160a01b0387811660048301525f9216906370a0823190602401602060405180830381865afa158015610423573d5f803e3d5ffd5b505050506040513d601f19601f820116820180604052508101906104479190611bd7565b61011a546040516340c10f1960e01b81526001600160a01b038a81166004830152602482018490529293509116906340c10f19906044015f604051808303815f87803b158015610495575f80fd5b505af11580156104a7573d5f803e3d5ffd5b505050505050505050505050565b6002546001546040805163026b1d5f60e01b815290516001600160a01b03938416939092169163026b1d5f916004808201926020929091908290030181865afa158015610504573d5f803e3d5ffd5b505050506040513d601f19601f820116820180604052508101906105289190611bf9565b6001600160a01b0316146105c3576001546040805163026b1d5f60e01b815290516001600160a01b039092169163026b1d5f916004808201926020929091908290030181865afa15801561057e573d5f803e3d5ffd5b505050506040513d601f19601f820116820180604052508101906105a29190611bf9565b600280546001600160a01b0319166001600160a01b03929092169190911790555b610129546001600160a01b039081169082160361060857348214610608576040516378feddbd60e11b8152600481018390523460248201526044015b60405180910390fd5b6001600160a01b0381165f908152610128602052604090205460ff1661064c576040516331d3c70960e11b81526001600160a01b03821660048201526024016105ff565b335f90815261012660205260408120546001600160a01b0316806106b257610672610f50565b6040516001600160a01b03821681529091507fe759fda21527aab212bc806c6b81b4e16add78b260f71442690c536ba1de40cd9060200160405180910390a15b610129546001600160a01b03848116911614610747576040516323b872dd60e01b81523360048201526001600160a01b038281166024830152604482018690528416906323b872dd906064016020604051808303815f875af115801561071a573d5f803e3d5ffd5b505050506040513d601f19601f8201168201806040525081019061073e919061178c565b505f915061074b565b3491505b604051630c2a378960e11b8152600481018590526001600160a01b0384811660248301528216906318546f129084906044015f604051808303818588803b158015610794575f80fd5b505af11580156107a6573d5f803e3d5ffd5b505050505050505050565b6002546001546040805163026b1d5f60e01b815290516001600160a01b03938416939092169163026b1d5f916004808201926020929091908290030181865afa158015610800573d5f803e3d5ffd5b505050506040513d601f19601f820116820180604052508101906108249190611bf9565b6001600160a01b0316146108bf576001546040805163026b1d5f60e01b815290516001600160a01b039092169163026b1d5f916004808201926020929091908290030181865afa15801561087a573d5f803e3d5ffd5b505050506040513d601f19601f8201168201806040525081019061089e9190611bf9565b600280546001600160a01b0319166001600160a01b03929092169190911790555b610129546001600160a01b03908116908216036108ff573482146108ff576040516378feddbd60e11b8152600481018390523460248201526044016105ff565b6001600160a01b0381165f908152610128602052604090205460ff16610943576040516331d3c70960e11b81526001600160a01b03821660048201526024016105ff565b335f90815261012660205260408120546001600160a01b0316806109a957610969610f50565b6040516001600160a01b03821681529091507fe759fda21527aab212bc806c6b81b4e16add78b260f71442690c536ba1de40cd9060200160405180910390a15b610129546001600160a01b03848116911614610a3e576040516323b872dd60e01b81523360048201526001600160a01b038281166024830152604482018690528416906323b872dd906064016020604051808303815f875af1158015610a11573d5f803e3d5ffd5b505050506040513d601f19601f82011682018060405250810190610a35919061178c565b505f9150610a42565b3491505b610a4d838286611002565b6040516305df7eb960e41b8152600481018590526001600160a01b0382811660248301819052908516604483015290635df7eb90906064016020604051808303815f875af1158015610aa1573d5f803e3d5ffd5b505050506040513d601f19601f82011682018060405250810190610ac59190611bd7565b5050505050565b60055460065461011b546040516370a0823160e01b815230600482018190525f9485946001600160a01b039182169463594a88cc949183169216906370a0823190602401602060405180830381865afa158015610b2b573d5f803e3d5ffd5b505050506040513d601f19601f82011682018060405250810190610b4f9190611bd7565b604080516080810190915260078054610b7c928e929091829060ff16600381111561024d5761024d6117b2565b6040516001600160e01b031960e087901b168152610ba39493929190600a90600401611c14565b6060604051808303815f875af1158015610bbf573d5f803e3d5ffd5b505050506040513d601f19601f82011682018060405250810190610be39190611bac565b5090915060089050836008811115610bfd57610bfd6117b2565b03610c7f576101235460405163a9059cbb60e01b81526001600160a01b038681166004830152602482018490529091169063a9059cbb906044016020604051808303815f875af1158015610c53573d5f803e3d5ffd5b505050506040513d601f19601f82011682018060405250810190610c77919061178c565b509050610d8e565b5f610c89846110d7565b6101235460195460405163095ea7b360e01b81526001600160a01b03918216600482015260248101869052929350169063095ea7b3906044016020604051808303815f875af1158015610cde573d5f803e3d5ffd5b505050506040513d601f19601f82011682018060405250810190610d02919061178c565b5060195481516020830151604080850151905163c872a3c560e01b81525f946001600160a01b03169363c872a3c593610d48939192909189918f91908e90600401611c95565b6020604051808303815f875af1158015610d64573d5f803e3d5ffd5b505050506040513d601f19601f82011682018060405250810190610d889190611bd7565b93505050505b95945050505050565b60405163095ea7b360e01b815273e592427a0aece92de3edee1f18e0157c0586156460048201819052602482018490525f916001600160a01b0388169063095ea7b3906044016020604051808303815f875af1158015610df9573d5f803e3d5ffd5b505050506040513d601f19601f82011682018060405250810190610e1d919061178c565b506040805160a081018252610119546bffffffffffffffffffffffff1960608b811b821660c0850152607d60ea1b60d4850181905292811b821660d785015260eb84019290925289821b1660ee830152825180830360e20181526101028301845282526001600160a01b038881166020840152428385015290820187905260808201869052915163c04b8d5960e01b81526101f49284169063c04b8d5990610d48908490600401611d51565b610f0e8282604051602401610edf929190611da8565b60408051601f198184030181529190526020810180516001600160e01b03166309710a9d60e41b1790526115af565b5050565b610f1a6115db565b506040805160a0810182526001600160a01b039490941680855260208501939093528301919091525f6060830152608082015290565b61012754610129545f8054600254600454604051939586956001600160a01b03918216959082169482169382169290911690610f8b90611648565b6001600160a01b0395861681529385166020850152918416604084015283166060830152909116608082015260a001604051809103905ff080158015610fd3573d5f803e3d5ffd5b50335f9081526101266020526040902080546001600160a01b0319166001600160a01b03831617905592915050565b6001600160a01b0382165f90815261012b60205260408120600101805483929061102d908490611dc9565b90915550506002546040516335ea6a7560e01b81526001600160a01b0385811660048301525f9216906335ea6a75906024016101e060405180830381865afa15801561107b573d5f803e3d5ffd5b505050506040513d601f19601f8201168201806040525081019061109f9190611eb4565b51516001600160a01b03939093165f90815261012b60205260409020600501805461ffff191661ffff90941693909317909255505050565b6110df611655565b60058260088111156110f3576110f36117b2565b036111f057604080516101c081019091526021816060810182600b8282826020028201915b81546001600160a01b031681526001909101906020018083116111185750505091835250506040805160a08101909152602090910190600b830160055f835b8282101561119e576040805160a081019182905290600584810287019182845b81548152602001906001019080831161117757505050505081526020019060010190611157565b505050908252506040805160a081019182905260209092019190602484019060059082845b81546001600160a01b031681526001909101906020018083116111c3575050505050815250509050919050565b6006826008811115611204576112046117b2565b036112af57604080516101c08101909152604a816060810182600b8282826020028201915b81546001600160a01b031681526001909101906020018083116112295750505091835250506040805160a08101909152602090910190600b830160055f835b8282101561119e576040805160a081019182905290600584810287019182845b81548152602001906001019080831161128857505050505081526020019060010190611268565b60038260088111156112c3576112c36117b2565b0361136e57604080516101c081019091526073816060810182600b8282826020028201915b81546001600160a01b031681526001909101906020018083116112e85750505091835250506040805160a08101909152602090910190600b830160055f835b8282101561119e576040805160a081019182905290600584810287019182845b81548152602001906001019080831161134757505050505081526020019060010190611327565b6002826008811115611382576113826117b2565b0361142d57604080516101c08101909152609c816060810182600b8282826020028201915b81546001600160a01b031681526001909101906020018083116113a75750505091835250506040805160a08101909152602090910190600b830160055f835b8282101561119e576040805160a081019182905290600584810287019182845b815481526020019060010190808311611406575050505050815260200190600101906113e6565b5f826008811115611440576114406117b2565b036114eb57604080516101c0810190915260c5816060810182600b8282826020028201915b81546001600160a01b031681526001909101906020018083116114655750505091835250506040805160a08101909152602090910190600b830160055f835b8282101561119e576040805160a081019182905290600584810287019182845b8154815260200190600101908083116114c4575050505050815260200190600101906114a4565b60078260088111156114ff576114ff6117b2565b036115aa57604080516101c0810190915260ee816060810182600b8282826020028201915b81546001600160a01b031681526001909101906020018083116115245750505091835250506040805160a08101909152602090910190600b830160055f835b8282101561119e576040805160a081019182905290600584810287019182845b81548152602001906001019080831161158357505050505081526020019060010190611563565b919050565b6115b8816115bb565b50565b80516a636f6e736f6c652e6c6f67602083015f808483855afa5050505050565b6040518060a001604052805f6001600160a01b031681526020015f81526020015f6001600160a01b031681526020015f6001600160a01b031681526020016116436040805160808101909152805f81525f602082018190526060604083018190529091015290565b905290565b610f7180611fdf83390190565b6040518060600160405280611668611682565b81526020016116756116a1565b81526020016116436116ce565b604051806101600160405280600b906020820280368337509192915050565b6040518060a001604052806005905b6116b86116ce565b8152602001906001900390816116b05790505090565b6040518060a001604052806005906020820280368337509192915050565b6001600160a01b03811681146115b8575f80fd5b5f8060408385031215611711575f80fd5b823591506020830135611723816116ec565b809150509250929050565b5f805f805f60a08688031215611742575f80fd5b8535945060208601359350604086013561175b816116ec565b9250606086013561176b816116ec565b915060808601356009811061177e575f80fd5b809150509295509295909350565b5f6020828403121561179c575f80fd5b815180151581146117ab575f80fd5b9392505050565b634e487b7160e01b5f52602160045260245ffd5b600181811c908216806117da57607f821691505b6020821081036117f857634e487b7160e01b5f52602260045260245ffd5b50919050565b600481106115b857634e487b7160e01b5f52602160045260245ffd5b5f81518084525f5b8181101561183e57602081850181015186830182015201611822565b505f602082860101526020601f19601f83011685010191505092915050565b60018060a01b0381511682526020810151602083015260018060a01b03604082015116604083015260018060a01b0360608201511660608301525f608082015160a0608085015280516118af816117fe565b60a085015260208101516001600160a01b031660c08501526040810151608060e08601526118e161012086018261181a565b905060608201511515610100860152809250505092915050565b611904816117fe565b9052565b80545f90600181811c9082168061192057607f821691505b60208210810361193e57634e487b7160e01b5f52602260045260245ffd5b81865260208601818015611959576001811461196f5761199b565b60ff198516825283151560051b8201955061199b565b5f878152602090205f5b8581101561199557815484820152600190910190602001611979565b83019650505b505050505092915050565b5f82825480855260208501945060208160051b830101845f5260205f205f5b83811015611ab857601f19858403018852606083528154606084015260018201546080840152600282015460a08401526003820154611a0a60c0850160ff83166118fb565b6001600160a01b03600891821c811660e0860152600484015481166101008601526005840154811661012086015260068401541661014085015260078301546101608501528201546101808085019190915260098301546101a08501526101c0840152611a7e6101e08401600a8401611908565b8381036020850152611a9381600b8501611908565b600c840154604095909501949094525060209790970196600d909101906001016119c5565b50909695505050505050565b80546001600160a01b031682526001810154602083015260a0604083018190525f90611af5908401600284016119a6565b8381036060850152611b0a81600385016119a6565b90508381036080850152611b218160048501611908565b949350505050565b6001600160a01b03878116825286166020820152604081018590528354606082015260018401546080820152600284015460a0820152600384015460c0820152600484015460e082015261014061010082018190525f90611b8c9083018561185d565b828103610120840152611b9f8185611ac4565b9998505050505050505050565b5f805f60608486031215611bbe575f80fd5b5050815160208301516040909301519094929350919050565b5f60208284031215611be7575f80fd5b5051919050565b80516115aa816116ec565b5f60208284031215611c09575f80fd5b81516117ab816116ec565b6001600160a01b038681168252851660208201526040810184905260a0606082018190525f90611c469083018561185d565b8281036080840152611c588185611ac4565b98975050505050505050565b805f5b6005811015611c8f5781516001600160a01b0316845260209384019390910190600101611c67565b50505050565b610580810181885f5b600b811015611cc65781516001600160a01b0316835260209283019290910190600101611c9e565b5050506101608201875f5b6005811015611d17578151835f5b6005811015611cfe578251825260209283019290910190600101611cdf565b50505060a0929092019160209190910190600101611cd1565b50505085610480830152846104a0830152611d366104c0830185611c64565b6001600160a01b038316610560830152979650505050505050565b602081525f825160a06020840152611d6c60c084018261181a565b905060018060a01b0360208501511660408401526040840151606084015260608401516080840152608084015160a08401528091505092915050565b604081525f611dba604083018561181a565b90508260208301529392505050565b80820180821115611de857634e487b7160e01b5f52601160045260245ffd5b92915050565b6040516101e0810167ffffffffffffffff81118282101715611e1e57634e487b7160e01b5f52604160045260245ffd5b60405290565b5f60208284031215611e34575f80fd5b6040516020810167ffffffffffffffff81118282101715611e6357634e487b7160e01b5f52604160045260245ffd5b6040529151825250919050565b80516fffffffffffffffffffffffffffffffff811681146115aa575f80fd5b805164ffffffffff811681146115aa575f80fd5b805161ffff811681146115aa575f80fd5b5f6101e0828403128015611ec6575f80fd5b50611ecf611dee565b611ed98484611e24565b8152611ee760208401611e70565b6020820152611ef860408401611e70565b6040820152611f0960608401611e70565b6060820152611f1a60808401611e70565b6080820152611f2b60a08401611e70565b60a0820152611f3c60c08401611e8f565b60c0820152611f4d60e08401611ea3565b60e0820152611f5f6101008401611bee565b610100820152611f726101208401611bee565b610120820152611f856101408401611bee565b610140820152611f986101608401611bee565b610160820152611fab6101808401611e70565b610180820152611fbe6101a08401611e70565b6101a0820152611fd16101c08401611e70565b6101c0820152939250505056fe6101206040525f60808190525f1960a081905260c082905261010060e0819052655af3107a4000808252600584905560069290925560079290925560089190915560095534801561004e575f80fd5b50604051610f71380380610f7183398101604081905261006d916100e9565b5f80546001600160a01b03199081166001600160a01b0397881617909155600180548216958716959095179094556002805485169386169390931790925560038054841691851691909117905560048054909216921691909117905561014a565b80516001600160a01b03811681146100e4575f80fd5b919050565b5f805f805f60a086880312156100fd575f80fd5b610106866100ce565b9450610114602087016100ce565b9350610122604087016100ce565b9250610130606087016100ce565b915061013e608087016100ce565b90509295509295909350565b610e1a806101575f395ff3fe608060405260043610610079575f3560e01c80638406c0791161004c5780638406c0791461012a57806389a3027114610148578063c54e44eb1461016f578063e0d05d3914610196575f80fd5b806318546f121461007d578063206aeab3146100925780634920cfea146100d65780635df7eb90146100fd575b5f80fd5b61009061008b3660046108d2565b6101bd565b005b34801561009d575f80fd5b506100b973888888888889758f76e7103c6cbf23abbf58f94681565b6040516001600160a01b0390911681526020015b60405180910390f35b3480156100e1575f80fd5b506100b973d1d7d99764f8a52aff007b7831cc02748b2013b581565b348015610108575f80fd5b5061011c6101173660046108fc565b6103c5565b6040519081526020016100cd565b348015610135575f80fd5b505f546100b9906001600160a01b031681565b348015610153575f80fd5b506100b973a0b86991c6218b36c1d19d4a2e9eb0ce3606eb4881565b34801561017a575f80fd5b506100b973dac17f958d2ee523a2206206994597c13d831ec781565b3480156101a1575f80fd5b506100b9739d39a5de30e57443bff2a8307a4256c8797a349781565b6001546001600160a01b03908116908216036102435760025460035460405163474cf53d60e01b81526001600160a01b0391821660048201523060248201525f604482015291169063474cf53d9034906064015f604051808303818588803b158015610227575f80fd5b505af1158015610239573d5f803e3d5ffd5b5050505050610326565b60035460405163095ea7b360e01b81526001600160a01b039182166004820152602481018490529082169063095ea7b3906044016020604051808303815f875af1158015610293573d5f803e3d5ffd5b505050506040513d601f19601f820116820180604052508101906102b79190610935565b5060035460405163617ba03760e01b81526001600160a01b038381166004830152602482018590523060448301525f60648301529091169063617ba037906084015f604051808303815f87803b15801561030f575f80fd5b505af1158015610321573d5f803e3d5ffd5b505050505b600480545f54604051630c04a8a160e41b81526001600160a01b03918216938101939093525f196024840152169063c04a8a10906044015f604051808303815f87803b158015610374575f80fd5b505af1158015610386573d5f803e3d5ffd5b50506040518492506001600160a01b038416915030907f75134c5a30206e01639de7bebafb4f915e3e6cef465a59b1424e26ea3c9faeb7905f90a45050565b5f808073a0b86991c6218b36c1d19d4a2e9eb0ce3606eb47196001600160a01b038516016104255761042273a0b86991c6218b36c1d19d4a2e9eb0ce3606eb48739d39a5de30e57443bff2a8307a4256c8797a3497878985610680565b91505b60405163095ea7b360e01b815273888888888889758f76e7103c6cbf23abbf58f946600482015260248101839052739d39a5de30e57443bff2a8307a4256c8797a34979063095ea7b3906044016020604051808303815f875af115801561048e573d5f803e3d5ffd5b505050506040513d601f19601f820116820180604052508101906104b29190610935565b505f8073888888888889758f76e7103c6cbf23abbf58f9466001600160a01b031663c81f847a8873d1d7d99764f8a52aff007b7831cc02748b2013b585600561060e8a600a6040518060800160405290815f82015f9054906101000a900460ff1660038111156105245761052461095b565b60038111156105355761053561095b565b8152815461010090046001600160a01b031660208201526001820180546040909201916105619061096f565b80601f016020809104026020016040519081016040528092919081815260200182805461058d9061096f565b80156105d85780601f106105af576101008083540402835291602001916105d8565b820191905f5260205f20905b8154815290600101906020018083116105bb57829003601f168201915b50505091835250506002919091015460ff161515602090910152739d39a5de30e57443bff2a8307a4256c8797a3497919061080c565b600d6040518763ffffffff1660e01b815260040161063196959493929190610cd5565b6060604051808303815f875af115801561064d573d5f803e3d5ffd5b505050506040513d601f19601f820116820180604052508101906106719190610d4b565b50909998505050505050505050565b60405163095ea7b360e01b815273e592427a0aece92de3edee1f18e0157c0586156460048201819052602482018490525f916001600160a01b0388169063095ea7b3906044016020604051808303815f875af11580156106e2573d5f803e3d5ffd5b505050506040513d601f19601f820116820180604052508101906107069190610935565b506040805160a081018252606089811b6bffffffffffffffffffffffff1990811660c0840152607d60ea1b60d4840181905273dac17f958d2ee523a2206206994597c13d831ec760601b60d785015260eb84015289821b1660ee830152825160e28184030181526101028301845282526001600160a01b038089166020840152428385015290820187905260808201869052915163c04b8d5960e01b81526101f49284169063c04b8d59906107bf908490600401610d76565b6020604051808303815f875af11580156107db573d5f803e3d5ffd5b505050506040513d601f19601f820116820180604052508101906107ff9190610dcd565b9998505050505050505050565b61081461084a565b506040805160a0810182526001600160a01b039490941680855260208501939093528301919091525f6060830152608082015290565b6040518060a001604052805f6001600160a01b031681526020015f81526020015f6001600160a01b031681526020015f6001600160a01b031681526020016108b26040805160808101909152805f81525f602082018190526060604083018190529091015290565b905290565b80356001600160a01b03811681146108cd575f80fd5b919050565b5f80604083850312156108e3575f80fd5b823591506108f3602084016108b7565b90509250929050565b5f805f6060848603121561090e575f80fd5b8335925061091e602085016108b7565b915061092c604085016108b7565b90509250925092565b5f60208284031215610945575f80fd5b81518015158114610954575f80fd5b9392505050565b634e487b7160e01b5f52602160045260245ffd5b600181811c9082168061098357607f821691505b6020821081036109a157634e487b7160e01b5f52602260045260245ffd5b50919050565b600481106109c357634e487b7160e01b5f52602160045260245ffd5b50565b5f81518084525f5b818110156109ea576020818501810151868301820152016109ce565b505f602082860101526020601f19601f83011685010191505092915050565b60018060a01b0381511682526020810151602083015260018060a01b03604082015116604083015260018060a01b0360608201511660608301525f608082015160a060808501528051610a5b816109a7565b60a085015260208101516001600160a01b031660c08501526040810151608060e0860152610a8d6101208601826109c6565b905060608201511515610100860152809250505092915050565b610ab0816109a7565b9052565b80545f90600181811c90821680610acc57607f821691505b602082108103610aea57634e487b7160e01b5f52602260045260245ffd5b81865260208601818015610b055760018114610b1b57610b47565b60ff198516825283151560051b82019550610b47565b5f878152602090205f5b85811015610b4157815484820152600190910190602001610b25565b83019650505b505050505092915050565b5f82825480855260208501945060208160051b830101845f5260205f205f5b83811015610c6457601f19858403018852606083528154606084015260018201546080840152600282015460a08401526003820154610bb660c0850160ff8316610aa7565b6001600160a01b03600891821c811660e0860152600484015481166101008601526005840154811661012086015260068401541661014085015260078301546101608501528201546101808085019190915260098301546101a08501526101c0840152610c2a6101e08401600a8401610ab4565b8381036020850152610c3f81600b8501610ab4565b600c840154604095909501949094525060209790970196600d90910190600101610b71565b50909695505050505050565b80546001600160a01b031682526001810154602083015260a0604083018190525f90610ca190840160028401610b52565b8381036060850152610cb68160038501610b52565b90508381036080850152610ccd8160048501610ab4565b949350505050565b6001600160a01b03878116825286166020820152604081018590528354606082015260018401546080820152600284015460a0820152600384015460c0820152600484015460e082015261014061010082018190525f90610d3890830185610a09565b8281036101208401526107ff8185610c70565b5f805f60608486031215610d5d575f80fd5b5050815160208301516040909301519094929350919050565b602081525f825160a06020840152610d9160c08401826109c6565b905060018060a01b0360208501511660408401526040840151606084015260608401516080840152608084015160a08401528091505092915050565b5f60208284031215610ddd575f80fd5b505191905056fea264697066735822122069774376a1a1f22a3eb5a973899ae7654d9b7c18f89564f839b2a33d1ca4291b64736f6c634300081a003373555344654f7574206265696e67207377617070656420666f72205054202d20696e20626f72726f7728293a20a2646970667358221220c9233d35f133ccb9dbf9c54ccdd97e74ce8b120b1afa135d9b9a95c16b7d2ec864736f6c634300081a0033","linkReferences":{}},"methodIdentifiers":{"borrow(uint256,address)":"4b3fd148","lend(uint256,address)":"b1884744","lend2(uint256,address)":"79a72c5e","performRedemption(uint256,uint256,address,address,uint8)":"f4771c70"},"id":11}