{"abi":[{"type":"function","name":"borrow","inputs":[{"name":"amount_","type":"uint256","internalType":"uint256"},{"name":"receiver_","type":"address","internalType":"address"}],"outputs":[],"stateMutability":"nonpayable"},{"type":"function","name":"lend","inputs":[{"name":"isETH_","type":"bool","internalType":"bool"}],"outputs":[],"stateMutability":"payable"},{"type":"function","name":"rebuyPT","inputs":[{"name":"amountInUSDC_","type":"uint256","internalType":"uint256"}],"outputs":[],"stateMutability":"nonpayable"},{"type":"function","name":"redeem","inputs":[{"name":"amount_","type":"uint256","internalType":"uint256"},{"name":"receiver_","type":"address","internalType":"address"}],"outputs":[],"stateMutability":"nonpayable"}],"bytecode":{"object":"0x6080604052348015600e575f80fd5b506114788061001c5f395ff3fe60806040526004361061003e575f3560e01c806301a15540146100425780634b3fd148146100575780635c8abc38146100765780637bde82f214610095575b5f80fd5b610055610050366004610e02565b6100b4565b005b348015610062575f80fd5b50610055610071366004610e38565b610199565b348015610081575f80fd5b50610055610090366004610e66565b6104ee565b3480156100a0575f80fd5b506100556100af366004610e38565b61065a565b6001546040805163026b1d5f60e01b815290515f926001600160a01b03169163026b1d5f9160048083019260209291908290030181865afa1580156100fb573d5f803e3d5ffd5b505050506040513d601f19601f8201168201806040525081019061011f9190610e7d565b90508115610195575f805460405163474cf53d60e01b81526001600160a01b038481166004830152306024830152604482019390935291169063474cf53d9034906064015f604051808303818588803b15801561017a575f80fd5b505af115801561018c573d5f803e3d5ffd5b50505050505050565b5050565b6001546040805163026b1d5f60e01b815290515f926001600160a01b03169163026b1d5f9160048083019260209291908290030181865afa1580156101e0573d5f803e3d5ffd5b505050506040513d601f19601f820116820180604052508101906102049190610e7d565b60135460025460405163a415bcad60e01b81526001600160a01b0392831660048201526024810187905260448101919091525f606482015230608482015291925082169063a415bcad9060a4015f604051808303815f87803b158015610268575f80fd5b505af115801561027a573d5f803e3d5ffd5b50506013546014546040516370a0823160e01b815230600482018190525f95508594506102ff936001600160a01b0390811693169183906370a0823190602401602060405180830381865afa1580156102d5573d5f803e3d5ffd5b505050506040513d601f19601f820116820180604052508101906102f99190610e98565b86610943565b905061032d6040518060400160405280600a815260200169039aaa9a232a7baba1d160b51b81525082610ac1565b60145460035460405163095ea7b360e01b81526001600160a01b0391821660048201526024810184905291169063095ea7b3906044016020604051808303815f875af115801561037f573d5f803e3d5ffd5b505050506040513d601f19601f820116820180604052508101906103a39190610eaf565b506003546004546014545f9283926001600160a01b039182169263c81f847a9230928116918691600d916103d891168a610b06565b6040516001600160e01b031960e088901b168152610400959493929190600890600401611241565b6060604051808303815f875af115801561041c573d5f803e3d5ffd5b505050506040513d601f19601f8201168201806040525081019061044091906112b7565b505090506104786040518060400160405280601281526020017103732ba283a27baba10169039aaa9a2329d160751b81525082610ac1565b5f610481610c38565b6016546040516340c10f1960e01b81526001600160a01b038a81166004830152602482018890529293509116906340c10f19906044015f604051808303815f87803b1580156104ce575f80fd5b505af11580156104e0573d5f803e3d5ffd5b505050505050505050505050565b6013546040516323b872dd60e01b815233600482015230602482015260448101839052736c9f097e044506712b58eac670c9a5fd4bccef13916001600160a01b0316906323b872dd906064016020604051808303815f875af1158015610556573d5f803e3d5ffd5b505050506040513d601f19601f8201168201806040525081019061057a9190610eaf565b506040516370a0823160e01b81523060048201525f906001600160a01b038316906370a0823190602401602060405180830381865afa1580156105bf573d5f803e3d5ffd5b505050506040513d601f19601f820116820180604052508101906105e39190610e98565b60405163a9059cbb60e01b8152336004820152602481018290529091506001600160a01b0383169063a9059cbb906044016020604051808303815f875af1158015610630573d5f803e3d5ffd5b505050506040513d601f19601f820116820180604052508101906106549190610eaf565b50505050565b5f80736c9f097e044506712b58eac670c9a5fd4bccef13905061069d60405180604001604052806008815260200167039b2b73232b91d160c51b81525033610cd9565b60408051808201825260168152750282a103130b61037bd1016903839329039bbb0b81d160551b602082015290516370a0823160e01b815230600482015261073991906001600160a01b038416906370a08231906024015b602060405180830381865afa158015610710573d5f803e3d5ffd5b505050506040513d601f19601f820116820180604052508101906107349190610e98565b610ac1565b6040805180820182526015815274039aaa9a2329037bd1016903839329039bbb0b81d1605d1b602082015260145491516370a0823160e01b8152306004820152610795926001600160a01b0316906370a08231906024016106f5565b6107ac60405180602001604052805f815250610d1e565b6003546004546014545f926001600160a01b039081169263594a88cc923092918216918a916107dc911689610b06565b6040516001600160e01b031960e087901b16815261080394939291906008906004016112e2565b6060604051808303815f875af115801561081f573d5f803e3d5ffd5b505050506040513d601f19601f8201168201806040525081019061084391906112b7565b5050905061087c6040518060400160405280601381526020017203732ba2a37b5b2b727baba1039aaa9a2329d1606d1b81525082610ac1565b604080518082018252601781527f50542062616c206f7a202d20706f737420737761703a20000000000000000000602082015290516370a0823160e01b81523060048201526108df91906001600160a01b038516906370a08231906024016106f5565b6040805180820182526016815275039aaa9a2329037bd1016903837b9ba1039bbb0b81d160551b602082015260145491516370a0823160e01b815230600482015261093c926001600160a01b0316906370a08231906024016106f5565b5050505050565b60405163095ea7b360e01b815273e592427a0aece92de3edee1f18e0157c0586156460048201819052602482018490525f916001600160a01b0388169063095ea7b3906044016020604051808303815f875af11580156109a5573d5f803e3d5ffd5b505050506040513d601f19601f820116820180604052508101906109c99190610eaf565b506040805160a0810182526015546bffffffffffffffffffffffff1960608b811b821660c0850152607d60ea1b60d4850181905292811b821660d785015260eb84019290925289821b1660ee830152825180830360e20181526101028301845282526001600160a01b038881166020840152428385015290820187905260808201869052915163c04b8d5960e01b81526101f49284169063c04b8d5990610a74908490600401611332565b6020604051808303815f875af1158015610a90573d5f803e3d5ffd5b505050506040513d601f19601f82011682018060405250810190610ab49190610e98565b9998505050505050505050565b6101958282604051602401610ad7929190611389565b60408051601f198184030181529190526020810180516001600160e01b03166309710a9d60e41b179052610d64565b610b0e610d88565b6040805160a0810182526001600160a01b03851680825260208201859052818301525f606082015281516080818101909352600580549293840192829060ff166003811115610b5f57610b5f610eca565b6003811115610b7057610b70610eca565b8152815461010090046001600160a01b03166020820152600182018054604090920191610b9c90610fe8565b80601f0160208091040260200160405190810160405280929190818152602001828054610bc890610fe8565b8015610c135780601f10610bea57610100808354040283529160200191610c13565b820191905f5260205f20905b815481529060010190602001808311610bf657829003601f168201915b50505091835250506002919091015460ff161515602090910152905290505b92915050565b6017546040516370a0823160e01b81523060048201525f9182916001600160a01b03909116906370a0823190602401602060405180830381865afa158015610c82573d5f803e3d5ffd5b505050506040513d601f19601f82011682018060405250810190610ca69190610e98565b90506101f45f612710610cb984846113be565b610cc391906113d5565b90505f610cd082856113f4565b95945050505050565b6101958282604051602401610cef929190611407565b60408051601f198184030181529190526020810180516001600160e01b031663319af33360e01b179052610d64565b610d6181604051602401610d329190611430565b60408051601f198184030181529190526020810180516001600160e01b031663104c13eb60e21b179052610d64565b50565b610d618180516a636f6e736f6c652e6c6f67602083015f808483855afa5050505050565b6040518060a001604052805f6001600160a01b031681526020015f81526020015f6001600160a01b031681526020015f6001600160a01b03168152602001610df06040805160808101909152805f81525f602082018190526060604083018190529091015290565b905290565b8015158114610d61575f80fd5b5f60208284031215610e12575f80fd5b8135610e1d81610df5565b9392505050565b6001600160a01b0381168114610d61575f80fd5b5f8060408385031215610e49575f80fd5b823591506020830135610e5b81610e24565b809150509250929050565b5f60208284031215610e76575f80fd5b5035919050565b5f60208284031215610e8d575f80fd5b8151610e1d81610e24565b5f60208284031215610ea8575f80fd5b5051919050565b5f60208284031215610ebf575f80fd5b8151610e1d81610df5565b634e487b7160e01b5f52602160045260245ffd5b60048110610d6157634e487b7160e01b5f52602160045260245ffd5b5f81518084525f5b81811015610f1e57602081850181015186830182015201610f02565b505f602082860101526020601f19601f83011685010191505092915050565b60018060a01b0381511682526020810151602083015260018060a01b03604082015116604083015260018060a01b0360608201511660608301525f608082015160a060808501528051610f8f81610ede565b60a085015260208101516001600160a01b031660c08501526040810151608060e0860152610fc1610120860182610efa565b905060608201511515610100860152809250505092915050565b610fe481610ede565b9052565b600181811c90821680610ffc57607f821691505b60208210810361101a57634e487b7160e01b5f52602260045260245ffd5b50919050565b80545f90600181811c9082168061103857607f821691505b60208210810361105657634e487b7160e01b5f52602260045260245ffd5b818652602086018180156110715760018114611087576110b3565b60ff198516825283151560051b820195506110b3565b5f878152602090205f5b858110156110ad57815484820152600190910190602001611091565b83019650505b505050505092915050565b5f82825480855260208501945060208160051b830101845f5260205f205f5b838110156111d057601f19858403018852606083528154606084015260018201546080840152600282015460a0840152600382015461112260c0850160ff8316610fdb565b6001600160a01b03600891821c811660e0860152600484015481166101008601526005840154811661012086015260068401541661014085015260078301546101608501528201546101808085019190915260098301546101a08501526101c08401526111966101e08401600a8401611020565b83810360208501526111ab81600b8501611020565b600c840154604095909501949094525060209790970196600d909101906001016110dd565b50909695505050505050565b80546001600160a01b031682526001810154602083015260a0604083018190525f9061120d908401600284016110be565b838103606085015261122281600385016110be565b905083810360808501526112398160048501611020565b949350505050565b6001600160a01b03878116825286166020820152604081018590528354606082015260018401546080820152600284015460a0820152600384015460c0820152600484015460e082015261014061010082018190525f906112a490830185610f3d565b828103610120840152610ab481856111dc565b5f805f606084860312156112c9575f80fd5b5050815160208301516040909301519094929350919050565b6001600160a01b038681168252851660208201526040810184905260a0606082018190525f9061131490830185610f3d565b828103608084015261132681856111dc565b98975050505050505050565b602081525f825160a0602084015261134d60c0840182610efa565b905060018060a01b0360208501511660408401526040840151606084015260608401516080840152608084015160a08401528091505092915050565b604081525f61139b6040830185610efa565b90508260208301529392505050565b634e487b7160e01b5f52601160045260245ffd5b8082028115828204841417610c3257610c326113aa565b5f826113ef57634e487b7160e01b5f52601260045260245ffd5b500490565b81810381811115610c3257610c326113aa565b604081525f6114196040830185610efa565b905060018060a01b03831660208301529392505050565b602081525f610e1d6020830184610efa56fea2646970667358221220873422284a3f01af5d8d79bed92717762b3382eb552e4862251c7859028f64b064736f6c634300081a0033","linkReferences":{}},"methodIdentifiers":{"borrow(uint256,address)":"4b3fd148","lend(bool)":"01a15540","rebuyPT(uint256)":"5c8abc38","redeem(uint256,address)":"7bde82f2"},"id":7}