{"abi":[{"type":"function","name":"borrow","inputs":[{"name":"amount_","type":"uint256","internalType":"uint256"},{"name":"receiver_","type":"address","internalType":"address"}],"outputs":[],"stateMutability":"nonpayable"},{"type":"function","name":"finishBorrow","inputs":[{"name":"receiver_","type":"address","internalType":"address"}],"outputs":[],"stateMutability":"nonpayable"},{"type":"function","name":"getUserAccountData","inputs":[{"name":"user_","type":"address","internalType":"address"}],"outputs":[{"name":"userData","type":"tuple","internalType":"struct UserAccountData","components":[{"name":"totalCollateralBase","type":"uint256","internalType":"uint256"},{"name":"totalDebtBase","type":"uint256","internalType":"uint256"},{"name":"availableBorrowsBase","type":"uint256","internalType":"uint256"},{"name":"currentLiquidationThreshold","type":"uint256","internalType":"uint256"},{"name":"ltv","type":"uint256","internalType":"uint256"},{"name":"healthFactor","type":"uint256","internalType":"uint256"}]}],"stateMutability":"view"},{"type":"function","name":"lend","inputs":[{"name":"amountIn_","type":"uint256","internalType":"uint256"},{"name":"isETH_","type":"bool","internalType":"bool"}],"outputs":[],"stateMutability":"payable"},{"type":"function","name":"rebuyPT","inputs":[{"name":"amountInUSDC_","type":"uint256","internalType":"uint256"}],"outputs":[],"stateMutability":"nonpayable"},{"type":"function","name":"redeem","inputs":[{"name":"amount_","type":"uint256","internalType":"uint256"},{"name":"receiver_","type":"address","internalType":"address"}],"outputs":[],"stateMutability":"nonpayable"},{"type":"event","name":"NewAccountCreated","inputs":[{"name":"account","type":"address","indexed":false,"internalType":"address"}],"anonymous":false},{"type":"error","name":"AddressEmptyCode","inputs":[{"name":"target","type":"address","internalType":"address"}]},{"type":"error","name":"FailedInnerCall","inputs":[]}],"bytecode":{"object":"0x6080604052348015600e575f80fd5b506124018061001c5f395ff3fe608060405260043610610054575f3560e01c80634b3fd148146100585780634e7896a9146100795780634f52db6b146100985780635c8abc38146100ab5780637bde82f2146100ca578063bf92857c146100e9575b5f80fd5b348015610063575f80fd5b50610077610072366004611305565b61015c565b005b348015610084575f80fd5b50610077610093366004611333565b6103e0565b6100776100a636600461135b565b6104b1565b3480156100b6575f80fd5b506100776100c536600461137e565b610685565b3480156100d5575f80fd5b506100776100e4366004611305565b610820565b3480156100f4575f80fd5b50610108610103366004611333565b610b0a565b60405161015391905f60c082019050825182526020830151602083015260408301516040830152606083015160608301526080830151608083015260a083015160a083015292915050565b60405180910390f35b335f908152601d602052604080822054601e549151631375877960e31b8152600481018690526001600160a01b0385811660248301529182166044820181905293929190911690639bac3bc8906064016020604051808303815f875af11580156101c8573d5f803e3d5ffd5b505050506040513d601f19601f820116820180604052508101906101ec9190611395565b6016546017549192505f918291610212916001600160a01b039182169116308685610ca6565b90506102496040518060400160405280601381526020017202aa9a2219034b710169039bbb0b82ab7349d1606d1b81525084610e28565b61027f60405180604001604052806014815260200173039aaa9a232a7baba10169039bbb0b82ab7349d160651b81525082610e28565b6017546004805460405163095ea7b360e01b81526001600160a01b0391821692810192909252602482018490529091169063095ea7b3906044016020604051808303815f875af11580156102d5573d5f803e3d5ffd5b505050506040513d601f19601f820116820180604052508101906102f991906113ac565b506004546005546017545f9283926001600160a01b039182169263c81f847a9230928116918691600e9161032e91168a610e6d565b6040516001600160e01b031960e088901b168152610356959493929190600990600401611748565b6060604051808303815f875af1158015610372573d5f803e3d5ffd5b505050506040513d601f19601f8201168201806040525081019061039691906117cb565b505090505f6103a3610f9f565b601c80546001810182555f919091527f0e4562a10381dec21b205ed72637e6b1b523bdd0e4d4d50af5cd23dd4500a2110155505050505050505050565b6016546040516370a0823160e01b81523060048201525f916001600160a01b0316906370a0823190602401602060405180830381865afa158015610426573d5f803e3d5ffd5b505050506040513d601f19601f8201168201806040525081019061044a9190611395565b6019546040516340c10f1960e01b81526001600160a01b038581166004830152602482018490529293509116906340c10f19906044015f604051808303815f87803b158015610497575f80fd5b505af11580156104a9573d5f803e3d5ffd5b505050505050565b6002546001546040805163026b1d5f60e01b815290516001600160a01b03938416939092169163026b1d5f916004808201926020929091908290030181865afa158015610500573d5f803e3d5ffd5b505050506040513d601f19601f8201168201806040525081019061052491906117f6565b6001600160a01b0316146105bf576001546040805163026b1d5f60e01b815290516001600160a01b039092169163026b1d5f916004808201926020929091908290030181865afa15801561057a573d5f803e3d5ffd5b505050506040513d601f19601f8201168201806040525081019061059e91906117f6565b600280546001600160a01b0319166001600160a01b03929092169190911790555b335f908152601d60205260409020546001600160a01b031680610624576105e4610ffd565b6040516001600160a01b03821681529091507fe759fda21527aab212bc806c6b81b4e16add78b260f71442690c536ba1de40cd9060200160405180910390a15b811561067f57806001600160a01b031663de407d8f346040518263ffffffff1660e01b81526004015f604051808303818588803b158015610663575f80fd5b505af1158015610675573d5f803e3d5ffd5b5050505050505050565b505b5050565b601c546106ca5760405162461bcd60e51b815260206004820152600e60248201526d3932b13abca82a1d1032b93937b960911b60448201526064015b60405180910390fd5b6016546040516323b872dd60e01b8152336004820152306024820152604481018390526001600160a01b03909116906323b872dd906064016020604051808303815f875af115801561071e573d5f803e3d5ffd5b505050506040513d601f19601f8201168201806040525081019061074291906113ac565b50601a546040516370a0823160e01b81523060048201525f916001600160a01b0316906370a0823190602401602060405180830381865afa158015610789573d5f803e3d5ffd5b505050506040513d601f19601f820116820180604052508101906107ad9190611395565b601a5460405163a9059cbb60e01b8152336004820152602481018390529192506001600160a01b03169063a9059cbb906044016020604051808303815f875af11580156107fc573d5f803e3d5ffd5b505050506040513d601f19601f8201168201806040525081019061067f91906113ac565b5f80736c9f097e044506712b58eac670c9a5fd4bccef13905061086360405180604001604052806008815260200167039b2b73232b91d160c51b81525033611073565b60408051808201825260168152750282a103130b61037bd1016903839329039bbb0b81d160551b6020820152601a5491516370a0823160e01b8152306004820152610900926001600160a01b0316906370a08231906024015b602060405180830381865afa1580156108d7573d5f803e3d5ffd5b505050506040513d601f19601f820116820180604052508101906108fb9190611395565b610e28565b6040805180820182526015815274039aaa9a2329037bd1016903839329039bbb0b81d1605d1b602082015260175491516370a0823160e01b815230600482015261095c926001600160a01b0316906370a08231906024016108bc565b61097360405180602001604052805f8152506110b8565b6004546005546017545f926001600160a01b039081169263594a88cc923092918216918a916109a3911689610e6d565b6040516001600160e01b031960e087901b1681526109ca9493929190600990600401611811565b6060604051808303815f875af11580156109e6573d5f803e3d5ffd5b505050506040513d601f19601f82011682018060405250810190610a0a91906117cb565b50509050610a436040518060400160405280601381526020017203732ba2a37b5b2b727baba1039aaa9a2329d1606d1b81525082610e28565b604080518082018252601781527f50542062616c206f7a202d20706f737420737761703a20000000000000000000602082015290516370a0823160e01b8152306004820152610aa691906001600160a01b038516906370a08231906024016108bc565b6040805180820182526016815275039aaa9a2329037bd1016903837b9ba1039bbb0b81d160551b602082015260175491516370a0823160e01b8152306004820152610b03926001600160a01b0316906370a08231906024016108bc565b5050505050565b610b3d6040518060c001604052805f81526020015f81526020015f81526020015f81526020015f81526020015f81525090565b6001600160a01b038281165f908152601d6020526040808220546002549151632fe4a15f60e21b815290841660048201819052938392839283928392839291169063bf92857c9060240160c060405180830381865afa158015610ba2573d5f803e3d5ffd5b505050506040513d601f19601f82011682018060405250810190610bc69190611861565b955095509550955095509550610be960405180602001604052805f8152506110b8565b610c276040518060400160405280601981526020017f2d2d2d20696e206765745573657241636344617461202d2d2d000000000000008152506110b8565b610c4c6040518060600160405280602681526020016123a6602691396108fb866110fe565b610c6360405180602001604052805f8152506110b8565b6040518060c00160405280878152602001868152602001610c83866110fe565b815260200184815260200183815260200182815250975050505050505050919050565b60405163095ea7b360e01b815273e592427a0aece92de3edee1f18e0157c0586156460048201819052602482018490525f916001600160a01b0388169063095ea7b3906044016020604051808303815f875af1158015610d08573d5f803e3d5ffd5b505050506040513d601f19601f82011682018060405250810190610d2c91906113ac565b506040805160a0810182526018546bffffffffffffffffffffffff1960608b811b821660c0850152607d60ea1b60d4850181905292811b821660d785015260eb84019290925289821b1660ee830152825180830360e20181526101028301845282526001600160a01b038881166020840152428385015290820187905260808201869052915163c04b8d5960e01b81526101f4925f919085169063c04b8d5990610dda9085906004016118a7565b6020604051808303815f875af1158015610df6573d5f803e3d5ffd5b505050506040513d601f19601f82011682018060405250810190610e1a9190611395565b9a9950505050505050505050565b6106818282604051602401610e3e9291906118fe565b60408051601f198184030181529190526020810180516001600160e01b03166309710a9d60e41b17905261113c565b610e75611277565b6040805160a0810182526001600160a01b03851680825260208201859052818301525f606082015281516080818101909352600680549293840192829060ff166003811115610ec657610ec66113c7565b6003811115610ed757610ed76113c7565b8152815461010090046001600160a01b03166020820152600182018054604090920191610f03906114ef565b80601f0160208091040260200160405190810160405280929190818152602001828054610f2f906114ef565b8015610f7a5780601f10610f5157610100808354040283529160200191610f7a565b820191905f5260205f20905b815481529060010190602001808311610f5d57829003601f168201915b50505091835250506002919091015460ff161515602090910152905290505b92915050565b6040805160048152602481019091526020810180516001600160e01b03166301efa05d60e01b179052601b545f9190610fe1906001600160a01b031682611145565b905080806020019051810190610ff79190611395565b91505090565b601e546040515f9182916001600160a01b039091169061101c906112e4565b6001600160a01b039091168152602001604051809103905ff080158015611045573d5f803e3d5ffd5b50335f908152601d6020526040902080546001600160a01b0319166001600160a01b03831617905592915050565b610681828260405160240161108992919061191f565b60408051601f198184030181529190526020810180516001600160e01b031663319af33360e01b17905261113c565b6110fb816040516024016110cc9190611948565b60408051601f198184030181529190526020810180516001600160e01b031663104c13eb60e21b17905261113c565b50565b5f806064611121846127105f60140154600a61111a919061196e565b91906111b7565b61112b9085611981565b6111359190611994565b9392505050565b6110fb816111d2565b60605f80846001600160a01b03168460405161116191906119b3565b5f60405180830381855af49150503d805f8114611199576040519150601f19603f3d011682016040523d82523d5f602084013e61119e565b606091505b50915091506111ae8583836111f2565b95945050505050565b5f825f1904841183021582026111cb575f80fd5b5091020490565b80516a636f6e736f6c652e6c6f67602083015f808483855afa5050505050565b606082611207576112028261124e565b611135565b815115801561121e57506001600160a01b0384163b155b1561124757604051639996b31560e01b81526001600160a01b03851660048201526024016106c1565b5092915050565b80511561125e5780518082602001fd5b604051630a12f52160e11b815260040160405180910390fd5b6040518060a001604052805f6001600160a01b031681526020015f81526020015f6001600160a01b031681526020015f6001600160a01b031681526020016112df6040805160808101909152805f81525f602082018190526060604083018190529091015290565b905290565b6109d7806119cf83390190565b6001600160a01b03811681146110fb575f80fd5b5f8060408385031215611316575f80fd5b823591506020830135611328816112f1565b809150509250929050565b5f60208284031215611343575f80fd5b8135611135816112f1565b80151581146110fb575f80fd5b5f806040838503121561136c575f80fd5b8235915060208301356113288161134e565b5f6020828403121561138e575f80fd5b5035919050565b5f602082840312156113a5575f80fd5b5051919050565b5f602082840312156113bc575f80fd5b81516111358161134e565b634e487b7160e01b5f52602160045260245ffd5b600481106110fb57634e487b7160e01b5f52602160045260245ffd5b5f5b838110156114115781810151838201526020016113f9565b50505f910152565b5f81518084526114308160208601602086016113f7565b601f01601f19169290920160200192915050565b60018060a01b0381511682526020810151602083015260018060a01b03604082015116604083015260018060a01b0360608201511660608301525f608082015160a060808501528051611496816113db565b60a085015260208101516001600160a01b031660c08501526040810151608060e08601526114c8610120860182611419565b905060608201511515610100860152809250505092915050565b6114eb816113db565b9052565b600181811c9082168061150357607f821691505b60208210810361152157634e487b7160e01b5f52602260045260245ffd5b50919050565b80545f90600181811c9082168061153f57607f821691505b60208210810361155d57634e487b7160e01b5f52602260045260245ffd5b81865260208601818015611578576001811461158e576115ba565b60ff198516825283151560051b820195506115ba565b5f878152602090205f5b858110156115b457815484820152600190910190602001611598565b83019650505b505050505092915050565b5f82825480855260208501945060208160051b830101845f5260205f205f5b838110156116d757601f19858403018852606083528154606084015260018201546080840152600282015460a0840152600382015461162960c0850160ff83166114e2565b6001600160a01b03600891821c811660e0860152600484015481166101008601526005840154811661012086015260068401541661014085015260078301546101608501528201546101808085019190915260098301546101a08501526101c084015261169d6101e08401600a8401611527565b83810360208501526116b281600b8501611527565b600c840154604095909501949094525060209790970196600d909101906001016115e4565b50909695505050505050565b80546001600160a01b031682526001810154602083015260a0604083018190525f90611714908401600284016115c5565b838103606085015261172981600385016115c5565b905083810360808501526117408160048501611527565b949350505050565b6001600160a01b03878116825286166020820152604081018590528354606082015260018401546080820152600284015460a0820152600384015460c0820152600484015460e082015261014061010082018190525f906117ab90830185611444565b8281036101208401526117be81856116e3565b9998505050505050505050565b5f805f606084860312156117dd575f80fd5b5050815160208301516040909301519094929350919050565b5f60208284031215611806575f80fd5b8151611135816112f1565b6001600160a01b038681168252851660208201526040810184905260a0606082018190525f9061184390830185611444565b828103608084015261185581856116e3565b98975050505050505050565b5f805f805f8060c08789031215611876575f80fd5b50508451602086015160408701516060880151608089015160a090990151939a929950909790965094509092509050565b602081525f825160a060208401526118c260c0840182611419565b905060018060a01b0360208501511660408401526040840151606084015260608401516080840152608084015160a08401528091505092915050565b604081525f6119106040830185611419565b90508260208301529392505050565b604081525f6119316040830185611419565b905060018060a01b03831660208301529392505050565b602081525f6111356020830184611419565b634e487b7160e01b5f52601160045260245ffd5b80820180821115610f9957610f9961195a565b81810381811115610f9957610f9961195a565b5f826119ae57634e487b7160e01b5f52601260045260245ffd5b500490565b5f82516119c48184602087016113f7565b919091019291505056fe6080604052348015600e575f80fd5b506040516109d73803806109d7833981016040819052602b91604e565b5f80546001600160a01b0319166001600160a01b03929092169190911790556079565b5f60208284031215605d575f80fd5b81516001600160a01b03811681146072575f80fd5b9392505050565b610951806100865f395ff3fe60806040526004361061003e575f3560e01c806349292abd146100425780638406c07914610063578063de407d8f1461009d578063eb3ff017146100a5575b5f80fd5b34801561004d575f80fd5b5061006161005c36600461076b565b6100b0565b005b34801561006e575f80fd5b505f54610081906001600160a01b031681565b6040516001600160a01b03909116815260200160405180910390f35b61006161042c565b348015610061575f80fd5b60408051808201909152601a81527f73656e64657220696e20626f72726f77496e7465726e616c3a20000000000000602082015273893411580e590d62ddbca8a703d61cc4a8c7b2b9907387870bca3f3fd6335c3f4ce8392d69350b4fa4e29073a0b86991c6218b36c1d19d4a2e9eb0ce3606eb489033906101329082610673565b604080518082018252601a81527f6f7a20757364632062616c202d2070726520626f72726f773a20000000000000602082015290516370a0823160e01b81526001600160a01b038381166004830152600292737c8999dc9a822c1f0df42023113edb4fdd543266926101ef928716906370a08231906024015b602060405180830381865afa1580156101c6573d5f803e3d5ffd5b505050506040513d601f19601f820116820180604052508101906101ea91906107a4565b6106bc565b6102376040518060600160405280602281526020016108d7602291396040516370a0823160e01b81523060048201526001600160a01b038716906370a08231906024016101ab565b604080518082018252601d81527f6f776e657220757364632062616c202d2070726520626f72726f773a20000000602082015290516370a0823160e01b81526001600160a01b03838116600483015261029d9291908716906370a08231906024016101ab565b60405163a415bcad60e01b81526001600160a01b038581166004830152602482018a9052604482018490525f606483015230608483015286169063a415bcad9060a4015f604051808303815f87803b1580156102f7575f80fd5b505af1158015610309573d5f803e3d5ffd5b5050604080518082018252601b81527f6f7a20757364632062616c202d20706f737420626f72726f773a200000000000602082015290516370a0823160e01b81526001600160a01b0387811660048301526103749450919250908716906370a08231906024016101ab565b6103bc6040518060600160405280602381526020016108f9602391396040516370a0823160e01b81523060048201526001600160a01b038716906370a08231906024016101ab565b604080518082018252601e81527f6f776e657220757364632062616c202d20706f737420626f72726f773a200000602082015290516370a0823160e01b81526001600160a01b0383811660048301526104229291908716906370a08231906024016101ab565b5050505050505050565b60405163474cf53d60e01b81527387870bca3f3fd6335c3f4ce8392d69350b4fa4e2600482018190523060248301525f604483015273893411580e590d62ddbca8a703d61cc4a8c7b2b991829063474cf53d9034906064015f604051808303818588803b15801561049b575f80fd5b505af11580156104ad573d5f803e3d5ffd5b5050604051632fe4a15f60e21b81523060048201525f93506001600160a01b038516925063bf92857c915060240160c060405180830381865afa1580156104f6573d5f803e3d5ffd5b505050506040513d601f19601f8201168201806040525081019061051a91906107bb565b505050925050506105436040518060600160405280602f81526020016108a8602f9139826106bc565b61055a60405180602001604052805f815250610701565b6105986040518060400160405280601781526020017f2d2d2d2064656c656761746520637265646974202d2d2d000000000000000000815250610701565b6105af60405180602001604052805f815250610701565b6105e260405180604001604052806011815260200170036b9b39739b2b73232b910169037bd1d1607d1b81525033610673565b5f54604051630c04a8a160e41b81526001600160a01b0390911660048201525f19602482015273c7183455a4c133ae270771860664b6b7ec320bb1907372e95b8931767c79ba4eee721354d6e99a61d00490819063c04a8a10906044015f604051808303815f87803b158015610656575f80fd5b505af1158015610668573d5f803e3d5ffd5b505050505050505050565b6106b88282604051602401610689929190610844565b60408051601f198184030181529190526020810180516001600160e01b031663319af33360e01b179052610747565b5050565b6106b882826040516024016106d292919061086d565b60408051601f198184030181529190526020810180516001600160e01b03166309710a9d60e41b179052610747565b61074481604051602401610715919061088e565b60408051601f198184030181529190526020810180516001600160e01b031663104c13eb60e21b179052610747565b50565b6107448180516a636f6e736f6c652e6c6f67602083015f808483855afa5050505050565b5f806040838503121561077c575f80fd5b8235915060208301356001600160a01b0381168114610799575f80fd5b809150509250929050565b5f602082840312156107b4575f80fd5b5051919050565b5f805f805f8060c087890312156107d0575f80fd5b50508451602086015160408701516060880151608089015160a090990151939a929950909790965094509092509050565b5f81518084525f5b8181101561082557602081850181015186830182015201610809565b505f602082860101526020601f19601f83011685010191505092915050565b604081525f6108566040830185610801565b905060018060a01b03831660208301529392505050565b604081525f61087f6040830185610801565b90508260208301529392505050565b602081525f6108a06020830184610801565b939250505056fe617661696c61626c65426f72726f777342617365202d20696e7420616363202d207072652064656c65676174653a20696e744163636f756e7420757364632062616c202d2070726520626f72726f773a20696e744163636f756e7420757364632062616c202d20706f737420626f72726f773a20a26469706673582212209eeaa308c4f3f8d400b3281a2d5ddf3fac91fa1959e1143e411992073557a74a64736f6c634300081a00335f6170706c79446973636f756e7428617661696c61626c65426f72726f777342617365293a20a26469706673582212200734e2578656912a3f7613a5a699349c28d4025919c75d5c0e9a98fc8f5b608b64736f6c634300081a0033","linkReferences":{}},"methodIdentifiers":{"borrow(uint256,address)":"4b3fd148","finishBorrow(address)":"4e7896a9","getUserAccountData(address)":"bf92857c","lend(uint256,bool)":"4f52db6b","rebuyPT(uint256)":"5c8abc38","redeem(uint256,address)":"7bde82f2"},"id":9}