{"abi":[{"type":"function","name":"borrow","inputs":[{"name":"amount_","type":"uint256","internalType":"uint256"},{"name":"receiver_","type":"address","internalType":"address"}],"outputs":[],"stateMutability":"nonpayable"},{"type":"function","name":"finishBorrow","inputs":[{"name":"receiver_","type":"address","internalType":"address"}],"outputs":[],"stateMutability":"nonpayable"},{"type":"function","name":"getUserAccountData","inputs":[{"name":"user_","type":"address","internalType":"address"}],"outputs":[{"name":"userData","type":"tuple","internalType":"struct UserAccountData","components":[{"name":"totalCollateralBase","type":"uint256","internalType":"uint256"},{"name":"totalDebtBase","type":"uint256","internalType":"uint256"},{"name":"availableBorrowsBase","type":"uint256","internalType":"uint256"},{"name":"currentLiquidationThreshold","type":"uint256","internalType":"uint256"},{"name":"ltv","type":"uint256","internalType":"uint256"},{"name":"healthFactor","type":"uint256","internalType":"uint256"}]}],"stateMutability":"view"},{"type":"function","name":"lend","inputs":[{"name":"amountIn_","type":"uint256","internalType":"uint256"},{"name":"isETH_","type":"bool","internalType":"bool"}],"outputs":[],"stateMutability":"payable"},{"type":"function","name":"rebuyPT","inputs":[{"name":"amountInUSDC_","type":"uint256","internalType":"uint256"}],"outputs":[],"stateMutability":"nonpayable"},{"type":"function","name":"redeem","inputs":[{"name":"amount_","type":"uint256","internalType":"uint256"},{"name":"owner_","type":"address","internalType":"address"},{"name":"receiver_","type":"address","internalType":"address"}],"outputs":[],"stateMutability":"nonpayable"},{"type":"event","name":"NewAccountCreated","inputs":[{"name":"account","type":"address","indexed":false,"internalType":"address"}],"anonymous":false}],"bytecode":{"object":"0x6080604052348015600e575f80fd5b50611dd68061001c5f395ff3fe608060405260043610610054575f3560e01c80634b3fd148146100585780634e7896a9146100795780634f52db6b146100985780635c8abc38146100ab578063ba087652146100ca578063bf92857c146100e9575b5f80fd5b348015610063575f80fd5b506100776100723660046113c4565b61015c565b005b348015610084575f80fd5b506100776100933660046113f2565b61047f565b6100776100a6366004611421565b610550565b3480156100b6575f80fd5b506100776100c5366004611444565b610724565b3480156100d5575f80fd5b506100776100e436600461145b565b6108be565b3480156100f4575f80fd5b506101086101033660046113f2565b610dbb565b60405161015391905f60c082019050825182526020830151602083015260408301516040830152606083015160608301526080830151608083015260a083015160a083015292915050565b60405180910390f35b335f908152601f602090815260408083205491549051631375877960e31b8152600481018690526001600160a01b03858116602483015292831660448201819052939290911690639bac3bc8906064016020604051808303815f875af11580156101c8573d5f803e3d5ffd5b505050506040513d601f19601f820116820180604052508101906101ec919061149a565b6016546017549192505f918291610212916001600160a01b039182169116308685610ec6565b6017546004805460405163095ea7b360e01b81526001600160a01b03918216928101929092526024820184905292935091169063095ea7b3906044016020604051808303815f875af115801561026a573d5f803e3d5ffd5b505050506040513d601f19601f8201168201806040525081019061028e91906114b1565b506004546005546017545f9283926001600160a01b039182169263c81f847a9230928116918691600e916102c391168a611044565b6040516001600160e01b031960e088901b1681526102eb959493929190600990600401611843565b6060604051808303815f875af1158015610307573d5f803e3d5ffd5b505050506040513d601f19601f8201168201806040525081019061032b91906118b9565b5050905061036e6040518060400160405280601e81526020017f6e657450744f7574202a2a2a2a2a202d206f776e6564206279206f7a3a20000081525082611176565b601b546040516370a0823160e01b81526001600160a01b0388811660048301525f9216906370a0823190602401602060405180830381865afa1580156103b6573d5f803e3d5ffd5b505050506040513d601f19601f820116820180604052508101906103da919061149a565b90506104136040518060400160405280601581526020017403ab9b231903232b13a10169034b73a1030b1b19d1605d1b81525082611176565b6019546040516340c10f1960e01b81526001600160a01b038a8116600483015260248201849052909116906340c10f19906044015f604051808303815f87803b15801561045e575f80fd5b505af1158015610470573d5f803e3d5ffd5b50505050505050505050505050565b6016546040516370a0823160e01b81523060048201525f916001600160a01b0316906370a0823190602401602060405180830381865afa1580156104c5573d5f803e3d5ffd5b505050506040513d601f19601f820116820180604052508101906104e9919061149a565b6019546040516340c10f1960e01b81526001600160a01b038581166004830152602482018490529293509116906340c10f19906044015f604051808303815f87803b158015610536575f80fd5b505af1158015610548573d5f803e3d5ffd5b505050505050565b6002546001546040805163026b1d5f60e01b815290516001600160a01b03938416939092169163026b1d5f916004808201926020929091908290030181865afa15801561059f573d5f803e3d5ffd5b505050506040513d601f19601f820116820180604052508101906105c391906118e4565b6001600160a01b03161461065e576001546040805163026b1d5f60e01b815290516001600160a01b039092169163026b1d5f916004808201926020929091908290030181865afa158015610619573d5f803e3d5ffd5b505050506040513d601f19601f8201168201806040525081019061063d91906118e4565b600280546001600160a01b0319166001600160a01b03929092169190911790555b335f908152601f60205260409020546001600160a01b0316806106c3576106836111bb565b6040516001600160a01b03821681529091507fe759fda21527aab212bc806c6b81b4e16add78b260f71442690c536ba1de40cd9060200160405180910390a15b811561071e57806001600160a01b031663de407d8f346040518263ffffffff1660e01b81526004015f604051808303818588803b158015610702575f80fd5b505af1158015610714573d5f803e3d5ffd5b5050505050505050565b505b5050565b601e546107685760405162461bcd60e51b815260206004820152600e60248201526d3932b13abca82a1d1032b93937b960911b604482015260640160405180910390fd5b6016546040516323b872dd60e01b8152336004820152306024820152604481018390526001600160a01b03909116906323b872dd906064016020604051808303815f875af11580156107bc573d5f803e3d5ffd5b505050506040513d601f19601f820116820180604052508101906107e091906114b1565b50601a546040516370a0823160e01b81523060048201525f916001600160a01b0316906370a0823190602401602060405180830381865afa158015610827573d5f803e3d5ffd5b505050506040513d601f19601f8201168201806040525081019061084b919061149a565b601a5460405163a9059cbb60e01b8152336004820152602481018390529192506001600160a01b03169063a9059cbb906044016020604051808303815f875af115801561089a573d5f803e3d5ffd5b505050506040513d601f19601f8201168201806040525081019061071e91906114b1565b5f6108e960405180604001604052806008815260200167039b2b73232b91d160c51b81525033611231565b604080518082018252600b81526a0282a103130b61027ad1d160ad1b6020820152601a5491516370a0823160e01b815230600482015261097b926001600160a01b0316906370a08231906024015b602060405180830381865afa158015610952573d5f803e3d5ffd5b505050506040513d601f19601f82011682018060405250810190610976919061149a565b611176565b60048054600554601a546040516370a0823160e01b8152309481018590525f946001600160a01b039485169463594a88cc949193918116929116906370a0823190602401602060405180830381865afa1580156109da573d5f803e3d5ffd5b505050506040513d601f19601f820116820180604052508101906109fe919061149a565b601754610a14906001600160a01b031688611044565b6040516001600160e01b031960e087901b168152610a3b94939291906009906004016118ff565b6060604051808303815f875af1158015610a57573d5f803e3d5ffd5b505050506040513d601f19601f82011682018060405250810190610a7b91906118b9565b50509050610ab46040518060400160405280601381526020017203732ba2a37b5b2b727baba1039aaa9a2329d1606d1b81525082611176565b604080518082018252601781527f50542062616c206f7a202d20706f737420737761703a200000000000000000006020820152601a5491516370a0823160e01b8152306004820152610b18926001600160a01b0316906370a0823190602401610937565b604080518082018252601981527f55534465206f7a202d20706f73742073776170202d20303a20000000000000006020820152601c5491516370a0823160e01b8152306004820152610b7c926001600160a01b0316906370a0823190602401610937565b604080518082018252601e81527f7355534465206f7a202d20706f73742073776170202d206e6f7420303a200000602082015260175491516370a0823160e01b8152306004820152610be0926001600160a01b0316906370a0823190602401610937565b610bf760405180602001604052805f815250611276565b601754604051629907f160e11b81523060048201525f916001600160a01b0316906301320fe2906024016040805180830381865afa158015610c3b573d5f803e3d5ffd5b505050506040513d601f19601f82011682018060405250810190610c5f919061194f565b90505f81602001516001600160981b03169050610ca66040518060400160405280601281526020017103ab73232b9363cb4b733a0b6b7bab73a1d160751b81525082611176565b60175460405163f2888dbb60e01b81523060048201526001600160a01b039091169063f2888dbb906024015f604051808303815f87803b158015610ce8575f80fd5b505af1158015610cfa573d5f803e3d5ffd5b5050604080518082018252601e81527f7355534465206f7a202d20706f7374207769746864726177202d20303a200000602082015260175491516370a0823160e01b8152306004820152610d6694509092506001600160a01b03909116906370a0823190602401610937565b610db2604051806060016040528060218152602001611d8060219139601c546040516370a0823160e01b81523060048201526001600160a01b03909116906370a0823190602401610937565b50505050505050565b610dee6040518060c001604052805f81526020015f81526020015f81526020015f81526020015f81526020015f81525090565b6001600160a01b038281165f908152601f6020526040808220546002549151632fe4a15f60e21b815290841660048201819052938392839283928392839291169063bf92857c9060240160c060405180830381865afa158015610e53573d5f803e3d5ffd5b505050506040513d601f19601f82011682018060405250810190610e7791906119d6565b9550955095509550955095506040518060c00160405280878152602001868152602001610ea3866112bc565b815260200184815260200183815260200182815250975050505050505050919050565b60405163095ea7b360e01b815273e592427a0aece92de3edee1f18e0157c0586156460048201819052602482018490525f916001600160a01b0388169063095ea7b3906044016020604051808303815f875af1158015610f28573d5f803e3d5ffd5b505050506040513d601f19601f82011682018060405250810190610f4c91906114b1565b506040805160a0810182526018546bffffffffffffffffffffffff1960608b811b821660c0850152607d60ea1b60d4850181905292811b821660d785015260eb84019290925289821b1660ee830152825180830360e20181526101028301845282526001600160a01b038881166020840152428385015290820187905260808201869052915163c04b8d5960e01b81526101f49284169063c04b8d5990610ff7908490600401611a1c565b6020604051808303815f875af1158015611013573d5f803e3d5ffd5b505050506040513d601f19601f82011682018060405250810190611037919061149a565b9998505050505050505050565b61104c611336565b6040805160a0810182526001600160a01b03851680825260208201859052818301525f606082015281516080818101909352600680549293840192829060ff16600381111561109d5761109d6114cc565b60038111156110ae576110ae6114cc565b8152815461010090046001600160a01b031660208201526001820180546040909201916110da906115ea565b80601f0160208091040260200160405190810160405280929190818152602001828054611106906115ea565b80156111515780601f1061112857610100808354040283529160200191611151565b820191905f5260205f20905b81548152906001019060200180831161113457829003601f168201915b50505091835250506002919091015460ff161515602090910152905290505b92915050565b610720828260405160240161118c929190611a73565b60408051601f198184030181529190526020810180516001600160e01b03166309710a9d60e41b1790526112f2565b6020546040515f9182916001600160a01b03909116906111da906113a3565b6001600160a01b039091168152602001604051809103905ff080158015611203573d5f803e3d5ffd5b50335f908152601f6020526040902080546001600160a01b0319166001600160a01b03831617905592915050565b6107208282604051602401611247929190611a94565b60408051601f198184030181529190526020810180516001600160e01b031663319af33360e01b1790526112f2565b6112b98160405160240161128a9190611abd565b60408051601f198184030181529190526020810180516001600160e01b031663104c13eb60e21b1790526112f2565b50565b5f60646112de836127105f60140154600a6112d79190611ae3565b91906112fb565b6112e89084611af6565b6111709190611b09565b6112b981611316565b5f825f19048411830215820261130f575f80fd5b5091020490565b80516a636f6e736f6c652e6c6f67602083015f808483855afa5050505050565b6040518060a001604052805f6001600160a01b031681526020015f81526020015f6001600160a01b031681526020015f6001600160a01b0316815260200161139e6040805160808101909152805f81525f602082018190526060604083018190529091015290565b905290565b61025780611b2983390190565b6001600160a01b03811681146112b9575f80fd5b5f80604083850312156113d5575f80fd5b8235915060208301356113e7816113b0565b809150509250929050565b5f60208284031215611402575f80fd5b813561140d816113b0565b9392505050565b80151581146112b9575f80fd5b5f8060408385031215611432575f80fd5b8235915060208301356113e781611414565b5f60208284031215611454575f80fd5b5035919050565b5f805f6060848603121561146d575f80fd5b83359250602084013561147f816113b0565b9150604084013561148f816113b0565b809150509250925092565b5f602082840312156114aa575f80fd5b5051919050565b5f602082840312156114c1575f80fd5b815161140d81611414565b634e487b7160e01b5f52602160045260245ffd5b600481106112b957634e487b7160e01b5f52602160045260245ffd5b5f81518084525f5b8181101561152057602081850181015186830182015201611504565b505f602082860101526020601f19601f83011685010191505092915050565b60018060a01b0381511682526020810151602083015260018060a01b03604082015116604083015260018060a01b0360608201511660608301525f608082015160a060808501528051611591816114e0565b60a085015260208101516001600160a01b031660c08501526040810151608060e08601526115c36101208601826114fc565b905060608201511515610100860152809250505092915050565b6115e6816114e0565b9052565b600181811c908216806115fe57607f821691505b60208210810361161c57634e487b7160e01b5f52602260045260245ffd5b50919050565b80545f90600181811c9082168061163a57607f821691505b60208210810361165857634e487b7160e01b5f52602260045260245ffd5b818652602086018180156116735760018114611689576116b5565b60ff198516825283151560051b820195506116b5565b5f878152602090205f5b858110156116af57815484820152600190910190602001611693565b83019650505b505050505092915050565b5f82825480855260208501945060208160051b830101845f5260205f205f5b838110156117d257601f19858403018852606083528154606084015260018201546080840152600282015460a0840152600382015461172460c0850160ff83166115dd565b6001600160a01b03600891821c811660e0860152600484015481166101008601526005840154811661012086015260068401541661014085015260078301546101608501528201546101808085019190915260098301546101a08501526101c08401526117986101e08401600a8401611622565b83810360208501526117ad81600b8501611622565b600c840154604095909501949094525060209790970196600d909101906001016116df565b50909695505050505050565b80546001600160a01b031682526001810154602083015260a0604083018190525f9061180f908401600284016116c0565b838103606085015261182481600385016116c0565b9050838103608085015261183b8160048501611622565b949350505050565b6001600160a01b03878116825286166020820152604081018590528354606082015260018401546080820152600284015460a0820152600384015460c0820152600484015460e082015261014061010082018190525f906118a69083018561153f565b82810361012084015261103781856117de565b5f805f606084860312156118cb575f80fd5b5050815160208301516040909301519094929350919050565b5f602082840312156118f4575f80fd5b815161140d816113b0565b6001600160a01b038681168252851660208201526040810184905260a0606082018190525f906119319083018561153f565b828103608084015261194381856117de565b98975050505050505050565b5f6040828403128015611960575f80fd5b506040805190810167ffffffffffffffff8111828210171561199057634e487b7160e01b5f52604160045260245ffd5b60405282516cffffffffffffffffffffffffff811681146119af575f80fd5b815260208301516001600160981b03811681146119ca575f80fd5b60208201529392505050565b5f805f805f8060c087890312156119eb575f80fd5b50508451602086015160408701516060880151608089015160a090990151939a929950909790965094509092509050565b602081525f825160a06020840152611a3760c08401826114fc565b905060018060a01b0360208501511660408401526040840151606084015260608401516080840152608084015160a08401528091505092915050565b604081525f611a8560408301856114fc565b90508260208301529392505050565b604081525f611aa660408301856114fc565b905060018060a01b03831660208301529392505050565b602081525f61140d60208301846114fc565b634e487b7160e01b5f52601160045260245ffd5b8082018082111561117057611170611acf565b8181038181111561117057611170611acf565b5f82611b2357634e487b7160e01b5f52601260045260245ffd5b50049056fe6080604052348015600e575f80fd5b50604051610257380380610257833981016040819052602b91604e565b5f80546001600160a01b0319166001600160a01b03929092169190911790556079565b5f60208284031215605d575f80fd5b81516001600160a01b03811681146072575f80fd5b9392505050565b6101d1806100865f395ff3fe608060405260043610610028575f3560e01c80638406c0791461002c578063de407d8f14610066575b5f80fd5b348015610037575f80fd5b505f5461004a906001600160a01b031681565b6040516001600160a01b03909116815260200160405180910390f35b61006e610070565b005b60405163474cf53d60e01b81527387870bca3f3fd6335c3f4ce8392d69350b4fa4e2600482018190523060248301525f604483015273893411580e590d62ddbca8a703d61cc4a8c7b2b991829063474cf53d9034906064015f604051808303818588803b1580156100df575f80fd5b505af11580156100f1573d5f803e3d5ffd5b50505f54604051630c04a8a160e41b81526001600160a01b0390911660048201525f1960248201527372e95b8931767c79ba4eee721354d6e99a61d004935083925063c04a8a1091506044015f604051808303815f87803b158015610154575f80fd5b505af1158015610166573d5f803e3d5ffd5b50506040513492503091507f60ecce3105bf3b202d7a83cd679868ea5fd87b35901b96d3748136fafe323c65905f90a350505056fea2646970667358221220242d550094e1a27e7d80f41e37442a3b6925fcb4bd50f45f24a4a3fd51016b2b64736f6c634300081a003355534465206f7a202d20706f7374207769746864726177202d206e6f7420303a20a26469706673582212201022de86b8a6ae4f25469430a238b3d2f0e419e16587699c5e2c1400f22a377564736f6c634300081a0033","linkReferences":{}},"methodIdentifiers":{"borrow(uint256,address)":"4b3fd148","finishBorrow(address)":"4e7896a9","getUserAccountData(address)":"bf92857c","lend(uint256,bool)":"4f52db6b","rebuyPT(uint256)":"5c8abc38","redeem(uint256,address,address)":"ba087652"},"id":9}