{"abi":[{"type":"function","name":"borrow","inputs":[{"name":"amount_","type":"uint256","internalType":"uint256"},{"name":"receiver_","type":"address","internalType":"address"}],"outputs":[],"stateMutability":"nonpayable"},{"type":"function","name":"finishBorrow","inputs":[{"name":"receiver_","type":"address","internalType":"address"}],"outputs":[],"stateMutability":"nonpayable"},{"type":"function","name":"lend","inputs":[{"name":"isETH_","type":"bool","internalType":"bool"}],"outputs":[],"stateMutability":"payable"},{"type":"function","name":"rebuyPT","inputs":[{"name":"amountInUSDC_","type":"uint256","internalType":"uint256"}],"outputs":[],"stateMutability":"nonpayable"},{"type":"function","name":"redeem","inputs":[{"name":"amount_","type":"uint256","internalType":"uint256"},{"name":"receiver_","type":"address","internalType":"address"}],"outputs":[],"stateMutability":"nonpayable"},{"type":"error","name":"AddressEmptyCode","inputs":[{"name":"target","type":"address","internalType":"address"}]},{"type":"error","name":"FailedInnerCall","inputs":[]}],"bytecode":{"object":"0x6080604052348015600e575f80fd5b506115ab8061001c5f395ff3fe608060405260043610610049575f3560e01c806301a155401461004d5780634b3fd148146100625780634e7896a9146100815780635c8abc38146100a05780637bde82f2146100bf575b5f80fd5b61006061005b366004610f59565b6100de565b005b34801561006d575f80fd5b5061006061007c366004610f88565b6101c3565b34801561008c575f80fd5b5061006061009b366004610fb6565b610487565b3480156100ab575f80fd5b506100606100ba366004610fd1565b610558565b3480156100ca575f80fd5b506100606100d9366004610f88565b6106f8565b6001546040805163026b1d5f60e01b815290515f926001600160a01b03169163026b1d5f9160048083019260209291908290030181865afa158015610125573d5f803e3d5ffd5b505050506040513d601f19601f820116820180604052508101906101499190610fe8565b905081156101bf575f805460405163474cf53d60e01b81526001600160a01b038481166004830152306024830152604482019390935291169063474cf53d9034906064015f604051808303818588803b1580156101a4575f80fd5b505af11580156101b6573d5f803e3d5ffd5b50505050505050565b5050565b6001546040805163026b1d5f60e01b815290515f926001600160a01b03169163026b1d5f9160048083019260209291908290030181865afa15801561020a573d5f803e3d5ffd5b505050506040513d601f19601f8201168201806040525081019061022e9190610fe8565b60155460025460405163a415bcad60e01b81526001600160a01b0392831660048201526024810187905260448101919091525f606482015230608482015291925082169063a415bcad9060a4015f604051808303815f87803b158015610292575f80fd5b505af11580156102a4573d5f803e3d5ffd5b50506015546016546040516370a0823160e01b815230600482018190525f9550859450610329936001600160a01b0390811693169183906370a0823190602401602060405180830381865afa1580156102ff573d5f803e3d5ffd5b505050506040513d601f19601f820116820180604052508101906103239190611003565b866109e0565b60165460035460405163095ea7b360e01b81526001600160a01b03918216600482015260248101849052929350169063095ea7b3906044016020604051808303815f875af115801561037d573d5f803e3d5ffd5b505050506040513d601f19601f820116820180604052508101906103a1919061101a565b506003546004546016545f9283926001600160a01b039182169263c81f847a9230928116918691600d916103d691168a610b5e565b6040516001600160e01b031960e088901b1681526103fe9594939291906008906004016113b6565b6060604051808303815f875af115801561041a573d5f803e3d5ffd5b505050506040513d601f19601f8201168201806040525081019061043e919061142c565b505090505f61044b610c8e565b601b80546001810182555f919091527f3ad8aa4f87544323a9d1e5dd902f40c356527a7955687113db5f9a85ad579dc101555050505050505050565b6015546040516370a0823160e01b81523060048201525f916001600160a01b0316906370a0823190602401602060405180830381865afa1580156104cd573d5f803e3d5ffd5b505050506040513d601f19601f820116820180604052508101906104f19190611003565b6018546040516340c10f1960e01b81526001600160a01b038581166004830152602482018490529293509116906340c10f19906044015f604051808303815f87803b15801561053e575f80fd5b505af1158015610550573d5f803e3d5ffd5b505050505050565b601b5461059d5760405162461bcd60e51b815260206004820152600e60248201526d3932b13abca82a1d1032b93937b960911b60448201526064015b60405180910390fd5b6015546040516323b872dd60e01b8152336004820152306024820152604481018390526001600160a01b03909116906323b872dd906064016020604051808303815f875af11580156105f1573d5f803e3d5ffd5b505050506040513d601f19601f82011682018060405250810190610615919061101a565b506019546040516370a0823160e01b81523060048201525f916001600160a01b0316906370a0823190602401602060405180830381865afa15801561065c573d5f803e3d5ffd5b505050506040513d601f19601f820116820180604052508101906106809190611003565b60195460405163a9059cbb60e01b8152336004820152602481018390529192506001600160a01b03169063a9059cbb906044016020604051808303815f875af11580156106cf573d5f803e3d5ffd5b505050506040513d601f19601f820116820180604052508101906106f3919061101a565b505050565b5f80736c9f097e044506712b58eac670c9a5fd4bccef13905061073b60405180604001604052806008815260200167039b2b73232b91d160c51b81525033610cec565b60408051808201825260168152750282a103130b61037bd1016903839329039bbb0b81d160551b602082015290516370a0823160e01b81523060048201526107d791906001600160a01b038416906370a08231906024015b602060405180830381865afa1580156107ae573d5f803e3d5ffd5b505050506040513d601f19601f820116820180604052508101906107d29190611003565b610d31565b6040805180820182526015815274039aaa9a2329037bd1016903839329039bbb0b81d1605d1b602082015260165491516370a0823160e01b8152306004820152610833926001600160a01b0316906370a0823190602401610793565b61084a60405180602001604052805f815250610d76565b6003546004546016545f926001600160a01b039081169263594a88cc923092918216918a9161087a911689610b5e565b6040516001600160e01b031960e087901b1681526108a19493929190600890600401611457565b6060604051808303815f875af11580156108bd573d5f803e3d5ffd5b505050506040513d601f19601f820116820180604052508101906108e1919061142c565b5050905061091a6040518060400160405280601381526020017203732ba2a37b5b2b727baba1039aaa9a2329d1606d1b81525082610d31565b604080518082018252601781527f50542062616c206f7a202d20706f737420737761703a20000000000000000000602082015290516370a0823160e01b815230600482015261097d91906001600160a01b038516906370a0823190602401610793565b604080518082018252601680825275039aaa9a2329037bd1016903837b9ba1039bbb0b81d160551b60208301525491516370a0823160e01b81523060048201526109d9926001600160a01b0316906370a0823190602401610793565b5050505050565b60405163095ea7b360e01b815273e592427a0aece92de3edee1f18e0157c0586156460048201819052602482018490525f916001600160a01b0388169063095ea7b3906044016020604051808303815f875af1158015610a42573d5f803e3d5ffd5b505050506040513d601f19601f82011682018060405250810190610a66919061101a565b506040805160a0810182526017546bffffffffffffffffffffffff1960608b811b821660c0850152607d60ea1b60d4850181905292811b821660d785015260eb84019290925289821b1660ee830152825180830360e20181526101028301845282526001600160a01b038881166020840152428385015290820187905260808201869052915163c04b8d5960e01b81526101f49284169063c04b8d5990610b119084906004016114a7565b6020604051808303815f875af1158015610b2d573d5f803e3d5ffd5b505050506040513d601f19601f82011682018060405250810190610b519190611003565b9998505050505050505050565b610b66610edf565b6040805160a0810182526001600160a01b03851680825260208201859052818301525f606082015281516080818101909352600580549293840192829060ff166003811115610bb757610bb7611035565b6003811115610bc857610bc8611035565b8152815461010090046001600160a01b03166020820152600182018054604090920191610bf49061115d565b80601f0160208091040260200160405190810160405280929190818152602001828054610c209061115d565b8015610c6b5780601f10610c4257610100808354040283529160200191610c6b565b820191905f5260205f20905b815481529060010190602001808311610c4e57829003601f168201915b50505091835250506002919091015460ff16151560209091015290529392505050565b6040805160048152602481019091526020810180516001600160e01b03166301efa05d60e01b179052601a545f9190610cd0906001600160a01b031682610dbc565b905080806020019051810190610ce69190611003565b91505090565b6101bf8282604051602401610d029291906114fe565b60408051601f198184030181529190526020810180516001600160e01b031663319af33360e01b179052610e2e565b6101bf8282604051602401610d47929190611527565b60408051601f198184030181529190526020810180516001600160e01b03166309710a9d60e41b179052610e2e565b610db981604051602401610d8a9190611548565b60408051601f198184030181529190526020810180516001600160e01b031663104c13eb60e21b179052610e2e565b50565b60605f80846001600160a01b031684604051610dd8919061155a565b5f60405180830381855af49150503d805f8114610e10576040519150601f19603f3d011682016040523d82523d5f602084013e610e15565b606091505b5091509150610e25858383610e37565b95945050505050565b610db981610e96565b606082610e4c57610e4782610eb6565b610e8f565b8151158015610e6357506001600160a01b0384163b155b15610e8c57604051639996b31560e01b81526001600160a01b0385166004820152602401610594565b50805b9392505050565b80516a636f6e736f6c652e6c6f67602083015f808483855afa5050505050565b805115610ec65780518082602001fd5b604051630a12f52160e11b815260040160405180910390fd5b6040518060a001604052805f6001600160a01b031681526020015f81526020015f6001600160a01b031681526020015f6001600160a01b03168152602001610f476040805160808101909152805f81525f602082018190526060604083018190529091015290565b905290565b8015158114610db9575f80fd5b5f60208284031215610f69575f80fd5b8135610e8f81610f4c565b6001600160a01b0381168114610db9575f80fd5b5f8060408385031215610f99575f80fd5b823591506020830135610fab81610f74565b809150509250929050565b5f60208284031215610fc6575f80fd5b8135610e8f81610f74565b5f60208284031215610fe1575f80fd5b5035919050565b5f60208284031215610ff8575f80fd5b8151610e8f81610f74565b5f60208284031215611013575f80fd5b5051919050565b5f6020828403121561102a575f80fd5b8151610e8f81610f4c565b634e487b7160e01b5f52602160045260245ffd5b60048110610db957634e487b7160e01b5f52602160045260245ffd5b5f5b8381101561107f578181015183820152602001611067565b50505f910152565b5f815180845261109e816020860160208601611065565b601f01601f19169290920160200192915050565b60018060a01b0381511682526020810151602083015260018060a01b03604082015116604083015260018060a01b0360608201511660608301525f608082015160a06080850152805161110481611049565b60a085015260208101516001600160a01b031660c08501526040810151608060e0860152611136610120860182611087565b905060608201511515610100860152809250505092915050565b61115981611049565b9052565b600181811c9082168061117157607f821691505b60208210810361118f57634e487b7160e01b5f52602260045260245ffd5b50919050565b80545f90600181811c908216806111ad57607f821691505b6020821081036111cb57634e487b7160e01b5f52602260045260245ffd5b818652602086018180156111e657600181146111fc57611228565b60ff198516825283151560051b82019550611228565b5f878152602090205f5b8581101561122257815484820152600190910190602001611206565b83019650505b505050505092915050565b5f82825480855260208501945060208160051b830101845f5260205f205f5b8381101561134557601f19858403018852606083528154606084015260018201546080840152600282015460a0840152600382015461129760c0850160ff8316611150565b6001600160a01b03600891821c811660e0860152600484015481166101008601526005840154811661012086015260068401541661014085015260078301546101608501528201546101808085019190915260098301546101a08501526101c084015261130b6101e08401600a8401611195565b838103602085015261132081600b8501611195565b600c840154604095909501949094525060209790970196600d90910190600101611252565b50909695505050505050565b80546001600160a01b031682526001810154602083015260a0604083018190525f9061138290840160028401611233565b83810360608501526113978160038501611233565b905083810360808501526113ae8160048501611195565b949350505050565b6001600160a01b03878116825286166020820152604081018590528354606082015260018401546080820152600284015460a0820152600384015460c0820152600484015460e082015261014061010082018190525f90611419908301856110b2565b828103610120840152610b518185611351565b5f805f6060848603121561143e575f80fd5b5050815160208301516040909301519094929350919050565b6001600160a01b038681168252851660208201526040810184905260a0606082018190525f90611489908301856110b2565b828103608084015261149b8185611351565b98975050505050505050565b602081525f825160a060208401526114c260c0840182611087565b905060018060a01b0360208501511660408401526040840151606084015260608401516080840152608084015160a08401528091505092915050565b604081525f6115106040830185611087565b905060018060a01b03831660208301529392505050565b604081525f6115396040830185611087565b90508260208301529392505050565b602081525f610e8f6020830184611087565b5f825161156b818460208701611065565b919091019291505056fea2646970667358221220245e122636782a4a544071b8a530dc6147f22fe352f67b36905acb0640890f4f64736f6c634300081a0033","linkReferences":{}},"methodIdentifiers":{"borrow(uint256,address)":"4b3fd148","finishBorrow(address)":"4e7896a9","lend(bool)":"01a15540","rebuyPT(uint256)":"5c8abc38","redeem(uint256,address)":"7bde82f2"},"id":7}