{"abi":[{"type":"function","name":"borrow","inputs":[{"name":"amount_","type":"uint256","internalType":"uint256"},{"name":"receiver_","type":"address","internalType":"address"}],"outputs":[],"stateMutability":"nonpayable"},{"type":"function","name":"lend","inputs":[{"name":"amountIn_","type":"uint256","internalType":"uint256"},{"name":"tokenIn_","type":"address","internalType":"address"}],"outputs":[],"stateMutability":"payable"},{"type":"function","name":"performRedemption","inputs":[{"name":"amount_","type":"uint256","internalType":"uint256"},{"name":"minAmountOut_","type":"uint256","internalType":"uint256"},{"name":"owner_","type":"address","internalType":"address"},{"name":"receiver_","type":"address","internalType":"address"},{"name":"token_","type":"uint8","internalType":"enum Tokens"}],"outputs":[{"name":"","type":"uint256","internalType":"uint256"}],"stateMutability":"nonpayable"},{"type":"event","name":"NewAccountCreated","inputs":[{"name":"account","type":"address","indexed":false,"internalType":"address"}],"anonymous":false},{"type":"error","name":"OZError01","inputs":[{"name":"tokenIn","type":"address","internalType":"address"}]},{"type":"error","name":"OZError02","inputs":[{"name":"amountIn","type":"uint256","internalType":"uint256"},{"name":"msgValue","type":"uint256","internalType":"uint256"}]}],"bytecode":{"object":"0x6080604052348015600e575f80fd5b50611d3c8061001c5f395ff3fe608060405260043610610033575f3560e01c80634b3fd14814610037578063b188474414610058578063f4771c701461006b575b5f80fd5b348015610042575f80fd5b50610056610051366004611239565b61009c565b005b610056610066366004611239565b610450565b348015610076575f80fd5b5061008a610085366004611267565b61074c565b60405190815260200160405180910390f35b335f908152610126602052604080822054610127549151631375877960e31b8152600481018690526001600160a01b0385811660248301529182166044820181905293929190911690639bac3bc8906064016020604051808303815f875af115801561010a573d5f803e3d5ffd5b505050506040513d601f19601f8201168201806040525081019061012e91906112c5565b61011854610123549192505f918291610156916001600160a01b039182169116308685610a17565b6101235460055460405163095ea7b360e01b81526001600160a01b03918216600482015260248101849052929350169063095ea7b3906044016020604051808303815f875af11580156101ab573d5f803e3d5ffd5b505050506040513d601f19601f820116820180604052508101906101cf91906112dc565b506005546006546040805160808101909152600780545f9485946001600160a01b039182169463c81f847a94309492909316928792600f92610305928c92829060ff16600381111561022357610223611302565b600381111561023457610234611302565b8152815461010090046001600160a01b0316602082015260018201805460409092019161026090611316565b80601f016020809104026020016040519081016040528092919081815260200182805461028c90611316565b80156102d75780601f106102ae576101008083540402835291602001916102d7565b820191905f5260205f20905b8154815290600101906020018083116102ba57829003601f168201915b50505091835250506002919091015460ff161515602090910152610123546001600160a01b03169190610b49565b6040516001600160e01b031960e088901b16815261032d959493929190600a90600401611679565b6060604051808303815f875af1158015610349573d5f803e3d5ffd5b505050506040513d601f19601f8201168201806040525081019061036d91906116fc565b505061011c546040516370a0823160e01b81526001600160a01b0389811660048301529293505f92909116906370a0823190602401602060405180830381865afa1580156103bd573d5f803e3d5ffd5b505050506040513d601f19601f820116820180604052508101906103e191906112c5565b61011a546040516340c10f1960e01b81526001600160a01b038b81166004830152602482018490529293509116906340c10f19906044015f604051808303815f87803b15801561042f575f80fd5b505af1158015610441573d5f803e3d5ffd5b50505050505050505050505050565b6002546001546040805163026b1d5f60e01b815290516001600160a01b03938416939092169163026b1d5f916004808201926020929091908290030181865afa15801561049f573d5f803e3d5ffd5b505050506040513d601f19601f820116820180604052508101906104c39190611727565b6001600160a01b03161461055e576001546040805163026b1d5f60e01b815290516001600160a01b039092169163026b1d5f916004808201926020929091908290030181865afa158015610519573d5f803e3d5ffd5b505050506040513d601f19601f8201168201806040525081019061053d9190611727565b600280546001600160a01b0319166001600160a01b03929092169190911790555b610129546001600160a01b03908116908216036105a3573482146105a3576040516378feddbd60e11b8152600481018390523460248201526044015b60405180910390fd5b6001600160a01b0381165f908152610128602052604090205460ff166105e7576040516331d3c70960e11b81526001600160a01b038216600482015260240161059a565b335f90815261012660205260408120546001600160a01b03168061064d5761060d610b87565b6040516001600160a01b03821681529091507fe759fda21527aab212bc806c6b81b4e16add78b260f71442690c536ba1de40cd9060200160405180910390a15b610129546001600160a01b038481169116146106e2576040516323b872dd60e01b81523360048201526001600160a01b038281166024830152604482018690528416906323b872dd906064016020604051808303815f875af11580156106b5573d5f803e3d5ffd5b505050506040513d601f19601f820116820180604052508101906106d991906112dc565b505f91506106e6565b3491505b604051630c2a378960e11b8152600481018590526001600160a01b0384811660248301528216906318546f129084906044015f604051808303818588803b15801561072f575f80fd5b505af1158015610741573d5f803e3d5ffd5b505050505050505050565b60055460065461011b546040516370a0823160e01b815230600482018190525f9485946001600160a01b039182169463594a88cc949183169216906370a0823190602401602060405180830381865afa1580156107ab573d5f803e3d5ffd5b505050506040513d601f19601f820116820180604052508101906107cf91906112c5565b6040805160808101909152600780546107fc928e929091829060ff16600381111561022357610223611302565b6040516001600160e01b031960e087901b1681526108239493929190600a90600401611742565b6060604051808303815f875af115801561083f573d5f803e3d5ffd5b505050506040513d601f19601f8201168201806040525081019061086391906116fc565b509091506008905083600881111561087d5761087d611302565b036108ff576101235460405163a9059cbb60e01b81526001600160a01b038681166004830152602482018490529091169063a9059cbb906044016020604051808303815f875af11580156108d3573d5f803e3d5ffd5b505050506040513d601f19601f820116820180604052508101906108f791906112dc565b509050610a0e565b5f61090984610c39565b6101235460195460405163095ea7b360e01b81526001600160a01b03918216600482015260248101869052929350169063095ea7b3906044016020604051808303815f875af115801561095e573d5f803e3d5ffd5b505050506040513d601f19601f8201168201806040525081019061098291906112dc565b5060195481516020830151604080850151905163c872a3c560e01b81525f946001600160a01b03169363c872a3c5936109c8939192909189918f91908e906004016117c3565b6020604051808303815f875af11580156109e4573d5f803e3d5ffd5b505050506040513d601f19601f82011682018060405250810190610a0891906112c5565b93505050505b95945050505050565b60405163095ea7b360e01b815273e592427a0aece92de3edee1f18e0157c0586156460048201819052602482018490525f916001600160a01b0388169063095ea7b3906044016020604051808303815f875af1158015610a79573d5f803e3d5ffd5b505050506040513d601f19601f82011682018060405250810190610a9d91906112dc565b506040805160a081018252610119546bffffffffffffffffffffffff1960608b811b821660c0850152607d60ea1b60d4850181905292811b821660d785015260eb84019290925289821b1660ee830152825180830360e20181526101028301845282526001600160a01b038881166020840152428385015290820187905260808201869052915163c04b8d5960e01b81526101f49284169063c04b8d59906109c890849060040161187f565b610b51611111565b506040805160a0810182526001600160a01b039490941680855260208501939093528301919091525f6060830152608082015290565b61012754610129545f8054600254600454604051939586956001600160a01b03918216959082169482169382169290911690610bc29061117e565b6001600160a01b0395861681529385166020850152918416604084015283166060830152909116608082015260a001604051809103905ff080158015610c0a573d5f803e3d5ffd5b50335f9081526101266020526040902080546001600160a01b0319166001600160a01b03831617905592915050565b610c4161118b565b6005826008811115610c5557610c55611302565b03610d5257604080516101c081019091526021816060810182600b8282826020028201915b81546001600160a01b03168152600190910190602001808311610c7a5750505091835250506040805160a08101909152602090910190600b830160055f835b82821015610d00576040805160a081019182905290600584810287019182845b815481526020019060010190808311610cd957505050505081526020019060010190610cb9565b505050908252506040805160a081019182905260209092019190602484019060059082845b81546001600160a01b03168152600190910190602001808311610d25575050505050815250509050919050565b6006826008811115610d6657610d66611302565b03610e1157604080516101c08101909152604a816060810182600b8282826020028201915b81546001600160a01b03168152600190910190602001808311610d8b5750505091835250506040805160a08101909152602090910190600b830160055f835b82821015610d00576040805160a081019182905290600584810287019182845b815481526020019060010190808311610dea57505050505081526020019060010190610dca565b6003826008811115610e2557610e25611302565b03610ed057604080516101c081019091526073816060810182600b8282826020028201915b81546001600160a01b03168152600190910190602001808311610e4a5750505091835250506040805160a08101909152602090910190600b830160055f835b82821015610d00576040805160a081019182905290600584810287019182845b815481526020019060010190808311610ea957505050505081526020019060010190610e89565b6002826008811115610ee457610ee4611302565b03610f8f57604080516101c08101909152609c816060810182600b8282826020028201915b81546001600160a01b03168152600190910190602001808311610f095750505091835250506040805160a08101909152602090910190600b830160055f835b82821015610d00576040805160a081019182905290600584810287019182845b815481526020019060010190808311610f6857505050505081526020019060010190610f48565b5f826008811115610fa257610fa2611302565b0361104d57604080516101c0810190915260c5816060810182600b8282826020028201915b81546001600160a01b03168152600190910190602001808311610fc75750505091835250506040805160a08101909152602090910190600b830160055f835b82821015610d00576040805160a081019182905290600584810287019182845b81548152602001906001019080831161102657505050505081526020019060010190611006565b600782600881111561106157611061611302565b0361110c57604080516101c0810190915260ee816060810182600b8282826020028201915b81546001600160a01b031681526001909101906020018083116110865750505091835250506040805160a08101909152602090910190600b830160055f835b82821015610d00576040805160a081019182905290600584810287019182845b8154815260200190600101908083116110e5575050505050815260200190600101906110c5565b919050565b6040518060a001604052805f6001600160a01b031681526020015f81526020015f6001600160a01b031681526020015f6001600160a01b031681526020016111796040805160808101909152805f81525f602082018190526060604083018190529091015290565b905290565b610430806118d783390190565b604051806060016040528061119e6111b8565b81526020016111ab6111d7565b8152602001611179611204565b604051806101600160405280600b906020820280368337509192915050565b6040518060a001604052806005905b6111ee611204565b8152602001906001900390816111e65790505090565b6040518060a001604052806005906020820280368337509192915050565b6001600160a01b0381168114611236575f80fd5b50565b5f806040838503121561124a575f80fd5b82359150602083013561125c81611222565b809150509250929050565b5f805f805f60a0868803121561127b575f80fd5b8535945060208601359350604086013561129481611222565b925060608601356112a481611222565b91506080860135600981106112b7575f80fd5b809150509295509295909350565b5f602082840312156112d5575f80fd5b5051919050565b5f602082840312156112ec575f80fd5b815180151581146112fb575f80fd5b9392505050565b634e487b7160e01b5f52602160045260245ffd5b600181811c9082168061132a57607f821691505b60208210810361134857634e487b7160e01b5f52602260045260245ffd5b50919050565b6004811061123657634e487b7160e01b5f52602160045260245ffd5b5f81518084525f5b8181101561138e57602081850181015186830182015201611372565b505f602082860101526020601f19601f83011685010191505092915050565b60018060a01b0381511682526020810151602083015260018060a01b03604082015116604083015260018060a01b0360608201511660608301525f608082015160a0608085015280516113ff8161134e565b60a085015260208101516001600160a01b031660c08501526040810151608060e086015261143161012086018261136a565b905060608201511515610100860152809250505092915050565b6114548161134e565b9052565b80545f90600181811c9082168061147057607f821691505b60208210810361148e57634e487b7160e01b5f52602260045260245ffd5b818652602086018180156114a957600181146114bf576114eb565b60ff198516825283151560051b820195506114eb565b5f878152602090205f5b858110156114e5578154848201526001909101906020016114c9565b83019650505b505050505092915050565b5f82825480855260208501945060208160051b830101845f5260205f205f5b8381101561160857601f19858403018852606083528154606084015260018201546080840152600282015460a0840152600382015461155a60c0850160ff831661144b565b6001600160a01b03600891821c811660e0860152600484015481166101008601526005840154811661012086015260068401541661014085015260078301546101608501528201546101808085019190915260098301546101a08501526101c08401526115ce6101e08401600a8401611458565b83810360208501526115e381600b8501611458565b600c840154604095909501949094525060209790970196600d90910190600101611515565b50909695505050505050565b80546001600160a01b031682526001810154602083015260a0604083018190525f90611645908401600284016114f6565b838103606085015261165a81600385016114f6565b905083810360808501526116718160048501611458565b949350505050565b6001600160a01b03878116825286166020820152604081018590528354606082015260018401546080820152600284015460a0820152600384015460c0820152600484015460e082015261014061010082018190525f906116dc908301856113ad565b8281036101208401526116ef8185611614565b9998505050505050505050565b5f805f6060848603121561170e575f80fd5b5050815160208301516040909301519094929350919050565b5f60208284031215611737575f80fd5b81516112fb81611222565b6001600160a01b038681168252851660208201526040810184905260a0606082018190525f90611774908301856113ad565b82810360808401526117868185611614565b98975050505050505050565b805f5b60058110156117bd5781516001600160a01b0316845260209384019390910190600101611795565b50505050565b610580810181885f5b600b8110156117f45781516001600160a01b03168352602092830192909101906001016117cc565b5050506101608201875f5b6005811015611845578151835f5b600581101561182c57825182526020928301929091019060010161180d565b50505060a09290920191602091909101906001016117ff565b50505085610480830152846104a08301526118646104c0830185611792565b6001600160a01b038316610560830152979650505050505050565b602081525f825160a0602084015261189a60c084018261136a565b905060018060a01b0360208501511660408401526040840151606084015260608401516080840152608084015160a0840152809150509291505056fe608060405234801561000f575f80fd5b5060405161043038038061043083398101604081905261002e916100aa565b5f80546001600160a01b03199081166001600160a01b0397881617909155600180548216958716959095179094556002805485169386169390931790925560038054841691851691909117905560048054909216921691909117905561010b565b80516001600160a01b03811681146100a5575f80fd5b919050565b5f805f805f60a086880312156100be575f80fd5b6100c78661008f565b94506100d56020870161008f565b93506100e36040870161008f565b92506100f16060870161008f565b91506100ff6080870161008f565b90509295509295909350565b610318806101185f395ff3fe608060405260043610610028575f3560e01c806318546f121461002c5780638406c07914610041575b5f80fd5b61003f61003a366004610283565b61007b565b005b34801561004c575f80fd5b505f5461005f906001600160a01b031681565b6040516001600160a01b03909116815260200160405180910390f35b6001546001600160a01b03908116908216036101015760025460035460405163474cf53d60e01b81526001600160a01b0391821660048201523060248201525f604482015291169063474cf53d9034906064015f604051808303818588803b1580156100e5575f80fd5b505af11580156100f7573d5f803e3d5ffd5b50505050506101e4565b60035460405163095ea7b360e01b81526001600160a01b039182166004820152602481018490529082169063095ea7b3906044016020604051808303815f875af1158015610151573d5f803e3d5ffd5b505050506040513d601f19601f8201168201806040525081019061017591906102bc565b5060035460405163617ba03760e01b81526001600160a01b038381166004830152602482018590523060448301525f60648301529091169063617ba037906084015f604051808303815f87803b1580156101cd575f80fd5b505af11580156101df573d5f803e3d5ffd5b505050505b600480545f54604051630c04a8a160e41b81526001600160a01b03918216938101939093525f196024840152169063c04a8a10906044015f604051808303815f87803b158015610232575f80fd5b505af1158015610244573d5f803e3d5ffd5b50506040518492506001600160a01b038416915030907f75134c5a30206e01639de7bebafb4f915e3e6cef465a59b1424e26ea3c9faeb7905f90a45050565b5f8060408385031215610294575f80fd5b8235915060208301356001600160a01b03811681146102b1575f80fd5b809150509250929050565b5f602082840312156102cc575f80fd5b815180151581146102db575f80fd5b939250505056fea264697066735822122071a3a0041a18d78fa5df242c416d327c746a92f82b2a5cfcb40e947e7ac80b6864736f6c634300081a0033a26469706673582212206b7a92a30de65e47a5fba5036c3e9b8587956b8063e7fdd6e9789d82fa65166464736f6c634300081a0033","linkReferences":{}},"methodIdentifiers":{"borrow(uint256,address)":"4b3fd148","lend(uint256,address)":"b1884744","performRedemption(uint256,uint256,address,address,uint8)":"f4771c70"},"id":11}