{"abi":[{"type":"function","name":"borrow","inputs":[{"name":"amount_","type":"uint256","internalType":"uint256"},{"name":"receiver_","type":"address","internalType":"address"}],"outputs":[],"stateMutability":"nonpayable"},{"type":"function","name":"finishBorrow","inputs":[{"name":"receiver_","type":"address","internalType":"address"}],"outputs":[],"stateMutability":"nonpayable"},{"type":"function","name":"getUserAccountData","inputs":[{"name":"user_","type":"address","internalType":"address"}],"outputs":[{"name":"userData","type":"tuple","internalType":"struct UserAccountData","components":[{"name":"totalCollateralBase","type":"uint256","internalType":"uint256"},{"name":"totalDebtBase","type":"uint256","internalType":"uint256"},{"name":"availableBorrowsBase","type":"uint256","internalType":"uint256"},{"name":"currentLiquidationThreshold","type":"uint256","internalType":"uint256"},{"name":"ltv","type":"uint256","internalType":"uint256"},{"name":"healthFactor","type":"uint256","internalType":"uint256"}]}],"stateMutability":"view"},{"type":"function","name":"lend","inputs":[{"name":"amountIn_","type":"uint256","internalType":"uint256"},{"name":"isETH_","type":"bool","internalType":"bool"}],"outputs":[],"stateMutability":"payable"},{"type":"function","name":"rebuyPT","inputs":[{"name":"amountInUSDC_","type":"uint256","internalType":"uint256"}],"outputs":[],"stateMutability":"nonpayable"},{"type":"function","name":"redeem","inputs":[{"name":"amount_","type":"uint256","internalType":"uint256"},{"name":"owner_","type":"address","internalType":"address"},{"name":"receiver_","type":"address","internalType":"address"},{"name":"isETH_","type":"bool","internalType":"bool"}],"outputs":[],"stateMutability":"nonpayable"},{"type":"event","name":"NewAccountCreated","inputs":[{"name":"account","type":"address","indexed":false,"internalType":"address"}],"anonymous":false}],"bytecode":{"object":"0x6080604052348015600e575f80fd5b506127b98061001c5f395ff3fe608060405260043610610054575f3560e01c80634b3fd148146100585780634e7896a9146100795780634f52db6b146100985780635c8abc38146100ab578063be4a0a14146100ca578063bf92857c146100e9575b5f80fd5b348015610063575f80fd5b50610077610072366004611b3d565b61015c565b005b348015610084575f80fd5b50610077610093366004611b6b565b610582565b6100776100a6366004611b93565b610653565b3480156100b6575f80fd5b506100776100c5366004611bb6565b610827565b3480156100d5575f80fd5b506100776100e4366004611bcd565b6109c1565b3480156100f4575f80fd5b50610108610103366004611b6b565b610efb565b60405161015391905f60c082019050825182526020830151602083015260408301516040830152606083015160608301526080830151608083015260a083015160a083015292915050565b60405180910390f35b335f908152602460208190526040808320546025549151631375877960e31b8152600481018790526001600160a01b038681169482019490945290831660448201819052939290911690639bac3bc8906064016020604051808303815f875af11580156101cb573d5f803e3d5ffd5b505050506040513d601f19601f820116820180604052508101906101ef9190611c1d565b6019546021549192505f918291610215916001600160a01b039182169116308685611006565b6021546004805460405163095ea7b360e01b81526001600160a01b03918216928101929092526024820184905292935091169063095ea7b3906044016020604051808303815f875af115801561026d573d5f803e3d5ffd5b505050506040513d601f19601f820116820180604052508101906102919190611c34565b506004546005546040805160808101909152600680545f9485946001600160a01b039182169463c81f847a94309492909316928792600e926103c6928c92829060ff1660038111156102e5576102e5611c4f565b60038111156102f6576102f6611c4f565b8152815461010090046001600160a01b0316602082015260018201805460409092019161032290611c63565b80601f016020809104026020016040519081016040528092919081815260200182805461034e90611c63565b80156103995780601f1061037057610100808354040283529160200191610399565b820191905f5260205f20905b81548152906001019060200180831161037c57829003601f168201915b50505091835250506002919091015460ff1615156020909101526021546001600160a01b03169190611186565b6040516001600160e01b031960e088901b1681526103ee959493929190600990600401611fba565b6060604051808303815f875af115801561040a573d5f803e3d5ffd5b505050506040513d601f19601f8201168201806040525081019061042e919061203d565b505090506104716040518060400160405280601e81526020017f6e657450744f7574202a2a2a2a2a202d206f776e6564206279206f7a3a200000815250826111c9565b601d546040516370a0823160e01b81526001600160a01b0388811660048301525f9216906370a0823190602401602060405180830381865afa1580156104b9573d5f803e3d5ffd5b505050506040513d601f19601f820116820180604052508101906104dd9190611c1d565b90506105166040518060400160405280601581526020017403ab9b231903232b13a10169034b73a1030b1b19d1605d1b815250826111c9565b601b546040516340c10f1960e01b81526001600160a01b038a8116600483015260248201849052909116906340c10f19906044015f604051808303815f87803b158015610561575f80fd5b505af1158015610573573d5f803e3d5ffd5b50505050505050505050505050565b6019546040516370a0823160e01b81523060048201525f916001600160a01b0316906370a0823190602401602060405180830381865afa1580156105c8573d5f803e3d5ffd5b505050506040513d601f19601f820116820180604052508101906105ec9190611c1d565b601b546040516340c10f1960e01b81526001600160a01b038581166004830152602482018490529293509116906340c10f19906044015f604051808303815f87803b158015610639575f80fd5b505af115801561064b573d5f803e3d5ffd5b505050505050565b6002546001546040805163026b1d5f60e01b815290516001600160a01b03938416939092169163026b1d5f916004808201926020929091908290030181865afa1580156106a2573d5f803e3d5ffd5b505050506040513d601f19601f820116820180604052508101906106c69190612068565b6001600160a01b031614610761576001546040805163026b1d5f60e01b815290516001600160a01b039092169163026b1d5f916004808201926020929091908290030181865afa15801561071c573d5f803e3d5ffd5b505050506040513d601f19601f820116820180604052508101906107409190612068565b600280546001600160a01b0319166001600160a01b03929092169190911790555b335f908152602460205260409020546001600160a01b0316806107c65761078661120e565b6040516001600160a01b03821681529091507fe759fda21527aab212bc806c6b81b4e16add78b260f71442690c536ba1de40cd9060200160405180910390a15b811561082157806001600160a01b031663de407d8f346040518263ffffffff1660e01b81526004015f604051808303818588803b158015610805575f80fd5b505af1158015610817573d5f803e3d5ffd5b5050505050505050565b505b5050565b60235461086b5760405162461bcd60e51b815260206004820152600e60248201526d3932b13abca82a1d1032b93937b960911b604482015260640160405180910390fd5b6019546040516323b872dd60e01b8152336004820152306024820152604481018390526001600160a01b03909116906323b872dd906064016020604051808303815f875af11580156108bf573d5f803e3d5ffd5b505050506040513d601f19601f820116820180604052508101906108e39190611c34565b50601c546040516370a0823160e01b81523060048201525f916001600160a01b0316906370a0823190602401602060405180830381865afa15801561092a573d5f803e3d5ffd5b505050506040513d601f19601f8201168201806040525081019061094e9190611c1d565b601c5460405163a9059cbb60e01b8152336004820152602481018390529192506001600160a01b03169063a9059cbb906044016020604051808303815f875af115801561099d573d5f803e3d5ffd5b505050506040513d601f19601f820116820180604052508101906108219190611c34565b5f6109ec60405180604001604052806008815260200167039b2b73232b91d160c51b81525033611284565b604080518082018252600b81526a0282a103130b61027ad1d160ad1b6020820152601c5491516370a0823160e01b8152306004820152610a7e926001600160a01b0316906370a08231906024015b602060405180830381865afa158015610a55573d5f803e3d5ffd5b505050506040513d601f19601f82011682018060405250810190610a799190611c1d565b6111c9565b60048054600554601c546040516370a0823160e01b8152309481018590525f946001600160a01b039485169463594a88cc949193918116929116906370a0823190602401602060405180830381865afa158015610add573d5f803e3d5ffd5b505050506040513d601f19601f82011682018060405250810190610b019190611c1d565b604080516080810190915260068054610b2e928a929091829060ff1660038111156102e5576102e5611c4f565b6040516001600160e01b031960e087901b168152610b559493929190600990600401612083565b6060604051808303815f875af1158015610b71573d5f803e3d5ffd5b505050506040513d601f19601f82011682018060405250810190610b95919061203d565b50509050610bd86040518060400160405280601b81526020017f616d6f756e745969656c64546f6b656e4f75742073555344653a200000000000815250826111c9565b604080518082018252601781527f50542062616c206f7a202d20706f737420737761703a200000000000000000006020820152601c5491516370a0823160e01b8152306004820152610c3c926001600160a01b0316906370a0823190602401610a3a565b604080518082018252601981527f55534465206f7a202d20706f73742073776170202d20303a20000000000000006020820152601e5491516370a0823160e01b8152306004820152610ca0926001600160a01b0316906370a0823190602401610a3a565b604080518082018252601e81527f7355534465206f7a202d20706f73742073776170202d206e6f7420303a200000602082015260215491516370a0823160e01b8152306004820152610d04926001600160a01b0316906370a0823190602401610a3a565b610d1b60405180602001604052805f8152506112c9565b604080518082018252601981527f57455448206f7a202d20707265206261746368202d20303a20000000000000006020808301919091525491516370a0823160e01b8152306004820152610d81926001600160a01b0316906370a0823190602401610a3a565b8215610e4b576021546020545f91610da9916001600160a01b0391821691168486600161130f565b9050610de360405180604001604052806016815260200175030b6b7bab73a2a37b5b2b727baba1015151515151d160551b815250826111c9565b604080518082018252601e81527f57455448206f7a202d20706f7374206261746368202d206e6f7420303a2000006020808301919091525491516370a0823160e01b8152306004820152610e49926001600160a01b0316906370a0823190602401610a3a565b505b604080518082018252601e81527f7355534465206f7a202d20706f7374207769746864726177202d20303a200000602082015260215491516370a0823160e01b8152306004820152610eaf926001600160a01b0316906370a0823190602401610a3a565b61064b60405180606001604052806021815260200161276360219139601e546040516370a0823160e01b81523060048201526001600160a01b03909116906370a0823190602401610a3a565b610f2e6040518060c001604052805f81526020015f81526020015f81526020015f81526020015f81526020015f81525090565b6001600160a01b038281165f908152602460208190526040808320546002549151632fe4a15f60e21b815290851660048201819052948493849384938493849392169163bf92857c910160c060405180830381865afa158015610f93573d5f803e3d5ffd5b505050506040513d601f19601f82011682018060405250810190610fb791906120c7565b9550955095509550955095506040518060c00160405280878152602001868152602001610fe386611859565b815260200184815260200183815260200182815250975050505050505050919050565b60405163095ea7b360e01b815273e592427a0aece92de3edee1f18e0157c0586156460048201819052602482018490525f916001600160a01b0388169063095ea7b3906044016020604051808303815f875af1158015611068573d5f803e3d5ffd5b505050506040513d601f19601f8201168201806040525081019061108c9190611c34565b506040805160a081018252601a546bffffffffffffffffffffffff1960608b811b821660c0850152607d60ea1b60d4850181905292811b821660d785015260eb84019290925289821b1660ee830152825180830360e20181526101028301845282526001600160a01b038881166020840152428385015290820187905260808201869052915163c04b8d5960e01b81526101f49284169063c04b8d599061113790849060040161210d565b6020604051808303815f875af1158015611153573d5f803e3d5ffd5b505050506040513d601f19601f820116820180604052508101906111779190611c1d565b93505050505b95945050505050565b61118e611aaf565b506040805160a0810182526001600160a01b03851680825260208201859052918101919091525f6060820152608081018290525b9392505050565b61082382826040516024016111df929190612164565b60408051601f198184030181529190526020810180516001600160e01b03166309710a9d60e41b179052611895565b6025546040515f9182916001600160a01b039091169061122d90611b1c565b6001600160a01b039091168152602001604051809103905ff080158015611256573d5f803e3d5ffd5b50335f90815260246020526040902080546001600160a01b0319166001600160a01b03831617905592915050565b610823828260405160240161129a929190612185565b60408051601f198184030181529190526020810180516001600160e01b031663319af33360e01b179052611895565b61130c816040516024016112dd91906121ae565b60408051601f198184030181529190526020810180516001600160e01b031663104c13eb60e21b179052611895565b50565b5f6113786040805161018081019091525f60c0820181815260e0830182905261010083018290526101208301829052610140830191909152606061016083015281908152606060208201526040015f815260200160608152602001606081526020015f81525090565b60408051608081018252308082525f6020830181905292820152606081019190915283156116fd575f6114235f6015015f9054906101000a90046001600160a01b03166001600160a01b03166338fff2d06040518163ffffffff1660e01b8152600401602060405180830381865afa1580156113f6573d5f803e3d5ffd5b505050506040513d601f19601f8201168201806040525081019061141a9190611c1d565b5f60018a61189e565b6017546040805163038fff2d60e41b815290519293505f9261149f926001600160a01b0316916338fff2d09160048083019260209291908290030181865afa158015611471573d5f803e3d5ffd5b505050506040513d601f19601f820116820180604052508101906114959190611c1d565b600160025f61189e565b604080516002808252606082019092529192505f9190816020015b6114eb6040518060a001604052805f80191681526020015f81526020015f81526020015f8152602001606081525090565b8152602001906001900390816114ba57905050905082815f81518110611513576115136121d4565b60200260200101819052508181600181518110611532576115326121d4565b6020908102919091018101919091528501819052604080516003808252608082019092525f91816020016020820280368337505060215482519293506001600160a01b0316918391505f90611589576115896121d4565b6001600160a01b039283166020918202929092010152601f548251911690829060019081106115ba576115ba6121d4565b6001600160a01b03928316602091820292909201810191909152548251911690829060029081106115ed576115ed6121d4565b6001600160a01b03928316602091820292909201015260608701829052601654604051637c26833760e11b815291169063f84d066e90611637905f90869086908b906004016122be565b5f604051808303815f875af1158015611652573d5f803e3d5ffd5b505050506040513d5f823e601f3d908101601f19168201604052611679919081019061232f565b50604080516003808252608082019092525f91602082016060803683370190505090506001600160ff1b03815f815181106116b6576116b66121d4565b6020026020010181815250506001600160ff1b03816002815181106116dd576116dd6121d4565b6020908102919091010152608087015250505f6040850152506117cc9050565b6040805160c0810180835260155463038fff2d60e41b90915291515f9282916001600160a01b03909116906338fff2d09060c4808501916020918187030181865afa15801561174e573d5f803e3d5ffd5b505050506040513d601f19601f820116820180604052508101906117729190611c1d565b81526020015f81526001600160a01b03808c1660208301528a166040820152606081018990526080015f6040519080825280601f01601f1916602001820160405280156117c6576020820181803683370190505b50905250505b60165460405163095ea7b360e01b81526001600160a01b039182166004820152602481018890529089169063095ea7b3906044016020604051808303815f875af115801561181c573d5f803e3d5ffd5b505050506040513d601f19601f820116820180604052508101906118409190611c34565b5061184d82826001611941565b98975050505050505050565b5f606461187b836127105f60140154600a611874919061240b565b9190611a74565b611885908461241e565b61188f9190612431565b92915050565b61130c81611a8f565b6118cf6040518060a001604052805f80191681526020015f81526020015f81526020015f8152602001606081525090565b6040518060a001604052808681526020018581526020018481526020018381526020015f67ffffffffffffffff81111561190b5761190b6121c0565b6040519080825280601f01601f191660200182016040528015611935576020820181803683370190505b50905295945050505050565b5f81156111c257601654604080860151602087015160608801516080890151935163945bcec960e01b81525f956001600160a01b03169463945bcec994611994949093909290918b914290600401612450565b5f604051808303815f875af11580156119af573d5f803e3d5ffd5b505050506040513d5f823e601f3d908101601f191682016040526119d6919081019061232f565b9050806002815181106119eb576119eb6121d4565b602002602001015173__$5649a79a4e933613092090e5f3465de1d8$__631b5ac4b590916040518263ffffffff1660e01b8152600401611a2d91815260200190565b602060405180830381865af4158015611a48573d5f803e3d5ffd5b505050506040513d601f19601f82011682018060405250810190611a6c9190611c1d565b9150506111c2565b5f825f190484118302158202611a88575f80fd5b5091020490565b80516a636f6e736f6c652e6c6f67602083015f808483855afa5050505050565b6040518060a001604052805f6001600160a01b031681526020015f81526020015f6001600160a01b031681526020015f6001600160a01b03168152602001611b176040805160808101909152805f81525f602082018190526060604083018190529091015290565b905290565b6102578061250c83390190565b6001600160a01b038116811461130c575f80fd5b5f8060408385031215611b4e575f80fd5b823591506020830135611b6081611b29565b809150509250929050565b5f60208284031215611b7b575f80fd5b81356111c281611b29565b801515811461130c575f80fd5b5f8060408385031215611ba4575f80fd5b823591506020830135611b6081611b86565b5f60208284031215611bc6575f80fd5b5035919050565b5f805f8060808587031215611be0575f80fd5b843593506020850135611bf281611b29565b92506040850135611c0281611b29565b91506060850135611c1281611b86565b939692955090935050565b5f60208284031215611c2d575f80fd5b5051919050565b5f60208284031215611c44575f80fd5b81516111c281611b86565b634e487b7160e01b5f52602160045260245ffd5b600181811c90821680611c7757607f821691505b602082108103611c9557634e487b7160e01b5f52602260045260245ffd5b50919050565b6004811061130c5761130c611c4f565b5f81518084525f5b81811015611ccf57602081850181015186830182015201611cb3565b505f602082860101526020601f19601f83011685010191505092915050565b60018060a01b0381511682526020810151602083015260018060a01b03604082015116604083015260018060a01b0360608201511660608301525f608082015160a060808501528051611d4081611c9b565b60a085015260208101516001600160a01b031660c08501526040810151608060e0860152611d72610120860182611cab565b905060608201511515610100860152809250505092915050565b611d9581611c9b565b9052565b80545f90600181811c90821680611db157607f821691505b602082108103611dcf57634e487b7160e01b5f52602260045260245ffd5b81865260208601818015611dea5760018114611e0057611e2c565b60ff198516825283151560051b82019550611e2c565b5f878152602090205f5b85811015611e2657815484820152600190910190602001611e0a565b83019650505b505050505092915050565b5f82825480855260208501945060208160051b830101845f5260205f205f5b83811015611f4957601f19858403018852606083528154606084015260018201546080840152600282015460a08401526003820154611e9b60c0850160ff8316611d8c565b6001600160a01b03600891821c811660e0860152600484015481166101008601526005840154811661012086015260068401541661014085015260078301546101608501528201546101808085019190915260098301546101a08501526101c0840152611f0f6101e08401600a8401611d99565b8381036020850152611f2481600b8501611d99565b600c840154604095909501949094525060209790970196600d90910190600101611e56565b50909695505050505050565b80546001600160a01b031682526001810154602083015260a0604083018190525f90611f8690840160028401611e37565b8381036060850152611f9b8160038501611e37565b90508381036080850152611fb28160048501611d99565b949350505050565b6001600160a01b03878116825286166020820152604081018590528354606082015260018401546080820152600284015460a0820152600384015460c0820152600484015460e082015261014061010082018190525f9061201d90830185611cee565b8281036101208401526120308185611f55565b9998505050505050505050565b5f805f6060848603121561204f575f80fd5b5050815160208301516040909301519094929350919050565b5f60208284031215612078575f80fd5b81516111c281611b29565b6001600160a01b038681168252851660208201526040810184905260a0606082018190525f906120b590830185611cee565b828103608084015261184d8185611f55565b5f805f805f8060c087890312156120dc575f80fd5b50508451602086015160408701516060880151608089015160a090990151939a929950909790965094509092509050565b602081525f825160a0602084015261212860c0840182611cab565b905060018060a01b0360208501511660408401526040840151606084015260608401516080840152608084015160a08401528091505092915050565b604081525f6121766040830185611cab565b90508260208301529392505050565b604081525f6121976040830185611cab565b905060018060a01b03831660208301529392505050565b602081525f6111c26020830184611cab565b634e487b7160e01b5f52604160045260245ffd5b634e487b7160e01b5f52603260045260245ffd5b60028110611d9557611d95611c4f565b5f82825180855260208501945060208160051b830101602085015f5b83811015611f4957601f198584030188528151805184526020810151602085015260408101516040850152606081015160608501526080810151905060a0608085015261226460a0850182611cab565b6020998a0199909450929092019150600101612214565b5f8151808452602084019350602083015f5b828110156122b45781516001600160a01b031686526020958601959091019060010161228d565b5093949350505050565b6122c881866121e8565b60e060208201525f6122dd60e08301866121f8565b82810360408401526122ef818661227b565b91505061117d606083018480516001600160a01b039081168352602080830151151590840152604080830151909116908301526060908101511515910152565b5f6020828403121561233f575f80fd5b815167ffffffffffffffff811115612355575f80fd5b8201601f81018413612365575f80fd5b805167ffffffffffffffff81111561237f5761237f6121c0565b8060051b604051601f19603f830116810181811067ffffffffffffffff821117156123ac576123ac6121c0565b6040529182526020818401810192908101878411156123c9575f80fd5b6020850194505b838510156123ec578451808252602095860195909350016123d0565b509695505050505050565b634e487b7160e01b5f52601160045260245ffd5b8082018082111561188f5761188f6123f7565b8181038181111561188f5761188f6123f7565b5f8261244b57634e487b7160e01b5f52601260045260245ffd5b500490565b61245a81886121e8565b61012060208201525f6124716101208301886121f8565b8281036040840152612483818861227b565b86516001600160a01b03908116606086810191909152602089015115156080870152604089015190911660a0860152870151151560c0850152905082810360e0840152845180825260208087019201905f5b818110156124f35783518352602093840193909201916001016124d5565b5050610100939093019390935250969550505050505056fe6080604052348015600e575f80fd5b50604051610257380380610257833981016040819052602b91604e565b5f80546001600160a01b0319166001600160a01b03929092169190911790556079565b5f60208284031215605d575f80fd5b81516001600160a01b03811681146072575f80fd5b9392505050565b6101d1806100865f395ff3fe608060405260043610610028575f3560e01c80638406c0791461002c578063de407d8f14610066575b5f80fd5b348015610037575f80fd5b505f5461004a906001600160a01b031681565b6040516001600160a01b03909116815260200160405180910390f35b61006e610070565b005b60405163474cf53d60e01b81527387870bca3f3fd6335c3f4ce8392d69350b4fa4e2600482018190523060248301525f604483015273893411580e590d62ddbca8a703d61cc4a8c7b2b991829063474cf53d9034906064015f604051808303818588803b1580156100df575f80fd5b505af11580156100f1573d5f803e3d5ffd5b50505f54604051630c04a8a160e41b81526001600160a01b0390911660048201525f1960248201527372e95b8931767c79ba4eee721354d6e99a61d004935083925063c04a8a1091506044015f604051808303815f87803b158015610154575f80fd5b505af1158015610166573d5f803e3d5ffd5b50506040513492503091507f60ecce3105bf3b202d7a83cd679868ea5fd87b35901b96d3748136fafe323c65905f90a350505056fea26469706673582212204f09b60a4ad56b9a64ffed687fd5a66eedcc18b17abad5c3408c0ee25ba3fb9364736f6c634300081a003355534465206f7a202d20706f7374207769746864726177202d206e6f7420303a20a2646970667358221220b5b0f236c22b177d34cb3b4a7aac08197a6166f2b76851e7ef3b87a42264d5b364736f6c634300081a0033","linkReferences":{"contracts/libraries/HelpersLib.sol":{"HelpersLib":[{"start":6673,"length":20}]}}},"methodIdentifiers":{"borrow(uint256,address)":"4b3fd148","finishBorrow(address)":"4e7896a9","getUserAccountData(address)":"bf92857c","lend(uint256,bool)":"4f52db6b","rebuyPT(uint256)":"5c8abc38","redeem(uint256,address,address,bool)":"be4a0a14"},"id":9}