{"abi":[{"type":"function","name":"borrow","inputs":[{"name":"amount_","type":"uint256","internalType":"uint256"},{"name":"receiver_","type":"address","internalType":"address"}],"outputs":[],"stateMutability":"nonpayable"},{"type":"function","name":"lend","inputs":[{"name":"isETH_","type":"bool","internalType":"bool"}],"outputs":[],"stateMutability":"payable"},{"type":"function","name":"rebuyPT","inputs":[{"name":"amountInUSDC_","type":"uint256","internalType":"uint256"}],"outputs":[],"stateMutability":"nonpayable"},{"type":"function","name":"redeem","inputs":[{"name":"amount_","type":"uint256","internalType":"uint256"},{"name":"receiver_","type":"address","internalType":"address"}],"outputs":[],"stateMutability":"nonpayable"}],"bytecode":{"object":"0x6080604052348015600e575f80fd5b506114668061001c5f395ff3fe60806040526004361061003e575f3560e01c806301a15540146100425780634b3fd148146100575780635c8abc38146100765780637bde82f214610095575b5f80fd5b610055610050366004610df0565b6100b4565b005b348015610062575f80fd5b50610055610071366004610e26565b610199565b348015610081575f80fd5b50610055610090366004610e54565b6104ee565b3480156100a0575f80fd5b506100556100af366004610e26565b610649565b6001546040805163026b1d5f60e01b815290515f926001600160a01b03169163026b1d5f9160048083019260209291908290030181865afa1580156100fb573d5f803e3d5ffd5b505050506040513d601f19601f8201168201806040525081019061011f9190610e6b565b90508115610195575f805460405163474cf53d60e01b81526001600160a01b038481166004830152306024830152604482019390935291169063474cf53d9034906064015f604051808303818588803b15801561017a575f80fd5b505af115801561018c573d5f803e3d5ffd5b50505050505050565b5050565b6001546040805163026b1d5f60e01b815290515f926001600160a01b03169163026b1d5f9160048083019260209291908290030181865afa1580156101e0573d5f803e3d5ffd5b505050506040513d601f19601f820116820180604052508101906102049190610e6b565b60155460025460405163a415bcad60e01b81526001600160a01b0392831660048201526024810187905260448101919091525f606482015230608482015291925082169063a415bcad9060a4015f604051808303815f87803b158015610268575f80fd5b505af115801561027a573d5f803e3d5ffd5b50506015546016546040516370a0823160e01b815230600482018190525f95508594506102ff936001600160a01b0390811693169183906370a0823190602401602060405180830381865afa1580156102d5573d5f803e3d5ffd5b505050506040513d601f19601f820116820180604052508101906102f99190610e86565b86610931565b905061032d6040518060400160405280600a815260200169039aaa9a232a7baba1d160b51b81525082610aaf565b60165460035460405163095ea7b360e01b81526001600160a01b0391821660048201526024810184905291169063095ea7b3906044016020604051808303815f875af115801561037f573d5f803e3d5ffd5b505050506040513d601f19601f820116820180604052508101906103a39190610e9d565b506003546004546016545f9283926001600160a01b039182169263c81f847a9230928116918691600d916103d891168a610af4565b6040516001600160e01b031960e088901b16815261040095949392919060089060040161122f565b6060604051808303815f875af115801561041c573d5f803e3d5ffd5b505050506040513d601f19601f8201168201806040525081019061044091906112a5565b505090506104786040518060400160405280601281526020017103732ba283a27baba10169039aaa9a2329d160751b81525082610aaf565b5f610481610c26565b6018546040516340c10f1960e01b81526001600160a01b038a81166004830152602482018890529293509116906340c10f19906044015f604051808303815f87803b1580156104ce575f80fd5b505af11580156104e0573d5f803e3d5ffd5b505050505050505050505050565b6015546040516323b872dd60e01b8152336004820152306024820152604481018390526001600160a01b03909116906323b872dd906064016020604051808303815f875af1158015610542573d5f803e3d5ffd5b505050506040513d601f19601f820116820180604052508101906105669190610e9d565b506019546040516370a0823160e01b81523060048201525f916001600160a01b0316906370a0823190602401602060405180830381865afa1580156105ad573d5f803e3d5ffd5b505050506040513d601f19601f820116820180604052508101906105d19190610e86565b60195460405163a9059cbb60e01b8152336004820152602481018390529192506001600160a01b03169063a9059cbb906044016020604051808303815f875af1158015610620573d5f803e3d5ffd5b505050506040513d601f19601f820116820180604052508101906106449190610e9d565b505050565b5f80736c9f097e044506712b58eac670c9a5fd4bccef13905061068c60405180604001604052806008815260200167039b2b73232b91d160c51b81525033610cc7565b60408051808201825260168152750282a103130b61037bd1016903839329039bbb0b81d160551b602082015290516370a0823160e01b815230600482015261072891906001600160a01b038416906370a08231906024015b602060405180830381865afa1580156106ff573d5f803e3d5ffd5b505050506040513d601f19601f820116820180604052508101906107239190610e86565b610aaf565b6040805180820182526015815274039aaa9a2329037bd1016903839329039bbb0b81d1605d1b602082015260165491516370a0823160e01b8152306004820152610784926001600160a01b0316906370a08231906024016106e4565b61079b60405180602001604052805f815250610d0c565b6003546004546016545f926001600160a01b039081169263594a88cc923092918216918a916107cb911689610af4565b6040516001600160e01b031960e087901b1681526107f294939291906008906004016112d0565b6060604051808303815f875af115801561080e573d5f803e3d5ffd5b505050506040513d601f19601f8201168201806040525081019061083291906112a5565b5050905061086b6040518060400160405280601381526020017203732ba2a37b5b2b727baba1039aaa9a2329d1606d1b81525082610aaf565b604080518082018252601781527f50542062616c206f7a202d20706f737420737761703a20000000000000000000602082015290516370a0823160e01b81523060048201526108ce91906001600160a01b038516906370a08231906024016106e4565b604080518082018252601680825275039aaa9a2329037bd1016903837b9ba1039bbb0b81d160551b60208301525491516370a0823160e01b815230600482015261092a926001600160a01b0316906370a08231906024016106e4565b5050505050565b60405163095ea7b360e01b815273e592427a0aece92de3edee1f18e0157c0586156460048201819052602482018490525f916001600160a01b0388169063095ea7b3906044016020604051808303815f875af1158015610993573d5f803e3d5ffd5b505050506040513d601f19601f820116820180604052508101906109b79190610e9d565b506040805160a0810182526017546bffffffffffffffffffffffff1960608b811b821660c0850152607d60ea1b60d4850181905292811b821660d785015260eb84019290925289821b1660ee830152825180830360e20181526101028301845282526001600160a01b038881166020840152428385015290820187905260808201869052915163c04b8d5960e01b81526101f49284169063c04b8d5990610a62908490600401611320565b6020604051808303815f875af1158015610a7e573d5f803e3d5ffd5b505050506040513d601f19601f82011682018060405250810190610aa29190610e86565b9998505050505050505050565b6101958282604051602401610ac5929190611377565b60408051601f198184030181529190526020810180516001600160e01b03166309710a9d60e41b179052610d52565b610afc610d76565b6040805160a0810182526001600160a01b03851680825260208201859052818301525f606082015281516080818101909352600580549293840192829060ff166003811115610b4d57610b4d610eb8565b6003811115610b5e57610b5e610eb8565b8152815461010090046001600160a01b03166020820152600182018054604090920191610b8a90610fd6565b80601f0160208091040260200160405190810160405280929190818152602001828054610bb690610fd6565b8015610c015780601f10610bd857610100808354040283529160200191610c01565b820191905f5260205f20905b815481529060010190602001808311610be457829003601f168201915b50505091835250506002919091015460ff161515602090910152905290505b92915050565b6019546040516370a0823160e01b81523060048201525f9182916001600160a01b03909116906370a0823190602401602060405180830381865afa158015610c70573d5f803e3d5ffd5b505050506040513d601f19601f82011682018060405250810190610c949190610e86565b90506101f45f612710610ca784846113ac565b610cb191906113c3565b90505f610cbe82856113e2565b95945050505050565b6101958282604051602401610cdd9291906113f5565b60408051601f198184030181529190526020810180516001600160e01b031663319af33360e01b179052610d52565b610d4f81604051602401610d20919061141e565b60408051601f198184030181529190526020810180516001600160e01b031663104c13eb60e21b179052610d52565b50565b610d4f8180516a636f6e736f6c652e6c6f67602083015f808483855afa5050505050565b6040518060a001604052805f6001600160a01b031681526020015f81526020015f6001600160a01b031681526020015f6001600160a01b03168152602001610dde6040805160808101909152805f81525f602082018190526060604083018190529091015290565b905290565b8015158114610d4f575f80fd5b5f60208284031215610e00575f80fd5b8135610e0b81610de3565b9392505050565b6001600160a01b0381168114610d4f575f80fd5b5f8060408385031215610e37575f80fd5b823591506020830135610e4981610e12565b809150509250929050565b5f60208284031215610e64575f80fd5b5035919050565b5f60208284031215610e7b575f80fd5b8151610e0b81610e12565b5f60208284031215610e96575f80fd5b5051919050565b5f60208284031215610ead575f80fd5b8151610e0b81610de3565b634e487b7160e01b5f52602160045260245ffd5b60048110610d4f57634e487b7160e01b5f52602160045260245ffd5b5f81518084525f5b81811015610f0c57602081850181015186830182015201610ef0565b505f602082860101526020601f19601f83011685010191505092915050565b60018060a01b0381511682526020810151602083015260018060a01b03604082015116604083015260018060a01b0360608201511660608301525f608082015160a060808501528051610f7d81610ecc565b60a085015260208101516001600160a01b031660c08501526040810151608060e0860152610faf610120860182610ee8565b905060608201511515610100860152809250505092915050565b610fd281610ecc565b9052565b600181811c90821680610fea57607f821691505b60208210810361100857634e487b7160e01b5f52602260045260245ffd5b50919050565b80545f90600181811c9082168061102657607f821691505b60208210810361104457634e487b7160e01b5f52602260045260245ffd5b8186526020860181801561105f5760018114611075576110a1565b60ff198516825283151560051b820195506110a1565b5f878152602090205f5b8581101561109b5781548482015260019091019060200161107f565b83019650505b505050505092915050565b5f82825480855260208501945060208160051b830101845f5260205f205f5b838110156111be57601f19858403018852606083528154606084015260018201546080840152600282015460a0840152600382015461111060c0850160ff8316610fc9565b6001600160a01b03600891821c811660e0860152600484015481166101008601526005840154811661012086015260068401541661014085015260078301546101608501528201546101808085019190915260098301546101a08501526101c08401526111846101e08401600a840161100e565b838103602085015261119981600b850161100e565b600c840154604095909501949094525060209790970196600d909101906001016110cb565b50909695505050505050565b80546001600160a01b031682526001810154602083015260a0604083018190525f906111fb908401600284016110ac565b838103606085015261121081600385016110ac565b90508381036080850152611227816004850161100e565b949350505050565b6001600160a01b03878116825286166020820152604081018590528354606082015260018401546080820152600284015460a0820152600384015460c0820152600484015460e082015261014061010082018190525f9061129290830185610f2b565b828103610120840152610aa281856111ca565b5f805f606084860312156112b7575f80fd5b5050815160208301516040909301519094929350919050565b6001600160a01b038681168252851660208201526040810184905260a0606082018190525f9061130290830185610f2b565b828103608084015261131481856111ca565b98975050505050505050565b602081525f825160a0602084015261133b60c0840182610ee8565b905060018060a01b0360208501511660408401526040840151606084015260608401516080840152608084015160a08401528091505092915050565b604081525f6113896040830185610ee8565b90508260208301529392505050565b634e487b7160e01b5f52601160045260245ffd5b8082028115828204841417610c2057610c20611398565b5f826113dd57634e487b7160e01b5f52601260045260245ffd5b500490565b81810381811115610c2057610c20611398565b604081525f6114076040830185610ee8565b905060018060a01b03831660208301529392505050565b602081525f610e0b6020830184610ee856fea2646970667358221220e5b010e252a0ccb3967d05e84353075cb583e177c5ddf7e128aa66898422718964736f6c634300081a0033","linkReferences":{}},"methodIdentifiers":{"borrow(uint256,address)":"4b3fd148","lend(bool)":"01a15540","rebuyPT(uint256)":"5c8abc38","redeem(uint256,address)":"7bde82f2"},"id":7}