{"abi":[{"type":"function","name":"sayHello","inputs":[],"outputs":[{"name":"","type":"uint256","internalType":"uint256"}],"stateMutability":"pure"}],"bytecode":{"object":"0x6080604052348015600e575f80fd5b50607480601a5f395ff3fe6080604052348015600e575f80fd5b50600436106026575f3560e01c8063ef5fb05b14602a575b5f80fd5b600360405190815260200160405180910390f3fea2646970667358221220246b5fa97f4956dd79ceb69b60c59101fee2b3df1113f6f1265ee1ff0ba8b57564736f6c634300081a0033","linkReferences":{}},"methodIdentifiers":{"sayHello()":"ef5fb05b"},"id":6}