{"abi":[{"type":"function","name":"borrow","inputs":[{"name":"amount_","type":"uint256","internalType":"uint256"},{"name":"receiver_","type":"address","internalType":"address"}],"outputs":[],"stateMutability":"nonpayable"},{"type":"function","name":"getUserAccountData","inputs":[{"name":"user_","type":"address","internalType":"address"}],"outputs":[{"name":"userData","type":"tuple","internalType":"struct UserAccountData","components":[{"name":"totalCollateralBase","type":"uint256","internalType":"uint256"},{"name":"totalDebtBase","type":"uint256","internalType":"uint256"},{"name":"availableBorrowsBase","type":"uint256","internalType":"uint256"},{"name":"currentLiquidationThreshold","type":"uint256","internalType":"uint256"},{"name":"ltv","type":"uint256","internalType":"uint256"},{"name":"healthFactor","type":"uint256","internalType":"uint256"}]}],"stateMutability":"view"},{"type":"function","name":"lend","inputs":[{"name":"amountIn_","type":"uint256","internalType":"uint256"},{"name":"tokenIn_","type":"address","internalType":"address"},{"name":"isETH_","type":"bool","internalType":"bool"}],"outputs":[],"stateMutability":"payable"},{"type":"function","name":"performRedemption","inputs":[{"name":"amount_","type":"uint256","internalType":"uint256"},{"name":"minAmountOut_","type":"uint256","internalType":"uint256"},{"name":"owner_","type":"address","internalType":"address"},{"name":"receiver_","type":"address","internalType":"address"},{"name":"token_","type":"uint8","internalType":"enum Tokens"}],"outputs":[{"name":"","type":"uint256","internalType":"uint256"}],"stateMutability":"nonpayable"},{"type":"event","name":"NewAccountCreated","inputs":[{"name":"account","type":"address","indexed":false,"internalType":"address"}],"anonymous":false},{"type":"error","name":"OZError01","inputs":[{"name":"tokenIn","type":"address","internalType":"address"}]}],"bytecode":{"object":"0x6080604052348015600e575f80fd5b50611ecc8061001c5f395ff3fe60806040526004361061003e575f3560e01c80631ce6399b146100425780634b3fd14814610057578063bf92857c14610076578063f4771c70146100e9575b5f80fd5b610055610050366004611391565b610116565b005b348015610062575f80fd5b506100556100713660046113d0565b610394565b348015610081575f80fd5b506100956100903660046113fe565b61074c565b6040516100e091905f60c082019050825182526020830151602083015260408301516040830152606083015160608301526080830151608083015260a083015160a083015292915050565b60405180910390f35b3480156100f4575f80fd5b50610108610103366004611420565b610858565b6040519081526020016100e0565b6002546001546040805163026b1d5f60e01b815290516001600160a01b03938416939092169163026b1d5f916004808201926020929091908290030181865afa158015610165573d5f803e3d5ffd5b505050506040513d601f19601f82011682018060405250810190610189919061147e565b6001600160a01b031614610224576001546040805163026b1d5f60e01b815290516001600160a01b039092169163026b1d5f916004808201926020929091908290030181865afa1580156101df573d5f803e3d5ffd5b505050506040513d601f19601f82011682018060405250810190610203919061147e565b600280546001600160a01b0319166001600160a01b03929092169190911790555b34831461026d5760405162461bcd60e51b8152602060048201526012602482015271383aba10309031bab9ba37b69032b93937b960711b60448201526064015b60405180910390fd5b6001600160a01b0382165f908152610127602052604090205460ff166102b1576040516331d3c70960e11b81526001600160a01b0383166004820152602401610264565b335f90815261012560205260409020546001600160a01b031680610317576102d7610b28565b6040516001600160a01b03821681529091507fe759fda21527aab212bc806c6b81b4e16add78b260f71442690c536ba1de40cd9060200160405180910390a15b806001600160a01b03166318546f1283610331575f610333565b345b6040516001600160e01b031960e084901b168152600481018890526001600160a01b03871660248201526044015f604051808303818588803b158015610377575f80fd5b505af1158015610389573d5f803e3d5ffd5b505050505050505050565b335f908152610125602052604080822054610126549151631375877960e31b8152600481018690526001600160a01b0385811660248301529182166044820181905293929190911690639bac3bc8906064016020604051808303815f875af1158015610402573d5f803e3d5ffd5b505050506040513d601f19601f820116820180604052508101906104269190611499565b61011754610122549192505f91829161044e916001600160a01b039182169116308685610bbd565b610122546004805460405163095ea7b360e01b81526001600160a01b03918216928101929092526024820184905292935091169063095ea7b3906044016020604051808303815f875af11580156104a7573d5f803e3d5ffd5b505050506040513d601f19601f820116820180604052508101906104cb91906114b0565b506004546005546040805160808101909152600680545f9485946001600160a01b039182169463c81f847a94309492909316928792600e92610601928c92829060ff16600381111561051f5761051f6114cb565b6003811115610530576105306114cb565b8152815461010090046001600160a01b0316602082015260018201805460409092019161055c906114df565b80601f0160208091040260200160405190810160405280929190818152602001828054610588906114df565b80156105d35780601f106105aa576101008083540402835291602001916105d3565b820191905f5260205f20905b8154815290600101906020018083116105b657829003601f168201915b50505091835250506002919091015460ff161515602090910152610122546001600160a01b03169190610cef565b6040516001600160e01b031960e088901b168152610629959493929190600990600401611842565b6060604051808303815f875af1158015610645573d5f803e3d5ffd5b505050506040513d601f19601f8201168201806040525081019061066991906118c5565b505061011b546040516370a0823160e01b81526001600160a01b0389811660048301529293505f92909116906370a0823190602401602060405180830381865afa1580156106b9573d5f803e3d5ffd5b505050506040513d601f19601f820116820180604052508101906106dd9190611499565b610119546040516340c10f1960e01b81526001600160a01b038b81166004830152602482018490529293509116906340c10f19906044015f604051808303815f87803b15801561072b575f80fd5b505af115801561073d573d5f803e3d5ffd5b50505050505050505050505050565b61077f6040518060c001604052805f81526020015f81526020015f81526020015f81526020015f81526020015f81525090565b6001600160a01b038281165f9081526101256020526040808220546002549151632fe4a15f60e21b815290841660048201819052938392839283928392839291169063bf92857c9060240160c060405180830381865afa1580156107e5573d5f803e3d5ffd5b505050506040513d601f19601f8201168201806040525081019061080991906118f0565b9550955095509550955095506040518060c0016040528087815260200186815260200161083586610d2d565b815260200184815260200183815260200182815250975050505050505050919050565b6004805460055461011a546040516370a0823160e01b8152309481018590525f9485946001600160a01b039081169463594a88cc9492939082169291909116906370a0823190602401602060405180830381865afa1580156108bc573d5f803e3d5ffd5b505050506040513d601f19601f820116820180604052508101906108e09190611499565b60408051608081019091526006805461090d928e929091829060ff16600381111561051f5761051f6114cb565b6040516001600160e01b031960e087901b1681526109349493929190600990600401611936565b6060604051808303815f875af1158015610950573d5f803e3d5ffd5b505050506040513d601f19601f8201168201806040525081019061097491906118c5565b509091506008905083600881111561098e5761098e6114cb565b03610a10576101225460405163a9059cbb60e01b81526001600160a01b038681166004830152602482018490529091169063a9059cbb906044016020604051808303815f875af11580156109e4573d5f803e3d5ffd5b505050506040513d601f19601f82011682018060405250810190610a0891906114b0565b509050610b1f565b5f610a1a84610d69565b6101225460185460405163095ea7b360e01b81526001600160a01b03918216600482015260248101869052929350169063095ea7b3906044016020604051808303815f875af1158015610a6f573d5f803e3d5ffd5b505050506040513d601f19601f82011682018060405250810190610a9391906114b0565b5060185481516020830151604080850151905163c872a3c560e01b81525f946001600160a01b03169363c872a3c593610ad9939192909189918f91908e906004016119b7565b6020604051808303815f875af1158015610af5573d5f803e3d5ffd5b505050506040513d601f19601f82011682018060405250810190610b199190611499565b93505050505b95945050505050565b610126545f8054600254604051929384936001600160a01b039182169382169290911690610b559061125c565b6001600160a01b03938416815291831660208301529091166040820152606001604051809103905ff080158015610b8e573d5f803e3d5ffd5b50335f9081526101256020526040902080546001600160a01b0319166001600160a01b03831617905592915050565b60405163095ea7b360e01b815273e592427a0aece92de3edee1f18e0157c0586156460048201819052602482018490525f916001600160a01b0388169063095ea7b3906044016020604051808303815f875af1158015610c1f573d5f803e3d5ffd5b505050506040513d601f19601f82011682018060405250810190610c4391906114b0565b506040805160a081018252610118546bffffffffffffffffffffffff1960608b811b821660c0850152607d60ea1b60d4850181905292811b821660d785015260eb84019290925289821b1660ee830152825180830360e20181526101028301845282526001600160a01b038881166020840152428385015290820187905260808201869052915163c04b8d5960e01b81526101f49284169063c04b8d5990610ad9908490600401611a73565b610cf7611269565b506040805160a0810182526001600160a01b039490941680855260208501939093528301919091525f6060830152608082015290565b5f6064610d4f836127105f60140154600a610d489190611ade565b9190611241565b610d599084611af1565b610d639190611b04565b92915050565b610d716112d6565b6005826008811115610d8557610d856114cb565b03610e8257604080516101c081019091526020816060810182600b8282826020028201915b81546001600160a01b03168152600190910190602001808311610daa5750505091835250506040805160a08101909152602090910190600b830160055f835b82821015610e30576040805160a081019182905290600584810287019182845b815481526020019060010190808311610e0957505050505081526020019060010190610de9565b505050908252506040805160a081019182905260209092019190602484019060059082845b81546001600160a01b03168152600190910190602001808311610e55575050505050815250509050919050565b6006826008811115610e9657610e966114cb565b03610f4157604080516101c081019091526049816060810182600b8282826020028201915b81546001600160a01b03168152600190910190602001808311610ebb5750505091835250506040805160a08101909152602090910190600b830160055f835b82821015610e30576040805160a081019182905290600584810287019182845b815481526020019060010190808311610f1a57505050505081526020019060010190610efa565b6003826008811115610f5557610f556114cb565b0361100057604080516101c081019091526072816060810182600b8282826020028201915b81546001600160a01b03168152600190910190602001808311610f7a5750505091835250506040805160a08101909152602090910190600b830160055f835b82821015610e30576040805160a081019182905290600584810287019182845b815481526020019060010190808311610fd957505050505081526020019060010190610fb9565b6002826008811115611014576110146114cb565b036110bf57604080516101c08101909152609b816060810182600b8282826020028201915b81546001600160a01b031681526001909101906020018083116110395750505091835250506040805160a08101909152602090910190600b830160055f835b82821015610e30576040805160a081019182905290600584810287019182845b81548152602001906001019080831161109857505050505081526020019060010190611078565b5f8260088111156110d2576110d26114cb565b0361117d57604080516101c0810190915260c4816060810182600b8282826020028201915b81546001600160a01b031681526001909101906020018083116110f75750505091835250506040805160a08101909152602090910190600b830160055f835b82821015610e30576040805160a081019182905290600584810287019182845b81548152602001906001019080831161115657505050505081526020019060010190611136565b6007826008811115611191576111916114cb565b0361123c57604080516101c0810190915260ed816060810182600b8282826020028201915b81546001600160a01b031681526001909101906020018083116111b65750505091835250506040805160a08101909152602090910190600b830160055f835b82821015610e30576040805160a081019182905290600584810287019182845b815481526020019060010190808311611215575050505050815260200190600101906111f5565b919050565b5f825f190484118302158202611255575f80fd5b5091020490565b61037380611b2483390190565b6040518060a001604052805f6001600160a01b031681526020015f81526020015f6001600160a01b031681526020015f6001600160a01b031681526020016112d16040805160808101909152805f81525f602082018190526060604083018190529091015290565b905290565b60405180606001604052806112e9611303565b81526020016112f6611322565b81526020016112d161134f565b604051806101600160405280600b906020820280368337509192915050565b6040518060a001604052806005905b61133961134f565b8152602001906001900390816113315790505090565b6040518060a001604052806005906020820280368337509192915050565b6001600160a01b0381168114611381575f80fd5b50565b8015158114611381575f80fd5b5f805f606084860312156113a3575f80fd5b8335925060208401356113b58161136d565b915060408401356113c581611384565b809150509250925092565b5f80604083850312156113e1575f80fd5b8235915060208301356113f38161136d565b809150509250929050565b5f6020828403121561140e575f80fd5b81356114198161136d565b9392505050565b5f805f805f60a08688031215611434575f80fd5b8535945060208601359350604086013561144d8161136d565b9250606086013561145d8161136d565b9150608086013560098110611470575f80fd5b809150509295509295909350565b5f6020828403121561148e575f80fd5b81516114198161136d565b5f602082840312156114a9575f80fd5b5051919050565b5f602082840312156114c0575f80fd5b815161141981611384565b634e487b7160e01b5f52602160045260245ffd5b600181811c908216806114f357607f821691505b60208210810361151157634e487b7160e01b5f52602260045260245ffd5b50919050565b6004811061138157634e487b7160e01b5f52602160045260245ffd5b5f81518084525f5b818110156115575760208185018101518683018201520161153b565b505f602082860101526020601f19601f83011685010191505092915050565b60018060a01b0381511682526020810151602083015260018060a01b03604082015116604083015260018060a01b0360608201511660608301525f608082015160a0608085015280516115c881611517565b60a085015260208101516001600160a01b031660c08501526040810151608060e08601526115fa610120860182611533565b905060608201511515610100860152809250505092915050565b61161d81611517565b9052565b80545f90600181811c9082168061163957607f821691505b60208210810361165757634e487b7160e01b5f52602260045260245ffd5b818652602086018180156116725760018114611688576116b4565b60ff198516825283151560051b820195506116b4565b5f878152602090205f5b858110156116ae57815484820152600190910190602001611692565b83019650505b505050505092915050565b5f82825480855260208501945060208160051b830101845f5260205f205f5b838110156117d157601f19858403018852606083528154606084015260018201546080840152600282015460a0840152600382015461172360c0850160ff8316611614565b6001600160a01b03600891821c811660e0860152600484015481166101008601526005840154811661012086015260068401541661014085015260078301546101608501528201546101808085019190915260098301546101a08501526101c08401526117976101e08401600a8401611621565b83810360208501526117ac81600b8501611621565b600c840154604095909501949094525060209790970196600d909101906001016116de565b50909695505050505050565b80546001600160a01b031682526001810154602083015260a0604083018190525f9061180e908401600284016116bf565b838103606085015261182381600385016116bf565b9050838103608085015261183a8160048501611621565b949350505050565b6001600160a01b03878116825286166020820152604081018590528354606082015260018401546080820152600284015460a0820152600384015460c0820152600484015460e082015261014061010082018190525f906118a590830185611576565b8281036101208401526118b881856117dd565b9998505050505050505050565b5f805f606084860312156118d7575f80fd5b5050815160208301516040909301519094929350919050565b5f805f805f8060c08789031215611905575f80fd5b50508451602086015160408701516060880151608089015160a090990151939a929950909790965094509092509050565b6001600160a01b038681168252851660208201526040810184905260a0606082018190525f9061196890830185611576565b828103608084015261197a81856117dd565b98975050505050505050565b805f5b60058110156119b15781516001600160a01b0316845260209384019390910190600101611989565b50505050565b610580810181885f5b600b8110156119e85781516001600160a01b03168352602092830192909101906001016119c0565b5050506101608201875f5b6005811015611a39578151835f5b6005811015611a20578251825260209283019290910190600101611a01565b50505060a09290920191602091909101906001016119f3565b50505085610480830152846104a0830152611a586104c0830185611986565b6001600160a01b038316610560830152979650505050505050565b602081525f825160a06020840152611a8e60c0840182611533565b905060018060a01b0360208501511660408401526040840151606084015260608401516080840152608084015160a08401528091505092915050565b634e487b7160e01b5f52601160045260245ffd5b80820180821115610d6357610d63611aca565b81810381811115610d6357610d63611aca565b5f82611b1e57634e487b7160e01b5f52601260045260245ffd5b50049056fe6080604052348015600e575f80fd5b50604051610373380380610373833981016040819052602b916085565b5f80546001600160a01b039485166001600160a01b03199182161790915560018054938516938216939093179092556002805491909316911617905560be565b80516001600160a01b03811681146080575f80fd5b919050565b5f805f606084860312156096575f80fd5b609d84606b565b925060a960208501606b565b915060b560408501606b565b90509250925092565b6102a8806100cb5f395ff3fe608060405260043610610028575f3560e01c806318546f121461002c5780638406c07914610041575b5f80fd5b61003f61003a366004610239565b61007b565b005b34801561004c575f80fd5b505f5461005f906001600160a01b031681565b6040516001600160a01b03909116815260200160405180910390f35b73eeeeeeeeeeeeeeeeeeeeeeeeeeeeeeeeeeeeeeee73eeeeeeeeeeeeeeeeeeeeeeeeeeeeeeeeeeeeeeed196001600160a01b038316016101255760015460025460405163474cf53d60e01b81526001600160a01b0391821660048201523060248201525f604482015291169063474cf53d9034906064015f604051808303818588803b158015610109575f80fd5b505af115801561011b573d5f803e3d5ffd5b5050505050610193565b60025460405163617ba03760e01b81526001600160a01b038481166004830152602482018690523060448301525f60648301529091169063617ba037906084015f604051808303815f87803b15801561017c575f80fd5b505af115801561018e573d5f803e3d5ffd5b505050505b5f54604051630c04a8a160e41b81526001600160a01b0390911660048201525f1960248201527372e95b8931767c79ba4eee721354d6e99a61d00490819063c04a8a10906044015f604051808303815f87803b1580156101f1575f80fd5b505af1158015610203573d5f803e3d5ffd5b50506040513492503091507f60ecce3105bf3b202d7a83cd679868ea5fd87b35901b96d3748136fafe323c65905f90a350505050565b5f806040838503121561024a575f80fd5b8235915060208301356001600160a01b0381168114610267575f80fd5b80915050925092905056fea26469706673582212206a3cfcc6e3f52f512defa5f7725f7ca5b885db95750f56d24ad245d50cd41eab64736f6c634300081a0033a26469706673582212209d6c24d7d3e403ec8c95b47041b95d1fa2825f35e4bce7d6b3d11ca22f4e61d164736f6c634300081a0033","linkReferences":{}},"methodIdentifiers":{"borrow(uint256,address)":"4b3fd148","getUserAccountData(address)":"bf92857c","lend(uint256,address,bool)":"1ce6399b","performRedemption(uint256,uint256,address,address,uint8)":"f4771c70"},"id":10}