{"abi":[{"type":"function","name":"borrow","inputs":[{"name":"amountToBorrow_","type":"uint256","internalType":"uint256"},{"name":"borrowedToken_","type":"address","internalType":"address"},{"name":"receiver_","type":"address","internalType":"address"}],"outputs":[],"stateMutability":"nonpayable"},{"type":"function","name":"borrow2","inputs":[{"name":"amount_","type":"uint256","internalType":"uint256"},{"name":"receiver_","type":"address","internalType":"address"}],"outputs":[],"stateMutability":"nonpayable"},{"type":"function","name":"lend","inputs":[{"name":"amountIn_","type":"uint256","internalType":"uint256"},{"name":"tokenIn_","type":"address","internalType":"address"},{"name":"receiver_","type":"address","internalType":"address"}],"outputs":[{"name":"","type":"uint256","internalType":"uint256"}],"stateMutability":"payable"},{"type":"function","name":"lend2","inputs":[{"name":"amountIn_","type":"uint256","internalType":"uint256"},{"name":"tokenIn_","type":"address","internalType":"address"}],"outputs":[],"stateMutability":"payable"},{"type":"function","name":"performRedemption","inputs":[{"name":"amount_","type":"uint256","internalType":"uint256"},{"name":"minAmountOut_","type":"uint256","internalType":"uint256"},{"name":"owner_","type":"address","internalType":"address"},{"name":"receiver_","type":"address","internalType":"address"},{"name":"token_","type":"uint8","internalType":"enum Tokens"}],"outputs":[{"name":"","type":"uint256","internalType":"uint256"}],"stateMutability":"nonpayable"},{"type":"event","name":"NewAccountCreated","inputs":[{"name":"account","type":"address","indexed":false,"internalType":"address"}],"anonymous":false},{"type":"event","name":"NewAccountDataState","inputs":[{"name":"totalCollateralBase","type":"uint256","indexed":false,"internalType":"uint256"},{"name":"ltv","type":"uint16","indexed":false,"internalType":"uint16"},{"name":"currentLiquidationThreshold","type":"uint256","indexed":false,"internalType":"uint256"},{"name":"healthFactor","type":"uint256","indexed":false,"internalType":"uint256"}],"anonymous":false},{"type":"error","name":"OZError01","inputs":[{"name":"tokenIn","type":"address","internalType":"address"}]},{"type":"error","name":"OZError02","inputs":[{"name":"amountIn","type":"uint256","internalType":"uint256"},{"name":"msgValue","type":"uint256","internalType":"uint256"}]}],"bytecode":{"object":"0x6080604052348015600e575f80fd5b506131f58061001c5f395ff3fe608060405260043610610049575f3560e01c806379a72c5e1461004d578063c4b1810c14610062578063cd290a3f14610081578063d5164184146100a6578063f4771c70146100c5575b5f80fd5b61006061005b366004611873565b6100e4565b005b34801561006d575f80fd5b5061006061007c366004611873565b6103e0565b61009461008f3660046118a1565b61079f565b60405190815260200160405180910390f35b3480156100b1575f80fd5b506100606100c03660046118a1565b505050565b3480156100d0575f80fd5b506100946100df3660046118e0565b610bc1565b6002546001546040805163026b1d5f60e01b815290516001600160a01b03938416939092169163026b1d5f916004808201926020929091908290030181865afa158015610133573d5f803e3d5ffd5b505050506040513d601f19601f82011682018060405250810190610157919061193e565b6001600160a01b0316146101f2576001546040805163026b1d5f60e01b815290516001600160a01b039092169163026b1d5f916004808201926020929091908290030181865afa1580156101ad573d5f803e3d5ffd5b505050506040513d601f19601f820116820180604052508101906101d1919061193e565b600280546001600160a01b0319166001600160a01b03929092169190911790555b610129546001600160a01b039081169082160361023757348214610237576040516378feddbd60e11b8152600481018390523460248201526044015b60405180910390fd5b6001600160a01b0381165f908152610128602052604090205460ff1661027b576040516331d3c70960e11b81526001600160a01b038216600482015260240161022e565b335f90815261012660205260408120546001600160a01b0316806102e1576102a1610e8c565b6040516001600160a01b03821681529091507fe759fda21527aab212bc806c6b81b4e16add78b260f71442690c536ba1de40cd9060200160405180910390a15b610129546001600160a01b03848116911614610376576040516323b872dd60e01b81523360048201526001600160a01b038281166024830152604482018690528416906323b872dd906064016020604051808303815f875af1158015610349573d5f803e3d5ffd5b505050506040513d601f19601f8201168201806040525081019061036d9190611960565b505f915061037a565b3491505b604051630c2a378960e11b8152600481018590526001600160a01b0384811660248301528216906318546f129084906044015f604051808303818588803b1580156103c3575f80fd5b505af11580156103d5573d5f803e3d5ffd5b505050505050505050565b335f90815261012660205260409081902054610127549151631375877960e31b8152600481018590526001600160a01b03848116602483015291821660448201819052929190911690639bac3bc8906064015f604051808303815f87803b158015610449575f80fd5b505af115801561045b573d5f803e3d5ffd5b505061011854610123545f9350839250610484916001600160a01b039081169116308885610f16565b6101235460055460405163095ea7b360e01b81526001600160a01b03918216600482015260248101849052929350169063095ea7b3906044016020604051808303815f875af11580156104d9573d5f803e3d5ffd5b505050506040513d601f19601f820116820180604052508101906104fd9190611960565b505f6105216040518060600160405280602d8152602001613193602d91398361106e565b6005546006546040805160808101909152600780545f946001600160a01b039081169463c81f847a94309492909116928892600f92610655928c9290829060ff1660038111156105735761057361197f565b60038111156105845761058461197f565b8152815461010090046001600160a01b031660208201526001820180546040909201916105b090611993565b80601f01602080910402602001604051908101604052809291908181526020018280546105dc90611993565b80156106275780601f106105fe57610100808354040283529160200191610627565b820191905f5260205f20905b81548152906001019060200180831161060a57829003601f168201915b50505091835250506002919091015460ff161515602090910152610123546001600160a01b031691906110b7565b6040516001600160e01b031960e088901b16815261067d959493929190600a90600401611cf6565b6060604051808303815f875af1158015610699573d5f803e3d5ffd5b505050506040513d601f19601f820116820180604052508101906106bd9190611d79565b505061011c546040516370a0823160e01b81526001600160a01b0388811660048301529293505f92909116906370a0823190602401602060405180830381865afa15801561070d573d5f803e3d5ffd5b505050506040513d601f19601f820116820180604052508101906107319190611da4565b61011a546040516340c10f1960e01b81526001600160a01b038a81166004830152602482018490529293509116906340c10f19906044015f604051808303815f87803b15801561077f575f80fd5b505af1158015610791573d5f803e3d5ffd5b505050505050505050505050565b6002546001546040805163026b1d5f60e01b815290515f936001600160a01b0390811693169163026b1d5f9160048083019260209291908290030181865afa1580156107ed573d5f803e3d5ffd5b505050506040513d601f19601f82011682018060405250810190610811919061193e565b6001600160a01b0316146108ac576001546040805163026b1d5f60e01b815290516001600160a01b039092169163026b1d5f916004808201926020929091908290030181865afa158015610867573d5f803e3d5ffd5b505050506040513d601f19601f8201168201806040525081019061088b919061193e565b600280546001600160a01b0319166001600160a01b03929092169190911790555b610129546001600160a01b03908116908416036108ec573484146108ec576040516378feddbd60e11b81526004810185905234602482015260440161022e565b6001600160a01b0383165f908152610128602052604090205460ff16610930576040516331d3c70960e11b81526001600160a01b038416600482015260240161022e565b335f90815261012b60205260408120546001600160a01b031680610a0f5761012754610129545f546002546004546040516001600160a01b0395861695948516949384169392831692909116906109869061174e565b6001600160a01b0395861681529385166020850152918416604084015283166060830152909116608082015260a001604051809103905ff0801580156109ce573d5f803e3d5ffd5b506040516001600160a01b03821681529091507fe759fda21527aab212bc806c6b81b4e16add78b260f71442690c536ba1de40cd9060200160405180910390a15b610129546001600160a01b03868116911614610aa4576040516323b872dd60e01b81523360048201526001600160a01b038281166024830152604482018890528616906323b872dd906064016020604051808303815f875af1158015610a77573d5f803e3d5ffd5b505050506040513d601f19601f82011682018060405250810190610a9b9190611960565b505f9150610aa8565b3491505b610ab4853383896110f5565b6040516305df7eb960e41b8152600481018790526001600160a01b038281166024830181905290871660448301525f91635df7eb90906064016020604051808303815f875af1158015610b09573d5f803e3d5ffd5b505050506040513d601f19601f82011682018060405250810190610b2d9190611da4565b6001600160a01b038781165f9081526101306020526040808220549051636e553f6560e01b8152600481018c905289841660248201529394509092911690636e553f65906044016020604051808303815f875af1158015610b90573d5f803e3d5ffd5b505050506040513d601f19601f82011682018060405250810190610bb49190611da4565b5090979650505050505050565b60055460065461011b546040516370a0823160e01b815230600482018190525f9485946001600160a01b039182169463594a88cc949183169216906370a0823190602401602060405180830381865afa158015610c20573d5f803e3d5ffd5b505050506040513d601f19601f82011682018060405250810190610c449190611da4565b604080516080810190915260078054610c71928e929091829060ff1660038111156105735761057361197f565b6040516001600160e01b031960e087901b168152610c989493929190600a90600401611dbb565b6060604051808303815f875af1158015610cb4573d5f803e3d5ffd5b505050506040513d601f19601f82011682018060405250810190610cd89190611d79565b5090915060089050836008811115610cf257610cf261197f565b03610d74576101235460405163a9059cbb60e01b81526001600160a01b038681166004830152602482018490529091169063a9059cbb906044016020604051808303815f875af1158015610d48573d5f803e3d5ffd5b505050506040513d601f19601f82011682018060405250810190610d6c9190611960565b509050610e83565b5f610d7e8461120c565b6101235460195460405163095ea7b360e01b81526001600160a01b03918216600482015260248101869052929350169063095ea7b3906044016020604051808303815f875af1158015610dd3573d5f803e3d5ffd5b505050506040513d601f19601f82011682018060405250810190610df79190611960565b5060195481516020830151604080850151905163c872a3c560e01b81525f946001600160a01b03169363c872a3c593610e3d939192909189918f91908e90600401611e3c565b6020604051808303815f875af1158015610e59573d5f803e3d5ffd5b505050506040513d601f19601f82011682018060405250810190610e7d9190611da4565b93505050505b95945050505050565b61012754610129545f8054600254600454604051939586956001600160a01b03918216959082169482169382169290911690610ec79061174e565b6001600160a01b0395861681529385166020850152918416604084015283166060830152909116608082015260a001604051809103905ff080158015610f0f573d5f803e3d5ffd5b5092915050565b5f610f3d604051806040016040528060058152602001643432b9329960d91b8152506116e4565b60405163095ea7b360e01b815273e592427a0aece92de3edee1f18e0157c058615646004820181905260248201859052906001600160a01b0388169063095ea7b3906044016020604051808303815f875af1158015610f9e573d5f803e3d5ffd5b505050506040513d601f19601f82011682018060405250810190610fc29190611960565b506040805160a081018252610119546bffffffffffffffffffffffff1960608b811b821660c0850152607d60ea1b60d4850181905292811b821660d785015260eb84019290925289821b1660ee830152825180830360e20181526101028301845282526001600160a01b038881166020840152428385015290820187905260808201869052915163c04b8d5960e01b81526101f49284169063c04b8d5990610e3d908490600401611ef8565b6110b38282604051602401611084929190611f4f565b60408051601f198184030181529190526020810180516001600160e01b03166309710a9d60e41b17905261172a565b5050565b6110bf61175b565b506040805160a0810182526001600160a01b039490941680855260208501939093528301919091525f6060830152608082015290565b6001600160a01b038084165f90815261012b602052604090206101185490919081169086160361116e575f805261012e6020527f05487a880b40ff61e5c065c22c3608319ddddfc383570aaf3e5899db942a555e805460058301805461ffff191661ffff92831617905590546201000090041660048201555b80546001600160a01b0319166001600160a01b0384161781556001810180548391905f9061119d908490611f70565b90915550505f19600682018190556001820154600583015460048401546040805193845261ffff90921660208401529082015260608101919091527f6b8a80184eceb209da613b8fd90b442cf999caaef46ae1ff870ae3cfda2cad739060800160405180910390a15050505050565b6112146117c8565b60058260088111156112285761122861197f565b0361132557604080516101c081019091526021816060810182600b8282826020028201915b81546001600160a01b0316815260019091019060200180831161124d5750505091835250506040805160a08101909152602090910190600b830160055f835b828210156112d3576040805160a081019182905290600584810287019182845b8154815260200190600101908083116112ac5750505050508152602001906001019061128c565b505050908252506040805160a081019182905260209092019190602484019060059082845b81546001600160a01b031681526001909101906020018083116112f8575050505050815250509050919050565b60068260088111156113395761133961197f565b036113e457604080516101c08101909152604a816060810182600b8282826020028201915b81546001600160a01b0316815260019091019060200180831161135e5750505091835250506040805160a08101909152602090910190600b830160055f835b828210156112d3576040805160a081019182905290600584810287019182845b8154815260200190600101908083116113bd5750505050508152602001906001019061139d565b60038260088111156113f8576113f861197f565b036114a357604080516101c081019091526073816060810182600b8282826020028201915b81546001600160a01b0316815260019091019060200180831161141d5750505091835250506040805160a08101909152602090910190600b830160055f835b828210156112d3576040805160a081019182905290600584810287019182845b81548152602001906001019080831161147c5750505050508152602001906001019061145c565b60028260088111156114b7576114b761197f565b0361156257604080516101c08101909152609c816060810182600b8282826020028201915b81546001600160a01b031681526001909101906020018083116114dc5750505091835250506040805160a08101909152602090910190600b830160055f835b828210156112d3576040805160a081019182905290600584810287019182845b81548152602001906001019080831161153b5750505050508152602001906001019061151b565b5f8260088111156115755761157561197f565b0361162057604080516101c0810190915260c5816060810182600b8282826020028201915b81546001600160a01b0316815260019091019060200180831161159a5750505091835250506040805160a08101909152602090910190600b830160055f835b828210156112d3576040805160a081019182905290600584810287019182845b8154815260200190600101908083116115f9575050505050815260200190600101906115d9565b60078260088111156116345761163461197f565b036116df57604080516101c0810190915260ee816060810182600b8282826020028201915b81546001600160a01b031681526001909101906020018083116116595750505091835250506040805160a08101909152602090910190600b830160055f835b828210156112d3576040805160a081019182905290600584810287019182845b8154815260200190600101908083116116b857505050505081526020019060010190611698565b919050565b611727816040516024016116f89190611f95565b60408051601f198184030181529190526020810180516001600160e01b031663104c13eb60e21b17905261172a565b50565b6117278180516a636f6e736f6c652e6c6f67602083015f808483855afa5050505050565b6111eb80611fa883390190565b6040518060a001604052805f6001600160a01b031681526020015f81526020015f6001600160a01b031681526020015f6001600160a01b031681526020016117c36040805160808101909152805f81525f602082018190526060604083018190529091015290565b905290565b60405180606001604052806117db6117f5565b81526020016117e8611814565b81526020016117c3611841565b604051806101600160405280600b906020820280368337509192915050565b6040518060a001604052806005905b61182b611841565b8152602001906001900390816118235790505090565b6040518060a001604052806005906020820280368337509192915050565b6001600160a01b0381168114611727575f80fd5b5f8060408385031215611884575f80fd5b8235915060208301356118968161185f565b809150509250929050565b5f805f606084860312156118b3575f80fd5b8335925060208401356118c58161185f565b915060408401356118d58161185f565b809150509250925092565b5f805f805f60a086880312156118f4575f80fd5b8535945060208601359350604086013561190d8161185f565b9250606086013561191d8161185f565b9150608086013560098110611930575f80fd5b809150509295509295909350565b5f6020828403121561194e575f80fd5b81516119598161185f565b9392505050565b5f60208284031215611970575f80fd5b81518015158114611959575f80fd5b634e487b7160e01b5f52602160045260245ffd5b600181811c908216806119a757607f821691505b6020821081036119c557634e487b7160e01b5f52602260045260245ffd5b50919050565b6004811061172757634e487b7160e01b5f52602160045260245ffd5b5f81518084525f5b81811015611a0b576020818501810151868301820152016119ef565b505f602082860101526020601f19601f83011685010191505092915050565b60018060a01b0381511682526020810151602083015260018060a01b03604082015116604083015260018060a01b0360608201511660608301525f608082015160a060808501528051611a7c816119cb565b60a085015260208101516001600160a01b031660c08501526040810151608060e0860152611aae6101208601826119e7565b905060608201511515610100860152809250505092915050565b611ad1816119cb565b9052565b80545f90600181811c90821680611aed57607f821691505b602082108103611b0b57634e487b7160e01b5f52602260045260245ffd5b81865260208601818015611b265760018114611b3c57611b68565b60ff198516825283151560051b82019550611b68565b5f878152602090205f5b85811015611b6257815484820152600190910190602001611b46565b83019650505b505050505092915050565b5f82825480855260208501945060208160051b830101845f5260205f205f5b83811015611c8557601f19858403018852606083528154606084015260018201546080840152600282015460a08401526003820154611bd760c0850160ff8316611ac8565b6001600160a01b03600891821c811660e0860152600484015481166101008601526005840154811661012086015260068401541661014085015260078301546101608501528201546101808085019190915260098301546101a08501526101c0840152611c4b6101e08401600a8401611ad5565b8381036020850152611c6081600b8501611ad5565b600c840154604095909501949094525060209790970196600d90910190600101611b92565b50909695505050505050565b80546001600160a01b031682526001810154602083015260a0604083018190525f90611cc290840160028401611b73565b8381036060850152611cd78160038501611b73565b90508381036080850152611cee8160048501611ad5565b949350505050565b6001600160a01b03878116825286166020820152604081018590528354606082015260018401546080820152600284015460a0820152600384015460c0820152600484015460e082015261014061010082018190525f90611d5990830185611a2a565b828103610120840152611d6c8185611c91565b9998505050505050505050565b5f805f60608486031215611d8b575f80fd5b5050815160208301516040909301519094929350919050565b5f60208284031215611db4575f80fd5b5051919050565b6001600160a01b038681168252851660208201526040810184905260a0606082018190525f90611ded90830185611a2a565b8281036080840152611dff8185611c91565b98975050505050505050565b805f5b6005811015611e365781516001600160a01b0316845260209384019390910190600101611e0e565b50505050565b610580810181885f5b600b811015611e6d5781516001600160a01b0316835260209283019290910190600101611e45565b5050506101608201875f5b6005811015611ebe578151835f5b6005811015611ea5578251825260209283019290910190600101611e86565b50505060a0929092019160209190910190600101611e78565b50505085610480830152846104a0830152611edd6104c0830185611e0b565b6001600160a01b038316610560830152979650505050505050565b602081525f825160a06020840152611f1360c08401826119e7565b905060018060a01b0360208501511660408401526040840151606084015260608401516080840152608084015160a08401528091505092915050565b604081525f611f6160408301856119e7565b90508260208301529392505050565b80820180821115611f8f57634e487b7160e01b5f52601160045260245ffd5b92915050565b602081525f61195960208301846119e756fe6101206040525f60808190525f1960a081905260c082905261010060e0819052655af3107a4000808252600584905560069290925560079290925560089190915560095534801561004e575f80fd5b506040516111eb3803806111eb83398101604081905261006d916100e9565b5f80546001600160a01b03199081166001600160a01b0397881617909155600180548216958716959095179094556002805485169386169390931790925560038054841691851691909117905560048054909216921691909117905561014a565b80516001600160a01b03811681146100e4575f80fd5b919050565b5f805f805f60a086880312156100fd575f80fd5b610106866100ce565b9450610114602087016100ce565b9350610122604087016100ce565b9250610130606087016100ce565b915061013e608087016100ce565b90509295509295909350565b611094806101575f395ff3fe60806040526004361061008f575f3560e01c80638406c079116100575780638406c0791461016757806389a3027114610185578063c54e44eb146101ac578063dc38a179146101d3578063e0d05d39146101f2575f80fd5b806318546f1214610093578063206aeab3146100a85780634920cfea146100ec5780635df7eb901461011357806382092a7f14610140575b5f80fd5b6100a66100a1366004610afc565b610219565b005b3480156100b3575f80fd5b506100cf73888888888889758f76e7103c6cbf23abbf58f94681565b6040516001600160a01b0390911681526020015b60405180910390f35b3480156100f7575f80fd5b506100cf73d1d7d99764f8a52aff007b7831cc02748b2013b581565b34801561011e575f80fd5b5061013261012d366004610b26565b610421565b6040519081526020016100e3565b34801561014b575f80fd5b506100cf736c9f097e044506712b58eac670c9a5fd4bccef1381565b348015610172575f80fd5b505f546100cf906001600160a01b031681565b348015610190575f80fd5b506100cf73a0b86991c6218b36c1d19d4a2e9eb0ce3606eb4881565b3480156101b7575f80fd5b506100cf73dac17f958d2ee523a2206206994597c13d831ec781565b3480156101de575f80fd5b506101326101ed366004610b26565b6106dc565b3480156101fd575f80fd5b506100cf739d39a5de30e57443bff2a8307a4256c8797a349781565b6001546001600160a01b039081169082160361029f5760025460035460405163474cf53d60e01b81526001600160a01b0391821660048201523060248201525f604482015291169063474cf53d9034906064015f604051808303818588803b158015610283575f80fd5b505af1158015610295573d5f803e3d5ffd5b5050505050610382565b60035460405163095ea7b360e01b81526001600160a01b039182166004820152602481018490529082169063095ea7b3906044016020604051808303815f875af11580156102ef573d5f803e3d5ffd5b505050506040513d601f19601f820116820180604052508101906103139190610b5f565b5060035460405163617ba03760e01b81526001600160a01b038381166004830152602482018590523060448301525f60648301529091169063617ba037906084015f604051808303815f87803b15801561036b575f80fd5b505af115801561037d573d5f803e3d5ffd5b505050505b600480545f54604051630c04a8a160e41b81526001600160a01b03918216938101939093525f196024840152169063c04a8a10906044015f604051808303815f87803b1580156103d0575f80fd5b505af11580156103e2573d5f803e3d5ffd5b50506040518492506001600160a01b038416915030907f75134c5a30206e01639de7bebafb4f915e3e6cef465a59b1424e26ea3c9faeb7905f90a45050565b5f808073a0b86991c6218b36c1d19d4a2e9eb0ce3606eb47196001600160a01b038516016104815761047e73a0b86991c6218b36c1d19d4a2e9eb0ce3606eb48739d39a5de30e57443bff2a8307a4256c8797a34978789856108aa565b91505b60405163095ea7b360e01b815273888888888889758f76e7103c6cbf23abbf58f946600482015260248101839052739d39a5de30e57443bff2a8307a4256c8797a34979063095ea7b3906044016020604051808303815f875af11580156104ea573d5f803e3d5ffd5b505050506040513d601f19601f8201168201806040525081019061050e9190610b5f565b505f8073888888888889758f76e7103c6cbf23abbf58f9466001600160a01b031663c81f847a8873d1d7d99764f8a52aff007b7831cc02748b2013b585600561066a8a600a6040518060800160405290815f82015f9054906101000a900460ff16600381111561058057610580610b85565b600381111561059157610591610b85565b8152815461010090046001600160a01b031660208201526001820180546040909201916105bd90610b99565b80601f01602080910402602001604051908101604052809291908181526020018280546105e990610b99565b80156106345780601f1061060b57610100808354040283529160200191610634565b820191905f5260205f20905b81548152906001019060200180831161061757829003601f168201915b50505091835250506002919091015460ff161515602090910152739d39a5de30e57443bff2a8307a4256c8797a34979190610a36565b600d6040518763ffffffff1660e01b815260040161068d96959493929190610eff565b6060604051808303815f875af11580156106a9573d5f803e3d5ffd5b505050506040513d601f19601f820116820180604052508101906106cd9190610f75565b50909998505050505050505050565b60405163095ea7b360e01b815273888888888889758f76e7103c6cbf23abbf58f9466004820152602481018490525f90736c9f097e044506712b58eac670c9a5fd4bccef139063095ea7b3906044016020604051808303815f875af1158015610747573d5f803e3d5ffd5b505050506040513d601f19601f8201168201806040525081019061076b9190610b5f565b505f808073888888888889758f76e7103c6cbf23abbf58f9466001600160a01b031663594a88cc3073d1d7d99764f8a52aff007b7831cc02748b2013b58a6107dc88600a6040518060800160405290815f82015f9054906101000a900460ff16600381111561058057610580610b85565b600d6040518663ffffffff1660e01b81526004016107fe959493929190610fa0565b6060604051808303815f875af115801561081a573d5f803e3d5ffd5b505050506040513d601f19601f8201168201806040525081019061083e9190610f75565b509091505073a0b86991c6218b36c1d19d4a2e9eb0ce3606eb47196001600160a01b038716016108a05761089d739d39a5de30e57443bff2a8307a4256c8797a349773a0b86991c6218b36c1d19d4a2e9eb0ce3606eb488784876108aa565b91505b5050509392505050565b60405163095ea7b360e01b815273e592427a0aece92de3edee1f18e0157c0586156460048201819052602482018490525f916001600160a01b0388169063095ea7b3906044016020604051808303815f875af115801561090c573d5f803e3d5ffd5b505050506040513d601f19601f820116820180604052508101906109309190610b5f565b506040805160a081018252606089811b6bffffffffffffffffffffffff1990811660c0840152607d60ea1b60d4840181905273dac17f958d2ee523a2206206994597c13d831ec760601b60d785015260eb84015289821b1660ee830152825160e28184030181526101028301845282526001600160a01b038089166020840152428385015290820187905260808201869052915163c04b8d5960e01b81526101f49284169063c04b8d59906109e9908490600401610ff0565b6020604051808303815f875af1158015610a05573d5f803e3d5ffd5b505050506040513d601f19601f82011682018060405250810190610a299190611047565b9998505050505050505050565b610a3e610a74565b506040805160a0810182526001600160a01b039490941680855260208501939093528301919091525f6060830152608082015290565b6040518060a001604052805f6001600160a01b031681526020015f81526020015f6001600160a01b031681526020015f6001600160a01b03168152602001610adc6040805160808101909152805f81525f602082018190526060604083018190529091015290565b905290565b80356001600160a01b0381168114610af7575f80fd5b919050565b5f8060408385031215610b0d575f80fd5b82359150610b1d60208401610ae1565b90509250929050565b5f805f60608486031215610b38575f80fd5b83359250610b4860208501610ae1565b9150610b5660408501610ae1565b90509250925092565b5f60208284031215610b6f575f80fd5b81518015158114610b7e575f80fd5b9392505050565b634e487b7160e01b5f52602160045260245ffd5b600181811c90821680610bad57607f821691505b602082108103610bcb57634e487b7160e01b5f52602260045260245ffd5b50919050565b60048110610bed57634e487b7160e01b5f52602160045260245ffd5b50565b5f81518084525f5b81811015610c1457602081850181015186830182015201610bf8565b505f602082860101526020601f19601f83011685010191505092915050565b60018060a01b0381511682526020810151602083015260018060a01b03604082015116604083015260018060a01b0360608201511660608301525f608082015160a060808501528051610c8581610bd1565b60a085015260208101516001600160a01b031660c08501526040810151608060e0860152610cb7610120860182610bf0565b905060608201511515610100860152809250505092915050565b610cda81610bd1565b9052565b80545f90600181811c90821680610cf657607f821691505b602082108103610d1457634e487b7160e01b5f52602260045260245ffd5b81865260208601818015610d2f5760018114610d4557610d71565b60ff198516825283151560051b82019550610d71565b5f878152602090205f5b85811015610d6b57815484820152600190910190602001610d4f565b83019650505b505050505092915050565b5f82825480855260208501945060208160051b830101845f5260205f205f5b83811015610e8e57601f19858403018852606083528154606084015260018201546080840152600282015460a08401526003820154610de060c0850160ff8316610cd1565b6001600160a01b03600891821c811660e0860152600484015481166101008601526005840154811661012086015260068401541661014085015260078301546101608501528201546101808085019190915260098301546101a08501526101c0840152610e546101e08401600a8401610cde565b8381036020850152610e6981600b8501610cde565b600c840154604095909501949094525060209790970196600d90910190600101610d9b565b50909695505050505050565b80546001600160a01b031682526001810154602083015260a0604083018190525f90610ecb90840160028401610d7c565b8381036060850152610ee08160038501610d7c565b90508381036080850152610ef78160048501610cde565b949350505050565b6001600160a01b03878116825286166020820152604081018590528354606082015260018401546080820152600284015460a0820152600384015460c0820152600484015460e082015261014061010082018190525f90610f6290830185610c33565b828103610120840152610a298185610e9a565b5f805f60608486031215610f87575f80fd5b5050815160208301516040909301519094929350919050565b6001600160a01b038681168252851660208201526040810184905260a0606082018190525f90610fd290830185610c33565b8281036080840152610fe48185610e9a565b98975050505050505050565b602081525f825160a0602084015261100b60c0840182610bf0565b905060018060a01b0360208501511660408401526040840151606084015260608401516080840152608084015160a08401528091505092915050565b5f60208284031215611057575f80fd5b505191905056fea2646970667358221220e9a1a71a03652dc8146edee54bc553582953434d7796d0528165cc3ec345804764736f6c634300081a003373555344654f7574206265696e67207377617070656420666f72205054202d20696e20626f72726f7728293a20a264697066735822122097e27eac6db37efed92f0b16518d7deda662cfda83f3e6f934d9a61689b0c47264736f6c634300081a0033","linkReferences":{}},"methodIdentifiers":{"borrow(uint256,address,address)":"d5164184","borrow2(uint256,address)":"c4b1810c","lend(uint256,address,address)":"cd290a3f","lend2(uint256,address)":"79a72c5e","performRedemption(uint256,uint256,address,address,uint8)":"f4771c70"},"id":13}