{"abi":[{"type":"function","name":"borrow","inputs":[{"name":"amount_","type":"uint256","internalType":"uint256"}],"outputs":[],"stateMutability":"nonpayable"},{"type":"function","name":"defaultApprox","inputs":[],"outputs":[{"name":"guessMin","type":"uint256","internalType":"uint256"},{"name":"guessMax","type":"uint256","internalType":"uint256"},{"name":"guessOffchain","type":"uint256","internalType":"uint256"},{"name":"maxIteration","type":"uint256","internalType":"uint256"},{"name":"eps","type":"uint256","internalType":"uint256"}],"stateMutability":"view"},{"type":"function","name":"do_swap","inputs":[],"outputs":[],"stateMutability":"nonpayable"},{"type":"function","name":"emptyLimit","inputs":[],"outputs":[{"name":"limitRouter","type":"address","internalType":"address"},{"name":"epsSkipMarket","type":"uint256","internalType":"uint256"},{"name":"optData","type":"bytes","internalType":"bytes"}],"stateMutability":"view"},{"type":"function","name":"emptySwap","inputs":[],"outputs":[{"name":"swapType","type":"uint8","internalType":"enum SwapType"},{"name":"extRouter","type":"address","internalType":"address"},{"name":"extCalldata","type":"bytes","internalType":"bytes"},{"name":"needScale","type":"bool","internalType":"bool"}],"stateMutability":"view"},{"type":"function","name":"lend","inputs":[{"name":"isETH_","type":"bool","internalType":"bool"}],"outputs":[],"stateMutability":"payable"}],"bytecode":{"object":"0x6101206040525f60808190525f1960a081905260c082905261010060e0819052655af3107a40008082526011849055601292909255601392909255601491909155601555348015604d575f80fd5b506112868061005b5f395ff3fe608060405260043610610054575f3560e01c806301a155401461005857806309316dd31461006d5780634ebfc81414610099578063c5ebeaec146100e7578063e629c16014610106578063f66a77491461011a575b5f80fd5b61006b610066366004610c08565b61013e565b005b348015610078575f80fd5b5061008161026d565b60405161009093929190610c6d565b60405180910390f35b3480156100a4575f80fd5b506011546012546013546014546015546100bf949392919085565b604080519586526020860194909452928401919091526060830152608082015260a001610090565b3480156100f2575f80fd5b5061006b610101366004610c9c565b610310565b348015610111575f80fd5b5061006b610679565b348015610125575f80fd5b5061012e610780565b6040516100909493929190610ce3565b60408051808201909152601a81527f61617665506f6f6c50726f766964657220696e206c656e643a20000000000000602082015260015461018891906001600160a01b0316610832565b6001546040805163026b1d5f60e01b815290515f926001600160a01b03169163026b1d5f9160048083019260209291908290030181865afa1580156101cf573d5f803e3d5ffd5b505050506040513d601f19601f820116820180604052508101906101f39190610d28565b90508115610269575f805460405163474cf53d60e01b81526001600160a01b038481166004830152306024830152604482019390935291169063474cf53d9034906064015f604051808303818588803b15801561024e575f80fd5b505af1158015610260573d5f803e3d5ffd5b50505050505050565b5050565b600c8054600d54601080546001600160a01b0390931693919261028f90610d4e565b80601f01602080910402602001604051908101604052809291908181526020018280546102bb90610d4e565b80156103065780601f106102dd57610100808354040283529160200191610306565b820191905f5260205f20905b8154815290600101906020018083116102e957829003601f168201915b5050505050905083565b6001546040805163026b1d5f60e01b815290515f926001600160a01b03169163026b1d5f9160048083019260209291908290030181865afa158015610357573d5f803e3d5ffd5b505050506040513d601f19601f8201168201806040525081019061037b9190610d28565b60065460025460405163a415bcad60e01b81526001600160a01b0392831660048201526024810186905260448101919091525f606482015230608482015291925082169063a415bcad9060a4015f604051808303815f87803b1580156103df575f80fd5b505af11580156103f1573d5f803e3d5ffd5b50506006546007546040516370a0823160e01b815230600482018190525f9550859450610476936001600160a01b0390811693169183906370a0823190602401602060405180830381865afa15801561044c573d5f803e3d5ffd5b505050506040513d601f19601f820116820180604052508101906104709190610d86565b86610877565b905061049a60405180606001604052806024815260200161122d60249139826109f5565b604080518082018252600b81526a039aaa9a232903130b61d160ad1b602082015260075491516370a0823160e01b815230600482015261052b926001600160a01b0316906370a0823190602401602060405180830381865afa158015610502573d5f803e3d5ffd5b505050506040513d601f19601f820116820180604052508101906105269190610d86565b6109f5565b60075460035460405163095ea7b360e01b81526001600160a01b0391821660048201526024810184905291169063095ea7b3906044016020604051808303815f875af115801561057d573d5f803e3d5ffd5b505050506040513d601f19601f820116820180604052508101906105a19190610d9d565b506003546004546007545f9283926001600160a01b039182169263c81f847a92309281169186916011916105d691168a610a3a565b600c6040518763ffffffff1660e01b81526004016105f996959493929190611084565b6060604051808303815f875af1158015610615573d5f803e3d5ffd5b505050506040513d601f19601f8201168201806040525081019061063991906110fa565b505090506106716040518060400160405280601281526020017103732ba283a27baba10169039aaa9a2329d160751b815250826109f5565b505050505050565b6003546004546040805160a0810182525f8082525f1960208301529181018290526101006060820152655af3107a4000608082015260075491936001600160a01b039081169363c81f847a933093918316928792916106e29116683635c9adc5dea00000610a3a565b600c6040518763ffffffff1660e01b815260040161070596959493929190611125565b6060604051808303815f875af1158015610721573d5f803e3d5ffd5b505050506040513d601f19601f8201168201806040525081019061074591906110fa565b5050905061077d6040518060400160405280601281526020017103732ba283a27baba10169039aaa9a2329d160751b815250826109f5565b50565b60098054600a805460ff8316936101009093046001600160a01b03169291906107a890610d4e565b80601f01602080910402602001604051908101604052809291908181526020018280546107d490610d4e565b801561081f5780601f106107f65761010080835404028352916020019161081f565b820191905f5260205f20905b81548152906001019060200180831161080257829003601f168201915b5050506002909301549192505060ff1684565b610269828260405160240161084892919061118b565b60408051601f198184030181529190526020810180516001600160e01b031663319af33360e01b179052610b6a565b60405163095ea7b360e01b815273e592427a0aece92de3edee1f18e0157c0586156460048201819052602482018490525f916001600160a01b0388169063095ea7b3906044016020604051808303815f875af11580156108d9573d5f803e3d5ffd5b505050506040513d601f19601f820116820180604052508101906108fd9190610d9d565b506040805160a0810182526008546bffffffffffffffffffffffff1960608b811b821660c0850152607d60ea1b60d4850181905292811b821660d785015260eb84019290925289821b1660ee830152825180830360e20181526101028301845282526001600160a01b038881166020840152428385015290820187905260808201869052915163c04b8d5960e01b81526101f49284169063c04b8d59906109a89084906004016111b4565b6020604051808303815f875af11580156109c4573d5f803e3d5ffd5b505050506040513d601f19601f820116820180604052508101906109e89190610d86565b9998505050505050505050565b6102698282604051602401610a0b92919061120b565b60408051601f198184030181529190526020810180516001600160e01b03166309710a9d60e41b179052610b6a565b610a42610b8e565b6040805160a0810182526001600160a01b03851680825260208201859052818301525f606082015281516080818101909352600980549293840192829060ff166003811115610a9357610a93610cb3565b6003811115610aa457610aa4610cb3565b8152815461010090046001600160a01b03166020820152600182018054604090920191610ad090610d4e565b80601f0160208091040260200160405190810160405280929190818152602001828054610afc90610d4e565b8015610b475780601f10610b1e57610100808354040283529160200191610b47565b820191905f5260205f20905b815481529060010190602001808311610b2a57829003601f168201915b50505091835250506002919091015460ff16151560209091015290529392505050565b61077d8180516a636f6e736f6c652e6c6f67602083015f808483855afa5050505050565b6040518060a001604052805f6001600160a01b031681526020015f81526020015f6001600160a01b031681526020015f6001600160a01b03168152602001610bf66040805160808101909152805f81525f602082018190526060604083018190529091015290565b905290565b801515811461077d575f80fd5b5f60208284031215610c18575f80fd5b8135610c2381610bfb565b9392505050565b5f81518084525f5b81811015610c4e57602081850181015186830182015201610c32565b505f602082860101526020601f19601f83011685010191505092915050565b60018060a01b0384168152826020820152606060408201525f610c936060830184610c2a565b95945050505050565b5f60208284031215610cac575f80fd5b5035919050565b634e487b7160e01b5f52602160045260245ffd5b6004811061077d57634e487b7160e01b5f52602160045260245ffd5b610cec85610cc7565b8481526001600160a01b03841660208201526080604082018190525f90610d1590830185610c2a565b9050821515606083015295945050505050565b5f60208284031215610d38575f80fd5b81516001600160a01b0381168114610c23575f80fd5b600181811c90821680610d6257607f821691505b602082108103610d8057634e487b7160e01b5f52602260045260245ffd5b50919050565b5f60208284031215610d96575f80fd5b5051919050565b5f60208284031215610dad575f80fd5b8151610c2381610bfb565b60018060a01b0381511682526020810151602083015260018060a01b03604082015116604083015260018060a01b0360608201511660608301525f608082015160a060808501528051610e0a81610cc7565b60a085015260208101516001600160a01b031660c08501526040810151608060e0860152610e3c610120860182610c2a565b905060608201511515610100860152809250505092915050565b610e5f81610cc7565b9052565b80545f90600181811c90821680610e7b57607f821691505b602082108103610e9957634e487b7160e01b5f52602260045260245ffd5b81865260208601818015610eb45760018114610eca57610ef6565b60ff198516825283151560051b82019550610ef6565b5f878152602090205f5b85811015610ef057815484820152600190910190602001610ed4565b83019650505b505050505092915050565b5f82825480855260208501945060208160051b830101845f5260205f205f5b8381101561101357601f19858403018852606083528154606084015260018201546080840152600282015460a08401526003820154610f6560c0850160ff8316610e56565b6001600160a01b03600891821c811660e0860152600484015481166101008601526005840154811661012086015260068401541661014085015260078301546101608501528201546101808085019190915260098301546101a08501526101c0840152610fd96101e08401600a8401610e63565b8381036020850152610fee81600b8501610e63565b600c840154604095909501949094525060209790970196600d90910190600101610f20565b50909695505050505050565b80546001600160a01b031682526001810154602083015260a0604083018190525f9061105090840160028401610f01565b83810360608501526110658160038501610f01565b9050838103608085015261107c8160048501610e63565b949350505050565b6001600160a01b03878116825286166020820152604081018590528354606082015260018401546080820152600284015460a0820152600384015460c0820152600484015460e082015261014061010082018190525f906110e790830185610db8565b8281036101208401526109e8818561101f565b5f805f6060848603121561110c575f80fd5b5050815160208301516040909301519094929350919050565b60018060a01b038716815260018060a01b03861660208201528460408201528351606082015260208401516080820152604084015160a0820152606084015160c0820152608084015160e08201526101406101008201525f6110e7610140830185610db8565b604081525f61119d6040830185610c2a565b905060018060a01b03831660208301529392505050565b602081525f825160a060208401526111cf60c0840182610c2a565b905060018060a01b0360208501511660408401526040840151606084015260608401516080840152608084015160a08401528091505092915050565b604081525f61121d6040830185610c2a565b9050826020830152939250505056fe73555344654f757420696e20626f72726f77202d2061667465722073776170556e693a20a26469706673582212206a9b68810084e47d0ad41e0bae03c041845a660cebda242537d230762c04b96364736f6c634300081a0033","linkReferences":{}},"methodIdentifiers":{"borrow(uint256)":"c5ebeaec","defaultApprox()":"4ebfc814","do_swap()":"e629c160","emptyLimit()":"09316dd3","emptySwap()":"f66a7749","lend(bool)":"01a15540"},"id":7}