{"abi":[{"type":"function","name":"borrow","inputs":[{"name":"amount_","type":"uint256","internalType":"uint256"},{"name":"receiver_","type":"address","internalType":"address"}],"outputs":[],"stateMutability":"nonpayable"},{"type":"function","name":"lend","inputs":[{"name":"amountIn_","type":"uint256","internalType":"uint256"},{"name":"tokenIn_","type":"address","internalType":"address"},{"name":"receiver_","type":"address","internalType":"address"}],"outputs":[{"name":"","type":"uint256","internalType":"uint256"}],"stateMutability":"payable"},{"type":"function","name":"lend2","inputs":[{"name":"amountIn_","type":"uint256","internalType":"uint256"},{"name":"tokenIn_","type":"address","internalType":"address"}],"outputs":[],"stateMutability":"payable"},{"type":"function","name":"performRedemption","inputs":[{"name":"amount_","type":"uint256","internalType":"uint256"},{"name":"minAmountOut_","type":"uint256","internalType":"uint256"},{"name":"owner_","type":"address","internalType":"address"},{"name":"receiver_","type":"address","internalType":"address"},{"name":"token_","type":"uint8","internalType":"enum Tokens"}],"outputs":[{"name":"","type":"uint256","internalType":"uint256"}],"stateMutability":"nonpayable"},{"type":"event","name":"NewAccountCreated","inputs":[{"name":"account","type":"address","indexed":false,"internalType":"address"}],"anonymous":false},{"type":"event","name":"NewAccountDataState","inputs":[{"name":"totalCollateralBase","type":"uint256","indexed":false,"internalType":"uint256"},{"name":"ltv","type":"uint16","indexed":false,"internalType":"uint16"},{"name":"currentLiquidationThreshold","type":"uint256","indexed":false,"internalType":"uint256"},{"name":"healthFactor","type":"uint256","indexed":false,"internalType":"uint256"}],"anonymous":false},{"type":"error","name":"OZError01","inputs":[{"name":"tokenIn","type":"address","internalType":"address"}]},{"type":"error","name":"OZError02","inputs":[{"name":"amountIn","type":"uint256","internalType":"uint256"},{"name":"msgValue","type":"uint256","internalType":"uint256"}]}],"bytecode":{"object":"0x6080604052348015600e575f80fd5b50613ebd8061001c5f395ff3fe60806040526004361061003e575f3560e01c80634b3fd1481461004257806379a72c5e14610063578063cd290a3f14610076578063f4771c701461009b575b5f80fd5b34801561004d575f80fd5b5061006161005c3660046119d0565b6100ba565b005b6100616100713660046119d0565b6104b5565b6100896100843660046119fe565b6107b1565b60405190815260200160405180910390f35b3480156100a6575f80fd5b506100896100b5366004611a3d565b610d3d565b335f90815261012660205260409081902054610127549151631375877960e31b8152600481018590526001600160a01b03848116602483015291821660448201819052929190911690639bac3bc8906064015f604051808303815f87803b158015610123575f80fd5b505af1158015610135573d5f803e3d5ffd5b505061011854610123545f935083925061015e916001600160a01b039081169116308885611008565b6101235460055460405163095ea7b360e01b81526001600160a01b03918216600482015260248101849052929350169063095ea7b3906044016020604051808303815f875af11580156101b3573d5f803e3d5ffd5b505050506040513d601f19601f820116820180604052508101906101d79190611a9b565b505f6101fb6040518060600160405280602d8152602001613e5b602d91398361113a565b6005546006546040805160808101909152600780545f946001600160a01b039081169463c81f847a94309492909116928892600f9261032f928c9290829060ff16600381111561024d5761024d611ac1565b600381111561025e5761025e611ac1565b8152815461010090046001600160a01b0316602082015260018201805460409092019161028a90611ad5565b80601f01602080910402602001604051908101604052809291908181526020018280546102b690611ad5565b80156103015780601f106102d857610100808354040283529160200191610301565b820191905f5260205f20905b8154815290600101906020018083116102e457829003601f168201915b50505091835250506002919091015460ff161515602090910152610123546001600160a01b03169190611183565b6040516001600160e01b031960e088901b168152610357959493929190600a90600401611e38565b6060604051808303815f875af1158015610373573d5f803e3d5ffd5b505050506040513d601f19601f820116820180604052508101906103979190611ebb565b505090506103da6040518060400160405280601881526020017f6e657450744f757420616674657220505420737761703a2000000000000000008152508261113a565b61011c546040516370a0823160e01b81526001600160a01b0387811660048301525f9216906370a0823190602401602060405180830381865afa158015610423573d5f803e3d5ffd5b505050506040513d601f19601f820116820180604052508101906104479190611ee6565b61011a546040516340c10f1960e01b81526001600160a01b038a81166004830152602482018490529293509116906340c10f19906044015f604051808303815f87803b158015610495575f80fd5b505af11580156104a7573d5f803e3d5ffd5b505050505050505050505050565b6002546001546040805163026b1d5f60e01b815290516001600160a01b03938416939092169163026b1d5f916004808201926020929091908290030181865afa158015610504573d5f803e3d5ffd5b505050506040513d601f19601f820116820180604052508101906105289190611efd565b6001600160a01b0316146105c3576001546040805163026b1d5f60e01b815290516001600160a01b039092169163026b1d5f916004808201926020929091908290030181865afa15801561057e573d5f803e3d5ffd5b505050506040513d601f19601f820116820180604052508101906105a29190611efd565b600280546001600160a01b0319166001600160a01b03929092169190911790555b610129546001600160a01b039081169082160361060857348214610608576040516378feddbd60e11b8152600481018390523460248201526044015b60405180910390fd5b6001600160a01b0381165f908152610128602052604090205460ff1661064c576040516331d3c70960e11b81526001600160a01b03821660048201526024016105ff565b335f90815261012660205260408120546001600160a01b0316806106b2576106726111c1565b6040516001600160a01b03821681529091507fe759fda21527aab212bc806c6b81b4e16add78b260f71442690c536ba1de40cd9060200160405180910390a15b610129546001600160a01b03848116911614610747576040516323b872dd60e01b81523360048201526001600160a01b038281166024830152604482018690528416906323b872dd906064016020604051808303815f875af115801561071a573d5f803e3d5ffd5b505050506040513d601f19601f8201168201806040525081019061073e9190611a9b565b505f915061074b565b3491505b604051630c2a378960e11b8152600481018590526001600160a01b0384811660248301528216906318546f129084906044015f604051808303818588803b158015610794575f80fd5b505af11580156107a6573d5f803e3d5ffd5b505050505050505050565b6002546001546040805163026b1d5f60e01b815290515f936001600160a01b0390811693169163026b1d5f9160048083019260209291908290030181865afa1580156107ff573d5f803e3d5ffd5b505050506040513d601f19601f820116820180604052508101906108239190611efd565b6001600160a01b0316146108be576001546040805163026b1d5f60e01b815290516001600160a01b039092169163026b1d5f916004808201926020929091908290030181865afa158015610879573d5f803e3d5ffd5b505050506040513d601f19601f8201168201806040525081019061089d9190611efd565b600280546001600160a01b0319166001600160a01b03929092169190911790555b610129546001600160a01b03908116908416036108fe573484146108fe576040516378feddbd60e11b8152600481018590523460248201526044016105ff565b6001600160a01b0383165f908152610128602052604090205460ff16610942576040516331d3c70960e11b81526001600160a01b03841660048201526024016105ff565b335f90815261012b60205260408120546001600160a01b031680610a215761012754610129545f546002546004546040516001600160a01b039586169594851694938416939283169290911690610998906118ab565b6001600160a01b0395861681529385166020850152918416604084015283166060830152909116608082015260a001604051809103905ff0801580156109e0573d5f803e3d5ffd5b506040516001600160a01b03821681529091507fe759fda21527aab212bc806c6b81b4e16add78b260f71442690c536ba1de40cd9060200160405180910390a15b610129546001600160a01b03868116911614610ab6576040516323b872dd60e01b81523360048201526001600160a01b038281166024830152604482018890528616906323b872dd906064016020604051808303815f875af1158015610a89573d5f803e3d5ffd5b505050506040513d601f19601f82011682018060405250810190610aad9190611a9b565b505f9150610aba565b3491505b610ac68533838961124b565b6040516305df7eb960e41b8152600481018790526001600160a01b038281166024830181905290871660448301525f91635df7eb90906064016020604051808303815f875af1158015610b1b573d5f803e3d5ffd5b505050506040513d601f19601f82011682018060405250810190610b3f9190611ee6565b6001600160a01b038781165f9081526101306020526040808220549051636e553f6560e01b8152600481018c905289841660248201529394509092911690636e553f65906044016020604051808303815f875af1158015610ba2573d5f803e3d5ffd5b505050506040513d601f19601f82011682018060405250810190610bc69190611ee6565b9050610bfc60405180604001604052806012815260200171039b430b932b99034b7103632b73214149d160751b8152508261113a565b610c1e604051806060016040528060218152602001613e3a6021913987611362565b604080518082018252601b81527f6f7a555344432062616c202d206f776e6572202a2a2a2a2a2a3a2000000000006020808301919091526001600160a01b038a81165f908152610130909252908390205492516370a0823160e01b81528982166004820152610cd893909116906370a0823190602401602060405180830381865afa158015610caf573d5f803e3d5ffd5b505050506040513d601f19601f82011682018060405250810190610cd39190611ee6565b61113a565b604080518082018252601a81527f6f7a55534443206164647265737320696e206d696e7465723a200000000000006020808301919091526001600160a01b03808b165f90815261013090925292902054610d329216611362565b509695505050505050565b60055460065461011b546040516370a0823160e01b815230600482018190525f9485946001600160a01b039182169463594a88cc949183169216906370a0823190602401602060405180830381865afa158015610d9c573d5f803e3d5ffd5b505050506040513d601f19601f82011682018060405250810190610dc09190611ee6565b604080516080810190915260078054610ded928e929091829060ff16600381111561024d5761024d611ac1565b6040516001600160e01b031960e087901b168152610e149493929190600a90600401611f18565b6060604051808303815f875af1158015610e30573d5f803e3d5ffd5b505050506040513d601f19601f82011682018060405250810190610e549190611ebb565b5090915060089050836008811115610e6e57610e6e611ac1565b03610ef0576101235460405163a9059cbb60e01b81526001600160a01b038681166004830152602482018490529091169063a9059cbb906044016020604051808303815f875af1158015610ec4573d5f803e3d5ffd5b505050506040513d601f19601f82011682018060405250810190610ee89190611a9b565b509050610fff565b5f610efa846113a7565b6101235460195460405163095ea7b360e01b81526001600160a01b03918216600482015260248101869052929350169063095ea7b3906044016020604051808303815f875af1158015610f4f573d5f803e3d5ffd5b505050506040513d601f19601f82011682018060405250810190610f739190611a9b565b5060195481516020830151604080850151905163c872a3c560e01b81525f946001600160a01b03169363c872a3c593610fb9939192909189918f91908e90600401611f99565b6020604051808303815f875af1158015610fd5573d5f803e3d5ffd5b505050506040513d601f19601f82011682018060405250810190610ff99190611ee6565b93505050505b95945050505050565b60405163095ea7b360e01b815273e592427a0aece92de3edee1f18e0157c0586156460048201819052602482018490525f916001600160a01b0388169063095ea7b3906044016020604051808303815f875af115801561106a573d5f803e3d5ffd5b505050506040513d601f19601f8201168201806040525081019061108e9190611a9b565b506040805160a081018252610119546bffffffffffffffffffffffff1960608b811b821660c0850152607d60ea1b60d4850181905292811b821660d785015260eb84019290925289821b1660ee830152825180830360e20181526101028301845282526001600160a01b038881166020840152428385015290820187905260808201869052915163c04b8d5960e01b81526101f49284169063c04b8d5990610fb9908490600401612055565b61117f82826040516024016111509291906120ac565b60408051601f198184030181529190526020810180516001600160e01b03166309710a9d60e41b17905261187f565b5050565b61118b6118b8565b506040805160a0810182526001600160a01b039490941680855260208501939093528301919091525f6060830152608082015290565b61012754610129545f8054600254600454604051939586956001600160a01b039182169590821694821693821692909116906111fc906118ab565b6001600160a01b0395861681529385166020850152918416604084015283166060830152909116608082015260a001604051809103905ff080158015611244573d5f803e3d5ffd5b5092915050565b6001600160a01b038084165f90815261012b60205260409020610118549091908116908616036112c4575f805261012e6020527f05487a880b40ff61e5c065c22c3608319ddddfc383570aaf3e5899db942a555e805460058301805461ffff191661ffff92831617905590546201000090041660048201555b80546001600160a01b0319166001600160a01b0384161781556001810180548391905f906112f39084906120cd565b90915550505f19600682018190556001820154600583015460048401546040805193845261ffff90921660208401529082015260608101919091527f6b8a80184eceb209da613b8fd90b442cf999caaef46ae1ff870ae3cfda2cad739060800160405180910390a15050505050565b61117f82826040516024016113789291906120f2565b60408051601f198184030181529190526020810180516001600160e01b031663319af33360e01b17905261187f565b6113af611925565b60058260088111156113c3576113c3611ac1565b036114c057604080516101c081019091526021816060810182600b8282826020028201915b81546001600160a01b031681526001909101906020018083116113e85750505091835250506040805160a08101909152602090910190600b830160055f835b8282101561146e576040805160a081019182905290600584810287019182845b81548152602001906001019080831161144757505050505081526020019060010190611427565b505050908252506040805160a081019182905260209092019190602484019060059082845b81546001600160a01b03168152600190910190602001808311611493575050505050815250509050919050565b60068260088111156114d4576114d4611ac1565b0361157f57604080516101c08101909152604a816060810182600b8282826020028201915b81546001600160a01b031681526001909101906020018083116114f95750505091835250506040805160a08101909152602090910190600b830160055f835b8282101561146e576040805160a081019182905290600584810287019182845b81548152602001906001019080831161155857505050505081526020019060010190611538565b600382600881111561159357611593611ac1565b0361163e57604080516101c081019091526073816060810182600b8282826020028201915b81546001600160a01b031681526001909101906020018083116115b85750505091835250506040805160a08101909152602090910190600b830160055f835b8282101561146e576040805160a081019182905290600584810287019182845b815481526020019060010190808311611617575050505050815260200190600101906115f7565b600282600881111561165257611652611ac1565b036116fd57604080516101c08101909152609c816060810182600b8282826020028201915b81546001600160a01b031681526001909101906020018083116116775750505091835250506040805160a08101909152602090910190600b830160055f835b8282101561146e576040805160a081019182905290600584810287019182845b8154815260200190600101908083116116d6575050505050815260200190600101906116b6565b5f82600881111561171057611710611ac1565b036117bb57604080516101c0810190915260c5816060810182600b8282826020028201915b81546001600160a01b031681526001909101906020018083116117355750505091835250506040805160a08101909152602090910190600b830160055f835b8282101561146e576040805160a081019182905290600584810287019182845b81548152602001906001019080831161179457505050505081526020019060010190611774565b60078260088111156117cf576117cf611ac1565b0361187a57604080516101c0810190915260ee816060810182600b8282826020028201915b81546001600160a01b031681526001909101906020018083116117f45750505091835250506040805160a08101909152602090910190600b830160055f835b8282101561146e576040805160a081019182905290600584810287019182845b81548152602001906001019080831161185357505050505081526020019060010190611833565b919050565b6118888161188b565b50565b80516a636f6e736f6c652e6c6f67602083015f808483855afa5050505050565b611d1e8061211c83390190565b6040518060a001604052805f6001600160a01b031681526020015f81526020015f6001600160a01b031681526020015f6001600160a01b031681526020016119206040805160808101909152805f81525f602082018190526060604083018190529091015290565b905290565b6040518060600160405280611938611952565b8152602001611945611971565b815260200161192061199e565b604051806101600160405280600b906020820280368337509192915050565b6040518060a001604052806005905b61198861199e565b8152602001906001900390816119805790505090565b6040518060a001604052806005906020820280368337509192915050565b6001600160a01b0381168114611888575f80fd5b5f80604083850312156119e1575f80fd5b8235915060208301356119f3816119bc565b809150509250929050565b5f805f60608486031215611a10575f80fd5b833592506020840135611a22816119bc565b91506040840135611a32816119bc565b809150509250925092565b5f805f805f60a08688031215611a51575f80fd5b85359450602086013593506040860135611a6a816119bc565b92506060860135611a7a816119bc565b9150608086013560098110611a8d575f80fd5b809150509295509295909350565b5f60208284031215611aab575f80fd5b81518015158114611aba575f80fd5b9392505050565b634e487b7160e01b5f52602160045260245ffd5b600181811c90821680611ae957607f821691505b602082108103611b0757634e487b7160e01b5f52602260045260245ffd5b50919050565b6004811061188857634e487b7160e01b5f52602160045260245ffd5b5f81518084525f5b81811015611b4d57602081850181015186830182015201611b31565b505f602082860101526020601f19601f83011685010191505092915050565b60018060a01b0381511682526020810151602083015260018060a01b03604082015116604083015260018060a01b0360608201511660608301525f608082015160a060808501528051611bbe81611b0d565b60a085015260208101516001600160a01b031660c08501526040810151608060e0860152611bf0610120860182611b29565b905060608201511515610100860152809250505092915050565b611c1381611b0d565b9052565b80545f90600181811c90821680611c2f57607f821691505b602082108103611c4d57634e487b7160e01b5f52602260045260245ffd5b81865260208601818015611c685760018114611c7e57611caa565b60ff198516825283151560051b82019550611caa565b5f878152602090205f5b85811015611ca457815484820152600190910190602001611c88565b83019650505b505050505092915050565b5f82825480855260208501945060208160051b830101845f5260205f205f5b83811015611dc757601f19858403018852606083528154606084015260018201546080840152600282015460a08401526003820154611d1960c0850160ff8316611c0a565b6001600160a01b03600891821c811660e0860152600484015481166101008601526005840154811661012086015260068401541661014085015260078301546101608501528201546101808085019190915260098301546101a08501526101c0840152611d8d6101e08401600a8401611c17565b8381036020850152611da281600b8501611c17565b600c840154604095909501949094525060209790970196600d90910190600101611cd4565b50909695505050505050565b80546001600160a01b031682526001810154602083015260a0604083018190525f90611e0490840160028401611cb5565b8381036060850152611e198160038501611cb5565b90508381036080850152611e308160048501611c17565b949350505050565b6001600160a01b03878116825286166020820152604081018590528354606082015260018401546080820152600284015460a0820152600384015460c0820152600484015460e082015261014061010082018190525f90611e9b90830185611b6c565b828103610120840152611eae8185611dd3565b9998505050505050505050565b5f805f60608486031215611ecd575f80fd5b5050815160208301516040909301519094929350919050565b5f60208284031215611ef6575f80fd5b5051919050565b5f60208284031215611f0d575f80fd5b8151611aba816119bc565b6001600160a01b038681168252851660208201526040810184905260a0606082018190525f90611f4a90830185611b6c565b8281036080840152611f5c8185611dd3565b98975050505050505050565b805f5b6005811015611f935781516001600160a01b0316845260209384019390910190600101611f6b565b50505050565b610580810181885f5b600b811015611fca5781516001600160a01b0316835260209283019290910190600101611fa2565b5050506101608201875f5b600581101561201b578151835f5b6005811015612002578251825260209283019290910190600101611fe3565b50505060a0929092019160209190910190600101611fd5565b50505085610480830152846104a083015261203a6104c0830185611f68565b6001600160a01b038316610560830152979650505050505050565b602081525f825160a0602084015261207060c0840182611b29565b905060018060a01b0360208501511660408401526040840151606084015260608401516080840152608084015160a08401528091505092915050565b604081525f6120be6040830185611b29565b90508260208301529392505050565b808201808211156120ec57634e487b7160e01b5f52601160045260245ffd5b92915050565b604081525f6121046040830185611b29565b905060018060a01b0383166020830152939250505056fe6101206040525f60808190525f1960a081905260c082905261010060e0819052655af3107a4000808252600584905560069290925560079290925560089190915560095534801561004e575f80fd5b50604051611d1e380380611d1e83398101604081905261006d916100e9565b5f80546001600160a01b03199081166001600160a01b0397881617909155600180548216958716959095179094556002805485169386169390931790925560038054841691851691909117905560048054909216921691909117905561014a565b80516001600160a01b03811681146100e4575f80fd5b919050565b5f805f805f60a086880312156100fd575f80fd5b610106866100ce565b9450610114602087016100ce565b9350610122604087016100ce565b9250610130606087016100ce565b915061013e608087016100ce565b90509295509295909350565b611bc7806101575f395ff3fe608060405260043610610084575f3560e01c80638406c079116100575780638406c0791461013557806389a3027114610153578063c54e44eb1461017a578063dc38a179146101a1578063e0d05d39146101c3575f80fd5b806318546f1214610088578063206aeab31461009d5780634920cfea146100e15780635df7eb9014610108575b5f80fd5b61009b6100963660046113e7565b6101ea565b005b3480156100a8575f80fd5b506100c473888888888889758f76e7103c6cbf23abbf58f94681565b6040516001600160a01b0390911681526020015b60405180910390f35b3480156100ec575f80fd5b506100c473d1d7d99764f8a52aff007b7831cc02748b2013b581565b348015610113575f80fd5b50610127610122366004611415565b6103f2565b6040519081526020016100d8565b348015610140575f80fd5b505f546100c4906001600160a01b031681565b34801561015e575f80fd5b506100c473a0b86991c6218b36c1d19d4a2e9eb0ce3606eb4881565b348015610185575f80fd5b506100c473dac17f958d2ee523a2206206994597c13d831ec781565b3480156101ac575f80fd5b506101276101bb366004611415565b5f9392505050565b3480156101ce575f80fd5b506100c4739d39a5de30e57443bff2a8307a4256c8797a349781565b6001546001600160a01b03908116908216036102705760025460035460405163474cf53d60e01b81526001600160a01b0391821660048201523060248201525f604482015291169063474cf53d9034906064015f604051808303818588803b158015610254575f80fd5b505af1158015610266573d5f803e3d5ffd5b5050505050610353565b60035460405163095ea7b360e01b81526001600160a01b039182166004820152602481018490529082169063095ea7b3906044016020604051808303815f875af11580156102c0573d5f803e3d5ffd5b505050506040513d601f19601f820116820180604052508101906102e49190611454565b5060035460405163617ba03760e01b81526001600160a01b038381166004830152602482018590523060448301525f60648301529091169063617ba037906084015f604051808303815f87803b15801561033c575f80fd5b505af115801561034e573d5f803e3d5ffd5b505050505b600480545f54604051630c04a8a160e41b81526001600160a01b03918216938101939093525f196024840152169063c04a8a10906044015f604051808303815f87803b1580156103a1575f80fd5b505af11580156103b3573d5f803e3d5ffd5b50506040518492506001600160a01b038416915030907f75134c5a30206e01639de7bebafb4f915e3e6cef465a59b1424e26ea3c9faeb7905f90a45050565b5f808073a0b86991c6218b36c1d19d4a2e9eb0ce3606eb47196001600160a01b038516016104525761044f73a0b86991c6218b36c1d19d4a2e9eb0ce3606eb48739d39a5de30e57443bff2a8307a4256c8797a349787898561078f565b91505b60405163095ea7b360e01b815273888888888889758f76e7103c6cbf23abbf58f946600482015260248101839052739d39a5de30e57443bff2a8307a4256c8797a34979063095ea7b3906044016020604051808303815f875af11580156104bb573d5f803e3d5ffd5b505050506040513d601f19601f820116820180604052508101906104df9190611454565b505f8073888888888889758f76e7103c6cbf23abbf58f9466001600160a01b031663c81f847a8873d1d7d99764f8a52aff007b7831cc02748b2013b585600561063b8a600a6040518060800160405290815f82015f9054906101000a900460ff16600381111561055157610551611473565b600381111561056257610562611473565b8152815461010090046001600160a01b0316602082015260018201805460409092019161058e90611487565b80601f01602080910402602001604051908101604052809291908181526020018280546105ba90611487565b80156106055780601f106105dc57610100808354040283529160200191610605565b820191905f5260205f20905b8154815290600101906020018083116105e857829003601f168201915b50505091835250506002919091015460ff161515602090910152739d39a5de30e57443bff2a8307a4256c8797a3497919061091b565b600d6040518763ffffffff1660e01b815260040161065e969594939291906117e2565b6060604051808303815f875af115801561067a573d5f803e3d5ffd5b505050506040513d601f19601f8201168201806040525081019061069e9190611858565b505090506106d16040518060400160405280600d81526020016c030b6b7bab73a27baba282a1d1609d1b81525082610959565b604080518082019091526012815271033b2ba283a2a37a0b9b9b2ba2930ba329d160751b6020820152600f906107249061071f73d1d7d99764f8a52aff007b7831cc02748b2013b5846109a2565b610959565b60408051808201909152600f81526e033b2ba283a2a37a9bca930ba329d1608d1b602082015261076c9061071f73d1d7d99764f8a52aff007b7831cc02748b2013b5846109f2565b61078360405180602001604052805f815250610a2b565b50979650505050505050565b60405163095ea7b360e01b815273e592427a0aece92de3edee1f18e0157c0586156460048201819052602482018490525f916001600160a01b0388169063095ea7b3906044016020604051808303815f875af11580156107f1573d5f803e3d5ffd5b505050506040513d601f19601f820116820180604052508101906108159190611454565b506040805160a081018252606089811b6bffffffffffffffffffffffff1990811660c0840152607d60ea1b60d4840181905273dac17f958d2ee523a2206206994597c13d831ec760601b60d785015260eb84015289821b1660ee830152825160e28184030181526101028301845282526001600160a01b038089166020840152428385015290820187905260808201869052915163c04b8d5960e01b81526101f49284169063c04b8d59906108ce908490600401611883565b6020604051808303815f875af11580156108ea573d5f803e3d5ffd5b505050506040513d601f19601f8201168201806040525081019061090e91906118da565b9998505050505050505050565b610923611366565b506040805160a0810182526001600160a01b039490941680855260208501939093528301919091525f6060830152608082015290565b61099e828260405160240161096f9291906118f1565b60408051601f198184030181529190526020810180516001600160e01b03166309710a9d60e41b179052610a71565b5050565b5f805f6109ae85610a7a565b915091508082106109cc576109c38585610c9d565b925050506109ec565b80826109d88787610c9d565b6109e29190611926565b6109c39190611951565b92915050565b5f805f6109fe85610a7a565b91509150808210610a1d576109c382610a178787610c9d565b90610d65565b6109c381610a178787610c9d565b610a6e81604051602401610a3f9190611964565b60408051601f198184030181529190526020810180516001600160e01b031663104c13eb60e21b179052610a71565b50565b610a6e81610d93565b5f805f80846001600160a01b0316632c8ce6bc6040518163ffffffff1660e01b8152600401606060405180830381865afa158015610aba573d5f803e3d5ffd5b505050506040513d601f19601f82011682018060405250810190610ade9190611976565b9250509150816001600160a01b0316633ba0b9a96040518163ffffffff1660e01b8152600401602060405180830381865afa158015610b1f573d5f803e3d5ffd5b505050506040513d601f19601f82011682018060405250810190610b4391906118da565b93505f816001600160a01b031663d2a3584e6040518163ffffffff1660e01b8152600401602060405180830381865afa158015610b82573d5f803e3d5ffd5b505050506040513d601f19601f82011682018060405250810190610ba691906118da565b9050816001600160a01b031663516399df6040518163ffffffff1660e01b8152600401602060405180830381865afa158015610be4573d5f803e3d5ffd5b505050506040513d601f19601f82011682018060405250810190610c089190611454565b8015610c7b575043826001600160a01b03166360e0a9e16040518163ffffffff1660e01b8152600401602060405180830381865afa158015610c4c573d5f803e3d5ffd5b505050506040513d601f19601f82011682018060405250810190610c7091906119b5565b6001600160801b0316145b15610c8857809350610c95565b610c928582610db3565b93505b505050915091565b5f80836001600160a01b031663e184c9be6040518163ffffffff1660e01b8152600401602060405180830381865afa158015610cdb573d5f803e3d5ffd5b505050506040513d601f19601f82011682018060405250810190610cff91906118da565b9050428111610d1957670de0b6b3a76400009150506109ec565b5f610d248585610dca565b90505f610d3142846119db565b90505f610d46610d418484610ee9565b610f29565b9050610d5a670de0b6b3a764000082610d65565b9450505050506109ec565b5f80610d79670de0b6b3a764000085611926565b9050828181610d8a57610d8a61193d565b04949350505050565b80516a636f6e736f6c652e6c6f67602083015f808483855afa5050505050565b5f818311610dc15781610dc3565b825b9392505050565b6040805160028082526060820183525f928392919060208301908036833701905050905082815f81518110610e0157610e01611a02565b63ffffffff9092166020928302919091019091015260405163883bdbfd60e01b81525f906001600160a01b0386169063883bdbfd90610e44908590600401611a16565b5f60405180830381865afa158015610e5e573d5f803e3d5ffd5b505050506040513d5f823e601f3d908101601f19168201604052610e859190810190611a79565b90508363ffffffff16815f81518110610ea057610ea0611a02565b602002602001015182600181518110610ebb57610ebb611a02565b6020026020010151610ecd9190611b44565b610ed79190611b63565b6001600160d81b031695945050505050565b5f80610efa6201518061016d611926565b610f048486611926565b610f0e9190611951565b9050610f21610f1c82610f3a565b610f4e565b949350505050565b5f80821215610f36575f80fd5b5090565b5f6001600160ff1b03821115610f36575f80fd5b5f680238fd42c5cf03ffff198212158015610f72575068070c1cc73b00c800008213155b610fb55760405162461bcd60e51b815260206004820152601060248201526f125b9d985b1a5908195e1c1bdb995b9d60821b604482015260640160405180910390fd5b5f821215610fec57610fc8825f03610f4e565b6ec097ce7bc90715b34b9f100000000081610fe557610fe561193d565b0592915050565b5f6806f05b59d3b2000000831261102b57506806f05b59d3b1ffffff1990910190770195e54c5dd42177f53a27172fa9ec630262827000000000611061565b6803782dace9d9000000831261105d57506803782dace9d8ffffff19909101906b1425982cf597cd205cef7380611061565b5060015b6064929092029168056bc75e2d6310000068ad78ebc5ac6200000084126110b15768ad78ebc5ac61ffffff199093019268056bc75e2d631000006e01855144814a7ff805980ff008400082020590505b6856bc75e2d63100000084126110ed576856bc75e2d630ffffff199093019268056bc75e2d631000006b02df0ab5a80a22c61ab5a70082020590505b682b5e3af16b18800000841261112757682b5e3af16b187fffff199093019268056bc75e2d63100000693f1fce3da636ea5cf85082020590505b6815af1d78b58c4000008412611161576815af1d78b58c3fffff199093019268056bc75e2d63100000690127fa27722cc06cc5e282020590505b680ad78ebc5ac6200000841261119a57680ad78ebc5ac61fffff199093019268056bc75e2d6310000068280e60114edb805d0382020590505b68056bc75e2d6310000084126111d35768056bc75e2d630fffff199093019268056bc75e2d63100000680ebc5fb4174612111082020590505b6802b5e3af16b1880000841261120c576802b5e3af16b187ffff199093019268056bc75e2d631000006808f00f760a4b2db55d82020590505b68015af1d78b58c4000084126112455768015af1d78b58c3ffff199093019268056bc75e2d631000006806f5f177578893793782020590505b68056bc75e2d631000008481019085906002908280020505918201919050600368056bc75e2d631000008783020505918201919050600468056bc75e2d631000008783020505918201919050600568056bc75e2d631000008783020505918201919050600668056bc75e2d631000008783020505918201919050600768056bc75e2d631000008783020505918201919050600868056bc75e2d631000008783020505918201919050600968056bc75e2d631000008783020505918201919050600a68056bc75e2d631000008783020505918201919050600b68056bc75e2d631000008783020505918201919050600c68056bc75e2d631000008783020505918201919050606468056bc75e2d63100000848402058502059695505050505050565b6040518060a001604052805f6001600160a01b031681526020015f81526020015f6001600160a01b031681526020015f6001600160a01b031681526020016113ce6040805160808101909152805f81525f602082018190526060604083018190529091015290565b905290565b6001600160a01b0381168114610a6e575f80fd5b5f80604083850312156113f8575f80fd5b82359150602083013561140a816113d3565b809150509250929050565b5f805f60608486031215611427575f80fd5b833592506020840135611439816113d3565b91506040840135611449816113d3565b809150509250925092565b5f60208284031215611464575f80fd5b81518015158114610dc3575f80fd5b634e487b7160e01b5f52602160045260245ffd5b600181811c9082168061149b57607f821691505b6020821081036114b957634e487b7160e01b5f52602260045260245ffd5b50919050565b60048110610a6e57634e487b7160e01b5f52602160045260245ffd5b5f81518084525f5b818110156114ff576020818501810151868301820152016114e3565b505f602082860101526020601f19601f83011685010191505092915050565b60018060a01b0381511682526020810151602083015260018060a01b03604082015116604083015260018060a01b0360608201511660608301525f608082015160a060808501528051611570816114bf565b60a085015260208101516001600160a01b031660c08501526040810151608060e08601526115a26101208601826114db565b905060608201511515610100860152809250505092915050565b6115c5816114bf565b9052565b80545f90600181811c908216806115e157607f821691505b6020821081036115ff57634e487b7160e01b5f52602260045260245ffd5b8186526020860181801561161a57600181146116305761165c565b60ff198516825283151560051b8201955061165c565b5f878152602090205f5b858110156116565781548482015260019091019060200161163a565b83019650505b505050505092915050565b5f82825480855260208501945060208160051b830101845f5260205f205f5b8381101561177957601f19858403018852606083528154606084015260018201546080840152600282015460a084015260038201546116cb60c0850160ff83166115bc565b6001600160a01b03600891821c811660e0860152600484015481166101008601526005840154811661012086015260068401541661014085015260078301546101608501528201546101808085019190915260098301546101a08501526101c084015261173f6101e08401600a84016115c9565b838103602085015261175481600b85016115c9565b600c840154604095909501949094525060209790970196600d90910190600101611686565b50909695505050505050565b80546001600160a01b031682526001810154602083015260a0604083018190525f906117b690840160028401611667565b83810360608501526117cb8160038501611667565b90508381036080850152610f2181600485016115c9565b6001600160a01b03878116825286166020820152604081018590528354606082015260018401546080820152600284015460a0820152600384015460c0820152600484015460e082015261014061010082018190525f906118459083018561151e565b82810361012084015261090e8185611785565b5f805f6060848603121561186a575f80fd5b5050815160208301516040909301519094929350919050565b602081525f825160a0602084015261189e60c08401826114db565b905060018060a01b0360208501511660408401526040840151606084015260608401516080840152608084015160a08401528091505092915050565b5f602082840312156118ea575f80fd5b5051919050565b604081525f61190360408301856114db565b90508260208301529392505050565b634e487b7160e01b5f52601160045260245ffd5b80820281158282048414176109ec576109ec611912565b634e487b7160e01b5f52601260045260245ffd5b5f8261195f5761195f61193d565b500490565b602081525f610dc360208301846114db565b5f805f60608486031215611988575f80fd5b8351611993816113d3565b60208501519093506119a4816113d3565b6040850151909250611449816113d3565b5f602082840312156119c5575f80fd5b81516001600160801b0381168114610dc3575f80fd5b818103818111156109ec576109ec611912565b634e487b7160e01b5f52604160045260245ffd5b634e487b7160e01b5f52603260045260245ffd5b602080825282518282018190525f918401906040840190835b81811015611a5357835163ffffffff16835260209384019390920191600101611a2f565b509095945050505050565b80516001600160d81b0381168114611a74575f80fd5b919050565b5f60208284031215611a89575f80fd5b815167ffffffffffffffff811115611a9f575f80fd5b8201601f81018413611aaf575f80fd5b805167ffffffffffffffff811115611ac957611ac96119ee565b8060051b604051601f19603f830116810181811067ffffffffffffffff82111715611af657611af66119ee565b604052918252602081840181019290810187841115611b13575f80fd5b6020850194505b83851015611b3957611b2b85611a5e565b815260209485019401611b1a565b509695505050505050565b6001600160d81b0382811682821603908111156109ec576109ec611912565b5f6001600160d81b03831680611b7b57611b7b61193d565b6001600160d81b0392909216919091049291505056fea264697066735822122039085a6580374dcf89accf5fc111e9232452ad1279f69d84fbdb68331050127564736f6c634300081a003372656365697665725f20696e206c656e642829202d20326e64206f776e65723a2073555344654f7574206265696e67207377617070656420666f72205054202d20696e20626f72726f7728293a20a2646970667358221220583026b3637a84b70fcf80b8943a2526791bda7e6b7915df51eb9e5329a5126964736f6c634300081a0033","linkReferences":{}},"methodIdentifiers":{"borrow(uint256,address)":"4b3fd148","lend(uint256,address,address)":"cd290a3f","lend2(uint256,address)":"79a72c5e","performRedemption(uint256,uint256,address,address,uint8)":"f4771c70"},"id":13}