{"abi":[{"type":"function","name":"borrow","inputs":[{"name":"amount_","type":"uint256","internalType":"uint256"},{"name":"receiver_","type":"address","internalType":"address"}],"outputs":[],"stateMutability":"nonpayable"},{"type":"function","name":"lend","inputs":[{"name":"isETH_","type":"bool","internalType":"bool"}],"outputs":[],"stateMutability":"payable"},{"type":"function","name":"redeem","inputs":[{"name":"amount_","type":"uint256","internalType":"uint256"},{"name":"receiver_","type":"address","internalType":"address"}],"outputs":[],"stateMutability":"nonpayable"}],"bytecode":{"object":"0x6080604052348015600e575f80fd5b50610ebe8061001c5f395ff3fe608060405260043610610033575f3560e01c806301a15540146100375780634b3fd1481461004c5780637bde82f21461006b575b5f80fd5b61004a6100453660046108f7565b61008a565b005b348015610057575f80fd5b5061004a61006636600461092d565b61016f565b348015610076575f80fd5b5061004a61008536600461092d565b61048c565b6001546040805163026b1d5f60e01b815290515f926001600160a01b03169163026b1d5f9160048083019260209291908290030181865afa1580156100d1573d5f803e3d5ffd5b505050506040513d601f19601f820116820180604052508101906100f5919061095b565b9050811561016b575f805460405163474cf53d60e01b81526001600160a01b038481166004830152306024830152604482019390935291169063474cf53d9034906064015f604051808303818588803b158015610150575f80fd5b505af1158015610162573d5f803e3d5ffd5b50505050505050565b5050565b6001546040805163026b1d5f60e01b815290515f926001600160a01b03169163026b1d5f9160048083019260209291908290030181865afa1580156101b6573d5f803e3d5ffd5b505050506040513d601f19601f820116820180604052508101906101da919061095b565b60135460025460405163a415bcad60e01b81526001600160a01b0392831660048201526024810187905260448101919091525f606482015230608482015291925082169063a415bcad9060a4015f604051808303815f87803b15801561023e575f80fd5b505af1158015610250573d5f803e3d5ffd5b50506013546014546040516370a0823160e01b815230600482018190525f95508594506102d5936001600160a01b0390811693169183906370a0823190602401602060405180830381865afa1580156102ab573d5f803e3d5ffd5b505050506040513d601f19601f820116820180604052508101906102cf9190610976565b86610563565b60145460035460405163095ea7b360e01b81526001600160a01b03918216600482015260248101849052929350169063095ea7b3906044016020604051808303815f875af1158015610329573d5f803e3d5ffd5b505050506040513d601f19601f8201168201806040525081019061034d919061098d565b506003546004546014545f9283926001600160a01b039182169263c81f847a9230928116918691600d9161038291168a6106e1565b6040516001600160e01b031960e088901b1681526103aa959493929190600890600401610d1f565b6060604051808303815f875af11580156103c6573d5f803e3d5ffd5b505050506040513d601f19601f820116820180604052508101906103ea9190610d95565b505090506104226040518060400160405280601281526020017103732ba283a27baba10169039aaa9a2329d160751b81525082610811565b6016546040516340c10f1960e01b81526001600160a01b03888116600483015260248201869052909116906340c10f19906044015f604051808303815f87803b15801561046d575f80fd5b505af115801561047f573d5f803e3d5ffd5b5050505050505050505050565b6003546004546014545f9283926001600160a01b039182169263594a88cc92309281169189916104bd9116876106e1565b6040516001600160e01b031960e087901b1681526104e49493929190600890600401610dc0565b6060604051808303815f875af1158015610500573d5f803e3d5ffd5b505050506040513d601f19601f820116820180604052508101906105249190610d95565b5050905061055d6040518060400160405280601381526020017203732ba2a37b5b2b727baba1039aaa9a2329d1606d1b81525082610811565b50505050565b60405163095ea7b360e01b815273e592427a0aece92de3edee1f18e0157c0586156460048201819052602482018490525f916001600160a01b0388169063095ea7b3906044016020604051808303815f875af11580156105c5573d5f803e3d5ffd5b505050506040513d601f19601f820116820180604052508101906105e9919061098d565b506040805160a0810182526015546bffffffffffffffffffffffff1960608b811b821660c0850152607d60ea1b60d4850181905292811b821660d785015260eb84019290925289821b1660ee830152825180830360e20181526101028301845282526001600160a01b038881166020840152428385015290820187905260808201869052915163c04b8d5960e01b81526101f49284169063c04b8d5990610694908490600401610e10565b6020604051808303815f875af11580156106b0573d5f803e3d5ffd5b505050506040513d601f19601f820116820180604052508101906106d49190610976565b9998505050505050505050565b6106e961087d565b6040805160a0810182526001600160a01b03851680825260208201859052818301525f606082015281516080818101909352600580549293840192829060ff16600381111561073a5761073a6109a8565b600381111561074b5761074b6109a8565b8152815461010090046001600160a01b0316602082015260018201805460409092019161077790610ac6565b80601f01602080910402602001604051908101604052809291908181526020018280546107a390610ac6565b80156107ee5780601f106107c5576101008083540402835291602001916107ee565b820191905f5260205f20905b8154815290600101906020018083116107d157829003601f168201915b50505091835250506002919091015460ff16151560209091015290529392505050565b61016b8282604051602401610827929190610e67565b60408051601f198184030181529190526020810180516001600160e01b03166309710a9d60e41b17905261085a8161085d565b50565b80516a636f6e736f6c652e6c6f67602083015f808483855afa5050505050565b6040518060a001604052805f6001600160a01b031681526020015f81526020015f6001600160a01b031681526020015f6001600160a01b031681526020016108e56040805160808101909152805f81525f602082018190526060604083018190529091015290565b905290565b801515811461085a575f80fd5b5f60208284031215610907575f80fd5b8135610912816108ea565b9392505050565b6001600160a01b038116811461085a575f80fd5b5f806040838503121561093e575f80fd5b82359150602083013561095081610919565b809150509250929050565b5f6020828403121561096b575f80fd5b815161091281610919565b5f60208284031215610986575f80fd5b5051919050565b5f6020828403121561099d575f80fd5b8151610912816108ea565b634e487b7160e01b5f52602160045260245ffd5b6004811061085a57634e487b7160e01b5f52602160045260245ffd5b5f81518084525f5b818110156109fc576020818501810151868301820152016109e0565b505f602082860101526020601f19601f83011685010191505092915050565b60018060a01b0381511682526020810151602083015260018060a01b03604082015116604083015260018060a01b0360608201511660608301525f608082015160a060808501528051610a6d816109bc565b60a085015260208101516001600160a01b031660c08501526040810151608060e0860152610a9f6101208601826109d8565b905060608201511515610100860152809250505092915050565b610ac2816109bc565b9052565b600181811c90821680610ada57607f821691505b602082108103610af857634e487b7160e01b5f52602260045260245ffd5b50919050565b80545f90600181811c90821680610b1657607f821691505b602082108103610b3457634e487b7160e01b5f52602260045260245ffd5b81865260208601818015610b4f5760018114610b6557610b91565b60ff198516825283151560051b82019550610b91565b5f878152602090205f5b85811015610b8b57815484820152600190910190602001610b6f565b83019650505b505050505092915050565b5f82825480855260208501945060208160051b830101845f5260205f205f5b83811015610cae57601f19858403018852606083528154606084015260018201546080840152600282015460a08401526003820154610c0060c0850160ff8316610ab9565b6001600160a01b03600891821c811660e0860152600484015481166101008601526005840154811661012086015260068401541661014085015260078301546101608501528201546101808085019190915260098301546101a08501526101c0840152610c746101e08401600a8401610afe565b8381036020850152610c8981600b8501610afe565b600c840154604095909501949094525060209790970196600d90910190600101610bbb565b50909695505050505050565b80546001600160a01b031682526001810154602083015260a0604083018190525f90610ceb90840160028401610b9c565b8381036060850152610d008160038501610b9c565b90508381036080850152610d178160048501610afe565b949350505050565b6001600160a01b03878116825286166020820152604081018590528354606082015260018401546080820152600284015460a0820152600384015460c0820152600484015460e082015261014061010082018190525f90610d8290830185610a1b565b8281036101208401526106d48185610cba565b5f805f60608486031215610da7575f80fd5b5050815160208301516040909301519094929350919050565b6001600160a01b038681168252851660208201526040810184905260a0606082018190525f90610df290830185610a1b565b8281036080840152610e048185610cba565b98975050505050505050565b602081525f825160a06020840152610e2b60c08401826109d8565b905060018060a01b0360208501511660408401526040840151606084015260608401516080840152608084015160a08401528091505092915050565b604081525f610e7960408301856109d8565b9050826020830152939250505056fea26469706673582212203d853b793b18465e9054b6c7d3ed9acafa498edaedddbd935988c782dfa2a0cf64736f6c634300081a0033","linkReferences":{}},"methodIdentifiers":{"borrow(uint256,address)":"4b3fd148","lend(bool)":"01a15540","redeem(uint256,address)":"7bde82f2"},"id":7}