{"abi":[{"type":"function","name":"borrow","inputs":[{"name":"amount_","type":"uint256","internalType":"uint256"},{"name":"receiver_","type":"address","internalType":"address"}],"outputs":[],"stateMutability":"nonpayable"},{"type":"function","name":"borrow2","inputs":[{"name":"amount_","type":"uint256","internalType":"uint256"},{"name":"receiver_","type":"address","internalType":"address"}],"outputs":[],"stateMutability":"nonpayable"},{"type":"function","name":"finishBorrow","inputs":[{"name":"receiver_","type":"address","internalType":"address"}],"outputs":[],"stateMutability":"nonpayable"},{"type":"function","name":"getUserAccountData","inputs":[{"name":"user_","type":"address","internalType":"address"}],"outputs":[{"name":"","type":"tuple","internalType":"struct UserAccountData","components":[{"name":"totalCollateralBase","type":"uint256","internalType":"uint256"},{"name":"totalDebtBase","type":"uint256","internalType":"uint256"},{"name":"availableBorrowsBase","type":"uint256","internalType":"uint256"},{"name":"currentLiquidationThreshold","type":"uint256","internalType":"uint256"},{"name":"ltv","type":"uint256","internalType":"uint256"},{"name":"healthFactor","type":"uint256","internalType":"uint256"}]}],"stateMutability":"view"},{"type":"function","name":"lend","inputs":[{"name":"amountIn_","type":"uint256","internalType":"uint256"},{"name":"isETH_","type":"bool","internalType":"bool"}],"outputs":[],"stateMutability":"payable"},{"type":"function","name":"rebuyPT","inputs":[{"name":"amountInUSDC_","type":"uint256","internalType":"uint256"}],"outputs":[],"stateMutability":"nonpayable"},{"type":"function","name":"redeem","inputs":[{"name":"amount_","type":"uint256","internalType":"uint256"},{"name":"receiver_","type":"address","internalType":"address"}],"outputs":[],"stateMutability":"nonpayable"},{"type":"event","name":"NewAccountCreated","inputs":[{"name":"account","type":"address","indexed":false,"internalType":"address"}],"anonymous":false},{"type":"error","name":"AddressEmptyCode","inputs":[{"name":"target","type":"address","internalType":"address"}]},{"type":"error","name":"FailedInnerCall","inputs":[]}],"bytecode":{"object":"0x6080604052348015600e575f80fd5b5061223b8061001c5f395ff3fe60806040526004361061006e575f3560e01c80635c8abc381161004c5780635c8abc38146100c55780637bde82f2146100e4578063bf92857c14610103578063c4b1810c14610176575f80fd5b80634b3fd148146100725780634e7896a9146100935780634f52db6b146100b2575b5f80fd5b34801561007d575f80fd5b5061009161008c366004611248565b610195565b005b34801561009e575f80fd5b506100916100ad366004611276565b61020a565b6100916100c036600461129e565b6102db565b3480156100d0575f80fd5b506100916100df3660046112c1565b6104e1565b3480156100ef575f80fd5b506100916100fe366004611248565b61067c565b34801561010e575f80fd5b5061012261011d366004611276565b610966565b60405161016d91905f60c082019050825182526020830151602083015260408301516040830152606083015160608301526080830151608083015260a083015160a083015292915050565b60405180910390f35b348015610181575f80fd5b50610091610190366004611248565b61099e565b335f908152601d6020526040908190205490516349292abd60e01b8152600481018490526001600160a01b0383811660248301529091169081906349292abd906044015f604051808303815f87803b1580156101ef575f80fd5b505af1158015610201573d5f803e3d5ffd5b50505050505050565b6016546040516370a0823160e01b81523060048201525f916001600160a01b0316906370a0823190602401602060405180830381865afa158015610250573d5f803e3d5ffd5b505050506040513d601f19601f8201168201806040525081019061027491906112d8565b6019546040516340c10f1960e01b81526001600160a01b038581166004830152602482018490529293509116906340c10f19906044015f604051808303815f87803b1580156102c1575f80fd5b505af11580156102d3573d5f803e3d5ffd5b505050505050565b6002546001546040805163026b1d5f60e01b815290516001600160a01b03938416939092169163026b1d5f916004808201926020929091908290030181865afa15801561032a573d5f803e3d5ffd5b505050506040513d601f19601f8201168201806040525081019061034e91906112ef565b6001600160a01b0316146103e9576001546040805163026b1d5f60e01b815290516001600160a01b039092169163026b1d5f916004808201926020929091908290030181865afa1580156103a4573d5f803e3d5ffd5b505050506040513d601f19601f820116820180604052508101906103c891906112ef565b600280546001600160a01b0319166001600160a01b03929092169190911790555b335f908152601d60205260409020546001600160a01b0316806104805761040e610c66565b905061044360405180604001604052806011815260200170024b73a32b93730b620b1b1b7bab73a1d1607d1b81525082610cbb565b6040516001600160a01b03821681527fe759fda21527aab212bc806c6b81b4e16add78b260f71442690c536ba1de40cd9060200160405180910390a15b81156104db57806001600160a01b031663de407d8f346040518263ffffffff1660e01b81526004015f604051808303818588803b1580156104bf575f80fd5b505af11580156104d1573d5f803e3d5ffd5b5050505050505050565b505b5050565b601c546105265760405162461bcd60e51b815260206004820152600e60248201526d3932b13abca82a1d1032b93937b960911b60448201526064015b60405180910390fd5b6016546040516323b872dd60e01b8152336004820152306024820152604481018390526001600160a01b03909116906323b872dd906064016020604051808303815f875af115801561057a573d5f803e3d5ffd5b505050506040513d601f19601f8201168201806040525081019061059e919061130a565b50601a546040516370a0823160e01b81523060048201525f916001600160a01b0316906370a0823190602401602060405180830381865afa1580156105e5573d5f803e3d5ffd5b505050506040513d601f19601f8201168201806040525081019061060991906112d8565b601a5460405163a9059cbb60e01b8152336004820152602481018390529192506001600160a01b03169063a9059cbb906044016020604051808303815f875af1158015610658573d5f803e3d5ffd5b505050506040513d601f19601f820116820180604052508101906104db919061130a565b5f80736c9f097e044506712b58eac670c9a5fd4bccef1390506106bf60405180604001604052806008815260200167039b2b73232b91d160c51b81525033610cbb565b60408051808201825260168152750282a103130b61037bd1016903839329039bbb0b81d160551b6020820152601a5491516370a0823160e01b815230600482015261075c926001600160a01b0316906370a08231906024015b602060405180830381865afa158015610733573d5f803e3d5ffd5b505050506040513d601f19601f8201168201806040525081019061075791906112d8565b610d00565b6040805180820182526015815274039aaa9a2329037bd1016903839329039bbb0b81d1605d1b602082015260175491516370a0823160e01b81523060048201526107b8926001600160a01b0316906370a0823190602401610718565b6107cf60405180602001604052805f815250610d45565b6004546005546017545f926001600160a01b039081169263594a88cc923092918216918a916107ff911689610d8b565b6040516001600160e01b031960e087901b16815261082694939291906009906004016116a6565b6060604051808303815f875af1158015610842573d5f803e3d5ffd5b505050506040513d601f19601f8201168201806040525081019061086691906116f6565b5050905061089f6040518060400160405280601381526020017203732ba2a37b5b2b727baba1039aaa9a2329d1606d1b81525082610d00565b604080518082018252601781527f50542062616c206f7a202d20706f737420737761703a20000000000000000000602082015290516370a0823160e01b815230600482015261090291906001600160a01b038516906370a0823190602401610718565b6040805180820182526016815275039aaa9a2329037bd1016903837b9ba1039bbb0b81d160551b602082015260175491516370a0823160e01b815230600482015261095f926001600160a01b0316906370a0823190602401610718565b5050505050565b6109996040518060c001604052805f81526020015f81526020015f81526020015f81526020015f81526020015f81525090565b919050565b6001546040805163026b1d5f60e01b815290515f926001600160a01b03169163026b1d5f9160048083019260209291908290030181865afa1580156109e5573d5f803e3d5ffd5b505050506040513d601f19601f82011682018060405250810190610a0991906112ef565b60165460035460405163a415bcad60e01b81526001600160a01b0392831660048201526024810187905260448101919091525f606482015230608482015291925082169063a415bcad9060a4015f604051808303815f87803b158015610a6d575f80fd5b505af1158015610a7f573d5f803e3d5ffd5b50506016546017546040516370a0823160e01b815230600482018190525f9550859450610b04936001600160a01b0390811693169183906370a0823190602401602060405180830381865afa158015610ada573d5f803e3d5ffd5b505050506040513d601f19601f82011682018060405250810190610afe91906112d8565b86610ebb565b6017546004805460405163095ea7b360e01b81526001600160a01b03918216928101929092526024820184905292935091169063095ea7b3906044016020604051808303815f875af1158015610b5c573d5f803e3d5ffd5b505050506040513d601f19601f82011682018060405250810190610b80919061130a565b506004546005546017545f9283926001600160a01b039182169263c81f847a9230928116918691600e91610bb591168a610d8b565b6040516001600160e01b031960e088901b168152610bdd959493929190600990600401611721565b6060604051808303815f875af1158015610bf9573d5f803e3d5ffd5b505050506040513d601f19601f82011682018060405250810190610c1d91906116f6565b505090505f610c2a611039565b601c80546001810182555f919091527f0e4562a10381dec21b205ed72637e6b1b523bdd0e4d4d50af5cd23dd4500a21101555050505050505050565b5f80604051610c74906111ba565b604051809103905ff080158015610c8d573d5f803e3d5ffd5b50335f908152601d6020526040902080546001600160a01b0319166001600160a01b03831617905592915050565b6104dd8282604051602401610cd1929190611797565b60408051601f198184030181529190526020810180516001600160e01b031663319af33360e01b179052611097565b6104dd8282604051602401610d169291906117c0565b60408051601f198184030181529190526020810180516001600160e01b03166309710a9d60e41b179052611097565b610d8881604051602401610d5991906117e1565b60408051601f198184030181529190526020810180516001600160e01b031663104c13eb60e21b179052611097565b50565b610d936111c7565b6040805160a0810182526001600160a01b03851680825260208201859052818301525f606082015281516080818101909352600680549293840192829060ff166003811115610de457610de4611325565b6003811115610df557610df5611325565b8152815461010090046001600160a01b03166020820152600182018054604090920191610e219061144d565b80601f0160208091040260200160405190810160405280929190818152602001828054610e4d9061144d565b8015610e985780601f10610e6f57610100808354040283529160200191610e98565b820191905f5260205f20905b815481529060010190602001808311610e7b57829003601f168201915b50505091835250506002919091015460ff16151560209091015290529392505050565b60405163095ea7b360e01b815273e592427a0aece92de3edee1f18e0157c0586156460048201819052602482018490525f916001600160a01b0388169063095ea7b3906044016020604051808303815f875af1158015610f1d573d5f803e3d5ffd5b505050506040513d601f19601f82011682018060405250810190610f41919061130a565b506040805160a0810182526018546bffffffffffffffffffffffff1960608b811b821660c0850152607d60ea1b60d4850181905292811b821660d785015260eb84019290925289821b1660ee830152825180830360e20181526101028301845282526001600160a01b038881166020840152428385015290820187905260808201869052915163c04b8d5960e01b81526101f49284169063c04b8d5990610fec9084906004016117f3565b6020604051808303815f875af1158015611008573d5f803e3d5ffd5b505050506040513d601f19601f8201168201806040525081019061102c91906112d8565b9998505050505050505050565b6040805160048152602481019091526020810180516001600160e01b03166301efa05d60e01b179052601b545f919061107b906001600160a01b0316826110a0565b90508080602001905181019061109191906112d8565b91505090565b610d8881611112565b60605f80846001600160a01b0316846040516110bc919061184a565b5f60405180830381855af49150503d805f81146110f4576040519150601f19603f3d011682016040523d82523d5f602084013e6110f9565b606091505b5091509150611109858383611132565b95945050505050565b80516a636f6e736f6c652e6c6f67602083015f808483855afa5050505050565b6060826111475761114282611191565b61118a565b815115801561115e57506001600160a01b0384163b155b1561118757604051639996b31560e01b81526001600160a01b038516600482015260240161051d565b50805b9392505050565b8051156111a15780518082602001fd5b604051630a12f52160e11b815260040160405180910390fd5b6109a08061186683390190565b6040518060a001604052805f6001600160a01b031681526020015f81526020015f6001600160a01b031681526020015f6001600160a01b0316815260200161122f6040805160808101909152805f81525f602082018190526060604083018190529091015290565b905290565b6001600160a01b0381168114610d88575f80fd5b5f8060408385031215611259575f80fd5b82359150602083013561126b81611234565b809150509250929050565b5f60208284031215611286575f80fd5b813561118a81611234565b8015158114610d88575f80fd5b5f80604083850312156112af575f80fd5b82359150602083013561126b81611291565b5f602082840312156112d1575f80fd5b5035919050565b5f602082840312156112e8575f80fd5b5051919050565b5f602082840312156112ff575f80fd5b815161118a81611234565b5f6020828403121561131a575f80fd5b815161118a81611291565b634e487b7160e01b5f52602160045260245ffd5b60048110610d8857634e487b7160e01b5f52602160045260245ffd5b5f5b8381101561136f578181015183820152602001611357565b50505f910152565b5f815180845261138e816020860160208601611355565b601f01601f19169290920160200192915050565b60018060a01b0381511682526020810151602083015260018060a01b03604082015116604083015260018060a01b0360608201511660608301525f608082015160a0608085015280516113f481611339565b60a085015260208101516001600160a01b031660c08501526040810151608060e0860152611426610120860182611377565b905060608201511515610100860152809250505092915050565b61144981611339565b9052565b600181811c9082168061146157607f821691505b60208210810361147f57634e487b7160e01b5f52602260045260245ffd5b50919050565b80545f90600181811c9082168061149d57607f821691505b6020821081036114bb57634e487b7160e01b5f52602260045260245ffd5b818652602086018180156114d657600181146114ec57611518565b60ff198516825283151560051b82019550611518565b5f878152602090205f5b85811015611512578154848201526001909101906020016114f6565b83019650505b505050505092915050565b5f82825480855260208501945060208160051b830101845f5260205f205f5b8381101561163557601f19858403018852606083528154606084015260018201546080840152600282015460a0840152600382015461158760c0850160ff8316611440565b6001600160a01b03600891821c811660e0860152600484015481166101008601526005840154811661012086015260068401541661014085015260078301546101608501528201546101808085019190915260098301546101a08501526101c08401526115fb6101e08401600a8401611485565b838103602085015261161081600b8501611485565b600c840154604095909501949094525060209790970196600d90910190600101611542565b50909695505050505050565b80546001600160a01b031682526001810154602083015260a0604083018190525f9061167290840160028401611523565b83810360608501526116878160038501611523565b9050838103608085015261169e8160048501611485565b949350505050565b6001600160a01b038681168252851660208201526040810184905260a0606082018190525f906116d8908301856113a2565b82810360808401526116ea8185611641565b98975050505050505050565b5f805f60608486031215611708575f80fd5b5050815160208301516040909301519094929350919050565b6001600160a01b03878116825286166020820152604081018590528354606082015260018401546080820152600284015460a0820152600384015460c0820152600484015460e082015261014061010082018190525f90611784908301856113a2565b82810361012084015261102c8185611641565b604081525f6117a96040830185611377565b905060018060a01b03831660208301529392505050565b604081525f6117d26040830185611377565b90508260208301529392505050565b602081525f61118a6020830184611377565b602081525f825160a0602084015261180e60c0840182611377565b905060018060a01b0360208501511660408401526040840151606084015260608401516080840152608084015160a08401528091505092915050565b5f825161185b818460208701611355565b919091019291505056fe6080604052348015600e575f80fd5b506109848061001c5f395ff3fe608060405260043610610033575f3560e01c806349292abd14610037578063de407d8f14610058578063eb3ff01714610060575b5f80fd5b348015610042575f80fd5b5061005661005136600461075e565b61006b565b005b61005661022f565b348015610056575f80fd5b604080518082018252601a81527f6f7a20757364632062616c202d2070726520626f72726f773a20000000000000602082015290516370a0823160e01b8152336004820181905273893411580e590d62ddbca8a703d61cc4a8c7b2b9927387870bca3f3fd6335c3f4ce8392d69350b4fa4e29273a0b86991c6218b36c1d19d4a2e9eb0ce3606eb48929160029161014d919085906370a08231906024015b602060405180830381865afa158015610124573d5f803e3d5ffd5b505050506040513d601f19601f820116820180604052508101906101489190610797565b610666565b60405163a415bcad60e01b81526001600160a01b03848116600483015260248201899052604482018390525f6064830152838116608483015285169063a415bcad9060a4015f604051808303815f87803b1580156101a9575f80fd5b505af11580156101bb573d5f803e3d5ffd5b5050604080518082018252601b81527f6f7a20757364632062616c202d20706f737420626f72726f773a200000000000602082015290516370a0823160e01b81526001600160a01b0386811660048301526102269450919250908616906370a0823190602401610109565b50505050505050565b60405163474cf53d60e01b81527387870bca3f3fd6335c3f4ce8392d69350b4fa4e2600482018190523060248301525f604483015273893411580e590d62ddbca8a703d61cc4a8c7b2b991829063474cf53d9034906064015f604051808303818588803b15801561029e575f80fd5b505af11580156102b0573d5f803e3d5ffd5b50505050506102f46040518060400160405280601881526020017f6d73672e73656e646572202d206f7a4469616d6f6e643a200000000000000000815250336106af565b61031f60405180604001604052806009815260200168034b73a1030b1b19d160bd1b815250306106af565b604051632fe4a15f60e21b81523360048201525f906001600160a01b0383169063bf92857c9060240160c060405180830381865afa158015610363573d5f803e3d5ffd5b505050506040513d601f19601f8201168201806040525081019061038791906107ae565b505050925050506103b06040518060600160405280602a8152602001610925602a913982610666565b604051632fe4a15f60e21b81523060048201525f906001600160a01b0384169063bf92857c9060240160c060405180830381865afa1580156103f4573d5f803e3d5ffd5b505050506040513d601f19601f8201168201806040525081019061041891906107ae565b505050925050506104416040518060600160405280602f81526020016108cb602f913982610666565b61045860405180602001604052805f8152506106f4565b6104966040518060400160405280601781526020017f2d2d2d2064656c656761746520637265646974202d2d2d0000000000000000008152506106f4565b6104ad60405180602001604052805f8152506106f4565b6104e060405180604001604052806011815260200170036b9b39739b2b73232b910169037bd1d1607d1b815250336106af565b604051630c04a8a160e41b81523360048201525f1960248201527372e95b8931767c79ba4eee721354d6e99a61d00490819063c04a8a10906044015f604051808303815f87803b158015610532575f80fd5b505af1158015610544573d5f803e3d5ffd5b5050604051632fe4a15f60e21b81523360048201525f92506001600160a01b038716915063bf92857c9060240160c060405180830381865afa15801561058c573d5f803e3d5ffd5b505050506040513d601f19601f820116820180604052508101906105b091906107ae565b505050925050506105d96040518060600160405280602b81526020016108fa602b913982610666565b604051632fe4a15f60e21b81523060048201525f906001600160a01b0387169063bf92857c9060240160c060405180830381865afa15801561061d573d5f803e3d5ffd5b505050506040513d601f19601f8201168201806040525081019061064191906107ae565b5050509250505061022660405180606001604052806030815260200161089b60309139825b6106ab828260405160240161067c929190610837565b60408051601f198184030181529190526020810180516001600160e01b03166309710a9d60e41b17905261073a565b5050565b6106ab82826040516024016106c5929190610858565b60408051601f198184030181529190526020810180516001600160e01b031663319af33360e01b17905261073a565b610737816040516024016107089190610881565b60408051601f198184030181529190526020810180516001600160e01b031663104c13eb60e21b17905261073a565b50565b6107378180516a636f6e736f6c652e6c6f67602083015f808483855afa5050505050565b5f806040838503121561076f575f80fd5b8235915060208301356001600160a01b038116811461078c575f80fd5b809150509250929050565b5f602082840312156107a7575f80fd5b5051919050565b5f805f805f8060c087890312156107c3575f80fd5b50508451602086015160408701516060880151608089015160a090990151939a929950909790965094509092509050565b5f81518084525f5b81811015610818576020818501810151868301820152016107fc565b505f602082860101526020601f19601f83011685010191505092915050565b604081525f61084960408301856107f4565b90508260208301529392505050565b604081525f61086a60408301856107f4565b905060018060a01b03831660208301529392505050565b602081525f61089360208301846107f4565b939250505056fe617661696c61626c65426f72726f777342617365202d20696e7420616363202d20706f73742064656c65676174653a20617661696c61626c65426f72726f777342617365202d20696e7420616363202d207072652064656c65676174653a20617661696c61626c65426f72726f777342617365202d206f7a202d20706f73742064656c65676174653a20617661696c61626c65426f72726f777342617365202d206f7a202d207072652064656c65676174653a20a26469706673582212207ed871677ca3e727f6c3fd0260a62d720feff59035dda02b85ac0f96311b3f4364736f6c634300081a0033a2646970667358221220a19e68f157c8ef57e129a451caf3fcbede3738dd4ea3d974e1aa4c38be7ac8f764736f6c634300081a0033","linkReferences":{}},"methodIdentifiers":{"borrow(uint256,address)":"4b3fd148","borrow2(uint256,address)":"c4b1810c","finishBorrow(address)":"4e7896a9","getUserAccountData(address)":"bf92857c","lend(uint256,bool)":"4f52db6b","rebuyPT(uint256)":"5c8abc38","redeem(uint256,address)":"7bde82f2"},"id":9}