{"abi":[{"type":"function","name":"borrow","inputs":[{"name":"amount_","type":"uint256","internalType":"uint256"},{"name":"receiver_","type":"address","internalType":"address"}],"outputs":[],"stateMutability":"nonpayable"},{"type":"function","name":"borrow2","inputs":[{"name":"amount_","type":"uint256","internalType":"uint256"},{"name":"receiver_","type":"address","internalType":"address"}],"outputs":[],"stateMutability":"nonpayable"},{"type":"function","name":"finishBorrow","inputs":[{"name":"receiver_","type":"address","internalType":"address"}],"outputs":[],"stateMutability":"nonpayable"},{"type":"function","name":"getUserAccountData","inputs":[{"name":"user_","type":"address","internalType":"address"}],"outputs":[{"name":"","type":"tuple","internalType":"struct UserAccountData","components":[{"name":"totalCollateralBase","type":"uint256","internalType":"uint256"},{"name":"totalDebtBase","type":"uint256","internalType":"uint256"},{"name":"availableBorrowsBase","type":"uint256","internalType":"uint256"},{"name":"currentLiquidationThreshold","type":"uint256","internalType":"uint256"},{"name":"ltv","type":"uint256","internalType":"uint256"},{"name":"healthFactor","type":"uint256","internalType":"uint256"}]}],"stateMutability":"view"},{"type":"function","name":"lend","inputs":[{"name":"amountIn_","type":"uint256","internalType":"uint256"},{"name":"isETH_","type":"bool","internalType":"bool"}],"outputs":[],"stateMutability":"payable"},{"type":"function","name":"rebuyPT","inputs":[{"name":"amountInUSDC_","type":"uint256","internalType":"uint256"}],"outputs":[],"stateMutability":"nonpayable"},{"type":"function","name":"redeem","inputs":[{"name":"amount_","type":"uint256","internalType":"uint256"},{"name":"receiver_","type":"address","internalType":"address"}],"outputs":[],"stateMutability":"nonpayable"},{"type":"event","name":"NewAccountCreated","inputs":[{"name":"account","type":"address","indexed":false,"internalType":"address"}],"anonymous":false},{"type":"error","name":"AddressEmptyCode","inputs":[{"name":"target","type":"address","internalType":"address"}]},{"type":"error","name":"FailedInnerCall","inputs":[]}],"bytecode":{"object":"0x6080604052348015600e575f80fd5b506122a28061001c5f395ff3fe60806040526004361061006e575f3560e01c80635c8abc381161004c5780635c8abc38146100c55780637bde82f2146100e4578063bf92857c14610103578063c4b1810c14610176575f80fd5b80634b3fd148146100725780634e7896a9146100935780634f52db6b146100b2575b5f80fd5b34801561007d575f80fd5b5061009161008c36600461120e565b610195565b005b34801561009e575f80fd5b506100916100ad36600461123c565b610217565b6100916100c0366004611264565b6102e8565b3480156100d0575f80fd5b506100916100df366004611287565b6104ee565b3480156100ef575f80fd5b506100916100fe36600461120e565b610689565b34801561010e575f80fd5b5061012261011d36600461123c565b610973565b60405161016d91905f60c082019050825182526020830151602083015260408301516040830152606083015160608301526080830151608083015260a083015160a083015292915050565b60405180910390f35b348015610181575f80fd5b5061009161019036600461120e565b6109ab565b335f908152601d60205260409081902054601e549151631375877960e31b8152600481018590526001600160a01b03848116602483015291821660448201819052929190911690639bac3bc8906064015f604051808303815f87803b1580156101fc575f80fd5b505af115801561020e573d5f803e3d5ffd5b50505050505050565b6016546040516370a0823160e01b81523060048201525f916001600160a01b0316906370a0823190602401602060405180830381865afa15801561025d573d5f803e3d5ffd5b505050506040513d601f19601f82011682018060405250810190610281919061129e565b6019546040516340c10f1960e01b81526001600160a01b038581166004830152602482018490529293509116906340c10f19906044015f604051808303815f87803b1580156102ce575f80fd5b505af11580156102e0573d5f803e3d5ffd5b505050505050565b6002546001546040805163026b1d5f60e01b815290516001600160a01b03938416939092169163026b1d5f916004808201926020929091908290030181865afa158015610337573d5f803e3d5ffd5b505050506040513d601f19601f8201168201806040525081019061035b91906112b5565b6001600160a01b0316146103f6576001546040805163026b1d5f60e01b815290516001600160a01b039092169163026b1d5f916004808201926020929091908290030181865afa1580156103b1573d5f803e3d5ffd5b505050506040513d601f19601f820116820180604052508101906103d591906112b5565b600280546001600160a01b0319166001600160a01b03929092169190911790555b335f908152601d60205260409020546001600160a01b03168061048d5761041b610c0b565b905061045060405180604001604052806011815260200170024b73a32b93730b620b1b1b7bab73a1d1607d1b81525082610c81565b6040516001600160a01b03821681527fe759fda21527aab212bc806c6b81b4e16add78b260f71442690c536ba1de40cd9060200160405180910390a15b81156104e857806001600160a01b031663de407d8f346040518263ffffffff1660e01b81526004015f604051808303818588803b1580156104cc575f80fd5b505af11580156104de573d5f803e3d5ffd5b5050505050505050565b505b5050565b601c546105335760405162461bcd60e51b815260206004820152600e60248201526d3932b13abca82a1d1032b93937b960911b60448201526064015b60405180910390fd5b6016546040516323b872dd60e01b8152336004820152306024820152604481018390526001600160a01b03909116906323b872dd906064016020604051808303815f875af1158015610587573d5f803e3d5ffd5b505050506040513d601f19601f820116820180604052508101906105ab91906112d0565b50601a546040516370a0823160e01b81523060048201525f916001600160a01b0316906370a0823190602401602060405180830381865afa1580156105f2573d5f803e3d5ffd5b505050506040513d601f19601f82011682018060405250810190610616919061129e565b601a5460405163a9059cbb60e01b8152336004820152602481018390529192506001600160a01b03169063a9059cbb906044016020604051808303815f875af1158015610665573d5f803e3d5ffd5b505050506040513d601f19601f820116820180604052508101906104e891906112d0565b5f80736c9f097e044506712b58eac670c9a5fd4bccef1390506106cc60405180604001604052806008815260200167039b2b73232b91d160c51b81525033610c81565b60408051808201825260168152750282a103130b61037bd1016903839329039bbb0b81d160551b6020820152601a5491516370a0823160e01b8152306004820152610769926001600160a01b0316906370a08231906024015b602060405180830381865afa158015610740573d5f803e3d5ffd5b505050506040513d601f19601f82011682018060405250810190610764919061129e565b610cc6565b6040805180820182526015815274039aaa9a2329037bd1016903839329039bbb0b81d1605d1b602082015260175491516370a0823160e01b81523060048201526107c5926001600160a01b0316906370a0823190602401610725565b6107dc60405180602001604052805f815250610d0b565b6004546005546017545f926001600160a01b039081169263594a88cc923092918216918a9161080c911689610d51565b6040516001600160e01b031960e087901b168152610833949392919060099060040161166c565b6060604051808303815f875af115801561084f573d5f803e3d5ffd5b505050506040513d601f19601f8201168201806040525081019061087391906116bc565b505090506108ac6040518060400160405280601381526020017203732ba2a37b5b2b727baba1039aaa9a2329d1606d1b81525082610cc6565b604080518082018252601781527f50542062616c206f7a202d20706f737420737761703a20000000000000000000602082015290516370a0823160e01b815230600482015261090f91906001600160a01b038516906370a0823190602401610725565b6040805180820182526016815275039aaa9a2329037bd1016903837b9ba1039bbb0b81d160551b602082015260175491516370a0823160e01b815230600482015261096c926001600160a01b0316906370a0823190602401610725565b5050505050565b6109a66040518060c001604052805f81526020015f81526020015f81526020015f81526020015f81526020015f81525090565b919050565b335f908152601d60205260409081902054601e549151631375877960e31b8152600481018590526001600160a01b03848116602483015291821660448201819052929190911690639bac3bc8906064015f604051808303815f87803b158015610a12575f80fd5b505af1158015610a24573d5f803e3d5ffd5b50506016546017546040516370a0823160e01b815230600482018190525f9550859450610aa9936001600160a01b0390811693169183906370a0823190602401602060405180830381865afa158015610a7f573d5f803e3d5ffd5b505050506040513d601f19601f82011682018060405250810190610aa3919061129e565b86610e81565b6017546004805460405163095ea7b360e01b81526001600160a01b03918216928101929092526024820184905292935091169063095ea7b3906044016020604051808303815f875af1158015610b01573d5f803e3d5ffd5b505050506040513d601f19601f82011682018060405250810190610b2591906112d0565b506004546005546017545f9283926001600160a01b039182169263c81f847a9230928116918691600e91610b5a91168a610d51565b6040516001600160e01b031960e088901b168152610b829594939291906009906004016116e7565b6060604051808303815f875af1158015610b9e573d5f803e3d5ffd5b505050506040513d601f19601f82011682018060405250810190610bc291906116bc565b505090505f610bcf610fff565b601c80546001810182555f919091527f0e4562a10381dec21b205ed72637e6b1b523bdd0e4d4d50af5cd23dd4500a21101555050505050505050565b601e546040515f9182916001600160a01b0390911690610c2a90611180565b6001600160a01b039091168152602001604051809103905ff080158015610c53573d5f803e3d5ffd5b50335f908152601d6020526040902080546001600160a01b0319166001600160a01b03831617905592915050565b6104ea8282604051602401610c9792919061175d565b60408051601f198184030181529190526020810180516001600160e01b031663319af33360e01b17905261105d565b6104ea8282604051602401610cdc929190611786565b60408051601f198184030181529190526020810180516001600160e01b03166309710a9d60e41b17905261105d565b610d4e81604051602401610d1f91906117a7565b60408051601f198184030181529190526020810180516001600160e01b031663104c13eb60e21b17905261105d565b50565b610d5961118d565b6040805160a0810182526001600160a01b03851680825260208201859052818301525f606082015281516080818101909352600680549293840192829060ff166003811115610daa57610daa6112eb565b6003811115610dbb57610dbb6112eb565b8152815461010090046001600160a01b03166020820152600182018054604090920191610de790611413565b80601f0160208091040260200160405190810160405280929190818152602001828054610e1390611413565b8015610e5e5780601f10610e3557610100808354040283529160200191610e5e565b820191905f5260205f20905b815481529060010190602001808311610e4157829003601f168201915b50505091835250506002919091015460ff16151560209091015290529392505050565b60405163095ea7b360e01b815273e592427a0aece92de3edee1f18e0157c0586156460048201819052602482018490525f916001600160a01b0388169063095ea7b3906044016020604051808303815f875af1158015610ee3573d5f803e3d5ffd5b505050506040513d601f19601f82011682018060405250810190610f0791906112d0565b506040805160a0810182526018546bffffffffffffffffffffffff1960608b811b821660c0850152607d60ea1b60d4850181905292811b821660d785015260eb84019290925289821b1660ee830152825180830360e20181526101028301845282526001600160a01b038881166020840152428385015290820187905260808201869052915163c04b8d5960e01b81526101f49284169063c04b8d5990610fb29084906004016117b9565b6020604051808303815f875af1158015610fce573d5f803e3d5ffd5b505050506040513d601f19601f82011682018060405250810190610ff2919061129e565b9998505050505050505050565b6040805160048152602481019091526020810180516001600160e01b03166301efa05d60e01b179052601b545f9190611041906001600160a01b031682611066565b905080806020019051810190611057919061129e565b91505090565b610d4e816110d8565b60605f80846001600160a01b0316846040516110829190611810565b5f60405180830381855af49150503d805f81146110ba576040519150601f19603f3d011682016040523d82523d5f602084013e6110bf565b606091505b50915091506110cf8583836110f8565b95945050505050565b80516a636f6e736f6c652e6c6f67602083015f808483855afa5050505050565b60608261110d5761110882611157565b611150565b815115801561112457506001600160a01b0384163b155b1561114d57604051639996b31560e01b81526001600160a01b038516600482015260240161052a565b50805b9392505050565b8051156111675780518082602001fd5b604051630a12f52160e11b815260040160405180910390fd5b610a418061182c83390190565b6040518060a001604052805f6001600160a01b031681526020015f81526020015f6001600160a01b031681526020015f6001600160a01b031681526020016111f56040805160808101909152805f81525f602082018190526060604083018190529091015290565b905290565b6001600160a01b0381168114610d4e575f80fd5b5f806040838503121561121f575f80fd5b823591506020830135611231816111fa565b809150509250929050565b5f6020828403121561124c575f80fd5b8135611150816111fa565b8015158114610d4e575f80fd5b5f8060408385031215611275575f80fd5b82359150602083013561123181611257565b5f60208284031215611297575f80fd5b5035919050565b5f602082840312156112ae575f80fd5b5051919050565b5f602082840312156112c5575f80fd5b8151611150816111fa565b5f602082840312156112e0575f80fd5b815161115081611257565b634e487b7160e01b5f52602160045260245ffd5b60048110610d4e57634e487b7160e01b5f52602160045260245ffd5b5f5b8381101561133557818101518382015260200161131d565b50505f910152565b5f815180845261135481602086016020860161131b565b601f01601f19169290920160200192915050565b60018060a01b0381511682526020810151602083015260018060a01b03604082015116604083015260018060a01b0360608201511660608301525f608082015160a0608085015280516113ba816112ff565b60a085015260208101516001600160a01b031660c08501526040810151608060e08601526113ec61012086018261133d565b905060608201511515610100860152809250505092915050565b61140f816112ff565b9052565b600181811c9082168061142757607f821691505b60208210810361144557634e487b7160e01b5f52602260045260245ffd5b50919050565b80545f90600181811c9082168061146357607f821691505b60208210810361148157634e487b7160e01b5f52602260045260245ffd5b8186526020860181801561149c57600181146114b2576114de565b60ff198516825283151560051b820195506114de565b5f878152602090205f5b858110156114d8578154848201526001909101906020016114bc565b83019650505b505050505092915050565b5f82825480855260208501945060208160051b830101845f5260205f205f5b838110156115fb57601f19858403018852606083528154606084015260018201546080840152600282015460a0840152600382015461154d60c0850160ff8316611406565b6001600160a01b03600891821c811660e0860152600484015481166101008601526005840154811661012086015260068401541661014085015260078301546101608501528201546101808085019190915260098301546101a08501526101c08401526115c16101e08401600a840161144b565b83810360208501526115d681600b850161144b565b600c840154604095909501949094525060209790970196600d90910190600101611508565b50909695505050505050565b80546001600160a01b031682526001810154602083015260a0604083018190525f90611638908401600284016114e9565b838103606085015261164d81600385016114e9565b90508381036080850152611664816004850161144b565b949350505050565b6001600160a01b038681168252851660208201526040810184905260a0606082018190525f9061169e90830185611368565b82810360808401526116b08185611607565b98975050505050505050565b5f805f606084860312156116ce575f80fd5b5050815160208301516040909301519094929350919050565b6001600160a01b03878116825286166020820152604081018590528354606082015260018401546080820152600284015460a0820152600384015460c0820152600484015460e082015261014061010082018190525f9061174a90830185611368565b828103610120840152610ff28185611607565b604081525f61176f604083018561133d565b905060018060a01b03831660208301529392505050565b604081525f611798604083018561133d565b90508260208301529392505050565b602081525f611150602083018461133d565b602081525f825160a060208401526117d460c084018261133d565b905060018060a01b0360208501511660408401526040840151606084015260608401516080840152608084015160a08401528091505092915050565b5f825161182181846020870161131b565b919091019291505056fe6080604052348015600e575f80fd5b50604051610a41380380610a41833981016040819052602b91604e565b5f80546001600160a01b0319166001600160a01b03929092169190911790556079565b5f60208284031215605d575f80fd5b81516001600160a01b03811681146072575f80fd5b9392505050565b6109bb806100865f395ff3fe60806040526004361061003e575f3560e01c806349292abd146100425780638406c07914610063578063de407d8f1461009d578063eb3ff017146100a5575b5f80fd5b34801561004d575f80fd5b5061006161005c3660046107d5565b6100b0565b005b34801561006e575f80fd5b505f54610081906001600160a01b031681565b6040516001600160a01b03909116815260200160405180910390f35b61006161042c565b348015610061575f80fd5b60408051808201909152601a81527f73656e64657220696e20626f72726f77496e7465726e616c3a20000000000000602082015273893411580e590d62ddbca8a703d61cc4a8c7b2b9907387870bca3f3fd6335c3f4ce8392d69350b4fa4e29073a0b86991c6218b36c1d19d4a2e9eb0ce3606eb4890339061013290826106dd565b604080518082018252601a81527f6f7a20757364632062616c202d2070726520626f72726f773a20000000000000602082015290516370a0823160e01b81526001600160a01b038381166004830152600292737c8999dc9a822c1f0df42023113edb4fdd543266926101ef928716906370a08231906024015b602060405180830381865afa1580156101c6573d5f803e3d5ffd5b505050506040513d601f19601f820116820180604052508101906101ea919061080e565b610726565b610237604051806060016040528060228152602001610941602291396040516370a0823160e01b81523060048201526001600160a01b038716906370a08231906024016101ab565b604080518082018252601d81527f6f776e657220757364632062616c202d2070726520626f72726f773a20000000602082015290516370a0823160e01b81526001600160a01b03838116600483015261029d9291908716906370a08231906024016101ab565b60405163a415bcad60e01b81526001600160a01b038581166004830152602482018a9052604482018490525f606483015230608483015286169063a415bcad9060a4015f604051808303815f87803b1580156102f7575f80fd5b505af1158015610309573d5f803e3d5ffd5b5050604080518082018252601b81527f6f7a20757364632062616c202d20706f737420626f72726f773a200000000000602082015290516370a0823160e01b81526001600160a01b0387811660048301526103749450919250908716906370a08231906024016101ab565b6103bc604051806060016040528060238152602001610963602391396040516370a0823160e01b81523060048201526001600160a01b038716906370a08231906024016101ab565b604080518082018252601e81527f6f776e657220757364632062616c202d20706f737420626f72726f773a200000602082015290516370a0823160e01b81526001600160a01b0383811660048301526104229291908716906370a08231906024016101ab565b5050505050505050565b60405163474cf53d60e01b81527387870bca3f3fd6335c3f4ce8392d69350b4fa4e2600482018190523060248301525f604483015273893411580e590d62ddbca8a703d61cc4a8c7b2b991829063474cf53d9034906064015f604051808303818588803b15801561049b575f80fd5b505af11580156104ad573d5f803e3d5ffd5b50505050506104f16040518060400160405280601881526020017f6d73672e73656e646572202d206f7a4469616d6f6e643a200000000000000000815250336106dd565b61051c60405180604001604052806009815260200168034b73a1030b1b19d160bd1b815250306106dd565b604051632fe4a15f60e21b81523060048201525f906001600160a01b0383169063bf92857c9060240160c060405180830381865afa158015610560573d5f803e3d5ffd5b505050506040513d601f19601f820116820180604052508101906105849190610825565b505050925050506105ad6040518060600160405280602f8152602001610912602f913982610726565b6105c460405180602001604052805f81525061076b565b6106026040518060400160405280601781526020017f2d2d2d2064656c656761746520637265646974202d2d2d00000000000000000081525061076b565b61061960405180602001604052805f81525061076b565b61064c60405180604001604052806011815260200170036b9b39739b2b73232b910169037bd1d1607d1b815250336106dd565b5f54604051630c04a8a160e41b81526001600160a01b0390911660048201525f19602482015273c7183455a4c133ae270771860664b6b7ec320bb1907372e95b8931767c79ba4eee721354d6e99a61d00490819063c04a8a10906044015f604051808303815f87803b1580156106c0575f80fd5b505af11580156106d2573d5f803e3d5ffd5b505050505050505050565b61072282826040516024016106f39291906108ae565b60408051601f198184030181529190526020810180516001600160e01b031663319af33360e01b1790526107b1565b5050565b610722828260405160240161073c9291906108d7565b60408051601f198184030181529190526020810180516001600160e01b03166309710a9d60e41b1790526107b1565b6107ae8160405160240161077f91906108f8565b60408051601f198184030181529190526020810180516001600160e01b031663104c13eb60e21b1790526107b1565b50565b6107ae8180516a636f6e736f6c652e6c6f67602083015f808483855afa5050505050565b5f80604083850312156107e6575f80fd5b8235915060208301356001600160a01b0381168114610803575f80fd5b809150509250929050565b5f6020828403121561081e575f80fd5b5051919050565b5f805f805f8060c0878903121561083a575f80fd5b50508451602086015160408701516060880151608089015160a090990151939a929950909790965094509092509050565b5f81518084525f5b8181101561088f57602081850181015186830182015201610873565b505f602082860101526020601f19601f83011685010191505092915050565b604081525f6108c0604083018561086b565b905060018060a01b03831660208301529392505050565b604081525f6108e9604083018561086b565b90508260208301529392505050565b602081525f61090a602083018461086b565b939250505056fe617661696c61626c65426f72726f777342617365202d20696e7420616363202d207072652064656c65676174653a20696e744163636f756e7420757364632062616c202d2070726520626f72726f773a20696e744163636f756e7420757364632062616c202d20706f737420626f72726f773a20a2646970667358221220a923135097ec7a3ac465b60ed092aecd96f2afde135f67fdf67918bdb154774f64736f6c634300081a0033a2646970667358221220fccfff425b2dac364b00bc5731e264f085e8e913ebe50125b0e4257f9266123464736f6c634300081a0033","linkReferences":{}},"methodIdentifiers":{"borrow(uint256,address)":"4b3fd148","borrow2(uint256,address)":"c4b1810c","finishBorrow(address)":"4e7896a9","getUserAccountData(address)":"bf92857c","lend(uint256,bool)":"4f52db6b","rebuyPT(uint256)":"5c8abc38","redeem(uint256,address)":"7bde82f2"},"id":9}