{"abi":[{"type":"function","name":"borrow","inputs":[{"name":"amount_","type":"uint256","internalType":"uint256"}],"outputs":[{"name":"","type":"uint256","internalType":"uint256"}],"stateMutability":"nonpayable"},{"type":"function","name":"lend","inputs":[{"name":"isETH_","type":"bool","internalType":"bool"}],"outputs":[],"stateMutability":"payable"}],"bytecode":{"object":"0x6080604052348015600e575f80fd5b506102708061001c5f395ff3fe608060405260043610610028575f3560e01c806301a155401461002c578063c5ebeaec14610041575b5f80fd5b61003f61003a3660046101d7565b610072565b005b34801561004c575f80fd5b5061006061005b3660046101fd565b610157565b60405190815260200160405180910390f35b6001546040805163026b1d5f60e01b815290515f926001600160a01b03169163026b1d5f9160048083019260209291908290030181865afa1580156100b9573d5f803e3d5ffd5b505050506040513d601f19601f820116820180604052508101906100dd9190610214565b90508115610153575f805460405163474cf53d60e01b81526001600160a01b038481166004830152306024830152604482019390935291169063474cf53d9034906064015f604051808303818588803b158015610138575f80fd5b505af115801561014a573d5f803e3d5ffd5b50505050505050565b5050565b5f805f6001015f9054906101000a90046001600160a01b03166001600160a01b031663026b1d5f6040518163ffffffff1660e01b8152600401602060405180830381865afa1580156101ab573d5f803e3d5ffd5b505050506040513d601f19601f820116820180604052508101906101cf9190610214565b905050919050565b5f602082840312156101e7575f80fd5b813580151581146101f6575f80fd5b9392505050565b5f6020828403121561020d575f80fd5b5035919050565b5f60208284031215610224575f80fd5b81516001600160a01b03811681146101f6575f80fdfea264697066735822122063b61b2ae508f3361f211c08a197f22eb09bf788e2686f342b4932e09b09fc6364736f6c634300081a0033","linkReferences":{}},"methodIdentifiers":{"borrow(uint256)":"c5ebeaec","lend(bool)":"01a15540"},"id":7}