{"abi":[{"type":"function","name":"borrow","inputs":[{"name":"amount_","type":"uint256","internalType":"uint256"},{"name":"receiver_","type":"address","internalType":"address"}],"outputs":[],"stateMutability":"nonpayable"},{"type":"function","name":"finishBorrow","inputs":[{"name":"receiver_","type":"address","internalType":"address"}],"outputs":[],"stateMutability":"nonpayable"},{"type":"function","name":"getUserAccountData","inputs":[{"name":"user_","type":"address","internalType":"address"}],"outputs":[{"name":"userData","type":"tuple","internalType":"struct UserAccountData","components":[{"name":"totalCollateralBase","type":"uint256","internalType":"uint256"},{"name":"totalDebtBase","type":"uint256","internalType":"uint256"},{"name":"availableBorrowsBase","type":"uint256","internalType":"uint256"},{"name":"currentLiquidationThreshold","type":"uint256","internalType":"uint256"},{"name":"ltv","type":"uint256","internalType":"uint256"},{"name":"healthFactor","type":"uint256","internalType":"uint256"}]}],"stateMutability":"view"},{"type":"function","name":"lend","inputs":[{"name":"amountIn_","type":"uint256","internalType":"uint256"},{"name":"isETH_","type":"bool","internalType":"bool"}],"outputs":[],"stateMutability":"payable"},{"type":"function","name":"rebuyPT","inputs":[{"name":"amountInUSDC_","type":"uint256","internalType":"uint256"}],"outputs":[],"stateMutability":"nonpayable"},{"type":"function","name":"redeem","inputs":[{"name":"amount_","type":"uint256","internalType":"uint256"},{"name":"receiver_","type":"address","internalType":"address"}],"outputs":[],"stateMutability":"nonpayable"},{"type":"event","name":"NewAccountCreated","inputs":[{"name":"account","type":"address","indexed":false,"internalType":"address"}],"anonymous":false}],"bytecode":{"object":"0x6080604052348015600e575f80fd5b50611a388061001c5f395ff3fe608060405260043610610054575f3560e01c80634b3fd148146100585780634e7896a9146100795780634f52db6b146100985780635c8abc38146100ab5780637bde82f2146100ca578063bf92857c146100e9575b5f80fd5b348015610063575f80fd5b50610077610072366004611136565b61015c565b005b348015610084575f80fd5b50610077610093366004611164565b610472565b6100776100a6366004611193565b610543565b3480156100b6575f80fd5b506100776100c53660046111b6565b610717565b3480156100d5575f80fd5b506100776100e4366004611136565b6108b1565b3480156100f4575f80fd5b50610108610103366004611164565b610b72565b60405161015391905f60c082019050825182526020830151602083015260408301516040830152606083015160608301526080830151608083015260a083015160a083015292915050565b60405180910390f35b335f908152601e602052604080822054601f549151631375877960e31b8152600481018690526001600160a01b0385811660248301529182166044820181905293929190911690639bac3bc8906064016020604051808303815f875af11580156101c8573d5f803e3d5ffd5b505050506040513d601f19601f820116820180604052508101906101ec91906111cd565b6016546017549192505f918291610212916001600160a01b039182169116308685610c7d565b6017546004805460405163095ea7b360e01b81526001600160a01b03918216928101929092526024820184905292935091169063095ea7b3906044016020604051808303815f875af115801561026a573d5f803e3d5ffd5b505050506040513d601f19601f8201168201806040525081019061028e91906111e4565b506004546005546017545f9283926001600160a01b039182169263c81f847a9230928116918691600e916102c391168a610dfb565b6040516001600160e01b031960e088901b1681526102eb959493929190600990600401611576565b6060604051808303815f875af1158015610307573d5f803e3d5ffd5b505050506040513d601f19601f8201168201806040525081019061032b91906115ec565b505090506103616040518060400160405280601081526020016f03732ba283a27baba1015151515151d160851b81525082610f2d565b601b546040516370a0823160e01b81526001600160a01b0388811660048301525f9216906370a0823190602401602060405180830381865afa1580156103a9573d5f803e3d5ffd5b505050506040513d601f19601f820116820180604052508101906103cd91906111cd565b90506104066040518060400160405280601581526020017403ab9b231903232b13a10169034b73a1030b1b19d1605d1b81525082610f2d565b6019546040516340c10f1960e01b81526001600160a01b038a8116600483015260248201849052909116906340c10f19906044015f604051808303815f87803b158015610451575f80fd5b505af1158015610463573d5f803e3d5ffd5b50505050505050505050505050565b6016546040516370a0823160e01b81523060048201525f916001600160a01b0316906370a0823190602401602060405180830381865afa1580156104b8573d5f803e3d5ffd5b505050506040513d601f19601f820116820180604052508101906104dc91906111cd565b6019546040516340c10f1960e01b81526001600160a01b038581166004830152602482018490529293509116906340c10f19906044015f604051808303815f87803b158015610529575f80fd5b505af115801561053b573d5f803e3d5ffd5b505050505050565b6002546001546040805163026b1d5f60e01b815290516001600160a01b03938416939092169163026b1d5f916004808201926020929091908290030181865afa158015610592573d5f803e3d5ffd5b505050506040513d601f19601f820116820180604052508101906105b69190611617565b6001600160a01b031614610651576001546040805163026b1d5f60e01b815290516001600160a01b039092169163026b1d5f916004808201926020929091908290030181865afa15801561060c573d5f803e3d5ffd5b505050506040513d601f19601f820116820180604052508101906106309190611617565b600280546001600160a01b0319166001600160a01b03929092169190911790555b335f908152601e60205260409020546001600160a01b0316806106b657610676610f72565b6040516001600160a01b03821681529091507fe759fda21527aab212bc806c6b81b4e16add78b260f71442690c536ba1de40cd9060200160405180910390a15b811561071157806001600160a01b031663de407d8f346040518263ffffffff1660e01b81526004015f604051808303818588803b1580156106f5575f80fd5b505af1158015610707573d5f803e3d5ffd5b5050505050505050565b505b5050565b601d5461075b5760405162461bcd60e51b815260206004820152600e60248201526d3932b13abca82a1d1032b93937b960911b604482015260640160405180910390fd5b6016546040516323b872dd60e01b8152336004820152306024820152604481018390526001600160a01b03909116906323b872dd906064016020604051808303815f875af11580156107af573d5f803e3d5ffd5b505050506040513d601f19601f820116820180604052508101906107d391906111e4565b50601a546040516370a0823160e01b81523060048201525f916001600160a01b0316906370a0823190602401602060405180830381865afa15801561081a573d5f803e3d5ffd5b505050506040513d601f19601f8201168201806040525081019061083e91906111cd565b601a5460405163a9059cbb60e01b8152336004820152602481018390529192506001600160a01b03169063a9059cbb906044016020604051808303815f875af115801561088d573d5f803e3d5ffd5b505050506040513d601f19601f8201168201806040525081019061071191906111e4565b60408051808201825260168152750282a103130b61037bd1016903839329039bbb0b81d160551b6020820152601a5491516370a0823160e01b81523060048201525f92736c9f097e044506712b58eac670c9a5fd4bccef13926109689290916001600160a01b0316906370a08231906024015b602060405180830381865afa15801561093f573d5f803e3d5ffd5b505050506040513d601f19601f8201168201806040525081019061096391906111cd565b610f2d565b6040805180820182526015815274039aaa9a2329037bd1016903839329039bbb0b81d1605d1b602082015260175491516370a0823160e01b81523060048201526109c4926001600160a01b0316906370a0823190602401610924565b6109db60405180602001604052805f815250610fe8565b6004546005546017545f926001600160a01b039081169263594a88cc923092918216918a91610a0b911689610dfb565b6040516001600160e01b031960e087901b168152610a329493929190600990600401611632565b6060604051808303815f875af1158015610a4e573d5f803e3d5ffd5b505050506040513d601f19601f82011682018060405250810190610a7291906115ec565b50509050610aab6040518060400160405280601381526020017203732ba2a37b5b2b727baba1039aaa9a2329d1606d1b81525082610f2d565b604080518082018252601781527f50542062616c206f7a202d20706f737420737761703a20000000000000000000602082015290516370a0823160e01b8152306004820152610b0e91906001600160a01b038516906370a0823190602401610924565b6040805180820182526016815275039aaa9a2329037bd1016903837b9ba1039bbb0b81d160551b602082015260175491516370a0823160e01b8152306004820152610b6b926001600160a01b0316906370a0823190602401610924565b5050505050565b610ba56040518060c001604052805f81526020015f81526020015f81526020015f81526020015f81526020015f81525090565b6001600160a01b038281165f908152601e6020526040808220546002549151632fe4a15f60e21b815290841660048201819052938392839283928392839291169063bf92857c9060240160c060405180830381865afa158015610c0a573d5f803e3d5ffd5b505050506040513d601f19601f82011682018060405250810190610c2e9190611682565b9550955095509550955095506040518060c00160405280878152602001868152602001610c5a8661102e565b815260200184815260200183815260200182815250975050505050505050919050565b60405163095ea7b360e01b815273e592427a0aece92de3edee1f18e0157c0586156460048201819052602482018490525f916001600160a01b0388169063095ea7b3906044016020604051808303815f875af1158015610cdf573d5f803e3d5ffd5b505050506040513d601f19601f82011682018060405250810190610d0391906111e4565b506040805160a0810182526018546bffffffffffffffffffffffff1960608b811b821660c0850152607d60ea1b60d4850181905292811b821660d785015260eb84019290925289821b1660ee830152825180830360e20181526101028301845282526001600160a01b038881166020840152428385015290820187905260808201869052915163c04b8d5960e01b81526101f49284169063c04b8d5990610dae9084906004016116c8565b6020604051808303815f875af1158015610dca573d5f803e3d5ffd5b505050506040513d601f19601f82011682018060405250810190610dee91906111cd565b9998505050505050505050565b610e036110a8565b6040805160a0810182526001600160a01b03851680825260208201859052818301525f606082015281516080818101909352600680549293840192829060ff166003811115610e5457610e546111ff565b6003811115610e6557610e656111ff565b8152815461010090046001600160a01b03166020820152600182018054604090920191610e919061131d565b80601f0160208091040260200160405190810160405280929190818152602001828054610ebd9061131d565b8015610f085780601f10610edf57610100808354040283529160200191610f08565b820191905f5260205f20905b815481529060010190602001808311610eeb57829003601f168201915b50505091835250506002919091015460ff161515602090910152905290505b92915050565b6107138282604051602401610f4392919061171f565b60408051601f198184030181529190526020810180516001600160e01b03166309710a9d60e41b179052611064565b601f546040515f9182916001600160a01b0390911690610f9190611115565b6001600160a01b039091168152602001604051809103905ff080158015610fba573d5f803e3d5ffd5b50335f908152601e6020526040902080546001600160a01b0319166001600160a01b03831617905592915050565b61102b81604051602401610ffc9190611740565b60408051601f198184030181529190526020810180516001600160e01b031663104c13eb60e21b179052611064565b50565b5f6064611050836127105f60140154600a6110499190611766565b919061106d565b61105a9084611779565b610f27919061178c565b61102b81611088565b5f825f190484118302158202611081575f80fd5b5091020490565b80516a636f6e736f6c652e6c6f67602083015f808483855afa5050505050565b6040518060a001604052805f6001600160a01b031681526020015f81526020015f6001600160a01b031681526020015f6001600160a01b031681526020016111106040805160808101909152805f81525f602082018190526060604083018190529091015290565b905290565b610257806117ac83390190565b6001600160a01b038116811461102b575f80fd5b5f8060408385031215611147575f80fd5b82359150602083013561115981611122565b809150509250929050565b5f60208284031215611174575f80fd5b813561117f81611122565b9392505050565b801515811461102b575f80fd5b5f80604083850312156111a4575f80fd5b82359150602083013561115981611186565b5f602082840312156111c6575f80fd5b5035919050565b5f602082840312156111dd575f80fd5b5051919050565b5f602082840312156111f4575f80fd5b815161117f81611186565b634e487b7160e01b5f52602160045260245ffd5b6004811061102b57634e487b7160e01b5f52602160045260245ffd5b5f81518084525f5b8181101561125357602081850181015186830182015201611237565b505f602082860101526020601f19601f83011685010191505092915050565b60018060a01b0381511682526020810151602083015260018060a01b03604082015116604083015260018060a01b0360608201511660608301525f608082015160a0608085015280516112c481611213565b60a085015260208101516001600160a01b031660c08501526040810151608060e08601526112f661012086018261122f565b905060608201511515610100860152809250505092915050565b61131981611213565b9052565b600181811c9082168061133157607f821691505b60208210810361134f57634e487b7160e01b5f52602260045260245ffd5b50919050565b80545f90600181811c9082168061136d57607f821691505b60208210810361138b57634e487b7160e01b5f52602260045260245ffd5b818652602086018180156113a657600181146113bc576113e8565b60ff198516825283151560051b820195506113e8565b5f878152602090205f5b858110156113e2578154848201526001909101906020016113c6565b83019650505b505050505092915050565b5f82825480855260208501945060208160051b830101845f5260205f205f5b8381101561150557601f19858403018852606083528154606084015260018201546080840152600282015460a0840152600382015461145760c0850160ff8316611310565b6001600160a01b03600891821c811660e0860152600484015481166101008601526005840154811661012086015260068401541661014085015260078301546101608501528201546101808085019190915260098301546101a08501526101c08401526114cb6101e08401600a8401611355565b83810360208501526114e081600b8501611355565b600c840154604095909501949094525060209790970196600d90910190600101611412565b50909695505050505050565b80546001600160a01b031682526001810154602083015260a0604083018190525f90611542908401600284016113f3565b838103606085015261155781600385016113f3565b9050838103608085015261156e8160048501611355565b949350505050565b6001600160a01b03878116825286166020820152604081018590528354606082015260018401546080820152600284015460a0820152600384015460c0820152600484015460e082015261014061010082018190525f906115d990830185611272565b828103610120840152610dee8185611511565b5f805f606084860312156115fe575f80fd5b5050815160208301516040909301519094929350919050565b5f60208284031215611627575f80fd5b815161117f81611122565b6001600160a01b038681168252851660208201526040810184905260a0606082018190525f9061166490830185611272565b82810360808401526116768185611511565b98975050505050505050565b5f805f805f8060c08789031215611697575f80fd5b50508451602086015160408701516060880151608089015160a090990151939a929950909790965094509092509050565b602081525f825160a060208401526116e360c084018261122f565b905060018060a01b0360208501511660408401526040840151606084015260608401516080840152608084015160a08401528091505092915050565b604081525f611731604083018561122f565b90508260208301529392505050565b602081525f61117f602083018461122f565b634e487b7160e01b5f52601160045260245ffd5b80820180821115610f2757610f27611752565b81810381811115610f2757610f27611752565b5f826117a657634e487b7160e01b5f52601260045260245ffd5b50049056fe6080604052348015600e575f80fd5b50604051610257380380610257833981016040819052602b91604e565b5f80546001600160a01b0319166001600160a01b03929092169190911790556079565b5f60208284031215605d575f80fd5b81516001600160a01b03811681146072575f80fd5b9392505050565b6101d1806100865f395ff3fe608060405260043610610028575f3560e01c80638406c0791461002c578063de407d8f14610066575b5f80fd5b348015610037575f80fd5b505f5461004a906001600160a01b031681565b6040516001600160a01b03909116815260200160405180910390f35b61006e610070565b005b60405163474cf53d60e01b81527387870bca3f3fd6335c3f4ce8392d69350b4fa4e2600482018190523060248301525f604483015273893411580e590d62ddbca8a703d61cc4a8c7b2b991829063474cf53d9034906064015f604051808303818588803b1580156100df575f80fd5b505af11580156100f1573d5f803e3d5ffd5b50505f54604051630c04a8a160e41b81526001600160a01b0390911660048201525f1960248201527372e95b8931767c79ba4eee721354d6e99a61d004935083925063c04a8a1091506044015f604051808303815f87803b158015610154575f80fd5b505af1158015610166573d5f803e3d5ffd5b50506040513492503091507f60ecce3105bf3b202d7a83cd679868ea5fd87b35901b96d3748136fafe323c65905f90a350505056fea2646970667358221220242d550094e1a27e7d80f41e37442a3b6925fcb4bd50f45f24a4a3fd51016b2b64736f6c634300081a0033a2646970667358221220798c5f9c59bd0873386010ce5601c618e155f95874cef531bbf55f62bcbcfbd664736f6c634300081a0033","linkReferences":{}},"methodIdentifiers":{"borrow(uint256,address)":"4b3fd148","finishBorrow(address)":"4e7896a9","getUserAccountData(address)":"bf92857c","lend(uint256,bool)":"4f52db6b","rebuyPT(uint256)":"5c8abc38","redeem(uint256,address)":"7bde82f2"},"id":9}