{"abi":[{"type":"function","name":"borrow","inputs":[{"name":"amount_","type":"uint256","internalType":"uint256"}],"outputs":[],"stateMutability":"nonpayable"},{"type":"function","name":"do_swap","inputs":[],"outputs":[],"stateMutability":"nonpayable"},{"type":"function","name":"lend","inputs":[{"name":"isETH_","type":"bool","internalType":"bool"}],"outputs":[],"stateMutability":"payable"}],"bytecode":{"object":"0x6080604052348015600e575f80fd5b50610dba8061001c5f395ff3fe608060405260043610610033575f3560e01c806301a1554014610037578063c5ebeaec1461004c578063e629c1601461006b575b5f80fd5b61004a61004536600461083a565b610076565b005b348015610057575f80fd5b5061004a61006636600461085c565b6101a5565b34801561004a575f80fd5b60408051808201909152601a81527f61617665506f6f6c50726f766964657220696e206c656e643a2000000000000060208201526001546100c091906001600160a01b0316610460565b6001546040805163026b1d5f60e01b815290515f926001600160a01b03169163026b1d5f9160048083019260209291908290030181865afa158015610107573d5f803e3d5ffd5b505050506040513d601f19601f8201168201806040525081019061012b9190610873565b905081156101a1575f805460405163474cf53d60e01b81526001600160a01b038481166004830152306024830152604482019390935291169063474cf53d9034906064015f604051808303818588803b158015610186575f80fd5b505af1158015610198573d5f803e3d5ffd5b50505050505050565b5050565b6001546040805163026b1d5f60e01b815290515f926001600160a01b03169163026b1d5f9160048083019260209291908290030181865afa1580156101ec573d5f803e3d5ffd5b505050506040513d601f19601f820116820180604052508101906102109190610873565b60135460025460405163a415bcad60e01b81526001600160a01b0392831660048201526024810186905260448101919091525f606482015230608482015291925082169063a415bcad9060a4015f604051808303815f87803b158015610274575f80fd5b505af1158015610286573d5f803e3d5ffd5b50506013546014546040516370a0823160e01b815230600482018190525f955085945061030b936001600160a01b0390811693169183906370a0823190602401602060405180830381865afa1580156102e1573d5f803e3d5ffd5b505050506040513d601f19601f820116820180604052508101906103059190610899565b866104a5565b60145460035460405163095ea7b360e01b81526001600160a01b03918216600482015260248101849052929350169063095ea7b3906044016020604051808303815f875af115801561035f573d5f803e3d5ffd5b505050506040513d601f19601f8201168201806040525081019061038391906108b0565b506003546004546014545f9283926001600160a01b039182169263c81f847a9230928116918691600d916103b891168a610623565b6040516001600160e01b031960e088901b1681526103e0959493929190600890600401610c42565b6060604051808303815f875af11580156103fc573d5f803e3d5ffd5b505050506040513d601f19601f820116820180604052508101906104209190610cb8565b505090506104586040518060400160405280601281526020017103732ba283a27baba10169039aaa9a2329d160751b81525082610753565b505050505050565b6101a18282604051602401610476929190610ce3565b60408051601f198184030181529190526020810180516001600160e01b031663319af33360e01b179052610794565b60405163095ea7b360e01b815273e592427a0aece92de3edee1f18e0157c0586156460048201819052602482018490525f916001600160a01b0388169063095ea7b3906044016020604051808303815f875af1158015610507573d5f803e3d5ffd5b505050506040513d601f19601f8201168201806040525081019061052b91906108b0565b506040805160a0810182526015546bffffffffffffffffffffffff1960608b811b821660c0850152607d60ea1b60d4850181905292811b821660d785015260eb84019290925289821b1660ee830152825180830360e20181526101028301845282526001600160a01b038881166020840152428385015290820187905260808201869052915163c04b8d5960e01b81526101f49284169063c04b8d59906105d6908490600401610d0c565b6020604051808303815f875af11580156105f2573d5f803e3d5ffd5b505050506040513d601f19601f820116820180604052508101906106169190610899565b9998505050505050505050565b61062b6107c0565b6040805160a0810182526001600160a01b03851680825260208201859052818301525f606082015281516080818101909352600580549293840192829060ff16600381111561067c5761067c6108cb565b600381111561068d5761068d6108cb565b8152815461010090046001600160a01b031660208201526001820180546040909201916106b9906109e9565b80601f01602080910402602001604051908101604052809291908181526020018280546106e5906109e9565b80156107305780601f1061070757610100808354040283529160200191610730565b820191905f5260205f20905b81548152906001019060200180831161071357829003601f168201915b50505091835250506002919091015460ff16151560209091015290529392505050565b6101a18282604051602401610769929190610d63565b60408051601f198184030181529190526020810180516001600160e01b03166309710a9d60e41b1790525b61079d816107a0565b50565b80516a636f6e736f6c652e6c6f67602083015f808483855afa5050505050565b6040518060a001604052805f6001600160a01b031681526020015f81526020015f6001600160a01b031681526020015f6001600160a01b031681526020016108286040805160808101909152805f81525f602082018190526060604083018190529091015290565b905290565b801515811461079d575f80fd5b5f6020828403121561084a575f80fd5b81356108558161082d565b9392505050565b5f6020828403121561086c575f80fd5b5035919050565b5f60208284031215610883575f80fd5b81516001600160a01b0381168114610855575f80fd5b5f602082840312156108a9575f80fd5b5051919050565b5f602082840312156108c0575f80fd5b81516108558161082d565b634e487b7160e01b5f52602160045260245ffd5b6004811061079d57634e487b7160e01b5f52602160045260245ffd5b5f81518084525f5b8181101561091f57602081850181015186830182015201610903565b505f602082860101526020601f19601f83011685010191505092915050565b60018060a01b0381511682526020810151602083015260018060a01b03604082015116604083015260018060a01b0360608201511660608301525f608082015160a060808501528051610990816108df565b60a085015260208101516001600160a01b031660c08501526040810151608060e08601526109c26101208601826108fb565b905060608201511515610100860152809250505092915050565b6109e5816108df565b9052565b600181811c908216806109fd57607f821691505b602082108103610a1b57634e487b7160e01b5f52602260045260245ffd5b50919050565b80545f90600181811c90821680610a3957607f821691505b602082108103610a5757634e487b7160e01b5f52602260045260245ffd5b81865260208601818015610a725760018114610a8857610ab4565b60ff198516825283151560051b82019550610ab4565b5f878152602090205f5b85811015610aae57815484820152600190910190602001610a92565b83019650505b505050505092915050565b5f82825480855260208501945060208160051b830101845f5260205f205f5b83811015610bd157601f19858403018852606083528154606084015260018201546080840152600282015460a08401526003820154610b2360c0850160ff83166109dc565b6001600160a01b03600891821c811660e0860152600484015481166101008601526005840154811661012086015260068401541661014085015260078301546101608501528201546101808085019190915260098301546101a08501526101c0840152610b976101e08401600a8401610a21565b8381036020850152610bac81600b8501610a21565b600c840154604095909501949094525060209790970196600d90910190600101610ade565b50909695505050505050565b80546001600160a01b031682526001810154602083015260a0604083018190525f90610c0e90840160028401610abf565b8381036060850152610c238160038501610abf565b90508381036080850152610c3a8160048501610a21565b949350505050565b6001600160a01b03878116825286166020820152604081018590528354606082015260018401546080820152600284015460a0820152600384015460c0820152600484015460e082015261014061010082018190525f90610ca59083018561093e565b8281036101208401526106168185610bdd565b5f805f60608486031215610cca575f80fd5b5050815160208301516040909301519094929350919050565b604081525f610cf560408301856108fb565b905060018060a01b03831660208301529392505050565b602081525f825160a06020840152610d2760c08401826108fb565b905060018060a01b0360208501511660408401526040840151606084015260608401516080840152608084015160a08401528091505092915050565b604081525f610d7560408301856108fb565b9050826020830152939250505056fea26469706673582212202d6522a4290acc8569a64991c2589bb1bf41f733aebf94b16c437adf0dfda74a64736f6c634300081a0033","linkReferences":{}},"methodIdentifiers":{"borrow(uint256)":"c5ebeaec","do_swap()":"e629c160","lend(bool)":"01a15540"},"id":7}