{"abi":[{"type":"function","name":"borrow","inputs":[{"name":"amount_","type":"uint256","internalType":"uint256"},{"name":"receiver_","type":"address","internalType":"address"}],"outputs":[],"stateMutability":"nonpayable"},{"type":"function","name":"finishBorrow","inputs":[{"name":"receiver_","type":"address","internalType":"address"}],"outputs":[],"stateMutability":"nonpayable"},{"type":"function","name":"getUserAccountData","inputs":[{"name":"user_","type":"address","internalType":"address"}],"outputs":[{"name":"userData","type":"tuple","internalType":"struct UserAccountData","components":[{"name":"totalCollateralBase","type":"uint256","internalType":"uint256"},{"name":"totalDebtBase","type":"uint256","internalType":"uint256"},{"name":"availableBorrowsBase","type":"uint256","internalType":"uint256"},{"name":"currentLiquidationThreshold","type":"uint256","internalType":"uint256"},{"name":"ltv","type":"uint256","internalType":"uint256"},{"name":"healthFactor","type":"uint256","internalType":"uint256"}]}],"stateMutability":"view"},{"type":"function","name":"lend","inputs":[{"name":"amountIn_","type":"uint256","internalType":"uint256"},{"name":"isETH_","type":"bool","internalType":"bool"}],"outputs":[],"stateMutability":"payable"},{"type":"function","name":"performRedemption","inputs":[{"name":"amount_","type":"uint256","internalType":"uint256"},{"name":"minAmountOut_","type":"uint256","internalType":"uint256"},{"name":"owner_","type":"address","internalType":"address"},{"name":"receiver_","type":"address","internalType":"address"},{"name":"token_","type":"uint8","internalType":"enum Tokens"}],"outputs":[{"name":"","type":"uint256","internalType":"uint256"}],"stateMutability":"nonpayable"},{"type":"function","name":"rebuyPT","inputs":[{"name":"amountInUSDC_","type":"uint256","internalType":"uint256"}],"outputs":[],"stateMutability":"nonpayable"},{"type":"event","name":"NewAccountCreated","inputs":[{"name":"account","type":"address","indexed":false,"internalType":"address"}],"anonymous":false}],"bytecode":{"object":"0x6080604052348015600e575f80fd5b506128fd8061001c5f395ff3fe608060405260043610610054575f3560e01c80634b3fd148146100585780634e7896a9146100795780634f52db6b146100985780635c8abc38146100ab578063bf92857c146100ca578063f4771c701461013d575b5f80fd5b348015610063575f80fd5b50610077610072366004611d19565b61016a565b005b348015610084575f80fd5b50610077610093366004611d47565b61058d565b6100776100a6366004611d6f565b61065e565b3480156100b6575f80fd5b506100776100c5366004611d92565b610832565b3480156100d5575f80fd5b506100e96100e4366004611d47565b6109cf565b60405161013491905f60c082019050825182526020830151602083015260408301516040830152606083015160608301526080830151608083015260a083015160a083015292915050565b60405180910390f35b348015610148575f80fd5b5061015c610157366004611da9565b610ada565b604051908152602001610134565b335f908152602f6020526040808220546030549151631375877960e31b8152600481018690526001600160a01b0385811660248301529182166044820181905293929190911690639bac3bc8906064016020604051808303815f875af11580156101d6573d5f803e3d5ffd5b505050506040513d601f19601f820116820180604052508101906101fa9190611e07565b602154602c549192505f918291610220916001600160a01b039182169116308685610dbe565b602c546004805460405163095ea7b360e01b81526001600160a01b03918216928101929092526024820184905292935091169063095ea7b3906044016020604051808303815f875af1158015610278573d5f803e3d5ffd5b505050506040513d601f19601f8201168201806040525081019061029c9190611e1e565b506004546005546040805160808101909152600680545f9485946001600160a01b039182169463c81f847a94309492909316928792600e926103d1928c92829060ff1660038111156102f0576102f0611e39565b600381111561030157610301611e39565b8152815461010090046001600160a01b0316602082015260018201805460409092019161032d90611e4d565b80601f016020809104026020016040519081016040528092919081815260200182805461035990611e4d565b80156103a45780601f1061037b576101008083540402835291602001916103a4565b820191905f5260205f20905b81548152906001019060200180831161038757829003601f168201915b50505091835250506002919091015460ff161515602090910152602c546001600160a01b03169190610f3c565b6040516001600160e01b031960e088901b1681526103f99594939291906009906004016121b0565b6060604051808303815f875af1158015610415573d5f803e3d5ffd5b505050506040513d601f19601f820116820180604052508101906104399190612226565b5050905061047c6040518060400160405280601e81526020017f6e657450744f7574202a2a2a2a2a202d206f776e6564206279206f7a3a20000081525082610f7f565b6025546040516370a0823160e01b81526001600160a01b0388811660048301525f9216906370a0823190602401602060405180830381865afa1580156104c4573d5f803e3d5ffd5b505050506040513d601f19601f820116820180604052508101906104e89190611e07565b90506105216040518060400160405280601581526020017403ab9b231903232b13a10169034b73a1030b1b19d1605d1b81525082610f7f565b6023546040516340c10f1960e01b81526001600160a01b038a8116600483015260248201849052909116906340c10f19906044015f604051808303815f87803b15801561056c575f80fd5b505af115801561057e573d5f803e3d5ffd5b50505050505050505050505050565b6021546040516370a0823160e01b81523060048201525f916001600160a01b0316906370a0823190602401602060405180830381865afa1580156105d3573d5f803e3d5ffd5b505050506040513d601f19601f820116820180604052508101906105f79190611e07565b6023546040516340c10f1960e01b81526001600160a01b038581166004830152602482018490529293509116906340c10f19906044015f604051808303815f87803b158015610644575f80fd5b505af1158015610656573d5f803e3d5ffd5b505050505050565b6002546001546040805163026b1d5f60e01b815290516001600160a01b03938416939092169163026b1d5f916004808201926020929091908290030181865afa1580156106ad573d5f803e3d5ffd5b505050506040513d601f19601f820116820180604052508101906106d19190612251565b6001600160a01b03161461076c576001546040805163026b1d5f60e01b815290516001600160a01b039092169163026b1d5f916004808201926020929091908290030181865afa158015610727573d5f803e3d5ffd5b505050506040513d601f19601f8201168201806040525081019061074b9190612251565b600280546001600160a01b0319166001600160a01b03929092169190911790555b335f908152602f60205260409020546001600160a01b0316806107d157610791610fc4565b6040516001600160a01b03821681529091507fe759fda21527aab212bc806c6b81b4e16add78b260f71442690c536ba1de40cd9060200160405180910390a15b811561082c57806001600160a01b031663de407d8f346040518263ffffffff1660e01b81526004015f604051808303818588803b158015610810575f80fd5b505af1158015610822573d5f803e3d5ffd5b5050505050505050565b505b5050565b602e546108765760405162461bcd60e51b815260206004820152600e60248201526d3932b13abca82a1d1032b93937b960911b604482015260640160405180910390fd5b6021546040516323b872dd60e01b8152336004820152306024820152604481018390526001600160a01b03909116906323b872dd906064016020604051808303815f875af11580156108ca573d5f803e3d5ffd5b505050506040513d601f19601f820116820180604052508101906108ee9190611e1e565b50602480546040516370a0823160e01b81523060048201525f926001600160a01b03909216916370a082319101602060405180830381865afa158015610936573d5f803e3d5ffd5b505050506040513d601f19601f8201168201806040525081019061095a9190611e07565b6024805460405163a9059cbb60e01b81523360048201529182018390529192506001600160a01b039091169063a9059cbb906044016020604051808303815f875af11580156109ab573d5f803e3d5ffd5b505050506040513d601f19601f8201168201806040525081019061082c9190611e1e565b610a026040518060c001604052805f81526020015f81526020015f81526020015f81526020015f81526020015f81525090565b6001600160a01b038281165f908152602f6020526040808220546002549151632fe4a15f60e21b815290841660048201819052938392839283928392839291169063bf92857c9060240160c060405180830381865afa158015610a67573d5f803e3d5ffd5b505050506040513d601f19601f82011682018060405250810190610a8b919061226c565b9550955095509550955095506040518060c00160405280878152602001868152602001610ab78661103a565b815260200184815260200183815260200182815250975050505050505050919050565b60048054600554602480546040516370a0823160e01b8152309581018690525f9586956001600160a01b039081169563594a88cc959294908216939116916370a082319101602060405180830381865afa158015610b3a573d5f803e3d5ffd5b505050506040513d601f19601f82011682018060405250810190610b5e9190611e07565b604080516080810190915260068054610b8b928e929091829060ff1660038111156102f0576102f0611e39565b6040516001600160e01b031960e087901b168152610bb294939291906009906004016122b2565b6060604051808303815f875af1158015610bce573d5f803e3d5ffd5b505050506040513d601f19601f82011682018060405250810190610bf29190612226565b5090915060089050836008811115610c0c57610c0c611e39565b03610c8d57602c5460405163a9059cbb60e01b81526001600160a01b038681166004830152602482018490529091169063a9059cbb906044016020604051808303815f875af1158015610c61573d5f803e3d5ffd5b505050506040513d601f19601f82011682018060405250810190610c859190611e1e565b509050610db5565b5f805f610ca1610c9c87611076565b61119e565b602c5460185460405163095ea7b360e01b81526001600160a01b039182166004820152602481018a9052949750929550909350169063095ea7b3906044016020604051808303815f875af1158015610cfb573d5f803e3d5ffd5b505050506040513d601f19601f82011682018060405250810190610d1f9190611e1e565b505f806018015f9054906101000a90046001600160a01b03166001600160a01b031663c872a3c58585888e878e6040518763ffffffff1660e01b8152600401610d6d9695949392919061237c565b6020604051808303815f875af1158015610d89573d5f803e3d5ffd5b505050506040513d601f19601f82011682018060405250810190610dad9190611e07565b955050505050505b95945050505050565b60405163095ea7b360e01b815273e592427a0aece92de3edee1f18e0157c0586156460048201819052602482018490525f916001600160a01b0388169063095ea7b3906044016020604051808303815f875af1158015610e20573d5f803e3d5ffd5b505050506040513d601f19601f82011682018060405250810190610e449190611e1e565b506040805160a0810182526022546bffffffffffffffffffffffff1960608b811b821660c0850152607d60ea1b60d4850181905292811b821660d785015260eb84019290925289821b1660ee830152825180830360e20181526101028301845282526001600160a01b038881166020840152428385015290820187905260808201869052915163c04b8d5960e01b81526101f49284169063c04b8d5990610eef9084906004016123f7565b6020604051808303815f875af1158015610f0b573d5f803e3d5ffd5b505050506040513d601f19601f82011682018060405250810190610f2f9190611e07565b9998505050505050505050565b610f44611c21565b506040805160a0810182526001600160a01b03851680825260208201859052918101919091525f6060820152608081018290525b9392505050565b61082e8282604051602401610f9592919061244e565b60408051601f198184030181529190526020810180516001600160e01b03166309710a9d60e41b1790526112e6565b6030546040515f9182916001600160a01b0390911690610fe390611c8e565b6001600160a01b039091168152602001604051809103905ff08015801561100c573d5f803e3d5ffd5b50335f908152602f6020526040902080546001600160a01b0319166001600160a01b03831617905592915050565b5f606461105c836127105f60140154600a6110559190612483565b91906112f2565b6110669084612496565b61107091906124a9565b92915050565b5f600582600881111561108b5761108b611e39565b036110a15750506029546001600160a01b031690565b60068260088111156110b5576110b5611e39565b036110cb575050602a546001600160a01b031690565b60038260088111156110df576110df611e39565b036110f55750506021546001600160a01b031690565b5f82600881111561110857611108611e39565b0361111e5750506028546001600160a01b031690565b600782600881111561113257611132611e39565b03611148575050602b546001600160a01b031690565b600282600881111561115c5761115c611e39565b036111725750506026546001600160a01b031690565b600882600881111561118657611186611e39565b036111995750602c546001600160a01b03165b919050565b6111a6611c9b565b6111ae611cba565b6111b6611ce7565b5f60606111c28261130d565b602a5492975090955091506001600160a01b03908116908716036111f6576111eb82825f61138c565b5090955093506112dd565b6021546001600160a01b038781169116148061121f57506026546001600160a01b038781169116145b1561124f576112308282600161138c565b92508391506112409050816124c8565b9250506111eb82825f89611401565b6028546001600160a01b03878116911614806112785750602b546001600160a01b038781169116145b156112dd576112898282600161138c565b92508391506112999050816124c8565b6021549093506112b99150839083906001906001600160a01b0316611401565b92508391506112c99050816124c8565b9250506112d78287836114a6565b90955093505b50509193909250565b6112ef816114e6565b50565b5f825f190484118302158202611306575f80fd5b5091020490565b611315611c9b565b61131d611cba565b601b54602c54602954604080515f8082526020820190925260609461135c94929389936001600160a01b03928316939083169290911690600190611506565b604051919450925061137490849084906020016124e0565b60405160208183030381529060405290509193909250565b611394611c9b565b61139c611cba565b601c54602954602a546060926113c8926003928a926001600160a01b0390811692811691165f8b611506565b909350915083156113f85782826040516020016113e69291906124e0565b60405160208183030381529060405290505b93509350939050565b611409611c9b565b611411611cba565b6021546060905f906001600160a01b0386811691161461143c57601f546001600160a01b0316611449565b601d546001600160a01b03165b602a5490915061146b906005908a9084906001600160a01b0316895f8d611506565b9094509250851561149b5783836040516020016114899291906124e0565b60405160208183030381529060405291505b509450945094915050565b6114ae611c9b565b6114b6611cba565b601e546021546114da9160079188916001600160a01b039081169116885f89611506565b90969095509350505050565b80516a636f6e736f6c652e6c6f67602083015f808483855afa5050505050565b61150e611c9b565b611516611cba565b5f8061152185611684565b9150915085156115b65787828c600b811061153e5761153e6124fd565b6001600160a01b039092166020929092020152888261155e8d6001612483565b600b811061156e5761156e6124fd565b6001600160a01b039092166020929092020152868261158e8d6002612483565b600b811061159e5761159e6124fd565b6001600160a01b039092166020929092020152611626565b848060200190518101906115ca919061254e565b909250905088828c600b81106115e2576115e26124fd565b6001600160a01b03909216602092909202015286826116028d6001612483565b600b8110611612576116126124fd565b6001600160a01b0390921660209290920201525b5f6116328b6002612483565b61163c908d61264a565b90505f80821261164c578161164e565b5f5b905061165b8b8b8b6116ba565b83826005811061166d5761166d6124fd565b602002015250919b909a5098505050505050505050565b61168c611c9b565b611694611cba565b8251156116b557828060200190518101906116af919061254e565b90925090505b915091565b6116c2611ce7565b6116cc601f611bdc565b60405163c661065760e01b8152600260048201525f906001600160a01b0386169063c661065790602401602060405180830381865afa92505050801561172f575060408051601f3d908101601f1916820190925261172c91810190612251565b60015b61173b5750600261173d565b505b806002036117e85761174f6004611bdc565b60405163c661065760e01b81525f60048201526001600160a01b03808616919087169063c661065790602401602060405180830381865afa158015611796573d5f803e3d5ffd5b505050506040513d601f19601f820116820180604052508101906117ba9190612251565b6001600160a01b0316036117da575f8252600182815b6020020152611b1c565b60018083525f9083906117d0565b6117f26005611bdc565b60405163c661065760e01b81525f60048201526001600160a01b03808616919087169063c661065790602401602060405180830381865afa158015611839573d5f803e3d5ffd5b505050506040513d601f19601f8201168201806040525081019061185d9190612251565b6001600160a01b031603611879575f82815b602002015261197b565b60405163c661065760e01b8152600160048201526001600160a01b03808616919087169063c661065790602401602060405180830381865afa1580156118c1573d5f803e3d5ffd5b505050506040513d601f19601f820116820180604052508101906118e59190612251565b6001600160a01b0316036118fc576001825f61186f565b60405163c661065760e01b8152600260048201526001600160a01b03808616919087169063c661065790602401602060405180830381865afa158015611944573d5f803e3d5ffd5b505050506040513d601f19601f820116820180604052508101906119689190612251565b6001600160a01b03160361197b57600282525b6119856006611bdc565b60405163c661065760e01b81525f60048201526001600160a01b03808516919087169063c661065790602401602060405180830381865afa1580156119cc573d5f803e3d5ffd5b505050506040513d601f19601f820116820180604052508101906119f09190612251565b6001600160a01b031603611a0d575f8260015b6020020152611b12565b60405163c661065760e01b8152600160048201526001600160a01b03808516919087169063c661065790602401602060405180830381865afa158015611a55573d5f803e3d5ffd5b505050506040513d601f19601f82011682018060405250810190611a799190612251565b6001600160a01b031603611a905760018281611a03565b60405163c661065760e01b8152600260048201526001600160a01b03808516919087169063c661065790602401602060405180830381865afa158015611ad8573d5f803e3d5ffd5b505050506040513d601f19601f82011682018060405250810190611afc9190612251565b6001600160a01b031603611b1257600260208301525b611b1c6007611bdc565b60016040830152602c546001600160a01b0385811691161480611b4c5750602a546001600160a01b038581169116145b15611b5e5760015b6060830152611b99565b6029546001600160a01b0390811690851603611b7b576001611b54565b6021546001600160a01b0390811690851603611b9957600360608301525b611ba36008611bdc565b601e546001600160a01b03868116911614611bbf576002611bc2565b60035b60ff166080830152611bd46009611bdc565b509392505050565b6112ef81604051602401611bf291815260200190565b60408051601f198184030181529190526020810180516001600160e01b031663f5b1bba960e01b1790526112e6565b6040518060a001604052805f6001600160a01b031681526020015f81526020015f6001600160a01b031681526020015f6001600160a01b03168152602001611c896040805160808101909152805f81525f602082018190526060604083018190529091015290565b905290565b6102578061267183390190565b604051806101600160405280600b906020820280368337509192915050565b6040518060a001604052806005905b611cd1611ce7565b815260200190600190039081611cc95790505090565b6040518060a001604052806005906020820280368337509192915050565b6001600160a01b03811681146112ef575f80fd5b5f8060408385031215611d2a575f80fd5b823591506020830135611d3c81611d05565b809150509250929050565b5f60208284031215611d57575f80fd5b8135610f7881611d05565b80151581146112ef575f80fd5b5f8060408385031215611d80575f80fd5b823591506020830135611d3c81611d62565b5f60208284031215611da2575f80fd5b5035919050565b5f805f805f60a08688031215611dbd575f80fd5b85359450602086013593506040860135611dd681611d05565b92506060860135611de681611d05565b9150608086013560098110611df9575f80fd5b809150509295509295909350565b5f60208284031215611e17575f80fd5b5051919050565b5f60208284031215611e2e575f80fd5b8151610f7881611d62565b634e487b7160e01b5f52602160045260245ffd5b600181811c90821680611e6157607f821691505b602082108103611e7f57634e487b7160e01b5f52602260045260245ffd5b50919050565b600481106112ef57634e487b7160e01b5f52602160045260245ffd5b5f81518084525f5b81811015611ec557602081850181015186830182015201611ea9565b505f602082860101526020601f19601f83011685010191505092915050565b60018060a01b0381511682526020810151602083015260018060a01b03604082015116604083015260018060a01b0360608201511660608301525f608082015160a060808501528051611f3681611e85565b60a085015260208101516001600160a01b031660c08501526040810151608060e0860152611f68610120860182611ea1565b905060608201511515610100860152809250505092915050565b611f8b81611e85565b9052565b80545f90600181811c90821680611fa757607f821691505b602082108103611fc557634e487b7160e01b5f52602260045260245ffd5b81865260208601818015611fe05760018114611ff657612022565b60ff198516825283151560051b82019550612022565b5f878152602090205f5b8581101561201c57815484820152600190910190602001612000565b83019650505b505050505092915050565b5f82825480855260208501945060208160051b830101845f5260205f205f5b8381101561213f57601f19858403018852606083528154606084015260018201546080840152600282015460a0840152600382015461209160c0850160ff8316611f82565b6001600160a01b03600891821c811660e0860152600484015481166101008601526005840154811661012086015260068401541661014085015260078301546101608501528201546101808085019190915260098301546101a08501526101c08401526121056101e08401600a8401611f8f565b838103602085015261211a81600b8501611f8f565b600c840154604095909501949094525060209790970196600d9091019060010161204c565b50909695505050505050565b80546001600160a01b031682526001810154602083015260a0604083018190525f9061217c9084016002840161202d565b8381036060850152612191816003850161202d565b905083810360808501526121a88160048501611f8f565b949350505050565b6001600160a01b03878116825286166020820152604081018590528354606082015260018401546080820152600284015460a0820152600384015460c0820152600484015460e082015261014061010082018190525f9061221390830185611ee4565b828103610120840152610f2f818561214b565b5f805f60608486031215612238575f80fd5b5050815160208301516040909301519094929350919050565b5f60208284031215612261575f80fd5b8151610f7881611d05565b5f805f805f8060c08789031215612281575f80fd5b50508451602086015160408701516060880151608089015160a090990151939a929950909790965094509092509050565b6001600160a01b038681168252851660208201526040810184905260a0606082018190525f906122e490830185611ee4565b82810360808401526122f6818561214b565b98975050505050505050565b805f5b600b81101561232d5781516001600160a01b0316845260209384019390910190600101612305565b50505050565b805f5b600581101561232d578151845f5b6005811015612363578251825260209283019290910190600101612344565b50505060a0939093019260209190910190600101612336565b610580810161238b8289612302565b612399610160830188612333565b85610480830152846104a08301526104c08201845f5b60058110156123d75781516001600160a01b03168352602092830192909101906001016123af565b5050506001600160a01b0392909216610560919091015295945050505050565b602081525f825160a0602084015261241260c0840182611ea1565b905060018060a01b0360208501511660408401526040840151606084015260608401516080840152608084015160a08401528091505092915050565b604081525f6124606040830185611ea1565b90508260208301529392505050565b634e487b7160e01b5f52601160045260245ffd5b808201808211156110705761107061246f565b818103818111156110705761107061246f565b5f826124c357634e487b7160e01b5f52601260045260245ffd5b500490565b5f600182016124d9576124d961246f565b5060010190565b61048081016124ef8285612302565b610f78610160830184612333565b634e487b7160e01b5f52603260045260245ffd5b604051601f8201601f1916810167ffffffffffffffff8111828210171561254657634e487b7160e01b5f52604160045260245ffd5b604052919050565b5f806104808385031215612560575f80fd5b83601f84011261256e575f80fd5b61016061257a81612511565b90840190808683111561258b575f80fd5b855b838110156125ae5780516125a081611d05565b83526020928301920161258d565b5093505061017f840185136125c1575f80fd5b60a06125cc81612511565b806104808701888111156125de575f80fd5b8085101561263b5788601f8601126125f4575f80fd5b6125fd84612511565b808587018b81111561260d575f80fd5b875b8181101561262757805184526020938401930161260f565b5050845250938301936020909201916125de565b50809450505050509250929050565b8181035f8312801583831316838312821617156126695761266961246f565b509291505056fe6080604052348015600e575f80fd5b50604051610257380380610257833981016040819052602b91604e565b5f80546001600160a01b0319166001600160a01b03929092169190911790556079565b5f60208284031215605d575f80fd5b81516001600160a01b03811681146072575f80fd5b9392505050565b6101d1806100865f395ff3fe608060405260043610610028575f3560e01c80638406c0791461002c578063de407d8f14610066575b5f80fd5b348015610037575f80fd5b505f5461004a906001600160a01b031681565b6040516001600160a01b03909116815260200160405180910390f35b61006e610070565b005b60405163474cf53d60e01b81527387870bca3f3fd6335c3f4ce8392d69350b4fa4e2600482018190523060248301525f604483015273893411580e590d62ddbca8a703d61cc4a8c7b2b991829063474cf53d9034906064015f604051808303818588803b1580156100df575f80fd5b505af11580156100f1573d5f803e3d5ffd5b50505f54604051630c04a8a160e41b81526001600160a01b0390911660048201525f1960248201527372e95b8931767c79ba4eee721354d6e99a61d004935083925063c04a8a1091506044015f604051808303815f87803b158015610154575f80fd5b505af1158015610166573d5f803e3d5ffd5b50506040513492503091507f60ecce3105bf3b202d7a83cd679868ea5fd87b35901b96d3748136fafe323c65905f90a350505056fea26469706673582212204f09b60a4ad56b9a64ffed687fd5a66eedcc18b17abad5c3408c0ee25ba3fb9364736f6c634300081a0033a264697066735822122046af6cb86761339e4cf70da6e63cb723768ee9eacdfbc114077246538371519164736f6c634300081a0033","linkReferences":{}},"methodIdentifiers":{"borrow(uint256,address)":"4b3fd148","finishBorrow(address)":"4e7896a9","getUserAccountData(address)":"bf92857c","lend(uint256,bool)":"4f52db6b","performRedemption(uint256,uint256,address,address,uint8)":"f4771c70","rebuyPT(uint256)":"5c8abc38"},"id":9}