{"abi":[{"type":"function","name":"borrow","inputs":[{"name":"amount_","type":"uint256","internalType":"uint256"},{"name":"receiver_","type":"address","internalType":"address"}],"outputs":[],"stateMutability":"nonpayable"},{"type":"function","name":"getUserAccountData","inputs":[{"name":"user_","type":"address","internalType":"address"}],"outputs":[{"name":"userData","type":"tuple","internalType":"struct UserAccountData","components":[{"name":"totalCollateralBase","type":"uint256","internalType":"uint256"},{"name":"totalDebtBase","type":"uint256","internalType":"uint256"},{"name":"availableBorrowsBase","type":"uint256","internalType":"uint256"},{"name":"currentLiquidationThreshold","type":"uint256","internalType":"uint256"},{"name":"ltv","type":"uint256","internalType":"uint256"},{"name":"healthFactor","type":"uint256","internalType":"uint256"}]}],"stateMutability":"view"},{"type":"function","name":"lend","inputs":[{"name":"amountIn_","type":"uint256","internalType":"uint256"},{"name":"isETH_","type":"bool","internalType":"bool"}],"outputs":[],"stateMutability":"payable"},{"type":"function","name":"performRedemption","inputs":[{"name":"amount_","type":"uint256","internalType":"uint256"},{"name":"minAmountOut_","type":"uint256","internalType":"uint256"},{"name":"owner_","type":"address","internalType":"address"},{"name":"receiver_","type":"address","internalType":"address"},{"name":"token_","type":"uint8","internalType":"enum Tokens"}],"outputs":[{"name":"","type":"uint256","internalType":"uint256"}],"stateMutability":"nonpayable"},{"type":"event","name":"NewAccountCreated","inputs":[{"name":"account","type":"address","indexed":false,"internalType":"address"}],"anonymous":false}],"bytecode":{"object":"0x6080604052348015600e575f80fd5b50611d158061001c5f395ff3fe60806040526004361061003e575f3560e01c80634b3fd148146100425780634f52db6b14610063578063bf92857c14610076578063f4771c70146100e9575b5f80fd5b34801561004d575f80fd5b5061006161005c366004611305565b610116565b005b610061610071366004611340565b6104ce565b348015610081575f80fd5b50610095610090366004611363565b6106ea565b6040516100e091905f60c082019050825182526020830151602083015260408301516040830152606083015160608301526080830151608083015260a083015160a083015292915050565b60405180910390f35b3480156100f4575f80fd5b50610108610103366004611385565b6107f6565b6040519081526020016100e0565b335f908152610125602052604080822054610126549151631375877960e31b8152600481018690526001600160a01b0385811660248301529182166044820181905293929190911690639bac3bc8906064016020604051808303815f875af1158015610184573d5f803e3d5ffd5b505050506040513d601f19601f820116820180604052508101906101a891906113e3565b61011754610122549192505f9182916101d0916001600160a01b039182169116308685610ac6565b610122546004805460405163095ea7b360e01b81526001600160a01b03918216928101929092526024820184905292935091169063095ea7b3906044016020604051808303815f875af1158015610229573d5f803e3d5ffd5b505050506040513d601f19601f8201168201806040525081019061024d91906113fa565b506004546005546040805160808101909152600680545f9485946001600160a01b039182169463c81f847a94309492909316928792600e92610383928c92829060ff1660038111156102a1576102a1611415565b60038111156102b2576102b2611415565b8152815461010090046001600160a01b031660208201526001820180546040909201916102de90611429565b80601f016020809104026020016040519081016040528092919081815260200182805461030a90611429565b80156103555780601f1061032c57610100808354040283529160200191610355565b820191905f5260205f20905b81548152906001019060200180831161033857829003601f168201915b50505091835250506002919091015460ff161515602090910152610122546001600160a01b03169190610bf8565b6040516001600160e01b031960e088901b1681526103ab95949392919060099060040161178c565b6060604051808303815f875af11580156103c7573d5f803e3d5ffd5b505050506040513d601f19601f820116820180604052508101906103eb919061180f565b505061011b546040516370a0823160e01b81526001600160a01b0389811660048301529293505f92909116906370a0823190602401602060405180830381865afa15801561043b573d5f803e3d5ffd5b505050506040513d601f19601f8201168201806040525081019061045f91906113e3565b610119546040516340c10f1960e01b81526001600160a01b038b81166004830152602482018490529293509116906340c10f19906044015f604051808303815f87803b1580156104ad575f80fd5b505af11580156104bf573d5f803e3d5ffd5b50505050505050505050505050565b6002546001546040805163026b1d5f60e01b815290516001600160a01b03938416939092169163026b1d5f916004808201926020929091908290030181865afa15801561051d573d5f803e3d5ffd5b505050506040513d601f19601f82011682018060405250810190610541919061183a565b6001600160a01b0316146105dc576001546040805163026b1d5f60e01b815290516001600160a01b039092169163026b1d5f916004808201926020929091908290030181865afa158015610597573d5f803e3d5ffd5b505050506040513d601f19601f820116820180604052508101906105bb919061183a565b600280546001600160a01b0319166001600160a01b03929092169190911790555b3482146106245760405162461bcd60e51b8152602060048201526012602482015271383aba10309031bab9ba37b69032b93937b960711b604482015260640160405180910390fd5b335f90815261012560205260409020546001600160a01b03168061068a5761064a610c36565b6040516001600160a01b03821681529091507fe759fda21527aab212bc806c6b81b4e16add78b260f71442690c536ba1de40cd9060200160405180910390a15b81156106e557806001600160a01b031663de407d8f346040518263ffffffff1660e01b81526004015f604051808303818588803b1580156106c9575f80fd5b505af11580156106db573d5f803e3d5ffd5b5050505050505050565b505050565b61071d6040518060c001604052805f81526020015f81526020015f81526020015f81526020015f81526020015f81525090565b6001600160a01b038281165f9081526101256020526040808220546002549151632fe4a15f60e21b815290841660048201819052938392839283928392839291169063bf92857c9060240160c060405180830381865afa158015610783573d5f803e3d5ffd5b505050506040513d601f19601f820116820180604052508101906107a79190611855565b9550955095509550955095506040518060c001604052808781526020018681526020016107d386610cae565b815260200184815260200183815260200182815250975050505050505050919050565b6004805460055461011a546040516370a0823160e01b8152309481018590525f9485946001600160a01b039081169463594a88cc9492939082169291909116906370a0823190602401602060405180830381865afa15801561085a573d5f803e3d5ffd5b505050506040513d601f19601f8201168201806040525081019061087e91906113e3565b6040805160808101909152600680546108ab928e929091829060ff1660038111156102a1576102a1611415565b6040516001600160e01b031960e087901b1681526108d2949392919060099060040161189b565b6060604051808303815f875af11580156108ee573d5f803e3d5ffd5b505050506040513d601f19601f82011682018060405250810190610912919061180f565b509091506008905083600881111561092c5761092c611415565b036109ae576101225460405163a9059cbb60e01b81526001600160a01b038681166004830152602482018490529091169063a9059cbb906044016020604051808303815f875af1158015610982573d5f803e3d5ffd5b505050506040513d601f19601f820116820180604052508101906109a691906113fa565b509050610abd565b5f6109b884610cea565b6101225460185460405163095ea7b360e01b81526001600160a01b03918216600482015260248101869052929350169063095ea7b3906044016020604051808303815f875af1158015610a0d573d5f803e3d5ffd5b505050506040513d601f19601f82011682018060405250810190610a3191906113fa565b5060185481516020830151604080850151905163c872a3c560e01b81525f946001600160a01b03169363c872a3c593610a77939192909189918f91908e9060040161191c565b6020604051808303815f875af1158015610a93573d5f803e3d5ffd5b505050506040513d601f19601f82011682018060405250810190610ab791906113e3565b93505050505b95945050505050565b60405163095ea7b360e01b815273e592427a0aece92de3edee1f18e0157c0586156460048201819052602482018490525f916001600160a01b0388169063095ea7b3906044016020604051808303815f875af1158015610b28573d5f803e3d5ffd5b505050506040513d601f19601f82011682018060405250810190610b4c91906113fa565b506040805160a081018252610118546bffffffffffffffffffffffff1960608b811b821660c0850152607d60ea1b60d4850181905292811b821660d785015260eb84019290925289821b1660ee830152825180830360e20181526101028301845282526001600160a01b038881166020840152428385015290820187905260808201869052915163c04b8d5960e01b81526101f49284169063c04b8d5990610a779084906004016119d8565b610c006111dd565b506040805160a0810182526001600160a01b039490941680855260208501939093528301919091525f6060830152608082015290565b610126546040515f9182916001600160a01b0390911690610c569061124a565b6001600160a01b039091168152602001604051809103905ff080158015610c7f573d5f803e3d5ffd5b50335f9081526101256020526040902080546001600160a01b0319166001600160a01b03831617905592915050565b5f6064610cd0836127105f60140154600a610cc99190611a43565b91906111c2565b610cda9084611a56565b610ce49190611a69565b92915050565b610cf2611257565b6005826008811115610d0657610d06611415565b03610e0357604080516101c081019091526020816060810182600b8282826020028201915b81546001600160a01b03168152600190910190602001808311610d2b5750505091835250506040805160a08101909152602090910190600b830160055f835b82821015610db1576040805160a081019182905290600584810287019182845b815481526020019060010190808311610d8a57505050505081526020019060010190610d6a565b505050908252506040805160a081019182905260209092019190602484019060059082845b81546001600160a01b03168152600190910190602001808311610dd6575050505050815250509050919050565b6006826008811115610e1757610e17611415565b03610ec257604080516101c081019091526049816060810182600b8282826020028201915b81546001600160a01b03168152600190910190602001808311610e3c5750505091835250506040805160a08101909152602090910190600b830160055f835b82821015610db1576040805160a081019182905290600584810287019182845b815481526020019060010190808311610e9b57505050505081526020019060010190610e7b565b6003826008811115610ed657610ed6611415565b03610f8157604080516101c081019091526072816060810182600b8282826020028201915b81546001600160a01b03168152600190910190602001808311610efb5750505091835250506040805160a08101909152602090910190600b830160055f835b82821015610db1576040805160a081019182905290600584810287019182845b815481526020019060010190808311610f5a57505050505081526020019060010190610f3a565b6002826008811115610f9557610f95611415565b0361104057604080516101c08101909152609b816060810182600b8282826020028201915b81546001600160a01b03168152600190910190602001808311610fba5750505091835250506040805160a08101909152602090910190600b830160055f835b82821015610db1576040805160a081019182905290600584810287019182845b81548152602001906001019080831161101957505050505081526020019060010190610ff9565b5f82600881111561105357611053611415565b036110fe57604080516101c0810190915260c4816060810182600b8282826020028201915b81546001600160a01b031681526001909101906020018083116110785750505091835250506040805160a08101909152602090910190600b830160055f835b82821015610db1576040805160a081019182905290600584810287019182845b8154815260200190600101908083116110d7575050505050815260200190600101906110b7565b600782600881111561111257611112611415565b036111bd57604080516101c0810190915260ed816060810182600b8282826020028201915b81546001600160a01b031681526001909101906020018083116111375750505091835250506040805160a08101909152602090910190600b830160055f835b82821015610db1576040805160a081019182905290600584810287019182845b81548152602001906001019080831161119657505050505081526020019060010190611176565b919050565b5f825f1904841183021582026111d6575f80fd5b5091020490565b6040518060a001604052805f6001600160a01b031681526020015f81526020015f6001600160a01b031681526020015f6001600160a01b031681526020016112456040805160808101909152805f81525f602082018190526060604083018190529091015290565b905290565b61025780611a8983390190565b604051806060016040528061126a611284565b81526020016112776112a3565b81526020016112456112d0565b604051806101600160405280600b906020820280368337509192915050565b6040518060a001604052806005905b6112ba6112d0565b8152602001906001900390816112b25790505090565b6040518060a001604052806005906020820280368337509192915050565b6001600160a01b0381168114611302575f80fd5b50565b5f8060408385031215611316575f80fd5b823591506020830135611328816112ee565b809150509250929050565b8015158114611302575f80fd5b5f8060408385031215611351575f80fd5b82359150602083013561132881611333565b5f60208284031215611373575f80fd5b813561137e816112ee565b9392505050565b5f805f805f60a08688031215611399575f80fd5b853594506020860135935060408601356113b2816112ee565b925060608601356113c2816112ee565b91506080860135600981106113d5575f80fd5b809150509295509295909350565b5f602082840312156113f3575f80fd5b5051919050565b5f6020828403121561140a575f80fd5b815161137e81611333565b634e487b7160e01b5f52602160045260245ffd5b600181811c9082168061143d57607f821691505b60208210810361145b57634e487b7160e01b5f52602260045260245ffd5b50919050565b6004811061130257634e487b7160e01b5f52602160045260245ffd5b5f81518084525f5b818110156114a157602081850181015186830182015201611485565b505f602082860101526020601f19601f83011685010191505092915050565b60018060a01b0381511682526020810151602083015260018060a01b03604082015116604083015260018060a01b0360608201511660608301525f608082015160a06080850152805161151281611461565b60a085015260208101516001600160a01b031660c08501526040810151608060e086015261154461012086018261147d565b905060608201511515610100860152809250505092915050565b61156781611461565b9052565b80545f90600181811c9082168061158357607f821691505b6020821081036115a157634e487b7160e01b5f52602260045260245ffd5b818652602086018180156115bc57600181146115d2576115fe565b60ff198516825283151560051b820195506115fe565b5f878152602090205f5b858110156115f8578154848201526001909101906020016115dc565b83019650505b505050505092915050565b5f82825480855260208501945060208160051b830101845f5260205f205f5b8381101561171b57601f19858403018852606083528154606084015260018201546080840152600282015460a0840152600382015461166d60c0850160ff831661155e565b6001600160a01b03600891821c811660e0860152600484015481166101008601526005840154811661012086015260068401541661014085015260078301546101608501528201546101808085019190915260098301546101a08501526101c08401526116e16101e08401600a840161156b565b83810360208501526116f681600b850161156b565b600c840154604095909501949094525060209790970196600d90910190600101611628565b50909695505050505050565b80546001600160a01b031682526001810154602083015260a0604083018190525f9061175890840160028401611609565b838103606085015261176d8160038501611609565b90508381036080850152611784816004850161156b565b949350505050565b6001600160a01b03878116825286166020820152604081018590528354606082015260018401546080820152600284015460a0820152600384015460c0820152600484015460e082015261014061010082018190525f906117ef908301856114c0565b8281036101208401526118028185611727565b9998505050505050505050565b5f805f60608486031215611821575f80fd5b5050815160208301516040909301519094929350919050565b5f6020828403121561184a575f80fd5b815161137e816112ee565b5f805f805f8060c0878903121561186a575f80fd5b50508451602086015160408701516060880151608089015160a090990151939a929950909790965094509092509050565b6001600160a01b038681168252851660208201526040810184905260a0606082018190525f906118cd908301856114c0565b82810360808401526118df8185611727565b98975050505050505050565b805f5b60058110156119165781516001600160a01b03168452602093840193909101906001016118ee565b50505050565b610580810181885f5b600b81101561194d5781516001600160a01b0316835260209283019290910190600101611925565b5050506101608201875f5b600581101561199e578151835f5b6005811015611985578251825260209283019290910190600101611966565b50505060a0929092019160209190910190600101611958565b50505085610480830152846104a08301526119bd6104c08301856118eb565b6001600160a01b038316610560830152979650505050505050565b602081525f825160a060208401526119f360c084018261147d565b905060018060a01b0360208501511660408401526040840151606084015260608401516080840152608084015160a08401528091505092915050565b634e487b7160e01b5f52601160045260245ffd5b80820180821115610ce457610ce4611a2f565b81810381811115610ce457610ce4611a2f565b5f82611a8357634e487b7160e01b5f52601260045260245ffd5b50049056fe6080604052348015600e575f80fd5b50604051610257380380610257833981016040819052602b91604e565b5f80546001600160a01b0319166001600160a01b03929092169190911790556079565b5f60208284031215605d575f80fd5b81516001600160a01b03811681146072575f80fd5b9392505050565b6101d1806100865f395ff3fe608060405260043610610028575f3560e01c80638406c0791461002c578063de407d8f14610066575b5f80fd5b348015610037575f80fd5b505f5461004a906001600160a01b031681565b6040516001600160a01b03909116815260200160405180910390f35b61006e610070565b005b60405163474cf53d60e01b81527387870bca3f3fd6335c3f4ce8392d69350b4fa4e2600482018190523060248301525f604483015273893411580e590d62ddbca8a703d61cc4a8c7b2b991829063474cf53d9034906064015f604051808303818588803b1580156100df575f80fd5b505af11580156100f1573d5f803e3d5ffd5b50505f54604051630c04a8a160e41b81526001600160a01b0390911660048201525f1960248201527372e95b8931767c79ba4eee721354d6e99a61d004935083925063c04a8a1091506044015f604051808303815f87803b158015610154575f80fd5b505af1158015610166573d5f803e3d5ffd5b50506040513492503091507f60ecce3105bf3b202d7a83cd679868ea5fd87b35901b96d3748136fafe323c65905f90a350505056fea26469706673582212204f09b60a4ad56b9a64ffed687fd5a66eedcc18b17abad5c3408c0ee25ba3fb9364736f6c634300081a0033a2646970667358221220364567156f5c3f3491a72c4f6e828d4470cab3f7ee8a6227e3849be0c311e13764736f6c634300081a0033","linkReferences":{}},"methodIdentifiers":{"borrow(uint256,address)":"4b3fd148","getUserAccountData(address)":"bf92857c","lend(uint256,bool)":"4f52db6b","performRedemption(uint256,uint256,address,address,uint8)":"f4771c70"},"id":9}