{"abi":[{"type":"function","name":"sayHello","inputs":[],"outputs":[{"name":"","type":"uint256","internalType":"uint256"}],"stateMutability":"pure"}],"bytecode":{"object":"0x6080604052348015600e575f80fd5b50607480601a5f395ff3fe6080604052348015600e575f80fd5b50600436106026575f3560e01c8063ef5fb05b14602a575b5f80fd5b600360405190815260200160405180910390f3fea26469706673582212207f1caabe3d80cbf944b86b0cb0213a9cd047e431d5d4d5865ae101b1fb76c79464736f6c634300081a0033","linkReferences":{}},"methodIdentifiers":{"sayHello()":"ef5fb05b"},"id":6}