{"abi":[{"type":"function","name":"borrow","inputs":[{"name":"amount_","type":"uint256","internalType":"uint256"},{"name":"receiver_","type":"address","internalType":"address"}],"outputs":[],"stateMutability":"nonpayable"},{"type":"function","name":"getUserAccountData","inputs":[{"name":"user_","type":"address","internalType":"address"}],"outputs":[{"name":"userData","type":"tuple","internalType":"struct UserAccountData","components":[{"name":"totalCollateralBase","type":"uint256","internalType":"uint256"},{"name":"totalDebtBase","type":"uint256","internalType":"uint256"},{"name":"availableBorrowsBase","type":"uint256","internalType":"uint256"},{"name":"currentLiquidationThreshold","type":"uint256","internalType":"uint256"},{"name":"ltv","type":"uint256","internalType":"uint256"},{"name":"healthFactor","type":"uint256","internalType":"uint256"}]}],"stateMutability":"view"},{"type":"function","name":"lend","inputs":[{"name":"amountIn_","type":"uint256","internalType":"uint256"},{"name":"tokenIn_","type":"address","internalType":"address"}],"outputs":[],"stateMutability":"payable"},{"type":"function","name":"performRedemption","inputs":[{"name":"amount_","type":"uint256","internalType":"uint256"},{"name":"minAmountOut_","type":"uint256","internalType":"uint256"},{"name":"owner_","type":"address","internalType":"address"},{"name":"receiver_","type":"address","internalType":"address"},{"name":"token_","type":"uint8","internalType":"enum Tokens"}],"outputs":[{"name":"","type":"uint256","internalType":"uint256"}],"stateMutability":"nonpayable"},{"type":"event","name":"NewAccountCreated","inputs":[{"name":"account","type":"address","indexed":false,"internalType":"address"}],"anonymous":false},{"type":"error","name":"OZError01","inputs":[{"name":"tokenIn","type":"address","internalType":"address"}]},{"type":"error","name":"OZError02","inputs":[{"name":"amountIn","type":"uint256","internalType":"uint256"},{"name":"msgValue","type":"uint256","internalType":"uint256"}]}],"bytecode":{"object":"0x6080604052348015600e575f80fd5b50611fe68061001c5f395ff3fe60806040526004361061003e575f3560e01c80634b3fd14814610042578063b188474414610063578063bf92857c14610076578063f4771c70146100e9575b5f80fd5b34801561004d575f80fd5b5061006161005c366004611416565b610116565b005b610061610071366004611416565b6104ca565b348015610081575f80fd5b50610095610090366004611444565b6107c6565b6040516100e091905f60c082019050825182526020830151602083015260408301516040830152606083015160608301526080830151608083015260a083015160a083015292915050565b60405180910390f35b3480156100f4575f80fd5b50610108610103366004611466565b6108d2565b6040519081526020016100e0565b335f908152610126602052604080822054610127549151631375877960e31b8152600481018690526001600160a01b0385811660248301529182166044820181905293929190911690639bac3bc8906064016020604051808303815f875af1158015610184573d5f803e3d5ffd5b505050506040513d601f19601f820116820180604052508101906101a891906114c4565b61011854610123549192505f9182916101d0916001600160a01b039182169116308685610b9d565b6101235460055460405163095ea7b360e01b81526001600160a01b03918216600482015260248101849052929350169063095ea7b3906044016020604051808303815f875af1158015610225573d5f803e3d5ffd5b505050506040513d601f19601f8201168201806040525081019061024991906114db565b506005546006546040805160808101909152600780545f9485946001600160a01b039182169463c81f847a94309492909316928792600f9261037f928c92829060ff16600381111561029d5761029d6114fa565b60038111156102ae576102ae6114fa565b8152815461010090046001600160a01b031660208201526001820180546040909201916102da9061150e565b80601f01602080910402602001604051908101604052809291908181526020018280546103069061150e565b80156103515780601f1061032857610100808354040283529160200191610351565b820191905f5260205f20905b81548152906001019060200180831161033457829003601f168201915b50505091835250506002919091015460ff161515602090910152610123546001600160a01b03169190610ccf565b6040516001600160e01b031960e088901b1681526103a7959493929190600a90600401611871565b6060604051808303815f875af11580156103c3573d5f803e3d5ffd5b505050506040513d601f19601f820116820180604052508101906103e791906118f4565b505061011c546040516370a0823160e01b81526001600160a01b0389811660048301529293505f92909116906370a0823190602401602060405180830381865afa158015610437573d5f803e3d5ffd5b505050506040513d601f19601f8201168201806040525081019061045b91906114c4565b61011a546040516340c10f1960e01b81526001600160a01b038b81166004830152602482018490529293509116906340c10f19906044015f604051808303815f87803b1580156104a9575f80fd5b505af11580156104bb573d5f803e3d5ffd5b50505050505050505050505050565b6002546001546040805163026b1d5f60e01b815290516001600160a01b03938416939092169163026b1d5f916004808201926020929091908290030181865afa158015610519573d5f803e3d5ffd5b505050506040513d601f19601f8201168201806040525081019061053d919061191f565b6001600160a01b0316146105d8576001546040805163026b1d5f60e01b815290516001600160a01b039092169163026b1d5f916004808201926020929091908290030181865afa158015610593573d5f803e3d5ffd5b505050506040513d601f19601f820116820180604052508101906105b7919061191f565b600280546001600160a01b0319166001600160a01b03929092169190911790555b610129546001600160a01b039081169082160361061d5734821461061d576040516378feddbd60e11b8152600481018390523460248201526044015b60405180910390fd5b6001600160a01b0381165f908152610128602052604090205460ff16610661576040516331d3c70960e11b81526001600160a01b0382166004820152602401610614565b335f90815261012660205260408120546001600160a01b0316806106c757610687610d0d565b6040516001600160a01b03821681529091507fe759fda21527aab212bc806c6b81b4e16add78b260f71442690c536ba1de40cd9060200160405180910390a15b610129546001600160a01b0384811691161461075c576040516323b872dd60e01b81523360048201526001600160a01b038281166024830152604482018690528416906323b872dd906064016020604051808303815f875af115801561072f573d5f803e3d5ffd5b505050506040513d601f19601f8201168201806040525081019061075391906114db565b505f9150610760565b3491505b604051630c2a378960e11b8152600481018590526001600160a01b0384811660248301528216906318546f129084906044015f604051808303818588803b1580156107a9575f80fd5b505af11580156107bb573d5f803e3d5ffd5b505050505050505050565b6107f96040518060c001604052805f81526020015f81526020015f81526020015f81526020015f81526020015f81525090565b6001600160a01b038281165f9081526101266020526040808220546002549151632fe4a15f60e21b815290841660048201819052938392839283928392839291169063bf92857c9060240160c060405180830381865afa15801561085f573d5f803e3d5ffd5b505050506040513d601f19601f82011682018060405250810190610883919061193a565b9550955095509550955095506040518060c001604052808781526020018681526020016108af86610dbf565b815260200184815260200183815260200182815250975050505050505050919050565b60055460065461011b546040516370a0823160e01b815230600482018190525f9485946001600160a01b039182169463594a88cc949183169216906370a0823190602401602060405180830381865afa158015610931573d5f803e3d5ffd5b505050506040513d601f19601f8201168201806040525081019061095591906114c4565b604080516080810190915260078054610982928e929091829060ff16600381111561029d5761029d6114fa565b6040516001600160e01b031960e087901b1681526109a99493929190600a90600401611980565b6060604051808303815f875af11580156109c5573d5f803e3d5ffd5b505050506040513d601f19601f820116820180604052508101906109e991906118f4565b5090915060089050836008811115610a0357610a036114fa565b03610a85576101235460405163a9059cbb60e01b81526001600160a01b038681166004830152602482018490529091169063a9059cbb906044016020604051808303815f875af1158015610a59573d5f803e3d5ffd5b505050506040513d601f19601f82011682018060405250810190610a7d91906114db565b509050610b94565b5f610a8f84610dfb565b6101235460195460405163095ea7b360e01b81526001600160a01b03918216600482015260248101869052929350169063095ea7b3906044016020604051808303815f875af1158015610ae4573d5f803e3d5ffd5b505050506040513d601f19601f82011682018060405250810190610b0891906114db565b5060195481516020830151604080850151905163c872a3c560e01b81525f946001600160a01b03169363c872a3c593610b4e939192909189918f91908e90600401611a01565b6020604051808303815f875af1158015610b6a573d5f803e3d5ffd5b505050506040513d601f19601f82011682018060405250810190610b8e91906114c4565b93505050505b95945050505050565b60405163095ea7b360e01b815273e592427a0aece92de3edee1f18e0157c0586156460048201819052602482018490525f916001600160a01b0388169063095ea7b3906044016020604051808303815f875af1158015610bff573d5f803e3d5ffd5b505050506040513d601f19601f82011682018060405250810190610c2391906114db565b506040805160a081018252610119546bffffffffffffffffffffffff1960608b811b821660c0850152607d60ea1b60d4850181905292811b821660d785015260eb84019290925289821b1660ee830152825180830360e20181526101028301845282526001600160a01b038881166020840152428385015290820187905260808201869052915163c04b8d5960e01b81526101f49284169063c04b8d5990610b4e908490600401611abd565b610cd76112ee565b506040805160a0810182526001600160a01b039490941680855260208501939093528301919091525f6060830152608082015290565b61012754610129545f8054600254600454604051939586956001600160a01b03918216959082169482169382169290911690610d489061135b565b6001600160a01b0395861681529385166020850152918416604084015283166060830152909116608082015260a001604051809103905ff080158015610d90573d5f803e3d5ffd5b50335f9081526101266020526040902080546001600160a01b0319166001600160a01b03831617905592915050565b5f6064610de1836127105f60150154600a610dda9190611b28565b91906112d3565b610deb9084611b3b565b610df59190611b4e565b92915050565b610e03611368565b6005826008811115610e1757610e176114fa565b03610f1457604080516101c081019091526021816060810182600b8282826020028201915b81546001600160a01b03168152600190910190602001808311610e3c5750505091835250506040805160a08101909152602090910190600b830160055f835b82821015610ec2576040805160a081019182905290600584810287019182845b815481526020019060010190808311610e9b57505050505081526020019060010190610e7b565b505050908252506040805160a081019182905260209092019190602484019060059082845b81546001600160a01b03168152600190910190602001808311610ee7575050505050815250509050919050565b6006826008811115610f2857610f286114fa565b03610fd357604080516101c08101909152604a816060810182600b8282826020028201915b81546001600160a01b03168152600190910190602001808311610f4d5750505091835250506040805160a08101909152602090910190600b830160055f835b82821015610ec2576040805160a081019182905290600584810287019182845b815481526020019060010190808311610fac57505050505081526020019060010190610f8c565b6003826008811115610fe757610fe76114fa565b0361109257604080516101c081019091526073816060810182600b8282826020028201915b81546001600160a01b0316815260019091019060200180831161100c5750505091835250506040805160a08101909152602090910190600b830160055f835b82821015610ec2576040805160a081019182905290600584810287019182845b81548152602001906001019080831161106b5750505050508152602001906001019061104b565b60028260088111156110a6576110a66114fa565b0361115157604080516101c08101909152609c816060810182600b8282826020028201915b81546001600160a01b031681526001909101906020018083116110cb5750505091835250506040805160a08101909152602090910190600b830160055f835b82821015610ec2576040805160a081019182905290600584810287019182845b81548152602001906001019080831161112a5750505050508152602001906001019061110a565b5f826008811115611164576111646114fa565b0361120f57604080516101c0810190915260c5816060810182600b8282826020028201915b81546001600160a01b031681526001909101906020018083116111895750505091835250506040805160a08101909152602090910190600b830160055f835b82821015610ec2576040805160a081019182905290600584810287019182845b8154815260200190600101908083116111e8575050505050815260200190600101906111c8565b6007826008811115611223576112236114fa565b036112ce57604080516101c0810190915260ee816060810182600b8282826020028201915b81546001600160a01b031681526001909101906020018083116112485750505091835250506040805160a08101909152602090910190600b830160055f835b82821015610ec2576040805160a081019182905290600584810287019182845b8154815260200190600101908083116112a757505050505081526020019060010190611287565b919050565b5f825f1904841183021582026112e7575f80fd5b5091020490565b6040518060a001604052805f6001600160a01b031681526020015f81526020015f6001600160a01b031681526020015f6001600160a01b031681526020016113566040805160808101909152805f81525f602082018190526060604083018190529091015290565b905290565b61044380611b6e83390190565b604051806060016040528061137b611395565b81526020016113886113b4565b81526020016113566113e1565b604051806101600160405280600b906020820280368337509192915050565b6040518060a001604052806005905b6113cb6113e1565b8152602001906001900390816113c35790505090565b6040518060a001604052806005906020820280368337509192915050565b6001600160a01b0381168114611413575f80fd5b50565b5f8060408385031215611427575f80fd5b823591506020830135611439816113ff565b809150509250929050565b5f60208284031215611454575f80fd5b813561145f816113ff565b9392505050565b5f805f805f60a0868803121561147a575f80fd5b85359450602086013593506040860135611493816113ff565b925060608601356114a3816113ff565b91506080860135600981106114b6575f80fd5b809150509295509295909350565b5f602082840312156114d4575f80fd5b5051919050565b5f602082840312156114eb575f80fd5b8151801515811461145f575f80fd5b634e487b7160e01b5f52602160045260245ffd5b600181811c9082168061152257607f821691505b60208210810361154057634e487b7160e01b5f52602260045260245ffd5b50919050565b6004811061141357634e487b7160e01b5f52602160045260245ffd5b5f81518084525f5b818110156115865760208185018101518683018201520161156a565b505f602082860101526020601f19601f83011685010191505092915050565b60018060a01b0381511682526020810151602083015260018060a01b03604082015116604083015260018060a01b0360608201511660608301525f608082015160a0608085015280516115f781611546565b60a085015260208101516001600160a01b031660c08501526040810151608060e0860152611629610120860182611562565b905060608201511515610100860152809250505092915050565b61164c81611546565b9052565b80545f90600181811c9082168061166857607f821691505b60208210810361168657634e487b7160e01b5f52602260045260245ffd5b818652602086018180156116a157600181146116b7576116e3565b60ff198516825283151560051b820195506116e3565b5f878152602090205f5b858110156116dd578154848201526001909101906020016116c1565b83019650505b505050505092915050565b5f82825480855260208501945060208160051b830101845f5260205f205f5b8381101561180057601f19858403018852606083528154606084015260018201546080840152600282015460a0840152600382015461175260c0850160ff8316611643565b6001600160a01b03600891821c811660e0860152600484015481166101008601526005840154811661012086015260068401541661014085015260078301546101608501528201546101808085019190915260098301546101a08501526101c08401526117c66101e08401600a8401611650565b83810360208501526117db81600b8501611650565b600c840154604095909501949094525060209790970196600d9091019060010161170d565b50909695505050505050565b80546001600160a01b031682526001810154602083015260a0604083018190525f9061183d908401600284016116ee565b838103606085015261185281600385016116ee565b905083810360808501526118698160048501611650565b949350505050565b6001600160a01b03878116825286166020820152604081018590528354606082015260018401546080820152600284015460a0820152600384015460c0820152600484015460e082015261014061010082018190525f906118d4908301856115a5565b8281036101208401526118e7818561180c565b9998505050505050505050565b5f805f60608486031215611906575f80fd5b5050815160208301516040909301519094929350919050565b5f6020828403121561192f575f80fd5b815161145f816113ff565b5f805f805f8060c0878903121561194f575f80fd5b50508451602086015160408701516060880151608089015160a090990151939a929950909790965094509092509050565b6001600160a01b038681168252851660208201526040810184905260a0606082018190525f906119b2908301856115a5565b82810360808401526119c4818561180c565b98975050505050505050565b805f5b60058110156119fb5781516001600160a01b03168452602093840193909101906001016119d3565b50505050565b610580810181885f5b600b811015611a325781516001600160a01b0316835260209283019290910190600101611a0a565b5050506101608201875f5b6005811015611a83578151835f5b6005811015611a6a578251825260209283019290910190600101611a4b565b50505060a0929092019160209190910190600101611a3d565b50505085610480830152846104a0830152611aa26104c08301856119d0565b6001600160a01b038316610560830152979650505050505050565b602081525f825160a06020840152611ad860c0840182611562565b905060018060a01b0360208501511660408401526040840151606084015260608401516080840152608084015160a08401528091505092915050565b634e487b7160e01b5f52601160045260245ffd5b80820180821115610df557610df5611b14565b81810381811115610df557610df5611b14565b5f82611b6857634e487b7160e01b5f52601260045260245ffd5b50049056fe608060405234801561000f575f80fd5b5060405161044338038061044383398101604081905261002e916100aa565b5f80546001600160a01b03199081166001600160a01b0397881617909155600180548216958716959095179094556002805485169386169390931790925560038054841691851691909117905560048054909216921691909117905561010b565b80516001600160a01b03811681146100a5575f80fd5b919050565b5f805f805f60a086880312156100be575f80fd5b6100c78661008f565b94506100d56020870161008f565b93506100e36040870161008f565b92506100f16060870161008f565b91506100ff6080870161008f565b90509295509295909350565b61032b806101185f395ff3fe608060405260043610610028575f3560e01c806318546f121461002c5780638406c07914610041575b5f80fd5b61003f61003a366004610296565b61007b565b005b34801561004c575f80fd5b505f5461005f906001600160a01b031681565b6040516001600160a01b03909116815260200160405180910390f35b6001546001600160a01b03908116908216036101015760025460035460405163474cf53d60e01b81526001600160a01b0391821660048201523060248201525f604482015291169063474cf53d9034906064015f604051808303818588803b1580156100e5575f80fd5b505af11580156100f7573d5f803e3d5ffd5b50505050506101e4565b60035460405163095ea7b360e01b81526001600160a01b039182166004820152602481018490529082169063095ea7b3906044016020604051808303815f875af1158015610151573d5f803e3d5ffd5b505050506040513d601f19601f8201168201806040525081019061017591906102cf565b5060035460405163617ba03760e01b81526001600160a01b038381166004830152602482018590523060448301525f60648301529091169063617ba037906084015f604051808303815f87803b1580156101cd575f80fd5b505af11580156101df573d5f803e3d5ffd5b505050505b600480545f54604051630c04a8a160e41b81526001600160a01b03918216938101939093525f196024840152169063c04a8a10906044015f604051808303815f87803b158015610232575f80fd5b505af1158015610244573d5f803e3d5ffd5b5050604080513081526001600160a01b03851660208201529081018590527f75134c5a30206e01639de7bebafb4f915e3e6cef465a59b1424e26ea3c9faeb79250606001905060405180910390a15050565b5f80604083850312156102a7575f80fd5b8235915060208301356001600160a01b03811681146102c4575f80fd5b809150509250929050565b5f602082840312156102df575f80fd5b815180151581146102ee575f80fd5b939250505056fea264697066735822122050527f09856089dfbd913beb6e0f052e3ac6557b3fd56164d7a79bad09b8133e64736f6c634300081a0033a2646970667358221220dfe741e4c0fe6063af3c008661857e5c7ae8b7ea45cb459d6f4a2193303dc5b864736f6c634300081a0033","linkReferences":{}},"methodIdentifiers":{"borrow(uint256,address)":"4b3fd148","getUserAccountData(address)":"bf92857c","lend(uint256,address)":"b1884744","performRedemption(uint256,uint256,address,address,uint8)":"f4771c70"},"id":10}