{"abi":[{"type":"function","name":"borrow","inputs":[{"name":"amount_","type":"uint256","internalType":"uint256"}],"outputs":[],"stateMutability":"nonpayable"},{"type":"function","name":"defaultApprox","inputs":[],"outputs":[{"name":"guessMin","type":"uint256","internalType":"uint256"},{"name":"guessMax","type":"uint256","internalType":"uint256"},{"name":"guessOffchain","type":"uint256","internalType":"uint256"},{"name":"maxIteration","type":"uint256","internalType":"uint256"},{"name":"eps","type":"uint256","internalType":"uint256"}],"stateMutability":"view"},{"type":"function","name":"emptyLimit","inputs":[],"outputs":[{"name":"limitRouter","type":"address","internalType":"address"},{"name":"epsSkipMarket","type":"uint256","internalType":"uint256"},{"name":"optData","type":"bytes","internalType":"bytes"}],"stateMutability":"view"},{"type":"function","name":"emptySwap","inputs":[],"outputs":[{"name":"swapType","type":"uint8","internalType":"enum SwapType"},{"name":"extRouter","type":"address","internalType":"address"},{"name":"extCalldata","type":"bytes","internalType":"bytes"},{"name":"needScale","type":"bool","internalType":"bool"}],"stateMutability":"view"},{"type":"function","name":"lend","inputs":[{"name":"isETH_","type":"bool","internalType":"bool"}],"outputs":[],"stateMutability":"payable"}],"bytecode":{"object":"0x6101206040525f60808190525f1960a081905260c082905261010060e0819052655af3107a40008082526010849055601192909255601292909255601391909155601455348015604d575f80fd5b50610e348061005b5f395ff3fe608060405260043610610049575f3560e01c806301a155401461004d57806309316dd3146100625780634ebfc8141461008e578063c5ebeaec146100dc578063f66a7749146100fb575b5f80fd5b61006061005b36600461088a565b61011f565b005b34801561006d575f80fd5b5061007661024e565b604051610085939291906108ef565b60405180910390f35b348015610099575f80fd5b506010546011546012546013546014546100b4949392919085565b604080519586526020860194909452928401919091526060830152608082015260a001610085565b3480156100e7575f80fd5b506100606100f636600461091e565b6102f1565b348015610106575f80fd5b5061010f61057c565b6040516100859493929190610965565b60408051808201909152601a81527f61617665506f6f6c50726f766964657220696e206c656e643a20000000000000602082015260015461016991906001600160a01b031661062e565b6001546040805163026b1d5f60e01b815290515f926001600160a01b03169163026b1d5f9160048083019260209291908290030181865afa1580156101b0573d5f803e3d5ffd5b505050506040513d601f19601f820116820180604052508101906101d491906109aa565b9050811561024a575f805460405163474cf53d60e01b81526001600160a01b038481166004830152306024830152604482019390935291169063474cf53d9034906064015f604051808303818588803b15801561022f575f80fd5b505af1158015610241573d5f803e3d5ffd5b50505050505050565b5050565b600b8054600c54600f80546001600160a01b03909316939192610270906109d0565b80601f016020809104026020016040519081016040528092919081815260200182805461029c906109d0565b80156102e75780601f106102be576101008083540402835291602001916102e7565b820191905f5260205f20905b8154815290600101906020018083116102ca57829003601f168201915b5050505050905083565b6001546040805163026b1d5f60e01b815290515f926001600160a01b03169163026b1d5f9160048083019260209291908290030181865afa158015610338573d5f803e3d5ffd5b505050506040513d601f19601f8201168201806040525081019061035c91906109aa565b60065460025460405163a415bcad60e01b81526001600160a01b0392831660048201526024810186905260448101919091525f606482015230608482015291925082169063a415bcad9060a4015f604051808303815f87803b1580156103c0575f80fd5b505af11580156103d2573d5f803e3d5ffd5b505060065460035460405163095ea7b360e01b81526001600160a01b039182166004820152602481018790529116925063095ea7b391506044016020604051808303815f875af1158015610428573d5f803e3d5ffd5b505050506040513d601f19601f8201168201806040525081019061044c9190610a08565b50600354600480546006546040516370a0823160e01b8152309381018490525f9485946001600160a01b039182169463c81f847a9491939083169287926010926104e3929091169081906370a0823190602401602060405180830381865afa1580156104ba573d5f803e3d5ffd5b505050506040513d601f19601f820116820180604052508101906104de9190610a23565b610673565b600b6040518763ffffffff1660e01b815260040161050696959493929190610d06565b6060604051808303815f875af1158015610522573d5f803e3d5ffd5b505050506040513d601f19601f820116820180604052508101906105469190610d89565b505090506105766040518060400160405280600a81526020016903732ba283a27baba1d160b51b815250826107a3565b50505050565b600880546009805460ff8316936101009093046001600160a01b03169291906105a4906109d0565b80601f01602080910402602001604051908101604052809291908181526020018280546105d0906109d0565b801561061b5780601f106105f25761010080835404028352916020019161061b565b820191905f5260205f20905b8154815290600101906020018083116105fe57829003601f168201915b5050506002909301549192505060ff1684565b61024a8282604051602401610644929190610db4565b60408051601f198184030181529190526020810180516001600160e01b031663319af33360e01b1790526107e4565b61067b610810565b6040805160a0810182526001600160a01b03851680825260208201859052818301525f606082015281516080818101909352600880549293840192829060ff1660038111156106cc576106cc610935565b60038111156106dd576106dd610935565b8152815461010090046001600160a01b03166020820152600182018054604090920191610709906109d0565b80601f0160208091040260200160405190810160405280929190818152602001828054610735906109d0565b80156107805780601f1061075757610100808354040283529160200191610780565b820191905f5260205f20905b81548152906001019060200180831161076357829003601f168201915b50505091835250506002919091015460ff16151560209091015290529392505050565b61024a82826040516024016107b9929190610ddd565b60408051601f198184030181529190526020810180516001600160e01b03166309710a9d60e41b1790525b6107ed816107f0565b50565b80516a636f6e736f6c652e6c6f67602083015f808483855afa5050505050565b6040518060a001604052805f6001600160a01b031681526020015f81526020015f6001600160a01b031681526020015f6001600160a01b031681526020016108786040805160808101909152805f81525f602082018190526060604083018190529091015290565b905290565b80151581146107ed575f80fd5b5f6020828403121561089a575f80fd5b81356108a58161087d565b9392505050565b5f81518084525f5b818110156108d0576020818501810151868301820152016108b4565b505f602082860101526020601f19601f83011685010191505092915050565b60018060a01b0384168152826020820152606060408201525f61091560608301846108ac565b95945050505050565b5f6020828403121561092e575f80fd5b5035919050565b634e487b7160e01b5f52602160045260245ffd5b600481106107ed57634e487b7160e01b5f52602160045260245ffd5b61096e85610949565b8481526001600160a01b03841660208201526080604082018190525f90610997908301856108ac565b9050821515606083015295945050505050565b5f602082840312156109ba575f80fd5b81516001600160a01b03811681146108a5575f80fd5b600181811c908216806109e457607f821691505b602082108103610a0257634e487b7160e01b5f52602260045260245ffd5b50919050565b5f60208284031215610a18575f80fd5b81516108a58161087d565b5f60208284031215610a33575f80fd5b5051919050565b60018060a01b0381511682526020810151602083015260018060a01b03604082015116604083015260018060a01b0360608201511660608301525f608082015160a060808501528051610a8c81610949565b60a085015260208101516001600160a01b031660c08501526040810151608060e0860152610abe6101208601826108ac565b905060608201511515610100860152809250505092915050565b610ae181610949565b9052565b80545f90600181811c90821680610afd57607f821691505b602082108103610b1b57634e487b7160e01b5f52602260045260245ffd5b81865260208601818015610b365760018114610b4c57610b78565b60ff198516825283151560051b82019550610b78565b5f878152602090205f5b85811015610b7257815484820152600190910190602001610b56565b83019650505b505050505092915050565b5f82825480855260208501945060208160051b830101845f5260205f205f5b83811015610c9557601f19858403018852606083528154606084015260018201546080840152600282015460a08401526003820154610be760c0850160ff8316610ad8565b6001600160a01b03600891821c811660e0860152600484015481166101008601526005840154811661012086015260068401541661014085015260078301546101608501528201546101808085019190915260098301546101a08501526101c0840152610c5b6101e08401600a8401610ae5565b8381036020850152610c7081600b8501610ae5565b600c840154604095909501949094525060209790970196600d90910190600101610ba2565b50909695505050505050565b80546001600160a01b031682526001810154602083015260a0604083018190525f90610cd290840160028401610b83565b8381036060850152610ce78160038501610b83565b90508381036080850152610cfe8160048501610ae5565b949350505050565b6001600160a01b03878116825286166020820152604081018590528354606082015260018401546080820152600284015460a0820152600384015460c0820152600484015460e082015261014061010082018190525f90610d6990830185610a3a565b828103610120840152610d7c8185610ca1565b9998505050505050505050565b5f805f60608486031215610d9b575f80fd5b5050815160208301516040909301519094929350919050565b604081525f610dc660408301856108ac565b905060018060a01b03831660208301529392505050565b604081525f610def60408301856108ac565b9050826020830152939250505056fea26469706673582212203c873a5eb2ef7a4525d80be0284fe190d3a5283f6deeeb6e7f01d0b130202ef864736f6c634300081a0033","linkReferences":{}},"methodIdentifiers":{"borrow(uint256)":"c5ebeaec","defaultApprox()":"4ebfc814","emptyLimit()":"09316dd3","emptySwap()":"f66a7749","lend(bool)":"01a15540"},"id":7}