{"abi":[{"type":"function","name":"borrow","inputs":[{"name":"amount_","type":"uint256","internalType":"uint256"},{"name":"receiver_","type":"address","internalType":"address"}],"outputs":[],"stateMutability":"nonpayable"},{"type":"function","name":"lend","inputs":[{"name":"amountIn_","type":"uint256","internalType":"uint256"},{"name":"tokenIn_","type":"address","internalType":"address"},{"name":"receiver_","type":"address","internalType":"address"}],"outputs":[{"name":"","type":"uint256","internalType":"uint256"}],"stateMutability":"payable"},{"type":"function","name":"lend2","inputs":[{"name":"amountIn_","type":"uint256","internalType":"uint256"},{"name":"tokenIn_","type":"address","internalType":"address"}],"outputs":[],"stateMutability":"payable"},{"type":"function","name":"performRedemption","inputs":[{"name":"amount_","type":"uint256","internalType":"uint256"},{"name":"minAmountOut_","type":"uint256","internalType":"uint256"},{"name":"owner_","type":"address","internalType":"address"},{"name":"receiver_","type":"address","internalType":"address"},{"name":"token_","type":"uint8","internalType":"enum Tokens"}],"outputs":[{"name":"","type":"uint256","internalType":"uint256"}],"stateMutability":"nonpayable"},{"type":"event","name":"NewAccountCreated","inputs":[{"name":"account","type":"address","indexed":false,"internalType":"address"}],"anonymous":false},{"type":"event","name":"NewAccountDataState","inputs":[{"name":"totalCollateralBase","type":"uint256","indexed":false,"internalType":"uint256"},{"name":"ltv","type":"uint16","indexed":false,"internalType":"uint16"},{"name":"currentLiquidationThreshold","type":"uint256","indexed":false,"internalType":"uint256"},{"name":"healthFactor","type":"uint256","indexed":false,"internalType":"uint256"}],"anonymous":false},{"type":"error","name":"OZError01","inputs":[{"name":"tokenIn","type":"address","internalType":"address"}]},{"type":"error","name":"OZError02","inputs":[{"name":"amountIn","type":"uint256","internalType":"uint256"},{"name":"msgValue","type":"uint256","internalType":"uint256"}]}],"bytecode":{"object":"0x6080604052348015600e575f80fd5b506136748061001c5f395ff3fe60806040526004361061003e575f3560e01c80634b3fd1481461004257806379a72c5e14610063578063cd290a3f14610076578063f4771c701461009b575b5f80fd5b34801561004d575f80fd5b5061006161005c3660046119fe565b6100ba565b005b6100616100713660046119fe565b6104b5565b610089610084366004611a2c565b6107b1565b60405190815260200160405180910390f35b3480156100a6575f80fd5b506100896100b5366004611a6b565b610d6b565b335f90815261012660205260409081902054610127549151631375877960e31b8152600481018590526001600160a01b03848116602483015291821660448201819052929190911690639bac3bc8906064015f604051808303815f87803b158015610123575f80fd5b505af1158015610135573d5f803e3d5ffd5b505061011854610123545f935083925061015e916001600160a01b039081169116308885611036565b6101235460055460405163095ea7b360e01b81526001600160a01b03918216600482015260248101849052929350169063095ea7b3906044016020604051808303815f875af11580156101b3573d5f803e3d5ffd5b505050506040513d601f19601f820116820180604052508101906101d79190611ac9565b505f6101fb6040518060600160405280602d8152602001613612602d913983611168565b6005546006546040805160808101909152600780545f946001600160a01b039081169463c81f847a94309492909116928892600f9261032f928c9290829060ff16600381111561024d5761024d611aef565b600381111561025e5761025e611aef565b8152815461010090046001600160a01b0316602082015260018201805460409092019161028a90611b03565b80601f01602080910402602001604051908101604052809291908181526020018280546102b690611b03565b80156103015780601f106102d857610100808354040283529160200191610301565b820191905f5260205f20905b8154815290600101906020018083116102e457829003601f168201915b50505091835250506002919091015460ff161515602090910152610123546001600160a01b031691906111b1565b6040516001600160e01b031960e088901b168152610357959493929190600a90600401611e66565b6060604051808303815f875af1158015610373573d5f803e3d5ffd5b505050506040513d601f19601f820116820180604052508101906103979190611ee9565b505090506103da6040518060400160405280601881526020017f6e657450744f757420616674657220505420737761703a20000000000000000081525082611168565b61011c546040516370a0823160e01b81526001600160a01b0387811660048301525f9216906370a0823190602401602060405180830381865afa158015610423573d5f803e3d5ffd5b505050506040513d601f19601f820116820180604052508101906104479190611f14565b61011a546040516340c10f1960e01b81526001600160a01b038a81166004830152602482018490529293509116906340c10f19906044015f604051808303815f87803b158015610495575f80fd5b505af11580156104a7573d5f803e3d5ffd5b505050505050505050505050565b6002546001546040805163026b1d5f60e01b815290516001600160a01b03938416939092169163026b1d5f916004808201926020929091908290030181865afa158015610504573d5f803e3d5ffd5b505050506040513d601f19601f820116820180604052508101906105289190611f2b565b6001600160a01b0316146105c3576001546040805163026b1d5f60e01b815290516001600160a01b039092169163026b1d5f916004808201926020929091908290030181865afa15801561057e573d5f803e3d5ffd5b505050506040513d601f19601f820116820180604052508101906105a29190611f2b565b600280546001600160a01b0319166001600160a01b03929092169190911790555b610129546001600160a01b039081169082160361060857348214610608576040516378feddbd60e11b8152600481018390523460248201526044015b60405180910390fd5b6001600160a01b0381165f908152610128602052604090205460ff1661064c576040516331d3c70960e11b81526001600160a01b03821660048201526024016105ff565b335f90815261012660205260408120546001600160a01b0316806106b2576106726111ef565b6040516001600160a01b03821681529091507fe759fda21527aab212bc806c6b81b4e16add78b260f71442690c536ba1de40cd9060200160405180910390a15b610129546001600160a01b03848116911614610747576040516323b872dd60e01b81523360048201526001600160a01b038281166024830152604482018690528416906323b872dd906064016020604051808303815f875af115801561071a573d5f803e3d5ffd5b505050506040513d601f19601f8201168201806040525081019061073e9190611ac9565b505f915061074b565b3491505b604051630c2a378960e11b8152600481018590526001600160a01b0384811660248301528216906318546f129084906044015f604051808303818588803b158015610794575f80fd5b505af11580156107a6573d5f803e3d5ffd5b505050505050505050565b6002546001546040805163026b1d5f60e01b815290515f936001600160a01b0390811693169163026b1d5f9160048083019260209291908290030181865afa1580156107ff573d5f803e3d5ffd5b505050506040513d601f19601f820116820180604052508101906108239190611f2b565b6001600160a01b0316146108be576001546040805163026b1d5f60e01b815290516001600160a01b039092169163026b1d5f916004808201926020929091908290030181865afa158015610879573d5f803e3d5ffd5b505050506040513d601f19601f8201168201806040525081019061089d9190611f2b565b600280546001600160a01b0319166001600160a01b03929092169190911790555b610129546001600160a01b03908116908416036108fe573484146108fe576040516378feddbd60e11b8152600481018590523460248201526044016105ff565b6001600160a01b0383165f908152610128602052604090205460ff16610942576040516331d3c70960e11b81526001600160a01b03841660048201526024016105ff565b335f90815261012b60205260408120546001600160a01b031680610a215761012754610129545f546002546004546040516001600160a01b039586169594851694938416939283169290911690610998906118d9565b6001600160a01b0395861681529385166020850152918416604084015283166060830152909116608082015260a001604051809103905ff0801580156109e0573d5f803e3d5ffd5b506040516001600160a01b03821681529091507fe759fda21527aab212bc806c6b81b4e16add78b260f71442690c536ba1de40cd9060200160405180910390a15b610129546001600160a01b03868116911614610ab6576040516323b872dd60e01b81523360048201526001600160a01b038281166024830152604482018890528616906323b872dd906064016020604051808303815f875af1158015610a89573d5f803e3d5ffd5b505050506040513d601f19601f82011682018060405250810190610aad9190611ac9565b505f9150610aba565b3491505b610ac685338389611279565b6040516305df7eb960e41b8152600481018790526001600160a01b038281166024830181905290871660448301525f91635df7eb90906064016020604051808303815f875af1158015610b1b573d5f803e3d5ffd5b505050506040513d601f19601f82011682018060405250810190610b3f9190611f14565b6001600160a01b0383165f90815261012e6020526040812080549293508392909190610b6c908490611f46565b90915550506001600160a01b038681165f9081526101316020526040808220549051636e553f6560e01b8152600481018b9052888416602482015291921690636e553f65906044016020604051808303815f875af1158015610bd0573d5f803e3d5ffd5b505050506040513d601f19601f82011682018060405250810190610bf49190611f14565b9050610c2a60405180604001604052806012815260200171039b430b932b99034b7103632b73214149d160751b81525082611168565b610c4c6040518060600160405280602181526020016135f16021913987611390565b604080518082018252601b81527f6f7a555344432062616c202d206f776e6572202a2a2a2a2a2a3a2000000000006020808301919091526001600160a01b038a81165f908152610131909252908390205492516370a0823160e01b81528982166004820152610d0693909116906370a0823190602401602060405180830381865afa158015610cdd573d5f803e3d5ffd5b505050506040513d601f19601f82011682018060405250810190610d019190611f14565b611168565b604080518082018252601a81527f6f7a55534443206164647265737320696e206d696e7465723a200000000000006020808301919091526001600160a01b03808b165f90815261013190925292902054610d609216611390565b509695505050505050565b60055460065461011b546040516370a0823160e01b815230600482018190525f9485946001600160a01b039182169463594a88cc949183169216906370a0823190602401602060405180830381865afa158015610dca573d5f803e3d5ffd5b505050506040513d601f19601f82011682018060405250810190610dee9190611f14565b604080516080810190915260078054610e1b928e929091829060ff16600381111561024d5761024d611aef565b6040516001600160e01b031960e087901b168152610e429493929190600a90600401611f6b565b6060604051808303815f875af1158015610e5e573d5f803e3d5ffd5b505050506040513d601f19601f82011682018060405250810190610e829190611ee9565b5090915060089050836008811115610e9c57610e9c611aef565b03610f1e576101235460405163a9059cbb60e01b81526001600160a01b038681166004830152602482018490529091169063a9059cbb906044016020604051808303815f875af1158015610ef2573d5f803e3d5ffd5b505050506040513d601f19601f82011682018060405250810190610f169190611ac9565b50905061102d565b5f610f28846113d5565b6101235460195460405163095ea7b360e01b81526001600160a01b03918216600482015260248101869052929350169063095ea7b3906044016020604051808303815f875af1158015610f7d573d5f803e3d5ffd5b505050506040513d601f19601f82011682018060405250810190610fa19190611ac9565b5060195481516020830151604080850151905163c872a3c560e01b81525f946001600160a01b03169363c872a3c593610fe7939192909189918f91908e90600401611fec565b6020604051808303815f875af1158015611003573d5f803e3d5ffd5b505050506040513d601f19601f820116820180604052508101906110279190611f14565b93505050505b95945050505050565b60405163095ea7b360e01b815273e592427a0aece92de3edee1f18e0157c0586156460048201819052602482018490525f916001600160a01b0388169063095ea7b3906044016020604051808303815f875af1158015611098573d5f803e3d5ffd5b505050506040513d601f19601f820116820180604052508101906110bc9190611ac9565b506040805160a081018252610119546bffffffffffffffffffffffff1960608b811b821660c0850152607d60ea1b60d4850181905292811b821660d785015260eb84019290925289821b1660ee830152825180830360e20181526101028301845282526001600160a01b038881166020840152428385015290820187905260808201869052915163c04b8d5960e01b81526101f49284169063c04b8d5990610fe79084906004016120a8565b6111ad828260405160240161117e9291906120ff565b60408051601f198184030181529190526020810180516001600160e01b03166309710a9d60e41b1790526118ad565b5050565b6111b96118e6565b506040805160a0810182526001600160a01b039490941680855260208501939093528301919091525f6060830152608082015290565b61012754610129545f8054600254600454604051939586956001600160a01b0391821695908216948216938216929091169061122a906118d9565b6001600160a01b0395861681529385166020850152918416604084015283166060830152909116608082015260a001604051809103905ff080158015611272573d5f803e3d5ffd5b5092915050565b6001600160a01b038084165f90815261012b60205260409020610118549091908116908616036112f2575f805261012f6020527fe9104285c6851efcbc5e0e70440200efbdcab556a1c8784776780f8bb44f2931805460058301805461ffff191661ffff92831617905590546201000090041660048201555b80546001600160a01b0319166001600160a01b0384161781556001810180548391905f90611321908490611f46565b90915550505f19600682018190556001820154600583015460048401546040805193845261ffff90921660208401529082015260608101919091527f6b8a80184eceb209da613b8fd90b442cf999caaef46ae1ff870ae3cfda2cad739060800160405180910390a15050505050565b6111ad82826040516024016113a6929190612120565b60408051601f198184030181529190526020810180516001600160e01b031663319af33360e01b1790526118ad565b6113dd611953565b60058260088111156113f1576113f1611aef565b036114ee57604080516101c081019091526021816060810182600b8282826020028201915b81546001600160a01b031681526001909101906020018083116114165750505091835250506040805160a08101909152602090910190600b830160055f835b8282101561149c576040805160a081019182905290600584810287019182845b81548152602001906001019080831161147557505050505081526020019060010190611455565b505050908252506040805160a081019182905260209092019190602484019060059082845b81546001600160a01b031681526001909101906020018083116114c1575050505050815250509050919050565b600682600881111561150257611502611aef565b036115ad57604080516101c08101909152604a816060810182600b8282826020028201915b81546001600160a01b031681526001909101906020018083116115275750505091835250506040805160a08101909152602090910190600b830160055f835b8282101561149c576040805160a081019182905290600584810287019182845b81548152602001906001019080831161158657505050505081526020019060010190611566565b60038260088111156115c1576115c1611aef565b0361166c57604080516101c081019091526073816060810182600b8282826020028201915b81546001600160a01b031681526001909101906020018083116115e65750505091835250506040805160a08101909152602090910190600b830160055f835b8282101561149c576040805160a081019182905290600584810287019182845b81548152602001906001019080831161164557505050505081526020019060010190611625565b600282600881111561168057611680611aef565b0361172b57604080516101c08101909152609c816060810182600b8282826020028201915b81546001600160a01b031681526001909101906020018083116116a55750505091835250506040805160a08101909152602090910190600b830160055f835b8282101561149c576040805160a081019182905290600584810287019182845b815481526020019060010190808311611704575050505050815260200190600101906116e4565b5f82600881111561173e5761173e611aef565b036117e957604080516101c0810190915260c5816060810182600b8282826020028201915b81546001600160a01b031681526001909101906020018083116117635750505091835250506040805160a08101909152602090910190600b830160055f835b8282101561149c576040805160a081019182905290600584810287019182845b8154815260200190600101908083116117c2575050505050815260200190600101906117a2565b60078260088111156117fd576117fd611aef565b036118a857604080516101c0810190915260ee816060810182600b8282826020028201915b81546001600160a01b031681526001909101906020018083116118225750505091835250506040805160a08101909152602090910190600b830160055f835b8282101561149c576040805160a081019182905290600584810287019182845b81548152602001906001019080831161188157505050505081526020019060010190611861565b919050565b6118b6816118b9565b50565b80516a636f6e736f6c652e6c6f67602083015f808483855afa5050505050565b6114a78061214a83390190565b6040518060a001604052805f6001600160a01b031681526020015f81526020015f6001600160a01b031681526020015f6001600160a01b0316815260200161194e6040805160808101909152805f81525f602082018190526060604083018190529091015290565b905290565b6040518060600160405280611966611980565b815260200161197361199f565b815260200161194e6119cc565b604051806101600160405280600b906020820280368337509192915050565b6040518060a001604052806005905b6119b66119cc565b8152602001906001900390816119ae5790505090565b6040518060a001604052806005906020820280368337509192915050565b6001600160a01b03811681146118b6575f80fd5b5f8060408385031215611a0f575f80fd5b823591506020830135611a21816119ea565b809150509250929050565b5f805f60608486031215611a3e575f80fd5b833592506020840135611a50816119ea565b91506040840135611a60816119ea565b809150509250925092565b5f805f805f60a08688031215611a7f575f80fd5b85359450602086013593506040860135611a98816119ea565b92506060860135611aa8816119ea565b9150608086013560098110611abb575f80fd5b809150509295509295909350565b5f60208284031215611ad9575f80fd5b81518015158114611ae8575f80fd5b9392505050565b634e487b7160e01b5f52602160045260245ffd5b600181811c90821680611b1757607f821691505b602082108103611b3557634e487b7160e01b5f52602260045260245ffd5b50919050565b600481106118b657634e487b7160e01b5f52602160045260245ffd5b5f81518084525f5b81811015611b7b57602081850181015186830182015201611b5f565b505f602082860101526020601f19601f83011685010191505092915050565b60018060a01b0381511682526020810151602083015260018060a01b03604082015116604083015260018060a01b0360608201511660608301525f608082015160a060808501528051611bec81611b3b565b60a085015260208101516001600160a01b031660c08501526040810151608060e0860152611c1e610120860182611b57565b905060608201511515610100860152809250505092915050565b611c4181611b3b565b9052565b80545f90600181811c90821680611c5d57607f821691505b602082108103611c7b57634e487b7160e01b5f52602260045260245ffd5b81865260208601818015611c965760018114611cac57611cd8565b60ff198516825283151560051b82019550611cd8565b5f878152602090205f5b85811015611cd257815484820152600190910190602001611cb6565b83019650505b505050505092915050565b5f82825480855260208501945060208160051b830101845f5260205f205f5b83811015611df557601f19858403018852606083528154606084015260018201546080840152600282015460a08401526003820154611d4760c0850160ff8316611c38565b6001600160a01b03600891821c811660e0860152600484015481166101008601526005840154811661012086015260068401541661014085015260078301546101608501528201546101808085019190915260098301546101a08501526101c0840152611dbb6101e08401600a8401611c45565b8381036020850152611dd081600b8501611c45565b600c840154604095909501949094525060209790970196600d90910190600101611d02565b50909695505050505050565b80546001600160a01b031682526001810154602083015260a0604083018190525f90611e3290840160028401611ce3565b8381036060850152611e478160038501611ce3565b90508381036080850152611e5e8160048501611c45565b949350505050565b6001600160a01b03878116825286166020820152604081018590528354606082015260018401546080820152600284015460a0820152600384015460c0820152600484015460e082015261014061010082018190525f90611ec990830185611b9a565b828103610120840152611edc8185611e01565b9998505050505050505050565b5f805f60608486031215611efb575f80fd5b5050815160208301516040909301519094929350919050565b5f60208284031215611f24575f80fd5b5051919050565b5f60208284031215611f3b575f80fd5b8151611ae8816119ea565b80820180821115611f6557634e487b7160e01b5f52601160045260245ffd5b92915050565b6001600160a01b038681168252851660208201526040810184905260a0606082018190525f90611f9d90830185611b9a565b8281036080840152611faf8185611e01565b98975050505050505050565b805f5b6005811015611fe65781516001600160a01b0316845260209384019390910190600101611fbe565b50505050565b610580810181885f5b600b81101561201d5781516001600160a01b0316835260209283019290910190600101611ff5565b5050506101608201875f5b600581101561206e578151835f5b6005811015612055578251825260209283019290910190600101612036565b50505060a0929092019160209190910190600101612028565b50505085610480830152846104a083015261208d6104c0830185611fbb565b6001600160a01b038316610560830152979650505050505050565b602081525f825160a060208401526120c360c0840182611b57565b905060018060a01b0360208501511660408401526040840151606084015260608401516080840152608084015160a08401528091505092915050565b604081525f6121116040830185611b57565b90508260208301529392505050565b604081525f6121326040830185611b57565b905060018060a01b0383166020830152939250505056fe6101206040525f60808190525f1960a081905260c082905261010060e0819052655af3107a4000808252600584905560069290925560079290925560089190915560095534801561004e575f80fd5b506040516114a73803806114a783398101604081905261006d916100e9565b5f80546001600160a01b03199081166001600160a01b0397881617909155600180548216958716959095179094556002805485169386169390931790925560038054841691851691909117905560048054909216921691909117905561014a565b80516001600160a01b03811681146100e4575f80fd5b919050565b5f805f805f60a086880312156100fd575f80fd5b610106866100ce565b9450610114602087016100ce565b9350610122604087016100ce565b9250610130606087016100ce565b915061013e608087016100ce565b90509295509295909350565b611350806101575f395ff3fe60806040526004361061008f575f3560e01c80638406c079116100575780638406c0791461016757806389a3027114610185578063c54e44eb146101ac578063dc38a179146101d3578063e0d05d39146101f2575f80fd5b806318546f1214610093578063206aeab3146100a85780634920cfea146100ec5780635df7eb901461011357806382092a7f14610140575b5f80fd5b6100a66100a1366004610d5f565b610219565b005b3480156100b3575f80fd5b506100cf73888888888889758f76e7103c6cbf23abbf58f94681565b6040516001600160a01b0390911681526020015b60405180910390f35b3480156100f7575f80fd5b506100cf73d1d7d99764f8a52aff007b7831cc02748b2013b581565b34801561011e575f80fd5b5061013261012d366004610d89565b610421565b6040519081526020016100e3565b34801561014b575f80fd5b506100cf736c9f097e044506712b58eac670c9a5fd4bccef1381565b348015610172575f80fd5b505f546100cf906001600160a01b031681565b348015610190575f80fd5b506100cf73a0b86991c6218b36c1d19d4a2e9eb0ce3606eb4881565b3480156101b7575f80fd5b506100cf73dac17f958d2ee523a2206206994597c13d831ec781565b3480156101de575f80fd5b506101326101ed366004610d89565b61070b565b3480156101fd575f80fd5b506100cf739d39a5de30e57443bff2a8307a4256c8797a349781565b6001546001600160a01b039081169082160361029f5760025460035460405163474cf53d60e01b81526001600160a01b0391821660048201523060248201525f604482015291169063474cf53d9034906064015f604051808303818588803b158015610283575f80fd5b505af1158015610295573d5f803e3d5ffd5b5050505050610382565b60035460405163095ea7b360e01b81526001600160a01b039182166004820152602481018490529082169063095ea7b3906044016020604051808303815f875af11580156102ef573d5f803e3d5ffd5b505050506040513d601f19601f820116820180604052508101906103139190610dc2565b5060035460405163617ba03760e01b81526001600160a01b038381166004830152602482018590523060448301525f60648301529091169063617ba037906084015f604051808303815f87803b15801561036b575f80fd5b505af115801561037d573d5f803e3d5ffd5b505050505b600480545f54604051630c04a8a160e41b81526001600160a01b03918216938101939093525f196024840152169063c04a8a10906044015f604051808303815f87803b1580156103d0575f80fd5b505af11580156103e2573d5f803e3d5ffd5b50506040518492506001600160a01b038416915030907f75134c5a30206e01639de7bebafb4f915e3e6cef465a59b1424e26ea3c9faeb7905f90a45050565b5f808073a0b86991c6218b36c1d19d4a2e9eb0ce3606eb47196001600160a01b038516016104815761047e73a0b86991c6218b36c1d19d4a2e9eb0ce3606eb48739d39a5de30e57443bff2a8307a4256c8797a3497878985610a19565b91505b60405163095ea7b360e01b815273888888888889758f76e7103c6cbf23abbf58f946600482015260248101839052739d39a5de30e57443bff2a8307a4256c8797a34979063095ea7b3906044016020604051808303815f875af11580156104ea573d5f803e3d5ffd5b505050506040513d601f19601f8201168201806040525081019061050e9190610dc2565b505f8073888888888889758f76e7103c6cbf23abbf58f9466001600160a01b031663c81f847a8873d1d7d99764f8a52aff007b7831cc02748b2013b585600561066a8a600a6040518060800160405290815f82015f9054906101000a900460ff16600381111561058057610580610de8565b600381111561059157610591610de8565b8152815461010090046001600160a01b031660208201526001820180546040909201916105bd90610dfc565b80601f01602080910402602001604051908101604052809291908181526020018280546105e990610dfc565b80156106345780601f1061060b57610100808354040283529160200191610634565b820191905f5260205f20905b81548152906001019060200180831161061757829003601f168201915b50505091835250506002919091015460ff161515602090910152739d39a5de30e57443bff2a8307a4256c8797a34979190610ba5565b600d6040518763ffffffff1660e01b815260040161068d9695949392919061115f565b6060604051808303815f875af11580156106a9573d5f803e3d5ffd5b505050506040513d601f19601f820116820180604052508101906106cd91906111d5565b505090506107006040518060400160405280600d81526020016c030b6b7bab73a27baba282a1d1609d1b81525082610be3565b979650505050505050565b5f61072360405180602001604052805f815250610c2c565b6107546040518060400160405280601081526020016f2d2d2d20696e2073656c5054202d2d2d60801b815250610c2c565b6107936040518060400160405280601881526020017f61646472657373287468697329202d20696e744163633a20000000000000000081525084610c72565b6107bd60405180604001604052806008815260200167034b73a20b1b19d160c51b81525084610c72565b60405163095ea7b360e01b815273888888888889758f76e7103c6cbf23abbf58f946600482015260248101859052736c9f097e044506712b58eac670c9a5fd4bccef139063095ea7b3906044016020604051808303815f875af1158015610826573d5f803e3d5ffd5b505050506040513d601f19601f8201168201806040525081019061084a9190610dc2565b505f8073888888888889758f76e7103c6cbf23abbf58f9466001600160a01b031663594a88cc3073d1d7d99764f8a52aff007b7831cc02748b2013b5896108ba87600a6040518060800160405290815f82015f9054906101000a900460ff16600381111561058057610580610de8565b600d6040518663ffffffff1660e01b81526004016108dc959493929190611200565b6060604051808303815f875af11580156108f8573d5f803e3d5ffd5b505050506040513d601f19601f8201168201806040525081019061091c91906111d5565b5050905061095560405180604001604052806013815260200172030b6b7bab73a27baba10169039aaa9a2329d1606d1b81525082610be3565b5f73a0b86991c6218b36c1d19d4a2e9eb0ce3606eb47196001600160a01b038616016109b3576109b0739d39a5de30e57443bff2a8307a4256c8797a349773a0b86991c6218b36c1d19d4a2e9eb0ce3606eb48308587610a19565b90505b6109e46040518060400160405280600f81526020016e030b6b7bab73a27baba2aa9a2219d1608d1b81525082610be3565b60405162461bcd60e51b81526020600482015260066024820152650d0cae4ca70760d31b604482015260640160405180910390fd5b60405163095ea7b360e01b815273e592427a0aece92de3edee1f18e0157c0586156460048201819052602482018490525f916001600160a01b0388169063095ea7b3906044016020604051808303815f875af1158015610a7b573d5f803e3d5ffd5b505050506040513d601f19601f82011682018060405250810190610a9f9190610dc2565b506040805160a081018252606089811b6bffffffffffffffffffffffff1990811660c0840152607d60ea1b60d4840181905273dac17f958d2ee523a2206206994597c13d831ec760601b60d785015260eb84015289821b1660ee830152825160e28184030181526101028301845282526001600160a01b038089166020840152428385015290820187905260808201869052915163c04b8d5960e01b81526101f49284169063c04b8d5990610b58908490600401611250565b6020604051808303815f875af1158015610b74573d5f803e3d5ffd5b505050506040513d601f19601f82011682018060405250810190610b9891906112a7565b9998505050505050505050565b610bad610cd7565b506040805160a0810182526001600160a01b039490941680855260208501939093528301919091525f6060830152608082015290565b610c288282604051602401610bf99291906112be565b60408051601f198184030181529190526020810180516001600160e01b03166309710a9d60e41b179052610cb3565b5050565b610c6f81604051602401610c4091906112df565b60408051601f198184030181529190526020810180516001600160e01b031663104c13eb60e21b179052610cb3565b50565b610c288282604051602401610c889291906112f1565b60408051601f198184030181529190526020810180516001600160e01b031663319af33360e01b1790525b610c6f8180516a636f6e736f6c652e6c6f67602083015f808483855afa5050505050565b6040518060a001604052805f6001600160a01b031681526020015f81526020015f6001600160a01b031681526020015f6001600160a01b03168152602001610d3f6040805160808101909152805f81525f602082018190526060604083018190529091015290565b905290565b80356001600160a01b0381168114610d5a575f80fd5b919050565b5f8060408385031215610d70575f80fd5b82359150610d8060208401610d44565b90509250929050565b5f805f60608486031215610d9b575f80fd5b83359250610dab60208501610d44565b9150610db960408501610d44565b90509250925092565b5f60208284031215610dd2575f80fd5b81518015158114610de1575f80fd5b9392505050565b634e487b7160e01b5f52602160045260245ffd5b600181811c90821680610e1057607f821691505b602082108103610e2e57634e487b7160e01b5f52602260045260245ffd5b50919050565b60048110610c6f57634e487b7160e01b5f52602160045260245ffd5b5f81518084525f5b81811015610e7457602081850181015186830182015201610e58565b505f602082860101526020601f19601f83011685010191505092915050565b60018060a01b0381511682526020810151602083015260018060a01b03604082015116604083015260018060a01b0360608201511660608301525f608082015160a060808501528051610ee581610e34565b60a085015260208101516001600160a01b031660c08501526040810151608060e0860152610f17610120860182610e50565b905060608201511515610100860152809250505092915050565b610f3a81610e34565b9052565b80545f90600181811c90821680610f5657607f821691505b602082108103610f7457634e487b7160e01b5f52602260045260245ffd5b81865260208601818015610f8f5760018114610fa557610fd1565b60ff198516825283151560051b82019550610fd1565b5f878152602090205f5b85811015610fcb57815484820152600190910190602001610faf565b83019650505b505050505092915050565b5f82825480855260208501945060208160051b830101845f5260205f205f5b838110156110ee57601f19858403018852606083528154606084015260018201546080840152600282015460a0840152600382015461104060c0850160ff8316610f31565b6001600160a01b03600891821c811660e0860152600484015481166101008601526005840154811661012086015260068401541661014085015260078301546101608501528201546101808085019190915260098301546101a08501526101c08401526110b46101e08401600a8401610f3e565b83810360208501526110c981600b8501610f3e565b600c840154604095909501949094525060209790970196600d90910190600101610ffb565b50909695505050505050565b80546001600160a01b031682526001810154602083015260a0604083018190525f9061112b90840160028401610fdc565b83810360608501526111408160038501610fdc565b905083810360808501526111578160048501610f3e565b949350505050565b6001600160a01b03878116825286166020820152604081018590528354606082015260018401546080820152600284015460a0820152600384015460c0820152600484015460e082015261014061010082018190525f906111c290830185610e93565b828103610120840152610b9881856110fa565b5f805f606084860312156111e7575f80fd5b5050815160208301516040909301519094929350919050565b6001600160a01b038681168252851660208201526040810184905260a0606082018190525f9061123290830185610e93565b828103608084015261124481856110fa565b98975050505050505050565b602081525f825160a0602084015261126b60c0840182610e50565b905060018060a01b0360208501511660408401526040840151606084015260608401516080840152608084015160a08401528091505092915050565b5f602082840312156112b7575f80fd5b5051919050565b604081525f6112d06040830185610e50565b90508260208301529392505050565b602081525f610de16020830184610e50565b604081525f6113036040830185610e50565b905060018060a01b0383166020830152939250505056fea2646970667358221220419a3e6acee9c0a95ccb5e624015bf8de70e9bc2893d0c3b08d9a4c0b86b56d864736f6c634300081a003372656365697665725f20696e206c656e642829202d20326e64206f776e65723a2073555344654f7574206265696e67207377617070656420666f72205054202d20696e20626f72726f7728293a20a264697066735822122023ba7fc2130f330872162bc6b6b3d8f202d868b823ab6c12434d591ecd42073264736f6c634300081a0033","linkReferences":{}},"methodIdentifiers":{"borrow(uint256,address)":"4b3fd148","lend(uint256,address,address)":"cd290a3f","lend2(uint256,address)":"79a72c5e","performRedemption(uint256,uint256,address,address,uint8)":"f4771c70"},"id":13}