{"abi":[{"type":"function","name":"borrow","inputs":[{"name":"amount_","type":"uint256","internalType":"uint256"},{"name":"receiver_","type":"address","internalType":"address"}],"outputs":[],"stateMutability":"nonpayable"},{"type":"function","name":"finishBorrow","inputs":[{"name":"receiver_","type":"address","internalType":"address"}],"outputs":[],"stateMutability":"nonpayable"},{"type":"function","name":"getUserAccountData","inputs":[{"name":"user_","type":"address","internalType":"address"}],"outputs":[{"name":"userData","type":"tuple","internalType":"struct UserAccountData","components":[{"name":"totalCollateralBase","type":"uint256","internalType":"uint256"},{"name":"totalDebtBase","type":"uint256","internalType":"uint256"},{"name":"availableBorrowsBase","type":"uint256","internalType":"uint256"},{"name":"currentLiquidationThreshold","type":"uint256","internalType":"uint256"},{"name":"ltv","type":"uint256","internalType":"uint256"},{"name":"healthFactor","type":"uint256","internalType":"uint256"}]}],"stateMutability":"view"},{"type":"function","name":"lend","inputs":[{"name":"amountIn_","type":"uint256","internalType":"uint256"},{"name":"isETH_","type":"bool","internalType":"bool"}],"outputs":[],"stateMutability":"payable"},{"type":"function","name":"rebuyPT","inputs":[{"name":"amountInUSDC_","type":"uint256","internalType":"uint256"}],"outputs":[],"stateMutability":"nonpayable"},{"type":"function","name":"redeem","inputs":[{"name":"amount_","type":"uint256","internalType":"uint256"},{"name":"owner_","type":"address","internalType":"address"},{"name":"receiver_","type":"address","internalType":"address"},{"name":"token_","type":"uint8","internalType":"enum Tokens"}],"outputs":[],"stateMutability":"nonpayable"},{"type":"event","name":"NewAccountCreated","inputs":[{"name":"account","type":"address","indexed":false,"internalType":"address"}],"anonymous":false}],"bytecode":{"object":"0x6080604052348015600e575f80fd5b506124ac8061001c5f395ff3fe608060405260043610610054575f3560e01c80634b3fd148146100585780634e7896a9146100795780634f52db6b146100985780635c8abc38146100ab578063bf92857c146100ca578063da5376601461013d575b5f80fd5b348015610063575f80fd5b50610077610072366004611868565b61015c565b005b348015610084575f80fd5b50610077610093366004611896565b610582565b6100776100a63660046118be565b610653565b3480156100b6575f80fd5b506100776100c53660046118e1565b610827565b3480156100d5575f80fd5b506100e96100e4366004611896565b6109c1565b60405161013491905f60c082019050825182526020830151602083015260408301516040830152606083015160608301526080830151608083015260a083015160a083015292915050565b60405180910390f35b348015610148575f80fd5b506100776101573660046118f8565b610acc565b335f908152602460208190526040808320546025549151631375877960e31b8152600481018790526001600160a01b038681169482019490945290831660448201819052939290911690639bac3bc8906064016020604051808303815f875af11580156101cb573d5f803e3d5ffd5b505050506040513d601f19601f820116820180604052508101906101ef919061194b565b6019546021549192505f918291610215916001600160a01b039182169116308685610db9565b6021546004805460405163095ea7b360e01b81526001600160a01b03918216928101929092526024820184905292935091169063095ea7b3906044016020604051808303815f875af115801561026d573d5f803e3d5ffd5b505050506040513d601f19601f820116820180604052508101906102919190611962565b506004546005546040805160808101909152600680545f9485946001600160a01b039182169463c81f847a94309492909316928792600e926103c6928c92829060ff1660038111156102e5576102e561197d565b60038111156102f6576102f661197d565b8152815461010090046001600160a01b0316602082015260018201805460409092019161032290611991565b80601f016020809104026020016040519081016040528092919081815260200182805461034e90611991565b80156103995780601f1061037057610100808354040283529160200191610399565b820191905f5260205f20905b81548152906001019060200180831161037c57829003601f168201915b50505091835250506002919091015460ff1615156020909101526021546001600160a01b03169190610f39565b6040516001600160e01b031960e088901b1681526103ee959493929190600990600401611ce8565b6060604051808303815f875af115801561040a573d5f803e3d5ffd5b505050506040513d601f19601f8201168201806040525081019061042e9190611d6b565b505090506104716040518060400160405280601e81526020017f6e657450744f7574202a2a2a2a2a202d206f776e6564206279206f7a3a20000081525082610f7c565b601d546040516370a0823160e01b81526001600160a01b0388811660048301525f9216906370a0823190602401602060405180830381865afa1580156104b9573d5f803e3d5ffd5b505050506040513d601f19601f820116820180604052508101906104dd919061194b565b90506105166040518060400160405280601581526020017403ab9b231903232b13a10169034b73a1030b1b19d1605d1b81525082610f7c565b601b546040516340c10f1960e01b81526001600160a01b038a8116600483015260248201849052909116906340c10f19906044015f604051808303815f87803b158015610561575f80fd5b505af1158015610573573d5f803e3d5ffd5b50505050505050505050505050565b6019546040516370a0823160e01b81523060048201525f916001600160a01b0316906370a0823190602401602060405180830381865afa1580156105c8573d5f803e3d5ffd5b505050506040513d601f19601f820116820180604052508101906105ec919061194b565b601b546040516340c10f1960e01b81526001600160a01b038581166004830152602482018490529293509116906340c10f19906044015f604051808303815f87803b158015610639575f80fd5b505af115801561064b573d5f803e3d5ffd5b505050505050565b6002546001546040805163026b1d5f60e01b815290516001600160a01b03938416939092169163026b1d5f916004808201926020929091908290030181865afa1580156106a2573d5f803e3d5ffd5b505050506040513d601f19601f820116820180604052508101906106c69190611d96565b6001600160a01b031614610761576001546040805163026b1d5f60e01b815290516001600160a01b039092169163026b1d5f916004808201926020929091908290030181865afa15801561071c573d5f803e3d5ffd5b505050506040513d601f19601f820116820180604052508101906107409190611d96565b600280546001600160a01b0319166001600160a01b03929092169190911790555b335f908152602460205260409020546001600160a01b0316806107c657610786610fc1565b6040516001600160a01b03821681529091507fe759fda21527aab212bc806c6b81b4e16add78b260f71442690c536ba1de40cd9060200160405180910390a15b811561082157806001600160a01b031663de407d8f346040518263ffffffff1660e01b81526004015f604051808303818588803b158015610805575f80fd5b505af1158015610817573d5f803e3d5ffd5b5050505050505050565b505b5050565b60235461086b5760405162461bcd60e51b815260206004820152600e60248201526d3932b13abca82a1d1032b93937b960911b604482015260640160405180910390fd5b6019546040516323b872dd60e01b8152336004820152306024820152604481018390526001600160a01b03909116906323b872dd906064016020604051808303815f875af11580156108bf573d5f803e3d5ffd5b505050506040513d601f19601f820116820180604052508101906108e39190611962565b50601c546040516370a0823160e01b81523060048201525f916001600160a01b0316906370a0823190602401602060405180830381865afa15801561092a573d5f803e3d5ffd5b505050506040513d601f19601f8201168201806040525081019061094e919061194b565b601c5460405163a9059cbb60e01b8152336004820152602481018390529192506001600160a01b03169063a9059cbb906044016020604051808303815f875af115801561099d573d5f803e3d5ffd5b505050506040513d601f19601f820116820180604052508101906108219190611962565b6109f46040518060c001604052805f81526020015f81526020015f81526020015f81526020015f81526020015f81525090565b6001600160a01b038281165f908152602460208190526040808320546002549151632fe4a15f60e21b815290851660048201819052948493849384938493849392169163bf92857c910160c060405180830381865afa158015610a59573d5f803e3d5ffd5b505050506040513d601f19601f82011682018060405250810190610a7d9190611db1565b9550955095509550955095506040518060c00160405280878152602001868152602001610aa986611037565b815260200184815260200183815260200182815250975050505050505050919050565b60048054600554601c546040516370a0823160e01b8152309481018590525f9485946001600160a01b039081169463594a88cc9492939082169291909116906370a0823190602401602060405180830381865afa158015610b2f573d5f803e3d5ffd5b505050506040513d601f19601f82011682018060405250810190610b53919061194b565b604080516080810190915260068054610b80928a929091829060ff1660038111156102e5576102e561197d565b6040516001600160e01b031960e087901b168152610ba79493929190600990600401611df7565b6060604051808303815f875af1158015610bc3573d5f803e3d5ffd5b505050506040513d601f19601f82011682018060405250810190610be79190611d6b565b509091505f9050836004811115610c0057610c0061197d565b03610d09576021546020545f91610c27916001600160a01b03918216911684866001611073565b9050610c6160405180604001604052806016815260200175030b6b7bab73a2a37b5b2b727baba1015151515151d160551b81525082610f7c565b604080518082018252601e81527f57455448206f7a202d20706f7374206261746368202d206e6f7420303a2000006020808301919091525491516370a0823160e01b8152306004820152610d07926001600160a01b0316906370a08231906024015b602060405180830381865afa158015610cde573d5f803e3d5ffd5b505050506040513d601f19601f82011682018060405250810190610d02919061194b565b610f7c565b505b604080518082018252601e81527f7355534465206f7a202d20706f7374207769746864726177202d20303a200000602082015260215491516370a0823160e01b8152306004820152610d6d926001600160a01b0316906370a0823190602401610cc3565b61064b60405180606001604052806021815260200161245660219139601e546040516370a0823160e01b81523060048201526001600160a01b03909116906370a0823190602401610cc3565b60405163095ea7b360e01b815273e592427a0aece92de3edee1f18e0157c0586156460048201819052602482018490525f916001600160a01b0388169063095ea7b3906044016020604051808303815f875af1158015610e1b573d5f803e3d5ffd5b505050506040513d601f19601f82011682018060405250810190610e3f9190611962565b506040805160a081018252601a546bffffffffffffffffffffffff1960608b811b821660c0850152607d60ea1b60d4850181905292811b821660d785015260eb84019290925289821b1660ee830152825180830360e20181526101028301845282526001600160a01b038881166020840152428385015290820187905260808201869052915163c04b8d5960e01b81526101f49284169063c04b8d5990610eea908490600401611e3b565b6020604051808303815f875af1158015610f06573d5f803e3d5ffd5b505050506040513d601f19601f82011682018060405250810190610f2a919061194b565b93505050505b95945050505050565b610f416117da565b506040805160a0810182526001600160a01b03851680825260208201859052918101919091525f6060820152608081018290525b9392505050565b6108238282604051602401610f92929190611e92565b60408051601f198184030181529190526020810180516001600160e01b03166309710a9d60e41b1790526115bd565b6025546040515f9182916001600160a01b0390911690610fe090611847565b6001600160a01b039091168152602001604051809103905ff080158015611009573d5f803e3d5ffd5b50335f90815260246020526040902080546001600160a01b0319166001600160a01b03831617905592915050565b5f6064611059836127105f60140154600a6110529190611ec7565b91906115c9565b6110639084611eda565b61106d9190611eed565b92915050565b5f6110dc6040805161018081019091525f60c0820181815260e0830182905261010083018290526101208301829052610140830191909152606061016083015281908152606060208201526040015f815260200160608152602001606081526020015f81525090565b60408051608081018252308082525f602083018190529282015260608101919091528315611461575f6111875f6015015f9054906101000a90046001600160a01b03166001600160a01b03166338fff2d06040518163ffffffff1660e01b8152600401602060405180830381865afa15801561115a573d5f803e3d5ffd5b505050506040513d601f19601f8201168201806040525081019061117e919061194b565b5f60018a6115e4565b6017546040805163038fff2d60e41b815290519293505f92611203926001600160a01b0316916338fff2d09160048083019260209291908290030181865afa1580156111d5573d5f803e3d5ffd5b505050506040513d601f19601f820116820180604052508101906111f9919061194b565b600160025f6115e4565b604080516002808252606082019092529192505f9190816020015b61124f6040518060a001604052805f80191681526020015f81526020015f81526020015f8152602001606081525090565b81526020019060019003908161121e57905050905082815f8151811061127757611277611f20565b6020026020010181905250818160018151811061129657611296611f20565b6020908102919091018101919091528501819052604080516003808252608082019092525f91816020016020820280368337505060215482519293506001600160a01b0316918391505f906112ed576112ed611f20565b6001600160a01b039283166020918202929092010152601f5482519116908290600190811061131e5761131e611f20565b6001600160a01b039283166020918202929092018101919091525482519116908290600290811061135157611351611f20565b6001600160a01b03928316602091820292909201015260608701829052601654604051637c26833760e11b815291169063f84d066e9061139b905f90869086908b9060040161200a565b5f604051808303815f875af11580156113b6573d5f803e3d5ffd5b505050506040513d5f823e601f3d908101601f191682016040526113dd919081019061207b565b50604080516003808252608082019092525f91602082016060803683370190505090506001600160ff1b03815f8151811061141a5761141a611f20565b6020026020010181815250506001600160ff1b038160028151811061144157611441611f20565b6020908102919091010152608087015250505f6040850152506115309050565b6040805160c0810180835260155463038fff2d60e41b90915291515f9282916001600160a01b03909116906338fff2d09060c4808501916020918187030181865afa1580156114b2573d5f803e3d5ffd5b505050506040513d601f19601f820116820180604052508101906114d6919061194b565b81526020015f81526001600160a01b03808c1660208301528a166040820152606081018990526080015f6040519080825280601f01601f19166020018201604052801561152a576020820181803683370190505b50905250505b60165460405163095ea7b360e01b81526001600160a01b039182166004820152602481018890529089169063095ea7b3906044016020604051808303815f875af1158015611580573d5f803e3d5ffd5b505050506040513d601f19601f820116820180604052508101906115a49190611962565b506115b182826001611687565b98975050505050505050565b6115c6816117ba565b50565b5f825f1904841183021582026115dd575f80fd5b5091020490565b6116156040518060a001604052805f80191681526020015f81526020015f81526020015f8152602001606081525090565b6040518060a001604052808681526020018581526020018481526020018381526020015f67ffffffffffffffff81111561165157611651611f0c565b6040519080825280601f01601f19166020018201604052801561167b576020820181803683370190505b50905295945050505050565b5f8115610f7557601654604080860151602087015160608801516080890151935163945bcec960e01b81525f956001600160a01b03169463945bcec9946116da949093909290918b914290600401612143565b5f604051808303815f875af11580156116f5573d5f803e3d5ffd5b505050506040513d5f823e601f3d908101601f1916820160405261171c919081019061207b565b90508060028151811061173157611731611f20565b602002602001015173__$5649a79a4e933613092090e5f3465de1d8$__631b5ac4b590916040518263ffffffff1660e01b815260040161177391815260200190565b602060405180830381865af415801561178e573d5f803e3d5ffd5b505050506040513d601f19601f820116820180604052508101906117b2919061194b565b915050610f75565b80516a636f6e736f6c652e6c6f67602083015f808483855afa5050505050565b6040518060a001604052805f6001600160a01b031681526020015f81526020015f6001600160a01b031681526020015f6001600160a01b031681526020016118426040805160808101909152805f81525f602082018190526060604083018190529091015290565b905290565b610257806121ff83390190565b6001600160a01b03811681146115c6575f80fd5b5f8060408385031215611879575f80fd5b82359150602083013561188b81611854565b809150509250929050565b5f602082840312156118a6575f80fd5b8135610f7581611854565b80151581146115c6575f80fd5b5f80604083850312156118cf575f80fd5b82359150602083013561188b816118b1565b5f602082840312156118f1575f80fd5b5035919050565b5f805f806080858703121561190b575f80fd5b84359350602085013561191d81611854565b9250604085013561192d81611854565b9150606085013560058110611940575f80fd5b939692955090935050565b5f6020828403121561195b575f80fd5b5051919050565b5f60208284031215611972575f80fd5b8151610f75816118b1565b634e487b7160e01b5f52602160045260245ffd5b600181811c908216806119a557607f821691505b6020821081036119c357634e487b7160e01b5f52602260045260245ffd5b50919050565b600481106115c6576115c661197d565b5f81518084525f5b818110156119fd576020818501810151868301820152016119e1565b505f602082860101526020601f19601f83011685010191505092915050565b60018060a01b0381511682526020810151602083015260018060a01b03604082015116604083015260018060a01b0360608201511660608301525f608082015160a060808501528051611a6e816119c9565b60a085015260208101516001600160a01b031660c08501526040810151608060e0860152611aa06101208601826119d9565b905060608201511515610100860152809250505092915050565b611ac3816119c9565b9052565b80545f90600181811c90821680611adf57607f821691505b602082108103611afd57634e487b7160e01b5f52602260045260245ffd5b81865260208601818015611b185760018114611b2e57611b5a565b60ff198516825283151560051b82019550611b5a565b5f878152602090205f5b85811015611b5457815484820152600190910190602001611b38565b83019650505b505050505092915050565b5f82825480855260208501945060208160051b830101845f5260205f205f5b83811015611c7757601f19858403018852606083528154606084015260018201546080840152600282015460a08401526003820154611bc960c0850160ff8316611aba565b6001600160a01b03600891821c811660e0860152600484015481166101008601526005840154811661012086015260068401541661014085015260078301546101608501528201546101808085019190915260098301546101a08501526101c0840152611c3d6101e08401600a8401611ac7565b8381036020850152611c5281600b8501611ac7565b600c840154604095909501949094525060209790970196600d90910190600101611b84565b50909695505050505050565b80546001600160a01b031682526001810154602083015260a0604083018190525f90611cb490840160028401611b65565b8381036060850152611cc98160038501611b65565b90508381036080850152611ce08160048501611ac7565b949350505050565b6001600160a01b03878116825286166020820152604081018590528354606082015260018401546080820152600284015460a0820152600384015460c0820152600484015460e082015261014061010082018190525f90611d4b90830185611a1c565b828103610120840152611d5e8185611c83565b9998505050505050505050565b5f805f60608486031215611d7d575f80fd5b5050815160208301516040909301519094929350919050565b5f60208284031215611da6575f80fd5b8151610f7581611854565b5f805f805f8060c08789031215611dc6575f80fd5b50508451602086015160408701516060880151608089015160a090990151939a929950909790965094509092509050565b6001600160a01b038681168252851660208201526040810184905260a0606082018190525f90611e2990830185611a1c565b82810360808401526115b18185611c83565b602081525f825160a06020840152611e5660c08401826119d9565b905060018060a01b0360208501511660408401526040840151606084015260608401516080840152608084015160a08401528091505092915050565b604081525f611ea460408301856119d9565b90508260208301529392505050565b634e487b7160e01b5f52601160045260245ffd5b8082018082111561106d5761106d611eb3565b8181038181111561106d5761106d611eb3565b5f82611f0757634e487b7160e01b5f52601260045260245ffd5b500490565b634e487b7160e01b5f52604160045260245ffd5b634e487b7160e01b5f52603260045260245ffd5b60028110611ac357611ac361197d565b5f82825180855260208501945060208160051b830101602085015f5b83811015611c7757601f198584030188528151805184526020810151602085015260408101516040850152606081015160608501526080810151905060a06080850152611fb060a08501826119d9565b6020998a0199909450929092019150600101611f60565b5f8151808452602084019350602083015f5b828110156120005781516001600160a01b0316865260209586019590910190600101611fd9565b5093949350505050565b6120148186611f34565b60e060208201525f61202960e0830186611f44565b828103604084015261203b8186611fc7565b915050610f30606083018480516001600160a01b039081168352602080830151151590840152604080830151909116908301526060908101511515910152565b5f6020828403121561208b575f80fd5b815167ffffffffffffffff8111156120a1575f80fd5b8201601f810184136120b1575f80fd5b805167ffffffffffffffff8111156120cb576120cb611f0c565b8060051b604051601f19603f830116810181811067ffffffffffffffff821117156120f8576120f8611f0c565b604052918252602081840181019290810187841115612115575f80fd5b6020850194505b838510156121385784518082526020958601959093500161211c565b509695505050505050565b61214d8188611f34565b61012060208201525f612164610120830188611f44565b82810360408401526121768188611fc7565b86516001600160a01b03908116606086810191909152602089015115156080870152604089015190911660a0860152870151151560c0850152905082810360e0840152845180825260208087019201905f5b818110156121e65783518352602093840193909201916001016121c8565b5050610100939093019390935250969550505050505056fe6080604052348015600e575f80fd5b50604051610257380380610257833981016040819052602b91604e565b5f80546001600160a01b0319166001600160a01b03929092169190911790556079565b5f60208284031215605d575f80fd5b81516001600160a01b03811681146072575f80fd5b9392505050565b6101d1806100865f395ff3fe608060405260043610610028575f3560e01c80638406c0791461002c578063de407d8f14610066575b5f80fd5b348015610037575f80fd5b505f5461004a906001600160a01b031681565b6040516001600160a01b03909116815260200160405180910390f35b61006e610070565b005b60405163474cf53d60e01b81527387870bca3f3fd6335c3f4ce8392d69350b4fa4e2600482018190523060248301525f604483015273893411580e590d62ddbca8a703d61cc4a8c7b2b991829063474cf53d9034906064015f604051808303818588803b1580156100df575f80fd5b505af11580156100f1573d5f803e3d5ffd5b50505f54604051630c04a8a160e41b81526001600160a01b0390911660048201525f1960248201527372e95b8931767c79ba4eee721354d6e99a61d004935083925063c04a8a1091506044015f604051808303815f87803b158015610154575f80fd5b505af1158015610166573d5f803e3d5ffd5b50506040513492503091507f60ecce3105bf3b202d7a83cd679868ea5fd87b35901b96d3748136fafe323c65905f90a350505056fea26469706673582212204f09b60a4ad56b9a64ffed687fd5a66eedcc18b17abad5c3408c0ee25ba3fb9364736f6c634300081a003355534465206f7a202d20706f7374207769746864726177202d206e6f7420303a20a2646970667358221220717f955122e165c0448a1806a3ab8545c18bbf6e565a1c0d52055b81cb483f8e64736f6c634300081a0033","linkReferences":{"contracts/libraries/HelpersLib.sol":{"HelpersLib":[{"start":5975,"length":20}]}}},"methodIdentifiers":{"borrow(uint256,address)":"4b3fd148","finishBorrow(address)":"4e7896a9","getUserAccountData(address)":"bf92857c","lend(uint256,bool)":"4f52db6b","rebuyPT(uint256)":"5c8abc38","redeem(uint256,address,address,uint8)":"da537660"},"id":9}