{"abi":[{"type":"function","name":"borrow","inputs":[{"name":"amount_","type":"uint256","internalType":"uint256"}],"outputs":[],"stateMutability":"nonpayable"},{"type":"function","name":"defaultApprox","inputs":[],"outputs":[{"name":"guessMin","type":"uint256","internalType":"uint256"},{"name":"guessMax","type":"uint256","internalType":"uint256"},{"name":"guessOffchain","type":"uint256","internalType":"uint256"},{"name":"maxIteration","type":"uint256","internalType":"uint256"},{"name":"eps","type":"uint256","internalType":"uint256"}],"stateMutability":"view"},{"type":"function","name":"emptyLimit","inputs":[],"outputs":[{"name":"limitRouter","type":"address","internalType":"address"},{"name":"epsSkipMarket","type":"uint256","internalType":"uint256"},{"name":"optData","type":"bytes","internalType":"bytes"}],"stateMutability":"view"},{"type":"function","name":"emptySwap","inputs":[],"outputs":[{"name":"swapType","type":"uint8","internalType":"enum SwapType"},{"name":"extRouter","type":"address","internalType":"address"},{"name":"extCalldata","type":"bytes","internalType":"bytes"},{"name":"needScale","type":"bool","internalType":"bool"}],"stateMutability":"view"},{"type":"function","name":"lend","inputs":[{"name":"isETH_","type":"bool","internalType":"bool"}],"outputs":[],"stateMutability":"payable"}],"bytecode":{"object":"0x6101206040525f60808190525f1960a081905260c082905261010060e0819052655af3107a40008082526011849055601292909255601392909255601491909155601555348015604d575f80fd5b506110718061005b5f395ff3fe608060405260043610610049575f3560e01c806301a155401461004d57806309316dd3146100625780634ebfc8141461008e578063c5ebeaec146100dc578063f66a7749146100fb575b5f80fd5b61006061005b366004610a59565b61011f565b005b34801561006d575f80fd5b5061007661024e565b60405161008593929190610abe565b60405180910390f35b348015610099575f80fd5b506011546012546013546014546015546100b4949392919085565b604080519586526020860194909452928401919091526060830152608082015260a001610085565b3480156100e7575f80fd5b506100606100f6366004610aed565b6102f1565b348015610106575f80fd5b5061010f6105c9565b6040516100859493929190610b34565b60408051808201909152601a81527f61617665506f6f6c50726f766964657220696e206c656e643a20000000000000602082015260015461016991906001600160a01b031661067b565b6001546040805163026b1d5f60e01b815290515f926001600160a01b03169163026b1d5f9160048083019260209291908290030181865afa1580156101b0573d5f803e3d5ffd5b505050506040513d601f19601f820116820180604052508101906101d49190610b79565b9050811561024a575f805460405163474cf53d60e01b81526001600160a01b038481166004830152306024830152604482019390935291169063474cf53d9034906064015f604051808303818588803b15801561022f575f80fd5b505af1158015610241573d5f803e3d5ffd5b50505050505050565b5050565b600c8054600d54601080546001600160a01b0390931693919261027090610b9f565b80601f016020809104026020016040519081016040528092919081815260200182805461029c90610b9f565b80156102e75780601f106102be576101008083540402835291602001916102e7565b820191905f5260205f20905b8154815290600101906020018083116102ca57829003601f168201915b5050505050905083565b6001546040805163026b1d5f60e01b815290515f926001600160a01b03169163026b1d5f9160048083019260209291908290030181865afa158015610338573d5f803e3d5ffd5b505050506040513d601f19601f8201168201806040525081019061035c9190610b79565b60065460025460405163a415bcad60e01b81526001600160a01b0392831660048201526024810186905260448101919091525f606482015230608482015291925082169063a415bcad9060a4015f604051808303815f87803b1580156103c0575f80fd5b505af11580156103d2573d5f803e3d5ffd5b50506006546007546040516370a0823160e01b815230600482018190525f9550859450610457936001600160a01b0390811693169183906370a0823190602401602060405180830381865afa15801561042d573d5f803e3d5ffd5b505050506040513d601f19601f820116820180604052508101906104519190610bd7565b866106c0565b905061047b604051806060016040528060248152602001611018602491398261083e565b60075460035460405163095ea7b360e01b81526001600160a01b0391821660048201526024810184905291169063095ea7b3906044016020604051808303815f875af11580156104cd573d5f803e3d5ffd5b505050506040513d601f19601f820116820180604052508101906104f19190610bee565b506003546004546007545f9283926001600160a01b039182169263c81f847a923092811691869160119161052691168a610883565b600c6040518763ffffffff1660e01b815260040161054996959493929190610ed5565b6060604051808303815f875af1158015610565573d5f803e3d5ffd5b505050506040513d601f19601f820116820180604052508101906105899190610f4b565b505090506105c16040518060400160405280601281526020017103732ba283a27baba10169039aaa9a2329d160751b8152508261083e565b505050505050565b60098054600a805460ff8316936101009093046001600160a01b03169291906105f190610b9f565b80601f016020809104026020016040519081016040528092919081815260200182805461061d90610b9f565b80156106685780601f1061063f57610100808354040283529160200191610668565b820191905f5260205f20905b81548152906001019060200180831161064b57829003601f168201915b5050506002909301549192505060ff1684565b61024a8282604051602401610691929190610f76565b60408051601f198184030181529190526020810180516001600160e01b031663319af33360e01b1790526109b3565b60405163095ea7b360e01b815273e592427a0aece92de3edee1f18e0157c0586156460048201819052602482018490525f916001600160a01b0388169063095ea7b3906044016020604051808303815f875af1158015610722573d5f803e3d5ffd5b505050506040513d601f19601f820116820180604052508101906107469190610bee565b506040805160a0810182526008546bffffffffffffffffffffffff1960608b811b821660c0850152607d60ea1b60d4850181905292811b821660d785015260eb84019290925289821b1660ee830152825180830360e20181526101028301845282526001600160a01b038881166020840152428385015290820187905260808201869052915163c04b8d5960e01b81526101f49284169063c04b8d59906107f1908490600401610f9f565b6020604051808303815f875af115801561080d573d5f803e3d5ffd5b505050506040513d601f19601f820116820180604052508101906108319190610bd7565b9998505050505050505050565b61024a8282604051602401610854929190610ff6565b60408051601f198184030181529190526020810180516001600160e01b03166309710a9d60e41b1790526109b3565b61088b6109df565b6040805160a0810182526001600160a01b03851680825260208201859052818301525f606082015281516080818101909352600980549293840192829060ff1660038111156108dc576108dc610b04565b60038111156108ed576108ed610b04565b8152815461010090046001600160a01b0316602082015260018201805460409092019161091990610b9f565b80601f016020809104026020016040519081016040528092919081815260200182805461094590610b9f565b80156109905780601f1061096757610100808354040283529160200191610990565b820191905f5260205f20905b81548152906001019060200180831161097357829003601f168201915b50505091835250506002919091015460ff16151560209091015290529392505050565b6109bc816109bf565b50565b80516a636f6e736f6c652e6c6f67602083015f808483855afa5050505050565b6040518060a001604052805f6001600160a01b031681526020015f81526020015f6001600160a01b031681526020015f6001600160a01b03168152602001610a476040805160808101909152805f81525f602082018190526060604083018190529091015290565b905290565b80151581146109bc575f80fd5b5f60208284031215610a69575f80fd5b8135610a7481610a4c565b9392505050565b5f81518084525f5b81811015610a9f57602081850181015186830182015201610a83565b505f602082860101526020601f19601f83011685010191505092915050565b60018060a01b0384168152826020820152606060408201525f610ae46060830184610a7b565b95945050505050565b5f60208284031215610afd575f80fd5b5035919050565b634e487b7160e01b5f52602160045260245ffd5b600481106109bc57634e487b7160e01b5f52602160045260245ffd5b610b3d85610b18565b8481526001600160a01b03841660208201526080604082018190525f90610b6690830185610a7b565b9050821515606083015295945050505050565b5f60208284031215610b89575f80fd5b81516001600160a01b0381168114610a74575f80fd5b600181811c90821680610bb357607f821691505b602082108103610bd157634e487b7160e01b5f52602260045260245ffd5b50919050565b5f60208284031215610be7575f80fd5b5051919050565b5f60208284031215610bfe575f80fd5b8151610a7481610a4c565b60018060a01b0381511682526020810151602083015260018060a01b03604082015116604083015260018060a01b0360608201511660608301525f608082015160a060808501528051610c5b81610b18565b60a085015260208101516001600160a01b031660c08501526040810151608060e0860152610c8d610120860182610a7b565b905060608201511515610100860152809250505092915050565b610cb081610b18565b9052565b80545f90600181811c90821680610ccc57607f821691505b602082108103610cea57634e487b7160e01b5f52602260045260245ffd5b81865260208601818015610d055760018114610d1b57610d47565b60ff198516825283151560051b82019550610d47565b5f878152602090205f5b85811015610d4157815484820152600190910190602001610d25565b83019650505b505050505092915050565b5f82825480855260208501945060208160051b830101845f5260205f205f5b83811015610e6457601f19858403018852606083528154606084015260018201546080840152600282015460a08401526003820154610db660c0850160ff8316610ca7565b6001600160a01b03600891821c811660e0860152600484015481166101008601526005840154811661012086015260068401541661014085015260078301546101608501528201546101808085019190915260098301546101a08501526101c0840152610e2a6101e08401600a8401610cb4565b8381036020850152610e3f81600b8501610cb4565b600c840154604095909501949094525060209790970196600d90910190600101610d71565b50909695505050505050565b80546001600160a01b031682526001810154602083015260a0604083018190525f90610ea190840160028401610d52565b8381036060850152610eb68160038501610d52565b90508381036080850152610ecd8160048501610cb4565b949350505050565b6001600160a01b03878116825286166020820152604081018590528354606082015260018401546080820152600284015460a0820152600384015460c0820152600484015460e082015261014061010082018190525f90610f3890830185610c09565b8281036101208401526108318185610e70565b5f805f60608486031215610f5d575f80fd5b5050815160208301516040909301519094929350919050565b604081525f610f886040830185610a7b565b905060018060a01b03831660208301529392505050565b602081525f825160a06020840152610fba60c0840182610a7b565b905060018060a01b0360208501511660408401526040840151606084015260608401516080840152608084015160a08401528091505092915050565b604081525f6110086040830185610a7b565b9050826020830152939250505056fe73555344654f757420696e20626f72726f77202d2061667465722073776170556e693a20a2646970667358221220810a13c6dd5770f8fd49c4db2e79ece954e98e76dce755d0112d5a0529f3b4d664736f6c634300081a0033","linkReferences":{}},"methodIdentifiers":{"borrow(uint256)":"c5ebeaec","defaultApprox()":"4ebfc814","emptyLimit()":"09316dd3","emptySwap()":"f66a7749","lend(bool)":"01a15540"},"id":7}