{"abi":[{"type":"function","name":"borrow","inputs":[{"name":"amount_","type":"uint256","internalType":"uint256"},{"name":"receiver_","type":"address","internalType":"address"}],"outputs":[],"stateMutability":"nonpayable"},{"type":"function","name":"finishBorrow","inputs":[{"name":"receiver_","type":"address","internalType":"address"}],"outputs":[],"stateMutability":"nonpayable"},{"type":"function","name":"getUserAccountData","inputs":[{"name":"user_","type":"address","internalType":"address"}],"outputs":[{"name":"userData","type":"tuple","internalType":"struct UserAccountData","components":[{"name":"totalCollateralBase","type":"uint256","internalType":"uint256"},{"name":"totalDebtBase","type":"uint256","internalType":"uint256"},{"name":"availableBorrowsBase","type":"uint256","internalType":"uint256"},{"name":"currentLiquidationThreshold","type":"uint256","internalType":"uint256"},{"name":"ltv","type":"uint256","internalType":"uint256"},{"name":"healthFactor","type":"uint256","internalType":"uint256"}]}],"stateMutability":"view"},{"type":"function","name":"lend","inputs":[{"name":"amountIn_","type":"uint256","internalType":"uint256"},{"name":"isETH_","type":"bool","internalType":"bool"}],"outputs":[],"stateMutability":"payable"},{"type":"function","name":"rebuyPT","inputs":[{"name":"amountInUSDC_","type":"uint256","internalType":"uint256"}],"outputs":[],"stateMutability":"nonpayable"},{"type":"function","name":"redeem","inputs":[{"name":"amount_","type":"uint256","internalType":"uint256"},{"name":"owner_","type":"address","internalType":"address"},{"name":"receiver_","type":"address","internalType":"address"}],"outputs":[],"stateMutability":"nonpayable"},{"type":"event","name":"NewAccountCreated","inputs":[{"name":"account","type":"address","indexed":false,"internalType":"address"}],"anonymous":false}],"bytecode":{"object":"0x6080604052348015600e575f80fd5b50611aa88061001c5f395ff3fe608060405260043610610054575f3560e01c80634b3fd148146100585780634e7896a9146100795780634f52db6b146100985780635c8abc38146100ab578063ba087652146100ca578063bf92857c146100e9575b5f80fd5b348015610063575f80fd5b50610077610072366004611150565b61015c565b005b348015610084575f80fd5b5061007761009336600461117e565b61047f565b6100776100a63660046111ad565b610550565b3480156100b6575f80fd5b506100776100c53660046111d0565b610724565b3480156100d5575f80fd5b506100776100e43660046111e7565b6108be565b3480156100f4575f80fd5b5061010861010336600461117e565b610b8a565b60405161015391905f60c082019050825182526020830151602083015260408301516040830152606083015160608301526080830151608083015260a083015160a083015292915050565b60405180910390f35b335f908152601e602052604080822054601f549151631375877960e31b8152600481018690526001600160a01b0385811660248301529182166044820181905293929190911690639bac3bc8906064016020604051808303815f875af11580156101c8573d5f803e3d5ffd5b505050506040513d601f19601f820116820180604052508101906101ec9190611226565b6016546017549192505f918291610212916001600160a01b039182169116308685610c95565b6017546004805460405163095ea7b360e01b81526001600160a01b03918216928101929092526024820184905292935091169063095ea7b3906044016020604051808303815f875af115801561026a573d5f803e3d5ffd5b505050506040513d601f19601f8201168201806040525081019061028e919061123d565b506004546005546017545f9283926001600160a01b039182169263c81f847a9230928116918691600e916102c391168a610e13565b6040516001600160e01b031960e088901b1681526102eb9594939291906009906004016115cf565b6060604051808303815f875af1158015610307573d5f803e3d5ffd5b505050506040513d601f19601f8201168201806040525081019061032b9190611645565b5050905061036e6040518060400160405280601e81526020017f6e657450744f7574202a2a2a2a2a202d206f776e6564206279206f7a3a20000081525082610f45565b601b546040516370a0823160e01b81526001600160a01b0388811660048301525f9216906370a0823190602401602060405180830381865afa1580156103b6573d5f803e3d5ffd5b505050506040513d601f19601f820116820180604052508101906103da9190611226565b90506104136040518060400160405280601581526020017403ab9b231903232b13a10169034b73a1030b1b19d1605d1b81525082610f45565b6019546040516340c10f1960e01b81526001600160a01b038a8116600483015260248201849052909116906340c10f19906044015f604051808303815f87803b15801561045e575f80fd5b505af1158015610470573d5f803e3d5ffd5b50505050505050505050505050565b6016546040516370a0823160e01b81523060048201525f916001600160a01b0316906370a0823190602401602060405180830381865afa1580156104c5573d5f803e3d5ffd5b505050506040513d601f19601f820116820180604052508101906104e99190611226565b6019546040516340c10f1960e01b81526001600160a01b038581166004830152602482018490529293509116906340c10f19906044015f604051808303815f87803b158015610536575f80fd5b505af1158015610548573d5f803e3d5ffd5b505050505050565b6002546001546040805163026b1d5f60e01b815290516001600160a01b03938416939092169163026b1d5f916004808201926020929091908290030181865afa15801561059f573d5f803e3d5ffd5b505050506040513d601f19601f820116820180604052508101906105c39190611670565b6001600160a01b03161461065e576001546040805163026b1d5f60e01b815290516001600160a01b039092169163026b1d5f916004808201926020929091908290030181865afa158015610619573d5f803e3d5ffd5b505050506040513d601f19601f8201168201806040525081019061063d9190611670565b600280546001600160a01b0319166001600160a01b03929092169190911790555b335f908152601e60205260409020546001600160a01b0316806106c357610683610f8a565b6040516001600160a01b03821681529091507fe759fda21527aab212bc806c6b81b4e16add78b260f71442690c536ba1de40cd9060200160405180910390a15b811561071e57806001600160a01b031663de407d8f346040518263ffffffff1660e01b81526004015f604051808303818588803b158015610702575f80fd5b505af1158015610714573d5f803e3d5ffd5b5050505050505050565b505b5050565b601d546107685760405162461bcd60e51b815260206004820152600e60248201526d3932b13abca82a1d1032b93937b960911b604482015260640160405180910390fd5b6016546040516323b872dd60e01b8152336004820152306024820152604481018390526001600160a01b03909116906323b872dd906064016020604051808303815f875af11580156107bc573d5f803e3d5ffd5b505050506040513d601f19601f820116820180604052508101906107e0919061123d565b50601a546040516370a0823160e01b81523060048201525f916001600160a01b0316906370a0823190602401602060405180830381865afa158015610827573d5f803e3d5ffd5b505050506040513d601f19601f8201168201806040525081019061084b9190611226565b601a5460405163a9059cbb60e01b8152336004820152602481018390529192506001600160a01b03169063a9059cbb906044016020604051808303815f875af115801561089a573d5f803e3d5ffd5b505050506040513d601f19601f8201168201806040525081019061071e919061123d565b5f80736c9f097e044506712b58eac670c9a5fd4bccef13905061090160405180604001604052806008815260200167039b2b73232b91d160c51b81525033611000565b604080518082018252600b81526a0282a103130b61027ad1d160ad1b602082015290516370a0823160e01b815230600482015261099291906001600160a01b038416906370a08231906024015b602060405180830381865afa158015610969573d5f803e3d5ffd5b505050506040513d601f19601f8201168201806040525081019061098d9190611226565b610f45565b600480546005546040516370a0823160e01b8152309381018490525f936001600160a01b039384169363594a88cc93919291811691908716906370a0823190602401602060405180830381865afa1580156109ef573d5f803e3d5ffd5b505050506040513d601f19601f82011682018060405250810190610a139190611226565b601754610a29906001600160a01b031689610e13565b6040516001600160e01b031960e087901b168152610a50949392919060099060040161168b565b6060604051808303815f875af1158015610a6c573d5f803e3d5ffd5b505050506040513d601f19601f82011682018060405250810190610a909190611645565b50509050610ac96040518060400160405280601381526020017203732ba2a37b5b2b727baba1039aaa9a2329d1606d1b81525082610f45565b604080518082018252601781527f50542062616c206f7a202d20706f737420737761703a200000000000000000006020820152601a5491516370a0823160e01b8152306004820152610b2d926001600160a01b0316906370a082319060240161094e565b6040805180820182526016815275039aaa9a2329037bd1016903837b9ba1039bbb0b81d160551b602082015260175491516370a0823160e01b8152306004820152610548926001600160a01b0316906370a082319060240161094e565b610bbd6040518060c001604052805f81526020015f81526020015f81526020015f81526020015f81526020015f81525090565b6001600160a01b038281165f908152601e6020526040808220546002549151632fe4a15f60e21b815290841660048201819052938392839283928392839291169063bf92857c9060240160c060405180830381865afa158015610c22573d5f803e3d5ffd5b505050506040513d601f19601f82011682018060405250810190610c4691906116db565b9550955095509550955095506040518060c00160405280878152602001868152602001610c7286611045565b815260200184815260200183815260200182815250975050505050505050919050565b60405163095ea7b360e01b815273e592427a0aece92de3edee1f18e0157c0586156460048201819052602482018490525f916001600160a01b0388169063095ea7b3906044016020604051808303815f875af1158015610cf7573d5f803e3d5ffd5b505050506040513d601f19601f82011682018060405250810190610d1b919061123d565b506040805160a0810182526018546bffffffffffffffffffffffff1960608b811b821660c0850152607d60ea1b60d4850181905292811b821660d785015260eb84019290925289821b1660ee830152825180830360e20181526101028301845282526001600160a01b038881166020840152428385015290820187905260808201869052915163c04b8d5960e01b81526101f49284169063c04b8d5990610dc6908490600401611721565b6020604051808303815f875af1158015610de2573d5f803e3d5ffd5b505050506040513d601f19601f82011682018060405250810190610e069190611226565b9998505050505050505050565b610e1b6110c2565b6040805160a0810182526001600160a01b03851680825260208201859052818301525f606082015281516080818101909352600680549293840192829060ff166003811115610e6c57610e6c611258565b6003811115610e7d57610e7d611258565b8152815461010090046001600160a01b03166020820152600182018054604090920191610ea990611376565b80601f0160208091040260200160405190810160405280929190818152602001828054610ed590611376565b8015610f205780601f10610ef757610100808354040283529160200191610f20565b820191905f5260205f20905b815481529060010190602001808311610f0357829003601f168201915b50505091835250506002919091015460ff161515602090910152905290505b92915050565b6107208282604051602401610f5b929190611778565b60408051601f198184030181529190526020810180516001600160e01b03166309710a9d60e41b17905261107b565b601f546040515f9182916001600160a01b0390911690610fa99061112f565b6001600160a01b039091168152602001604051809103905ff080158015610fd2573d5f803e3d5ffd5b50335f908152601e6020526040902080546001600160a01b0319166001600160a01b03831617905592915050565b6107208282604051602401611016929190611799565b60408051601f198184030181529190526020810180516001600160e01b031663319af33360e01b17905261107b565b5f6064611067836127105f60140154600a61106091906117d6565b9190611087565b61107190846117e9565b610f3f91906117fc565b611084816110a2565b50565b5f825f19048411830215820261109b575f80fd5b5091020490565b80516a636f6e736f6c652e6c6f67602083015f808483855afa5050505050565b6040518060a001604052805f6001600160a01b031681526020015f81526020015f6001600160a01b031681526020015f6001600160a01b0316815260200161112a6040805160808101909152805f81525f602082018190526060604083018190529091015290565b905290565b6102578061181c83390190565b6001600160a01b0381168114611084575f80fd5b5f8060408385031215611161575f80fd5b8235915060208301356111738161113c565b809150509250929050565b5f6020828403121561118e575f80fd5b81356111998161113c565b9392505050565b8015158114611084575f80fd5b5f80604083850312156111be575f80fd5b823591506020830135611173816111a0565b5f602082840312156111e0575f80fd5b5035919050565b5f805f606084860312156111f9575f80fd5b83359250602084013561120b8161113c565b9150604084013561121b8161113c565b809150509250925092565b5f60208284031215611236575f80fd5b5051919050565b5f6020828403121561124d575f80fd5b8151611199816111a0565b634e487b7160e01b5f52602160045260245ffd5b6004811061108457634e487b7160e01b5f52602160045260245ffd5b5f81518084525f5b818110156112ac57602081850181015186830182015201611290565b505f602082860101526020601f19601f83011685010191505092915050565b60018060a01b0381511682526020810151602083015260018060a01b03604082015116604083015260018060a01b0360608201511660608301525f608082015160a06080850152805161131d8161126c565b60a085015260208101516001600160a01b031660c08501526040810151608060e086015261134f610120860182611288565b905060608201511515610100860152809250505092915050565b6113728161126c565b9052565b600181811c9082168061138a57607f821691505b6020821081036113a857634e487b7160e01b5f52602260045260245ffd5b50919050565b80545f90600181811c908216806113c657607f821691505b6020821081036113e457634e487b7160e01b5f52602260045260245ffd5b818652602086018180156113ff576001811461141557611441565b60ff198516825283151560051b82019550611441565b5f878152602090205f5b8581101561143b5781548482015260019091019060200161141f565b83019650505b505050505092915050565b5f82825480855260208501945060208160051b830101845f5260205f205f5b8381101561155e57601f19858403018852606083528154606084015260018201546080840152600282015460a084015260038201546114b060c0850160ff8316611369565b6001600160a01b03600891821c811660e0860152600484015481166101008601526005840154811661012086015260068401541661014085015260078301546101608501528201546101808085019190915260098301546101a08501526101c08401526115246101e08401600a84016113ae565b838103602085015261153981600b85016113ae565b600c840154604095909501949094525060209790970196600d9091019060010161146b565b50909695505050505050565b80546001600160a01b031682526001810154602083015260a0604083018190525f9061159b9084016002840161144c565b83810360608501526115b0816003850161144c565b905083810360808501526115c781600485016113ae565b949350505050565b6001600160a01b03878116825286166020820152604081018590528354606082015260018401546080820152600284015460a0820152600384015460c0820152600484015460e082015261014061010082018190525f90611632908301856112cb565b828103610120840152610e06818561156a565b5f805f60608486031215611657575f80fd5b5050815160208301516040909301519094929350919050565b5f60208284031215611680575f80fd5b81516111998161113c565b6001600160a01b038681168252851660208201526040810184905260a0606082018190525f906116bd908301856112cb565b82810360808401526116cf818561156a565b98975050505050505050565b5f805f805f8060c087890312156116f0575f80fd5b50508451602086015160408701516060880151608089015160a090990151939a929950909790965094509092509050565b602081525f825160a0602084015261173c60c0840182611288565b905060018060a01b0360208501511660408401526040840151606084015260608401516080840152608084015160a08401528091505092915050565b604081525f61178a6040830185611288565b90508260208301529392505050565b604081525f6117ab6040830185611288565b905060018060a01b03831660208301529392505050565b634e487b7160e01b5f52601160045260245ffd5b80820180821115610f3f57610f3f6117c2565b81810381811115610f3f57610f3f6117c2565b5f8261181657634e487b7160e01b5f52601260045260245ffd5b50049056fe6080604052348015600e575f80fd5b50604051610257380380610257833981016040819052602b91604e565b5f80546001600160a01b0319166001600160a01b03929092169190911790556079565b5f60208284031215605d575f80fd5b81516001600160a01b03811681146072575f80fd5b9392505050565b6101d1806100865f395ff3fe608060405260043610610028575f3560e01c80638406c0791461002c578063de407d8f14610066575b5f80fd5b348015610037575f80fd5b505f5461004a906001600160a01b031681565b6040516001600160a01b03909116815260200160405180910390f35b61006e610070565b005b60405163474cf53d60e01b81527387870bca3f3fd6335c3f4ce8392d69350b4fa4e2600482018190523060248301525f604483015273893411580e590d62ddbca8a703d61cc4a8c7b2b991829063474cf53d9034906064015f604051808303818588803b1580156100df575f80fd5b505af11580156100f1573d5f803e3d5ffd5b50505f54604051630c04a8a160e41b81526001600160a01b0390911660048201525f1960248201527372e95b8931767c79ba4eee721354d6e99a61d004935083925063c04a8a1091506044015f604051808303815f87803b158015610154575f80fd5b505af1158015610166573d5f803e3d5ffd5b50506040513492503091507f60ecce3105bf3b202d7a83cd679868ea5fd87b35901b96d3748136fafe323c65905f90a350505056fea2646970667358221220242d550094e1a27e7d80f41e37442a3b6925fcb4bd50f45f24a4a3fd51016b2b64736f6c634300081a0033a2646970667358221220c347a6d5f14dc6c4ed9d67dcde8b3afef7138d6e01449e3b7f7a78f583bae8dd64736f6c634300081a0033","linkReferences":{}},"methodIdentifiers":{"borrow(uint256,address)":"4b3fd148","finishBorrow(address)":"4e7896a9","getUserAccountData(address)":"bf92857c","lend(uint256,bool)":"4f52db6b","rebuyPT(uint256)":"5c8abc38","redeem(uint256,address,address)":"ba087652"},"id":9}