{"abi":[{"type":"function","name":"borrow","inputs":[{"name":"amount_","type":"uint256","internalType":"uint256"},{"name":"receiver_","type":"address","internalType":"address"}],"outputs":[],"stateMutability":"nonpayable"},{"type":"function","name":"finishBorrow","inputs":[{"name":"receiver_","type":"address","internalType":"address"}],"outputs":[],"stateMutability":"nonpayable"},{"type":"function","name":"getUserAccountData","inputs":[{"name":"user_","type":"address","internalType":"address"}],"outputs":[{"name":"userData","type":"tuple","internalType":"struct UserAccountData","components":[{"name":"totalCollateralBase","type":"uint256","internalType":"uint256"},{"name":"totalDebtBase","type":"uint256","internalType":"uint256"},{"name":"availableBorrowsBase","type":"uint256","internalType":"uint256"},{"name":"currentLiquidationThreshold","type":"uint256","internalType":"uint256"},{"name":"ltv","type":"uint256","internalType":"uint256"},{"name":"healthFactor","type":"uint256","internalType":"uint256"}]}],"stateMutability":"view"},{"type":"function","name":"lend","inputs":[{"name":"amountIn_","type":"uint256","internalType":"uint256"},{"name":"isETH_","type":"bool","internalType":"bool"}],"outputs":[],"stateMutability":"payable"},{"type":"function","name":"performRedemption","inputs":[{"name":"amount_","type":"uint256","internalType":"uint256"},{"name":"minAmountOut_","type":"uint256","internalType":"uint256"},{"name":"owner_","type":"address","internalType":"address"},{"name":"receiver_","type":"address","internalType":"address"},{"name":"token_","type":"uint8","internalType":"enum Tokens"}],"outputs":[{"name":"","type":"uint256","internalType":"uint256"}],"stateMutability":"nonpayable"},{"type":"function","name":"rebuyPT","inputs":[{"name":"amountInUSDC_","type":"uint256","internalType":"uint256"}],"outputs":[],"stateMutability":"nonpayable"},{"type":"event","name":"NewAccountCreated","inputs":[{"name":"account","type":"address","indexed":false,"internalType":"address"}],"anonymous":false}],"bytecode":{"object":"0x6080604052348015600e575f80fd5b506129428061001c5f395ff3fe608060405260043610610054575f3560e01c80634b3fd148146100585780634e7896a9146100795780634f52db6b146100985780635c8abc38146100ab578063bf92857c146100ca578063f4771c701461013d575b5f80fd5b348015610063575f80fd5b50610077610072366004611d5e565b61016a565b005b348015610084575f80fd5b50610077610093366004611d8c565b61058d565b6100776100a6366004611db4565b61065e565b3480156100b6575f80fd5b506100776100c5366004611dd7565b61087b565b3480156100d5575f80fd5b506100e96100e4366004611d8c565b610a14565b60405161013491905f60c082019050825182526020830151602083015260408301516040830152606083015160608301526080830151608083015260a083015160a083015292915050565b60405180910390f35b348015610148575f80fd5b5061015c610157366004611dee565b610b1f565b604051908152602001610134565b335f908152602f6020526040808220546030549151631375877960e31b8152600481018690526001600160a01b0385811660248301529182166044820181905293929190911690639bac3bc8906064016020604051808303815f875af11580156101d6573d5f803e3d5ffd5b505050506040513d601f19601f820116820180604052508101906101fa9190611e4c565b602154602c549192505f918291610220916001600160a01b039182169116308685610e03565b602c546004805460405163095ea7b360e01b81526001600160a01b03918216928101929092526024820184905292935091169063095ea7b3906044016020604051808303815f875af1158015610278573d5f803e3d5ffd5b505050506040513d601f19601f8201168201806040525081019061029c9190611e63565b506004546005546040805160808101909152600680545f9485946001600160a01b039182169463c81f847a94309492909316928792600e926103d1928c92829060ff1660038111156102f0576102f0611e7e565b600381111561030157610301611e7e565b8152815461010090046001600160a01b0316602082015260018201805460409092019161032d90611e92565b80601f016020809104026020016040519081016040528092919081815260200182805461035990611e92565b80156103a45780601f1061037b576101008083540402835291602001916103a4565b820191905f5260205f20905b81548152906001019060200180831161038757829003601f168201915b50505091835250506002919091015460ff161515602090910152602c546001600160a01b03169190610f81565b6040516001600160e01b031960e088901b1681526103f99594939291906009906004016121f5565b6060604051808303815f875af1158015610415573d5f803e3d5ffd5b505050506040513d601f19601f82011682018060405250810190610439919061226b565b5050905061047c6040518060400160405280601e81526020017f6e657450744f7574202a2a2a2a2a202d206f776e6564206279206f7a3a20000081525082610fc4565b6025546040516370a0823160e01b81526001600160a01b0388811660048301525f9216906370a0823190602401602060405180830381865afa1580156104c4573d5f803e3d5ffd5b505050506040513d601f19601f820116820180604052508101906104e89190611e4c565b90506105216040518060400160405280601581526020017403ab9b231903232b13a10169034b73a1030b1b19d1605d1b81525082610fc4565b6023546040516340c10f1960e01b81526001600160a01b038a8116600483015260248201849052909116906340c10f19906044015f604051808303815f87803b15801561056c575f80fd5b505af115801561057e573d5f803e3d5ffd5b50505050505050505050505050565b6021546040516370a0823160e01b81523060048201525f916001600160a01b0316906370a0823190602401602060405180830381865afa1580156105d3573d5f803e3d5ffd5b505050506040513d601f19601f820116820180604052508101906105f79190611e4c565b6023546040516340c10f1960e01b81526001600160a01b038581166004830152602482018490529293509116906340c10f19906044015f604051808303815f87803b158015610644575f80fd5b505af1158015610656573d5f803e3d5ffd5b505050505050565b6002546001546040805163026b1d5f60e01b815290516001600160a01b03938416939092169163026b1d5f916004808201926020929091908290030181865afa1580156106ad573d5f803e3d5ffd5b505050506040513d601f19601f820116820180604052508101906106d19190612296565b6001600160a01b03161461076c576001546040805163026b1d5f60e01b815290516001600160a01b039092169163026b1d5f916004808201926020929091908290030181865afa158015610727573d5f803e3d5ffd5b505050506040513d601f19601f8201168201806040525081019061074b9190612296565b600280546001600160a01b0319166001600160a01b03929092169190911790555b3482146107b55760405162461bcd60e51b8152602060048201526012602482015271383aba10309031bab9ba37b69032b93937b960711b60448201526064015b60405180910390fd5b335f908152602f60205260409020546001600160a01b03168061081a576107da611009565b6040516001600160a01b03821681529091507fe759fda21527aab212bc806c6b81b4e16add78b260f71442690c536ba1de40cd9060200160405180910390a15b811561087557806001600160a01b031663de407d8f346040518263ffffffff1660e01b81526004015f604051808303818588803b158015610859575f80fd5b505af115801561086b573d5f803e3d5ffd5b5050505050505050565b505b5050565b602e546108bb5760405162461bcd60e51b815260206004820152600e60248201526d3932b13abca82a1d1032b93937b960911b60448201526064016107ac565b6021546040516323b872dd60e01b8152336004820152306024820152604481018390526001600160a01b03909116906323b872dd906064016020604051808303815f875af115801561090f573d5f803e3d5ffd5b505050506040513d601f19601f820116820180604052508101906109339190611e63565b50602480546040516370a0823160e01b81523060048201525f926001600160a01b03909216916370a082319101602060405180830381865afa15801561097b573d5f803e3d5ffd5b505050506040513d601f19601f8201168201806040525081019061099f9190611e4c565b6024805460405163a9059cbb60e01b81523360048201529182018390529192506001600160a01b039091169063a9059cbb906044016020604051808303815f875af11580156109f0573d5f803e3d5ffd5b505050506040513d601f19601f820116820180604052508101906108759190611e63565b610a476040518060c001604052805f81526020015f81526020015f81526020015f81526020015f81526020015f81525090565b6001600160a01b038281165f908152602f6020526040808220546002549151632fe4a15f60e21b815290841660048201819052938392839283928392839291169063bf92857c9060240160c060405180830381865afa158015610aac573d5f803e3d5ffd5b505050506040513d601f19601f82011682018060405250810190610ad091906122b1565b9550955095509550955095506040518060c00160405280878152602001868152602001610afc8661107f565b815260200184815260200183815260200182815250975050505050505050919050565b60048054600554602480546040516370a0823160e01b8152309581018690525f9586956001600160a01b039081169563594a88cc959294908216939116916370a082319101602060405180830381865afa158015610b7f573d5f803e3d5ffd5b505050506040513d601f19601f82011682018060405250810190610ba39190611e4c565b604080516080810190915260068054610bd0928e929091829060ff1660038111156102f0576102f0611e7e565b6040516001600160e01b031960e087901b168152610bf794939291906009906004016122f7565b6060604051808303815f875af1158015610c13573d5f803e3d5ffd5b505050506040513d601f19601f82011682018060405250810190610c37919061226b565b5090915060089050836008811115610c5157610c51611e7e565b03610cd257602c5460405163a9059cbb60e01b81526001600160a01b038681166004830152602482018490529091169063a9059cbb906044016020604051808303815f875af1158015610ca6573d5f803e3d5ffd5b505050506040513d601f19601f82011682018060405250810190610cca9190611e63565b509050610dfa565b5f805f610ce6610ce1876110bb565b6111e3565b602c5460185460405163095ea7b360e01b81526001600160a01b039182166004820152602481018a9052949750929550909350169063095ea7b3906044016020604051808303815f875af1158015610d40573d5f803e3d5ffd5b505050506040513d601f19601f82011682018060405250810190610d649190611e63565b505f806018015f9054906101000a90046001600160a01b03166001600160a01b031663c872a3c58585888e878e6040518763ffffffff1660e01b8152600401610db2969594939291906123c1565b6020604051808303815f875af1158015610dce573d5f803e3d5ffd5b505050506040513d601f19601f82011682018060405250810190610df29190611e4c565b955050505050505b95945050505050565b60405163095ea7b360e01b815273e592427a0aece92de3edee1f18e0157c0586156460048201819052602482018490525f916001600160a01b0388169063095ea7b3906044016020604051808303815f875af1158015610e65573d5f803e3d5ffd5b505050506040513d601f19601f82011682018060405250810190610e899190611e63565b506040805160a0810182526022546bffffffffffffffffffffffff1960608b811b821660c0850152607d60ea1b60d4850181905292811b821660d785015260eb84019290925289821b1660ee830152825180830360e20181526101028301845282526001600160a01b038881166020840152428385015290820187905260808201869052915163c04b8d5960e01b81526101f49284169063c04b8d5990610f3490849060040161243c565b6020604051808303815f875af1158015610f50573d5f803e3d5ffd5b505050506040513d601f19601f82011682018060405250810190610f749190611e4c565b9998505050505050505050565b610f89611c66565b506040805160a0810182526001600160a01b03851680825260208201859052918101919091525f6060820152608081018290525b9392505050565b6108778282604051602401610fda929190612493565b60408051601f198184030181529190526020810180516001600160e01b03166309710a9d60e41b17905261132b565b6030546040515f9182916001600160a01b039091169061102890611cd3565b6001600160a01b039091168152602001604051809103905ff080158015611051573d5f803e3d5ffd5b50335f908152602f6020526040902080546001600160a01b0319166001600160a01b03831617905592915050565b5f60646110a1836127105f60140154600a61109a91906124c8565b9190611337565b6110ab90846124db565b6110b591906124ee565b92915050565b5f60058260088111156110d0576110d0611e7e565b036110e65750506029546001600160a01b031690565b60068260088111156110fa576110fa611e7e565b03611110575050602a546001600160a01b031690565b600382600881111561112457611124611e7e565b0361113a5750506021546001600160a01b031690565b5f82600881111561114d5761114d611e7e565b036111635750506028546001600160a01b031690565b600782600881111561117757611177611e7e565b0361118d575050602b546001600160a01b031690565b60028260088111156111a1576111a1611e7e565b036111b75750506026546001600160a01b031690565b60088260088111156111cb576111cb611e7e565b036111de5750602c546001600160a01b03165b919050565b6111eb611ce0565b6111f3611cff565b6111fb611d2c565b5f606061120782611352565b602a5492975090955091506001600160a01b039081169087160361123b5761123082825f6113d1565b509095509350611322565b6021546001600160a01b038781169116148061126457506026546001600160a01b038781169116145b1561129457611275828260016113d1565b925083915061128590508161250d565b92505061123082825f89611446565b6028546001600160a01b03878116911614806112bd5750602b546001600160a01b038781169116145b15611322576112ce828260016113d1565b92508391506112de90508161250d565b6021549093506112fe9150839083906001906001600160a01b0316611446565b925083915061130e90508161250d565b92505061131c8287836114eb565b90955093505b50509193909250565b6113348161152b565b50565b5f825f19048411830215820261134b575f80fd5b5091020490565b61135a611ce0565b611362611cff565b601b54602c54602954604080515f808252602082019092526060946113a194929389936001600160a01b0392831693908316929091169060019061154b565b60405191945092506113b99084908490602001612525565b60405160208183030381529060405290509193909250565b6113d9611ce0565b6113e1611cff565b601c54602954602a5460609261140d926003928a926001600160a01b0390811692811691165f8b61154b565b9093509150831561143d57828260405160200161142b929190612525565b60405160208183030381529060405290505b93509350939050565b61144e611ce0565b611456611cff565b6021546060905f906001600160a01b0386811691161461148157601f546001600160a01b031661148e565b601d546001600160a01b03165b602a549091506114b0906005908a9084906001600160a01b0316895f8d61154b565b909450925085156114e05783836040516020016114ce929190612525565b60405160208183030381529060405291505b509450945094915050565b6114f3611ce0565b6114fb611cff565b601e5460215461151f9160079188916001600160a01b039081169116885f8961154b565b90969095509350505050565b80516a636f6e736f6c652e6c6f67602083015f808483855afa5050505050565b611553611ce0565b61155b611cff565b5f80611566856116c9565b9150915085156115fb5787828c600b811061158357611583612542565b6001600160a01b03909216602092909202015288826115a38d60016124c8565b600b81106115b3576115b3612542565b6001600160a01b03909216602092909202015286826115d38d60026124c8565b600b81106115e3576115e3612542565b6001600160a01b03909216602092909202015261166b565b8480602001905181019061160f9190612593565b909250905088828c600b811061162757611627612542565b6001600160a01b03909216602092909202015286826116478d60016124c8565b600b811061165757611657612542565b6001600160a01b0390921660209290920201525b5f6116778b60026124c8565b611681908d61268f565b90505f8082126116915781611693565b5f5b90506116a08b8b8b6116ff565b8382600581106116b2576116b2612542565b602002015250919b909a5098505050505050505050565b6116d1611ce0565b6116d9611cff565b8251156116fa57828060200190518101906116f49190612593565b90925090505b915091565b611707611d2c565b611711601f611c21565b60405163c661065760e01b8152600260048201525f906001600160a01b0386169063c661065790602401602060405180830381865afa925050508015611774575060408051601f3d908101601f1916820190925261177191810190612296565b60015b61178057506002611782565b505b8060020361182d576117946004611c21565b60405163c661065760e01b81525f60048201526001600160a01b03808616919087169063c661065790602401602060405180830381865afa1580156117db573d5f803e3d5ffd5b505050506040513d601f19601f820116820180604052508101906117ff9190612296565b6001600160a01b03160361181f575f8252600182815b6020020152611b61565b60018083525f908390611815565b6118376005611c21565b60405163c661065760e01b81525f60048201526001600160a01b03808616919087169063c661065790602401602060405180830381865afa15801561187e573d5f803e3d5ffd5b505050506040513d601f19601f820116820180604052508101906118a29190612296565b6001600160a01b0316036118be575f82815b60200201526119c0565b60405163c661065760e01b8152600160048201526001600160a01b03808616919087169063c661065790602401602060405180830381865afa158015611906573d5f803e3d5ffd5b505050506040513d601f19601f8201168201806040525081019061192a9190612296565b6001600160a01b031603611941576001825f6118b4565b60405163c661065760e01b8152600260048201526001600160a01b03808616919087169063c661065790602401602060405180830381865afa158015611989573d5f803e3d5ffd5b505050506040513d601f19601f820116820180604052508101906119ad9190612296565b6001600160a01b0316036119c057600282525b6119ca6006611c21565b60405163c661065760e01b81525f60048201526001600160a01b03808516919087169063c661065790602401602060405180830381865afa158015611a11573d5f803e3d5ffd5b505050506040513d601f19601f82011682018060405250810190611a359190612296565b6001600160a01b031603611a52575f8260015b6020020152611b57565b60405163c661065760e01b8152600160048201526001600160a01b03808516919087169063c661065790602401602060405180830381865afa158015611a9a573d5f803e3d5ffd5b505050506040513d601f19601f82011682018060405250810190611abe9190612296565b6001600160a01b031603611ad55760018281611a48565b60405163c661065760e01b8152600260048201526001600160a01b03808516919087169063c661065790602401602060405180830381865afa158015611b1d573d5f803e3d5ffd5b505050506040513d601f19601f82011682018060405250810190611b419190612296565b6001600160a01b031603611b5757600260208301525b611b616007611c21565b60016040830152602c546001600160a01b0385811691161480611b915750602a546001600160a01b038581169116145b15611ba35760015b6060830152611bde565b6029546001600160a01b0390811690851603611bc0576001611b99565b6021546001600160a01b0390811690851603611bde57600360608301525b611be86008611c21565b601e546001600160a01b03868116911614611c04576002611c07565b60035b60ff166080830152611c196009611c21565b509392505050565b61133481604051602401611c3791815260200190565b60408051601f198184030181529190526020810180516001600160e01b031663f5b1bba960e01b17905261132b565b6040518060a001604052805f6001600160a01b031681526020015f81526020015f6001600160a01b031681526020015f6001600160a01b03168152602001611cce6040805160808101909152805f81525f602082018190526060604083018190529091015290565b905290565b610257806126b683390190565b604051806101600160405280600b906020820280368337509192915050565b6040518060a001604052806005905b611d16611d2c565b815260200190600190039081611d0e5790505090565b6040518060a001604052806005906020820280368337509192915050565b6001600160a01b0381168114611334575f80fd5b5f8060408385031215611d6f575f80fd5b823591506020830135611d8181611d4a565b809150509250929050565b5f60208284031215611d9c575f80fd5b8135610fbd81611d4a565b8015158114611334575f80fd5b5f8060408385031215611dc5575f80fd5b823591506020830135611d8181611da7565b5f60208284031215611de7575f80fd5b5035919050565b5f805f805f60a08688031215611e02575f80fd5b85359450602086013593506040860135611e1b81611d4a565b92506060860135611e2b81611d4a565b9150608086013560098110611e3e575f80fd5b809150509295509295909350565b5f60208284031215611e5c575f80fd5b5051919050565b5f60208284031215611e73575f80fd5b8151610fbd81611da7565b634e487b7160e01b5f52602160045260245ffd5b600181811c90821680611ea657607f821691505b602082108103611ec457634e487b7160e01b5f52602260045260245ffd5b50919050565b6004811061133457634e487b7160e01b5f52602160045260245ffd5b5f81518084525f5b81811015611f0a57602081850181015186830182015201611eee565b505f602082860101526020601f19601f83011685010191505092915050565b60018060a01b0381511682526020810151602083015260018060a01b03604082015116604083015260018060a01b0360608201511660608301525f608082015160a060808501528051611f7b81611eca565b60a085015260208101516001600160a01b031660c08501526040810151608060e0860152611fad610120860182611ee6565b905060608201511515610100860152809250505092915050565b611fd081611eca565b9052565b80545f90600181811c90821680611fec57607f821691505b60208210810361200a57634e487b7160e01b5f52602260045260245ffd5b81865260208601818015612025576001811461203b57612067565b60ff198516825283151560051b82019550612067565b5f878152602090205f5b8581101561206157815484820152600190910190602001612045565b83019650505b505050505092915050565b5f82825480855260208501945060208160051b830101845f5260205f205f5b8381101561218457601f19858403018852606083528154606084015260018201546080840152600282015460a084015260038201546120d660c0850160ff8316611fc7565b6001600160a01b03600891821c811660e0860152600484015481166101008601526005840154811661012086015260068401541661014085015260078301546101608501528201546101808085019190915260098301546101a08501526101c084015261214a6101e08401600a8401611fd4565b838103602085015261215f81600b8501611fd4565b600c840154604095909501949094525060209790970196600d90910190600101612091565b50909695505050505050565b80546001600160a01b031682526001810154602083015260a0604083018190525f906121c190840160028401612072565b83810360608501526121d68160038501612072565b905083810360808501526121ed8160048501611fd4565b949350505050565b6001600160a01b03878116825286166020820152604081018590528354606082015260018401546080820152600284015460a0820152600384015460c0820152600484015460e082015261014061010082018190525f9061225890830185611f29565b828103610120840152610f748185612190565b5f805f6060848603121561227d575f80fd5b5050815160208301516040909301519094929350919050565b5f602082840312156122a6575f80fd5b8151610fbd81611d4a565b5f805f805f8060c087890312156122c6575f80fd5b50508451602086015160408701516060880151608089015160a090990151939a929950909790965094509092509050565b6001600160a01b038681168252851660208201526040810184905260a0606082018190525f9061232990830185611f29565b828103608084015261233b8185612190565b98975050505050505050565b805f5b600b8110156123725781516001600160a01b031684526020938401939091019060010161234a565b50505050565b805f5b6005811015612372578151845f5b60058110156123a8578251825260209283019290910190600101612389565b50505060a093909301926020919091019060010161237b565b61058081016123d08289612347565b6123de610160830188612378565b85610480830152846104a08301526104c08201845f5b600581101561241c5781516001600160a01b03168352602092830192909101906001016123f4565b5050506001600160a01b0392909216610560919091015295945050505050565b602081525f825160a0602084015261245760c0840182611ee6565b905060018060a01b0360208501511660408401526040840151606084015260608401516080840152608084015160a08401528091505092915050565b604081525f6124a56040830185611ee6565b90508260208301529392505050565b634e487b7160e01b5f52601160045260245ffd5b808201808211156110b5576110b56124b4565b818103818111156110b5576110b56124b4565b5f8261250857634e487b7160e01b5f52601260045260245ffd5b500490565b5f6001820161251e5761251e6124b4565b5060010190565b61048081016125348285612347565b610fbd610160830184612378565b634e487b7160e01b5f52603260045260245ffd5b604051601f8201601f1916810167ffffffffffffffff8111828210171561258b57634e487b7160e01b5f52604160045260245ffd5b604052919050565b5f8061048083850312156125a5575f80fd5b83601f8401126125b3575f80fd5b6101606125bf81612556565b9084019080868311156125d0575f80fd5b855b838110156125f35780516125e581611d4a565b8352602092830192016125d2565b5093505061017f84018513612606575f80fd5b60a061261181612556565b80610480870188811115612623575f80fd5b808510156126805788601f860112612639575f80fd5b61264284612556565b808587018b811115612652575f80fd5b875b8181101561266c578051845260209384019301612654565b505084525093830193602090920191612623565b50809450505050509250929050565b8181035f8312801583831316838312821617156126ae576126ae6124b4565b509291505056fe6080604052348015600e575f80fd5b50604051610257380380610257833981016040819052602b91604e565b5f80546001600160a01b0319166001600160a01b03929092169190911790556079565b5f60208284031215605d575f80fd5b81516001600160a01b03811681146072575f80fd5b9392505050565b6101d1806100865f395ff3fe608060405260043610610028575f3560e01c80638406c0791461002c578063de407d8f14610066575b5f80fd5b348015610037575f80fd5b505f5461004a906001600160a01b031681565b6040516001600160a01b03909116815260200160405180910390f35b61006e610070565b005b60405163474cf53d60e01b81527387870bca3f3fd6335c3f4ce8392d69350b4fa4e2600482018190523060248301525f604483015273893411580e590d62ddbca8a703d61cc4a8c7b2b991829063474cf53d9034906064015f604051808303818588803b1580156100df575f80fd5b505af11580156100f1573d5f803e3d5ffd5b50505f54604051630c04a8a160e41b81526001600160a01b0390911660048201525f1960248201527372e95b8931767c79ba4eee721354d6e99a61d004935083925063c04a8a1091506044015f604051808303815f87803b158015610154575f80fd5b505af1158015610166573d5f803e3d5ffd5b50506040513492503091507f60ecce3105bf3b202d7a83cd679868ea5fd87b35901b96d3748136fafe323c65905f90a350505056fea26469706673582212204f09b60a4ad56b9a64ffed687fd5a66eedcc18b17abad5c3408c0ee25ba3fb9364736f6c634300081a0033a264697066735822122050a818023952e9ebab731c8cbdd3d629140d5615c61636fa2bb50c68c062d48664736f6c634300081a0033","linkReferences":{}},"methodIdentifiers":{"borrow(uint256,address)":"4b3fd148","finishBorrow(address)":"4e7896a9","getUserAccountData(address)":"bf92857c","lend(uint256,bool)":"4f52db6b","performRedemption(uint256,uint256,address,address,uint8)":"f4771c70","rebuyPT(uint256)":"5c8abc38"},"id":9}