{"abi":[{"type":"constructor","inputs":[{"name":"name_","type":"string","internalType":"string"},{"name":"symbol_","type":"string","internalType":"string"},{"name":"oz_","type":"address","internalType":"address"},{"name":"underlying_","type":"address","internalType":"address"}],"stateMutability":"nonpayable"},{"type":"function","name":"DOMAIN_SEPARATOR","inputs":[],"outputs":[{"name":"","type":"bytes32","internalType":"bytes32"}],"stateMutability":"view"},{"type":"function","name":"allowance","inputs":[{"name":"","type":"address","internalType":"address"},{"name":"","type":"address","internalType":"address"}],"outputs":[{"name":"","type":"uint256","internalType":"uint256"}],"stateMutability":"view"},{"type":"function","name":"approve","inputs":[{"name":"spender","type":"address","internalType":"address"},{"name":"amount","type":"uint256","internalType":"uint256"}],"outputs":[{"name":"","type":"bool","internalType":"bool"}],"stateMutability":"nonpayable"},{"type":"function","name":"asset","inputs":[],"outputs":[{"name":"","type":"address","internalType":"contract ERC20"}],"stateMutability":"view"},{"type":"function","name":"balanceOf","inputs":[{"name":"account","type":"address","internalType":"address"}],"outputs":[{"name":"","type":"uint256","internalType":"uint256"}],"stateMutability":"view"},{"type":"function","name":"balances","inputs":[{"name":"","type":"address","internalType":"address"}],"outputs":[{"name":"","type":"uint256","internalType":"uint256"}],"stateMutability":"view"},{"type":"function","name":"convertToAssets","inputs":[{"name":"shares","type":"uint256","internalType":"uint256"}],"outputs":[{"name":"","type":"uint256","internalType":"uint256"}],"stateMutability":"view"},{"type":"function","name":"convertToShares","inputs":[{"name":"assets","type":"uint256","internalType":"uint256"}],"outputs":[{"name":"","type":"uint256","internalType":"uint256"}],"stateMutability":"view"},{"type":"function","name":"decimals","inputs":[],"outputs":[{"name":"","type":"uint8","internalType":"uint8"}],"stateMutability":"view"},{"type":"function","name":"deposit","inputs":[{"name":"assets","type":"uint256","internalType":"uint256"},{"name":"receiver","type":"address","internalType":"address"}],"outputs":[{"name":"shares","type":"uint256","internalType":"uint256"}],"stateMutability":"nonpayable"},{"type":"function","name":"maxDeposit","inputs":[{"name":"","type":"address","internalType":"address"}],"outputs":[{"name":"","type":"uint256","internalType":"uint256"}],"stateMutability":"view"},{"type":"function","name":"maxMint","inputs":[{"name":"","type":"address","internalType":"address"}],"outputs":[{"name":"","type":"uint256","internalType":"uint256"}],"stateMutability":"view"},{"type":"function","name":"maxRedeem","inputs":[{"name":"owner","type":"address","internalType":"address"}],"outputs":[{"name":"","type":"uint256","internalType":"uint256"}],"stateMutability":"view"},{"type":"function","name":"maxWithdraw","inputs":[{"name":"owner","type":"address","internalType":"address"}],"outputs":[{"name":"","type":"uint256","internalType":"uint256"}],"stateMutability":"view"},{"type":"function","name":"mint","inputs":[{"name":"shares","type":"uint256","internalType":"uint256"},{"name":"receiver","type":"address","internalType":"address"}],"outputs":[{"name":"assets","type":"uint256","internalType":"uint256"}],"stateMutability":"nonpayable"},{"type":"function","name":"name","inputs":[],"outputs":[{"name":"","type":"string","internalType":"string"}],"stateMutability":"view"},{"type":"function","name":"nonces","inputs":[{"name":"","type":"address","internalType":"address"}],"outputs":[{"name":"","type":"uint256","internalType":"uint256"}],"stateMutability":"view"},{"type":"function","name":"permit","inputs":[{"name":"owner","type":"address","internalType":"address"},{"name":"spender","type":"address","internalType":"address"},{"name":"value","type":"uint256","internalType":"uint256"},{"name":"deadline","type":"uint256","internalType":"uint256"},{"name":"v","type":"uint8","internalType":"uint8"},{"name":"r","type":"bytes32","internalType":"bytes32"},{"name":"s","type":"bytes32","internalType":"bytes32"}],"outputs":[],"stateMutability":"nonpayable"},{"type":"function","name":"previewDeposit","inputs":[{"name":"assets","type":"uint256","internalType":"uint256"}],"outputs":[{"name":"","type":"uint256","internalType":"uint256"}],"stateMutability":"view"},{"type":"function","name":"previewMint","inputs":[{"name":"shares","type":"uint256","internalType":"uint256"}],"outputs":[{"name":"","type":"uint256","internalType":"uint256"}],"stateMutability":"view"},{"type":"function","name":"previewRedeem","inputs":[{"name":"shares","type":"uint256","internalType":"uint256"}],"outputs":[{"name":"","type":"uint256","internalType":"uint256"}],"stateMutability":"view"},{"type":"function","name":"previewWithdraw","inputs":[{"name":"assets","type":"uint256","internalType":"uint256"}],"outputs":[{"name":"","type":"uint256","internalType":"uint256"}],"stateMutability":"view"},{"type":"function","name":"rebase","inputs":[],"outputs":[],"stateMutability":"nonpayable"},{"type":"function","name":"redeem","inputs":[{"name":"amountIn_","type":"uint256","internalType":"uint256"},{"name":"owner_","type":"address","internalType":"address"},{"name":"receiver_","type":"address","internalType":"address"},{"name":"tokenOut_","type":"address","internalType":"address"}],"outputs":[{"name":"","type":"uint256","internalType":"uint256"}],"stateMutability":"nonpayable"},{"type":"function","name":"redeem","inputs":[{"name":"shares","type":"uint256","internalType":"uint256"},{"name":"receiver","type":"address","internalType":"address"},{"name":"owner","type":"address","internalType":"address"}],"outputs":[{"name":"assets","type":"uint256","internalType":"uint256"}],"stateMutability":"nonpayable"},{"type":"function","name":"setInitialRate","inputs":[],"outputs":[],"stateMutability":"nonpayable"},{"type":"function","name":"symbol","inputs":[],"outputs":[{"name":"","type":"string","internalType":"string"}],"stateMutability":"view"},{"type":"function","name":"totalAssets","inputs":[],"outputs":[{"name":"","type":"uint256","internalType":"uint256"}],"stateMutability":"view"},{"type":"function","name":"totalSupply","inputs":[],"outputs":[{"name":"","type":"uint256","internalType":"uint256"}],"stateMutability":"view"},{"type":"function","name":"transfer","inputs":[{"name":"to","type":"address","internalType":"address"},{"name":"amount","type":"uint256","internalType":"uint256"}],"outputs":[{"name":"","type":"bool","internalType":"bool"}],"stateMutability":"nonpayable"},{"type":"function","name":"transferFrom","inputs":[{"name":"from","type":"address","internalType":"address"},{"name":"to","type":"address","internalType":"address"},{"name":"amount","type":"uint256","internalType":"uint256"}],"outputs":[{"name":"","type":"bool","internalType":"bool"}],"stateMutability":"nonpayable"},{"type":"function","name":"withdraw","inputs":[{"name":"assets","type":"uint256","internalType":"uint256"},{"name":"receiver","type":"address","internalType":"address"},{"name":"owner","type":"address","internalType":"address"}],"outputs":[{"name":"shares","type":"uint256","internalType":"uint256"}],"stateMutability":"nonpayable"},{"type":"event","name":"Approval","inputs":[{"name":"owner","type":"address","indexed":true,"internalType":"address"},{"name":"spender","type":"address","indexed":true,"internalType":"address"},{"name":"amount","type":"uint256","indexed":false,"internalType":"uint256"}],"anonymous":false},{"type":"event","name":"Deposit","inputs":[{"name":"caller","type":"address","indexed":true,"internalType":"address"},{"name":"owner","type":"address","indexed":true,"internalType":"address"},{"name":"assets","type":"uint256","indexed":false,"internalType":"uint256"},{"name":"shares","type":"uint256","indexed":false,"internalType":"uint256"}],"anonymous":false},{"type":"event","name":"Rebase","inputs":[{"name":"newScalingFactor","type":"uint256","indexed":true,"internalType":"uint256"},{"name":"rebaseTime","type":"uint256","indexed":true,"internalType":"uint256"}],"anonymous":false},{"type":"event","name":"Transfer","inputs":[{"name":"from","type":"address","indexed":true,"internalType":"address"},{"name":"to","type":"address","indexed":true,"internalType":"address"},{"name":"amount","type":"uint256","indexed":false,"internalType":"uint256"}],"anonymous":false},{"type":"event","name":"Withdraw","inputs":[{"name":"caller","type":"address","indexed":true,"internalType":"address"},{"name":"receiver","type":"address","indexed":true,"internalType":"address"},{"name":"owner","type":"address","indexed":true,"internalType":"address"},{"name":"assets","type":"uint256","indexed":false,"internalType":"uint256"},{"name":"shares","type":"uint256","indexed":false,"internalType":"uint256"}],"anonymous":false},{"type":"error","name":"OZError03","inputs":[]},{"type":"error","name":"OZError04","inputs":[]}],"bytecode":{"object":"0x610100604052670de0b6b3a764000060075562015180600955348015610023575f80fd5b50604051612481380380612481833981016040819052610042916102cc565b8084848181846001600160a01b031663313ce5676040518163ffffffff1660e01b8152600401602060405180830381865afa158015610083573d5f803e3d5ffd5b505050506040513d601f19601f820116820180604052508101906100a79190610351565b5f6100b284826103fc565b5060016100bf83826103fc565b5060ff81166080524660a0526100d3610167565b60c0525050506001600160a01b0392831660e0525050821661013b5760405162461bcd60e51b815260206004820152601860248201527f6f7a55534443746f6b656e3a206f7a5f206973207a65726f0000000000000000604482015260640160405180910390fd5b50600680546001600160a01b0319166001600160a01b0392909216919091179055505042600855610527565b5f7f8b73c3c69bb8fe3d512ecc4cf759cc79239f7b179b0ffacaa9a75d522b39400f5f60405161019791906104b6565b6040805191829003822060208301939093528101919091527fc89efdaa54c0f20c7adf612882df0950f5a951637e0307cdcb4c672f298b8bc660608201524660808201523060a082015260c00160405160208183030381529060405280519060200120905090565b634e487b7160e01b5f52604160045260245ffd5b5f82601f830112610222575f80fd5b81516001600160401b0381111561023b5761023b6101ff565b604051601f8201601f19908116603f011681016001600160401b0381118282101715610269576102696101ff565b604052818152838201602001851015610280575f80fd5b5f5b8281101561029e57602081860181015183830182015201610282565b505f918101602001919091529392505050565b80516001600160a01b03811681146102c7575f80fd5b919050565b5f805f80608085870312156102df575f80fd5b84516001600160401b038111156102f4575f80fd5b61030087828801610213565b602087015190955090506001600160401b0381111561031d575f80fd5b61032987828801610213565b935050610338604086016102b1565b9150610346606086016102b1565b905092959194509250565b5f60208284031215610361575f80fd5b815160ff81168114610371575f80fd5b9392505050565b600181811c9082168061038c57607f821691505b6020821081036103aa57634e487b7160e01b5f52602260045260245ffd5b50919050565b601f8211156103f757805f5260205f20601f840160051c810160208510156103d55750805b601f840160051c820191505b818110156103f4575f81556001016103e1565b50505b505050565b81516001600160401b03811115610415576104156101ff565b610429816104238454610378565b846103b0565b6020601f82116001811461045b575f83156104445750848201515b5f19600385901b1c1916600184901b1784556103f4565b5f84815260208120601f198516915b8281101561048a578785015182556020948501946001909201910161046a565b50848210156104a757868401515f19600387901b60f8161c191681555b50505050600190811b01905550565b5f8083546104c381610378565b6001821680156104da57600181146104ef5761051c565b60ff198316865281151582028601935061051c565b865f5260205f205f5b83811015610514578154888201526001909101906020016104f8565b505081860193505b509195945050505050565b60805160a05160c05160e051611f1261056f5f395f81816102fe01528181610a5701528181610d920152610ecf01525f6108b901525f61088401525f6102bd0152611f125ff3fe608060405234801561000f575f80fd5b50600436106101e7575f3560e01c806370a0823111610109578063ba0876521161009e578063d505accf1161006e578063d505accf14610439578063d905777e1461044c578063dd62ed3e14610474578063ef8b30f71461049e575f80fd5b8063ba08765214610400578063c63d75b614610338578063c6e6f59214610413578063ce96cb7714610426575f80fd5b8063a9059cbb116100d9578063a9059cbb146103bf578063af14052c146103d2578063b3d7f6b9146103da578063b460af94146103ed575f80fd5b806370a08231146103725780637ecebe001461038557806394bf804d146103a457806395d89b41146103b7575f80fd5b806323b872dd1161017f57806338d52e0f1161014f57806338d52e0f146102f9578063402d267d146103385780634cdad5061461034c5780636e553f651461035f575f80fd5b806323b872dd1461028657806327e235e314610299578063313ce567146102b85780633644e515146102f1575f80fd5b80630a2431bc116101ba5780630a2431bc1461024d5780630a28a4771461025757806318160ddd1461026a5780631a9c56fc14610273575f80fd5b806301e1d114146101eb57806306fdde031461020257806307a2d13a14610217578063095ea7b31461022a575b5f80fd5b600b545b6040519081526020015b60405180910390f35b61020a6104b1565b6040516101f99190611a89565b6101ef610225366004611a9b565b61053c565b61023d610238366004611ac6565b610569565b60405190151581526020016101f9565b6102556105d5565b005b6101ef610265366004611a9b565b61064e565b6101ef60025481565b6101ef610281366004611af0565b61066e565b61023d610294366004611b40565b6107a7565b6101ef6102a7366004611b7e565b60036020525f908152604090205481565b6102df7f000000000000000000000000000000000000000000000000000000000000000081565b60405160ff90911681526020016101f9565b6101ef610881565b6103207f000000000000000000000000000000000000000000000000000000000000000081565b6040516001600160a01b0390911681526020016101f9565b6101ef610346366004611b7e565b505f1990565b6101ef61035a366004611a9b565b6108db565b6101ef61036d366004611b99565b6108e5565b6101ef610380366004611b7e565b61099b565b6101ef610393366004611b7e565b60056020525f908152604090205481565b6101ef6103b2366004611b99565b610a3e565b61020a610ad4565b61023d6103cd366004611ac6565b610ae1565b610255610b44565b6101ef6103e8366004611a9b565b610c9a565b6101ef6103fb366004611bc7565b610cb9565b6101ef61040e366004611bc7565b610db9565b6101ef610421366004611a9b565b610ef6565b6101ef610434366004611b7e565b610f16565b610255610447366004611c06565b610f37565b6101ef61045a366004611b7e565b6001600160a01b03165f9081526003602052604090205490565b6101ef610482366004611c77565b600460209081525f928352604080842090915290825290205481565b6101ef6104ac366004611a9b565b611175565b5f80546104bd90611ca3565b80601f01602080910402602001604051908101604052809291908181526020018280546104e990611ca3565b80156105345780601f1061050b57610100808354040283529160200191610534565b820191905f5260205f20905b81548152906001019060200180831161051757829003601f168201915b505050505081565b6002545f9080156105605761055b610553600b5490565b84908361117f565b610562565b825b9392505050565b335f8181526004602090815260408083206001600160a01b038716808552925280832085905551919290917f8c5be1e5ebec7d5bd14f71427d1e84f3dd0314c0f7b2291e5b200ac8c7c3b925906105c39086815260200190565b60405180910390a35060015b92915050565b60065f9054906101000a90046001600160a01b03166001600160a01b031663bbc8af0a6040518163ffffffff1660e01b8152600401602060405180830381865afa158015610625573d5f803e3d5ffd5b505050506040513d601f19601f820116820180604052508101906106499190611cdb565b600a55565b6002545f9080156105605761055b81610666600b5490565b85919061119a565b5f61068660405180602001604052805f8152506111bd565b60075473d1d7d99764f8a52aff007b7831cc02748b2013b59073a0b86991c6218b36c1d19d4a2e9eb0ce3606eb4890736c9f097e044506712b58eac670c9a5fd4bccef13905f906106df8a670de0b6b3a7640000611d06565b6106e99190611d31565b90506106f58882611203565b61073c6040518060400160405280601c81526020017f7769746820756e6465726c79696e67416d6f756e74202a2a2a2a3a200000000081525061073783610ef6565b61126a565b6107716040518060400160405280601081526020016f03bb4ba341030b6b7bab73a24b72f9d160851b8152506107378b610ef6565b60405162461bcd60e51b815260206004820152600660248201526568657265373760d01b60448201526064015b60405180910390fd5b6001600160a01b0383165f9081526004602090815260408083203384529091528120545f198114610800576107dc8382611d44565b6001600160a01b0386165f9081526004602090815260408083203384529091529020555b6001600160a01b0385165f9081526003602052604081208054859290610827908490611d44565b90915550506001600160a01b038085165f81815260036020526040908190208054870190555190918716905f80516020611ebd8339815191529061086e9087815260200190565b60405180910390a3506001949350505050565b5f7f000000000000000000000000000000000000000000000000000000000000000046146108b6576108b16112b3565b905090565b507f000000000000000000000000000000000000000000000000000000000000000090565b5f6105cf8261053c565b5f6108ef83611175565b9050805f0361092e5760405162461bcd60e51b815260206004820152600b60248201526a5a45524f5f53484152455360a81b604482015260640161079e565b82600b5f82825461093f9190611d57565b9091555061094f9050828261134b565b60408051848152602081018390526001600160a01b0384169133917fdcbc1c05240f31ff3ad067ef1ee35ce4997762752e3a095284754544f4c709d7910160405180910390a392915050565b6001600160a01b0381165f908152600360205260408120546109de60405180604001604052806009815260200168030b1b1b7bab73a1d160bd1b815250846114ae565b610a1d6040518060400160405280602081526020017f756e6465726c79696e6742616c616e636520696e2062616c616e63654f663a208152508261126a565b670de0b6b3a764000060075482610a349190611d06565b6105629190611d31565b5f610a4883610c9a565b9050610a7f6001600160a01b037f0000000000000000000000000000000000000000000000000000000000000000163330846114f3565b610a89828461134b565b60408051828152602081018590526001600160a01b0384169133917fdcbc1c05240f31ff3ad067ef1ee35ce4997762752e3a095284754544f4c709d7910160405180910390a36105cf565b600180546104bd90611ca3565b335f90815260036020526040812080548391908390610b01908490611d44565b90915550506001600160a01b0383165f81815260036020526040908190208054850190555133905f80516020611ebd833981519152906105c39086815260200190565b600954600854610b549190611d57565b421015610b74576040516361ceb1d360e01b815260040160405180910390fd5b60065460408051635de4578560e11b815290515f926001600160a01b03169163bbc8af0a9160048083019260209291908290030181865afa158015610bbb573d5f803e3d5ffd5b505050506040513d601f19601f82011682018060405250810190610bdf9190611cdb565b9050600a54811015610c0457604051637a094ad360e01b815260040160405180910390fd5b600a545f90610c138184611d44565b610c2590670de0b6b3a7640000611d06565b610c2f9190611d31565b9050670de0b6b3a7640000610c448282611d57565b600754610c519190611d06565b610c5b9190611d31565b6007819055600a8390554260088190556040519091907f11c6bf55864ff83827df712625d7a80e5583eef0264921025e7cd22003a21511905f90a35050565b6002545f9080156105605761055b610cb1600b5490565b84908361119a565b5f610cc38461064e565b9050336001600160a01b03831614610d30576001600160a01b0382165f9081526004602090815260408083203384529091529020545f198114610d2e57610d0a8282611d44565b6001600160a01b0384165f9081526004602090815260408083203384529091529020555b505b610d3a8282611203565b60408051858152602081018390526001600160a01b03808516929086169133917ffbde797d201c681b91056529119e0b02407c7bb96a4a2c75c01fc9667232c8db910160405180910390a46105626001600160a01b037f000000000000000000000000000000000000000000000000000000000000000016848661158b565b5f336001600160a01b03831614610e25576001600160a01b0382165f9081526004602090815260408083203384529091529020545f198114610e2357610dff8582611d44565b6001600160a01b0384165f9081526004602090815260408083203384529091529020555b505b610e2e846108db565b9050805f03610e6d5760405162461bcd60e51b815260206004820152600b60248201526a5a45524f5f41535345545360a81b604482015260640161079e565b610e778285611203565b60408051828152602081018690526001600160a01b03808516929086169133917ffbde797d201c681b91056529119e0b02407c7bb96a4a2c75c01fc9667232c8db910160405180910390a46105626001600160a01b037f000000000000000000000000000000000000000000000000000000000000000016848361158b565b6002545f9080156105605761055b81610f0e600b5490565b85919061117f565b6001600160a01b0381165f908152600360205260408120546105cf9061053c565b42841015610f875760405162461bcd60e51b815260206004820152601760248201527f5045524d49545f444541444c494e455f45585049524544000000000000000000604482015260640161079e565b5f6001610f92610881565b6001600160a01b038a81165f8181526005602090815260409182902080546001810190915582517f6e71edae12b1b97f4d1f60370fef10105fa2faae0126114a169c64845d6126c98184015280840194909452938d166060840152608083018c905260a083019390935260c08083018b90528151808403909101815260e08301909152805192019190912061190160f01b6101008301526101028201929092526101228101919091526101420160408051601f1981840301815282825280516020918201205f84529083018083525260ff871690820152606081018590526080810184905260a0016020604051602081039080840390855afa15801561109a573d5f803e3d5ffd5b5050604051601f1901519150506001600160a01b038116158015906110d05750876001600160a01b0316816001600160a01b0316145b61110d5760405162461bcd60e51b815260206004820152600e60248201526d24a72b20a624a22fa9a4a3a722a960911b604482015260640161079e565b6001600160a01b039081165f9081526004602090815260408083208a8516808552908352928190208990555188815291928a16917f8c5be1e5ebec7d5bd14f71427d1e84f3dd0314c0f7b2291e5b200ac8c7c3b925910160405180910390a350505050505050565b5f6105cf82610ef6565b5f825f190484118302158202611193575f80fd5b5091020490565b5f825f1904841183021582026111ae575f80fd5b50910281810615159190040190565b611200816040516024016111d19190611a89565b60408051601f198184030181529190526020810180516001600160e01b031663104c13eb60e21b17905261160e565b50565b6001600160a01b0382165f908152600360205260408120805483929061122a908490611d44565b90915550506002805482900390556040518181525f906001600160a01b038416905f80516020611ebd833981519152906020015b60405180910390a35050565b6112af8282604051602401611280929190611d6a565b60408051601f198184030181529190526020810180516001600160e01b03166309710a9d60e41b17905261160e565b5050565b5f7f8b73c3c69bb8fe3d512ecc4cf759cc79239f7b179b0ffacaa9a75d522b39400f5f6040516112e39190611d8b565b6040805191829003822060208301939093528101919091527fc89efdaa54c0f20c7adf612882df0950f5a951637e0307cdcb4c672f298b8bc660608201524660808201523060a082015260c00160405160208183030381529060405280519060200120905090565b8060025f82825461135c9190611d57565b90915550506001600160a01b0382165f90815260036020908152604080832080548501905580519182019052908152611394906111bd565b6113d26040518060400160405280601881526020017f2d2d2d20696e205f6d696e74202d206572633230202d2d2d00000000000000008152506111bd565b6113f86040518060400160405280600481526020016303a379d160e51b815250836114ae565b61142260405180604001604052806008815260200167030b6b7bab73a1d160c51b8152508261126a565b6114846040518060400160405280601881526020017f62616c616e6365735b746f5d202b3d20616d6f756e743a20000000000000000081525060035f856001600160a01b03166001600160a01b031681526020019081526020015f205461126a565b6040518181526001600160a01b038316905f905f80516020611ebd8339815191529060200161125e565b6112af82826040516024016114c4929190611e27565b60408051601f198184030181529190526020810180516001600160e01b031663319af33360e01b17905261160e565b5f6040516323b872dd60e01b81526001600160a01b03851660048201526001600160a01b038416602482015282604482015260205f6064835f8a5af13d15601f3d1160015f5114161716915050806115845760405162461bcd60e51b81526020600482015260146024820152731514905394d1915497d19493d357d1905253115160621b604482015260640161079e565b5050505050565b5f60405163a9059cbb60e01b81526001600160a01b038416600482015282602482015260205f6044835f895af13d15601f3d1160015f5114161716915050806116085760405162461bcd60e51b815260206004820152600f60248201526e1514905394d1915497d19052531151608a1b604482015260640161079e565b50505050565b6112008180516a636f6e736f6c652e6c6f67602083015f808483855afa5050505050565b5f680238fd42c5cf03ffff198212158015611656575068070c1cc73b00c800008213155b6116955760405162461bcd60e51b815260206004820152601060248201526f125b9d985b1a5908195e1c1bdb995b9d60821b604482015260640161079e565b5f8212156116cc576116a8825f03611632565b6ec097ce7bc90715b34b9f1000000000816116c5576116c5611d1d565b0592915050565b5f6806f05b59d3b2000000831261170b57506806f05b59d3b1ffffff1990910190770195e54c5dd42177f53a27172fa9ec630262827000000000611741565b6803782dace9d9000000831261173d57506803782dace9d8ffffff19909101906b1425982cf597cd205cef7380611741565b5060015b6064929092029168056bc75e2d6310000068ad78ebc5ac6200000084126117915768ad78ebc5ac61ffffff199093019268056bc75e2d631000006e01855144814a7ff805980ff008400082020590505b6856bc75e2d63100000084126117cd576856bc75e2d630ffffff199093019268056bc75e2d631000006b02df0ab5a80a22c61ab5a70082020590505b682b5e3af16b18800000841261180757682b5e3af16b187fffff199093019268056bc75e2d63100000693f1fce3da636ea5cf85082020590505b6815af1d78b58c4000008412611841576815af1d78b58c3fffff199093019268056bc75e2d63100000690127fa27722cc06cc5e282020590505b680ad78ebc5ac6200000841261187a57680ad78ebc5ac61fffff199093019268056bc75e2d6310000068280e60114edb805d0382020590505b68056bc75e2d6310000084126118b35768056bc75e2d630fffff199093019268056bc75e2d63100000680ebc5fb4174612111082020590505b6802b5e3af16b188000084126118ec576802b5e3af16b187ffff199093019268056bc75e2d631000006808f00f760a4b2db55d82020590505b68015af1d78b58c4000084126119255768015af1d78b58c3ffff199093019268056bc75e2d631000006806f5f177578893793782020590505b68056bc75e2d631000008481019085906002908280020505918201919050600368056bc75e2d631000008783020505918201919050600468056bc75e2d631000008783020505918201919050600568056bc75e2d631000008783020505918201919050600668056bc75e2d631000008783020505918201919050600768056bc75e2d631000008783020505918201919050600868056bc75e2d631000008783020505918201919050600968056bc75e2d631000008783020505918201919050600a68056bc75e2d631000008783020505918201919050600b68056bc75e2d631000008783020505918201919050600c68056bc75e2d631000008783020505918201919050606468056bc75e2d63100000848402058502059695505050505050565b5f81518084525f5b81811015611a6a57602081850181015186830182015201611a4e565b505f602082860101526020601f19601f83011685010191505092915050565b602081525f6105626020830184611a46565b5f60208284031215611aab575f80fd5b5035919050565b6001600160a01b0381168114611200575f80fd5b5f8060408385031215611ad7575f80fd5b8235611ae281611ab2565b946020939093013593505050565b5f805f8060808587031215611b03575f80fd5b843593506020850135611b1581611ab2565b92506040850135611b2581611ab2565b91506060850135611b3581611ab2565b939692955090935050565b5f805f60608486031215611b52575f80fd5b8335611b5d81611ab2565b92506020840135611b6d81611ab2565b929592945050506040919091013590565b5f60208284031215611b8e575f80fd5b813561056281611ab2565b5f8060408385031215611baa575f80fd5b823591506020830135611bbc81611ab2565b809150509250929050565b5f805f60608486031215611bd9575f80fd5b833592506020840135611beb81611ab2565b91506040840135611bfb81611ab2565b809150509250925092565b5f805f805f805f60e0888a031215611c1c575f80fd5b8735611c2781611ab2565b96506020880135611c3781611ab2565b95506040880135945060608801359350608088013560ff81168114611c5a575f80fd5b9699959850939692959460a0840135945060c09093013592915050565b5f8060408385031215611c88575f80fd5b8235611c9381611ab2565b91506020830135611bbc81611ab2565b600181811c90821680611cb757607f821691505b602082108103611cd557634e487b7160e01b5f52602260045260245ffd5b50919050565b5f60208284031215611ceb575f80fd5b5051919050565b634e487b7160e01b5f52601160045260245ffd5b80820281158282048414176105cf576105cf611cf2565b634e487b7160e01b5f52601260045260245ffd5b5f82611d3f57611d3f611d1d565b500490565b818103818111156105cf576105cf611cf2565b808201808211156105cf576105cf611cf2565b604081525f611d7c6040830185611a46565b90508260208301529392505050565b5f8083545f8160011c90506001821680611da657607f821691505b602082108103611dc457634e487b7160e01b5f52602260045260245ffd5b808015611dd85760018114611ded57611e1b565b60ff1984168752821515830287019450611e1b565b5f888152602090205f5b84811015611e1357815489820152600190910190602001611df7565b505082870194505b50929695505050505050565b604081525f611e396040830185611a46565b905060018060a01b03831660208301529392505050565b81811015611e7457835163ffffffff16835260209384019390920191600101611e50565b509095945050505050565b83851015611eb157845192506001600160d81b0383168314611e9f575f80fd5b82825260209485019490910190611e7f565b97965050505050505056feddf252ad1be2c89b69c2b068fc378daa952ba7f163c4a11628f55a4df523b3efa26469706673582212202523b25b88253e24da1dafd489f097dc31d7b40f0aef74e45ceb113fa2ded85764736f6c634300081a0033","linkReferences":{}},"methodIdentifiers":{"DOMAIN_SEPARATOR()":"3644e515","allowance(address,address)":"dd62ed3e","approve(address,uint256)":"095ea7b3","asset()":"38d52e0f","balanceOf(address)":"70a08231","balances(address)":"27e235e3","convertToAssets(uint256)":"07a2d13a","convertToShares(uint256)":"c6e6f592","decimals()":"313ce567","deposit(uint256,address)":"6e553f65","maxDeposit(address)":"402d267d","maxMint(address)":"c63d75b6","maxRedeem(address)":"d905777e","maxWithdraw(address)":"ce96cb77","mint(uint256,address)":"94bf804d","name()":"06fdde03","nonces(address)":"7ecebe00","permit(address,address,uint256,uint256,uint8,bytes32,bytes32)":"d505accf","previewDeposit(uint256)":"ef8b30f7","previewMint(uint256)":"b3d7f6b9","previewRedeem(uint256)":"4cdad506","previewWithdraw(uint256)":"0a28a477","rebase()":"af14052c","redeem(uint256,address,address)":"ba087652","redeem(uint256,address,address,address)":"1a9c56fc","setInitialRate()":"0a2431bc","symbol()":"95d89b41","totalAssets()":"01e1d114","totalSupply()":"18160ddd","transfer(address,uint256)":"a9059cbb","transferFrom(address,address,uint256)":"23b872dd","withdraw(uint256,address,address)":"b460af94"},"id":32}