{"abi":[{"type":"constructor","inputs":[{"name":"name_","type":"string","internalType":"string"},{"name":"symbol_","type":"string","internalType":"string"},{"name":"oz_","type":"address","internalType":"address"},{"name":"underlying_","type":"address","internalType":"address"}],"stateMutability":"nonpayable"},{"type":"function","name":"DOMAIN_SEPARATOR","inputs":[],"outputs":[{"name":"","type":"bytes32","internalType":"bytes32"}],"stateMutability":"view"},{"type":"function","name":"allowance","inputs":[{"name":"","type":"address","internalType":"address"},{"name":"","type":"address","internalType":"address"}],"outputs":[{"name":"","type":"uint256","internalType":"uint256"}],"stateMutability":"view"},{"type":"function","name":"approve","inputs":[{"name":"spender","type":"address","internalType":"address"},{"name":"amount","type":"uint256","internalType":"uint256"}],"outputs":[{"name":"","type":"bool","internalType":"bool"}],"stateMutability":"nonpayable"},{"type":"function","name":"asset","inputs":[],"outputs":[{"name":"","type":"address","internalType":"contract ERC20"}],"stateMutability":"view"},{"type":"function","name":"balanceOf","inputs":[{"name":"account","type":"address","internalType":"address"}],"outputs":[{"name":"","type":"uint256","internalType":"uint256"}],"stateMutability":"view"},{"type":"function","name":"balances","inputs":[{"name":"","type":"address","internalType":"address"}],"outputs":[{"name":"","type":"uint256","internalType":"uint256"}],"stateMutability":"view"},{"type":"function","name":"convertToAssets","inputs":[{"name":"shares","type":"uint256","internalType":"uint256"}],"outputs":[{"name":"","type":"uint256","internalType":"uint256"}],"stateMutability":"view"},{"type":"function","name":"convertToShares","inputs":[{"name":"assets","type":"uint256","internalType":"uint256"}],"outputs":[{"name":"","type":"uint256","internalType":"uint256"}],"stateMutability":"view"},{"type":"function","name":"decimals","inputs":[],"outputs":[{"name":"","type":"uint8","internalType":"uint8"}],"stateMutability":"view"},{"type":"function","name":"deposit","inputs":[{"name":"assets","type":"uint256","internalType":"uint256"},{"name":"receiver","type":"address","internalType":"address"}],"outputs":[{"name":"shares","type":"uint256","internalType":"uint256"}],"stateMutability":"nonpayable"},{"type":"function","name":"maxDeposit","inputs":[{"name":"","type":"address","internalType":"address"}],"outputs":[{"name":"","type":"uint256","internalType":"uint256"}],"stateMutability":"view"},{"type":"function","name":"maxMint","inputs":[{"name":"","type":"address","internalType":"address"}],"outputs":[{"name":"","type":"uint256","internalType":"uint256"}],"stateMutability":"view"},{"type":"function","name":"maxRedeem","inputs":[{"name":"owner","type":"address","internalType":"address"}],"outputs":[{"name":"","type":"uint256","internalType":"uint256"}],"stateMutability":"view"},{"type":"function","name":"maxWithdraw","inputs":[{"name":"owner","type":"address","internalType":"address"}],"outputs":[{"name":"","type":"uint256","internalType":"uint256"}],"stateMutability":"view"},{"type":"function","name":"mint","inputs":[{"name":"shares","type":"uint256","internalType":"uint256"},{"name":"receiver","type":"address","internalType":"address"}],"outputs":[{"name":"assets","type":"uint256","internalType":"uint256"}],"stateMutability":"nonpayable"},{"type":"function","name":"name","inputs":[],"outputs":[{"name":"","type":"string","internalType":"string"}],"stateMutability":"view"},{"type":"function","name":"nonces","inputs":[{"name":"","type":"address","internalType":"address"}],"outputs":[{"name":"","type":"uint256","internalType":"uint256"}],"stateMutability":"view"},{"type":"function","name":"permit","inputs":[{"name":"owner","type":"address","internalType":"address"},{"name":"spender","type":"address","internalType":"address"},{"name":"value","type":"uint256","internalType":"uint256"},{"name":"deadline","type":"uint256","internalType":"uint256"},{"name":"v","type":"uint8","internalType":"uint8"},{"name":"r","type":"bytes32","internalType":"bytes32"},{"name":"s","type":"bytes32","internalType":"bytes32"}],"outputs":[],"stateMutability":"nonpayable"},{"type":"function","name":"previewDeposit","inputs":[{"name":"assets","type":"uint256","internalType":"uint256"}],"outputs":[{"name":"","type":"uint256","internalType":"uint256"}],"stateMutability":"view"},{"type":"function","name":"previewMint","inputs":[{"name":"shares","type":"uint256","internalType":"uint256"}],"outputs":[{"name":"","type":"uint256","internalType":"uint256"}],"stateMutability":"view"},{"type":"function","name":"previewRedeem","inputs":[{"name":"shares","type":"uint256","internalType":"uint256"}],"outputs":[{"name":"","type":"uint256","internalType":"uint256"}],"stateMutability":"view"},{"type":"function","name":"previewWithdraw","inputs":[{"name":"assets","type":"uint256","internalType":"uint256"}],"outputs":[{"name":"","type":"uint256","internalType":"uint256"}],"stateMutability":"view"},{"type":"function","name":"rebase","inputs":[],"outputs":[],"stateMutability":"nonpayable"},{"type":"function","name":"redeem","inputs":[{"name":"amountIn_","type":"uint256","internalType":"uint256"},{"name":"owner_","type":"address","internalType":"address"},{"name":"receiver_","type":"address","internalType":"address"},{"name":"tokenOut_","type":"address","internalType":"address"}],"outputs":[{"name":"","type":"uint256","internalType":"uint256"}],"stateMutability":"nonpayable"},{"type":"function","name":"redeem","inputs":[{"name":"shares","type":"uint256","internalType":"uint256"},{"name":"receiver","type":"address","internalType":"address"},{"name":"owner","type":"address","internalType":"address"}],"outputs":[{"name":"assets","type":"uint256","internalType":"uint256"}],"stateMutability":"nonpayable"},{"type":"function","name":"setInitialRate","inputs":[],"outputs":[],"stateMutability":"nonpayable"},{"type":"function","name":"symbol","inputs":[],"outputs":[{"name":"","type":"string","internalType":"string"}],"stateMutability":"view"},{"type":"function","name":"totalAssets","inputs":[],"outputs":[{"name":"","type":"uint256","internalType":"uint256"}],"stateMutability":"view"},{"type":"function","name":"totalSupply","inputs":[],"outputs":[{"name":"","type":"uint256","internalType":"uint256"}],"stateMutability":"view"},{"type":"function","name":"transfer","inputs":[{"name":"to","type":"address","internalType":"address"},{"name":"amount","type":"uint256","internalType":"uint256"}],"outputs":[{"name":"","type":"bool","internalType":"bool"}],"stateMutability":"nonpayable"},{"type":"function","name":"transferFrom","inputs":[{"name":"from","type":"address","internalType":"address"},{"name":"to","type":"address","internalType":"address"},{"name":"amount","type":"uint256","internalType":"uint256"}],"outputs":[{"name":"","type":"bool","internalType":"bool"}],"stateMutability":"nonpayable"},{"type":"function","name":"withdraw","inputs":[{"name":"assets","type":"uint256","internalType":"uint256"},{"name":"receiver","type":"address","internalType":"address"},{"name":"owner","type":"address","internalType":"address"}],"outputs":[{"name":"shares","type":"uint256","internalType":"uint256"}],"stateMutability":"nonpayable"},{"type":"event","name":"Approval","inputs":[{"name":"owner","type":"address","indexed":true,"internalType":"address"},{"name":"spender","type":"address","indexed":true,"internalType":"address"},{"name":"amount","type":"uint256","indexed":false,"internalType":"uint256"}],"anonymous":false},{"type":"event","name":"Deposit","inputs":[{"name":"caller","type":"address","indexed":true,"internalType":"address"},{"name":"owner","type":"address","indexed":true,"internalType":"address"},{"name":"assets","type":"uint256","indexed":false,"internalType":"uint256"},{"name":"shares","type":"uint256","indexed":false,"internalType":"uint256"}],"anonymous":false},{"type":"event","name":"Rebase","inputs":[{"name":"newScalingFactor","type":"uint256","indexed":true,"internalType":"uint256"},{"name":"rebaseTime","type":"uint256","indexed":true,"internalType":"uint256"}],"anonymous":false},{"type":"event","name":"Transfer","inputs":[{"name":"from","type":"address","indexed":true,"internalType":"address"},{"name":"to","type":"address","indexed":true,"internalType":"address"},{"name":"amount","type":"uint256","indexed":false,"internalType":"uint256"}],"anonymous":false},{"type":"event","name":"Withdraw","inputs":[{"name":"caller","type":"address","indexed":true,"internalType":"address"},{"name":"receiver","type":"address","indexed":true,"internalType":"address"},{"name":"owner","type":"address","indexed":true,"internalType":"address"},{"name":"assets","type":"uint256","indexed":false,"internalType":"uint256"},{"name":"shares","type":"uint256","indexed":false,"internalType":"uint256"}],"anonymous":false},{"type":"error","name":"OZError03","inputs":[]},{"type":"error","name":"OZError04","inputs":[]}],"bytecode":{"object":"0x610100604052670de0b6b3a764000060075562015180600955600c80546001600160a01b031990811673d1d7d99764f8a52aff007b7831cc02748b2013b517909155600d8054821673a0b86991c6218b36c1d19d4a2e9eb0ce3606eb48179055600e8054909116736c9f097e044506712b58eac670c9a5fd4bccef13179055348015610089575f80fd5b506040516124563803806124568339810160408190526100a891610332565b8084848181846001600160a01b031663313ce5676040518163ffffffff1660e01b8152600401602060405180830381865afa1580156100e9573d5f803e3d5ffd5b505050506040513d601f19601f8201168201806040525081019061010d91906103b7565b5f6101188482610462565b5060016101258382610462565b5060ff81166080524660a0526101396101cd565b60c0525050506001600160a01b0392831660e052505082166101a15760405162461bcd60e51b815260206004820152601860248201527f6f7a55534443746f6b656e3a206f7a5f206973207a65726f0000000000000000604482015260640160405180910390fd5b50600680546001600160a01b0319166001600160a01b039290921691909117905550504260085561058d565b5f7f8b73c3c69bb8fe3d512ecc4cf759cc79239f7b179b0ffacaa9a75d522b39400f5f6040516101fd919061051c565b6040805191829003822060208301939093528101919091527fc89efdaa54c0f20c7adf612882df0950f5a951637e0307cdcb4c672f298b8bc660608201524660808201523060a082015260c00160405160208183030381529060405280519060200120905090565b634e487b7160e01b5f52604160045260245ffd5b5f82601f830112610288575f80fd5b81516001600160401b038111156102a1576102a1610265565b604051601f8201601f19908116603f011681016001600160401b03811182821017156102cf576102cf610265565b6040528181528382016020018510156102e6575f80fd5b5f5b82811015610304576020818601810151838301820152016102e8565b505f918101602001919091529392505050565b80516001600160a01b038116811461032d575f80fd5b919050565b5f805f8060808587031215610345575f80fd5b84516001600160401b0381111561035a575f80fd5b61036687828801610279565b602087015190955090506001600160401b03811115610383575f80fd5b61038f87828801610279565b93505061039e60408601610317565b91506103ac60608601610317565b905092959194509250565b5f602082840312156103c7575f80fd5b815160ff811681146103d7575f80fd5b9392505050565b600181811c908216806103f257607f821691505b60208210810361041057634e487b7160e01b5f52602260045260245ffd5b50919050565b601f82111561045d57805f5260205f20601f840160051c8101602085101561043b5750805b601f840160051c820191505b8181101561045a575f8155600101610447565b50505b505050565b81516001600160401b0381111561047b5761047b610265565b61048f8161048984546103de565b84610416565b6020601f8211600181146104c1575f83156104aa5750848201515b5f19600385901b1c1916600184901b17845561045a565b5f84815260208120601f198516915b828110156104f057878501518255602094850194600190920191016104d0565b508482101561050d57868401515f19600387901b60f8161c191681555b50505050600190811b01905550565b5f808354610529816103de565b600182168015610540576001811461055557610582565b60ff1983168652811515820286019350610582565b865f5260205f205f5b8381101561057a5781548882015260019091019060200161055e565b505081860193505b509195945050505050565b60805160a05160c05160e051611e816105d55f395f81816102fe01528181610c1c01528181610f57015261109401525f610a7e01525f610a4901525f6102bd0152611e815ff3fe608060405234801561000f575f80fd5b50600436106101e7575f3560e01c806370a0823111610109578063ba0876521161009e578063d505accf1161006e578063d505accf14610439578063d905777e1461044c578063dd62ed3e14610474578063ef8b30f71461049e575f80fd5b8063ba08765214610400578063c63d75b614610338578063c6e6f59214610413578063ce96cb7714610426575f80fd5b8063a9059cbb116100d9578063a9059cbb146103bf578063af14052c146103d2578063b3d7f6b9146103da578063b460af94146103ed575f80fd5b806370a08231146103725780637ecebe001461038557806394bf804d146103a457806395d89b41146103b7575f80fd5b806323b872dd1161017f57806338d52e0f1161014f57806338d52e0f146102f9578063402d267d146103385780634cdad5061461034c5780636e553f651461035f575f80fd5b806323b872dd1461028657806327e235e314610299578063313ce567146102b85780633644e515146102f1575f80fd5b80630a2431bc116101ba5780630a2431bc1461024d5780630a28a4771461025757806318160ddd1461026a5780631a9c56fc14610273575f80fd5b806301e1d114146101eb57806306fdde031461020257806307a2d13a14610217578063095ea7b31461022a575b5f80fd5b600b545b6040519081526020015b60405180910390f35b61020a6104b1565b6040516101f991906119b0565b6101ef6102253660046119c2565b61053c565b61023d6102383660046119ed565b610569565b60405190151581526020016101f9565b6102556105d5565b005b6101ef6102653660046119c2565b61064e565b6101ef60025481565b6101ef610281366004611a17565b61066e565b61023d610294366004611a67565b61096c565b6101ef6102a7366004611aa5565b60036020525f908152604090205481565b6102df7f000000000000000000000000000000000000000000000000000000000000000081565b60405160ff90911681526020016101f9565b6101ef610a46565b6103207f000000000000000000000000000000000000000000000000000000000000000081565b6040516001600160a01b0390911681526020016101f9565b6101ef610346366004611aa5565b505f1990565b6101ef61035a3660046119c2565b610aa0565b6101ef61036d366004611ac0565b610aaa565b6101ef610380366004611aa5565b610b60565b6101ef610393366004611aa5565b60056020525f908152604090205481565b6101ef6103b2366004611ac0565b610c03565b61020a610c99565b61023d6103cd3660046119ed565b610ca6565b610255610d09565b6101ef6103e83660046119c2565b610e5f565b6101ef6103fb366004611aee565b610e7e565b6101ef61040e366004611aee565b610f7e565b6101ef6104213660046119c2565b6110bb565b6101ef610434366004611aa5565b611216565b610255610447366004611b2d565b611237565b6101ef61045a366004611aa5565b6001600160a01b03165f9081526003602052604090205490565b6101ef610482366004611b9e565b600460209081525f928352604080842090915290825290205481565b6101ef6104ac3660046119c2565b611475565b5f80546104bd90611bca565b80601f01602080910402602001604051908101604052809291908181526020018280546104e990611bca565b80156105345780601f1061050b57610100808354040283529160200191610534565b820191905f5260205f20905b81548152906001019060200180831161051757829003601f168201915b505050505081565b6002545f9080156105605761055b610553600b5490565b84908361147f565b610562565b825b9392505050565b335f8181526004602090815260408083206001600160a01b038716808552925280832085905551919290917f8c5be1e5ebec7d5bd14f71427d1e84f3dd0314c0f7b2291e5b200ac8c7c3b925906105c39086815260200190565b60405180910390a35060015b92915050565b60065f9054906101000a90046001600160a01b03166001600160a01b031663bbc8af0a6040518163ffffffff1660e01b8152600401602060405180830381865afa158015610625573d5f803e3d5ffd5b505050506040513d601f19601f820116820180604052508101906106499190611c02565b600a55565b6002545f9080156105605761055b81610666600b5490565b85919061149a565b5f61068660405180602001604052805f8152506114bd565b5f6106a6670de0b6b3a76400006007548861149a9092919063ffffffff16565b90505f6106c8670de0b6b3a76400006007546106c189610b60565b919061149a565b90505f6106d4836110bb565b90505f6106e0836110bb565b600654604051632fe4a15f60e21b81526001600160a01b038b811660048301529293505f929091169063bf92857c9060240160e060405180830381865afa15801561072d573d5f803e3d5ffd5b505050506040513d601f19601f820116820180604052508101906107519190611c3a565b51600e546040516370a0823160e01b81526001600160a01b0380841660048301529293505f92909116906370a0823190602401602060405180830381865afa15801561079f573d5f803e3d5ffd5b505050506040513d601f19601f820116820180604052508101906107c39190611c02565b90506107f26040518060400160405280600b81526020016a030b6b7bab73a24b72f9d160ad1b8152508c611503565b61082f6040518060400160405280601381526020017203130b630b731b2a7b31437bbb732b92f949d1606d1b81525061082a8c610b60565b611503565b6108636040518060400160405280601281526020017103ab73232b9363cb4b733a0b6b7bab73a1d160751b81525087611503565b6108916040518060400160405280600c81526020016b03ab9b2b929b430b932b99d160a51b81525085611503565b6108c46040518060400160405280601181526020017003a37ba30b62ab9b2b929b430b932b99d1607d1b81525084611503565b6108f36040518060400160405280600d81526020016c03a37ba30b62ab9b2b9282a1d1609d1b81525082611503565b5f6108ff85838661147f565b905061093660405180604001604052806013815260200172030b6b7bab73a24b7282a101292929292929d1606d1b81525082611503565b60405162461bcd60e51b815260206004820152600660248201526568657265313160d01b60448201526064015b60405180910390fd5b6001600160a01b0383165f9081526004602090815260408083203384529091528120545f1981146109c5576109a18382611ce9565b6001600160a01b0386165f9081526004602090815260408083203384529091529020555b6001600160a01b0385165f90815260036020526040812080548592906109ec908490611ce9565b90915550506001600160a01b038085165f81815260036020526040908190208054870190555190918716905f80516020611e2c83398151915290610a339087815260200190565b60405180910390a3506001949350505050565b5f7f00000000000000000000000000000000000000000000000000000000000000004614610a7b57610a76611702565b905090565b507f000000000000000000000000000000000000000000000000000000000000000090565b5f6105cf8261053c565b5f610ab483611475565b9050805f03610af35760405162461bcd60e51b815260206004820152600b60248201526a5a45524f5f53484152455360a81b6044820152606401610963565b82600b5f828254610b049190611cfc565b90915550610b149050828261179a565b60408051848152602081018390526001600160a01b0384169133917fdcbc1c05240f31ff3ad067ef1ee35ce4997762752e3a095284754544f4c709d7910160405180910390a392915050565b6001600160a01b0381165f90815260036020526040812054610ba360405180604001604052806009815260200168030b1b1b7bab73a1d160bd1b815250846117e9565b610be26040518060400160405280602081526020017f756e6465726c79696e6742616c616e636520696e2062616c616e63654f663a2081525082611503565b670de0b6b3a764000060075482610bf99190611d0f565b6105629190611d26565b5f610c0d83610e5f565b9050610c446001600160a01b037f00000000000000000000000000000000000000000000000000000000000000001633308461182e565b610c4e828461179a565b60408051828152602081018590526001600160a01b0384169133917fdcbc1c05240f31ff3ad067ef1ee35ce4997762752e3a095284754544f4c709d7910160405180910390a36105cf565b600180546104bd90611bca565b335f90815260036020526040812080548391908390610cc6908490611ce9565b90915550506001600160a01b0383165f81815260036020526040908190208054850190555133905f80516020611e2c833981519152906105c39086815260200190565b600954600854610d199190611cfc565b421015610d39576040516361ceb1d360e01b815260040160405180910390fd5b60065460408051635de4578560e11b815290515f926001600160a01b03169163bbc8af0a9160048083019260209291908290030181865afa158015610d80573d5f803e3d5ffd5b505050506040513d601f19601f82011682018060405250810190610da49190611c02565b9050600a54811015610dc957604051637a094ad360e01b815260040160405180910390fd5b600a545f90610dd88184611ce9565b610dea90670de0b6b3a7640000611d0f565b610df49190611d26565b9050670de0b6b3a7640000610e098282611cfc565b600754610e169190611d0f565b610e209190611d26565b6007819055600a8390554260088190556040519091907f11c6bf55864ff83827df712625d7a80e5583eef0264921025e7cd22003a21511905f90a35050565b6002545f9080156105605761055b610e76600b5490565b84908361149a565b5f610e888461064e565b9050336001600160a01b03831614610ef5576001600160a01b0382165f9081526004602090815260408083203384529091529020545f198114610ef357610ecf8282611ce9565b6001600160a01b0384165f9081526004602090815260408083203384529091529020555b505b610eff828261154c565b60408051858152602081018390526001600160a01b03808516929086169133917ffbde797d201c681b91056529119e0b02407c7bb96a4a2c75c01fc9667232c8db910160405180910390a46105626001600160a01b037f00000000000000000000000000000000000000000000000000000000000000001684866118c6565b5f336001600160a01b03831614610fea576001600160a01b0382165f9081526004602090815260408083203384529091529020545f198114610fe857610fc48582611ce9565b6001600160a01b0384165f9081526004602090815260408083203384529091529020555b505b610ff384610aa0565b9050805f036110325760405162461bcd60e51b815260206004820152600b60248201526a5a45524f5f41535345545360a81b6044820152606401610963565b61103c828561154c565b60408051828152602081018690526001600160a01b03808516929086169133917ffbde797d201c681b91056529119e0b02407c7bb96a4a2c75c01fc9667232c8db910160405180910390a46105626001600160a01b037f00000000000000000000000000000000000000000000000000000000000000001684836118c6565b5f8060025490506110d960405180602001604052805f8152506114bd565b6111176040518060400160405280601a81526020017f2d2d2d20696e20636f6e76657274546f536861726573202d2d2d0000000000008152506114bd565b6111466040518060400160405280600d81526020016c03a37ba30b629bab838363c9d1609d1b81525082611503565b61117060405180604001604052806008815260200167030b9b9b2ba399d160c51b81525084611503565b6111a26040518060400160405280600d81526020016c03a37ba30b620b9b9b2ba399d1609d1b81525061082a600b5490565b6111e460405180604001604052806004815260200163034b99d160e51b815250825f146111de5761082a836111d6600b5490565b87919061147f565b84611503565b6111fb60405180602001604052805f8152506114bd565b80156105605761055b8161120e600b5490565b85919061147f565b6001600160a01b0381165f908152600360205260408120546105cf9061053c565b428410156112875760405162461bcd60e51b815260206004820152601760248201527f5045524d49545f444541444c494e455f455850495245440000000000000000006044820152606401610963565b5f6001611292610a46565b6001600160a01b038a81165f8181526005602090815260409182902080546001810190915582517f6e71edae12b1b97f4d1f60370fef10105fa2faae0126114a169c64845d6126c98184015280840194909452938d166060840152608083018c905260a083019390935260c08083018b90528151808403909101815260e08301909152805192019190912061190160f01b6101008301526101028201929092526101228101919091526101420160408051601f1981840301815282825280516020918201205f84529083018083525260ff871690820152606081018590526080810184905260a0016020604051602081039080840390855afa15801561139a573d5f803e3d5ffd5b5050604051601f1901519150506001600160a01b038116158015906113d05750876001600160a01b0316816001600160a01b0316145b61140d5760405162461bcd60e51b815260206004820152600e60248201526d24a72b20a624a22fa9a4a3a722a960911b6044820152606401610963565b6001600160a01b039081165f9081526004602090815260408083208a8516808552908352928190208990555188815291928a16917f8c5be1e5ebec7d5bd14f71427d1e84f3dd0314c0f7b2291e5b200ac8c7c3b925910160405180910390a350505050505050565b5f6105cf826110bb565b5f825f190484118302158202611493575f80fd5b5091020490565b5f825f1904841183021582026114ae575f80fd5b50910281810615159190040190565b611500816040516024016114d191906119b0565b60408051601f198184030181529190526020810180516001600160e01b031663104c13eb60e21b179052611949565b50565b6115488282604051602401611519929190611d45565b60408051601f198184030181529190526020810180516001600160e01b03166309710a9d60e41b179052611949565b5050565b61156360405180602001604052805f8152506114bd565b6115946040518060400160405280601081526020016f2d2d2d20696e205f6275726e202d2d2d60801b8152506114bd565b6115f66040518060400160405280601981526020017f62616c616e6365735b66726f6d5d202d20707265206f703a200000000000000081525060035f856001600160a01b03166001600160a01b031681526020019081526020015f2054611503565b61162060405180604001604052806008815260200167030b6b7bab73a1d160c51b81525082611503565b6001600160a01b0382165f9081526003602052604081208054839290611647908490611ce9565b925050819055506116b06040518060400160405280601a81526020017f62616c616e6365735b66726f6d5d202d20706f7374206f703a2000000000000081525060035f856001600160a01b03166001600160a01b031681526020019081526020015f2054611503565b6116c760405180602001604052805f8152506114bd565b6002805482900390556040518181525f906001600160a01b038416905f80516020611e2c833981519152906020015b60405180910390a35050565b5f7f8b73c3c69bb8fe3d512ecc4cf759cc79239f7b179b0ffacaa9a75d522b39400f5f6040516117329190611d66565b6040805191829003822060208301939093528101919091527fc89efdaa54c0f20c7adf612882df0950f5a951637e0307cdcb4c672f298b8bc660608201524660808201523060a082015260c00160405160208183030381529060405280519060200120905090565b8060025f8282546117ab9190611cfc565b90915550506001600160a01b0382165f818152600360209081526040808320805486019055518481525f80516020611e2c83398151915291016116f6565b61154882826040516024016117ff929190611e02565b60408051601f198184030181529190526020810180516001600160e01b031663319af33360e01b179052611949565b5f6040516323b872dd60e01b81526001600160a01b03851660048201526001600160a01b038416602482015282604482015260205f6064835f8a5af13d15601f3d1160015f5114161716915050806118bf5760405162461bcd60e51b81526020600482015260146024820152731514905394d1915497d19493d357d1905253115160621b6044820152606401610963565b5050505050565b5f60405163a9059cbb60e01b81526001600160a01b038416600482015282602482015260205f6044835f895af13d15601f3d1160015f5114161716915050806119435760405162461bcd60e51b815260206004820152600f60248201526e1514905394d1915497d19052531151608a1b6044820152606401610963565b50505050565b6115008180516a636f6e736f6c652e6c6f67602083015f808483855afa5050505050565b5f81518084525f5b8181101561199157602081850181015186830182015201611975565b505f602082860101526020601f19601f83011685010191505092915050565b602081525f610562602083018461196d565b5f602082840312156119d2575f80fd5b5035919050565b6001600160a01b0381168114611500575f80fd5b5f80604083850312156119fe575f80fd5b8235611a09816119d9565b946020939093013593505050565b5f805f8060808587031215611a2a575f80fd5b843593506020850135611a3c816119d9565b92506040850135611a4c816119d9565b91506060850135611a5c816119d9565b939692955090935050565b5f805f60608486031215611a79575f80fd5b8335611a84816119d9565b92506020840135611a94816119d9565b929592945050506040919091013590565b5f60208284031215611ab5575f80fd5b8135610562816119d9565b5f8060408385031215611ad1575f80fd5b823591506020830135611ae3816119d9565b809150509250929050565b5f805f60608486031215611b00575f80fd5b833592506020840135611b12816119d9565b91506040840135611b22816119d9565b809150509250925092565b5f805f805f805f60e0888a031215611b43575f80fd5b8735611b4e816119d9565b96506020880135611b5e816119d9565b95506040880135945060608801359350608088013560ff81168114611b81575f80fd5b9699959850939692959460a0840135945060c09093013592915050565b5f8060408385031215611baf575f80fd5b8235611bba816119d9565b91506020830135611ae3816119d9565b600181811c90821680611bde57607f821691505b602082108103611bfc57634e487b7160e01b5f52602260045260245ffd5b50919050565b5f60208284031215611c12575f80fd5b5051919050565b8051611c24816119d9565b919050565b805161ffff81168114611c24575f80fd5b5f60e0828403128015611c4b575f80fd5b5060405160e0810167ffffffffffffffff81118282101715611c7b57634e487b7160e01b5f52604160045260245ffd5b604052611c8783611c19565b815260208381015190820152604080840151908201526060808401519082015260808084015190820152611cbd60a08401611c29565b60a082015260c0928301519281019290925250919050565b634e487b7160e01b5f52601160045260245ffd5b818103818111156105cf576105cf611cd5565b808201808211156105cf576105cf611cd5565b80820281158282048414176105cf576105cf611cd5565b5f82611d4057634e487b7160e01b5f52601260045260245ffd5b500490565b604081525f611d57604083018561196d565b90508260208301529392505050565b5f8083545f8160011c90506001821680611d8157607f821691505b602082108103611d9f57634e487b7160e01b5f52602260045260245ffd5b808015611db35760018114611dc857611df6565b60ff1984168752821515830287019450611df6565b5f888152602090205f5b84811015611dee57815489820152600190910190602001611dd2565b505082870194505b50929695505050505050565b604081525f611e14604083018561196d565b905060018060a01b0383166020830152939250505056feddf252ad1be2c89b69c2b068fc378daa952ba7f163c4a11628f55a4df523b3efa2646970667358221220160573807432dcaff53a869e08983a1b1fc480e5d1ff74628d533ef0d28f772164736f6c634300081a0033","linkReferences":{}},"methodIdentifiers":{"DOMAIN_SEPARATOR()":"3644e515","allowance(address,address)":"dd62ed3e","approve(address,uint256)":"095ea7b3","asset()":"38d52e0f","balanceOf(address)":"70a08231","balances(address)":"27e235e3","convertToAssets(uint256)":"07a2d13a","convertToShares(uint256)":"c6e6f592","decimals()":"313ce567","deposit(uint256,address)":"6e553f65","maxDeposit(address)":"402d267d","maxMint(address)":"c63d75b6","maxRedeem(address)":"d905777e","maxWithdraw(address)":"ce96cb77","mint(uint256,address)":"94bf804d","name()":"06fdde03","nonces(address)":"7ecebe00","permit(address,address,uint256,uint256,uint8,bytes32,bytes32)":"d505accf","previewDeposit(uint256)":"ef8b30f7","previewMint(uint256)":"b3d7f6b9","previewRedeem(uint256)":"4cdad506","previewWithdraw(uint256)":"0a28a477","rebase()":"af14052c","redeem(uint256,address,address)":"ba087652","redeem(uint256,address,address,address)":"1a9c56fc","setInitialRate()":"0a2431bc","symbol()":"95d89b41","totalAssets()":"01e1d114","totalSupply()":"18160ddd","transfer(address,uint256)":"a9059cbb","transferFrom(address,address,uint256)":"23b872dd","withdraw(uint256,address,address)":"b460af94"},"id":32}