{"abi":[{"type":"constructor","inputs":[{"name":"name_","type":"string","internalType":"string"},{"name":"symbol_","type":"string","internalType":"string"},{"name":"oz_","type":"address","internalType":"address"},{"name":"underlying_","type":"address","internalType":"address"}],"stateMutability":"nonpayable"},{"type":"function","name":"DOMAIN_SEPARATOR","inputs":[],"outputs":[{"name":"","type":"bytes32","internalType":"bytes32"}],"stateMutability":"view"},{"type":"function","name":"allowance","inputs":[{"name":"","type":"address","internalType":"address"},{"name":"","type":"address","internalType":"address"}],"outputs":[{"name":"","type":"uint256","internalType":"uint256"}],"stateMutability":"view"},{"type":"function","name":"approve","inputs":[{"name":"spender","type":"address","internalType":"address"},{"name":"amount","type":"uint256","internalType":"uint256"}],"outputs":[{"name":"","type":"bool","internalType":"bool"}],"stateMutability":"nonpayable"},{"type":"function","name":"asset","inputs":[],"outputs":[{"name":"","type":"address","internalType":"contract ERC20"}],"stateMutability":"view"},{"type":"function","name":"balanceOf","inputs":[{"name":"account","type":"address","internalType":"address"}],"outputs":[{"name":"","type":"uint256","internalType":"uint256"}],"stateMutability":"view"},{"type":"function","name":"balances","inputs":[{"name":"","type":"address","internalType":"address"}],"outputs":[{"name":"","type":"uint256","internalType":"uint256"}],"stateMutability":"view"},{"type":"function","name":"convertToAssets","inputs":[{"name":"shares","type":"uint256","internalType":"uint256"}],"outputs":[{"name":"","type":"uint256","internalType":"uint256"}],"stateMutability":"view"},{"type":"function","name":"convertToShares","inputs":[{"name":"assets","type":"uint256","internalType":"uint256"}],"outputs":[{"name":"","type":"uint256","internalType":"uint256"}],"stateMutability":"view"},{"type":"function","name":"decimals","inputs":[],"outputs":[{"name":"","type":"uint8","internalType":"uint8"}],"stateMutability":"view"},{"type":"function","name":"deposit","inputs":[{"name":"assets","type":"uint256","internalType":"uint256"},{"name":"receiver","type":"address","internalType":"address"}],"outputs":[{"name":"shares","type":"uint256","internalType":"uint256"}],"stateMutability":"nonpayable"},{"type":"function","name":"maxDeposit","inputs":[{"name":"","type":"address","internalType":"address"}],"outputs":[{"name":"","type":"uint256","internalType":"uint256"}],"stateMutability":"view"},{"type":"function","name":"maxMint","inputs":[{"name":"","type":"address","internalType":"address"}],"outputs":[{"name":"","type":"uint256","internalType":"uint256"}],"stateMutability":"view"},{"type":"function","name":"maxRedeem","inputs":[{"name":"owner","type":"address","internalType":"address"}],"outputs":[{"name":"","type":"uint256","internalType":"uint256"}],"stateMutability":"view"},{"type":"function","name":"maxWithdraw","inputs":[{"name":"owner","type":"address","internalType":"address"}],"outputs":[{"name":"","type":"uint256","internalType":"uint256"}],"stateMutability":"view"},{"type":"function","name":"mint","inputs":[{"name":"account_","type":"address","internalType":"address"},{"name":"amount_","type":"uint256","internalType":"uint256"}],"outputs":[],"stateMutability":"nonpayable"},{"type":"function","name":"mint","inputs":[{"name":"shares","type":"uint256","internalType":"uint256"},{"name":"receiver","type":"address","internalType":"address"}],"outputs":[{"name":"assets","type":"uint256","internalType":"uint256"}],"stateMutability":"nonpayable"},{"type":"function","name":"name","inputs":[],"outputs":[{"name":"","type":"string","internalType":"string"}],"stateMutability":"view"},{"type":"function","name":"nonces","inputs":[{"name":"","type":"address","internalType":"address"}],"outputs":[{"name":"","type":"uint256","internalType":"uint256"}],"stateMutability":"view"},{"type":"function","name":"permit","inputs":[{"name":"owner","type":"address","internalType":"address"},{"name":"spender","type":"address","internalType":"address"},{"name":"value","type":"uint256","internalType":"uint256"},{"name":"deadline","type":"uint256","internalType":"uint256"},{"name":"v","type":"uint8","internalType":"uint8"},{"name":"r","type":"bytes32","internalType":"bytes32"},{"name":"s","type":"bytes32","internalType":"bytes32"}],"outputs":[],"stateMutability":"nonpayable"},{"type":"function","name":"previewDeposit","inputs":[{"name":"assets","type":"uint256","internalType":"uint256"}],"outputs":[{"name":"","type":"uint256","internalType":"uint256"}],"stateMutability":"view"},{"type":"function","name":"previewMint","inputs":[{"name":"shares","type":"uint256","internalType":"uint256"}],"outputs":[{"name":"","type":"uint256","internalType":"uint256"}],"stateMutability":"view"},{"type":"function","name":"previewRedeem","inputs":[{"name":"shares","type":"uint256","internalType":"uint256"}],"outputs":[{"name":"","type":"uint256","internalType":"uint256"}],"stateMutability":"view"},{"type":"function","name":"previewWithdraw","inputs":[{"name":"assets","type":"uint256","internalType":"uint256"}],"outputs":[{"name":"","type":"uint256","internalType":"uint256"}],"stateMutability":"view"},{"type":"function","name":"rebase","inputs":[],"outputs":[],"stateMutability":"nonpayable"},{"type":"function","name":"redeem","inputs":[{"name":"amountIn_","type":"uint256","internalType":"uint256"},{"name":"owner_","type":"address","internalType":"address"},{"name":"receiver_","type":"address","internalType":"address"},{"name":"tokenOut_","type":"address","internalType":"address"}],"outputs":[{"name":"","type":"uint256","internalType":"uint256"}],"stateMutability":"nonpayable"},{"type":"function","name":"redeem","inputs":[{"name":"shares","type":"uint256","internalType":"uint256"},{"name":"receiver","type":"address","internalType":"address"},{"name":"owner","type":"address","internalType":"address"}],"outputs":[{"name":"assets","type":"uint256","internalType":"uint256"}],"stateMutability":"nonpayable"},{"type":"function","name":"setInitialRate","inputs":[],"outputs":[],"stateMutability":"nonpayable"},{"type":"function","name":"symbol","inputs":[],"outputs":[{"name":"","type":"string","internalType":"string"}],"stateMutability":"view"},{"type":"function","name":"totalAssets","inputs":[],"outputs":[{"name":"","type":"uint256","internalType":"uint256"}],"stateMutability":"view"},{"type":"function","name":"totalSupply","inputs":[],"outputs":[{"name":"","type":"uint256","internalType":"uint256"}],"stateMutability":"view"},{"type":"function","name":"transfer","inputs":[{"name":"to","type":"address","internalType":"address"},{"name":"amount","type":"uint256","internalType":"uint256"}],"outputs":[{"name":"","type":"bool","internalType":"bool"}],"stateMutability":"nonpayable"},{"type":"function","name":"transferFrom","inputs":[{"name":"from","type":"address","internalType":"address"},{"name":"to","type":"address","internalType":"address"},{"name":"amount","type":"uint256","internalType":"uint256"}],"outputs":[{"name":"","type":"bool","internalType":"bool"}],"stateMutability":"nonpayable"},{"type":"function","name":"withdraw","inputs":[{"name":"assets","type":"uint256","internalType":"uint256"},{"name":"receiver","type":"address","internalType":"address"},{"name":"owner","type":"address","internalType":"address"}],"outputs":[{"name":"shares","type":"uint256","internalType":"uint256"}],"stateMutability":"nonpayable"},{"type":"event","name":"Approval","inputs":[{"name":"owner","type":"address","indexed":true,"internalType":"address"},{"name":"spender","type":"address","indexed":true,"internalType":"address"},{"name":"amount","type":"uint256","indexed":false,"internalType":"uint256"}],"anonymous":false},{"type":"event","name":"Deposit","inputs":[{"name":"caller","type":"address","indexed":true,"internalType":"address"},{"name":"owner","type":"address","indexed":true,"internalType":"address"},{"name":"assets","type":"uint256","indexed":false,"internalType":"uint256"},{"name":"shares","type":"uint256","indexed":false,"internalType":"uint256"}],"anonymous":false},{"type":"event","name":"Rebase","inputs":[{"name":"newScalingFactor","type":"uint256","indexed":true,"internalType":"uint256"},{"name":"rebaseTime","type":"uint256","indexed":true,"internalType":"uint256"}],"anonymous":false},{"type":"event","name":"Transfer","inputs":[{"name":"from","type":"address","indexed":true,"internalType":"address"},{"name":"to","type":"address","indexed":true,"internalType":"address"},{"name":"amount","type":"uint256","indexed":false,"internalType":"uint256"}],"anonymous":false},{"type":"event","name":"Withdraw","inputs":[{"name":"caller","type":"address","indexed":true,"internalType":"address"},{"name":"receiver","type":"address","indexed":true,"internalType":"address"},{"name":"owner","type":"address","indexed":true,"internalType":"address"},{"name":"assets","type":"uint256","indexed":false,"internalType":"uint256"},{"name":"shares","type":"uint256","indexed":false,"internalType":"uint256"}],"anonymous":false},{"type":"error","name":"OZError03","inputs":[]},{"type":"error","name":"OZError04","inputs":[]}],"bytecode":{"object":"0x610100604052670de0b6b3a764000060075562015180600955348015610023575f80fd5b50604051612dc6380380612dc6833981016040819052610042916102cc565b8084848181846001600160a01b031663313ce5676040518163ffffffff1660e01b8152600401602060405180830381865afa158015610083573d5f803e3d5ffd5b505050506040513d601f19601f820116820180604052508101906100a79190610351565b5f6100b284826103fc565b5060016100bf83826103fc565b5060ff81166080524660a0526100d3610167565b60c0525050506001600160a01b0392831660e0525050821661013b5760405162461bcd60e51b815260206004820152601860248201527f6f7a55534443746f6b656e3a206f7a5f206973207a65726f0000000000000000604482015260640160405180910390fd5b50600680546001600160a01b0319166001600160a01b0392909216919091179055505042600855610527565b5f7f8b73c3c69bb8fe3d512ecc4cf759cc79239f7b179b0ffacaa9a75d522b39400f5f60405161019791906104b6565b6040805191829003822060208301939093528101919091527fc89efdaa54c0f20c7adf612882df0950f5a951637e0307cdcb4c672f298b8bc660608201524660808201523060a082015260c00160405160208183030381529060405280519060200120905090565b634e487b7160e01b5f52604160045260245ffd5b5f82601f830112610222575f80fd5b81516001600160401b0381111561023b5761023b6101ff565b604051601f8201601f19908116603f011681016001600160401b0381118282101715610269576102696101ff565b604052818152838201602001851015610280575f80fd5b5f5b8281101561029e57602081860181015183830182015201610282565b505f918101602001919091529392505050565b80516001600160a01b03811681146102c7575f80fd5b919050565b5f805f80608085870312156102df575f80fd5b84516001600160401b038111156102f4575f80fd5b61030087828801610213565b602087015190955090506001600160401b0381111561031d575f80fd5b61032987828801610213565b935050610338604086016102b1565b9150610346606086016102b1565b905092959194509250565b5f60208284031215610361575f80fd5b815160ff81168114610371575f80fd5b9392505050565b600181811c9082168061038c57607f821691505b6020821081036103aa57634e487b7160e01b5f52602260045260245ffd5b50919050565b601f8211156103f757805f5260205f20601f840160051c810160208510156103d55750805b601f840160051c820191505b818110156103f4575f81556001016103e1565b50505b505050565b81516001600160401b03811115610415576104156101ff565b610429816104238454610378565b846103b0565b6020601f82116001811461045b575f83156104445750848201515b5f19600385901b1c1916600184901b1784556103f4565b5f84815260208120601f198516915b8281101561048a578785015182556020948501946001909201910161046a565b50848210156104a757868401515f19600387901b60f8161c191681555b50505050600190811b01905550565b5f8083546104c381610378565b6001821680156104da57600181146104ef5761051c565b60ff198316865281151582028601935061051c565b865f5260205f205f5b83811015610514578154888201526001909101906020016104f8565b505081860193505b509195945050505050565b60805160a05160c05160e05161284961057d5f395f818161030d015281816104ea01528181610cae01528181610d7e015281816110b001526111ed01525f610bea01525f610bba01525f6102cc01526128495ff3fe608060405234801561000f575f80fd5b50600436106101f2575f3560e01c80636e553f6511610114578063b460af94116100a9578063ce96cb7711610079578063ce96cb7714610448578063d505accf1461045b578063d905777e1461046e578063dd62ed3e14610496578063ef8b30f7146104c0575f80fd5b8063b460af941461040f578063ba08765214610422578063c63d75b614610347578063c6e6f59214610435575f80fd5b806395d89b41116100e457806395d89b41146103d9578063a9059cbb146103e1578063af14052c146103f4578063b3d7f6b9146103fc575f80fd5b80636e553f651461038157806370a08231146103945780637ecebe00146103a757806394bf804d146103c6575f80fd5b806323b872dd1161018a57806338d52e0f1161015a57806338d52e0f14610308578063402d267d1461034757806340c10f191461035b5780634cdad5061461036e575f80fd5b806323b872dd1461029557806327e235e3146102a8578063313ce567146102c75780633644e51514610300575f80fd5b80630a2431bc116101c55780630a2431bc1461025c5780630a28a4771461026657806318160ddd146102795780631a9c56fc14610282575f80fd5b806301e1d114146101f657806306fdde031461021157806307a2d13a14610226578063095ea7b314610239575b5f80fd5b6101fe6104d3565b6040519081526020015b60405180910390f35b610219610560565b6040516102089190612180565b6101fe610234366004612192565b6105eb565b61024c6102473660046121bd565b610617565b6040519015158152602001610208565b610264610683565b005b6101fe610274366004612192565b6106fc565b6101fe60025481565b6101fe6102903660046121e7565b61071b565b61024c6102a3366004612237565b610add565b6101fe6102b6366004612275565b60036020525f908152604090205481565b6102ee7f000000000000000000000000000000000000000000000000000000000000000081565b60405160ff9091168152602001610208565b6101fe610bb7565b61032f7f000000000000000000000000000000000000000000000000000000000000000081565b6040516001600160a01b039091168152602001610208565b6101fe610355366004612275565b505f1990565b6102646103693660046121bd565b610c0c565b6101fe61037c366004612192565b610c4e565b6101fe61038f366004612290565b610c58565b6101fe6103a2366004612275565b610d2c565b6101fe6103b5366004612275565b60056020525f908152604090205481565b6101fe6103d4366004612290565b610d65565b610219610df3565b61024c6103ef3660046121bd565b610e00565b610264610e63565b6101fe61040a366004612192565b610fb9565b6101fe61041d3660046122be565b610fd7565b6101fe6104303660046122be565b6110d7565b6101fe610443366004612192565b611214565b6101fe610456366004612275565b611233565b6102646104693660046122fd565b611254565b6101fe61047c366004612275565b6001600160a01b03165f9081526003602052604090205490565b6101fe6104a436600461236e565b600460209081525f928352604080842090915290825290205481565b6101fe6104ce366004612192565b611492565b6040516370a0823160e01b81523060048201525f907f00000000000000000000000000000000000000000000000000000000000000006001600160a01b0316906370a0823190602401602060405180830381865afa158015610537573d5f803e3d5ffd5b505050506040513d601f19601f8201168201806040525081019061055b919061239a565b905090565b5f805461056c906123b1565b80601f0160208091040260200160405190810160405280929190818152602001828054610598906123b1565b80156105e35780601f106105ba576101008083540402835291602001916105e3565b820191905f5260205f20905b8154815290600101906020018083116105c657829003601f168201915b505050505081565b6002545f90801561060e576106096106016104d3565b84908361149c565b610610565b825b9392505050565b335f8181526004602090815260408083206001600160a01b038716808552925280832085905551919290917f8c5be1e5ebec7d5bd14f71427d1e84f3dd0314c0f7b2291e5b200ac8c7c3b925906106719086815260200190565b60405180910390a35060015b92915050565b60065f9054906101000a90046001600160a01b03166001600160a01b031663bbc8af0a6040518163ffffffff1660e01b8152600401602060405180830381865afa1580156106d3573d5f803e3d5ffd5b505050506040513d601f19601f820116820180604052508101906106f7919061239a565b600a55565b6002545f90801561060e57610609816107136104d3565b8591906114b7565b5f61073360405180602001604052805f8152506114da565b60075473d1d7d99764f8a52aff007b7831cc02748b2013b59073a0b86991c6218b36c1d19d4a2e9eb0ce3606eb4890736c9f097e044506712b58eac670c9a5fd4bccef13905f9061078c8a670de0b6b3a76400006123fd565b6107969190612428565b90506107a28882611520565b600654604051632fe4a15f60e21b81526001600160a01b038a811660048301525f92169063bf92857c9060240160e060405180830381865afa1580156107ea573d5f803e3d5ffd5b505050506040513d601f19601f8201168201806040525081019061080e91906124a9565b519050600f5f6108276001600160a01b03881683611587565b9050856001600160a01b0316896001600160a01b0316146108485780610857565b61085764e8d4a5100082612428565b90505f61086a8d8364e8d4a5100061149c565b90506108a0604051806040016040528060138152602001722d2d2d20696e2072656465656d2829202d2d2d60681b8152506114da565b6108d560405180604001604052806013815260200172030b6b7bab73a24b710169037bd2aa9a2219d1606d1b8152508e6115d1565b610900604051806040016040528060098152602001680383a283934b1b29d160bd1b815250836115d1565b60408051808201909152600f81526e033b2ba283a2a37a9bca930ba329d1608d1b60208201526109429061093d6001600160a01b038b168661161a565b6115d1565b6109706040518060400160405280600c81526020016b030b6b7bab73a24b7282a1d160a51b815250826115d1565b60408051808201825260118152700383a103130b610169034b73a20b1b19d1607d1b602082015290516370a0823160e01b81526001600160a01b038681166004830152610a049291908916906370a0823190602401602060405180830381865afa1580156109e0573d5f803e3d5ffd5b505050506040513d601f19601f8201168201806040525081019061093d919061239a565b600654604080516339aa885b60e21b815290515f926001600160a01b03169163e6aa216c9160048083019260209291908290030181865afa158015610a4b573d5f803e3d5ffd5b505050506040513d601f19601f82011682018060405250810190610a6f919061239a565b9050610aa36040518060400160405280601081526020016f037bd2aa9a221ba37a82a3930ba329d160851b815250826115d1565b60405162461bcd60e51b8152600401610ad4906020808252600490820152636865726560e01b604082015260600190565b60405180910390fd5b6001600160a01b0383165f9081526004602090815260408083203384529091528120545f198114610b3657610b128382612524565b6001600160a01b0386165f9081526004602090815260408083203384529091529020555b6001600160a01b0385165f9081526003602052604081208054859290610b5d908490612524565b90915550506001600160a01b038085165f81815260036020526040908190208054870190555190918716905f805160206127f483398151915290610ba49087815260200190565b60405180910390a3506001949350505050565b5f7f00000000000000000000000000000000000000000000000000000000000000004614610be75761055b611653565b507f000000000000000000000000000000000000000000000000000000000000000090565b5f610c178284610c58565b9050610c496040518060400160405280600e81526020016d039b430b932b99015151515151d160951b815250826115d1565b505050565b5f61067d826105eb565b5f610c6283611492565b9050805f03610ca15760405162461bcd60e51b815260206004820152600b60248201526a5a45524f5f53484152455360a81b6044820152606401610ad4565b610cd66001600160a01b037f0000000000000000000000000000000000000000000000000000000000000000163330866116eb565b610ce08282611783565b60408051848152602081018390526001600160a01b0384169133917fdcbc1c05240f31ff3ad067ef1ee35ce4997762752e3a095284754544f4c709d791015b60405180910390a361067d565b6001600160a01b0381165f90815260036020526040812054670de0b6b3a764000060075482610d5b91906123fd565b6106109190612428565b5f610d6f83610fb9565b9050610da66001600160a01b037f0000000000000000000000000000000000000000000000000000000000000000163330846116eb565b610db08284611783565b60408051828152602081018590526001600160a01b0384169133917fdcbc1c05240f31ff3ad067ef1ee35ce4997762752e3a095284754544f4c709d79101610d1f565b6001805461056c906123b1565b335f90815260036020526040812080548391908390610e20908490612524565b90915550506001600160a01b0383165f81815260036020526040908190208054850190555133905f805160206127f4833981519152906106719086815260200190565b600954600854610e739190612537565b421015610e93576040516361ceb1d360e01b815260040160405180910390fd5b60065460408051635de4578560e11b815290515f926001600160a01b03169163bbc8af0a9160048083019260209291908290030181865afa158015610eda573d5f803e3d5ffd5b505050506040513d601f19601f82011682018060405250810190610efe919061239a565b9050600a54811015610f2357604051637a094ad360e01b815260040160405180910390fd5b600a545f90610f328184612524565b610f4490670de0b6b3a76400006123fd565b610f4e9190612428565b9050670de0b6b3a7640000610f638282612537565b600754610f7091906123fd565b610f7a9190612428565b6007819055600a8390554260088190556040519091907f11c6bf55864ff83827df712625d7a80e5583eef0264921025e7cd22003a21511905f90a35050565b6002545f90801561060e57610609610fcf6104d3565b8490836114b7565b5f610fe1846106fc565b9050336001600160a01b0383161461104e576001600160a01b0382165f9081526004602090815260408083203384529091529020545f19811461104c576110288282612524565b6001600160a01b0384165f9081526004602090815260408083203384529091529020555b505b6110588282611520565b60408051858152602081018390526001600160a01b03808516929086169133917ffbde797d201c681b91056529119e0b02407c7bb96a4a2c75c01fc9667232c8db910160405180910390a46106106001600160a01b037f00000000000000000000000000000000000000000000000000000000000000001684866117d2565b5f336001600160a01b03831614611143576001600160a01b0382165f9081526004602090815260408083203384529091529020545f1981146111415761111d8582612524565b6001600160a01b0384165f9081526004602090815260408083203384529091529020555b505b61114c84610c4e565b9050805f0361118b5760405162461bcd60e51b815260206004820152600b60248201526a5a45524f5f41535345545360a81b6044820152606401610ad4565b6111958285611520565b60408051828152602081018690526001600160a01b03808516929086169133917ffbde797d201c681b91056529119e0b02407c7bb96a4a2c75c01fc9667232c8db910160405180910390a46106106001600160a01b037f00000000000000000000000000000000000000000000000000000000000000001684836117d2565b6002545f90801561060e576106098161122b6104d3565b85919061149c565b6001600160a01b0381165f9081526003602052604081205461067d906105eb565b428410156112a45760405162461bcd60e51b815260206004820152601760248201527f5045524d49545f444541444c494e455f455850495245440000000000000000006044820152606401610ad4565b5f60016112af610bb7565b6001600160a01b038a81165f8181526005602090815260409182902080546001810190915582517f6e71edae12b1b97f4d1f60370fef10105fa2faae0126114a169c64845d6126c98184015280840194909452938d166060840152608083018c905260a083019390935260c08083018b90528151808403909101815260e08301909152805192019190912061190160f01b6101008301526101028201929092526101228101919091526101420160408051601f1981840301815282825280516020918201205f84529083018083525260ff871690820152606081018590526080810184905260a0016020604051602081039080840390855afa1580156113b7573d5f803e3d5ffd5b5050604051601f1901519150506001600160a01b038116158015906113ed5750876001600160a01b0316816001600160a01b0316145b61142a5760405162461bcd60e51b815260206004820152600e60248201526d24a72b20a624a22fa9a4a3a722a960911b6044820152606401610ad4565b6001600160a01b039081165f9081526004602090815260408083208a8516808552908352928190208990555188815291928a16917f8c5be1e5ebec7d5bd14f71427d1e84f3dd0314c0f7b2291e5b200ac8c7c3b925910160405180910390a350505050505050565b5f61067d82611214565b5f825f1904841183021582026114b0575f80fd5b5091020490565b5f825f1904841183021582026114cb575f80fd5b50910281810615159190040190565b61151d816040516024016114ee9190612180565b60408051601f198184030181529190526020810180516001600160e01b031663104c13eb60e21b179052611855565b50565b6001600160a01b0382165f9081526003602052604081208054839290611547908490612524565b90915550506002805482900390556040518181525f906001600160a01b038416905f805160206127f4833981519152906020015b60405180910390a35050565b5f805f6115938561185e565b915091508082106115b1576115a88585611a81565b9250505061067d565b80826115bd8787611a81565b6115c791906123fd565b6115a89190612428565b61161682826040516024016115e792919061254a565b60408051601f198184030181529190526020810180516001600160e01b03166309710a9d60e41b179052611855565b5050565b5f805f6116268561185e565b91509150808210611645576115a88261163f8787611a81565b90611b49565b6115a88161163f8787611a81565b5f7f8b73c3c69bb8fe3d512ecc4cf759cc79239f7b179b0ffacaa9a75d522b39400f5f604051611683919061256b565b6040805191829003822060208301939093528101919091527fc89efdaa54c0f20c7adf612882df0950f5a951637e0307cdcb4c672f298b8bc660608201524660808201523060a082015260c00160405160208183030381529060405280519060200120905090565b5f6040516323b872dd60e01b81526001600160a01b03851660048201526001600160a01b038416602482015282604482015260205f6064835f8a5af13d15601f3d1160015f51141617169150508061177c5760405162461bcd60e51b81526020600482015260146024820152731514905394d1915497d19493d357d1905253115160621b6044820152606401610ad4565b5050505050565b8060025f8282546117949190612537565b90915550506001600160a01b0382165f818152600360209081526040808320805486019055518481525f805160206127f4833981519152910161157b565b5f60405163a9059cbb60e01b81526001600160a01b038416600482015282602482015260205f6044835f895af13d15601f3d1160015f51141617169150508061184f5760405162461bcd60e51b815260206004820152600f60248201526e1514905394d1915497d19052531151608a1b6044820152606401610ad4565b50505050565b61151d81611b77565b5f805f80846001600160a01b0316632c8ce6bc6040518163ffffffff1660e01b8152600401606060405180830381865afa15801561189e573d5f803e3d5ffd5b505050506040513d601f19601f820116820180604052508101906118c29190612607565b9250509150816001600160a01b0316633ba0b9a96040518163ffffffff1660e01b8152600401602060405180830381865afa158015611903573d5f803e3d5ffd5b505050506040513d601f19601f82011682018060405250810190611927919061239a565b93505f816001600160a01b031663d2a3584e6040518163ffffffff1660e01b8152600401602060405180830381865afa158015611966573d5f803e3d5ffd5b505050506040513d601f19601f8201168201806040525081019061198a919061239a565b9050816001600160a01b031663516399df6040518163ffffffff1660e01b8152600401602060405180830381865afa1580156119c8573d5f803e3d5ffd5b505050506040513d601f19601f820116820180604052508101906119ec9190612646565b8015611a5f575043826001600160a01b03166360e0a9e16040518163ffffffff1660e01b8152600401602060405180830381865afa158015611a30573d5f803e3d5ffd5b505050506040513d601f19601f82011682018060405250810190611a549190612665565b6001600160801b0316145b15611a6c57809350611a79565b611a768582611b97565b93505b505050915091565b5f80836001600160a01b031663e184c9be6040518163ffffffff1660e01b8152600401602060405180830381865afa158015611abf573d5f803e3d5ffd5b505050506040513d601f19601f82011682018060405250810190611ae3919061239a565b9050428111611afd57670de0b6b3a764000091505061067d565b5f611b088585611ba5565b90505f611b154284612524565b90505f611b2a611b258484611cc4565b611d04565b9050611b3e670de0b6b3a764000082611b49565b94505050505061067d565b5f80611b5d670de0b6b3a7640000856123fd565b9050828181611b6e57611b6e612414565b04949350505050565b80516a636f6e736f6c652e6c6f67602083015f808483855afa5050505050565b5f81831161060e5781610610565b6040805160028082526060820183525f928392919060208301908036833701905050905082815f81518110611bdc57611bdc61268b565b63ffffffff9092166020928302919091019091015260405163883bdbfd60e01b81525f906001600160a01b0386169063883bdbfd90611c1f90859060040161269f565b5f60405180830381865afa158015611c39573d5f803e3d5ffd5b505050506040513d5f823e601f3d908101601f19168201604052611c6091908101906126e7565b90508363ffffffff16815f81518110611c7b57611c7b61268b565b602002602001015182600181518110611c9657611c9661268b565b6020026020010151611ca891906127a6565b611cb291906127c5565b6001600160d81b031695945050505050565b5f80611cd56201518061016d6123fd565b611cdf84866123fd565b611ce99190612428565b9050611cfc611cf782611d15565b611d29565b949350505050565b5f80821215611d11575f80fd5b5090565b5f6001600160ff1b03821115611d11575f80fd5b5f680238fd42c5cf03ffff198212158015611d4d575068070c1cc73b00c800008213155b611d8c5760405162461bcd60e51b815260206004820152601060248201526f125b9d985b1a5908195e1c1bdb995b9d60821b6044820152606401610ad4565b5f821215611dc357611d9f825f03611d29565b6ec097ce7bc90715b34b9f100000000081611dbc57611dbc612414565b0592915050565b5f6806f05b59d3b20000008312611e0257506806f05b59d3b1ffffff1990910190770195e54c5dd42177f53a27172fa9ec630262827000000000611e38565b6803782dace9d90000008312611e3457506803782dace9d8ffffff19909101906b1425982cf597cd205cef7380611e38565b5060015b6064929092029168056bc75e2d6310000068ad78ebc5ac620000008412611e885768ad78ebc5ac61ffffff199093019268056bc75e2d631000006e01855144814a7ff805980ff008400082020590505b6856bc75e2d6310000008412611ec4576856bc75e2d630ffffff199093019268056bc75e2d631000006b02df0ab5a80a22c61ab5a70082020590505b682b5e3af16b188000008412611efe57682b5e3af16b187fffff199093019268056bc75e2d63100000693f1fce3da636ea5cf85082020590505b6815af1d78b58c4000008412611f38576815af1d78b58c3fffff199093019268056bc75e2d63100000690127fa27722cc06cc5e282020590505b680ad78ebc5ac62000008412611f7157680ad78ebc5ac61fffff199093019268056bc75e2d6310000068280e60114edb805d0382020590505b68056bc75e2d631000008412611faa5768056bc75e2d630fffff199093019268056bc75e2d63100000680ebc5fb4174612111082020590505b6802b5e3af16b18800008412611fe3576802b5e3af16b187ffff199093019268056bc75e2d631000006808f00f760a4b2db55d82020590505b68015af1d78b58c40000841261201c5768015af1d78b58c3ffff199093019268056bc75e2d631000006806f5f177578893793782020590505b68056bc75e2d631000008481019085906002908280020505918201919050600368056bc75e2d631000008783020505918201919050600468056bc75e2d631000008783020505918201919050600568056bc75e2d631000008783020505918201919050600668056bc75e2d631000008783020505918201919050600768056bc75e2d631000008783020505918201919050600868056bc75e2d631000008783020505918201919050600968056bc75e2d631000008783020505918201919050600a68056bc75e2d631000008783020505918201919050600b68056bc75e2d631000008783020505918201919050600c68056bc75e2d631000008783020505918201919050606468056bc75e2d63100000848402058502059695505050505050565b5f81518084525f5b8181101561216157602081850181015186830182015201612145565b505f602082860101526020601f19601f83011685010191505092915050565b602081525f610610602083018461213d565b5f602082840312156121a2575f80fd5b5035919050565b6001600160a01b038116811461151d575f80fd5b5f80604083850312156121ce575f80fd5b82356121d9816121a9565b946020939093013593505050565b5f805f80608085870312156121fa575f80fd5b84359350602085013561220c816121a9565b9250604085013561221c816121a9565b9150606085013561222c816121a9565b939692955090935050565b5f805f60608486031215612249575f80fd5b8335612254816121a9565b92506020840135612264816121a9565b929592945050506040919091013590565b5f60208284031215612285575f80fd5b8135610610816121a9565b5f80604083850312156122a1575f80fd5b8235915060208301356122b3816121a9565b809150509250929050565b5f805f606084860312156122d0575f80fd5b8335925060208401356122e2816121a9565b915060408401356122f2816121a9565b809150509250925092565b5f805f805f805f60e0888a031215612313575f80fd5b873561231e816121a9565b9650602088013561232e816121a9565b95506040880135945060608801359350608088013560ff81168114612351575f80fd5b9699959850939692959460a0840135945060c09093013592915050565b5f806040838503121561237f575f80fd5b823561238a816121a9565b915060208301356122b3816121a9565b5f602082840312156123aa575f80fd5b5051919050565b600181811c908216806123c557607f821691505b6020821081036123e357634e487b7160e01b5f52602260045260245ffd5b50919050565b634e487b7160e01b5f52601160045260245ffd5b808202811582820484141761067d5761067d6123e9565b634e487b7160e01b5f52601260045260245ffd5b5f8261243657612436612414565b500490565b634e487b7160e01b5f52604160045260245ffd5b60405160e0810167ffffffffffffffff811182821017156124725761247261243b565b60405290565b604051601f8201601f1916810167ffffffffffffffff811182821017156124a1576124a161243b565b604052919050565b5f60e08284031280156124ba575f80fd5b506124c361244f565b82516124ce816121a9565b81526020838101519082015260408084015190820152606080840151908201526080808401519082015260a083015161ffff8116811461250c575f80fd5b60a082015260c0928301519281019290925250919050565b8181038181111561067d5761067d6123e9565b8082018082111561067d5761067d6123e9565b604081525f61255c604083018561213d565b90508260208301529392505050565b5f8083545f8160011c9050600182168061258657607f821691505b6020821081036125a457634e487b7160e01b5f52602260045260245ffd5b8080156125b857600181146125cd576125fb565b60ff19841687528215158302870194506125fb565b5f888152602090205f5b848110156125f3578154898201526001909101906020016125d7565b505082870194505b50929695505050505050565b5f805f60608486031215612619575f80fd5b8351612624816121a9565b6020850151909350612635816121a9565b60408501519092506122f2816121a9565b5f60208284031215612656575f80fd5b81518015158114610610575f80fd5b5f60208284031215612675575f80fd5b81516001600160801b0381168114610610575f80fd5b634e487b7160e01b5f52603260045260245ffd5b602080825282518282018190525f918401906040840190835b818110156126dc57835163ffffffff168352602093840193909201916001016126b8565b509095945050505050565b5f602082840312156126f7575f80fd5b815167ffffffffffffffff81111561270d575f80fd5b8201601f8101841361271d575f80fd5b805167ffffffffffffffff8111156127375761273761243b565b8060051b61274760208201612478565b91825260208184018101929081019087841115612762575f80fd5b6020850194505b8385101561279b57845192506001600160d81b0383168314612789575f80fd5b82825260209485019490910190612769565b979650505050505050565b6001600160d81b03828116828216039081111561067d5761067d6123e9565b5f6001600160d81b038316806127dd576127dd612414565b6001600160d81b0392909216919091049291505056feddf252ad1be2c89b69c2b068fc378daa952ba7f163c4a11628f55a4df523b3efa264697066735822122097b6ff4f76799e82fe05aeb6b7952c03a9e2eb2bc8127568d02dcbb2f66387fd64736f6c634300081a0033","linkReferences":{}},"methodIdentifiers":{"DOMAIN_SEPARATOR()":"3644e515","allowance(address,address)":"dd62ed3e","approve(address,uint256)":"095ea7b3","asset()":"38d52e0f","balanceOf(address)":"70a08231","balances(address)":"27e235e3","convertToAssets(uint256)":"07a2d13a","convertToShares(uint256)":"c6e6f592","decimals()":"313ce567","deposit(uint256,address)":"6e553f65","maxDeposit(address)":"402d267d","maxMint(address)":"c63d75b6","maxRedeem(address)":"d905777e","maxWithdraw(address)":"ce96cb77","mint(address,uint256)":"40c10f19","mint(uint256,address)":"94bf804d","name()":"06fdde03","nonces(address)":"7ecebe00","permit(address,address,uint256,uint256,uint8,bytes32,bytes32)":"d505accf","previewDeposit(uint256)":"ef8b30f7","previewMint(uint256)":"b3d7f6b9","previewRedeem(uint256)":"4cdad506","previewWithdraw(uint256)":"0a28a477","rebase()":"af14052c","redeem(uint256,address,address)":"ba087652","redeem(uint256,address,address,address)":"1a9c56fc","setInitialRate()":"0a2431bc","symbol()":"95d89b41","totalAssets()":"01e1d114","totalSupply()":"18160ddd","transfer(address,uint256)":"a9059cbb","transferFrom(address,address,uint256)":"23b872dd","withdraw(uint256,address,address)":"b460af94"},"id":32}