{"abi":[{"type":"constructor","inputs":[{"name":"name_","type":"string","internalType":"string"},{"name":"symbol_","type":"string","internalType":"string"},{"name":"oz_","type":"address","internalType":"address"},{"name":"underlying_","type":"address","internalType":"address"}],"stateMutability":"nonpayable"},{"type":"function","name":"DOMAIN_SEPARATOR","inputs":[],"outputs":[{"name":"","type":"bytes32","internalType":"bytes32"}],"stateMutability":"view"},{"type":"function","name":"allowance","inputs":[{"name":"","type":"address","internalType":"address"},{"name":"","type":"address","internalType":"address"}],"outputs":[{"name":"","type":"uint256","internalType":"uint256"}],"stateMutability":"view"},{"type":"function","name":"approve","inputs":[{"name":"spender","type":"address","internalType":"address"},{"name":"amount","type":"uint256","internalType":"uint256"}],"outputs":[{"name":"","type":"bool","internalType":"bool"}],"stateMutability":"nonpayable"},{"type":"function","name":"asset","inputs":[],"outputs":[{"name":"","type":"address","internalType":"contract ERC20"}],"stateMutability":"view"},{"type":"function","name":"balanceOf","inputs":[{"name":"account","type":"address","internalType":"address"}],"outputs":[{"name":"","type":"uint256","internalType":"uint256"}],"stateMutability":"view"},{"type":"function","name":"balances","inputs":[{"name":"","type":"address","internalType":"address"}],"outputs":[{"name":"","type":"uint256","internalType":"uint256"}],"stateMutability":"view"},{"type":"function","name":"convertToAssets","inputs":[{"name":"shares","type":"uint256","internalType":"uint256"}],"outputs":[{"name":"","type":"uint256","internalType":"uint256"}],"stateMutability":"view"},{"type":"function","name":"convertToShares","inputs":[{"name":"assets","type":"uint256","internalType":"uint256"}],"outputs":[{"name":"","type":"uint256","internalType":"uint256"}],"stateMutability":"view"},{"type":"function","name":"decimals","inputs":[],"outputs":[{"name":"","type":"uint8","internalType":"uint8"}],"stateMutability":"view"},{"type":"function","name":"deposit","inputs":[{"name":"assets","type":"uint256","internalType":"uint256"},{"name":"receiver","type":"address","internalType":"address"}],"outputs":[{"name":"shares","type":"uint256","internalType":"uint256"}],"stateMutability":"nonpayable"},{"type":"function","name":"maxDeposit","inputs":[{"name":"","type":"address","internalType":"address"}],"outputs":[{"name":"","type":"uint256","internalType":"uint256"}],"stateMutability":"view"},{"type":"function","name":"maxMint","inputs":[{"name":"","type":"address","internalType":"address"}],"outputs":[{"name":"","type":"uint256","internalType":"uint256"}],"stateMutability":"view"},{"type":"function","name":"maxRedeem","inputs":[{"name":"owner","type":"address","internalType":"address"}],"outputs":[{"name":"","type":"uint256","internalType":"uint256"}],"stateMutability":"view"},{"type":"function","name":"maxWithdraw","inputs":[{"name":"owner","type":"address","internalType":"address"}],"outputs":[{"name":"","type":"uint256","internalType":"uint256"}],"stateMutability":"view"},{"type":"function","name":"mint","inputs":[{"name":"shares","type":"uint256","internalType":"uint256"},{"name":"receiver","type":"address","internalType":"address"}],"outputs":[{"name":"assets","type":"uint256","internalType":"uint256"}],"stateMutability":"nonpayable"},{"type":"function","name":"name","inputs":[],"outputs":[{"name":"","type":"string","internalType":"string"}],"stateMutability":"view"},{"type":"function","name":"nonces","inputs":[{"name":"","type":"address","internalType":"address"}],"outputs":[{"name":"","type":"uint256","internalType":"uint256"}],"stateMutability":"view"},{"type":"function","name":"permit","inputs":[{"name":"owner","type":"address","internalType":"address"},{"name":"spender","type":"address","internalType":"address"},{"name":"value","type":"uint256","internalType":"uint256"},{"name":"deadline","type":"uint256","internalType":"uint256"},{"name":"v","type":"uint8","internalType":"uint8"},{"name":"r","type":"bytes32","internalType":"bytes32"},{"name":"s","type":"bytes32","internalType":"bytes32"}],"outputs":[],"stateMutability":"nonpayable"},{"type":"function","name":"previewDeposit","inputs":[{"name":"assets","type":"uint256","internalType":"uint256"}],"outputs":[{"name":"","type":"uint256","internalType":"uint256"}],"stateMutability":"view"},{"type":"function","name":"previewMint","inputs":[{"name":"shares","type":"uint256","internalType":"uint256"}],"outputs":[{"name":"","type":"uint256","internalType":"uint256"}],"stateMutability":"view"},{"type":"function","name":"previewRedeem","inputs":[{"name":"shares","type":"uint256","internalType":"uint256"}],"outputs":[{"name":"","type":"uint256","internalType":"uint256"}],"stateMutability":"view"},{"type":"function","name":"previewWithdraw","inputs":[{"name":"assets","type":"uint256","internalType":"uint256"}],"outputs":[{"name":"","type":"uint256","internalType":"uint256"}],"stateMutability":"view"},{"type":"function","name":"rebase","inputs":[],"outputs":[],"stateMutability":"nonpayable"},{"type":"function","name":"redeem","inputs":[{"name":"amountIn_","type":"uint256","internalType":"uint256"},{"name":"owner_","type":"address","internalType":"address"},{"name":"receiver_","type":"address","internalType":"address"},{"name":"tokenOut_","type":"address","internalType":"address"}],"outputs":[{"name":"","type":"uint256","internalType":"uint256"}],"stateMutability":"nonpayable"},{"type":"function","name":"redeem","inputs":[{"name":"shares","type":"uint256","internalType":"uint256"},{"name":"receiver","type":"address","internalType":"address"},{"name":"owner","type":"address","internalType":"address"}],"outputs":[{"name":"assets","type":"uint256","internalType":"uint256"}],"stateMutability":"nonpayable"},{"type":"function","name":"scalingFactor","inputs":[],"outputs":[{"name":"","type":"uint256","internalType":"uint256"}],"stateMutability":"view"},{"type":"function","name":"setInitialRate","inputs":[],"outputs":[],"stateMutability":"nonpayable"},{"type":"function","name":"symbol","inputs":[],"outputs":[{"name":"","type":"string","internalType":"string"}],"stateMutability":"view"},{"type":"function","name":"totalAssets","inputs":[],"outputs":[{"name":"","type":"uint256","internalType":"uint256"}],"stateMutability":"view"},{"type":"function","name":"totalSupply","inputs":[],"outputs":[{"name":"","type":"uint256","internalType":"uint256"}],"stateMutability":"view"},{"type":"function","name":"transfer","inputs":[{"name":"to","type":"address","internalType":"address"},{"name":"amount","type":"uint256","internalType":"uint256"}],"outputs":[{"name":"","type":"bool","internalType":"bool"}],"stateMutability":"nonpayable"},{"type":"function","name":"transferFrom","inputs":[{"name":"from","type":"address","internalType":"address"},{"name":"to","type":"address","internalType":"address"},{"name":"amount","type":"uint256","internalType":"uint256"}],"outputs":[{"name":"","type":"bool","internalType":"bool"}],"stateMutability":"nonpayable"},{"type":"function","name":"withdraw","inputs":[{"name":"assets","type":"uint256","internalType":"uint256"},{"name":"receiver","type":"address","internalType":"address"},{"name":"owner","type":"address","internalType":"address"}],"outputs":[{"name":"shares","type":"uint256","internalType":"uint256"}],"stateMutability":"nonpayable"},{"type":"event","name":"Approval","inputs":[{"name":"owner","type":"address","indexed":true,"internalType":"address"},{"name":"spender","type":"address","indexed":true,"internalType":"address"},{"name":"amount","type":"uint256","indexed":false,"internalType":"uint256"}],"anonymous":false},{"type":"event","name":"Deposit","inputs":[{"name":"caller","type":"address","indexed":true,"internalType":"address"},{"name":"owner","type":"address","indexed":true,"internalType":"address"},{"name":"assets","type":"uint256","indexed":false,"internalType":"uint256"},{"name":"shares","type":"uint256","indexed":false,"internalType":"uint256"}],"anonymous":false},{"type":"event","name":"Rebase","inputs":[{"name":"newScalingFactor","type":"uint256","indexed":true,"internalType":"uint256"},{"name":"rebaseTime","type":"uint256","indexed":true,"internalType":"uint256"}],"anonymous":false},{"type":"event","name":"Transfer","inputs":[{"name":"from","type":"address","indexed":true,"internalType":"address"},{"name":"to","type":"address","indexed":true,"internalType":"address"},{"name":"amount","type":"uint256","indexed":false,"internalType":"uint256"}],"anonymous":false},{"type":"event","name":"Withdraw","inputs":[{"name":"caller","type":"address","indexed":true,"internalType":"address"},{"name":"receiver","type":"address","indexed":true,"internalType":"address"},{"name":"owner","type":"address","indexed":true,"internalType":"address"},{"name":"assets","type":"uint256","indexed":false,"internalType":"uint256"},{"name":"shares","type":"uint256","indexed":false,"internalType":"uint256"}],"anonymous":false},{"type":"error","name":"OZError03","inputs":[]},{"type":"error","name":"OZError04","inputs":[]}],"bytecode":{"object":"0x610100604052670de0b6b3a764000060075562015180600955600c80546001600160a01b031990811673d1d7d99764f8a52aff007b7831cc02748b2013b517909155600d8054821673a0b86991c6218b36c1d19d4a2e9eb0ce3606eb48179055600e8054909116736c9f097e044506712b58eac670c9a5fd4bccef13179055348015610089575f80fd5b50604051611f2b380380611f2b8339810160408190526100a891610332565b8084848181846001600160a01b031663313ce5676040518163ffffffff1660e01b8152600401602060405180830381865afa1580156100e9573d5f803e3d5ffd5b505050506040513d601f19601f8201168201806040525081019061010d91906103b7565b5f6101188482610462565b5060016101258382610462565b5060ff81166080524660a0526101396101cd565b60c0525050506001600160a01b0392831660e052505082166101a15760405162461bcd60e51b815260206004820152601860248201527f6f7a55534443746f6b656e3a206f7a5f206973207a65726f0000000000000000604482015260640160405180910390fd5b50600680546001600160a01b0319166001600160a01b039290921691909117905550504260085561058d565b5f7f8b73c3c69bb8fe3d512ecc4cf759cc79239f7b179b0ffacaa9a75d522b39400f5f6040516101fd919061051c565b6040805191829003822060208301939093528101919091527fc89efdaa54c0f20c7adf612882df0950f5a951637e0307cdcb4c672f298b8bc660608201524660808201523060a082015260c00160405160208183030381529060405280519060200120905090565b634e487b7160e01b5f52604160045260245ffd5b5f82601f830112610288575f80fd5b81516001600160401b038111156102a1576102a1610265565b604051601f8201601f19908116603f011681016001600160401b03811182821017156102cf576102cf610265565b6040528181528382016020018510156102e6575f80fd5b5f5b82811015610304576020818601810151838301820152016102e8565b505f918101602001919091529392505050565b80516001600160a01b038116811461032d575f80fd5b919050565b5f805f8060808587031215610345575f80fd5b84516001600160401b0381111561035a575f80fd5b61036687828801610279565b602087015190955090506001600160401b03811115610383575f80fd5b61038f87828801610279565b93505061039e60408601610317565b91506103ac60608601610317565b905092959194509250565b5f602082840312156103c7575f80fd5b815160ff811681146103d7575f80fd5b9392505050565b600181811c908216806103f257607f821691505b60208210810361041057634e487b7160e01b5f52602260045260245ffd5b50919050565b601f82111561045d57805f5260205f20601f840160051c8101602085101561043b5750805b601f840160051c820191505b8181101561045a575f8155600101610447565b50505b505050565b81516001600160401b0381111561047b5761047b610265565b61048f8161048984546103de565b84610416565b6020601f8211600181146104c1575f83156104aa5750848201515b5f19600385901b1c1916600184901b17845561045a565b5f84815260208120601f198516915b828110156104f057878501518255602094850194600190920191016104d0565b508482101561050d57868401515f19600387901b60f8161c191681555b50505050600190811b01905550565b5f808354610529816103de565b600182168015610540576001811461055557610582565b60ff1983168652811515820286019350610582565b865f5260205f205f5b8381101561057a5781548882015260019091019060200161055e565b505081860193505b509195945050505050565b60805160a05160c05160e0516119566105d55f395f818161030901528181610ac401528181610dff0152610f3c01525f61098b01525f61095601525f6102c801526119565ff3fe608060405234801561000f575f80fd5b50600436106101f2575f3560e01c806370a0823111610114578063ba087652116100a9578063d505accf11610079578063d505accf14610444578063d905777e14610457578063dd62ed3e1461047f578063ed3437f8146104a9578063ef8b30f7146104b2575f80fd5b8063ba0876521461040b578063c63d75b614610343578063c6e6f5921461041e578063ce96cb7714610431575f80fd5b8063a9059cbb116100e4578063a9059cbb146103ca578063af14052c146103dd578063b3d7f6b9146103e5578063b460af94146103f8575f80fd5b806370a082311461037d5780637ecebe001461039057806394bf804d146103af57806395d89b41146103c2575f80fd5b806323b872dd1161018a57806338d52e0f1161015a57806338d52e0f14610304578063402d267d146103435780634cdad506146103575780636e553f651461036a575f80fd5b806323b872dd1461029157806327e235e3146102a4578063313ce567146102c35780633644e515146102fc575f80fd5b80630a2431bc116101c55780630a2431bc146102585780630a28a4771461026257806318160ddd146102755780631a9c56fc1461027e575f80fd5b806301e1d114146101f657806306fdde031461020d57806307a2d13a14610222578063095ea7b314610235575b5f80fd5b600b545b6040519081526020015b60405180910390f35b6102156104c5565b6040516102049190611493565b6101fa6102303660046114de565b610550565b61024861024336600461150c565b61057d565b6040519015158152602001610204565b6102606105e9565b005b6101fa6102703660046114de565b610662565b6101fa60025481565b6101fa61028c366004611536565b610682565b61024861029f366004611586565b610879565b6101fa6102b23660046115c4565b60036020525f908152604090205481565b6102ea7f000000000000000000000000000000000000000000000000000000000000000081565b60405160ff9091168152602001610204565b6101fa610953565b61032b7f000000000000000000000000000000000000000000000000000000000000000081565b6040516001600160a01b039091168152602001610204565b6101fa6103513660046115c4565b505f1990565b6101fa6103653660046114de565b6109ad565b6101fa6103783660046115df565b6109b7565b6101fa61038b3660046115c4565b610a72565b6101fa61039e3660046115c4565b60056020525f908152604090205481565b6101fa6103bd3660046115df565b610aab565b610215610b41565b6102486103d836600461150c565b610b4e565b610260610bb1565b6101fa6103f33660046114de565b610d07565b6101fa61040636600461160d565b610d26565b6101fa61041936600461160d565b610e26565b6101fa61042c3660046114de565b610f63565b6101fa61043f3660046115c4565b610f83565b61026061045236600461164c565b610fa4565b6101fa6104653660046115c4565b6001600160a01b03165f9081526003602052604090205490565b6101fa61048d3660046116bd565b600460209081525f928352604080842090915290825290205481565b6101fa60075481565b6101fa6104c03660046114de565b6111e2565b5f80546104d1906116e9565b80601f01602080910402602001604051908101604052809291908181526020018280546104fd906116e9565b80156105485780601f1061051f57610100808354040283529160200191610548565b820191905f5260205f20905b81548152906001019060200180831161052b57829003601f168201915b505050505081565b6002545f9080156105745761056f610567600b5490565b8490836111ec565b610576565b825b9392505050565b335f8181526004602090815260408083206001600160a01b038716808552925280832085905551919290917f8c5be1e5ebec7d5bd14f71427d1e84f3dd0314c0f7b2291e5b200ac8c7c3b925906105d79086815260200190565b60405180910390a35060015b92915050565b60065f9054906101000a90046001600160a01b03166001600160a01b031663bbc8af0a6040518163ffffffff1660e01b8152600401602060405180830381865afa158015610639573d5f803e3d5ffd5b505050506040513d601f19601f8201168201806040525081019061065d9190611721565b600a55565b6002545f9080156105745761056f8161067a600b5490565b859190611207565b5f806106a3670de0b6b3a7640000600754886112079092919063ffffffff16565b90505f6106c5670de0b6b3a76400006007546106be89610a72565b9190611207565b90505f6106d183610f63565b90505f6106dd83610f63565b600654604051632fe4a15f60e21b81526001600160a01b038b811660048301529293505f929091169063bf92857c9060240160e060405180830381865afa15801561072a573d5f803e3d5ffd5b505050506040513d601f19601f8201168201806040525081019061074e9190611759565b51600e546040516370a0823160e01b81526001600160a01b0380841660048301529293505f92909116906370a0823190602401602060405180830381865afa15801561079c573d5f803e3d5ffd5b505050506040513d601f19601f820116820180604052508101906107c09190611721565b90505f6107ce8583866111ec565b90506107da8b8861122a565b60405163dc38a17960e01b8152600481018290526001600160a01b038a811660248301528b8116604483015284169063dc38a179906064016020604051808303815f875af115801561082e573d5f803e3d5ffd5b505050506040513d601f19601f820116820180604052508101906108529190611721565b5086600b5f8282546108649190611808565b90915550979c9b505050505050505050505050565b6001600160a01b0383165f9081526004602090815260408083203384529091528120545f1981146108d2576108ae8382611808565b6001600160a01b0386165f9081526004602090815260408083203384529091529020555b6001600160a01b0385165f90815260036020526040812080548592906108f9908490611808565b90915550506001600160a01b038085165f81815260036020526040908190208054870190555190918716905f80516020611901833981519152906109409087815260200190565b60405180910390a3506001949350505050565b5f7f0000000000000000000000000000000000000000000000000000000000000000461461098857610983611291565b905090565b507f000000000000000000000000000000000000000000000000000000000000000090565b5f6105e382610550565b5f6109c1836111e2565b9050805f03610a055760405162461bcd60e51b815260206004820152600b60248201526a5a45524f5f53484152455360a81b60448201526064015b60405180910390fd5b82600b5f828254610a16919061181b565b90915550610a2690508282611329565b60408051848152602081018390526001600160a01b0384169133917fdcbc1c05240f31ff3ad067ef1ee35ce4997762752e3a095284754544f4c709d7910160405180910390a392915050565b6001600160a01b0381165f90815260036020526040812054670de0b6b3a764000060075482610aa1919061182e565b6105769190611845565b5f610ab583610d07565b9050610aec6001600160a01b037f000000000000000000000000000000000000000000000000000000000000000016333084611378565b610af68284611329565b60408051828152602081018590526001600160a01b0384169133917fdcbc1c05240f31ff3ad067ef1ee35ce4997762752e3a095284754544f4c709d7910160405180910390a36105e3565b600180546104d1906116e9565b335f90815260036020526040812080548391908390610b6e908490611808565b90915550506001600160a01b0383165f81815260036020526040908190208054850190555133905f80516020611901833981519152906105d79086815260200190565b600954600854610bc1919061181b565b421015610be1576040516361ceb1d360e01b815260040160405180910390fd5b60065460408051635de4578560e11b815290515f926001600160a01b03169163bbc8af0a9160048083019260209291908290030181865afa158015610c28573d5f803e3d5ffd5b505050506040513d601f19601f82011682018060405250810190610c4c9190611721565b9050600a54811015610c7157604051637a094ad360e01b815260040160405180910390fd5b600a545f90610c808184611808565b610c9290670de0b6b3a764000061182e565b610c9c9190611845565b9050670de0b6b3a7640000610cb1828261181b565b600754610cbe919061182e565b610cc89190611845565b6007819055600a8390554260088190556040519091907f11c6bf55864ff83827df712625d7a80e5583eef0264921025e7cd22003a21511905f90a35050565b6002545f9080156105745761056f610d1e600b5490565b849083611207565b5f610d3084610662565b9050336001600160a01b03831614610d9d576001600160a01b0382165f9081526004602090815260408083203384529091529020545f198114610d9b57610d778282611808565b6001600160a01b0384165f9081526004602090815260408083203384529091529020555b505b610da7828261122a565b60408051858152602081018390526001600160a01b03808516929086169133917ffbde797d201c681b91056529119e0b02407c7bb96a4a2c75c01fc9667232c8db910160405180910390a46105766001600160a01b037f0000000000000000000000000000000000000000000000000000000000000000168486611410565b5f336001600160a01b03831614610e92576001600160a01b0382165f9081526004602090815260408083203384529091529020545f198114610e9057610e6c8582611808565b6001600160a01b0384165f9081526004602090815260408083203384529091529020555b505b610e9b846109ad565b9050805f03610eda5760405162461bcd60e51b815260206004820152600b60248201526a5a45524f5f41535345545360a81b60448201526064016109fc565b610ee4828561122a565b60408051828152602081018690526001600160a01b03808516929086169133917ffbde797d201c681b91056529119e0b02407c7bb96a4a2c75c01fc9667232c8db910160405180910390a46105766001600160a01b037f0000000000000000000000000000000000000000000000000000000000000000168483611410565b6002545f9080156105745761056f81610f7b600b5490565b8591906111ec565b6001600160a01b0381165f908152600360205260408120546105e390610550565b42841015610ff45760405162461bcd60e51b815260206004820152601760248201527f5045524d49545f444541444c494e455f4558504952454400000000000000000060448201526064016109fc565b5f6001610fff610953565b6001600160a01b038a81165f8181526005602090815260409182902080546001810190915582517f6e71edae12b1b97f4d1f60370fef10105fa2faae0126114a169c64845d6126c98184015280840194909452938d166060840152608083018c905260a083019390935260c08083018b90528151808403909101815260e08301909152805192019190912061190160f01b6101008301526101028201929092526101228101919091526101420160408051601f1981840301815282825280516020918201205f84529083018083525260ff871690820152606081018590526080810184905260a0016020604051602081039080840390855afa158015611107573d5f803e3d5ffd5b5050604051601f1901519150506001600160a01b0381161580159061113d5750876001600160a01b0316816001600160a01b0316145b61117a5760405162461bcd60e51b815260206004820152600e60248201526d24a72b20a624a22fa9a4a3a722a960911b60448201526064016109fc565b6001600160a01b039081165f9081526004602090815260408083208a8516808552908352928190208990555188815291928a16917f8c5be1e5ebec7d5bd14f71427d1e84f3dd0314c0f7b2291e5b200ac8c7c3b925910160405180910390a350505050505050565b5f6105e382610f63565b5f825f190484118302158202611200575f80fd5b5091020490565b5f825f19048411830215820261121b575f80fd5b50910281810615159190040190565b6001600160a01b0382165f9081526003602052604081208054839290611251908490611808565b90915550506002805482900390556040518181525f906001600160a01b038416905f80516020611901833981519152906020015b60405180910390a35050565b5f7f8b73c3c69bb8fe3d512ecc4cf759cc79239f7b179b0ffacaa9a75d522b39400f5f6040516112c19190611864565b6040805191829003822060208301939093528101919091527fc89efdaa54c0f20c7adf612882df0950f5a951637e0307cdcb4c672f298b8bc660608201524660808201523060a082015260c00160405160208183030381529060405280519060200120905090565b8060025f82825461133a919061181b565b90915550506001600160a01b0382165f818152600360209081526040808320805486019055518481525f805160206119018339815191529101611285565b5f6040516323b872dd60e01b81526001600160a01b03851660048201526001600160a01b038416602482015282604482015260205f6064835f8a5af13d15601f3d1160015f5114161716915050806114095760405162461bcd60e51b81526020600482015260146024820152731514905394d1915497d19493d357d1905253115160621b60448201526064016109fc565b5050505050565b5f60405163a9059cbb60e01b81526001600160a01b038416600482015282602482015260205f6044835f895af13d15601f3d1160015f51141617169150508061148d5760405162461bcd60e51b815260206004820152600f60248201526e1514905394d1915497d19052531151608a1b60448201526064016109fc565b50505050565b602081525f82518060208401525f5b818110156114bf57602081860181015160408684010152016114a2565b505f604082850101526040601f19601f83011684010191505092915050565b5f602082840312156114ee575f80fd5b5035919050565b6001600160a01b0381168114611509575f80fd5b50565b5f806040838503121561151d575f80fd5b8235611528816114f5565b946020939093013593505050565b5f805f8060808587031215611549575f80fd5b84359350602085013561155b816114f5565b9250604085013561156b816114f5565b9150606085013561157b816114f5565b939692955090935050565b5f805f60608486031215611598575f80fd5b83356115a3816114f5565b925060208401356115b3816114f5565b929592945050506040919091013590565b5f602082840312156115d4575f80fd5b8135610576816114f5565b5f80604083850312156115f0575f80fd5b823591506020830135611602816114f5565b809150509250929050565b5f805f6060848603121561161f575f80fd5b833592506020840135611631816114f5565b91506040840135611641816114f5565b809150509250925092565b5f805f805f805f60e0888a031215611662575f80fd5b873561166d816114f5565b9650602088013561167d816114f5565b95506040880135945060608801359350608088013560ff811681146116a0575f80fd5b9699959850939692959460a0840135945060c09093013592915050565b5f80604083850312156116ce575f80fd5b82356116d9816114f5565b91506020830135611602816114f5565b600181811c908216806116fd57607f821691505b60208210810361171b57634e487b7160e01b5f52602260045260245ffd5b50919050565b5f60208284031215611731575f80fd5b5051919050565b8051611743816114f5565b919050565b805161ffff81168114611743575f80fd5b5f60e082840312801561176a575f80fd5b5060405160e0810167ffffffffffffffff8111828210171561179a57634e487b7160e01b5f52604160045260245ffd5b6040526117a683611738565b8152602083810151908201526040808401519082015260608084015190820152608080840151908201526117dc60a08401611748565b60a082015260c0928301519281019290925250919050565b634e487b7160e01b5f52601160045260245ffd5b818103818111156105e3576105e36117f4565b808201808211156105e3576105e36117f4565b80820281158282048414176105e3576105e36117f4565b5f8261185f57634e487b7160e01b5f52601260045260245ffd5b500490565b5f8083545f8160011c9050600182168061187f57607f821691505b60208210810361189d57634e487b7160e01b5f52602260045260245ffd5b8080156118b157600181146118c6576118f4565b60ff19841687528215158302870194506118f4565b5f888152602090205f5b848110156118ec578154898201526001909101906020016118d0565b505082870194505b5092969550505050505056feddf252ad1be2c89b69c2b068fc378daa952ba7f163c4a11628f55a4df523b3efa26469706673582212200e418cdacdec503345cd4210fe5054589fc687022d3167a606efd6c5e0702dfa64736f6c634300081a0033","linkReferences":{}},"methodIdentifiers":{"DOMAIN_SEPARATOR()":"3644e515","allowance(address,address)":"dd62ed3e","approve(address,uint256)":"095ea7b3","asset()":"38d52e0f","balanceOf(address)":"70a08231","balances(address)":"27e235e3","convertToAssets(uint256)":"07a2d13a","convertToShares(uint256)":"c6e6f592","decimals()":"313ce567","deposit(uint256,address)":"6e553f65","maxDeposit(address)":"402d267d","maxMint(address)":"c63d75b6","maxRedeem(address)":"d905777e","maxWithdraw(address)":"ce96cb77","mint(uint256,address)":"94bf804d","name()":"06fdde03","nonces(address)":"7ecebe00","permit(address,address,uint256,uint256,uint8,bytes32,bytes32)":"d505accf","previewDeposit(uint256)":"ef8b30f7","previewMint(uint256)":"b3d7f6b9","previewRedeem(uint256)":"4cdad506","previewWithdraw(uint256)":"0a28a477","rebase()":"af14052c","redeem(uint256,address,address)":"ba087652","redeem(uint256,address,address,address)":"1a9c56fc","scalingFactor()":"ed3437f8","setInitialRate()":"0a2431bc","symbol()":"95d89b41","totalAssets()":"01e1d114","totalSupply()":"18160ddd","transfer(address,uint256)":"a9059cbb","transferFrom(address,address,uint256)":"23b872dd","withdraw(uint256,address,address)":"b460af94"},"id":34}