{"abi":[{"type":"constructor","inputs":[{"name":"name_","type":"string","internalType":"string"},{"name":"symbol_","type":"string","internalType":"string"},{"name":"oz_","type":"address","internalType":"address"}],"stateMutability":"nonpayable"},{"type":"function","name":"allowance","inputs":[{"name":"owner","type":"address","internalType":"address"},{"name":"spender","type":"address","internalType":"address"}],"outputs":[{"name":"","type":"uint256","internalType":"uint256"}],"stateMutability":"view"},{"type":"function","name":"approve","inputs":[{"name":"spender","type":"address","internalType":"address"},{"name":"value","type":"uint256","internalType":"uint256"}],"outputs":[{"name":"","type":"bool","internalType":"bool"}],"stateMutability":"nonpayable"},{"type":"function","name":"balanceOf","inputs":[{"name":"account_","type":"address","internalType":"address"}],"outputs":[{"name":"","type":"uint256","internalType":"uint256"}],"stateMutability":"view"},{"type":"function","name":"decimals","inputs":[],"outputs":[{"name":"","type":"uint8","internalType":"uint8"}],"stateMutability":"view"},{"type":"function","name":"mint","inputs":[{"name":"account_","type":"address","internalType":"address"},{"name":"amount_","type":"uint256","internalType":"uint256"}],"outputs":[],"stateMutability":"nonpayable"},{"type":"function","name":"name","inputs":[],"outputs":[{"name":"","type":"string","internalType":"string"}],"stateMutability":"view"},{"type":"function","name":"rebase","inputs":[],"outputs":[],"stateMutability":"nonpayable"},{"type":"function","name":"redeem","inputs":[{"name":"amountIn_","type":"uint256","internalType":"uint256"},{"name":"owner_","type":"address","internalType":"address"},{"name":"receiver_","type":"address","internalType":"address"},{"name":"tokenOut_","type":"address","internalType":"address"}],"outputs":[{"name":"","type":"uint256","internalType":"uint256"}],"stateMutability":"nonpayable"},{"type":"function","name":"setInitialRate","inputs":[],"outputs":[],"stateMutability":"nonpayable"},{"type":"function","name":"symbol","inputs":[],"outputs":[{"name":"","type":"string","internalType":"string"}],"stateMutability":"view"},{"type":"function","name":"totalSupply","inputs":[],"outputs":[{"name":"","type":"uint256","internalType":"uint256"}],"stateMutability":"view"},{"type":"function","name":"transfer","inputs":[{"name":"to","type":"address","internalType":"address"},{"name":"value","type":"uint256","internalType":"uint256"}],"outputs":[{"name":"","type":"bool","internalType":"bool"}],"stateMutability":"nonpayable"},{"type":"function","name":"transferFrom","inputs":[{"name":"from","type":"address","internalType":"address"},{"name":"to","type":"address","internalType":"address"},{"name":"value","type":"uint256","internalType":"uint256"}],"outputs":[{"name":"","type":"bool","internalType":"bool"}],"stateMutability":"nonpayable"},{"type":"event","name":"Approval","inputs":[{"name":"owner","type":"address","indexed":true,"internalType":"address"},{"name":"spender","type":"address","indexed":true,"internalType":"address"},{"name":"value","type":"uint256","indexed":false,"internalType":"uint256"}],"anonymous":false},{"type":"event","name":"Rebase","inputs":[{"name":"newScalingFactor","type":"uint256","indexed":true,"internalType":"uint256"},{"name":"rebaseTime","type":"uint256","indexed":true,"internalType":"uint256"}],"anonymous":false},{"type":"event","name":"Transfer","inputs":[{"name":"from","type":"address","indexed":true,"internalType":"address"},{"name":"to","type":"address","indexed":true,"internalType":"address"},{"name":"value","type":"uint256","indexed":false,"internalType":"uint256"}],"anonymous":false},{"type":"error","name":"ERC20InsufficientAllowance","inputs":[{"name":"spender","type":"address","internalType":"address"},{"name":"allowance","type":"uint256","internalType":"uint256"},{"name":"needed","type":"uint256","internalType":"uint256"}]},{"type":"error","name":"ERC20InsufficientBalance","inputs":[{"name":"sender","type":"address","internalType":"address"},{"name":"balance","type":"uint256","internalType":"uint256"},{"name":"needed","type":"uint256","internalType":"uint256"}]},{"type":"error","name":"ERC20InvalidApprover","inputs":[{"name":"approver","type":"address","internalType":"address"}]},{"type":"error","name":"ERC20InvalidReceiver","inputs":[{"name":"receiver","type":"address","internalType":"address"}]},{"type":"error","name":"ERC20InvalidSender","inputs":[{"name":"sender","type":"address","internalType":"address"}]},{"type":"error","name":"ERC20InvalidSpender","inputs":[{"name":"spender","type":"address","internalType":"address"}]},{"type":"error","name":"OZError03","inputs":[]},{"type":"error","name":"OZError04","inputs":[]}],"bytecode":{"object":"0x6080604052670de0b6b3a764000060065562015180600855348015610022575f80fd5b50604051611e06380380611e0683398101604081905261004191610196565b8282600361004f838261029f565b50600461005c828261029f565b5050506001600160a01b0381166100b95760405162461bcd60e51b815260206004820152601860248201527f6f7a55534443746f6b656e3a206f7a5f206973207a65726f0000000000000000604482015260640160405180910390fd5b600580546001600160a01b0319166001600160a01b0392909216919091179055505042600755610359565b634e487b7160e01b5f52604160045260245ffd5b5f82601f830112610107575f80fd5b81516001600160401b03811115610120576101206100e4565b604051601f8201601f19908116603f011681016001600160401b038111828210171561014e5761014e6100e4565b604052818152838201602001851015610165575f80fd5b5f5b8281101561018357602081860181015183830182015201610167565b505f918101602001919091529392505050565b5f805f606084860312156101a8575f80fd5b83516001600160401b038111156101bd575f80fd5b6101c9868287016100f8565b602086015190945090506001600160401b038111156101e6575f80fd5b6101f2868287016100f8565b604086015190935090506001600160a01b0381168114610210575f80fd5b809150509250925092565b600181811c9082168061022f57607f821691505b60208210810361024d57634e487b7160e01b5f52602260045260245ffd5b50919050565b601f82111561029a57805f5260205f20601f840160051c810160208510156102785750805b601f840160051c820191505b81811015610297575f8155600101610284565b50505b505050565b81516001600160401b038111156102b8576102b86100e4565b6102cc816102c6845461021b565b84610253565b6020601f8211600181146102fe575f83156102e75750848201515b5f19600385901b1c1916600184901b178455610297565b5f84815260208120601f198516915b8281101561032d578785015182556020948501946001909201910161030d565b508482101561034a57868401515f19600387901b60f8161c191681555b50505050600190811b01905550565b611aa0806103665f395ff3fe608060405234801561000f575f80fd5b50600436106100cb575f3560e01c8063313ce5671161008857806395d89b411161006357806395d89b4114610187578063a9059cbb1461018f578063af14052c146101a2578063dd62ed3e146101aa575f80fd5b8063313ce5671461015257806340c10f191461016157806370a0823114610174575f80fd5b806306fdde03146100cf578063095ea7b3146100ed5780630a2431bc1461011057806318160ddd1461011a5780631a9c56fc1461012c57806323b872dd1461013f575b5f80fd5b6100d76101e2565b6040516100e49190611572565b60405180910390f35b6101006100fb366004611598565b610272565b60405190151581526020016100e4565b61011861028b565b005b6002545b6040519081526020016100e4565b61011e61013a3660046115c2565b610304565b61010061014d366004611612565b6105ea565b604051601281526020016100e4565b61011861016f366004611598565b61060d565b61011e610182366004611650565b61061b565b6100d761065b565b61010061019d366004611598565b61066a565b610118610677565b61011e6101b836600461166b565b6001600160a01b039182165f90815260016020908152604080832093909416825291909152205490565b6060600380546101f1906116a2565b80601f016020809104026020016040519081016040528092919081815260200182805461021d906116a2565b80156102685780601f1061023f57610100808354040283529160200191610268565b820191905f5260205f20905b81548152906001019060200180831161024b57829003601f168201915b5050505050905090565b5f3361027f8185856107cd565b60019150505b92915050565b60055f9054906101000a90046001600160a01b03166001600160a01b031663bbc8af0a6040518163ffffffff1660e01b8152600401602060405180830381865afa1580156102db573d5f803e3d5ffd5b505050506040513d601f19601f820116820180604052508101906102ff91906116da565b600955565b5f61031c60405180602001604052805f8152506107df565b60065473d1d7d99764f8a52aff007b7831cc02748b2013b59073a0b86991c6218b36c1d19d4a2e9eb0ce3606eb4890736c9f097e044506712b58eac670c9a5fd4bccef13905f906103758a670de0b6b3a7640000611705565b61037f9190611730565b905061038b8882610825565b600554604051632fe4a15f60e21b81526001600160a01b038a811660048301525f92169063bf92857c9060240160e060405180830381865afa1580156103d3573d5f803e3d5ffd5b505050506040513d601f19601f820116820180604052508101906103f791906117b1565b519050600f5f6104106001600160a01b03881683610859565b9050856001600160a01b0316896001600160a01b0316146104315780610440565b61044064e8d4a5100082611730565b90505f6104538d8364e8d4a510006108a3565b90506104816040518060400160405280600a815260200169030b6b7bab73a24b71d160b51b8152508e6108be565b6104ac604051806040016040528060098152602001680383a283934b1b29d160bd1b815250836108be565b60408051808201909152600f81526e033b2ba283a2a37a9bca930ba329d1608d1b60208201526104ee906104e96001600160a01b038b1686610903565b6108be565b61051c6040518060400160405280600c81526020016b030b6b7bab73a24b7282a1d160a51b815250826108be565b60408051808201825260118152700383a103130b610169034b73a20b1b19d1607d1b602082015290516370a0823160e01b81526001600160a01b0386811660048301526105b09291908916906370a0823190602401602060405180830381865afa15801561058c573d5f803e3d5ffd5b505050506040513d601f19601f820116820180604052508101906104e991906116da565b60405162461bcd60e51b81526004016105e1906020808252600490820152636865726560e01b604082015260600190565b60405180910390fd5b5f336105f785828561093c565b6106028585856109b7565b506001949350505050565b6106178282610a14565b5050565b6001600160a01b0381165f90815260208190526040812054670de0b6b3a76400006006548261064a9190611705565b6106549190611730565b9392505050565b6060600480546101f1906116a2565b5f3361027f8185856109b7565b600854600754610687919061182c565b4210156106a7576040516361ceb1d360e01b815260040160405180910390fd5b60055460408051635de4578560e11b815290515f926001600160a01b03169163bbc8af0a9160048083019260209291908290030181865afa1580156106ee573d5f803e3d5ffd5b505050506040513d601f19601f8201168201806040525081019061071291906116da565b905060095481101561073757604051637a094ad360e01b815260040160405180910390fd5b6009545f90610746818461183f565b61075890670de0b6b3a7640000611705565b6107629190611730565b9050670de0b6b3a7640000610777828261182c565b6006546107849190611705565b61078e9190611730565b600681905560098390554260078190556040519091907f11c6bf55864ff83827df712625d7a80e5583eef0264921025e7cd22003a21511905f90a35050565b6107da8383836001610a48565b505050565b610822816040516024016107f39190611572565b60408051601f198184030181529190526020810180516001600160e01b031663104c13eb60e21b179052610b1a565b50565b6001600160a01b03821661084e57604051634b637e8f60e11b81525f60048201526024016105e1565b610617825f83610b23565b5f805f61086585610c49565b915091508082106108835761087a8585610e6c565b92505050610285565b808261088f8787610e6c565b6108999190611705565b61087a9190611730565b5f825f1904841183021582026108b7575f80fd5b5091020490565b61061782826040516024016108d4929190611852565b60408051601f198184030181529190526020810180516001600160e01b03166309710a9d60e41b179052610b1a565b5f805f61090f85610c49565b9150915080821061092e5761087a826109288787610e6c565b90610f34565b61087a816109288787610e6c565b6001600160a01b038381165f908152600160209081526040808320938616835292905220545f1981146109b157818110156109a357604051637dc7a0d960e11b81526001600160a01b038416600482015260248101829052604481018390526064016105e1565b6109b184848484035f610a48565b50505050565b6001600160a01b0383166109e057604051634b637e8f60e11b81525f60048201526024016105e1565b6001600160a01b038216610a095760405163ec442f0560e01b81525f60048201526024016105e1565b6107da838383610b23565b6001600160a01b038216610a3d5760405163ec442f0560e01b81525f60048201526024016105e1565b6106175f8383610b23565b6001600160a01b038416610a715760405163e602df0560e01b81525f60048201526024016105e1565b6001600160a01b038316610a9a57604051634a1406b160e11b81525f60048201526024016105e1565b6001600160a01b038085165f90815260016020908152604080832093871683529290522082905580156109b157826001600160a01b0316846001600160a01b03167f8c5be1e5ebec7d5bd14f71427d1e84f3dd0314c0f7b2291e5b200ac8c7c3b92584604051610b0c91815260200190565b60405180910390a350505050565b61082281610f62565b6001600160a01b038316610b4d578060025f828254610b42919061182c565b90915550610bbd9050565b6001600160a01b0383165f9081526020819052604090205481811015610b9f5760405163391434e360e21b81526001600160a01b038516600482015260248101829052604481018390526064016105e1565b6001600160a01b0384165f9081526020819052604090209082900390555b6001600160a01b038216610bd957600280548290039055610bf7565b6001600160a01b0382165f9081526020819052604090208054820190555b816001600160a01b0316836001600160a01b03167fddf252ad1be2c89b69c2b068fc378daa952ba7f163c4a11628f55a4df523b3ef83604051610c3c91815260200190565b60405180910390a3505050565b5f805f80846001600160a01b0316632c8ce6bc6040518163ffffffff1660e01b8152600401606060405180830381865afa158015610c89573d5f803e3d5ffd5b505050506040513d601f19601f82011682018060405250810190610cad9190611873565b9250509150816001600160a01b0316633ba0b9a96040518163ffffffff1660e01b8152600401602060405180830381865afa158015610cee573d5f803e3d5ffd5b505050506040513d601f19601f82011682018060405250810190610d1291906116da565b93505f816001600160a01b031663d2a3584e6040518163ffffffff1660e01b8152600401602060405180830381865afa158015610d51573d5f803e3d5ffd5b505050506040513d601f19601f82011682018060405250810190610d7591906116da565b9050816001600160a01b031663516399df6040518163ffffffff1660e01b8152600401602060405180830381865afa158015610db3573d5f803e3d5ffd5b505050506040513d601f19601f82011682018060405250810190610dd791906118bd565b8015610e4a575043826001600160a01b03166360e0a9e16040518163ffffffff1660e01b8152600401602060405180830381865afa158015610e1b573d5f803e3d5ffd5b505050506040513d601f19601f82011682018060405250810190610e3f91906118dc565b6001600160801b0316145b15610e5757809350610e64565b610e618582610f82565b93505b505050915091565b5f80836001600160a01b031663e184c9be6040518163ffffffff1660e01b8152600401602060405180830381865afa158015610eaa573d5f803e3d5ffd5b505050506040513d601f19601f82011682018060405250810190610ece91906116da565b9050428111610ee857670de0b6b3a7640000915050610285565b5f610ef38585610f97565b90505f610f00428461183f565b90505f610f15610f1084846110b6565b6110f6565b9050610f29670de0b6b3a764000082610f34565b945050505050610285565b5f80610f48670de0b6b3a764000085611705565b9050828181610f5957610f5961171c565b04949350505050565b80516a636f6e736f6c652e6c6f67602083015f808483855afa5050505050565b5f818311610f905781610654565b5090919050565b6040805160028082526060820183525f928392919060208301908036833701905050905082815f81518110610fce57610fce611902565b63ffffffff9092166020928302919091019091015260405163883bdbfd60e01b81525f906001600160a01b0386169063883bdbfd90611011908590600401611916565b5f60405180830381865afa15801561102b573d5f803e3d5ffd5b505050506040513d5f823e601f3d908101601f19168201604052611052919081019061195e565b90508363ffffffff16815f8151811061106d5761106d611902565b60200260200101518260018151811061108857611088611902565b602002602001015161109a9190611a1d565b6110a49190611a3c565b6001600160d81b031695945050505050565b5f806110c76201518061016d611705565b6110d18486611705565b6110db9190611730565b90506110ee6110e982611107565b61111b565b949350505050565b5f80821215611103575f80fd5b5090565b5f6001600160ff1b03821115611103575f80fd5b5f680238fd42c5cf03ffff19821215801561113f575068070c1cc73b00c800008213155b61117e5760405162461bcd60e51b815260206004820152601060248201526f125b9d985b1a5908195e1c1bdb995b9d60821b60448201526064016105e1565b5f8212156111b557611191825f0361111b565b6ec097ce7bc90715b34b9f1000000000816111ae576111ae61171c565b0592915050565b5f6806f05b59d3b200000083126111f457506806f05b59d3b1ffffff1990910190770195e54c5dd42177f53a27172fa9ec63026282700000000061122a565b6803782dace9d9000000831261122657506803782dace9d8ffffff19909101906b1425982cf597cd205cef738061122a565b5060015b6064929092029168056bc75e2d6310000068ad78ebc5ac62000000841261127a5768ad78ebc5ac61ffffff199093019268056bc75e2d631000006e01855144814a7ff805980ff008400082020590505b6856bc75e2d63100000084126112b6576856bc75e2d630ffffff199093019268056bc75e2d631000006b02df0ab5a80a22c61ab5a70082020590505b682b5e3af16b1880000084126112f057682b5e3af16b187fffff199093019268056bc75e2d63100000693f1fce3da636ea5cf85082020590505b6815af1d78b58c400000841261132a576815af1d78b58c3fffff199093019268056bc75e2d63100000690127fa27722cc06cc5e282020590505b680ad78ebc5ac6200000841261136357680ad78ebc5ac61fffff199093019268056bc75e2d6310000068280e60114edb805d0382020590505b68056bc75e2d63100000841261139c5768056bc75e2d630fffff199093019268056bc75e2d63100000680ebc5fb4174612111082020590505b6802b5e3af16b188000084126113d5576802b5e3af16b187ffff199093019268056bc75e2d631000006808f00f760a4b2db55d82020590505b68015af1d78b58c40000841261140e5768015af1d78b58c3ffff199093019268056bc75e2d631000006806f5f177578893793782020590505b68056bc75e2d631000008481019085906002908280020505918201919050600368056bc75e2d631000008783020505918201919050600468056bc75e2d631000008783020505918201919050600568056bc75e2d631000008783020505918201919050600668056bc75e2d631000008783020505918201919050600768056bc75e2d631000008783020505918201919050600868056bc75e2d631000008783020505918201919050600968056bc75e2d631000008783020505918201919050600a68056bc75e2d631000008783020505918201919050600b68056bc75e2d631000008783020505918201919050600c68056bc75e2d631000008783020505918201919050606468056bc75e2d63100000848402058502059695505050505050565b5f81518084525f5b8181101561155357602081850181015186830182015201611537565b505f602082860101526020601f19601f83011685010191505092915050565b602081525f610654602083018461152f565b6001600160a01b0381168114610822575f80fd5b5f80604083850312156115a9575f80fd5b82356115b481611584565b946020939093013593505050565b5f805f80608085870312156115d5575f80fd5b8435935060208501356115e781611584565b925060408501356115f781611584565b9150606085013561160781611584565b939692955090935050565b5f805f60608486031215611624575f80fd5b833561162f81611584565b9250602084013561163f81611584565b929592945050506040919091013590565b5f60208284031215611660575f80fd5b813561065481611584565b5f806040838503121561167c575f80fd5b823561168781611584565b9150602083013561169781611584565b809150509250929050565b600181811c908216806116b657607f821691505b6020821081036116d457634e487b7160e01b5f52602260045260245ffd5b50919050565b5f602082840312156116ea575f80fd5b5051919050565b634e487b7160e01b5f52601160045260245ffd5b8082028115828204841417610285576102856116f1565b634e487b7160e01b5f52601260045260245ffd5b5f8261173e5761173e61171c565b500490565b634e487b7160e01b5f52604160045260245ffd5b60405160e0810167ffffffffffffffff8111828210171561177a5761177a611743565b60405290565b604051601f8201601f1916810167ffffffffffffffff811182821017156117a9576117a9611743565b604052919050565b5f60e08284031280156117c2575f80fd5b506117cb611757565b82516117d681611584565b81526020838101519082015260408084015190820152606080840151908201526080808401519082015260a083015161ffff81168114611814575f80fd5b60a082015260c0928301519281019290925250919050565b80820180821115610285576102856116f1565b81810381811115610285576102856116f1565b604081525f611864604083018561152f565b90508260208301529392505050565b5f805f60608486031215611885575f80fd5b835161189081611584565b60208501519093506118a181611584565b60408501519092506118b281611584565b809150509250925092565b5f602082840312156118cd575f80fd5b81518015158114610654575f80fd5b5f602082840312156118ec575f80fd5b81516001600160801b0381168114610654575f80fd5b634e487b7160e01b5f52603260045260245ffd5b602080825282518282018190525f918401906040840190835b8181101561195357835163ffffffff1683526020938401939092019160010161192f565b509095945050505050565b5f6020828403121561196e575f80fd5b815167ffffffffffffffff811115611984575f80fd5b8201601f81018413611994575f80fd5b805167ffffffffffffffff8111156119ae576119ae611743565b8060051b6119be60208201611780565b918252602081840181019290810190878411156119d9575f80fd5b6020850194505b83851015611a1257845192506001600160d81b0383168314611a00575f80fd5b828252602094850194909101906119e0565b979650505050505050565b6001600160d81b038281168282160390811115610285576102856116f1565b5f6001600160d81b03831680611a5457611a5461171c565b6001600160d81b0392909216919091049291505056fea2646970667358221220a5b2c4a4687bd682d7f1513a90f69594a9396ad464757c0a77e9cd854000928a64736f6c634300081a0033","linkReferences":{}},"methodIdentifiers":{"allowance(address,address)":"dd62ed3e","approve(address,uint256)":"095ea7b3","balanceOf(address)":"70a08231","decimals()":"313ce567","mint(address,uint256)":"40c10f19","name()":"06fdde03","rebase()":"af14052c","redeem(uint256,address,address,address)":"1a9c56fc","setInitialRate()":"0a2431bc","symbol()":"95d89b41","totalSupply()":"18160ddd","transfer(address,uint256)":"a9059cbb","transferFrom(address,address,uint256)":"23b872dd"},"id":29}