{"abi":[{"type":"function","name":"YT","inputs":[],"outputs":[{"name":"","type":"address","internalType":"contract IERC20"}],"stateMutability":"view"},{"type":"function","name":"defaultApprox","inputs":[],"outputs":[{"name":"guessMin","type":"uint256","internalType":"uint256"},{"name":"guessMax","type":"uint256","internalType":"uint256"},{"name":"guessOffchain","type":"uint256","internalType":"uint256"},{"name":"maxIteration","type":"uint256","internalType":"uint256"},{"name":"eps","type":"uint256","internalType":"uint256"}],"stateMutability":"view"},{"type":"function","name":"emptyLimit","inputs":[],"outputs":[{"name":"limitRouter","type":"address","internalType":"address"},{"name":"epsSkipMarket","type":"uint256","internalType":"uint256"},{"name":"optData","type":"bytes","internalType":"bytes"}],"stateMutability":"view"},{"type":"function","name":"emptySwap","inputs":[],"outputs":[{"name":"swapType","type":"uint8","internalType":"enum SwapType"},{"name":"extRouter","type":"address","internalType":"address"},{"name":"extCalldata","type":"bytes","internalType":"bytes"},{"name":"needScale","type":"bool","internalType":"bool"}],"stateMutability":"view"},{"type":"function","name":"ownerPT","inputs":[],"outputs":[{"name":"","type":"address","internalType":"address"}],"stateMutability":"view"},{"type":"function","name":"pendleRouter","inputs":[],"outputs":[{"name":"","type":"address","internalType":"contract IPAllActionV3"}],"stateMutability":"view"},{"type":"function","name":"sUSDe","inputs":[],"outputs":[{"name":"","type":"address","internalType":"contract IERC20"}],"stateMutability":"view"},{"type":"function","name":"sUSDeMarket","inputs":[],"outputs":[{"name":"","type":"address","internalType":"contract IPMarket"}],"stateMutability":"view"},{"type":"function","name":"sUSDe_PT_26SEP","inputs":[],"outputs":[{"name":"","type":"address","internalType":"contract IERC20"}],"stateMutability":"view"}],"bytecode":{"object":"0x6101206040525f60808190525f1960a081905260c082905261010060e0819052655af3107a40008082526008849055600992909255600a92909255600b91909155600c5563013852ba600d5563013b5542600e55348015605d575f80fd5b506104538061006b5f395ff3fe608060405234801561000f575f80fd5b5060043610610090575f3560e01c80634ebfc814116100635780634ebfc8141461011d578063781c18db1461015f57806382092a7f1461017a578063e0d05d3914610195578063f66a7749146101b0575f80fd5b806309316dd314610094578063206aeab3146100b45780634920cfea146100e75780634c97d1ad14610102575b5f80fd5b61009c6101c8565b6040516100ab9392919061035f565b60405180910390f35b6100cf73888888888889758f76e7103c6cbf23abbf58f94681565b6040516001600160a01b0390911681526020016100ab565b6100cf73d1d7d99764f8a52aff007b7831cc02748b2013b581565b6100cf7362178e35ccef8e00e33afc95f12a590b40e51e0481565b600854600954600a54600b54600c54610137949392919085565b604080519586526020860194909452928401919091526060830152608082015260a0016100ab565b6100cf73dc02b77a3986da62c7a78fed73949c976785080981565b6100cf736c9f097e044506712b58eac670c9a5fd4bccef1381565b6100cf739d39a5de30e57443bff2a8307a4256c8797a349781565b6101b861026b565b6040516100ab949392919061038e565b60038054600454600780546001600160a01b039093169391926101ea906103e5565b80601f0160208091040260200160405190810160405280929190818152602001828054610216906103e5565b80156102615780601f1061023857610100808354040283529160200191610261565b820191905f5260205f20905b81548152906001019060200180831161024457829003601f168201915b5050505050905083565b5f80546001805460ff8316936101009093046001600160a01b0316929190610292906103e5565b80601f01602080910402602001604051908101604052809291908181526020018280546102be906103e5565b80156103095780601f106102e057610100808354040283529160200191610309565b820191905f5260205f20905b8154815290600101906020018083116102ec57829003601f168201915b5050506002909301549192505060ff1684565b5f81518084525f5b8181101561034057602081850181015186830182015201610324565b505f602082860101526020601f19601f83011685010191505092915050565b60018060a01b0384168152826020820152606060408201525f610385606083018461031c565b95945050505050565b5f600486106103ab57634e487b7160e01b5f52602160045260245ffd5b8582526001600160a01b03851660208301526080604083018190526103d29083018561031c565b9050821515606083015295945050505050565b600181811c908216806103f957607f821691505b60208210810361041757634e487b7160e01b5f52602260045260245ffd5b5091905056fea2646970667358221220389fb4ed9103592a20ef7986ad35f4690a7f4696d0e6ba2d314ac87c0c69cb3464736f6c634300081a0033","linkReferences":{}},"methodIdentifiers":{"YT()":"781c18db","defaultApprox()":"4ebfc814","emptyLimit()":"09316dd3","emptySwap()":"f66a7749","ownerPT()":"4c97d1ad","pendleRouter()":"206aeab3","sUSDe()":"e0d05d39","sUSDeMarket()":"4920cfea","sUSDe_PT_26SEP()":"82092a7f"},"id":0}