{"abi":[{"type":"function","name":"facetAddress","inputs":[{"name":"_functionSelector","type":"bytes4","internalType":"bytes4"}],"outputs":[{"name":"facetAddress_","type":"address","internalType":"address"}],"stateMutability":"view"},{"type":"function","name":"facetAddresses","inputs":[],"outputs":[{"name":"facetAddresses_","type":"address[]","internalType":"address[]"}],"stateMutability":"view"},{"type":"function","name":"facetFunctionSelectors","inputs":[{"name":"_facet","type":"address","internalType":"address"}],"outputs":[{"name":"facetFunctionSelectors_","type":"bytes4[]","internalType":"bytes4[]"}],"stateMutability":"view"},{"type":"function","name":"facets","inputs":[],"outputs":[{"name":"facets_","type":"tuple[]","internalType":"struct IDiamondLoupe.Facet[]","components":[{"name":"facetAddress","type":"address","internalType":"address"},{"name":"functionSelectors","type":"bytes4[]","internalType":"bytes4[]"}]}],"stateMutability":"view"},{"type":"function","name":"getBorrowingRates","inputs":[{"name":"token_","type":"address","internalType":"address"}],"outputs":[{"name":"","type":"uint256","internalType":"uint256"}],"stateMutability":"view"},{"type":"function","name":"getSupplyRates","inputs":[{"name":"token_","type":"address","internalType":"address"}],"outputs":[{"name":"","type":"uint256","internalType":"uint256"}],"stateMutability":"view"},{"type":"function","name":"getUserAccountData","inputs":[{"name":"user_","type":"address","internalType":"address"}],"outputs":[{"name":"userData","type":"tuple","internalType":"struct UserAccountData","components":[{"name":"internalAccount","type":"address","internalType":"address"},{"name":"totalCollateralBase","type":"uint256","internalType":"uint256"},{"name":"totalDebtBase","type":"uint256","internalType":"uint256"},{"name":"availableBorrowsBase","type":"uint256","internalType":"uint256"},{"name":"currentLiquidationThreshold","type":"uint256","internalType":"uint256"},{"name":"ltv","type":"uint256","internalType":"uint256"},{"name":"healthFactor","type":"uint256","internalType":"uint256"}]}],"stateMutability":"view"},{"type":"function","name":"supportsInterface","inputs":[{"name":"_interfaceId","type":"bytes4","internalType":"bytes4"}],"outputs":[{"name":"","type":"bool","internalType":"bool"}],"stateMutability":"view"}],"bytecode":{"object":"0x6080604052348015600e575f80fd5b50611b268061001c5f395ff3fe608060405234801561000f575f80fd5b5060043610610085575f3560e01c8063ac5c510b11610058578063ac5c510b14610134578063adfca15e14610147578063bf92857c14610167578063cdffacc6146101d4575f80fd5b806301ffc9a71461008957806352ef6b2c146100e95780637a0ed627146100fe578063a867251514610113575b5f80fd5b6100d46100973660046115f2565b6001600160e01b0319165f9081527fc8fcad8db84d3cc18b4c41d551ea0ee66dd599cde068d998e57d5e09332c131f602052604090205460ff1690565b60405190151581526020015b60405180910390f35b6100f161022a565b6040516100e09190611619565b610106610299565b6040516100e09190611664565b61012661012136600461172f565b61044d565b6040519081526020016100e0565b61012661014236600461172f565b6104e9565b61015a61015536600461172f565b6105b0565b6040516100e0919061174a565b61017a61017536600461172f565b610677565b6040516100e0919081516001600160a01b031681526020808301519082015260408083015190820152606080830151908201526080808301519082015260a0828101519082015260c0918201519181019190915260e00190565b6102126101e23660046115f2565b6001600160e01b0319165f9081525f80516020611ad183398151915260205260409020546001600160a01b031690565b6040516001600160a01b0390911681526020016100e0565b60605f5f80516020611ad18339815191526002810180546040805160208084028201810190925282815293945083018282801561028e57602002820191905f5260205f20905b81546001600160a01b03168152600190910190602001808311610270575b505050505091505090565b7fc8fcad8db84d3cc18b4c41d551ea0ee66dd599cde068d998e57d5e09332c131e546060905f80516020611ad1833981519152908067ffffffffffffffff8111156102e6576102e661178b565b60405190808252806020026020018201604052801561032b57816020015b604080518082019091525f8152606060208201528152602001906001900390816103045790505b5092505f5b81811015610447575f83600201828154811061034e5761034e61179f565b905f5260205f20015f9054906101000a90046001600160a01b031690508085838151811061037e5761037e61179f565b6020908102919091018101516001600160a01b0392831690529082165f9081526001860182526040908190208054825181850281018501909352808352919290919083018282801561041957602002820191905f5260205f20905f905b82829054906101000a900460e01b6001600160e01b031916815260200190600401906020826003010492830192600103820291508084116103db5790505b50505050508583815181106104305761043061179f565b602090810291909101810151015250600101610330565b50505090565b6002546040516335ea6a7560e01b81526001600160a01b0383811660048301525f9283929116906335ea6a75906024016101e060405180830381865afa158015610499573d5f803e3d5ffd5b505050506040513d601f19601f820116820180604052508101906104bd9190611880565b6080015190506104e26104d4633b9aca00836119d2565b6001600160801b03166107a1565b9392505050565b6002546040516335ea6a7560e01b81526001600160a01b0383811660048301525f9283929116906335ea6a75906024016101e060405180830381865afa158015610535573d5f803e3d5ffd5b505050506040513d601f19601f820116820180604052508101906105599190611880565b60400151905061059f60405180604001604052806015815260200174030b8391016903bb2ba3410169039bab838363c9d1605d1b815250826001600160801b03166107fb565b6104e26104d4633b9aca00836119d2565b6001600160a01b0381165f9081527fc8fcad8db84d3cc18b4c41d551ea0ee66dd599cde068d998e57d5e09332c131d602090815260409182902080548351818402810184019094528084526060935f80516020611ad1833981519152939092919083018282801561066a57602002820191905f5260205f20905f905b82829054906101000a900460e01b6001600160e01b0319168152602001906004019060208260030104928301926001038202915080841161062c5790505b5050505050915050919050565b6106b96040518060e001604052805f6001600160a01b031681526020015f81526020015f81526020015f81526020015f81526020015f81526020015f81525090565b6001600160a01b038281165f9081526101266020526040808220546002549151632fe4a15f60e21b815290841660048201819052938392839283928392839291169063bf92857c9060240160c060405180830381865afa15801561071f573d5f803e3d5ffd5b505050506040513d601f19601f8201168201806040525081019061074391906119ff565b9550955095509550955095506040518060e00160405280886001600160a01b0316815260200187815260200186815260200161077e86610844565b815260200184815260200183815260200182815250975050505050505050919050565b5f806107b583670de0b6b3a7640000610880565b90505f6107c1826108b5565b90505f6107ce6001610907565b90505f6107db8383610938565b90505f6107f082670de0b6b3a7640000610973565b979650505050505050565b6108408282604051602401610811929190611a45565b60408051601f198184030181529190526020810180516001600160e01b03166309710a9d60e41b1790526109d7565b5050565b5f6064610866836127105f60150154600a61085f9190611a97565b91906109e3565b6108709084611aaa565b61087a9190611abd565b92915050565b5f815f0361088c575f80fd5b5f61089784846109fe565b905060016001607f1b036001600160801b03821611156104e2575f80fd5b5f600160461b82600f0b126108c8575f80fd5b683fffffffffffffffff1982600f0b12156108e457505f919050565b61087a608083600f0b700171547652b82fe1777d0ffda0d23a7d1202901d610b5d565b5f677fffffffffffffff1982121580156109295750677fffffffffffffff8213155b610931575f80fd5b5060401b90565b5f600f82810b9084900b036f7fffffffffffffffffffffffffffffff19811280159061096b575060016001607f1b038113155b6104e2575f80fd5b5f815f0361098257505f61087a565b5f83600f0b1215610991575f80fd5b600f83900b6001600160801b038316810260401c90608084901c026001600160c01b038111156109bf575f80fd5b60401b81198111156109cf575f80fd5b019392505050565b6109e0816115d2565b50565b5f825f1904841183021582026109f7575f80fd5b5091020490565b5f815f03610a0a575f80fd5b5f6001600160c01b038411610a345782604085901b81610a2c57610a2c6119aa565b049050610b4a565b60c084811c6401000000008110610a4d576020918201911c5b620100008110610a5f576010918201911c5b6101008110610a70576008918201911c5b60108110610a80576004918201911c5b60048110610a90576002918201911c5b60028110610a9f576001820191505b60bf820360018603901c6001018260ff0387901b81610ac057610ac06119aa565b0492506001600160801b03831115610ad6575f80fd5b608085901c83026001600160801b038616840260c088901c604089901b82811015610b02576001820391505b608084901b92900382811015610b19576001820391505b829003608084901c8214610b2e576001610b3f565b888181610b3d57610b3d6119aa565b045b870196505050505050505b6001600160801b038111156104e2575f80fd5b5f600160461b82600f0b12610b70575f80fd5b683fffffffffffffffff1982600f0b1215610b8c57505f919050565b6001607f1b5f6780000000000000008416600f0b1315610bbd5770016a09e667f3bcc908b2fb1366ea957d3e0260801c5b5f8367400000000000000016600f0b1315610be9577001306fe0a31b7152de8d5a46305c85edec0260801c5b5f8367200000000000000016600f0b1315610c15577001172b83c7d517adcdf7c8c50eb14a791f0260801c5b5f8367100000000000000016600f0b1315610c415770010b5586cf9890f6298b92b71842a983630260801c5b5f8367080000000000000016600f0b1315610c6d577001059b0d31585743ae7c548eb68ca417fd0260801c5b5f8367040000000000000016600f0b1315610c9957700102c9a3e778060ee6f7caca4f7a29bde80260801c5b5f8367020000000000000016600f0b1315610cc55770010163da9fb33356d84a66ae336dcdfa3f0260801c5b5f8367010000000000000016600f0b1315610cf157700100b1afa5abcbed6129ab13ec11dc95430260801c5b5f83668000000000000016600f0b1315610d1c5770010058c86da1c09ea1ff19d294cf2f679b0260801c5b5f83664000000000000016600f0b1315610d47577001002c605e2e8cec506d21bfc89a23a00f0260801c5b5f83662000000000000016600f0b1315610d7257700100162f3904051fa128bca9c55c31e5df0260801c5b5f83661000000000000016600f0b1315610d9d577001000b175effdc76ba38e31671ca9397250260801c5b5f83660800000000000016600f0b1315610dc857700100058ba01fb9f96d6cacd4b180917c3d0260801c5b5f83660400000000000016600f0b1315610df35770010002c5cc37da9491d0985c348c68e7b30260801c5b5f83660200000000000016600f0b1315610e1e577001000162e525ee054754457d59952920260260801c5b5f83660100000000000016600f0b1315610e495770010000b17255775c040618bf4a4ade83fc0260801c5b5f836580000000000016600f0b1315610e73577001000058b91b5bc9ae2eed81e9b7d4cfab0260801c5b5f836540000000000016600f0b1315610e9d57700100002c5c89d5ec6ca4d7c8acc017b7c90260801c5b5f836520000000000016600f0b1315610ec75770010000162e43f4f831060e02d839a9d16d0260801c5b5f836510000000000016600f0b1315610ef157700100000b1721bcfc99d9f890ea069117630260801c5b5f836508000000000016600f0b1315610f1b5770010000058b90cf1e6d97f9ca14dbcc16280260801c5b5f836504000000000016600f0b1315610f45577001000002c5c863b73f016468f6bac5ca2b0260801c5b5f836502000000000016600f0b1315610f6f57700100000162e430e5a18f6119e3c02282a50260801c5b5f836501000000000016600f0b1315610f99577001000000b1721835514b86e6d96efd1bfe0260801c5b5f8364800000000016600f0b1315610fc257700100000058b90c0b48c6be5df846c5b2ef0260801c5b5f8364400000000016600f0b1315610feb5770010000002c5c8601cc6b9e94213c72737a0260801c5b5f8364200000000016600f0b1315611014577001000000162e42fff037df38aa2b219f060260801c5b5f8364100000000016600f0b131561103d5770010000000b17217fba9c739aa5819f44f90260801c5b5f8364080000000016600f0b1315611066577001000000058b90bfcdee5acd3c1cedc8230260801c5b5f8364040000000016600f0b131561108f57700100000002c5c85fe31f35a6a30da1be500260801c5b5f8364020000000016600f0b13156110b85770010000000162e42ff0999ce3541b9fffcf0260801c5b5f8364010000000016600f0b13156110e157700100000000b17217f80f4ef5aadda455540260801c5b5f83638000000016600f0b13156111095770010000000058b90bfbf8479bd5a81b51ad0260801c5b5f83634000000016600f0b1315611131577001000000002c5c85fdf84bd62ae30a74cc0260801c5b5f83632000000016600f0b131561115957700100000000162e42fefb2fed257559bdaa0260801c5b5f83631000000016600f0b1315611181577001000000000b17217f7d5a7716bba4a9ae0260801c5b5f83630800000016600f0b13156111a957700100000000058b90bfbe9ddbac5e109cce0260801c5b5f83630400000016600f0b13156111d15770010000000002c5c85fdf4b15de6f17eb0d0260801c5b5f83630200000016600f0b13156111f9577001000000000162e42fefa494f1478fde050260801c5b5f83630100000016600f0b13156112215770010000000000b17217f7d20cf927c8e94c0260801c5b5f836280000016600f0b1315611248577001000000000058b90bfbe8f71cb4e4b33d0260801c5b5f836240000016600f0b131561126f57700100000000002c5c85fdf477b662b269450260801c5b5f836220000016600f0b13156112965770010000000000162e42fefa3ae53369388c0260801c5b5f836210000016600f0b13156112bd57700100000000000b17217f7d1d351a389d400260801c5b5f836208000016600f0b13156112e45770010000000000058b90bfbe8e8b2d3d4ede0260801c5b5f836204000016600f0b131561130b577001000000000002c5c85fdf4741bea6e77e0260801c5b5f836202000016600f0b131561133257700100000000000162e42fefa39fe95583c20260801c5b5f836201000016600f0b1315611359577001000000000000b17217f7d1cfb72b45e10260801c5b5f8361800016600f0b131561137f57700100000000000058b90bfbe8e7cc35c3f00260801c5b5f8361400016600f0b13156113a55770010000000000002c5c85fdf473e242ea380260801c5b5f8361200016600f0b13156113cb577001000000000000162e42fefa39f02b772c0260801c5b5f8361100016600f0b13156113f15770010000000000000b17217f7d1cf7d83c1a0260801c5b5f8361080016600f0b1315611417577001000000000000058b90bfbe8e7bdcbe2e0260801c5b5f8361040016600f0b131561143d57700100000000000002c5c85fdf473dea871f0260801c5b5f8361020016600f0b13156114635770010000000000000162e42fefa39ef44d910260801c5b5f8361010016600f0b131561148957700100000000000000b17217f7d1cf79e9490260801c5b5f83608016600f0b13156114ae5770010000000000000058b90bfbe8e7bce5440260801c5b5f83604016600f0b13156114d3577001000000000000002c5c85fdf473de6eca0260801c5b5f83602016600f0b13156114f857700100000000000000162e42fefa39ef366f0260801c5b5f83601016600f0b131561151d577001000000000000000b17217f7d1cf79afa0260801c5b5f83600816600f0b131561154257700100000000000000058b90bfbe8e7bcd6d0260801c5b5f83600416600f0b13156115675770010000000000000002c5c85fdf473de6b20260801c5b5f83600216600f0b131561158c577001000000000000000162e42fefa39ef3580260801c5b5f83600116600f0b13156115b15770010000000000000000b17217f7d1cf79ab0260801c5b600f83810b60401d603f03900b1c60016001607f1b0381111561087a575f80fd5b80516a636f6e736f6c652e6c6f67602083015f808483855afa5050505050565b5f60208284031215611602575f80fd5b81356001600160e01b0319811681146104e2575f80fd5b602080825282518282018190525f918401906040840190835b818110156116595783516001600160a01b0316835260209384019390920191600101611632565b509095945050505050565b5f602082016020835280845180835260408501915060408160051b8601019250602086015f5b8281101561170f57868503603f19018452815180516001600160a01b03168652602090810151604082880181905281519088018190529101905f9060608801905b808310156116f75783516001600160e01b031916825260209384019360019390930192909101906116cb565b5096505050602093840193919091019060010161168a565b50929695505050505050565b6001600160a01b03811681146109e0575f80fd5b5f6020828403121561173f575f80fd5b81356104e28161171b565b602080825282518282018190525f918401906040840190835b818110156116595783516001600160e01b031916835260209384019390920191600101611763565b634e487b7160e01b5f52604160045260245ffd5b634e487b7160e01b5f52603260045260245ffd5b6040516101e0810167ffffffffffffffff811182821017156117e357634e487b7160e01b5f52604160045260245ffd5b60405290565b5f602082840312156117f9575f80fd5b6040516020810167ffffffffffffffff8111828210171561182857634e487b7160e01b5f52604160045260245ffd5b6040529151825250919050565b80516001600160801b038116811461184b575f80fd5b919050565b805164ffffffffff8116811461184b575f80fd5b805161ffff8116811461184b575f80fd5b805161184b8161171b565b5f6101e0828403128015611892575f80fd5b5061189b6117b3565b6118a584846117e9565b81526118b360208401611835565b60208201526118c460408401611835565b60408201526118d560608401611835565b60608201526118e660808401611835565b60808201526118f760a08401611835565b60a082015261190860c08401611850565b60c082015261191960e08401611864565b60e082015261192b6101008401611875565b61010082015261193e6101208401611875565b6101208201526119516101408401611875565b6101408201526119646101608401611875565b6101608201526119776101808401611835565b61018082015261198a6101a08401611835565b6101a082015261199d6101c08401611835565b6101c08201529392505050565b634e487b7160e01b5f52601260045260245ffd5b634e487b7160e01b5f52601160045260245ffd5b5f6001600160801b038316806119ea576119ea6119aa565b806001600160801b0384160491505092915050565b5f805f805f8060c08789031215611a14575f80fd5b50508451602086015160408701516060880151608089015160a090990151939a929950909790965094509092509050565b604081525f83518060408401525f5b81811015611a715760208187018101516060868401015201611a54565b505f606082850101526060601f19601f8301168401019150508260208301529392505050565b8082018082111561087a5761087a6119be565b8181038181111561087a5761087a6119be565b5f82611acb57611acb6119aa565b50049056fec8fcad8db84d3cc18b4c41d551ea0ee66dd599cde068d998e57d5e09332c131ca2646970667358221220e43abc878a297d7e8f83a6b79fbe584f5b6f38704a50ff2a3614436ee0d68df464736f6c634300081a0033","linkReferences":{}},"methodIdentifiers":{"facetAddress(bytes4)":"cdffacc6","facetAddresses()":"52ef6b2c","facetFunctionSelectors(address)":"adfca15e","facets()":"7a0ed627","getBorrowingRates(address)":"a8672515","getSupplyRates(address)":"ac5c510b","getUserAccountData(address)":"bf92857c","supportsInterface(bytes4)":"01ffc9a7"},"id":10}