{"abi":[{"type":"function","name":"facetAddress","inputs":[{"name":"_functionSelector","type":"bytes4","internalType":"bytes4"}],"outputs":[{"name":"facetAddress_","type":"address","internalType":"address"}],"stateMutability":"view"},{"type":"function","name":"facetAddresses","inputs":[],"outputs":[{"name":"facetAddresses_","type":"address[]","internalType":"address[]"}],"stateMutability":"view"},{"type":"function","name":"facetFunctionSelectors","inputs":[{"name":"_facet","type":"address","internalType":"address"}],"outputs":[{"name":"facetFunctionSelectors_","type":"bytes4[]","internalType":"bytes4[]"}],"stateMutability":"view"},{"type":"function","name":"facets","inputs":[],"outputs":[{"name":"facets_","type":"tuple[]","internalType":"struct IDiamondLoupe.Facet[]","components":[{"name":"facetAddress","type":"address","internalType":"address"},{"name":"functionSelectors","type":"bytes4[]","internalType":"bytes4[]"}]}],"stateMutability":"view"},{"type":"function","name":"getBorrowingRates","inputs":[{"name":"token_","type":"address","internalType":"address"}],"outputs":[{"name":"","type":"uint256","internalType":"uint256"}],"stateMutability":"view"},{"type":"function","name":"getUserAccountData","inputs":[{"name":"user_","type":"address","internalType":"address"}],"outputs":[{"name":"userData","type":"tuple","internalType":"struct UserAccountData","components":[{"name":"internalAccount","type":"address","internalType":"address"},{"name":"totalCollateralBase","type":"uint256","internalType":"uint256"},{"name":"totalDebtBase","type":"uint256","internalType":"uint256"},{"name":"availableBorrowsBase","type":"uint256","internalType":"uint256"},{"name":"currentLiquidationThreshold","type":"uint256","internalType":"uint256"},{"name":"ltv","type":"uint256","internalType":"uint256"},{"name":"healthFactor","type":"uint256","internalType":"uint256"}]}],"stateMutability":"view"},{"type":"function","name":"supportsInterface","inputs":[{"name":"_interfaceId","type":"bytes4","internalType":"bytes4"}],"outputs":[{"name":"","type":"bool","internalType":"bool"}],"stateMutability":"view"}],"bytecode":{"object":"0x6080604052348015600e575f80fd5b50610dad8061001c5f395ff3fe608060405234801561000f575f80fd5b506004361061007a575f3560e01c8063a867251511610058578063a867251514610108578063adfca15e14610129578063bf92857c14610149578063cdffacc6146101b6575f80fd5b806301ffc9a71461007e57806352ef6b2c146100de5780637a0ed627146100f3575b5f80fd5b6100c961008c36600461084a565b6001600160e01b0319165f9081527fc8fcad8db84d3cc18b4c41d551ea0ee66dd599cde068d998e57d5e09332c131f602052604090205460ff1690565b60405190151581526020015b60405180910390f35b6100e661020c565b6040516100d59190610871565b6100fb61027b565b6040516100d591906108bc565b61011b610116366004610987565b61042f565b6040519081526020016100d5565b61013c610137366004610987565b61050a565b6040516100d591906109a2565b61015c610157366004610987565b6105d1565b6040516100d5919081516001600160a01b031681526020808301519082015260408083015190820152606080830151908201526080808301519082015260a0828101519082015260c0918201519181019190915260e00190565b6101f46101c436600461084a565b6001600160e01b0319165f9081525f80516020610d5883398151915260205260409020546001600160a01b031690565b6040516001600160a01b0390911681526020016100d5565b60605f5f80516020610d588339815191526002810180546040805160208084028201810190925282815293945083018282801561027057602002820191905f5260205f20905b81546001600160a01b03168152600190910190602001808311610252575b505050505091505090565b7fc8fcad8db84d3cc18b4c41d551ea0ee66dd599cde068d998e57d5e09332c131e546060905f80516020610d58833981519152908067ffffffffffffffff8111156102c8576102c86109e3565b60405190808252806020026020018201604052801561030d57816020015b604080518082019091525f8152606060208201528152602001906001900390816102e65790505b5092505f5b81811015610429575f836002018281548110610330576103306109f7565b905f5260205f20015f9054906101000a90046001600160a01b0316905080858381518110610360576103606109f7565b6020908102919091018101516001600160a01b0392831690529082165f908152600186018252604090819020805482518185028101850190935280835291929091908301828280156103fb57602002820191905f5260205f20905f905b82829054906101000a900460e01b6001600160e01b031916815260200190600401906020826003010492830192600103820291508084116103bd5790505b5050505050858381518110610412576104126109f7565b602090810291909101810151015250600101610312565b50505090565b6002546040516335ea6a7560e01b81526001600160a01b0383811660048301525f9283929116906335ea6a75906024016101e060405180830381865afa15801561047b573d5f803e3d5ffd5b505050506040513d601f19601f8201168201806040525081019061049f9190610ad8565b6080015190506104e460405180604001604052806005815260200164030b8391d160dd1b815250633b9aca00836001600160801b03166104df9190610c2a565b6106fb565b6105036104f5633b9aca0083610c3d565b6001600160801b0316610744565b9392505050565b6001600160a01b0381165f9081527fc8fcad8db84d3cc18b4c41d551ea0ee66dd599cde068d998e57d5e09332c131d602090815260409182902080548351818402810184019094528084526060935f80516020610d5883398151915293909291908301828280156105c457602002820191905f5260205f20905f905b82829054906101000a900460e01b6001600160e01b031916815260200190600401906020826003010492830192600103820291508084116105865790505b5050505050915050919050565b6106136040518060e001604052805f6001600160a01b031681526020015f81526020015f81526020015f81526020015f81526020015f81526020015f81525090565b6001600160a01b038281165f9081526101266020526040808220546002549151632fe4a15f60e21b815290841660048201819052938392839283928392839291169063bf92857c9060240160c060405180830381865afa158015610679573d5f803e3d5ffd5b505050506040513d601f19601f8201168201806040525081019061069d9190610c6a565b9550955095509550955095506040518060e00160405280886001600160a01b031681526020018781526020018681526020016106d8866107c7565b815260200184815260200183815260200182815250975050505050505050919050565b6107408282604051602401610711929190610cb0565b60408051601f198184030181529190526020810180516001600160e01b03166309710a9d60e41b179052610803565b5050565b5f670de0b6b3a7640000828181600161075d8284610d02565b9250600290505b600a81116107b0576107768186610d15565b6107808584610d15565b61078a9190610c2a565b915081156107b05761079c8284610d02565b9250806107a881610d2c565b915050610764565b5f6107bb8685610d44565b98975050505050505050565b5f60646107e9836127105f60150154600a6107e29190610d02565b919061080f565b6107f39084610d44565b6107fd9190610c2a565b92915050565b61080c8161082a565b50565b5f825f190484118302158202610823575f80fd5b5091020490565b80516a636f6e736f6c652e6c6f67602083015f808483855afa5050505050565b5f6020828403121561085a575f80fd5b81356001600160e01b031981168114610503575f80fd5b602080825282518282018190525f918401906040840190835b818110156108b15783516001600160a01b031683526020938401939092019160010161088a565b509095945050505050565b5f602082016020835280845180835260408501915060408160051b8601019250602086015f5b8281101561096757868503603f19018452815180516001600160a01b03168652602090810151604082880181905281519088018190529101905f9060608801905b8083101561094f5783516001600160e01b03191682526020938401936001939093019290910190610923565b509650505060209384019391909101906001016108e2565b50929695505050505050565b6001600160a01b038116811461080c575f80fd5b5f60208284031215610997575f80fd5b813561050381610973565b602080825282518282018190525f918401906040840190835b818110156108b15783516001600160e01b0319168352602093840193909201916001016109bb565b634e487b7160e01b5f52604160045260245ffd5b634e487b7160e01b5f52603260045260245ffd5b6040516101e0810167ffffffffffffffff81118282101715610a3b57634e487b7160e01b5f52604160045260245ffd5b60405290565b5f60208284031215610a51575f80fd5b6040516020810167ffffffffffffffff81118282101715610a8057634e487b7160e01b5f52604160045260245ffd5b6040529151825250919050565b80516001600160801b0381168114610aa3575f80fd5b919050565b805164ffffffffff81168114610aa3575f80fd5b805161ffff81168114610aa3575f80fd5b8051610aa381610973565b5f6101e0828403128015610aea575f80fd5b50610af3610a0b565b610afd8484610a41565b8152610b0b60208401610a8d565b6020820152610b1c60408401610a8d565b6040820152610b2d60608401610a8d565b6060820152610b3e60808401610a8d565b6080820152610b4f60a08401610a8d565b60a0820152610b6060c08401610aa8565b60c0820152610b7160e08401610abc565b60e0820152610b836101008401610acd565b610100820152610b966101208401610acd565b610120820152610ba96101408401610acd565b610140820152610bbc6101608401610acd565b610160820152610bcf6101808401610a8d565b610180820152610be26101a08401610a8d565b6101a0820152610bf56101c08401610a8d565b6101c08201529392505050565b634e487b7160e01b5f52601260045260245ffd5b634e487b7160e01b5f52601160045260245ffd5b5f82610c3857610c38610c02565b500490565b5f6001600160801b03831680610c5557610c55610c02565b806001600160801b0384160491505092915050565b5f805f805f8060c08789031215610c7f575f80fd5b50508451602086015160408701516060880151608089015160a090990151939a929950909790965094509092509050565b604081525f83518060408401525f5b81811015610cdc5760208187018101516060868401015201610cbf565b505f606082850101526060601f19601f8301168401019150508260208301529392505050565b808201808211156107fd576107fd610c16565b80820281158282048414176107fd576107fd610c16565b5f60018201610d3d57610d3d610c16565b5060010190565b818103818111156107fd576107fd610c1656fec8fcad8db84d3cc18b4c41d551ea0ee66dd599cde068d998e57d5e09332c131ca2646970667358221220765f2244aec6a4e7426396ef33518d74abe5ff1d762cec4546bf94cd3ee6c52364736f6c634300081a0033","linkReferences":{}},"methodIdentifiers":{"facetAddress(bytes4)":"cdffacc6","facetAddresses()":"52ef6b2c","facetFunctionSelectors(address)":"adfca15e","facets()":"7a0ed627","getBorrowingRates(address)":"a8672515","getUserAccountData(address)":"bf92857c","supportsInterface(bytes4)":"01ffc9a7"},"id":10}