{"abi":[{"type":"function","name":"facetAddress","inputs":[{"name":"_functionSelector","type":"bytes4","internalType":"bytes4"}],"outputs":[{"name":"facetAddress_","type":"address","internalType":"address"}],"stateMutability":"view"},{"type":"function","name":"facetAddresses","inputs":[],"outputs":[{"name":"facetAddresses_","type":"address[]","internalType":"address[]"}],"stateMutability":"view"},{"type":"function","name":"facetFunctionSelectors","inputs":[{"name":"_facet","type":"address","internalType":"address"}],"outputs":[{"name":"facetFunctionSelectors_","type":"bytes4[]","internalType":"bytes4[]"}],"stateMutability":"view"},{"type":"function","name":"facets","inputs":[],"outputs":[{"name":"facets_","type":"tuple[]","internalType":"struct IDiamondLoupe.Facet[]","components":[{"name":"facetAddress","type":"address","internalType":"address"},{"name":"functionSelectors","type":"bytes4[]","internalType":"bytes4[]"}]}],"stateMutability":"view"},{"type":"function","name":"getUserAccountData","inputs":[{"name":"user_","type":"address","internalType":"address"}],"outputs":[{"name":"userData","type":"tuple","internalType":"struct UserAccountData","components":[{"name":"internalAccount","type":"address","internalType":"address"},{"name":"totalCollateralBase","type":"uint256","internalType":"uint256"},{"name":"totalDebtBase","type":"uint256","internalType":"uint256"},{"name":"availableBorrowsBase","type":"uint256","internalType":"uint256"},{"name":"currentLiquidationThreshold","type":"uint256","internalType":"uint256"},{"name":"ltv","type":"uint16","internalType":"uint16"},{"name":"healthFactor","type":"uint256","internalType":"uint256"}]}],"stateMutability":"view"},{"type":"function","name":"getUserAccountData2","inputs":[{"name":"user_","type":"address","internalType":"address"}],"outputs":[{"name":"userData","type":"tuple","internalType":"struct UserAccountData","components":[{"name":"internalAccount","type":"address","internalType":"address"},{"name":"totalCollateralBase","type":"uint256","internalType":"uint256"},{"name":"totalDebtBase","type":"uint256","internalType":"uint256"},{"name":"availableBorrowsBase","type":"uint256","internalType":"uint256"},{"name":"currentLiquidationThreshold","type":"uint256","internalType":"uint256"},{"name":"ltv","type":"uint16","internalType":"uint16"},{"name":"healthFactor","type":"uint256","internalType":"uint256"}]}],"stateMutability":"view"},{"type":"function","name":"supportsInterface","inputs":[{"name":"_interfaceId","type":"bytes4","internalType":"bytes4"}],"outputs":[{"name":"","type":"bool","internalType":"bool"}],"stateMutability":"view"}],"bytecode":{"object":"0x6080604052348015600e575f80fd5b506108c68061001c5f395ff3fe608060405234801561000f575f80fd5b506004361061007a575f3560e01c8063adfca15e11610058578063adfca15e14610108578063bf92857c14610128578063cdffacc614610199578063db8097a6146101ef575f80fd5b806301ffc9a71461007e57806352ef6b2c146100de5780637a0ed627146100f3575b5f80fd5b6100c961008c36600461068a565b6001600160e01b0319165f9081527fc8fcad8db84d3cc18b4c41d551ea0ee66dd599cde068d998e57d5e09332c131f602052604090205460ff1690565b60405190151581526020015b60405180910390f35b6100e6610202565b6040516100d591906106b8565b6100fb610271565b6040516100d59190610747565b61011b6101163660046107ca565b610425565b6040516100d591906107f0565b61013b6101363660046107ca565b6104ec565b6040516100d5919081516001600160a01b031681526020808301519082015260408083015190820152606080830151908201526080808301519082015260a08281015161ffff169082015260c0918201519181019190915260e00190565b6101d76101a736600461068a565b6001600160e01b0319165f9081525f8051602061087183398151915260205260409020546001600160a01b031690565b6040516001600160a01b0390911681526020016100d5565b61013b6101fd3660046107ca565b610567565b60605f5f805160206108718339815191526002810180546040805160208084028201810190925282815293945083018282801561026657602002820191905f5260205f20905b81546001600160a01b03168152600190910190602001808311610248575b505050505091505090565b7fc8fcad8db84d3cc18b4c41d551ea0ee66dd599cde068d998e57d5e09332c131e546060905f80516020610871833981519152908067ffffffffffffffff8111156102be576102be610802565b60405190808252806020026020018201604052801561030357816020015b604080518082019091525f8152606060208201528152602001906001900390816102dc5790505b5092505f5b8181101561041f575f83600201828154811061032657610326610816565b905f5260205f20015f9054906101000a90046001600160a01b031690508085838151811061035657610356610816565b6020908102919091018101516001600160a01b0392831690529082165f908152600186018252604090819020805482518185028101850190935280835291929091908301828280156103f157602002820191905f5260205f20905f905b82829054906101000a900460e01b6001600160e01b031916815260200190600401906020826003010492830192600103820291508084116103b35790505b505050505085838151811061040857610408610816565b602090810291909101810151015250600101610308565b50505090565b6001600160a01b0381165f9081527fc8fcad8db84d3cc18b4c41d551ea0ee66dd599cde068d998e57d5e09332c131d602090815260409182902080548351818402810184019094528084526060935f8051602061087183398151915293909291908301828280156104df57602002820191905f5260205f20905f905b82829054906101000a900460e01b6001600160e01b031916815260200190600401906020826003010492830192600103820291508084116104a15790505b5050505050915050919050565b6104f4610647565b506001600160a01b039081165f90815261012b6020908152604091829020825160e081018452815490941684526001810154918401919091526002810154918301919091526003810154606083015260048101546080830152600581015461ffff1660a08301526006015460c082015290565b61056f610647565b6001600160a01b038281165f9081526101266020526040808220546002549151632fe4a15f60e21b815290841660048201819052938392839283928392839291169063bf92857c9060240160c060405180830381865afa1580156105d5573d5f803e3d5ffd5b505050506040513d601f19601f820116820180604052508101906105f9919061082a565b6040805160e0810182526001600160a01b03909e168e5260208e0196909652948c019390935260608b019190915260808a015261ffff1660a089015260c08801525094979650505050505050565b6040518060e001604052805f6001600160a01b031681526020015f81526020015f81526020015f81526020015f81526020015f61ffff1681526020015f81525090565b5f6020828403121561069a575f80fd5b81356001600160e01b0319811681146106b1575f80fd5b9392505050565b602080825282518282018190525f918401906040840190835b818110156106f85783516001600160a01b03168352602093840193909201916001016106d1565b509095945050505050565b5f8151808452602084019350602083015f5b8281101561073d5781516001600160e01b031916865260209586019590910190600101610715565b5093949350505050565b5f602082016020835280845180835260408501915060408160051b8601019250602086015f5b828110156107be57868503603f19018452815180516001600160a01b031686526020908101516040918701829052906107a890870182610703565b955050602093840193919091019060010161076d565b50929695505050505050565b5f602082840312156107da575f80fd5b81356001600160a01b03811681146106b1575f80fd5b602081525f6106b16020830184610703565b634e487b7160e01b5f52604160045260245ffd5b634e487b7160e01b5f52603260045260245ffd5b5f805f805f8060c0878903121561083f575f80fd5b50508451602086015160408701516060880151608089015160a090990151939a92995090979096509450909250905056fec8fcad8db84d3cc18b4c41d551ea0ee66dd599cde068d998e57d5e09332c131ca2646970667358221220ea4d5b0b49a2880ef120a117031a52a3c11864239a2b874b6b8057ea1c5ae25d64736f6c634300081a0033","linkReferences":{}},"methodIdentifiers":{"facetAddress(bytes4)":"cdffacc6","facetAddresses()":"52ef6b2c","facetFunctionSelectors(address)":"adfca15e","facets()":"7a0ed627","getUserAccountData(address)":"bf92857c","getUserAccountData2(address)":"db8097a6","supportsInterface(bytes4)":"01ffc9a7"},"id":12}