{"abi":[{"type":"function","name":"facetAddress","inputs":[{"name":"_functionSelector","type":"bytes4","internalType":"bytes4"}],"outputs":[{"name":"facetAddress_","type":"address","internalType":"address"}],"stateMutability":"view"},{"type":"function","name":"facetAddresses","inputs":[],"outputs":[{"name":"facetAddresses_","type":"address[]","internalType":"address[]"}],"stateMutability":"view"},{"type":"function","name":"facetFunctionSelectors","inputs":[{"name":"_facet","type":"address","internalType":"address"}],"outputs":[{"name":"facetFunctionSelectors_","type":"bytes4[]","internalType":"bytes4[]"}],"stateMutability":"view"},{"type":"function","name":"facets","inputs":[],"outputs":[{"name":"facets_","type":"tuple[]","internalType":"struct IDiamondLoupe.Facet[]","components":[{"name":"facetAddress","type":"address","internalType":"address"},{"name":"functionSelectors","type":"bytes4[]","internalType":"bytes4[]"}]}],"stateMutability":"view"},{"type":"function","name":"getUserAccountData","inputs":[{"name":"user_","type":"address","internalType":"address"}],"outputs":[{"name":"userData","type":"tuple","internalType":"struct UserAccountData","components":[{"name":"internalAccount","type":"address","internalType":"address"},{"name":"totalCollateralBase","type":"uint256","internalType":"uint256"},{"name":"totalDebtBase","type":"uint256","internalType":"uint256"},{"name":"availableBorrowsBase","type":"uint256","internalType":"uint256"},{"name":"currentLiquidationThreshold","type":"uint256","internalType":"uint256"},{"name":"ltv","type":"uint256","internalType":"uint256"},{"name":"healthFactor","type":"uint256","internalType":"uint256"}]}],"stateMutability":"view"},{"type":"function","name":"supportsInterface","inputs":[{"name":"_interfaceId","type":"bytes4","internalType":"bytes4"}],"outputs":[{"name":"","type":"bool","internalType":"bool"}],"stateMutability":"view"}],"bytecode":{"object":"0x6080604052348015600e575f80fd5b506108d18061001c5f395ff3fe608060405234801561000f575f80fd5b5060043610610060575f3560e01c806301ffc9a71461006457806352ef6b2c146100c45780637a0ed627146100d9578063adfca15e146100ee578063bf92857c1461010e578063cdffacc61461017b575b5f80fd5b6100af61007236600461063c565b6001600160e01b0319165f9081527fc8fcad8db84d3cc18b4c41d551ea0ee66dd599cde068d998e57d5e09332c131f602052604090205460ff1690565b60405190151581526020015b60405180910390f35b6100cc6101d1565b6040516100bb919061066a565b6100e1610240565b6040516100bb91906106f9565b6101016100fc36600461077c565b6103f4565b6040516100bb91906107a2565b61012161011c36600461077c565b6104bb565b6040516100bb919081516001600160a01b031681526020808301519082015260408083015190820152606080830151908201526080808301519082015260a0828101519082015260c0918201519181019190915260e00190565b6101b961018936600461063c565b6001600160e01b0319165f9081525f8051602061087c83398151915260205260409020546001600160a01b031690565b6040516001600160a01b0390911681526020016100bb565b60605f5f8051602061087c8339815191526002810180546040805160208084028201810190925282815293945083018282801561023557602002820191905f5260205f20905b81546001600160a01b03168152600190910190602001808311610217575b505050505091505090565b7fc8fcad8db84d3cc18b4c41d551ea0ee66dd599cde068d998e57d5e09332c131e546060905f8051602061087c833981519152908067ffffffffffffffff81111561028d5761028d6107b4565b6040519080825280602002602001820160405280156102d257816020015b604080518082019091525f8152606060208201528152602001906001900390816102ab5790505b5092505f5b818110156103ee575f8360020182815481106102f5576102f56107c8565b905f5260205f20015f9054906101000a90046001600160a01b0316905080858381518110610325576103256107c8565b6020908102919091018101516001600160a01b0392831690529082165f908152600186018252604090819020805482518185028101850190935280835291929091908301828280156103c057602002820191905f5260205f20905f905b82829054906101000a900460e01b6001600160e01b031916815260200190600401906020826003010492830192600103820291508084116103825790505b50505050508583815181106103d7576103d76107c8565b6020908102919091018101510152506001016102d7565b50505090565b6001600160a01b0381165f9081527fc8fcad8db84d3cc18b4c41d551ea0ee66dd599cde068d998e57d5e09332c131d602090815260409182902080548351818402810184019094528084526060935f8051602061087c83398151915293909291908301828280156104ae57602002820191905f5260205f20905f905b82829054906101000a900460e01b6001600160e01b031916815260200190600401906020826003010492830192600103820291508084116104705790505b5050505050915050919050565b6104fd6040518060e001604052805f6001600160a01b031681526020015f81526020015f81526020015f81526020015f81526020015f81526020015f81525090565b6001600160a01b038281165f9081526101266020526040808220546002549151632fe4a15f60e21b815290841660048201819052938392839283928392839291169063bf92857c9060240160c060405180830381865afa158015610563573d5f803e3d5ffd5b505050506040513d601f19601f8201168201806040525081019061058791906107dc565b9550955095509550955095506040518060e00160405280886001600160a01b031681526020018781526020018681526020016105c2866105e5565b815260200184815260200183815260200182815250975050505050505050919050565b5f6064610607836127105f60150154600a6106009190610836565b9190610621565b6106119084610849565b61061b919061085c565b92915050565b5f825f190484118302158202610635575f80fd5b5091020490565b5f6020828403121561064c575f80fd5b81356001600160e01b031981168114610663575f80fd5b9392505050565b602080825282518282018190525f918401906040840190835b818110156106aa5783516001600160a01b0316835260209384019390920191600101610683565b509095945050505050565b5f8151808452602084019350602083015f5b828110156106ef5781516001600160e01b0319168652602095860195909101906001016106c7565b5093949350505050565b5f602082016020835280845180835260408501915060408160051b8601019250602086015f5b8281101561077057868503603f19018452815180516001600160a01b0316865260209081015160409187018290529061075a908701826106b5565b955050602093840193919091019060010161071f565b50929695505050505050565b5f6020828403121561078c575f80fd5b81356001600160a01b0381168114610663575f80fd5b602081525f61066360208301846106b5565b634e487b7160e01b5f52604160045260245ffd5b634e487b7160e01b5f52603260045260245ffd5b5f805f805f8060c087890312156107f1575f80fd5b50508451602086015160408701516060880151608089015160a090990151939a929950909790965094509092509050565b634e487b7160e01b5f52601160045260245ffd5b8082018082111561061b5761061b610822565b8181038181111561061b5761061b610822565b5f8261087657634e487b7160e01b5f52601260045260245ffd5b50049056fec8fcad8db84d3cc18b4c41d551ea0ee66dd599cde068d998e57d5e09332c131ca26469706673582212200615f626447e86bc50d79fb80b5fae7e325f5be366649ed3cc62544fe6623e6764736f6c634300081a0033","linkReferences":{}},"methodIdentifiers":{"facetAddress(bytes4)":"cdffacc6","facetAddresses()":"52ef6b2c","facetFunctionSelectors(address)":"adfca15e","facets()":"7a0ed627","getUserAccountData(address)":"bf92857c","supportsInterface(bytes4)":"01ffc9a7"},"id":10}