{"abi":[{"type":"function","name":"abs","inputs":[{"name":"num","type":"int256","internalType":"int256"}],"outputs":[{"name":"","type":"uint256","internalType":"uint256"}],"stateMutability":"pure"}],"bytecode":{"object":"0x60e1610033600b8282823980515f1a607314602757634e487b7160e01b5f525f60045260245ffd5b305f52607381538281f3fe73000000000000000000000000000000000000000030146080604052600436106032575f3560e01c80631b5ac4b5146036575b5f80fd5b604560413660046070565b6057565b60405190815260200160405180910390f35b5f80821215606c576066826086565b92915050565b5090565b5f60208284031215607f575f80fd5b5035919050565b5f600160ff1b820160a557634e487b7160e01b5f52601160045260245ffd5b505f039056fea2646970667358221220ee06b73fae21fb9ca04ee4cfcb4635236d2a729e83e1f794db60add23780d00564736f6c634300081a0033","linkReferences":{}},"methodIdentifiers":{"abs(int256)":"1b5ac4b5"},"id":18}