{"abi":[{"type":"function","name":"test2Func1","inputs":[],"outputs":[],"stateMutability":"nonpayable"},{"type":"function","name":"test2Func10","inputs":[],"outputs":[],"stateMutability":"nonpayable"},{"type":"function","name":"test2Func11","inputs":[],"outputs":[],"stateMutability":"nonpayable"},{"type":"function","name":"test2Func12","inputs":[],"outputs":[],"stateMutability":"nonpayable"},{"type":"function","name":"test2Func13","inputs":[],"outputs":[],"stateMutability":"nonpayable"},{"type":"function","name":"test2Func14","inputs":[],"outputs":[],"stateMutability":"nonpayable"},{"type":"function","name":"test2Func15","inputs":[],"outputs":[],"stateMutability":"nonpayable"},{"type":"function","name":"test2Func16","inputs":[],"outputs":[],"stateMutability":"nonpayable"},{"type":"function","name":"test2Func17","inputs":[],"outputs":[],"stateMutability":"nonpayable"},{"type":"function","name":"test2Func18","inputs":[],"outputs":[],"stateMutability":"nonpayable"},{"type":"function","name":"test2Func19","inputs":[],"outputs":[],"stateMutability":"nonpayable"},{"type":"function","name":"test2Func2","inputs":[],"outputs":[],"stateMutability":"nonpayable"},{"type":"function","name":"test2Func20","inputs":[],"outputs":[],"stateMutability":"nonpayable"},{"type":"function","name":"test2Func3","inputs":[],"outputs":[],"stateMutability":"nonpayable"},{"type":"function","name":"test2Func4","inputs":[],"outputs":[],"stateMutability":"nonpayable"},{"type":"function","name":"test2Func5","inputs":[],"outputs":[],"stateMutability":"nonpayable"},{"type":"function","name":"test2Func6","inputs":[],"outputs":[],"stateMutability":"nonpayable"},{"type":"function","name":"test2Func7","inputs":[],"outputs":[],"stateMutability":"nonpayable"},{"type":"function","name":"test2Func8","inputs":[],"outputs":[],"stateMutability":"nonpayable"},{"type":"function","name":"test2Func9","inputs":[],"outputs":[],"stateMutability":"nonpayable"}],"bytecode":{"object":"0x6080604052348015600e575f80fd5b506101638061001c5f395ff3fe608060405234801561000f575f80fd5b5060043610610127575f3560e01c80638ee8be30116100a9578063d2f0c73e1161006e578063d2f0c73e1461012b578063e5f687b21461012b578063e7de23a41461012b578063ea36b5581461012b578063ef3f4d781461012b575f80fd5b80638ee8be301461012b57806391d0396b1461012b578063c670641d1461012b578063ca5fa5c01461012b578063caae8f231461012b575f80fd5b80632e463958116100ef5780632e4639581461012b5780635fd6312b1461012b5780636dc16b011461012b578063792a8e2e1461012b578063884280a61461012b575f80fd5b806303feeeae1461012b5780630c103a931461012b5780630e4cd7fc1461012b578063148843091461012b57806317fd06e71461012b575b5f80fd5b00fea2646970667358221220d00785fcdc7ea649e5d601606446201015e676469c7f1310c91a97e394de4bfa64736f6c634300081a0033","linkReferences":{}},"methodIdentifiers":{"test2Func1()":"ea36b558","test2Func10()":"8ee8be30","test2Func11()":"884280a6","test2Func12()":"ca5fa5c0","test2Func13()":"6dc16b01","test2Func14()":"91d0396b","test2Func15()":"03feeeae","test2Func16()":"2e463958","test2Func17()":"14884309","test2Func18()":"0c103a93","test2Func19()":"5fd6312b","test2Func2()":"e7de23a4","test2Func20()":"792a8e2e","test2Func3()":"0e4cd7fc","test2Func4()":"c670641d","test2Func5()":"d2f0c73e","test2Func6()":"17fd06e7","test2Func7()":"ef3f4d78","test2Func8()":"e5f687b2","test2Func9()":"caae8f23"},"id":7}