{"abi":[{"type":"function","name":"quotePT","inputs":[],"outputs":[{"name":"","type":"uint256","internalType":"uint256"}],"stateMutability":"view"}],"bytecode":{"object":"0x6080604052348015600e575f80fd5b50610ea88061001c5f395ff3fe608060405234801561000f575f80fd5b5060043610610029575f3560e01c806301efa05d1461002d575b5f80fd5b610035610047565b60405190815260200160405180910390f35b6019546040516370a0823160e01b81523060048201525f9182916001600160a01b03909116906370a0823190602401602060405180830381865afa158015610091573d5f803e3d5ffd5b505050506040513d601f19601f820116820180604052508101906100b59190610b5e565b6013549091505f906100ca90836127106101b2565b90505f6100d78284610b89565b90506101116040518060400160405280601681526020017503130b630b731b2a82a1034b71038bab7ba32a82a1d160551b815250846101cd565b61013d6040518060400160405280600a81526020016903234b9b1b7bab73a1d160b51b815250836101cd565b61016d6040518060400160405280600e81526020016d03234b9b1b7bab73a32b2282a1d160951b815250826101cd565b6012546004545f91610192916001600160a01b03169063ffffffff9081169061021616565b90505f6101a88383670de0b6b3a76400006101b2565b9695505050505050565b5f825f1904841183021582026101c6575f80fd5b5091020490565b61021282826040516024016101e3929190610b9c565b60408051601f198184030181529190526020810180516001600160e01b03166309710a9d60e41b179052610266565b5050565b5f805f61022285610272565b91509150808210610240576102378585610495565b92505050610260565b808261024c8787610495565b6102569190610bee565b6102379190610c19565b92915050565b61026f8161055d565b50565b5f805f80846001600160a01b0316632c8ce6bc6040518163ffffffff1660e01b8152600401606060405180830381865afa1580156102b2573d5f803e3d5ffd5b505050506040513d601f19601f820116820180604052508101906102d69190610c40565b9250509150816001600160a01b0316633ba0b9a96040518163ffffffff1660e01b8152600401602060405180830381865afa158015610317573d5f803e3d5ffd5b505050506040513d601f19601f8201168201806040525081019061033b9190610b5e565b93505f816001600160a01b031663d2a3584e6040518163ffffffff1660e01b8152600401602060405180830381865afa15801561037a573d5f803e3d5ffd5b505050506040513d601f19601f8201168201806040525081019061039e9190610b5e565b9050816001600160a01b031663516399df6040518163ffffffff1660e01b8152600401602060405180830381865afa1580156103dc573d5f803e3d5ffd5b505050506040513d601f19601f820116820180604052508101906104009190610c8a565b8015610473575043826001600160a01b03166360e0a9e16040518163ffffffff1660e01b8152600401602060405180830381865afa158015610444573d5f803e3d5ffd5b505050506040513d601f19601f820116820180604052508101906104689190610ca9565b6001600160801b0316145b156104805780935061048d565b61048a858261057d565b93505b505050915091565b5f80836001600160a01b031663e184c9be6040518163ffffffff1660e01b8152600401602060405180830381865afa1580156104d3573d5f803e3d5ffd5b505050506040513d601f19601f820116820180604052508101906104f79190610b5e565b905042811161051157670de0b6b3a7640000915050610260565b5f61051c8585610594565b90505f6105294284610b89565b90505f61053e61053984846106b3565b6106f3565b9050610552670de0b6b3a764000082610704565b945050505050610260565b80516a636f6e736f6c652e6c6f67602083015f808483855afa5050505050565b5f81831161058b578161058d565b825b9392505050565b6040805160028082526060820183525f928392919060208301908036833701905050905082815f815181106105cb576105cb610ce3565b63ffffffff9092166020928302919091019091015260405163883bdbfd60e01b81525f906001600160a01b0386169063883bdbfd9061060e908590600401610cf7565b5f60405180830381865afa158015610628573d5f803e3d5ffd5b505050506040513d5f823e601f3d908101601f1916820160405261064f9190810190610d5a565b90508363ffffffff16815f8151811061066a5761066a610ce3565b60200260200101518260018151811061068557610685610ce3565b60200260200101516106979190610e25565b6106a19190610e44565b6001600160d81b031695945050505050565b5f806106c46201518061016d610bee565b6106ce8486610bee565b6106d89190610c19565b90506106eb6106e682610732565b610746565b949350505050565b5f80821215610700575f80fd5b5090565b5f80610718670de0b6b3a764000085610bee565b905082818161072957610729610c05565b04949350505050565b5f6001600160ff1b03821115610700575f80fd5b5f680238fd42c5cf03ffff19821215801561076a575068070c1cc73b00c800008213155b6107ad5760405162461bcd60e51b815260206004820152601060248201526f125b9d985b1a5908195e1c1bdb995b9d60821b604482015260640160405180910390fd5b5f8212156107e4576107c0825f03610746565b6ec097ce7bc90715b34b9f1000000000816107dd576107dd610c05565b0592915050565b5f6806f05b59d3b2000000831261082357506806f05b59d3b1ffffff1990910190770195e54c5dd42177f53a27172fa9ec630262827000000000610859565b6803782dace9d9000000831261085557506803782dace9d8ffffff19909101906b1425982cf597cd205cef7380610859565b5060015b6064929092029168056bc75e2d6310000068ad78ebc5ac6200000084126108a95768ad78ebc5ac61ffffff199093019268056bc75e2d631000006e01855144814a7ff805980ff008400082020590505b6856bc75e2d63100000084126108e5576856bc75e2d630ffffff199093019268056bc75e2d631000006b02df0ab5a80a22c61ab5a70082020590505b682b5e3af16b18800000841261091f57682b5e3af16b187fffff199093019268056bc75e2d63100000693f1fce3da636ea5cf85082020590505b6815af1d78b58c4000008412610959576815af1d78b58c3fffff199093019268056bc75e2d63100000690127fa27722cc06cc5e282020590505b680ad78ebc5ac6200000841261099257680ad78ebc5ac61fffff199093019268056bc75e2d6310000068280e60114edb805d0382020590505b68056bc75e2d6310000084126109cb5768056bc75e2d630fffff199093019268056bc75e2d63100000680ebc5fb4174612111082020590505b6802b5e3af16b18800008412610a04576802b5e3af16b187ffff199093019268056bc75e2d631000006808f00f760a4b2db55d82020590505b68015af1d78b58c400008412610a3d5768015af1d78b58c3ffff199093019268056bc75e2d631000006806f5f177578893793782020590505b68056bc75e2d631000008481019085906002908280020505918201919050600368056bc75e2d631000008783020505918201919050600468056bc75e2d631000008783020505918201919050600568056bc75e2d631000008783020505918201919050600668056bc75e2d631000008783020505918201919050600768056bc75e2d631000008783020505918201919050600868056bc75e2d631000008783020505918201919050600968056bc75e2d631000008783020505918201919050600a68056bc75e2d631000008783020505918201919050600b68056bc75e2d631000008783020505918201919050600c68056bc75e2d631000008783020505918201919050606468056bc75e2d63100000848402058502059695505050505050565b5f60208284031215610b6e575f80fd5b5051919050565b634e487b7160e01b5f52601160045260245ffd5b8181038181111561026057610260610b75565b604081525f83518060408401525f5b81811015610bc85760208187018101516060868401015201610bab565b505f606082850101526060601f19601f8301168401019150508260208301529392505050565b808202811582820484141761026057610260610b75565b634e487b7160e01b5f52601260045260245ffd5b5f82610c2757610c27610c05565b500490565b6001600160a01b038116811461026f575f80fd5b5f805f60608486031215610c52575f80fd5b8351610c5d81610c2c565b6020850151909350610c6e81610c2c565b6040850151909250610c7f81610c2c565b809150509250925092565b5f60208284031215610c9a575f80fd5b8151801515811461058d575f80fd5b5f60208284031215610cb9575f80fd5b81516001600160801b038116811461058d575f80fd5b634e487b7160e01b5f52604160045260245ffd5b634e487b7160e01b5f52603260045260245ffd5b602080825282518282018190525f918401906040840190835b81811015610d3457835163ffffffff16835260209384019390920191600101610d10565b509095945050505050565b80516001600160d81b0381168114610d55575f80fd5b919050565b5f60208284031215610d6a575f80fd5b815167ffffffffffffffff811115610d80575f80fd5b8201601f81018413610d90575f80fd5b805167ffffffffffffffff811115610daa57610daa610ccf565b8060051b604051601f19603f830116810181811067ffffffffffffffff82111715610dd757610dd7610ccf565b604052918252602081840181019290810187841115610df4575f80fd5b6020850194505b83851015610e1a57610e0c85610d3f565b815260209485019401610dfb565b509695505050505050565b6001600160d81b03828116828216039081111561026057610260610b75565b5f6001600160d81b03831680610e5c57610e5c610c05565b6001600160d81b0392909216919091049291505056fea2646970667358221220b6047aea14c086b69eadfbfe5539f453d54746eed90c9b2e05fe2f20562e8d8b64736f6c634300081a0033","linkReferences":{}},"methodIdentifiers":{"quotePT()":"01efa05d"},"id":8}