{"abi":[{"type":"function","name":"getBorrowingRates","inputs":[{"name":"token_","type":"address","internalType":"address"}],"outputs":[{"name":"","type":"uint256","internalType":"uint256"}],"stateMutability":"view"},{"type":"function","name":"getSupplyRates","inputs":[{"name":"token_","type":"address","internalType":"address"}],"outputs":[{"name":"","type":"uint256","internalType":"uint256"},{"name":"","type":"uint256","internalType":"uint256"}],"stateMutability":"view"},{"type":"function","name":"getVariableBorrowAPY","inputs":[],"outputs":[{"name":"apy","type":"uint256","internalType":"uint256"}],"stateMutability":"view"},{"type":"function","name":"getVariableSupplyAPY","inputs":[],"outputs":[{"name":"","type":"uint256","internalType":"uint256"}],"stateMutability":"view"},{"type":"function","name":"quotePT","inputs":[],"outputs":[{"name":"quoteInStable","type":"uint256","internalType":"uint256"}],"stateMutability":"view"}],"bytecode":{"object":"0x6080604052348015600e575f80fd5b506121fc8061001c5f395ff3fe608060405234801561000f575f80fd5b5060043610610055575f3560e01c806301efa05d1461005957806357d3272f14610074578063a86725151461007a578063ac5c510b1461008d578063cdf19e5414610074575b5f80fd5b6100616100b5565b6040519081526020015b60405180910390f35b5f610061565b610061610088366004611cf7565b61018e565b6100a061009b366004611cf7565b61022a565b6040805192835260208301919091520161006b565b61011b546040516370a0823160e01b81523060048201525f9182916001600160a01b03909116906370a0823190602401602060405180830381865afa158015610100573d5f803e3d5ffd5b505050506040513d601f19601f820116820180604052508101906101249190611d12565b6014546006549192505f9161014e916001600160a01b039091169063ffffffff9081169061024d16565b90505f6101648383670de0b6b3a764000061029d565b6015549091505f90610179908361271061029d565b90506101858183611d3d565b94505050505090565b6002546040516335ea6a7560e01b81526001600160a01b0383811660048301525f9283929116906335ea6a75906024016101e060405180830381865afa1580156101da573d5f803e3d5ffd5b505050506040513d601f19601f820116820180604052508101906101fe9190611e4a565b608001519050610223610215633b9aca0083611f88565b6001600160801b03166102b8565b9392505050565b5f805f6102368461031d565b90505f6102416103b2565b91959194509092505050565b5f805f61025985610566565b915091508082106102775761026e8585610789565b92505050610297565b80826102838787610789565b61028d9190611fb5565b61026e9190611fcc565b92915050565b5f825f1904841183021582026102b1575f80fd5b5091020490565b5f806102cc83670de0b6b3a7640000610851565b90505f6102db82600f0b610886565b90505f6102e860016108d8565b90505f6102f9600f84900b83610909565b90505f610312600f83900b670de0b6b3a764000061093b565b979650505050505050565b6002546040516335ea6a7560e01b81526001600160a01b0383811660048301525f9261029792633b9aca0092909116906335ea6a75906024016101e060405180830381865afa158015610372573d5f803e3d5ffd5b505050506040513d601f19601f820116820180604052508101906103969190611e4a565b604001516001600160801b03166103ad9190611fcc565b6102b8565b6014546006545f9182916103db916001600160a01b039091169063ffffffff9081169061024d16565b6014546006549192505f91610405916001600160a01b039091169063ffffffff9081169061099f16565b90505f62015180425f6006015f9054906101000a90046001600160a01b03166001600160a01b031663e184c9be6040518163ffffffff1660e01b8152600401602060405180830381865afa15801561045f573d5f803e3d5ffd5b505050506040513d601f19601f820116820180604052508101906104839190611d12565b61048d9190611d3d565b6104979190611fcc565b61012a549091505f906104aa9084611fb5565b90505f6104b78583611fcc565b90505f815f61012a01546104cb9190611fdf565b90505f845f61012a015461016d6104e29190611fb5565b6104ec9190611fcc565b61012a549091505f90610500908490610851565b61012a549091505f90610514908490610851565b61012a5490915061054e8161054561053d610532600f88900b6109cc565b600f87900b90610a04565b600f0b610886565b600f0b9061093b565b6105589190611d3d565b995050505050505050505090565b5f805f80846001600160a01b0316632c8ce6bc6040518163ffffffff1660e01b8152600401606060405180830381865afa1580156105a6573d5f803e3d5ffd5b505050506040513d601f19601f820116820180604052508101906105ca9190611ff2565b9250509150816001600160a01b0316633ba0b9a96040518163ffffffff1660e01b8152600401602060405180830381865afa15801561060b573d5f803e3d5ffd5b505050506040513d601f19601f8201168201806040525081019061062f9190611d12565b93505f816001600160a01b031663d2a3584e6040518163ffffffff1660e01b8152600401602060405180830381865afa15801561066e573d5f803e3d5ffd5b505050506040513d601f19601f820116820180604052508101906106929190611d12565b9050816001600160a01b031663516399df6040518163ffffffff1660e01b8152600401602060405180830381865afa1580156106d0573d5f803e3d5ffd5b505050506040513d601f19601f820116820180604052508101906106f4919061203c565b8015610767575043826001600160a01b03166360e0a9e16040518163ffffffff1660e01b8152600401602060405180830381865afa158015610738573d5f803e3d5ffd5b505050506040513d601f19601f8201168201806040525081019061075c919061205b565b6001600160801b0316145b1561077457809350610781565b61077e8582610a38565b93505b505050915091565b5f80836001600160a01b031663e184c9be6040518163ffffffff1660e01b8152600401602060405180830381865afa1580156107c7573d5f803e3d5ffd5b505050506040513d601f19601f820116820180604052508101906107eb9190611d12565b905042811161080557670de0b6b3a7640000915050610297565b5f6108108585610a4d565b90505f61081d4284611d3d565b90505f61083261082d8484610b6c565b610bac565b9050610846670de0b6b3a764000082610bbd565b945050505050610297565b5f815f0361085d575f80fd5b5f6108688484610beb565b905060016001607f1b036001600160801b0382161115610223575f80fd5b5f600160461b82600f0b12610899575f80fd5b683fffffffffffffffff1982600f0b12156108b557505f919050565b610297608083600f0b700171547652b82fe1777d0ffda0d23a7d1202901d610d4a565b5f677fffffffffffffff1982121580156108fa5750677fffffffffffffff8213155b610902575f80fd5b5060401b90565b5f600f82810b9084900b0360016001607f1b03198112801590610933575060016001607f1b038113155b610223575f80fd5b5f815f0361094a57505f610297565b5f83600f0b1215610959575f80fd5b600f83900b6001600160801b038316810260401c90608084901c026001600160c01b03811115610987575f80fd5b60401b8119811115610997575f80fd5b019392505050565b5f805f6109ab85610566565b915091508082106109c05761026e85856117bb565b808261028387876117bb565b5f8082600f0b136109db575f80fd5b60806109e6836117d8565b600f0b6fb17217f7d1cf79abc9e3b39803f2f6af02901c9050919050565b5f600f83810b9083900b0260401d60016001607f1b03198112801590610933575060016001607f1b03811315610223575f80fd5b5f818311610a465781610223565b5090919050565b6040805160028082526060820183525f928392919060208301908036833701905050905082815f81518110610a8457610a84612074565b63ffffffff9092166020928302919091019091015260405163883bdbfd60e01b81525f906001600160a01b0386169063883bdbfd90610ac7908590600401612088565b5f60405180830381865afa158015610ae1573d5f803e3d5ffd5b505050506040513d5f823e601f3d908101601f19168201604052610b0891908101906120c5565b90508363ffffffff16815f81518110610b2357610b23612074565b602002602001015182600181518110610b3e57610b3e612074565b6020026020010151610b509190612179565b610b5a9190612198565b6001600160d81b031695945050505050565b5f80610b7d6201518061016d611fb5565b610b878486611fb5565b610b919190611fcc565b9050610ba4610b9f826118b4565b6118c8565b949350505050565b5f80821215610bb9575f80fd5b5090565b5f80610bd1670de0b6b3a764000085611fb5565b9050828181610be257610be2611f74565b04949350505050565b5f815f03610bf7575f80fd5b5f6001600160c01b038411610c215782604085901b81610c1957610c19611f74565b049050610d37565b60c084811c6401000000008110610c3a576020918201911c5b620100008110610c4c576010918201911c5b6101008110610c5d576008918201911c5b60108110610c6d576004918201911c5b60048110610c7d576002918201911c5b60028110610c8c576001820191505b60bf820360018603901c6001018260ff0387901b81610cad57610cad611f74565b0492506001600160801b03831115610cc3575f80fd5b608085901c83026001600160801b038616840260c088901c604089901b82811015610cef576001820391505b608084901b92900382811015610d06576001820391505b829003608084901c8214610d1b576001610d2c565b888181610d2a57610d2a611f74565b045b870196505050505050505b6001600160801b03811115610223575f80fd5b5f600160461b82600f0b12610d5d575f80fd5b683fffffffffffffffff1982600f0b1215610d7957505f919050565b6001607f1b5f6001603f1b8416600f0b1315610da65770016a09e667f3bcc908b2fb1366ea957d3e0260801c5b5f8367400000000000000016600f0b1315610dd2577001306fe0a31b7152de8d5a46305c85edec0260801c5b5f8367200000000000000016600f0b1315610dfe577001172b83c7d517adcdf7c8c50eb14a791f0260801c5b5f8367100000000000000016600f0b1315610e2a5770010b5586cf9890f6298b92b71842a983630260801c5b5f8367080000000000000016600f0b1315610e56577001059b0d31585743ae7c548eb68ca417fd0260801c5b5f8367040000000000000016600f0b1315610e8257700102c9a3e778060ee6f7caca4f7a29bde80260801c5b5f8367020000000000000016600f0b1315610eae5770010163da9fb33356d84a66ae336dcdfa3f0260801c5b5f8367010000000000000016600f0b1315610eda57700100b1afa5abcbed6129ab13ec11dc95430260801c5b5f83668000000000000016600f0b1315610f055770010058c86da1c09ea1ff19d294cf2f679b0260801c5b5f83664000000000000016600f0b1315610f30577001002c605e2e8cec506d21bfc89a23a00f0260801c5b5f83662000000000000016600f0b1315610f5b57700100162f3904051fa128bca9c55c31e5df0260801c5b5f83661000000000000016600f0b1315610f86577001000b175effdc76ba38e31671ca9397250260801c5b5f83660800000000000016600f0b1315610fb157700100058ba01fb9f96d6cacd4b180917c3d0260801c5b5f83660400000000000016600f0b1315610fdc5770010002c5cc37da9491d0985c348c68e7b30260801c5b5f83660200000000000016600f0b1315611007577001000162e525ee054754457d59952920260260801c5b5f83660100000000000016600f0b13156110325770010000b17255775c040618bf4a4ade83fc0260801c5b5f836580000000000016600f0b131561105c577001000058b91b5bc9ae2eed81e9b7d4cfab0260801c5b5f836540000000000016600f0b131561108657700100002c5c89d5ec6ca4d7c8acc017b7c90260801c5b5f836520000000000016600f0b13156110b05770010000162e43f4f831060e02d839a9d16d0260801c5b5f836510000000000016600f0b13156110da57700100000b1721bcfc99d9f890ea069117630260801c5b5f836508000000000016600f0b13156111045770010000058b90cf1e6d97f9ca14dbcc16280260801c5b5f836504000000000016600f0b131561112e577001000002c5c863b73f016468f6bac5ca2b0260801c5b5f836502000000000016600f0b131561115857700100000162e430e5a18f6119e3c02282a50260801c5b5f836501000000000016600f0b1315611182577001000000b1721835514b86e6d96efd1bfe0260801c5b5f8364800000000016600f0b13156111ab57700100000058b90c0b48c6be5df846c5b2ef0260801c5b5f8364400000000016600f0b13156111d45770010000002c5c8601cc6b9e94213c72737a0260801c5b5f8364200000000016600f0b13156111fd577001000000162e42fff037df38aa2b219f060260801c5b5f8364100000000016600f0b13156112265770010000000b17217fba9c739aa5819f44f90260801c5b5f8364080000000016600f0b131561124f577001000000058b90bfcdee5acd3c1cedc8230260801c5b5f8364040000000016600f0b131561127857700100000002c5c85fe31f35a6a30da1be500260801c5b5f8364020000000016600f0b13156112a15770010000000162e42ff0999ce3541b9fffcf0260801c5b5f8364010000000016600f0b13156112ca57700100000000b17217f80f4ef5aadda455540260801c5b5f83638000000016600f0b13156112f25770010000000058b90bfbf8479bd5a81b51ad0260801c5b5f83634000000016600f0b131561131a577001000000002c5c85fdf84bd62ae30a74cc0260801c5b5f83632000000016600f0b131561134257700100000000162e42fefb2fed257559bdaa0260801c5b5f83631000000016600f0b131561136a577001000000000b17217f7d5a7716bba4a9ae0260801c5b5f83630800000016600f0b131561139257700100000000058b90bfbe9ddbac5e109cce0260801c5b5f83630400000016600f0b13156113ba5770010000000002c5c85fdf4b15de6f17eb0d0260801c5b5f83630200000016600f0b13156113e2577001000000000162e42fefa494f1478fde050260801c5b5f83630100000016600f0b131561140a5770010000000000b17217f7d20cf927c8e94c0260801c5b5f836280000016600f0b1315611431577001000000000058b90bfbe8f71cb4e4b33d0260801c5b5f836240000016600f0b131561145857700100000000002c5c85fdf477b662b269450260801c5b5f836220000016600f0b131561147f5770010000000000162e42fefa3ae53369388c0260801c5b5f836210000016600f0b13156114a657700100000000000b17217f7d1d351a389d400260801c5b5f836208000016600f0b13156114cd5770010000000000058b90bfbe8e8b2d3d4ede0260801c5b5f836204000016600f0b13156114f4577001000000000002c5c85fdf4741bea6e77e0260801c5b5f836202000016600f0b131561151b57700100000000000162e42fefa39fe95583c20260801c5b5f836201000016600f0b1315611542577001000000000000b17217f7d1cfb72b45e10260801c5b5f8361800016600f0b131561156857700100000000000058b90bfbe8e7cc35c3f00260801c5b5f8361400016600f0b131561158e5770010000000000002c5c85fdf473e242ea380260801c5b5f8361200016600f0b13156115b4577001000000000000162e42fefa39f02b772c0260801c5b5f8361100016600f0b13156115da5770010000000000000b17217f7d1cf7d83c1a0260801c5b5f8361080016600f0b1315611600577001000000000000058b90bfbe8e7bdcbe2e0260801c5b5f8361040016600f0b131561162657700100000000000002c5c85fdf473dea871f0260801c5b5f8361020016600f0b131561164c5770010000000000000162e42fefa39ef44d910260801c5b5f8361010016600f0b131561167257700100000000000000b17217f7d1cf79e9490260801c5b5f83608016600f0b13156116975770010000000000000058b90bfbe8e7bce5440260801c5b5f83604016600f0b13156116bc577001000000000000002c5c85fdf473de6eca0260801c5b5f83602016600f0b13156116e157700100000000000000162e42fefa39ef366f0260801c5b5f83601016600f0b1315611706577001000000000000000b17217f7d1cf79afa0260801c5b5f83600816600f0b131561172b57700100000000000000058b90bfbe8e7bcd6d0260801c5b5f83600416600f0b13156117505770010000000000000002c5c85fdf473de6b20260801c5b5f83600216600f0b1315611775577001000000000000000162e42fefa39ef3580260801c5b5f83600116600f0b131561179a5770010000000000000000b17217f7d1cf79ab0260801c5b600f83810b60401d603f03900b1c60016001607f1b03811115610297575f80fd5b5f6117c68383610789565b61022390670de0b6b3a7640000611d3d565b5f8082600f0b136117e7575f80fd5b5f600f83900b680100000000000000008112611805576040918201911d5b6401000000008112611819576020918201911d5b62010000811261182b576010918201911d5b610100811261183c576008918201911d5b6010811261184c576004918201911d5b6004811261185c576002918201911d5b6002811261186b576001820191505b603f19820160401b600f85900b607f8490031b6001603f1b5b5f8113156118a95790800260ff81901c8281029390930192607f011c9060011d611884565b509095945050505050565b5f6001600160ff1b03821115610bb9575f80fd5b5f680238fd42c5cf03ffff1982121580156118ec575068070c1cc73b00c800008213155b61192f5760405162461bcd60e51b815260206004820152601060248201526f125b9d985b1a5908195e1c1bdb995b9d60821b604482015260640160405180910390fd5b5f82121561196657611942825f036118c8565b6ec097ce7bc90715b34b9f10000000008161195f5761195f611f74565b0592915050565b5f6806f05b59d3b200000083126119a557506806f05b59d3b1ffffff1990910190770195e54c5dd42177f53a27172fa9ec6302628270000000006119db565b6803782dace9d900000083126119d757506803782dace9d8ffffff19909101906b1425982cf597cd205cef73806119db565b5060015b6064929092029168056bc75e2d6310000068ad78ebc5ac620000008412611a2b5768ad78ebc5ac61ffffff199093019268056bc75e2d631000006e01855144814a7ff805980ff008400082020590505b6856bc75e2d6310000008412611a67576856bc75e2d630ffffff199093019268056bc75e2d631000006b02df0ab5a80a22c61ab5a70082020590505b682b5e3af16b188000008412611aa157682b5e3af16b187fffff199093019268056bc75e2d63100000693f1fce3da636ea5cf85082020590505b6815af1d78b58c4000008412611adb576815af1d78b58c3fffff199093019268056bc75e2d63100000690127fa27722cc06cc5e282020590505b680ad78ebc5ac62000008412611b1457680ad78ebc5ac61fffff199093019268056bc75e2d6310000068280e60114edb805d0382020590505b68056bc75e2d631000008412611b4d5768056bc75e2d630fffff199093019268056bc75e2d63100000680ebc5fb4174612111082020590505b6802b5e3af16b18800008412611b86576802b5e3af16b187ffff199093019268056bc75e2d631000006808f00f760a4b2db55d82020590505b68015af1d78b58c400008412611bbf5768015af1d78b58c3ffff199093019268056bc75e2d631000006806f5f177578893793782020590505b68056bc75e2d631000008481019085906002908280020505918201919050600368056bc75e2d631000008783020505918201919050600468056bc75e2d631000008783020505918201919050600568056bc75e2d631000008783020505918201919050600668056bc75e2d631000008783020505918201919050600768056bc75e2d631000008783020505918201919050600868056bc75e2d631000008783020505918201919050600968056bc75e2d631000008783020505918201919050600a68056bc75e2d631000008783020505918201919050600b68056bc75e2d631000008783020505918201919050600c68056bc75e2d631000008783020505918201919050606468056bc75e2d63100000848402058502059695505050505050565b6001600160a01b0381168114611cf4575f80fd5b50565b5f60208284031215611d07575f80fd5b813561022381611ce0565b5f60208284031215611d22575f80fd5b5051919050565b634e487b7160e01b5f52601160045260245ffd5b8181038181111561029757610297611d29565b634e487b7160e01b5f52604160045260245ffd5b6040516101e0810167ffffffffffffffff81118282101715611d8857611d88611d50565b60405290565b604051601f8201601f1916810167ffffffffffffffff81118282101715611db757611db7611d50565b604052919050565b5f60208284031215611dcf575f80fd5b6040516020810167ffffffffffffffff81118282101715611df257611df2611d50565b6040529151825250919050565b80516001600160801b0381168114611e15575f80fd5b919050565b805164ffffffffff81168114611e15575f80fd5b805161ffff81168114611e15575f80fd5b8051611e1581611ce0565b5f6101e0828403128015611e5c575f80fd5b50611e65611d64565b611e6f8484611dbf565b8152611e7d60208401611dff565b6020820152611e8e60408401611dff565b6040820152611e9f60608401611dff565b6060820152611eb060808401611dff565b6080820152611ec160a08401611dff565b60a0820152611ed260c08401611e1a565b60c0820152611ee360e08401611e2e565b60e0820152611ef56101008401611e3f565b610100820152611f086101208401611e3f565b610120820152611f1b6101408401611e3f565b610140820152611f2e6101608401611e3f565b610160820152611f416101808401611dff565b610180820152611f546101a08401611dff565b6101a0820152611f676101c08401611dff565b6101c08201529392505050565b634e487b7160e01b5f52601260045260245ffd5b5f6001600160801b03831680611fa057611fa0611f74565b806001600160801b0384160491505092915050565b808202811582820484141761029757610297611d29565b5f82611fda57611fda611f74565b500490565b8082018082111561029757610297611d29565b5f805f60608486031215612004575f80fd5b835161200f81611ce0565b602085015190935061202081611ce0565b604085015190925061203181611ce0565b809150509250925092565b5f6020828403121561204c575f80fd5b81518015158114610223575f80fd5b5f6020828403121561206b575f80fd5b61022382611dff565b634e487b7160e01b5f52603260045260245ffd5b602080825282518282018190525f918401906040840190835b818110156118a957835163ffffffff168352602093840193909201916001016120a1565b5f602082840312156120d5575f80fd5b815167ffffffffffffffff8111156120eb575f80fd5b8201601f810184136120fb575f80fd5b805167ffffffffffffffff81111561211557612115611d50565b8060051b61212560208201611d8e565b91825260208184018101929081019087841115612140575f80fd5b6020850194505b8385101561031257845192506001600160d81b0383168314612167575f80fd5b82825260209485019490910190612147565b6001600160d81b03828116828216039081111561029757610297611d29565b5f6001600160d81b038316806121b0576121b0611f74565b6001600160d81b0392909216919091049291505056fea2646970667358221220caebf63d446a7214e8e1b10d6bab85e934c835577342f200321356100e01ad9764736f6c634300081a0033","linkReferences":{}},"methodIdentifiers":{"getBorrowingRates(address)":"a8672515","getSupplyRates(address)":"ac5c510b","getVariableBorrowAPY()":"57d3272f","getVariableSupplyAPY()":"cdf19e54","quotePT()":"01efa05d"},"id":12}