{"abi":[{"type":"function","name":"quotePT","inputs":[],"outputs":[{"name":"","type":"uint256","internalType":"uint256"}],"stateMutability":"view"}],"bytecode":{"object":"0x6080604052348015600e575f80fd5b50610f148061001c5f395ff3fe608060405234801561000f575f80fd5b5060043610610029575f3560e01c806301efa05d1461002d575b5f80fd5b610035610047565b60405190815260200160405180910390f35b601a546040516370a0823160e01b81523060048201525f9182916001600160a01b03909116906370a0823190602401602060405180830381865afa158015610091573d5f803e3d5ffd5b505050506040513d601f19601f820116820180604052508101906100b59190610ba6565b6013546005549192505f916100df916001600160a01b039091169063ffffffff908116906101b716565b90505f6100f58383670de0b6b3a7640000610207565b6014549091505f9061010a9083612710610207565b90505f6101178284610bd1565b905061013060405180602001604052805f815250610222565b61016f6040518060400160405280601a81526020017f71756f7465496e537461626c6520696e2071756f746550543a2000000000000081525082610268565b6101ae6040518060400160405280601d81526020017f62616c616e63655054696e417373657420696e2071756f746550543a2000000081525084610268565b95945050505050565b5f805f6101c3856102b1565b915091508082106101e1576101d885856104d4565b92505050610201565b80826101ed87876104d4565b6101f79190610be4565b6101d89190610c0f565b92915050565b5f825f19048411830215820261021b575f80fd5b5091020490565b610265816040516024016102369190610c65565b60408051601f198184030181529190526020810180516001600160e01b031663104c13eb60e21b17905261059c565b50565b6102ad828260405160240161027e929190610c77565b60408051601f198184030181529190526020810180516001600160e01b03166309710a9d60e41b17905261059c565b5050565b5f805f80846001600160a01b0316632c8ce6bc6040518163ffffffff1660e01b8152600401606060405180830381865afa1580156102f1573d5f803e3d5ffd5b505050506040513d601f19601f820116820180604052508101906103159190610cac565b9250509150816001600160a01b0316633ba0b9a96040518163ffffffff1660e01b8152600401602060405180830381865afa158015610356573d5f803e3d5ffd5b505050506040513d601f19601f8201168201806040525081019061037a9190610ba6565b93505f816001600160a01b031663d2a3584e6040518163ffffffff1660e01b8152600401602060405180830381865afa1580156103b9573d5f803e3d5ffd5b505050506040513d601f19601f820116820180604052508101906103dd9190610ba6565b9050816001600160a01b031663516399df6040518163ffffffff1660e01b8152600401602060405180830381865afa15801561041b573d5f803e3d5ffd5b505050506040513d601f19601f8201168201806040525081019061043f9190610cf6565b80156104b2575043826001600160a01b03166360e0a9e16040518163ffffffff1660e01b8152600401602060405180830381865afa158015610483573d5f803e3d5ffd5b505050506040513d601f19601f820116820180604052508101906104a79190610d15565b6001600160801b0316145b156104bf578093506104cc565b6104c985826105a5565b93505b505050915091565b5f80836001600160a01b031663e184c9be6040518163ffffffff1660e01b8152600401602060405180830381865afa158015610512573d5f803e3d5ffd5b505050506040513d601f19601f820116820180604052508101906105369190610ba6565b905042811161055057670de0b6b3a7640000915050610201565b5f61055b85856105bc565b90505f6105684284610bd1565b90505f61057d61057884846106db565b61071b565b9050610591670de0b6b3a76400008261072c565b945050505050610201565b6102658161075a565b5f8183116105b357816105b5565b825b9392505050565b6040805160028082526060820183525f928392919060208301908036833701905050905082815f815181106105f3576105f3610d4f565b63ffffffff9092166020928302919091019091015260405163883bdbfd60e01b81525f906001600160a01b0386169063883bdbfd90610636908590600401610d63565b5f60405180830381865afa158015610650573d5f803e3d5ffd5b505050506040513d5f823e601f3d908101601f191682016040526106779190810190610dc6565b90508363ffffffff16815f8151811061069257610692610d4f565b6020026020010151826001815181106106ad576106ad610d4f565b60200260200101516106bf9190610e91565b6106c99190610eb0565b6001600160d81b031695945050505050565b5f806106ec6201518061016d610be4565b6106f68486610be4565b6107009190610c0f565b905061071361070e8261077a565b61078e565b949350505050565b5f80821215610728575f80fd5b5090565b5f80610740670de0b6b3a764000085610be4565b905082818161075157610751610bfb565b04949350505050565b80516a636f6e736f6c652e6c6f67602083015f808483855afa5050505050565b5f6001600160ff1b03821115610728575f80fd5b5f680238fd42c5cf03ffff1982121580156107b2575068070c1cc73b00c800008213155b6107f55760405162461bcd60e51b815260206004820152601060248201526f125b9d985b1a5908195e1c1bdb995b9d60821b604482015260640160405180910390fd5b5f82121561082c57610808825f0361078e565b6ec097ce7bc90715b34b9f10000000008161082557610825610bfb565b0592915050565b5f6806f05b59d3b2000000831261086b57506806f05b59d3b1ffffff1990910190770195e54c5dd42177f53a27172fa9ec6302628270000000006108a1565b6803782dace9d9000000831261089d57506803782dace9d8ffffff19909101906b1425982cf597cd205cef73806108a1565b5060015b6064929092029168056bc75e2d6310000068ad78ebc5ac6200000084126108f15768ad78ebc5ac61ffffff199093019268056bc75e2d631000006e01855144814a7ff805980ff008400082020590505b6856bc75e2d631000000841261092d576856bc75e2d630ffffff199093019268056bc75e2d631000006b02df0ab5a80a22c61ab5a70082020590505b682b5e3af16b18800000841261096757682b5e3af16b187fffff199093019268056bc75e2d63100000693f1fce3da636ea5cf85082020590505b6815af1d78b58c40000084126109a1576815af1d78b58c3fffff199093019268056bc75e2d63100000690127fa27722cc06cc5e282020590505b680ad78ebc5ac620000084126109da57680ad78ebc5ac61fffff199093019268056bc75e2d6310000068280e60114edb805d0382020590505b68056bc75e2d631000008412610a135768056bc75e2d630fffff199093019268056bc75e2d63100000680ebc5fb4174612111082020590505b6802b5e3af16b18800008412610a4c576802b5e3af16b187ffff199093019268056bc75e2d631000006808f00f760a4b2db55d82020590505b68015af1d78b58c400008412610a855768015af1d78b58c3ffff199093019268056bc75e2d631000006806f5f177578893793782020590505b68056bc75e2d631000008481019085906002908280020505918201919050600368056bc75e2d631000008783020505918201919050600468056bc75e2d631000008783020505918201919050600568056bc75e2d631000008783020505918201919050600668056bc75e2d631000008783020505918201919050600768056bc75e2d631000008783020505918201919050600868056bc75e2d631000008783020505918201919050600968056bc75e2d631000008783020505918201919050600a68056bc75e2d631000008783020505918201919050600b68056bc75e2d631000008783020505918201919050600c68056bc75e2d631000008783020505918201919050606468056bc75e2d63100000848402058502059695505050505050565b5f60208284031215610bb6575f80fd5b5051919050565b634e487b7160e01b5f52601160045260245ffd5b8181038181111561020157610201610bbd565b808202811582820484141761020157610201610bbd565b634e487b7160e01b5f52601260045260245ffd5b5f82610c1d57610c1d610bfb565b500490565b5f81518084525f5b81811015610c4657602081850181015186830182015201610c2a565b505f602082860101526020601f19601f83011685010191505092915050565b602081525f6105b56020830184610c22565b604081525f610c896040830185610c22565b90508260208301529392505050565b6001600160a01b0381168114610265575f80fd5b5f805f60608486031215610cbe575f80fd5b8351610cc981610c98565b6020850151909350610cda81610c98565b6040850151909250610ceb81610c98565b809150509250925092565b5f60208284031215610d06575f80fd5b815180151581146105b5575f80fd5b5f60208284031215610d25575f80fd5b81516001600160801b03811681146105b5575f80fd5b634e487b7160e01b5f52604160045260245ffd5b634e487b7160e01b5f52603260045260245ffd5b602080825282518282018190525f918401906040840190835b81811015610da057835163ffffffff16835260209384019390920191600101610d7c565b509095945050505050565b80516001600160d81b0381168114610dc1575f80fd5b919050565b5f60208284031215610dd6575f80fd5b815167ffffffffffffffff811115610dec575f80fd5b8201601f81018413610dfc575f80fd5b805167ffffffffffffffff811115610e1657610e16610d3b565b8060051b604051601f19603f830116810181811067ffffffffffffffff82111715610e4357610e43610d3b565b604052918252602081840181019290810187841115610e60575f80fd5b6020850194505b83851015610e8657610e7885610dab565b815260209485019401610e67565b509695505050505050565b6001600160d81b03828116828216039081111561020157610201610bbd565b5f6001600160d81b03831680610ec857610ec8610bfb565b6001600160d81b0392909216919091049291505056fea26469706673582212205596d412d41e61141ce903b6b2d7090a57e294181cc1c04bba995b8223f20d2864736f6c634300081a0033","linkReferences":{}},"methodIdentifiers":{"quotePT()":"01efa05d"},"id":10}