{"abi":[{"type":"function","name":"getBalancePT","inputs":[{"name":"user_","type":"address","internalType":"address"}],"outputs":[{"name":"","type":"uint256","internalType":"uint256"}],"stateMutability":"view"},{"type":"function","name":"getBorrowingRates","inputs":[{"name":"token_","type":"address","internalType":"address"},{"name":"formatted_","type":"bool","internalType":"bool"}],"outputs":[{"name":"","type":"uint256","internalType":"uint256"}],"stateMutability":"view"},{"type":"function","name":"getExchangeRate","inputs":[],"outputs":[{"name":"","type":"uint256","internalType":"uint256"}],"stateMutability":"view"},{"type":"function","name":"getInternalSupplyRate","inputs":[],"outputs":[{"name":"","type":"uint256","internalType":"uint256"}],"stateMutability":"view"},{"type":"function","name":"getNetAPY","inputs":[{"name":"token_","type":"address","internalType":"address"}],"outputs":[{"name":"","type":"uint256","internalType":"uint256"}],"stateMutability":"view"},{"type":"function","name":"getSupplyRates","inputs":[{"name":"token_","type":"address","internalType":"address"},{"name":"formatted_","type":"bool","internalType":"bool"}],"outputs":[{"name":"","type":"uint256","internalType":"uint256"},{"name":"","type":"uint256","internalType":"uint256"}],"stateMutability":"view"},{"type":"function","name":"getVariableBorrowAPY","inputs":[],"outputs":[{"name":"apy","type":"uint256","internalType":"uint256"}],"stateMutability":"view"},{"type":"function","name":"quotePT","inputs":[],"outputs":[{"name":"quoteInStable","type":"uint256","internalType":"uint256"}],"stateMutability":"view"}],"bytecode":{"object":"0x6080604052348015600e575f80fd5b506123f48061001c5f395ff3fe608060405234801561000f575f80fd5b5060043610610085575f3560e01c806390f973151161005857806390f97315146100f7578063bbc8af0a1461011f578063e6aa216c14610127578063eb1f3faf14610130575f80fd5b806301efa05d1461008957806302a15f1d146100a457806357d3272f146100b757806370b10652146100bd575b5f80fd5b610091610143565b6040519081526020015b60405180910390f35b6100916100b2366004611eaf565b61021c565b5f610091565b6100916100cb366004611eaf565b6001600160a01b039081165f90815261012b6020908152604080832054909316825261012e9052205490565b61010a610105366004611ed7565b61025b565b6040805192835260208301919091520161009b565b610091610281565b61013254610091565b61009161013e366004611ed7565b6102b0565b61011b546040516370a0823160e01b81523060048201525f9182916001600160a01b03909116906370a0823190602401602060405180830381865afa15801561018e573d5f803e3d5ffd5b505050506040513d601f19601f820116820180604052508101906101b29190611f0e565b6014546006549192505f916101dc916001600160a01b039091169063ffffffff9081169061039216565b90505f6101f28383670de0b6b3a76400006103dc565b6015549091505f9061020790836127106103dc565b90506102138183611f39565b94505050505090565b5f80610228835f6102b0565b90505f80610236855f61025b565b90925090505f836102478484611f4c565b6102519190611f39565b9695505050505050565b5f805f61026885856103f7565b90505f610274856104da565b9196919550909350505050565b6014546006545f9182916102aa916001600160a01b039091169063ffffffff9081169061039216565b92915050565b6002546040516335ea6a7560e01b81526001600160a01b0384811660048301525f9283929116906335ea6a75906024016101e060405180830381865afa1580156102fc573d5f803e3d5ffd5b505050506040513d601f19601f820116820180604052508101906103209190612059565b60800151610118549091505f906001600160a01b0386811691161480156103445750835b61034f576001610356565b6402540be4005b64ffffffffff1690508061037f610371633b9aca0085612197565b6001600160801b03166106ba565b61038991906121c4565b95945050505050565b5f805f61039e8561071f565b915091508082106103bc576103b38585610942565b925050506102aa565b80826103c88787610942565b6103d291906121d7565b6103b391906121c4565b5f825f1904841183021582026103f0575f80fd5b5091020490565b610118545f9081906001600160a01b0385811691161480156104165750825b610421576001610428565b6402540be4005b6002546040516335ea6a7560e01b81526001600160a01b03878116600483015264ffffffffff93909316935083926104c892633b9aca00929116906335ea6a75906024016101e060405180830381865afa158015610488573d5f803e3d5ffd5b505050506040513d601f19601f820116820180604052508101906104ac9190612059565b604001516001600160801b03166104c391906121c4565b6106ba565b6104d291906121c4565b949350505050565b6014546006545f918291610503916001600160a01b039091169063ffffffff9081169061039216565b6014546006549192505f9161052d916001600160a01b039091169063ffffffff90811690610a0a16565b90505f62015180425f6006015f9054906101000a90046001600160a01b03166001600160a01b031663e184c9be6040518163ffffffff1660e01b8152600401602060405180830381865afa158015610587573d5f803e3d5ffd5b505050506040513d601f19601f820116820180604052508101906105ab9190611f0e565b6105b59190611f39565b6105bf91906121c4565b90505f856105ce5760016105d5565b6402540be4005b64ffffffffff1690505f8061012a0154846105f091906121d7565b90505f6105fd86836121c4565b90505f815f61012a01546106119190611f4c565b90505f855f61012a015461016d61062891906121d7565b61063291906121c4565b61012a549091505f90610646908490610a37565b61012a549091505f9061065a908490610a37565b61012a5490915087906106968161068d61068561067a600f89900b610a73565b600f88900b90610aab565b600f0b610ae0565b600f0b90610b32565b6106a09190611f39565b6106aa91906121c4565b9c9b505050505050505050505050565b5f806106ce83670de0b6b3a7640000610a37565b90505f6106dd82600f0b610ae0565b90505f6106ea6001610b96565b90505f6106fb600f84900b83610bc7565b90505f610714600f83900b670de0b6b3a7640000610b32565b979650505050505050565b5f805f80846001600160a01b0316632c8ce6bc6040518163ffffffff1660e01b8152600401606060405180830381865afa15801561075f573d5f803e3d5ffd5b505050506040513d601f19601f8201168201806040525081019061078391906121ee565b9250509150816001600160a01b0316633ba0b9a96040518163ffffffff1660e01b8152600401602060405180830381865afa1580156107c4573d5f803e3d5ffd5b505050506040513d601f19601f820116820180604052508101906107e89190611f0e565b93505f816001600160a01b031663d2a3584e6040518163ffffffff1660e01b8152600401602060405180830381865afa158015610827573d5f803e3d5ffd5b505050506040513d601f19601f8201168201806040525081019061084b9190611f0e565b9050816001600160a01b031663516399df6040518163ffffffff1660e01b8152600401602060405180830381865afa158015610889573d5f803e3d5ffd5b505050506040513d601f19601f820116820180604052508101906108ad9190612238565b8015610920575043826001600160a01b03166360e0a9e16040518163ffffffff1660e01b8152600401602060405180830381865afa1580156108f1573d5f803e3d5ffd5b505050506040513d601f19601f820116820180604052508101906109159190612253565b6001600160801b0316145b1561092d5780935061093a565b6109378582610bf8565b93505b505050915091565b5f80836001600160a01b031663e184c9be6040518163ffffffff1660e01b8152600401602060405180830381865afa158015610980573d5f803e3d5ffd5b505050506040513d601f19601f820116820180604052508101906109a49190611f0e565b90504281116109be57670de0b6b3a76400009150506102aa565b5f6109c98585610c0d565b90505f6109d64284611f39565b90505f6109eb6109e68484610d2c565b610d64565b90506109ff670de0b6b3a764000082610d75565b9450505050506102aa565b5f805f610a168561071f565b91509150808210610a2b576103b38585610da3565b80826103c88787610da3565b5f815f03610a43575f80fd5b5f610a4e8484610dc0565b905060016001607f1b036001600160801b0382161115610a6c575f80fd5b9392505050565b5f8082600f0b13610a82575f80fd5b6080610a8d83610f1f565b600f0b6fb17217f7d1cf79abc9e3b39803f2f6af02901c9050919050565b5f600f83810b9083900b0260401d60016001607f1b03198112801590610ad8575060016001607f1b038113155b610a6c575f80fd5b5f600160461b82600f0b12610af3575f80fd5b683fffffffffffffffff1982600f0b1215610b0f57505f919050565b6102aa608083600f0b700171547652b82fe1777d0ffda0d23a7d1202901d610ffb565b5f815f03610b4157505f6102aa565b5f83600f0b1215610b50575f80fd5b600f83900b6001600160801b038316810260401c90608084901c026001600160c01b03811115610b7e575f80fd5b60401b8119811115610b8e575f80fd5b019392505050565b5f677fffffffffffffff198212158015610bb85750677fffffffffffffff8213155b610bc0575f80fd5b5060401b90565b5f600f82810b9084900b0360016001607f1b03198112801590610ad8575060016001607f1b03811315610a6c575f80fd5b5f818311610c065781610a6c565b5090919050565b6040805160028082526060820183525f928392919060208301908036833701905050905082815f81518110610c4457610c4461226c565b63ffffffff9092166020928302919091019091015260405163883bdbfd60e01b81525f906001600160a01b0386169063883bdbfd90610c87908590600401612280565b5f60405180830381865afa158015610ca1573d5f803e3d5ffd5b505050506040513d5f823e601f3d908101601f19168201604052610cc891908101906122bd565b90508363ffffffff16815f81518110610ce357610ce361226c565b602002602001015182600181518110610cfe57610cfe61226c565b6020026020010151610d109190612371565b610d1a9190612390565b6001600160d81b031695945050505050565b5f80610d3d6201518061016d6121d7565b610d4784866121d7565b610d5191906121c4565b90506104d2610d5f82611a6c565b611a80565b5f80821215610d71575f80fd5b5090565b5f80610d89670de0b6b3a7640000856121d7565b9050828181610d9a57610d9a612183565b04949350505050565b5f610dae8383610942565b610a6c90670de0b6b3a7640000611f39565b5f815f03610dcc575f80fd5b5f6001600160c01b038411610df65782604085901b81610dee57610dee612183565b049050610f0c565b60c084811c6401000000008110610e0f576020918201911c5b620100008110610e21576010918201911c5b6101008110610e32576008918201911c5b60108110610e42576004918201911c5b60048110610e52576002918201911c5b60028110610e61576001820191505b60bf820360018603901c6001018260ff0387901b81610e8257610e82612183565b0492506001600160801b03831115610e98575f80fd5b608085901c83026001600160801b038616840260c088901c604089901b82811015610ec4576001820391505b608084901b92900382811015610edb576001820391505b829003608084901c8214610ef0576001610f01565b888181610eff57610eff612183565b045b870196505050505050505b6001600160801b03811115610a6c575f80fd5b5f8082600f0b13610f2e575f80fd5b5f600f83900b680100000000000000008112610f4c576040918201911d5b6401000000008112610f60576020918201911d5b620100008112610f72576010918201911d5b6101008112610f83576008918201911d5b60108112610f93576004918201911d5b60048112610fa3576002918201911d5b60028112610fb2576001820191505b603f19820160401b600f85900b607f8490031b6001603f1b5b5f811315610ff05790800260ff81901c8281029390930192607f011c9060011d610fcb565b509095945050505050565b5f600160461b82600f0b1261100e575f80fd5b683fffffffffffffffff1982600f0b121561102a57505f919050565b6001607f1b5f6001603f1b8416600f0b13156110575770016a09e667f3bcc908b2fb1366ea957d3e0260801c5b5f8367400000000000000016600f0b1315611083577001306fe0a31b7152de8d5a46305c85edec0260801c5b5f8367200000000000000016600f0b13156110af577001172b83c7d517adcdf7c8c50eb14a791f0260801c5b5f8367100000000000000016600f0b13156110db5770010b5586cf9890f6298b92b71842a983630260801c5b5f8367080000000000000016600f0b1315611107577001059b0d31585743ae7c548eb68ca417fd0260801c5b5f8367040000000000000016600f0b131561113357700102c9a3e778060ee6f7caca4f7a29bde80260801c5b5f8367020000000000000016600f0b131561115f5770010163da9fb33356d84a66ae336dcdfa3f0260801c5b5f8367010000000000000016600f0b131561118b57700100b1afa5abcbed6129ab13ec11dc95430260801c5b5f83668000000000000016600f0b13156111b65770010058c86da1c09ea1ff19d294cf2f679b0260801c5b5f83664000000000000016600f0b13156111e1577001002c605e2e8cec506d21bfc89a23a00f0260801c5b5f83662000000000000016600f0b131561120c57700100162f3904051fa128bca9c55c31e5df0260801c5b5f83661000000000000016600f0b1315611237577001000b175effdc76ba38e31671ca9397250260801c5b5f83660800000000000016600f0b131561126257700100058ba01fb9f96d6cacd4b180917c3d0260801c5b5f83660400000000000016600f0b131561128d5770010002c5cc37da9491d0985c348c68e7b30260801c5b5f83660200000000000016600f0b13156112b8577001000162e525ee054754457d59952920260260801c5b5f83660100000000000016600f0b13156112e35770010000b17255775c040618bf4a4ade83fc0260801c5b5f836580000000000016600f0b131561130d577001000058b91b5bc9ae2eed81e9b7d4cfab0260801c5b5f836540000000000016600f0b131561133757700100002c5c89d5ec6ca4d7c8acc017b7c90260801c5b5f836520000000000016600f0b13156113615770010000162e43f4f831060e02d839a9d16d0260801c5b5f836510000000000016600f0b131561138b57700100000b1721bcfc99d9f890ea069117630260801c5b5f836508000000000016600f0b13156113b55770010000058b90cf1e6d97f9ca14dbcc16280260801c5b5f836504000000000016600f0b13156113df577001000002c5c863b73f016468f6bac5ca2b0260801c5b5f836502000000000016600f0b131561140957700100000162e430e5a18f6119e3c02282a50260801c5b5f836501000000000016600f0b1315611433577001000000b1721835514b86e6d96efd1bfe0260801c5b5f8364800000000016600f0b131561145c57700100000058b90c0b48c6be5df846c5b2ef0260801c5b5f8364400000000016600f0b13156114855770010000002c5c8601cc6b9e94213c72737a0260801c5b5f8364200000000016600f0b13156114ae577001000000162e42fff037df38aa2b219f060260801c5b5f8364100000000016600f0b13156114d75770010000000b17217fba9c739aa5819f44f90260801c5b5f8364080000000016600f0b1315611500577001000000058b90bfcdee5acd3c1cedc8230260801c5b5f8364040000000016600f0b131561152957700100000002c5c85fe31f35a6a30da1be500260801c5b5f8364020000000016600f0b13156115525770010000000162e42ff0999ce3541b9fffcf0260801c5b5f8364010000000016600f0b131561157b57700100000000b17217f80f4ef5aadda455540260801c5b5f83638000000016600f0b13156115a35770010000000058b90bfbf8479bd5a81b51ad0260801c5b5f83634000000016600f0b13156115cb577001000000002c5c85fdf84bd62ae30a74cc0260801c5b5f83632000000016600f0b13156115f357700100000000162e42fefb2fed257559bdaa0260801c5b5f83631000000016600f0b131561161b577001000000000b17217f7d5a7716bba4a9ae0260801c5b5f83630800000016600f0b131561164357700100000000058b90bfbe9ddbac5e109cce0260801c5b5f83630400000016600f0b131561166b5770010000000002c5c85fdf4b15de6f17eb0d0260801c5b5f83630200000016600f0b1315611693577001000000000162e42fefa494f1478fde050260801c5b5f83630100000016600f0b13156116bb5770010000000000b17217f7d20cf927c8e94c0260801c5b5f836280000016600f0b13156116e2577001000000000058b90bfbe8f71cb4e4b33d0260801c5b5f836240000016600f0b131561170957700100000000002c5c85fdf477b662b269450260801c5b5f836220000016600f0b13156117305770010000000000162e42fefa3ae53369388c0260801c5b5f836210000016600f0b131561175757700100000000000b17217f7d1d351a389d400260801c5b5f836208000016600f0b131561177e5770010000000000058b90bfbe8e8b2d3d4ede0260801c5b5f836204000016600f0b13156117a5577001000000000002c5c85fdf4741bea6e77e0260801c5b5f836202000016600f0b13156117cc57700100000000000162e42fefa39fe95583c20260801c5b5f836201000016600f0b13156117f3577001000000000000b17217f7d1cfb72b45e10260801c5b5f8361800016600f0b131561181957700100000000000058b90bfbe8e7cc35c3f00260801c5b5f8361400016600f0b131561183f5770010000000000002c5c85fdf473e242ea380260801c5b5f8361200016600f0b1315611865577001000000000000162e42fefa39f02b772c0260801c5b5f8361100016600f0b131561188b5770010000000000000b17217f7d1cf7d83c1a0260801c5b5f8361080016600f0b13156118b1577001000000000000058b90bfbe8e7bdcbe2e0260801c5b5f8361040016600f0b13156118d757700100000000000002c5c85fdf473dea871f0260801c5b5f8361020016600f0b13156118fd5770010000000000000162e42fefa39ef44d910260801c5b5f8361010016600f0b131561192357700100000000000000b17217f7d1cf79e9490260801c5b5f83608016600f0b13156119485770010000000000000058b90bfbe8e7bce5440260801c5b5f83604016600f0b131561196d577001000000000000002c5c85fdf473de6eca0260801c5b5f83602016600f0b131561199257700100000000000000162e42fefa39ef366f0260801c5b5f83601016600f0b13156119b7577001000000000000000b17217f7d1cf79afa0260801c5b5f83600816600f0b13156119dc57700100000000000000058b90bfbe8e7bcd6d0260801c5b5f83600416600f0b1315611a015770010000000000000002c5c85fdf473de6b20260801c5b5f83600216600f0b1315611a26577001000000000000000162e42fefa39ef3580260801c5b5f83600116600f0b1315611a4b5770010000000000000000b17217f7d1cf79ab0260801c5b600f83810b60401d603f03900b1c60016001607f1b038111156102aa575f80fd5b5f6001600160ff1b03821115610d71575f80fd5b5f680238fd42c5cf03ffff198212158015611aa4575068070c1cc73b00c800008213155b611ae75760405162461bcd60e51b815260206004820152601060248201526f125b9d985b1a5908195e1c1bdb995b9d60821b604482015260640160405180910390fd5b5f821215611b1e57611afa825f03611a80565b6ec097ce7bc90715b34b9f100000000081611b1757611b17612183565b0592915050565b5f6806f05b59d3b20000008312611b5d57506806f05b59d3b1ffffff1990910190770195e54c5dd42177f53a27172fa9ec630262827000000000611b93565b6803782dace9d90000008312611b8f57506803782dace9d8ffffff19909101906b1425982cf597cd205cef7380611b93565b5060015b6064929092029168056bc75e2d6310000068ad78ebc5ac620000008412611be35768ad78ebc5ac61ffffff199093019268056bc75e2d631000006e01855144814a7ff805980ff008400082020590505b6856bc75e2d6310000008412611c1f576856bc75e2d630ffffff199093019268056bc75e2d631000006b02df0ab5a80a22c61ab5a70082020590505b682b5e3af16b188000008412611c5957682b5e3af16b187fffff199093019268056bc75e2d63100000693f1fce3da636ea5cf85082020590505b6815af1d78b58c4000008412611c93576815af1d78b58c3fffff199093019268056bc75e2d63100000690127fa27722cc06cc5e282020590505b680ad78ebc5ac62000008412611ccc57680ad78ebc5ac61fffff199093019268056bc75e2d6310000068280e60114edb805d0382020590505b68056bc75e2d631000008412611d055768056bc75e2d630fffff199093019268056bc75e2d63100000680ebc5fb4174612111082020590505b6802b5e3af16b18800008412611d3e576802b5e3af16b187ffff199093019268056bc75e2d631000006808f00f760a4b2db55d82020590505b68015af1d78b58c400008412611d775768015af1d78b58c3ffff199093019268056bc75e2d631000006806f5f177578893793782020590505b68056bc75e2d631000008481019085906002908280020505918201919050600368056bc75e2d631000008783020505918201919050600468056bc75e2d631000008783020505918201919050600568056bc75e2d631000008783020505918201919050600668056bc75e2d631000008783020505918201919050600768056bc75e2d631000008783020505918201919050600868056bc75e2d631000008783020505918201919050600968056bc75e2d631000008783020505918201919050600a68056bc75e2d631000008783020505918201919050600b68056bc75e2d631000008783020505918201919050600c68056bc75e2d631000008783020505918201919050606468056bc75e2d63100000848402058502059695505050505050565b6001600160a01b0381168114611eac575f80fd5b50565b5f60208284031215611ebf575f80fd5b8135610a6c81611e98565b8015158114611eac575f80fd5b5f8060408385031215611ee8575f80fd5b8235611ef381611e98565b91506020830135611f0381611eca565b809150509250929050565b5f60208284031215611f1e575f80fd5b5051919050565b634e487b7160e01b5f52601160045260245ffd5b818103818111156102aa576102aa611f25565b808201808211156102aa576102aa611f25565b634e487b7160e01b5f52604160045260245ffd5b6040516101e0810167ffffffffffffffff81118282101715611f9757611f97611f5f565b60405290565b604051601f8201601f1916810167ffffffffffffffff81118282101715611fc657611fc6611f5f565b604052919050565b5f60208284031215611fde575f80fd5b6040516020810167ffffffffffffffff8111828210171561200157612001611f5f565b6040529151825250919050565b80516001600160801b0381168114612024575f80fd5b919050565b805164ffffffffff81168114612024575f80fd5b805161ffff81168114612024575f80fd5b805161202481611e98565b5f6101e082840312801561206b575f80fd5b50612074611f73565b61207e8484611fce565b815261208c6020840161200e565b602082015261209d6040840161200e565b60408201526120ae6060840161200e565b60608201526120bf6080840161200e565b60808201526120d060a0840161200e565b60a08201526120e160c08401612029565b60c08201526120f260e0840161203d565b60e0820152612104610100840161204e565b610100820152612117610120840161204e565b61012082015261212a610140840161204e565b61014082015261213d610160840161204e565b610160820152612150610180840161200e565b6101808201526121636101a0840161200e565b6101a08201526121766101c0840161200e565b6101c08201529392505050565b634e487b7160e01b5f52601260045260245ffd5b5f6001600160801b038316806121af576121af612183565b806001600160801b0384160491505092915050565b5f826121d2576121d2612183565b500490565b80820281158282048414176102aa576102aa611f25565b5f805f60608486031215612200575f80fd5b835161220b81611e98565b602085015190935061221c81611e98565b604085015190925061222d81611e98565b809150509250925092565b5f60208284031215612248575f80fd5b8151610a6c81611eca565b5f60208284031215612263575f80fd5b610a6c8261200e565b634e487b7160e01b5f52603260045260245ffd5b602080825282518282018190525f918401906040840190835b81811015610ff057835163ffffffff16835260209384019390920191600101612299565b5f602082840312156122cd575f80fd5b815167ffffffffffffffff8111156122e3575f80fd5b8201601f810184136122f3575f80fd5b805167ffffffffffffffff81111561230d5761230d611f5f565b8060051b61231d60208201611f9d565b91825260208184018101929081019087841115612338575f80fd5b6020850194505b8385101561071457845192506001600160d81b038316831461235f575f80fd5b8282526020948501949091019061233f565b6001600160d81b0382811682821603908111156102aa576102aa611f25565b5f6001600160d81b038316806123a8576123a8612183565b6001600160d81b0392909216919091049291505056fea264697066735822122069d6ae15e5acf109600b25dc1dc5d400602260ceed12d2e89b36b61a9572e67b64736f6c634300081a0033","linkReferences":{}},"methodIdentifiers":{"getBalancePT(address)":"70b10652","getBorrowingRates(address,bool)":"eb1f3faf","getExchangeRate()":"e6aa216c","getInternalSupplyRate()":"bbc8af0a","getNetAPY(address)":"02a15f1d","getSupplyRates(address,bool)":"90f97315","getVariableBorrowAPY()":"57d3272f","quotePT()":"01efa05d"},"id":14}