{"abi":[{"type":"function","name":"getBorrowingRates","inputs":[{"name":"token_","type":"address","internalType":"address"},{"name":"formatted_","type":"bool","internalType":"bool"}],"outputs":[{"name":"","type":"uint256","internalType":"uint256"}],"stateMutability":"view"},{"type":"function","name":"getNetAPY","inputs":[{"name":"token_","type":"address","internalType":"address"}],"outputs":[{"name":"","type":"uint256","internalType":"uint256"}],"stateMutability":"view"},{"type":"function","name":"getSupplyRates","inputs":[{"name":"token_","type":"address","internalType":"address"},{"name":"formatted_","type":"bool","internalType":"bool"}],"outputs":[{"name":"","type":"uint256","internalType":"uint256"},{"name":"","type":"uint256","internalType":"uint256"}],"stateMutability":"view"},{"type":"function","name":"getVariableBorrowAPY","inputs":[],"outputs":[{"name":"apy","type":"uint256","internalType":"uint256"}],"stateMutability":"view"},{"type":"function","name":"quotePT","inputs":[],"outputs":[{"name":"quoteInStable","type":"uint256","internalType":"uint256"}],"stateMutability":"view"}],"bytecode":{"object":"0x6080604052348015600e575f80fd5b5061231f8061001c5f395ff3fe608060405234801561000f575f80fd5b5060043610610055575f3560e01c806301efa05d1461005957806302a15f1d1461007457806357d3272f1461008757806390f973151461008d578063eb1f3faf146100b5575b5f80fd5b6100616100c8565b6040519081526020015b60405180910390f35b610061610082366004611dda565b6101a1565b5f610061565b6100a061009b366004611e02565b6101e0565b6040805192835260208301919091520161006b565b6100616100c3366004611e02565b610205565b61011b546040516370a0823160e01b81523060048201525f9182916001600160a01b03909116906370a0823190602401602060405180830381865afa158015610113573d5f803e3d5ffd5b505050506040513d601f19601f820116820180604052508101906101379190611e39565b6014546006549192505f91610161916001600160a01b039091169063ffffffff908116906102e916565b90505f6101778383670de0b6b3a7640000610333565b6015549091505f9061018c9083612710610333565b90506101988183611e64565b94505050505090565b5f806101ad835f610205565b90505f806101bb855f6101e0565b90925090505f836101cc8484611e77565b6101d69190611e64565b9695505050505050565b5f805f6101ed858561034e565b90505f6101f8610431565b9196919550909350505050565b6002546040516335ea6a7560e01b81526001600160a01b0384811660048301525f9283929116906335ea6a75906024016101e060405180830381865afa158015610251573d5f803e3d5ffd5b505050506040513d601f19601f820116820180604052508101906102759190611f84565b60800151610118549091505f906001600160a01b0386811691161480156102995750835b6102a45760016102ab565b6402540be4005b64ffffffffff169050806102d46102c6633b9aca00856120c2565b6001600160801b03166105e5565b6102de91906120ef565b925050505b92915050565b5f805f6102f58561064a565b915091508082106103135761030a858561086d565b925050506102e3565b808261031f878761086d565b6103299190612102565b61030a91906120ef565b5f825f190484118302158202610347575f80fd5b5091020490565b610118545f9081906001600160a01b03858116911614801561036d5750825b61037857600161037f565b6402540be4005b6002546040516335ea6a7560e01b81526001600160a01b03878116600483015264ffffffffff939093169350839261041f92633b9aca00929116906335ea6a75906024016101e060405180830381865afa1580156103df573d5f803e3d5ffd5b505050506040513d601f19601f820116820180604052508101906104039190611f84565b604001516001600160801b031661041a91906120ef565b6105e5565b61042991906120ef565b949350505050565b6014546006545f91829161045a916001600160a01b039091169063ffffffff908116906102e916565b6014546006549192505f91610484916001600160a01b039091169063ffffffff9081169061093516565b90505f62015180425f6006015f9054906101000a90046001600160a01b03166001600160a01b031663e184c9be6040518163ffffffff1660e01b8152600401602060405180830381865afa1580156104de573d5f803e3d5ffd5b505050506040513d601f19601f820116820180604052508101906105029190611e39565b61050c9190611e64565b61051691906120ef565b61012a549091505f906105299084612102565b90505f61053685836120ef565b90505f815f61012a015461054a9190611e77565b90505f845f61012a015461016d6105619190612102565b61056b91906120ef565b61012a549091505f9061057f908490610962565b61012a549091505f90610593908490610962565b61012a549091506105cd816105c46105bc6105b1600f88900b61099e565b600f87900b906109d6565b600f0b610a0b565b600f0b90610a5d565b6105d79190611e64565b995050505050505050505090565b5f806105f983670de0b6b3a7640000610962565b90505f61060882600f0b610a0b565b90505f6106156001610ac1565b90505f610626600f84900b83610af2565b90505f61063f600f83900b670de0b6b3a7640000610a5d565b979650505050505050565b5f805f80846001600160a01b0316632c8ce6bc6040518163ffffffff1660e01b8152600401606060405180830381865afa15801561068a573d5f803e3d5ffd5b505050506040513d601f19601f820116820180604052508101906106ae9190612119565b9250509150816001600160a01b0316633ba0b9a96040518163ffffffff1660e01b8152600401602060405180830381865afa1580156106ef573d5f803e3d5ffd5b505050506040513d601f19601f820116820180604052508101906107139190611e39565b93505f816001600160a01b031663d2a3584e6040518163ffffffff1660e01b8152600401602060405180830381865afa158015610752573d5f803e3d5ffd5b505050506040513d601f19601f820116820180604052508101906107769190611e39565b9050816001600160a01b031663516399df6040518163ffffffff1660e01b8152600401602060405180830381865afa1580156107b4573d5f803e3d5ffd5b505050506040513d601f19601f820116820180604052508101906107d89190612163565b801561084b575043826001600160a01b03166360e0a9e16040518163ffffffff1660e01b8152600401602060405180830381865afa15801561081c573d5f803e3d5ffd5b505050506040513d601f19601f82011682018060405250810190610840919061217e565b6001600160801b0316145b1561085857809350610865565b6108628582610b23565b93505b505050915091565b5f80836001600160a01b031663e184c9be6040518163ffffffff1660e01b8152600401602060405180830381865afa1580156108ab573d5f803e3d5ffd5b505050506040513d601f19601f820116820180604052508101906108cf9190611e39565b90504281116108e957670de0b6b3a76400009150506102e3565b5f6108f48585610b38565b90505f6109014284611e64565b90505f6109166109118484610c57565b610c8f565b905061092a670de0b6b3a764000082610ca0565b9450505050506102e3565b5f805f6109418561064a565b915091508082106109565761030a8585610cce565b808261031f8787610cce565b5f815f0361096e575f80fd5b5f6109798484610ceb565b905060016001607f1b036001600160801b0382161115610997575f80fd5b9392505050565b5f8082600f0b136109ad575f80fd5b60806109b883610e4a565b600f0b6fb17217f7d1cf79abc9e3b39803f2f6af02901c9050919050565b5f600f83810b9083900b0260401d60016001607f1b03198112801590610a03575060016001607f1b038113155b610997575f80fd5b5f600160461b82600f0b12610a1e575f80fd5b683fffffffffffffffff1982600f0b1215610a3a57505f919050565b6102e3608083600f0b700171547652b82fe1777d0ffda0d23a7d1202901d610f26565b5f815f03610a6c57505f6102e3565b5f83600f0b1215610a7b575f80fd5b600f83900b6001600160801b038316810260401c90608084901c026001600160c01b03811115610aa9575f80fd5b60401b8119811115610ab9575f80fd5b019392505050565b5f677fffffffffffffff198212158015610ae35750677fffffffffffffff8213155b610aeb575f80fd5b5060401b90565b5f600f82810b9084900b0360016001607f1b03198112801590610a03575060016001607f1b03811315610997575f80fd5b5f818311610b315781610997565b5090919050565b6040805160028082526060820183525f928392919060208301908036833701905050905082815f81518110610b6f57610b6f612197565b63ffffffff9092166020928302919091019091015260405163883bdbfd60e01b81525f906001600160a01b0386169063883bdbfd90610bb29085906004016121ab565b5f60405180830381865afa158015610bcc573d5f803e3d5ffd5b505050506040513d5f823e601f3d908101601f19168201604052610bf391908101906121e8565b90508363ffffffff16815f81518110610c0e57610c0e612197565b602002602001015182600181518110610c2957610c29612197565b6020026020010151610c3b919061229c565b610c4591906122bb565b6001600160d81b031695945050505050565b5f80610c686201518061016d612102565b610c728486612102565b610c7c91906120ef565b9050610429610c8a82611997565b6119ab565b5f80821215610c9c575f80fd5b5090565b5f80610cb4670de0b6b3a764000085612102565b9050828181610cc557610cc56120ae565b04949350505050565b5f610cd9838361086d565b61099790670de0b6b3a7640000611e64565b5f815f03610cf7575f80fd5b5f6001600160c01b038411610d215782604085901b81610d1957610d196120ae565b049050610e37565b60c084811c6401000000008110610d3a576020918201911c5b620100008110610d4c576010918201911c5b6101008110610d5d576008918201911c5b60108110610d6d576004918201911c5b60048110610d7d576002918201911c5b60028110610d8c576001820191505b60bf820360018603901c6001018260ff0387901b81610dad57610dad6120ae565b0492506001600160801b03831115610dc3575f80fd5b608085901c83026001600160801b038616840260c088901c604089901b82811015610def576001820391505b608084901b92900382811015610e06576001820391505b829003608084901c8214610e1b576001610e2c565b888181610e2a57610e2a6120ae565b045b870196505050505050505b6001600160801b03811115610997575f80fd5b5f8082600f0b13610e59575f80fd5b5f600f83900b680100000000000000008112610e77576040918201911d5b6401000000008112610e8b576020918201911d5b620100008112610e9d576010918201911d5b6101008112610eae576008918201911d5b60108112610ebe576004918201911d5b60048112610ece576002918201911d5b60028112610edd576001820191505b603f19820160401b600f85900b607f8490031b6001603f1b5b5f811315610f1b5790800260ff81901c8281029390930192607f011c9060011d610ef6565b509095945050505050565b5f600160461b82600f0b12610f39575f80fd5b683fffffffffffffffff1982600f0b1215610f5557505f919050565b6001607f1b5f6001603f1b8416600f0b1315610f825770016a09e667f3bcc908b2fb1366ea957d3e0260801c5b5f8367400000000000000016600f0b1315610fae577001306fe0a31b7152de8d5a46305c85edec0260801c5b5f8367200000000000000016600f0b1315610fda577001172b83c7d517adcdf7c8c50eb14a791f0260801c5b5f8367100000000000000016600f0b13156110065770010b5586cf9890f6298b92b71842a983630260801c5b5f8367080000000000000016600f0b1315611032577001059b0d31585743ae7c548eb68ca417fd0260801c5b5f8367040000000000000016600f0b131561105e57700102c9a3e778060ee6f7caca4f7a29bde80260801c5b5f8367020000000000000016600f0b131561108a5770010163da9fb33356d84a66ae336dcdfa3f0260801c5b5f8367010000000000000016600f0b13156110b657700100b1afa5abcbed6129ab13ec11dc95430260801c5b5f83668000000000000016600f0b13156110e15770010058c86da1c09ea1ff19d294cf2f679b0260801c5b5f83664000000000000016600f0b131561110c577001002c605e2e8cec506d21bfc89a23a00f0260801c5b5f83662000000000000016600f0b131561113757700100162f3904051fa128bca9c55c31e5df0260801c5b5f83661000000000000016600f0b1315611162577001000b175effdc76ba38e31671ca9397250260801c5b5f83660800000000000016600f0b131561118d57700100058ba01fb9f96d6cacd4b180917c3d0260801c5b5f83660400000000000016600f0b13156111b85770010002c5cc37da9491d0985c348c68e7b30260801c5b5f83660200000000000016600f0b13156111e3577001000162e525ee054754457d59952920260260801c5b5f83660100000000000016600f0b131561120e5770010000b17255775c040618bf4a4ade83fc0260801c5b5f836580000000000016600f0b1315611238577001000058b91b5bc9ae2eed81e9b7d4cfab0260801c5b5f836540000000000016600f0b131561126257700100002c5c89d5ec6ca4d7c8acc017b7c90260801c5b5f836520000000000016600f0b131561128c5770010000162e43f4f831060e02d839a9d16d0260801c5b5f836510000000000016600f0b13156112b657700100000b1721bcfc99d9f890ea069117630260801c5b5f836508000000000016600f0b13156112e05770010000058b90cf1e6d97f9ca14dbcc16280260801c5b5f836504000000000016600f0b131561130a577001000002c5c863b73f016468f6bac5ca2b0260801c5b5f836502000000000016600f0b131561133457700100000162e430e5a18f6119e3c02282a50260801c5b5f836501000000000016600f0b131561135e577001000000b1721835514b86e6d96efd1bfe0260801c5b5f8364800000000016600f0b131561138757700100000058b90c0b48c6be5df846c5b2ef0260801c5b5f8364400000000016600f0b13156113b05770010000002c5c8601cc6b9e94213c72737a0260801c5b5f8364200000000016600f0b13156113d9577001000000162e42fff037df38aa2b219f060260801c5b5f8364100000000016600f0b13156114025770010000000b17217fba9c739aa5819f44f90260801c5b5f8364080000000016600f0b131561142b577001000000058b90bfcdee5acd3c1cedc8230260801c5b5f8364040000000016600f0b131561145457700100000002c5c85fe31f35a6a30da1be500260801c5b5f8364020000000016600f0b131561147d5770010000000162e42ff0999ce3541b9fffcf0260801c5b5f8364010000000016600f0b13156114a657700100000000b17217f80f4ef5aadda455540260801c5b5f83638000000016600f0b13156114ce5770010000000058b90bfbf8479bd5a81b51ad0260801c5b5f83634000000016600f0b13156114f6577001000000002c5c85fdf84bd62ae30a74cc0260801c5b5f83632000000016600f0b131561151e57700100000000162e42fefb2fed257559bdaa0260801c5b5f83631000000016600f0b1315611546577001000000000b17217f7d5a7716bba4a9ae0260801c5b5f83630800000016600f0b131561156e57700100000000058b90bfbe9ddbac5e109cce0260801c5b5f83630400000016600f0b13156115965770010000000002c5c85fdf4b15de6f17eb0d0260801c5b5f83630200000016600f0b13156115be577001000000000162e42fefa494f1478fde050260801c5b5f83630100000016600f0b13156115e65770010000000000b17217f7d20cf927c8e94c0260801c5b5f836280000016600f0b131561160d577001000000000058b90bfbe8f71cb4e4b33d0260801c5b5f836240000016600f0b131561163457700100000000002c5c85fdf477b662b269450260801c5b5f836220000016600f0b131561165b5770010000000000162e42fefa3ae53369388c0260801c5b5f836210000016600f0b131561168257700100000000000b17217f7d1d351a389d400260801c5b5f836208000016600f0b13156116a95770010000000000058b90bfbe8e8b2d3d4ede0260801c5b5f836204000016600f0b13156116d0577001000000000002c5c85fdf4741bea6e77e0260801c5b5f836202000016600f0b13156116f757700100000000000162e42fefa39fe95583c20260801c5b5f836201000016600f0b131561171e577001000000000000b17217f7d1cfb72b45e10260801c5b5f8361800016600f0b131561174457700100000000000058b90bfbe8e7cc35c3f00260801c5b5f8361400016600f0b131561176a5770010000000000002c5c85fdf473e242ea380260801c5b5f8361200016600f0b1315611790577001000000000000162e42fefa39f02b772c0260801c5b5f8361100016600f0b13156117b65770010000000000000b17217f7d1cf7d83c1a0260801c5b5f8361080016600f0b13156117dc577001000000000000058b90bfbe8e7bdcbe2e0260801c5b5f8361040016600f0b131561180257700100000000000002c5c85fdf473dea871f0260801c5b5f8361020016600f0b13156118285770010000000000000162e42fefa39ef44d910260801c5b5f8361010016600f0b131561184e57700100000000000000b17217f7d1cf79e9490260801c5b5f83608016600f0b13156118735770010000000000000058b90bfbe8e7bce5440260801c5b5f83604016600f0b1315611898577001000000000000002c5c85fdf473de6eca0260801c5b5f83602016600f0b13156118bd57700100000000000000162e42fefa39ef366f0260801c5b5f83601016600f0b13156118e2577001000000000000000b17217f7d1cf79afa0260801c5b5f83600816600f0b131561190757700100000000000000058b90bfbe8e7bcd6d0260801c5b5f83600416600f0b131561192c5770010000000000000002c5c85fdf473de6b20260801c5b5f83600216600f0b1315611951577001000000000000000162e42fefa39ef3580260801c5b5f83600116600f0b13156119765770010000000000000000b17217f7d1cf79ab0260801c5b600f83810b60401d603f03900b1c60016001607f1b038111156102e3575f80fd5b5f6001600160ff1b03821115610c9c575f80fd5b5f680238fd42c5cf03ffff1982121580156119cf575068070c1cc73b00c800008213155b611a125760405162461bcd60e51b815260206004820152601060248201526f125b9d985b1a5908195e1c1bdb995b9d60821b604482015260640160405180910390fd5b5f821215611a4957611a25825f036119ab565b6ec097ce7bc90715b34b9f100000000081611a4257611a426120ae565b0592915050565b5f6806f05b59d3b20000008312611a8857506806f05b59d3b1ffffff1990910190770195e54c5dd42177f53a27172fa9ec630262827000000000611abe565b6803782dace9d90000008312611aba57506803782dace9d8ffffff19909101906b1425982cf597cd205cef7380611abe565b5060015b6064929092029168056bc75e2d6310000068ad78ebc5ac620000008412611b0e5768ad78ebc5ac61ffffff199093019268056bc75e2d631000006e01855144814a7ff805980ff008400082020590505b6856bc75e2d6310000008412611b4a576856bc75e2d630ffffff199093019268056bc75e2d631000006b02df0ab5a80a22c61ab5a70082020590505b682b5e3af16b188000008412611b8457682b5e3af16b187fffff199093019268056bc75e2d63100000693f1fce3da636ea5cf85082020590505b6815af1d78b58c4000008412611bbe576815af1d78b58c3fffff199093019268056bc75e2d63100000690127fa27722cc06cc5e282020590505b680ad78ebc5ac62000008412611bf757680ad78ebc5ac61fffff199093019268056bc75e2d6310000068280e60114edb805d0382020590505b68056bc75e2d631000008412611c305768056bc75e2d630fffff199093019268056bc75e2d63100000680ebc5fb4174612111082020590505b6802b5e3af16b18800008412611c69576802b5e3af16b187ffff199093019268056bc75e2d631000006808f00f760a4b2db55d82020590505b68015af1d78b58c400008412611ca25768015af1d78b58c3ffff199093019268056bc75e2d631000006806f5f177578893793782020590505b68056bc75e2d631000008481019085906002908280020505918201919050600368056bc75e2d631000008783020505918201919050600468056bc75e2d631000008783020505918201919050600568056bc75e2d631000008783020505918201919050600668056bc75e2d631000008783020505918201919050600768056bc75e2d631000008783020505918201919050600868056bc75e2d631000008783020505918201919050600968056bc75e2d631000008783020505918201919050600a68056bc75e2d631000008783020505918201919050600b68056bc75e2d631000008783020505918201919050600c68056bc75e2d631000008783020505918201919050606468056bc75e2d63100000848402058502059695505050505050565b6001600160a01b0381168114611dd7575f80fd5b50565b5f60208284031215611dea575f80fd5b813561099781611dc3565b8015158114611dd7575f80fd5b5f8060408385031215611e13575f80fd5b8235611e1e81611dc3565b91506020830135611e2e81611df5565b809150509250929050565b5f60208284031215611e49575f80fd5b5051919050565b634e487b7160e01b5f52601160045260245ffd5b818103818111156102e3576102e3611e50565b808201808211156102e3576102e3611e50565b634e487b7160e01b5f52604160045260245ffd5b6040516101e0810167ffffffffffffffff81118282101715611ec257611ec2611e8a565b60405290565b604051601f8201601f1916810167ffffffffffffffff81118282101715611ef157611ef1611e8a565b604052919050565b5f60208284031215611f09575f80fd5b6040516020810167ffffffffffffffff81118282101715611f2c57611f2c611e8a565b6040529151825250919050565b80516001600160801b0381168114611f4f575f80fd5b919050565b805164ffffffffff81168114611f4f575f80fd5b805161ffff81168114611f4f575f80fd5b8051611f4f81611dc3565b5f6101e0828403128015611f96575f80fd5b50611f9f611e9e565b611fa98484611ef9565b8152611fb760208401611f39565b6020820152611fc860408401611f39565b6040820152611fd960608401611f39565b6060820152611fea60808401611f39565b6080820152611ffb60a08401611f39565b60a082015261200c60c08401611f54565b60c082015261201d60e08401611f68565b60e082015261202f6101008401611f79565b6101008201526120426101208401611f79565b6101208201526120556101408401611f79565b6101408201526120686101608401611f79565b61016082015261207b6101808401611f39565b61018082015261208e6101a08401611f39565b6101a08201526120a16101c08401611f39565b6101c08201529392505050565b634e487b7160e01b5f52601260045260245ffd5b5f6001600160801b038316806120da576120da6120ae565b806001600160801b0384160491505092915050565b5f826120fd576120fd6120ae565b500490565b80820281158282048414176102e3576102e3611e50565b5f805f6060848603121561212b575f80fd5b835161213681611dc3565b602085015190935061214781611dc3565b604085015190925061215881611dc3565b809150509250925092565b5f60208284031215612173575f80fd5b815161099781611df5565b5f6020828403121561218e575f80fd5b61099782611f39565b634e487b7160e01b5f52603260045260245ffd5b602080825282518282018190525f918401906040840190835b81811015610f1b57835163ffffffff168352602093840193909201916001016121c4565b5f602082840312156121f8575f80fd5b815167ffffffffffffffff81111561220e575f80fd5b8201601f8101841361221e575f80fd5b805167ffffffffffffffff81111561223857612238611e8a565b8060051b61224860208201611ec8565b91825260208184018101929081019087841115612263575f80fd5b6020850194505b8385101561063f57845192506001600160d81b038316831461228a575f80fd5b8282526020948501949091019061226a565b6001600160d81b0382811682821603908111156102e3576102e3611e50565b5f6001600160d81b038316806122d3576122d36120ae565b6001600160d81b0392909216919091049291505056fea2646970667358221220e914df74711fb01ec5edd0c5e4691212a67a5780118fad55e67f3775a08ccd6764736f6c634300081a0033","linkReferences":{}},"methodIdentifiers":{"getBorrowingRates(address,bool)":"eb1f3faf","getNetAPY(address)":"02a15f1d","getSupplyRates(address,bool)":"90f97315","getVariableBorrowAPY()":"57d3272f","quotePT()":"01efa05d"},"id":12}