{"abi":[{"type":"function","name":"getBalancePT","inputs":[{"name":"user_","type":"address","internalType":"address"}],"outputs":[{"name":"","type":"uint256","internalType":"uint256"}],"stateMutability":"view"},{"type":"function","name":"getBorrowingRates","inputs":[{"name":"token_","type":"address","internalType":"address"},{"name":"formatted_","type":"bool","internalType":"bool"},{"name":"isAPY_","type":"bool","internalType":"bool"}],"outputs":[{"name":"","type":"uint256","internalType":"uint256"}],"stateMutability":"view"},{"type":"function","name":"getExchangeRate","inputs":[],"outputs":[{"name":"","type":"uint256","internalType":"uint256"}],"stateMutability":"view"},{"type":"function","name":"getInternalSupplyRate","inputs":[],"outputs":[{"name":"","type":"uint256","internalType":"uint256"}],"stateMutability":"view"},{"type":"function","name":"getNetAPY","inputs":[{"name":"token_","type":"address","internalType":"address"}],"outputs":[{"name":"","type":"uint256","internalType":"uint256"}],"stateMutability":"view"},{"type":"function","name":"getSupplyRates","inputs":[{"name":"token_","type":"address","internalType":"address"},{"name":"formatted_","type":"bool","internalType":"bool"}],"outputs":[{"name":"","type":"uint256","internalType":"uint256"},{"name":"","type":"uint256","internalType":"uint256"}],"stateMutability":"view"},{"type":"function","name":"getVariableBorrowAPY","inputs":[],"outputs":[{"name":"apy","type":"uint256","internalType":"uint256"}],"stateMutability":"view"},{"type":"function","name":"quotePT","inputs":[],"outputs":[{"name":"quoteInStable","type":"uint256","internalType":"uint256"}],"stateMutability":"view"}],"bytecode":{"object":"0x6080604052348015600e575f80fd5b506124128061001c5f395ff3fe608060405234801561000f575f80fd5b5060043610610085575f3560e01c806370b106521161005857806370b10652146100d057806390f97315146100e3578063bbc8af0a1461010b578063e6aa216c14610113575f80fd5b806301efa05d1461008957806302a15f1d146100a4578063149ac7b4146100b757806357d3272f146100ca575b5f80fd5b61009161011c565b6040519081526020015b60405180910390f35b6100916100b2366004611e90565b6101f5565b6100916100c5366004611eb8565b610236565b5f610091565b6100916100de366004611e90565b505f90565b6100f66100f1366004611f00565b610329565b6040805192835260208301919091520161009b565b61009161034f565b61013154610091565b61011b546040516370a0823160e01b81523060048201525f9182916001600160a01b03909116906370a0823190602401602060405180830381865afa158015610167573d5f803e3d5ffd5b505050506040513d601f19601f8201168201806040525081019061018b9190611f37565b6014546006549192505f916101b5916001600160a01b039091169063ffffffff9081169061037e16565b90505f6101cb8383670de0b6b3a76400006103c8565b6015549091505f906101e090836127106103c8565b90506101ec8183611f62565b94505050505090565b5f80610203835f6001610236565b90505f80610211855f610329565b90925090505f836102228484611f75565b61022c9190611f62565b9695505050505050565b6002546040516335ea6a7560e01b81526001600160a01b0385811660048301525f9283929116906335ea6a75906024016101e060405180830381865afa158015610282573d5f803e3d5ffd5b505050506040513d601f19601f820116820180604052508101906102a69190612082565b60800151610118549091505f906001600160a01b0387811691161480156102ca5750845b6102d55760016102dc565b6402540be4005b64ffffffffff1690505f6102f4633b9aca00846121c0565b6001600160801b03169050818561030b5781610314565b610314826103e3565b61031e91906121ed565b979650505050505050565b5f805f610336858561043d565b90505f61034285610520565b9196919550909350505050565b6014546006545f918291610378916001600160a01b039091169063ffffffff9081169061037e16565b92915050565b5f805f61038a85610700565b915091508082106103a85761039f8585610923565b92505050610378565b80826103b48787610923565b6103be9190612200565b61039f91906121ed565b5f825f1904841183021582026103dc575f80fd5b5091020490565b5f806103f783670de0b6b3a76400006109eb565b90505f61040682600f0b610a27565b90505f6104136001610a79565b90505f610424600f84900b83610aaa565b90505f61031e600f83900b670de0b6b3a7640000610adc565b610118545f9081906001600160a01b03858116911614801561045c5750825b61046757600161046e565b6402540be4005b6002546040516335ea6a7560e01b81526001600160a01b03878116600483015264ffffffffff939093169350839261050e92633b9aca00929116906335ea6a75906024016101e060405180830381865afa1580156104ce573d5f803e3d5ffd5b505050506040513d601f19601f820116820180604052508101906104f29190612082565b604001516001600160801b031661050991906121ed565b6103e3565b61051891906121ed565b949350505050565b6014546006545f918291610549916001600160a01b039091169063ffffffff9081169061037e16565b6014546006549192505f91610573916001600160a01b039091169063ffffffff90811690610b4016565b90505f62015180425f6006015f9054906101000a90046001600160a01b03166001600160a01b031663e184c9be6040518163ffffffff1660e01b8152600401602060405180830381865afa1580156105cd573d5f803e3d5ffd5b505050506040513d601f19601f820116820180604052508101906105f19190611f37565b6105fb9190611f62565b61060591906121ed565b90505f8561061457600161061b565b6402540be4005b64ffffffffff1690505f8061012a0154846106369190612200565b90505f61064386836121ed565b90505f815f61012a01546106579190611f75565b90505f855f61012a015461016d61066e9190612200565b61067891906121ed565b61012a549091505f9061068c9084906109eb565b61012a549091505f906106a09084906109eb565b61012a5490915087906106dc816106d36106cb6106c0600f89900b610b6d565b600f88900b90610ba5565b600f0b610a27565b600f0b90610adc565b6106e69190611f62565b6106f091906121ed565b9c9b505050505050505050505050565b5f805f80846001600160a01b0316632c8ce6bc6040518163ffffffff1660e01b8152600401606060405180830381865afa158015610740573d5f803e3d5ffd5b505050506040513d601f19601f820116820180604052508101906107649190612217565b9250509150816001600160a01b0316633ba0b9a96040518163ffffffff1660e01b8152600401602060405180830381865afa1580156107a5573d5f803e3d5ffd5b505050506040513d601f19601f820116820180604052508101906107c99190611f37565b93505f816001600160a01b031663d2a3584e6040518163ffffffff1660e01b8152600401602060405180830381865afa158015610808573d5f803e3d5ffd5b505050506040513d601f19601f8201168201806040525081019061082c9190611f37565b9050816001600160a01b031663516399df6040518163ffffffff1660e01b8152600401602060405180830381865afa15801561086a573d5f803e3d5ffd5b505050506040513d601f19601f8201168201806040525081019061088e9190612256565b8015610901575043826001600160a01b03166360e0a9e16040518163ffffffff1660e01b8152600401602060405180830381865afa1580156108d2573d5f803e3d5ffd5b505050506040513d601f19601f820116820180604052508101906108f69190612271565b6001600160801b0316145b1561090e5780935061091b565b6109188582610bd9565b93505b505050915091565b5f80836001600160a01b031663e184c9be6040518163ffffffff1660e01b8152600401602060405180830381865afa158015610961573d5f803e3d5ffd5b505050506040513d601f19601f820116820180604052508101906109859190611f37565b905042811161099f57670de0b6b3a7640000915050610378565b5f6109aa8585610bee565b90505f6109b74284611f62565b90505f6109cc6109c78484610d0d565b610d45565b90506109e0670de0b6b3a764000082610d56565b945050505050610378565b5f815f036109f7575f80fd5b5f610a028484610d84565b905060016001607f1b036001600160801b0382161115610a20575f80fd5b9392505050565b5f600160461b82600f0b12610a3a575f80fd5b683fffffffffffffffff1982600f0b1215610a5657505f919050565b610378608083600f0b700171547652b82fe1777d0ffda0d23a7d1202901d610ee3565b5f677fffffffffffffff198212158015610a9b5750677fffffffffffffff8213155b610aa3575f80fd5b5060401b90565b5f600f82810b9084900b0360016001607f1b03198112801590610ad4575060016001607f1b038113155b610a20575f80fd5b5f815f03610aeb57505f610378565b5f83600f0b1215610afa575f80fd5b600f83900b6001600160801b038316810260401c90608084901c026001600160c01b03811115610b28575f80fd5b60401b8119811115610b38575f80fd5b019392505050565b5f805f610b4c85610700565b91509150808210610b615761039f8585611954565b80826103b48787611954565b5f8082600f0b13610b7c575f80fd5b6080610b8783611971565b600f0b6fb17217f7d1cf79abc9e3b39803f2f6af02901c9050919050565b5f600f83810b9083900b0260401d60016001607f1b03198112801590610ad4575060016001607f1b03811315610a20575f80fd5b5f818311610be75781610a20565b5090919050565b6040805160028082526060820183525f928392919060208301908036833701905050905082815f81518110610c2557610c2561228a565b63ffffffff9092166020928302919091019091015260405163883bdbfd60e01b81525f906001600160a01b0386169063883bdbfd90610c6890859060040161229e565b5f60405180830381865afa158015610c82573d5f803e3d5ffd5b505050506040513d5f823e601f3d908101601f19168201604052610ca991908101906122db565b90508363ffffffff16815f81518110610cc457610cc461228a565b602002602001015182600181518110610cdf57610cdf61228a565b6020026020010151610cf1919061238f565b610cfb91906123ae565b6001600160d81b031695945050505050565b5f80610d1e6201518061016d612200565b610d288486612200565b610d3291906121ed565b9050610518610d4082611a4d565b611a61565b5f80821215610d52575f80fd5b5090565b5f80610d6a670de0b6b3a764000085612200565b9050828181610d7b57610d7b6121ac565b04949350505050565b5f815f03610d90575f80fd5b5f6001600160c01b038411610dba5782604085901b81610db257610db26121ac565b049050610ed0565b60c084811c6401000000008110610dd3576020918201911c5b620100008110610de5576010918201911c5b6101008110610df6576008918201911c5b60108110610e06576004918201911c5b60048110610e16576002918201911c5b60028110610e25576001820191505b60bf820360018603901c6001018260ff0387901b81610e4657610e466121ac565b0492506001600160801b03831115610e5c575f80fd5b608085901c83026001600160801b038616840260c088901c604089901b82811015610e88576001820391505b608084901b92900382811015610e9f576001820391505b829003608084901c8214610eb4576001610ec5565b888181610ec357610ec36121ac565b045b870196505050505050505b6001600160801b03811115610a20575f80fd5b5f600160461b82600f0b12610ef6575f80fd5b683fffffffffffffffff1982600f0b1215610f1257505f919050565b6001607f1b5f6001603f1b8416600f0b1315610f3f5770016a09e667f3bcc908b2fb1366ea957d3e0260801c5b5f8367400000000000000016600f0b1315610f6b577001306fe0a31b7152de8d5a46305c85edec0260801c5b5f8367200000000000000016600f0b1315610f97577001172b83c7d517adcdf7c8c50eb14a791f0260801c5b5f8367100000000000000016600f0b1315610fc35770010b5586cf9890f6298b92b71842a983630260801c5b5f8367080000000000000016600f0b1315610fef577001059b0d31585743ae7c548eb68ca417fd0260801c5b5f8367040000000000000016600f0b131561101b57700102c9a3e778060ee6f7caca4f7a29bde80260801c5b5f8367020000000000000016600f0b13156110475770010163da9fb33356d84a66ae336dcdfa3f0260801c5b5f8367010000000000000016600f0b131561107357700100b1afa5abcbed6129ab13ec11dc95430260801c5b5f83668000000000000016600f0b131561109e5770010058c86da1c09ea1ff19d294cf2f679b0260801c5b5f83664000000000000016600f0b13156110c9577001002c605e2e8cec506d21bfc89a23a00f0260801c5b5f83662000000000000016600f0b13156110f457700100162f3904051fa128bca9c55c31e5df0260801c5b5f83661000000000000016600f0b131561111f577001000b175effdc76ba38e31671ca9397250260801c5b5f83660800000000000016600f0b131561114a57700100058ba01fb9f96d6cacd4b180917c3d0260801c5b5f83660400000000000016600f0b13156111755770010002c5cc37da9491d0985c348c68e7b30260801c5b5f83660200000000000016600f0b13156111a0577001000162e525ee054754457d59952920260260801c5b5f83660100000000000016600f0b13156111cb5770010000b17255775c040618bf4a4ade83fc0260801c5b5f836580000000000016600f0b13156111f5577001000058b91b5bc9ae2eed81e9b7d4cfab0260801c5b5f836540000000000016600f0b131561121f57700100002c5c89d5ec6ca4d7c8acc017b7c90260801c5b5f836520000000000016600f0b13156112495770010000162e43f4f831060e02d839a9d16d0260801c5b5f836510000000000016600f0b131561127357700100000b1721bcfc99d9f890ea069117630260801c5b5f836508000000000016600f0b131561129d5770010000058b90cf1e6d97f9ca14dbcc16280260801c5b5f836504000000000016600f0b13156112c7577001000002c5c863b73f016468f6bac5ca2b0260801c5b5f836502000000000016600f0b13156112f157700100000162e430e5a18f6119e3c02282a50260801c5b5f836501000000000016600f0b131561131b577001000000b1721835514b86e6d96efd1bfe0260801c5b5f8364800000000016600f0b131561134457700100000058b90c0b48c6be5df846c5b2ef0260801c5b5f8364400000000016600f0b131561136d5770010000002c5c8601cc6b9e94213c72737a0260801c5b5f8364200000000016600f0b1315611396577001000000162e42fff037df38aa2b219f060260801c5b5f8364100000000016600f0b13156113bf5770010000000b17217fba9c739aa5819f44f90260801c5b5f8364080000000016600f0b13156113e8577001000000058b90bfcdee5acd3c1cedc8230260801c5b5f8364040000000016600f0b131561141157700100000002c5c85fe31f35a6a30da1be500260801c5b5f8364020000000016600f0b131561143a5770010000000162e42ff0999ce3541b9fffcf0260801c5b5f8364010000000016600f0b131561146357700100000000b17217f80f4ef5aadda455540260801c5b5f83638000000016600f0b131561148b5770010000000058b90bfbf8479bd5a81b51ad0260801c5b5f83634000000016600f0b13156114b3577001000000002c5c85fdf84bd62ae30a74cc0260801c5b5f83632000000016600f0b13156114db57700100000000162e42fefb2fed257559bdaa0260801c5b5f83631000000016600f0b1315611503577001000000000b17217f7d5a7716bba4a9ae0260801c5b5f83630800000016600f0b131561152b57700100000000058b90bfbe9ddbac5e109cce0260801c5b5f83630400000016600f0b13156115535770010000000002c5c85fdf4b15de6f17eb0d0260801c5b5f83630200000016600f0b131561157b577001000000000162e42fefa494f1478fde050260801c5b5f83630100000016600f0b13156115a35770010000000000b17217f7d20cf927c8e94c0260801c5b5f836280000016600f0b13156115ca577001000000000058b90bfbe8f71cb4e4b33d0260801c5b5f836240000016600f0b13156115f157700100000000002c5c85fdf477b662b269450260801c5b5f836220000016600f0b13156116185770010000000000162e42fefa3ae53369388c0260801c5b5f836210000016600f0b131561163f57700100000000000b17217f7d1d351a389d400260801c5b5f836208000016600f0b13156116665770010000000000058b90bfbe8e8b2d3d4ede0260801c5b5f836204000016600f0b131561168d577001000000000002c5c85fdf4741bea6e77e0260801c5b5f836202000016600f0b13156116b457700100000000000162e42fefa39fe95583c20260801c5b5f836201000016600f0b13156116db577001000000000000b17217f7d1cfb72b45e10260801c5b5f8361800016600f0b131561170157700100000000000058b90bfbe8e7cc35c3f00260801c5b5f8361400016600f0b13156117275770010000000000002c5c85fdf473e242ea380260801c5b5f8361200016600f0b131561174d577001000000000000162e42fefa39f02b772c0260801c5b5f8361100016600f0b13156117735770010000000000000b17217f7d1cf7d83c1a0260801c5b5f8361080016600f0b1315611799577001000000000000058b90bfbe8e7bdcbe2e0260801c5b5f8361040016600f0b13156117bf57700100000000000002c5c85fdf473dea871f0260801c5b5f8361020016600f0b13156117e55770010000000000000162e42fefa39ef44d910260801c5b5f8361010016600f0b131561180b57700100000000000000b17217f7d1cf79e9490260801c5b5f83608016600f0b13156118305770010000000000000058b90bfbe8e7bce5440260801c5b5f83604016600f0b1315611855577001000000000000002c5c85fdf473de6eca0260801c5b5f83602016600f0b131561187a57700100000000000000162e42fefa39ef366f0260801c5b5f83601016600f0b131561189f577001000000000000000b17217f7d1cf79afa0260801c5b5f83600816600f0b13156118c457700100000000000000058b90bfbe8e7bcd6d0260801c5b5f83600416600f0b13156118e95770010000000000000002c5c85fdf473de6b20260801c5b5f83600216600f0b131561190e577001000000000000000162e42fefa39ef3580260801c5b5f83600116600f0b13156119335770010000000000000000b17217f7d1cf79ab0260801c5b600f83810b60401d603f03900b1c60016001607f1b03811115610378575f80fd5b5f61195f8383610923565b610a2090670de0b6b3a7640000611f62565b5f8082600f0b13611980575f80fd5b5f600f83900b68010000000000000000811261199e576040918201911d5b64010000000081126119b2576020918201911d5b6201000081126119c4576010918201911d5b61010081126119d5576008918201911d5b601081126119e5576004918201911d5b600481126119f5576002918201911d5b60028112611a04576001820191505b603f19820160401b600f85900b607f8490031b6001603f1b5b5f811315611a425790800260ff81901c8281029390930192607f011c9060011d611a1d565b509095945050505050565b5f6001600160ff1b03821115610d52575f80fd5b5f680238fd42c5cf03ffff198212158015611a85575068070c1cc73b00c800008213155b611ac85760405162461bcd60e51b815260206004820152601060248201526f125b9d985b1a5908195e1c1bdb995b9d60821b604482015260640160405180910390fd5b5f821215611aff57611adb825f03611a61565b6ec097ce7bc90715b34b9f100000000081611af857611af86121ac565b0592915050565b5f6806f05b59d3b20000008312611b3e57506806f05b59d3b1ffffff1990910190770195e54c5dd42177f53a27172fa9ec630262827000000000611b74565b6803782dace9d90000008312611b7057506803782dace9d8ffffff19909101906b1425982cf597cd205cef7380611b74565b5060015b6064929092029168056bc75e2d6310000068ad78ebc5ac620000008412611bc45768ad78ebc5ac61ffffff199093019268056bc75e2d631000006e01855144814a7ff805980ff008400082020590505b6856bc75e2d6310000008412611c00576856bc75e2d630ffffff199093019268056bc75e2d631000006b02df0ab5a80a22c61ab5a70082020590505b682b5e3af16b188000008412611c3a57682b5e3af16b187fffff199093019268056bc75e2d63100000693f1fce3da636ea5cf85082020590505b6815af1d78b58c4000008412611c74576815af1d78b58c3fffff199093019268056bc75e2d63100000690127fa27722cc06cc5e282020590505b680ad78ebc5ac62000008412611cad57680ad78ebc5ac61fffff199093019268056bc75e2d6310000068280e60114edb805d0382020590505b68056bc75e2d631000008412611ce65768056bc75e2d630fffff199093019268056bc75e2d63100000680ebc5fb4174612111082020590505b6802b5e3af16b18800008412611d1f576802b5e3af16b187ffff199093019268056bc75e2d631000006808f00f760a4b2db55d82020590505b68015af1d78b58c400008412611d585768015af1d78b58c3ffff199093019268056bc75e2d631000006806f5f177578893793782020590505b68056bc75e2d631000008481019085906002908280020505918201919050600368056bc75e2d631000008783020505918201919050600468056bc75e2d631000008783020505918201919050600568056bc75e2d631000008783020505918201919050600668056bc75e2d631000008783020505918201919050600768056bc75e2d631000008783020505918201919050600868056bc75e2d631000008783020505918201919050600968056bc75e2d631000008783020505918201919050600a68056bc75e2d631000008783020505918201919050600b68056bc75e2d631000008783020505918201919050600c68056bc75e2d631000008783020505918201919050606468056bc75e2d63100000848402058502059695505050505050565b6001600160a01b0381168114611e8d575f80fd5b50565b5f60208284031215611ea0575f80fd5b8135610a2081611e79565b8015158114611e8d575f80fd5b5f805f60608486031215611eca575f80fd5b8335611ed581611e79565b92506020840135611ee581611eab565b91506040840135611ef581611eab565b809150509250925092565b5f8060408385031215611f11575f80fd5b8235611f1c81611e79565b91506020830135611f2c81611eab565b809150509250929050565b5f60208284031215611f47575f80fd5b5051919050565b634e487b7160e01b5f52601160045260245ffd5b8181038181111561037857610378611f4e565b8082018082111561037857610378611f4e565b634e487b7160e01b5f52604160045260245ffd5b6040516101e0810167ffffffffffffffff81118282101715611fc057611fc0611f88565b60405290565b604051601f8201601f1916810167ffffffffffffffff81118282101715611fef57611fef611f88565b604052919050565b5f60208284031215612007575f80fd5b6040516020810167ffffffffffffffff8111828210171561202a5761202a611f88565b6040529151825250919050565b80516001600160801b038116811461204d575f80fd5b919050565b805164ffffffffff8116811461204d575f80fd5b805161ffff8116811461204d575f80fd5b805161204d81611e79565b5f6101e0828403128015612094575f80fd5b5061209d611f9c565b6120a78484611ff7565b81526120b560208401612037565b60208201526120c660408401612037565b60408201526120d760608401612037565b60608201526120e860808401612037565b60808201526120f960a08401612037565b60a082015261210a60c08401612052565b60c082015261211b60e08401612066565b60e082015261212d6101008401612077565b6101008201526121406101208401612077565b6101208201526121536101408401612077565b6101408201526121666101608401612077565b6101608201526121796101808401612037565b61018082015261218c6101a08401612037565b6101a082015261219f6101c08401612037565b6101c08201529392505050565b634e487b7160e01b5f52601260045260245ffd5b5f6001600160801b038316806121d8576121d86121ac565b806001600160801b0384160491505092915050565b5f826121fb576121fb6121ac565b500490565b808202811582820484141761037857610378611f4e565b5f805f60608486031215612229575f80fd5b835161223481611e79565b602085015190935061224581611e79565b6040850151909250611ef581611e79565b5f60208284031215612266575f80fd5b8151610a2081611eab565b5f60208284031215612281575f80fd5b610a2082612037565b634e487b7160e01b5f52603260045260245ffd5b602080825282518282018190525f918401906040840190835b81811015611a4257835163ffffffff168352602093840193909201916001016122b7565b5f602082840312156122eb575f80fd5b815167ffffffffffffffff811115612301575f80fd5b8201601f81018413612311575f80fd5b805167ffffffffffffffff81111561232b5761232b611f88565b8060051b61233b60208201611fc6565b91825260208184018101929081019087841115612356575f80fd5b6020850194505b8385101561031e57845192506001600160d81b038316831461237d575f80fd5b8282526020948501949091019061235d565b6001600160d81b03828116828216039081111561037857610378611f4e565b5f6001600160d81b038316806123c6576123c66121ac565b6001600160d81b0392909216919091049291505056fea264697066735822122062a1174a9979c40120c6cb4dba7babc583647a6037c9d2aec5355d4512be880a64736f6c634300081a0033","linkReferences":{}},"methodIdentifiers":{"getBalancePT(address)":"70b10652","getBorrowingRates(address,bool,bool)":"149ac7b4","getExchangeRate()":"e6aa216c","getInternalSupplyRate()":"bbc8af0a","getNetAPY(address)":"02a15f1d","getSupplyRates(address,bool)":"90f97315","getVariableBorrowAPY()":"57d3272f","quotePT()":"01efa05d"},"id":14}