{"abi":[{"type":"function","name":"getBorrowingRates","inputs":[{"name":"token_","type":"address","internalType":"address"}],"outputs":[{"name":"","type":"uint256","internalType":"uint256"}],"stateMutability":"view"},{"type":"function","name":"getSupplyRates","inputs":[{"name":"token_","type":"address","internalType":"address"}],"outputs":[{"name":"","type":"uint256","internalType":"uint256"}],"stateMutability":"view"},{"type":"function","name":"getVariableBorrowAPY","inputs":[],"outputs":[{"name":"apy","type":"uint256","internalType":"uint256"}],"stateMutability":"view"},{"type":"function","name":"getVariableSupplyAPY","inputs":[],"outputs":[{"name":"","type":"uint256","internalType":"uint256"}],"stateMutability":"view"},{"type":"function","name":"quotePT","inputs":[],"outputs":[{"name":"quoteInStable","type":"uint256","internalType":"uint256"}],"stateMutability":"view"}],"bytecode":{"object":"0x6080604052348015600e575f80fd5b506121c08061001c5f395ff3fe608060405234801561000f575f80fd5b5060043610610055575f3560e01c806301efa05d1461005957806357d3272f14610073578063a86725151461007b578063ac5c510b1461008e578063cdf19e54146100a1575b5f80fd5b6100616100a7565b60405190815260200160405180910390f35b610061610180565b610061610089366004611cbb565b610334565b61006161009c366004611cbb565b6103d0565b5f610061565b61011b546040516370a0823160e01b81523060048201525f9182916001600160a01b03909116906370a0823190602401602060405180830381865afa1580156100f2573d5f803e3d5ffd5b505050506040513d601f19601f820116820180604052508101906101169190611cd6565b6014546006549192505f91610140916001600160a01b039091169063ffffffff9081169061046516565b90505f6101568383670de0b6b3a76400006104b5565b6015549091505f9061016b90836127106104b5565b90506101778183611d01565b94505050505090565b6014546006545f9182916101a9916001600160a01b039091169063ffffffff9081169061046516565b6014546006549192505f916101d3916001600160a01b039091169063ffffffff908116906104d016565b90505f62015180425f6006015f9054906101000a90046001600160a01b03166001600160a01b031663e184c9be6040518163ffffffff1660e01b8152600401602060405180830381865afa15801561022d573d5f803e3d5ffd5b505050506040513d601f19601f820116820180604052508101906102519190611cd6565b61025b9190611d01565b6102659190611d28565b61012a549091505f906102789084611d3b565b90505f6102858583611d28565b90505f815f61012a01546102999190611d52565b90505f845f61012a015461016d6102b09190611d3b565b6102ba9190611d28565b61012a549091505f906102ce9084906104fd565b61012a549091505f906102e29084906104fd565b61012a5490915061031c8161031361030b610300600f88900b610532565b600f87900b9061056a565b600f0b61059f565b600f0b906105f1565b6103269190611d01565b995050505050505050505090565b6002546040516335ea6a7560e01b81526001600160a01b0383811660048301525f9283929116906335ea6a75906024016101e060405180830381865afa158015610380573d5f803e3d5ffd5b505050506040513d601f19601f820116820180604052508101906103a49190611e5f565b6080015190506103c96103bb633b9aca0083611f89565b6001600160801b0316610655565b9392505050565b6002546040516335ea6a7560e01b81526001600160a01b0383811660048301525f9283926103c992633b9aca009216906335ea6a75906024016101e060405180830381865afa158015610425573d5f803e3d5ffd5b505050506040513d601f19601f820116820180604052508101906104499190611e5f565b604001516001600160801b03166104609190611d28565b610655565b5f805f610471856106af565b9150915080821061048f5761048685856108d2565b925050506104af565b808261049b87876108d2565b6104a59190611d3b565b6104869190611d28565b92915050565b5f825f1904841183021582026104c9575f80fd5b5091020490565b5f805f6104dc856106af565b915091508082106104f157610486858561099a565b808261049b878761099a565b5f815f03610509575f80fd5b5f61051484846109b7565b905060016001607f1b036001600160801b03821611156103c9575f80fd5b5f8082600f0b13610541575f80fd5b608061054c83610b16565b600f0b6fb17217f7d1cf79abc9e3b39803f2f6af02901c9050919050565b5f600f83810b9083900b0260401d60016001607f1b03198112801590610597575060016001607f1b038113155b6103c9575f80fd5b5f600160461b82600f0b126105b2575f80fd5b683fffffffffffffffff1982600f0b12156105ce57505f919050565b6104af608083600f0b700171547652b82fe1777d0ffda0d23a7d1202901d610bf2565b5f815f0361060057505f6104af565b5f83600f0b121561060f575f80fd5b600f83900b6001600160801b038316810260401c90608084901c026001600160c01b0381111561063d575f80fd5b60401b811981111561064d575f80fd5b019392505050565b5f8061066983670de0b6b3a76400006104fd565b90505f6106758261059f565b90505f6106826001611663565b90505f61068f8383611694565b90505f6106a482670de0b6b3a76400006105f1565b979650505050505050565b5f805f80846001600160a01b0316632c8ce6bc6040518163ffffffff1660e01b8152600401606060405180830381865afa1580156106ef573d5f803e3d5ffd5b505050506040513d601f19601f820116820180604052508101906107139190611fb6565b9250509150816001600160a01b0316633ba0b9a96040518163ffffffff1660e01b8152600401602060405180830381865afa158015610754573d5f803e3d5ffd5b505050506040513d601f19601f820116820180604052508101906107789190611cd6565b93505f816001600160a01b031663d2a3584e6040518163ffffffff1660e01b8152600401602060405180830381865afa1580156107b7573d5f803e3d5ffd5b505050506040513d601f19601f820116820180604052508101906107db9190611cd6565b9050816001600160a01b031663516399df6040518163ffffffff1660e01b8152600401602060405180830381865afa158015610819573d5f803e3d5ffd5b505050506040513d601f19601f8201168201806040525081019061083d9190612000565b80156108b0575043826001600160a01b03166360e0a9e16040518163ffffffff1660e01b8152600401602060405180830381865afa158015610881573d5f803e3d5ffd5b505050506040513d601f19601f820116820180604052508101906108a5919061201f565b6001600160801b0316145b156108bd578093506108ca565b6108c785826116c5565b93505b505050915091565b5f80836001600160a01b031663e184c9be6040518163ffffffff1660e01b8152600401602060405180830381865afa158015610910573d5f803e3d5ffd5b505050506040513d601f19601f820116820180604052508101906109349190611cd6565b905042811161094e57670de0b6b3a76400009150506104af565b5f61095985856116da565b90505f6109664284611d01565b90505f61097b61097684846117f9565b611839565b905061098f670de0b6b3a76400008261184a565b9450505050506104af565b5f6109a583836108d2565b6103c990670de0b6b3a7640000611d01565b5f815f036109c3575f80fd5b5f6001600160c01b0384116109ed5782604085901b816109e5576109e5611d14565b049050610b03565b60c084811c6401000000008110610a06576020918201911c5b620100008110610a18576010918201911c5b6101008110610a29576008918201911c5b60108110610a39576004918201911c5b60048110610a49576002918201911c5b60028110610a58576001820191505b60bf820360018603901c6001018260ff0387901b81610a7957610a79611d14565b0492506001600160801b03831115610a8f575f80fd5b608085901c83026001600160801b038616840260c088901c604089901b82811015610abb576001820391505b608084901b92900382811015610ad2576001820391505b829003608084901c8214610ae7576001610af8565b888181610af657610af6611d14565b045b870196505050505050505b6001600160801b038111156103c9575f80fd5b5f8082600f0b13610b25575f80fd5b5f600f83900b680100000000000000008112610b43576040918201911d5b6401000000008112610b57576020918201911d5b620100008112610b69576010918201911d5b6101008112610b7a576008918201911d5b60108112610b8a576004918201911d5b60048112610b9a576002918201911d5b60028112610ba9576001820191505b603f19820160401b600f85900b607f8490031b6001603f1b5b5f811315610be75790800260ff81901c8281029390930192607f011c9060011d610bc2565b509095945050505050565b5f600160461b82600f0b12610c05575f80fd5b683fffffffffffffffff1982600f0b1215610c2157505f919050565b6001607f1b5f6001603f1b8416600f0b1315610c4e5770016a09e667f3bcc908b2fb1366ea957d3e0260801c5b5f8367400000000000000016600f0b1315610c7a577001306fe0a31b7152de8d5a46305c85edec0260801c5b5f8367200000000000000016600f0b1315610ca6577001172b83c7d517adcdf7c8c50eb14a791f0260801c5b5f8367100000000000000016600f0b1315610cd25770010b5586cf9890f6298b92b71842a983630260801c5b5f8367080000000000000016600f0b1315610cfe577001059b0d31585743ae7c548eb68ca417fd0260801c5b5f8367040000000000000016600f0b1315610d2a57700102c9a3e778060ee6f7caca4f7a29bde80260801c5b5f8367020000000000000016600f0b1315610d565770010163da9fb33356d84a66ae336dcdfa3f0260801c5b5f8367010000000000000016600f0b1315610d8257700100b1afa5abcbed6129ab13ec11dc95430260801c5b5f83668000000000000016600f0b1315610dad5770010058c86da1c09ea1ff19d294cf2f679b0260801c5b5f83664000000000000016600f0b1315610dd8577001002c605e2e8cec506d21bfc89a23a00f0260801c5b5f83662000000000000016600f0b1315610e0357700100162f3904051fa128bca9c55c31e5df0260801c5b5f83661000000000000016600f0b1315610e2e577001000b175effdc76ba38e31671ca9397250260801c5b5f83660800000000000016600f0b1315610e5957700100058ba01fb9f96d6cacd4b180917c3d0260801c5b5f83660400000000000016600f0b1315610e845770010002c5cc37da9491d0985c348c68e7b30260801c5b5f83660200000000000016600f0b1315610eaf577001000162e525ee054754457d59952920260260801c5b5f83660100000000000016600f0b1315610eda5770010000b17255775c040618bf4a4ade83fc0260801c5b5f836580000000000016600f0b1315610f04577001000058b91b5bc9ae2eed81e9b7d4cfab0260801c5b5f836540000000000016600f0b1315610f2e57700100002c5c89d5ec6ca4d7c8acc017b7c90260801c5b5f836520000000000016600f0b1315610f585770010000162e43f4f831060e02d839a9d16d0260801c5b5f836510000000000016600f0b1315610f8257700100000b1721bcfc99d9f890ea069117630260801c5b5f836508000000000016600f0b1315610fac5770010000058b90cf1e6d97f9ca14dbcc16280260801c5b5f836504000000000016600f0b1315610fd6577001000002c5c863b73f016468f6bac5ca2b0260801c5b5f836502000000000016600f0b131561100057700100000162e430e5a18f6119e3c02282a50260801c5b5f836501000000000016600f0b131561102a577001000000b1721835514b86e6d96efd1bfe0260801c5b5f8364800000000016600f0b131561105357700100000058b90c0b48c6be5df846c5b2ef0260801c5b5f8364400000000016600f0b131561107c5770010000002c5c8601cc6b9e94213c72737a0260801c5b5f8364200000000016600f0b13156110a5577001000000162e42fff037df38aa2b219f060260801c5b5f8364100000000016600f0b13156110ce5770010000000b17217fba9c739aa5819f44f90260801c5b5f8364080000000016600f0b13156110f7577001000000058b90bfcdee5acd3c1cedc8230260801c5b5f8364040000000016600f0b131561112057700100000002c5c85fe31f35a6a30da1be500260801c5b5f8364020000000016600f0b13156111495770010000000162e42ff0999ce3541b9fffcf0260801c5b5f8364010000000016600f0b131561117257700100000000b17217f80f4ef5aadda455540260801c5b5f83638000000016600f0b131561119a5770010000000058b90bfbf8479bd5a81b51ad0260801c5b5f83634000000016600f0b13156111c2577001000000002c5c85fdf84bd62ae30a74cc0260801c5b5f83632000000016600f0b13156111ea57700100000000162e42fefb2fed257559bdaa0260801c5b5f83631000000016600f0b1315611212577001000000000b17217f7d5a7716bba4a9ae0260801c5b5f83630800000016600f0b131561123a57700100000000058b90bfbe9ddbac5e109cce0260801c5b5f83630400000016600f0b13156112625770010000000002c5c85fdf4b15de6f17eb0d0260801c5b5f83630200000016600f0b131561128a577001000000000162e42fefa494f1478fde050260801c5b5f83630100000016600f0b13156112b25770010000000000b17217f7d20cf927c8e94c0260801c5b5f836280000016600f0b13156112d9577001000000000058b90bfbe8f71cb4e4b33d0260801c5b5f836240000016600f0b131561130057700100000000002c5c85fdf477b662b269450260801c5b5f836220000016600f0b13156113275770010000000000162e42fefa3ae53369388c0260801c5b5f836210000016600f0b131561134e57700100000000000b17217f7d1d351a389d400260801c5b5f836208000016600f0b13156113755770010000000000058b90bfbe8e8b2d3d4ede0260801c5b5f836204000016600f0b131561139c577001000000000002c5c85fdf4741bea6e77e0260801c5b5f836202000016600f0b13156113c357700100000000000162e42fefa39fe95583c20260801c5b5f836201000016600f0b13156113ea577001000000000000b17217f7d1cfb72b45e10260801c5b5f8361800016600f0b131561141057700100000000000058b90bfbe8e7cc35c3f00260801c5b5f8361400016600f0b13156114365770010000000000002c5c85fdf473e242ea380260801c5b5f8361200016600f0b131561145c577001000000000000162e42fefa39f02b772c0260801c5b5f8361100016600f0b13156114825770010000000000000b17217f7d1cf7d83c1a0260801c5b5f8361080016600f0b13156114a8577001000000000000058b90bfbe8e7bdcbe2e0260801c5b5f8361040016600f0b13156114ce57700100000000000002c5c85fdf473dea871f0260801c5b5f8361020016600f0b13156114f45770010000000000000162e42fefa39ef44d910260801c5b5f8361010016600f0b131561151a57700100000000000000b17217f7d1cf79e9490260801c5b5f83608016600f0b131561153f5770010000000000000058b90bfbe8e7bce5440260801c5b5f83604016600f0b1315611564577001000000000000002c5c85fdf473de6eca0260801c5b5f83602016600f0b131561158957700100000000000000162e42fefa39ef366f0260801c5b5f83601016600f0b13156115ae577001000000000000000b17217f7d1cf79afa0260801c5b5f83600816600f0b13156115d357700100000000000000058b90bfbe8e7bcd6d0260801c5b5f83600416600f0b13156115f85770010000000000000002c5c85fdf473de6b20260801c5b5f83600216600f0b131561161d577001000000000000000162e42fefa39ef3580260801c5b5f83600116600f0b13156116425770010000000000000000b17217f7d1cf79ab0260801c5b600f83810b60401d603f03900b1c60016001607f1b038111156104af575f80fd5b5f677fffffffffffffff1982121580156116855750677fffffffffffffff8213155b61168d575f80fd5b5060401b90565b5f600f82810b9084900b0360016001607f1b03198112801590610597575060016001607f1b038113156103c9575f80fd5b5f8183116116d357816103c9565b5090919050565b6040805160028082526060820183525f928392919060208301908036833701905050905082815f8151811061171157611711612038565b63ffffffff9092166020928302919091019091015260405163883bdbfd60e01b81525f906001600160a01b0386169063883bdbfd9061175490859060040161204c565b5f60405180830381865afa15801561176e573d5f803e3d5ffd5b505050506040513d5f823e601f3d908101601f191682016040526117959190810190612089565b90508363ffffffff16815f815181106117b0576117b0612038565b6020026020010151826001815181106117cb576117cb612038565b60200260200101516117dd919061213d565b6117e7919061215c565b6001600160d81b031695945050505050565b5f8061180a6201518061016d611d3b565b6118148486611d3b565b61181e9190611d28565b905061183161182c82611878565b61188c565b949350505050565b5f80821215611846575f80fd5b5090565b5f8061185e670de0b6b3a764000085611d3b565b905082818161186f5761186f611d14565b04949350505050565b5f6001600160ff1b03821115611846575f80fd5b5f680238fd42c5cf03ffff1982121580156118b0575068070c1cc73b00c800008213155b6118f35760405162461bcd60e51b815260206004820152601060248201526f125b9d985b1a5908195e1c1bdb995b9d60821b604482015260640160405180910390fd5b5f82121561192a57611906825f0361188c565b6ec097ce7bc90715b34b9f10000000008161192357611923611d14565b0592915050565b5f6806f05b59d3b2000000831261196957506806f05b59d3b1ffffff1990910190770195e54c5dd42177f53a27172fa9ec63026282700000000061199f565b6803782dace9d9000000831261199b57506803782dace9d8ffffff19909101906b1425982cf597cd205cef738061199f565b5060015b6064929092029168056bc75e2d6310000068ad78ebc5ac6200000084126119ef5768ad78ebc5ac61ffffff199093019268056bc75e2d631000006e01855144814a7ff805980ff008400082020590505b6856bc75e2d6310000008412611a2b576856bc75e2d630ffffff199093019268056bc75e2d631000006b02df0ab5a80a22c61ab5a70082020590505b682b5e3af16b188000008412611a6557682b5e3af16b187fffff199093019268056bc75e2d63100000693f1fce3da636ea5cf85082020590505b6815af1d78b58c4000008412611a9f576815af1d78b58c3fffff199093019268056bc75e2d63100000690127fa27722cc06cc5e282020590505b680ad78ebc5ac62000008412611ad857680ad78ebc5ac61fffff199093019268056bc75e2d6310000068280e60114edb805d0382020590505b68056bc75e2d631000008412611b115768056bc75e2d630fffff199093019268056bc75e2d63100000680ebc5fb4174612111082020590505b6802b5e3af16b18800008412611b4a576802b5e3af16b187ffff199093019268056bc75e2d631000006808f00f760a4b2db55d82020590505b68015af1d78b58c400008412611b835768015af1d78b58c3ffff199093019268056bc75e2d631000006806f5f177578893793782020590505b68056bc75e2d631000008481019085906002908280020505918201919050600368056bc75e2d631000008783020505918201919050600468056bc75e2d631000008783020505918201919050600568056bc75e2d631000008783020505918201919050600668056bc75e2d631000008783020505918201919050600768056bc75e2d631000008783020505918201919050600868056bc75e2d631000008783020505918201919050600968056bc75e2d631000008783020505918201919050600a68056bc75e2d631000008783020505918201919050600b68056bc75e2d631000008783020505918201919050600c68056bc75e2d631000008783020505918201919050606468056bc75e2d63100000848402058502059695505050505050565b6001600160a01b0381168114611cb8575f80fd5b50565b5f60208284031215611ccb575f80fd5b81356103c981611ca4565b5f60208284031215611ce6575f80fd5b5051919050565b634e487b7160e01b5f52601160045260245ffd5b818103818111156104af576104af611ced565b634e487b7160e01b5f52601260045260245ffd5b5f82611d3657611d36611d14565b500490565b80820281158282048414176104af576104af611ced565b808201808211156104af576104af611ced565b634e487b7160e01b5f52604160045260245ffd5b6040516101e0810167ffffffffffffffff81118282101715611d9d57611d9d611d65565b60405290565b604051601f8201601f1916810167ffffffffffffffff81118282101715611dcc57611dcc611d65565b604052919050565b5f60208284031215611de4575f80fd5b6040516020810167ffffffffffffffff81118282101715611e0757611e07611d65565b6040529151825250919050565b80516001600160801b0381168114611e2a575f80fd5b919050565b805164ffffffffff81168114611e2a575f80fd5b805161ffff81168114611e2a575f80fd5b8051611e2a81611ca4565b5f6101e0828403128015611e71575f80fd5b50611e7a611d79565b611e848484611dd4565b8152611e9260208401611e14565b6020820152611ea360408401611e14565b6040820152611eb460608401611e14565b6060820152611ec560808401611e14565b6080820152611ed660a08401611e14565b60a0820152611ee760c08401611e2f565b60c0820152611ef860e08401611e43565b60e0820152611f0a6101008401611e54565b610100820152611f1d6101208401611e54565b610120820152611f306101408401611e54565b610140820152611f436101608401611e54565b610160820152611f566101808401611e14565b610180820152611f696101a08401611e14565b6101a0820152611f7c6101c08401611e14565b6101c08201529392505050565b5f6001600160801b03831680611fa157611fa1611d14565b806001600160801b0384160491505092915050565b5f805f60608486031215611fc8575f80fd5b8351611fd381611ca4565b6020850151909350611fe481611ca4565b6040850151909250611ff581611ca4565b809150509250925092565b5f60208284031215612010575f80fd5b815180151581146103c9575f80fd5b5f6020828403121561202f575f80fd5b6103c982611e14565b634e487b7160e01b5f52603260045260245ffd5b602080825282518282018190525f918401906040840190835b81811015610be757835163ffffffff16835260209384019390920191600101612065565b5f60208284031215612099575f80fd5b815167ffffffffffffffff8111156120af575f80fd5b8201601f810184136120bf575f80fd5b805167ffffffffffffffff8111156120d9576120d9611d65565b8060051b6120e960208201611da3565b91825260208184018101929081019087841115612104575f80fd5b6020850194505b838510156106a457845192506001600160d81b038316831461212b575f80fd5b8282526020948501949091019061210b565b6001600160d81b0382811682821603908111156104af576104af611ced565b5f6001600160d81b0383168061217457612174611d14565b6001600160d81b0392909216919091049291505056fea2646970667358221220f0b3d69429fe86d33e84c10df5811ac1d6460f27ee257cdada539398abfc293b64736f6c634300081a0033","linkReferences":{}},"methodIdentifiers":{"getBorrowingRates(address)":"a8672515","getSupplyRates(address)":"ac5c510b","getVariableBorrowAPY()":"57d3272f","getVariableSupplyAPY()":"cdf19e54","quotePT()":"01efa05d"},"id":12}