{"abi":[{"type":"function","name":"getVariableBorrowAPY","inputs":[],"outputs":[{"name":"","type":"uint256","internalType":"uint256"}],"stateMutability":"view"},{"type":"function","name":"getVariableSupplyAPY","inputs":[],"outputs":[{"name":"","type":"uint256","internalType":"uint256"}],"stateMutability":"view"},{"type":"function","name":"quotePT","inputs":[],"outputs":[{"name":"quoteInStable","type":"uint256","internalType":"uint256"}],"stateMutability":"view"}],"bytecode":{"object":"0x6080604052348015600e575f80fd5b5061116c8061001c5f395ff3fe608060405234801561000f575f80fd5b506004361061003f575f3560e01c806301efa05d1461004357806357d3272f1461005d578063cdf19e5414610065575b5f80fd5b61004b61006b565b60405190815260200160405180910390f35b61004b610143565b5f61004b565b601a546040516370a0823160e01b81523060048201525f9182916001600160a01b03909116906370a0823190602401602060405180830381865afa1580156100b5573d5f803e3d5ffd5b505050506040513d601f19601f820116820180604052508101906100d99190610d21565b6013546005549192505f91610103916001600160a01b039091169063ffffffff9081169061032e16565b90505f6101198383670de0b6b3a764000061037e565b6014549091505f9061012e908361271061037e565b905061013a8183610d4c565b94505050505090565b6013546005545f91829161016c916001600160a01b039091169063ffffffff9081169061032e16565b6013546005549192505f91610196916001600160a01b039091169063ffffffff9081169061039916565b90505f62015180425f6005015f9054906101000a90046001600160a01b03166001600160a01b031663e184c9be6040518163ffffffff1660e01b8152600401602060405180830381865afa1580156101f0573d5f803e3d5ffd5b505050506040513d601f19601f820116820180604052508101906102149190610d21565b61021e9190610d4c565b6102289190610d73565b90505f60016102398361016d610d73565b6102438686610d73565b61024e906001610d86565b6102589190610e7c565b6102629190610d4c565b905061028f604051806040016040528060098152602001680383a283934b1b29d160bd1b815250856103c6565b6102ba6040518060400160405280600981526020016803cba283934b1b29d160bd1b815250846103c6565b6102e76040518060400160405280600b81526020016a03230bcb9aa37a2bc381d160ad1b815250836103c6565b6103266040518060400160405280601d81526020017f61707920696e206765745661726961626c65426f72726f774150593a20000000815250826103c6565b949350505050565b5f805f61033a8561040f565b915091508082106103585761034f8585610632565b92505050610378565b80826103648787610632565b61036e9190610e87565b61034f9190610d73565b92915050565b5f825f190484118302158202610392575f80fd5b5091020490565b5f805f6103a58561040f565b915091508082106103ba5761034f85856106fa565b808261036487876106fa565b61040b82826040516024016103dc929190610e9e565b60408051601f198184030181529190526020810180516001600160e01b03166309710a9d60e41b17905261071e565b5050565b5f805f80846001600160a01b0316632c8ce6bc6040518163ffffffff1660e01b8152600401606060405180830381865afa15801561044f573d5f803e3d5ffd5b505050506040513d601f19601f820116820180604052508101906104739190610f04565b9250509150816001600160a01b0316633ba0b9a96040518163ffffffff1660e01b8152600401602060405180830381865afa1580156104b4573d5f803e3d5ffd5b505050506040513d601f19601f820116820180604052508101906104d89190610d21565b93505f816001600160a01b031663d2a3584e6040518163ffffffff1660e01b8152600401602060405180830381865afa158015610517573d5f803e3d5ffd5b505050506040513d601f19601f8201168201806040525081019061053b9190610d21565b9050816001600160a01b031663516399df6040518163ffffffff1660e01b8152600401602060405180830381865afa158015610579573d5f803e3d5ffd5b505050506040513d601f19601f8201168201806040525081019061059d9190610f4e565b8015610610575043826001600160a01b03166360e0a9e16040518163ffffffff1660e01b8152600401602060405180830381865afa1580156105e1573d5f803e3d5ffd5b505050506040513d601f19601f820116820180604052508101906106059190610f6d565b6001600160801b0316145b1561061d5780935061062a565b610627858261072a565b93505b505050915091565b5f80836001600160a01b031663e184c9be6040518163ffffffff1660e01b8152600401602060405180830381865afa158015610670573d5f803e3d5ffd5b505050506040513d601f19601f820116820180604052508101906106949190610d21565b90504281116106ae57670de0b6b3a7640000915050610378565b5f6106b9858561073f565b90505f6106c64284610d4c565b90505f6106db6106d6848461085e565b610896565b90506106ef670de0b6b3a7640000826108a7565b945050505050610378565b5f6107058383610632565b61071790670de0b6b3a7640000610d4c565b9392505050565b610727816108d5565b50565b5f8183116107385781610717565b5090919050565b6040805160028082526060820183525f928392919060208301908036833701905050905082815f8151811061077657610776610fa7565b63ffffffff9092166020928302919091019091015260405163883bdbfd60e01b81525f906001600160a01b0386169063883bdbfd906107b9908590600401610fbb565b5f60405180830381865afa1580156107d3573d5f803e3d5ffd5b505050506040513d5f823e601f3d908101601f191682016040526107fa919081019061101e565b90508363ffffffff16815f8151811061081557610815610fa7565b60200260200101518260018151811061083057610830610fa7565b602002602001015161084291906110e9565b61084c9190611108565b6001600160d81b031695945050505050565b5f8061086f6201518061016d610e87565b6108798486610e87565b6108839190610d73565b9050610326610891826108f5565b610909565b5f808212156108a3575f80fd5b5090565b5f806108bb670de0b6b3a764000085610e87565b90508281816108cc576108cc610d5f565b04949350505050565b80516a636f6e736f6c652e6c6f67602083015f808483855afa5050505050565b5f6001600160ff1b038211156108a3575f80fd5b5f680238fd42c5cf03ffff19821215801561092d575068070c1cc73b00c800008213155b6109705760405162461bcd60e51b815260206004820152601060248201526f125b9d985b1a5908195e1c1bdb995b9d60821b604482015260640160405180910390fd5b5f8212156109a757610983825f03610909565b6ec097ce7bc90715b34b9f1000000000816109a0576109a0610d5f565b0592915050565b5f6806f05b59d3b200000083126109e657506806f05b59d3b1ffffff1990910190770195e54c5dd42177f53a27172fa9ec630262827000000000610a1c565b6803782dace9d90000008312610a1857506803782dace9d8ffffff19909101906b1425982cf597cd205cef7380610a1c565b5060015b6064929092029168056bc75e2d6310000068ad78ebc5ac620000008412610a6c5768ad78ebc5ac61ffffff199093019268056bc75e2d631000006e01855144814a7ff805980ff008400082020590505b6856bc75e2d6310000008412610aa8576856bc75e2d630ffffff199093019268056bc75e2d631000006b02df0ab5a80a22c61ab5a70082020590505b682b5e3af16b188000008412610ae257682b5e3af16b187fffff199093019268056bc75e2d63100000693f1fce3da636ea5cf85082020590505b6815af1d78b58c4000008412610b1c576815af1d78b58c3fffff199093019268056bc75e2d63100000690127fa27722cc06cc5e282020590505b680ad78ebc5ac62000008412610b5557680ad78ebc5ac61fffff199093019268056bc75e2d6310000068280e60114edb805d0382020590505b68056bc75e2d631000008412610b8e5768056bc75e2d630fffff199093019268056bc75e2d63100000680ebc5fb4174612111082020590505b6802b5e3af16b18800008412610bc7576802b5e3af16b187ffff199093019268056bc75e2d631000006808f00f760a4b2db55d82020590505b68015af1d78b58c400008412610c005768015af1d78b58c3ffff199093019268056bc75e2d631000006806f5f177578893793782020590505b68056bc75e2d631000008481019085906002908280020505918201919050600368056bc75e2d631000008783020505918201919050600468056bc75e2d631000008783020505918201919050600568056bc75e2d631000008783020505918201919050600668056bc75e2d631000008783020505918201919050600768056bc75e2d631000008783020505918201919050600868056bc75e2d631000008783020505918201919050600968056bc75e2d631000008783020505918201919050600a68056bc75e2d631000008783020505918201919050600b68056bc75e2d631000008783020505918201919050600c68056bc75e2d631000008783020505918201919050606468056bc75e2d63100000848402058502059695505050505050565b5f60208284031215610d31575f80fd5b5051919050565b634e487b7160e01b5f52601160045260245ffd5b8181038181111561037857610378610d38565b634e487b7160e01b5f52601260045260245ffd5b5f82610d8157610d81610d5f565b500490565b8082018082111561037857610378610d38565b6001815b6001841115610dd457808504811115610db857610db8610d38565b6001841615610dc657908102905b60019390931c928002610d9d565b935093915050565b5f82610dea57506001610378565b81610df657505f610378565b8160018114610e0c5760028114610e1657610e32565b6001915050610378565b60ff841115610e2757610e27610d38565b50506001821b610378565b5060208310610133831016604e8410600b8410161715610e55575081810a610378565b610e615f198484610d99565b805f1904821115610e7457610e74610d38565b029392505050565b5f6107178383610ddc565b808202811582820484141761037857610378610d38565b604081525f83518060408401525f5b81811015610eca5760208187018101516060868401015201610ead565b505f606082850101526060601f19601f8301168401019150508260208301529392505050565b6001600160a01b0381168114610727575f80fd5b5f805f60608486031215610f16575f80fd5b8351610f2181610ef0565b6020850151909350610f3281610ef0565b6040850151909250610f4381610ef0565b809150509250925092565b5f60208284031215610f5e575f80fd5b81518015158114610717575f80fd5b5f60208284031215610f7d575f80fd5b81516001600160801b0381168114610717575f80fd5b634e487b7160e01b5f52604160045260245ffd5b634e487b7160e01b5f52603260045260245ffd5b602080825282518282018190525f918401906040840190835b81811015610ff857835163ffffffff16835260209384019390920191600101610fd4565b509095945050505050565b80516001600160d81b0381168114611019575f80fd5b919050565b5f6020828403121561102e575f80fd5b815167ffffffffffffffff811115611044575f80fd5b8201601f81018413611054575f80fd5b805167ffffffffffffffff81111561106e5761106e610f93565b8060051b604051601f19603f830116810181811067ffffffffffffffff8211171561109b5761109b610f93565b6040529182526020818401810192908101878411156110b8575f80fd5b6020850194505b838510156110de576110d085611003565b8152602094850194016110bf565b509695505050505050565b6001600160d81b03828116828216039081111561037857610378610d38565b5f6001600160d81b0383168061112057611120610d5f565b6001600160d81b0392909216919091049291505056fea264697066735822122047db1fe98caea6a6d3e3c5ed536cc1f91441b0261caad4ddd8770b341d65857764736f6c634300081a0033","linkReferences":{}},"methodIdentifiers":{"getVariableBorrowAPY()":"57d3272f","getVariableSupplyAPY()":"cdf19e54","quotePT()":"01efa05d"},"id":10}