{"abi":[{"type":"function","name":"getBorrowingRates","inputs":[{"name":"token_","type":"address","internalType":"address"}],"outputs":[{"name":"","type":"uint256","internalType":"uint256"}],"stateMutability":"view"},{"type":"function","name":"getNetAPY","inputs":[{"name":"token_","type":"address","internalType":"address"}],"outputs":[{"name":"","type":"uint256","internalType":"uint256"}],"stateMutability":"view"},{"type":"function","name":"getSupplyRates","inputs":[{"name":"token_","type":"address","internalType":"address"}],"outputs":[{"name":"","type":"uint256","internalType":"uint256"},{"name":"","type":"uint256","internalType":"uint256"}],"stateMutability":"view"},{"type":"function","name":"getVariableBorrowAPY","inputs":[],"outputs":[{"name":"apy","type":"uint256","internalType":"uint256"}],"stateMutability":"view"},{"type":"function","name":"quotePT","inputs":[],"outputs":[{"name":"quoteInStable","type":"uint256","internalType":"uint256"}],"stateMutability":"view"}],"bytecode":{"object":"0x6080604052348015600e575f80fd5b5061224c8061001c5f395ff3fe608060405234801561000f575f80fd5b5060043610610055575f3560e01c806301efa05d1461005957806302a15f1d1461007457806357d3272f14610087578063a86725151461008d578063ac5c510b146100a0575b5f80fd5b6100616100c8565b6040519081526020015b60405180910390f35b610061610082366004611d47565b6101a1565b5f610061565b61006161009b366004611d47565b6101de565b6100b36100ae366004611d47565b61027a565b6040805192835260208301919091520161006b565b61011b546040516370a0823160e01b81523060048201525f9182916001600160a01b03909116906370a0823190602401602060405180830381865afa158015610113573d5f803e3d5ffd5b505050506040513d601f19601f820116820180604052508101906101379190611d62565b6014546006549192505f91610161916001600160a01b039091169063ffffffff9081169061029d16565b90505f6101778383670de0b6b3a76400006102ed565b6015549091505f9061018c90836127106102ed565b90506101988183611d8d565b94505050505090565b5f806101ac836101de565b90505f806101b98561027a565b90925090505f836101ca8484611da0565b6101d49190611d8d565b9695505050505050565b6002546040516335ea6a7560e01b81526001600160a01b0383811660048301525f9283929116906335ea6a75906024016101e060405180830381865afa15801561022a573d5f803e3d5ffd5b505050506040513d601f19601f8201168201806040525081019061024e9190611ead565b608001519050610273610265633b9aca0083611feb565b6001600160801b0316610308565b9392505050565b5f805f6102868461036d565b90505f610291610402565b91959194509092505050565b5f805f6102a9856105b6565b915091508082106102c7576102be85856107d9565b925050506102e7565b80826102d387876107d9565b6102dd9190612018565b6102be919061202f565b92915050565b5f825f190484118302158202610301575f80fd5b5091020490565b5f8061031c83670de0b6b3a76400006108a1565b90505f61032b82600f0b6108d6565b90505f6103386001610928565b90505f610349600f84900b83610959565b90505f610362600f83900b670de0b6b3a764000061098b565b979650505050505050565b6002546040516335ea6a7560e01b81526001600160a01b0383811660048301525f926102e792633b9aca0092909116906335ea6a75906024016101e060405180830381865afa1580156103c2573d5f803e3d5ffd5b505050506040513d601f19601f820116820180604052508101906103e69190611ead565b604001516001600160801b03166103fd919061202f565b610308565b6014546006545f91829161042b916001600160a01b039091169063ffffffff9081169061029d16565b6014546006549192505f91610455916001600160a01b039091169063ffffffff908116906109ef16565b90505f62015180425f6006015f9054906101000a90046001600160a01b03166001600160a01b031663e184c9be6040518163ffffffff1660e01b8152600401602060405180830381865afa1580156104af573d5f803e3d5ffd5b505050506040513d601f19601f820116820180604052508101906104d39190611d62565b6104dd9190611d8d565b6104e7919061202f565b61012a549091505f906104fa9084612018565b90505f610507858361202f565b90505f815f61012a015461051b9190611da0565b90505f845f61012a015461016d6105329190612018565b61053c919061202f565b61012a549091505f906105509084906108a1565b61012a549091505f906105649084906108a1565b61012a5490915061059e8161059561058d610582600f88900b610a1c565b600f87900b90610a54565b600f0b6108d6565b600f0b9061098b565b6105a89190611d8d565b995050505050505050505090565b5f805f80846001600160a01b0316632c8ce6bc6040518163ffffffff1660e01b8152600401606060405180830381865afa1580156105f6573d5f803e3d5ffd5b505050506040513d601f19601f8201168201806040525081019061061a9190612042565b9250509150816001600160a01b0316633ba0b9a96040518163ffffffff1660e01b8152600401602060405180830381865afa15801561065b573d5f803e3d5ffd5b505050506040513d601f19601f8201168201806040525081019061067f9190611d62565b93505f816001600160a01b031663d2a3584e6040518163ffffffff1660e01b8152600401602060405180830381865afa1580156106be573d5f803e3d5ffd5b505050506040513d601f19601f820116820180604052508101906106e29190611d62565b9050816001600160a01b031663516399df6040518163ffffffff1660e01b8152600401602060405180830381865afa158015610720573d5f803e3d5ffd5b505050506040513d601f19601f82011682018060405250810190610744919061208c565b80156107b7575043826001600160a01b03166360e0a9e16040518163ffffffff1660e01b8152600401602060405180830381865afa158015610788573d5f803e3d5ffd5b505050506040513d601f19601f820116820180604052508101906107ac91906120ab565b6001600160801b0316145b156107c4578093506107d1565b6107ce8582610a88565b93505b505050915091565b5f80836001600160a01b031663e184c9be6040518163ffffffff1660e01b8152600401602060405180830381865afa158015610817573d5f803e3d5ffd5b505050506040513d601f19601f8201168201806040525081019061083b9190611d62565b905042811161085557670de0b6b3a76400009150506102e7565b5f6108608585610a9d565b90505f61086d4284611d8d565b90505f61088261087d8484610bbc565b610bfc565b9050610896670de0b6b3a764000082610c0d565b9450505050506102e7565b5f815f036108ad575f80fd5b5f6108b88484610c3b565b905060016001607f1b036001600160801b0382161115610273575f80fd5b5f600160461b82600f0b126108e9575f80fd5b683fffffffffffffffff1982600f0b121561090557505f919050565b6102e7608083600f0b700171547652b82fe1777d0ffda0d23a7d1202901d610d9a565b5f677fffffffffffffff19821215801561094a5750677fffffffffffffff8213155b610952575f80fd5b5060401b90565b5f600f82810b9084900b0360016001607f1b03198112801590610983575060016001607f1b038113155b610273575f80fd5b5f815f0361099a57505f6102e7565b5f83600f0b12156109a9575f80fd5b600f83900b6001600160801b038316810260401c90608084901c026001600160c01b038111156109d7575f80fd5b60401b81198111156109e7575f80fd5b019392505050565b5f805f6109fb856105b6565b91509150808210610a10576102be858561180b565b80826102d3878761180b565b5f8082600f0b13610a2b575f80fd5b6080610a3683611828565b600f0b6fb17217f7d1cf79abc9e3b39803f2f6af02901c9050919050565b5f600f83810b9083900b0260401d60016001607f1b03198112801590610983575060016001607f1b03811315610273575f80fd5b5f818311610a965781610273565b5090919050565b6040805160028082526060820183525f928392919060208301908036833701905050905082815f81518110610ad457610ad46120c4565b63ffffffff9092166020928302919091019091015260405163883bdbfd60e01b81525f906001600160a01b0386169063883bdbfd90610b179085906004016120d8565b5f60405180830381865afa158015610b31573d5f803e3d5ffd5b505050506040513d5f823e601f3d908101601f19168201604052610b589190810190612115565b90508363ffffffff16815f81518110610b7357610b736120c4565b602002602001015182600181518110610b8e57610b8e6120c4565b6020026020010151610ba091906121c9565b610baa91906121e8565b6001600160d81b031695945050505050565b5f80610bcd6201518061016d612018565b610bd78486612018565b610be1919061202f565b9050610bf4610bef82611904565b611918565b949350505050565b5f80821215610c09575f80fd5b5090565b5f80610c21670de0b6b3a764000085612018565b9050828181610c3257610c32611fd7565b04949350505050565b5f815f03610c47575f80fd5b5f6001600160c01b038411610c715782604085901b81610c6957610c69611fd7565b049050610d87565b60c084811c6401000000008110610c8a576020918201911c5b620100008110610c9c576010918201911c5b6101008110610cad576008918201911c5b60108110610cbd576004918201911c5b60048110610ccd576002918201911c5b60028110610cdc576001820191505b60bf820360018603901c6001018260ff0387901b81610cfd57610cfd611fd7565b0492506001600160801b03831115610d13575f80fd5b608085901c83026001600160801b038616840260c088901c604089901b82811015610d3f576001820391505b608084901b92900382811015610d56576001820391505b829003608084901c8214610d6b576001610d7c565b888181610d7a57610d7a611fd7565b045b870196505050505050505b6001600160801b03811115610273575f80fd5b5f600160461b82600f0b12610dad575f80fd5b683fffffffffffffffff1982600f0b1215610dc957505f919050565b6001607f1b5f6001603f1b8416600f0b1315610df65770016a09e667f3bcc908b2fb1366ea957d3e0260801c5b5f8367400000000000000016600f0b1315610e22577001306fe0a31b7152de8d5a46305c85edec0260801c5b5f8367200000000000000016600f0b1315610e4e577001172b83c7d517adcdf7c8c50eb14a791f0260801c5b5f8367100000000000000016600f0b1315610e7a5770010b5586cf9890f6298b92b71842a983630260801c5b5f8367080000000000000016600f0b1315610ea6577001059b0d31585743ae7c548eb68ca417fd0260801c5b5f8367040000000000000016600f0b1315610ed257700102c9a3e778060ee6f7caca4f7a29bde80260801c5b5f8367020000000000000016600f0b1315610efe5770010163da9fb33356d84a66ae336dcdfa3f0260801c5b5f8367010000000000000016600f0b1315610f2a57700100b1afa5abcbed6129ab13ec11dc95430260801c5b5f83668000000000000016600f0b1315610f555770010058c86da1c09ea1ff19d294cf2f679b0260801c5b5f83664000000000000016600f0b1315610f80577001002c605e2e8cec506d21bfc89a23a00f0260801c5b5f83662000000000000016600f0b1315610fab57700100162f3904051fa128bca9c55c31e5df0260801c5b5f83661000000000000016600f0b1315610fd6577001000b175effdc76ba38e31671ca9397250260801c5b5f83660800000000000016600f0b131561100157700100058ba01fb9f96d6cacd4b180917c3d0260801c5b5f83660400000000000016600f0b131561102c5770010002c5cc37da9491d0985c348c68e7b30260801c5b5f83660200000000000016600f0b1315611057577001000162e525ee054754457d59952920260260801c5b5f83660100000000000016600f0b13156110825770010000b17255775c040618bf4a4ade83fc0260801c5b5f836580000000000016600f0b13156110ac577001000058b91b5bc9ae2eed81e9b7d4cfab0260801c5b5f836540000000000016600f0b13156110d657700100002c5c89d5ec6ca4d7c8acc017b7c90260801c5b5f836520000000000016600f0b13156111005770010000162e43f4f831060e02d839a9d16d0260801c5b5f836510000000000016600f0b131561112a57700100000b1721bcfc99d9f890ea069117630260801c5b5f836508000000000016600f0b13156111545770010000058b90cf1e6d97f9ca14dbcc16280260801c5b5f836504000000000016600f0b131561117e577001000002c5c863b73f016468f6bac5ca2b0260801c5b5f836502000000000016600f0b13156111a857700100000162e430e5a18f6119e3c02282a50260801c5b5f836501000000000016600f0b13156111d2577001000000b1721835514b86e6d96efd1bfe0260801c5b5f8364800000000016600f0b13156111fb57700100000058b90c0b48c6be5df846c5b2ef0260801c5b5f8364400000000016600f0b13156112245770010000002c5c8601cc6b9e94213c72737a0260801c5b5f8364200000000016600f0b131561124d577001000000162e42fff037df38aa2b219f060260801c5b5f8364100000000016600f0b13156112765770010000000b17217fba9c739aa5819f44f90260801c5b5f8364080000000016600f0b131561129f577001000000058b90bfcdee5acd3c1cedc8230260801c5b5f8364040000000016600f0b13156112c857700100000002c5c85fe31f35a6a30da1be500260801c5b5f8364020000000016600f0b13156112f15770010000000162e42ff0999ce3541b9fffcf0260801c5b5f8364010000000016600f0b131561131a57700100000000b17217f80f4ef5aadda455540260801c5b5f83638000000016600f0b13156113425770010000000058b90bfbf8479bd5a81b51ad0260801c5b5f83634000000016600f0b131561136a577001000000002c5c85fdf84bd62ae30a74cc0260801c5b5f83632000000016600f0b131561139257700100000000162e42fefb2fed257559bdaa0260801c5b5f83631000000016600f0b13156113ba577001000000000b17217f7d5a7716bba4a9ae0260801c5b5f83630800000016600f0b13156113e257700100000000058b90bfbe9ddbac5e109cce0260801c5b5f83630400000016600f0b131561140a5770010000000002c5c85fdf4b15de6f17eb0d0260801c5b5f83630200000016600f0b1315611432577001000000000162e42fefa494f1478fde050260801c5b5f83630100000016600f0b131561145a5770010000000000b17217f7d20cf927c8e94c0260801c5b5f836280000016600f0b1315611481577001000000000058b90bfbe8f71cb4e4b33d0260801c5b5f836240000016600f0b13156114a857700100000000002c5c85fdf477b662b269450260801c5b5f836220000016600f0b13156114cf5770010000000000162e42fefa3ae53369388c0260801c5b5f836210000016600f0b13156114f657700100000000000b17217f7d1d351a389d400260801c5b5f836208000016600f0b131561151d5770010000000000058b90bfbe8e8b2d3d4ede0260801c5b5f836204000016600f0b1315611544577001000000000002c5c85fdf4741bea6e77e0260801c5b5f836202000016600f0b131561156b57700100000000000162e42fefa39fe95583c20260801c5b5f836201000016600f0b1315611592577001000000000000b17217f7d1cfb72b45e10260801c5b5f8361800016600f0b13156115b857700100000000000058b90bfbe8e7cc35c3f00260801c5b5f8361400016600f0b13156115de5770010000000000002c5c85fdf473e242ea380260801c5b5f8361200016600f0b1315611604577001000000000000162e42fefa39f02b772c0260801c5b5f8361100016600f0b131561162a5770010000000000000b17217f7d1cf7d83c1a0260801c5b5f8361080016600f0b1315611650577001000000000000058b90bfbe8e7bdcbe2e0260801c5b5f8361040016600f0b131561167657700100000000000002c5c85fdf473dea871f0260801c5b5f8361020016600f0b131561169c5770010000000000000162e42fefa39ef44d910260801c5b5f8361010016600f0b13156116c257700100000000000000b17217f7d1cf79e9490260801c5b5f83608016600f0b13156116e75770010000000000000058b90bfbe8e7bce5440260801c5b5f83604016600f0b131561170c577001000000000000002c5c85fdf473de6eca0260801c5b5f83602016600f0b131561173157700100000000000000162e42fefa39ef366f0260801c5b5f83601016600f0b1315611756577001000000000000000b17217f7d1cf79afa0260801c5b5f83600816600f0b131561177b57700100000000000000058b90bfbe8e7bcd6d0260801c5b5f83600416600f0b13156117a05770010000000000000002c5c85fdf473de6b20260801c5b5f83600216600f0b13156117c5577001000000000000000162e42fefa39ef3580260801c5b5f83600116600f0b13156117ea5770010000000000000000b17217f7d1cf79ab0260801c5b600f83810b60401d603f03900b1c60016001607f1b038111156102e7575f80fd5b5f61181683836107d9565b61027390670de0b6b3a7640000611d8d565b5f8082600f0b13611837575f80fd5b5f600f83900b680100000000000000008112611855576040918201911d5b6401000000008112611869576020918201911d5b62010000811261187b576010918201911d5b610100811261188c576008918201911d5b6010811261189c576004918201911d5b600481126118ac576002918201911d5b600281126118bb576001820191505b603f19820160401b600f85900b607f8490031b6001603f1b5b5f8113156118f95790800260ff81901c8281029390930192607f011c9060011d6118d4565b509095945050505050565b5f6001600160ff1b03821115610c09575f80fd5b5f680238fd42c5cf03ffff19821215801561193c575068070c1cc73b00c800008213155b61197f5760405162461bcd60e51b815260206004820152601060248201526f125b9d985b1a5908195e1c1bdb995b9d60821b604482015260640160405180910390fd5b5f8212156119b657611992825f03611918565b6ec097ce7bc90715b34b9f1000000000816119af576119af611fd7565b0592915050565b5f6806f05b59d3b200000083126119f557506806f05b59d3b1ffffff1990910190770195e54c5dd42177f53a27172fa9ec630262827000000000611a2b565b6803782dace9d90000008312611a2757506803782dace9d8ffffff19909101906b1425982cf597cd205cef7380611a2b565b5060015b6064929092029168056bc75e2d6310000068ad78ebc5ac620000008412611a7b5768ad78ebc5ac61ffffff199093019268056bc75e2d631000006e01855144814a7ff805980ff008400082020590505b6856bc75e2d6310000008412611ab7576856bc75e2d630ffffff199093019268056bc75e2d631000006b02df0ab5a80a22c61ab5a70082020590505b682b5e3af16b188000008412611af157682b5e3af16b187fffff199093019268056bc75e2d63100000693f1fce3da636ea5cf85082020590505b6815af1d78b58c4000008412611b2b576815af1d78b58c3fffff199093019268056bc75e2d63100000690127fa27722cc06cc5e282020590505b680ad78ebc5ac62000008412611b6457680ad78ebc5ac61fffff199093019268056bc75e2d6310000068280e60114edb805d0382020590505b68056bc75e2d631000008412611b9d5768056bc75e2d630fffff199093019268056bc75e2d63100000680ebc5fb4174612111082020590505b6802b5e3af16b18800008412611bd6576802b5e3af16b187ffff199093019268056bc75e2d631000006808f00f760a4b2db55d82020590505b68015af1d78b58c400008412611c0f5768015af1d78b58c3ffff199093019268056bc75e2d631000006806f5f177578893793782020590505b68056bc75e2d631000008481019085906002908280020505918201919050600368056bc75e2d631000008783020505918201919050600468056bc75e2d631000008783020505918201919050600568056bc75e2d631000008783020505918201919050600668056bc75e2d631000008783020505918201919050600768056bc75e2d631000008783020505918201919050600868056bc75e2d631000008783020505918201919050600968056bc75e2d631000008783020505918201919050600a68056bc75e2d631000008783020505918201919050600b68056bc75e2d631000008783020505918201919050600c68056bc75e2d631000008783020505918201919050606468056bc75e2d63100000848402058502059695505050505050565b6001600160a01b0381168114611d44575f80fd5b50565b5f60208284031215611d57575f80fd5b813561027381611d30565b5f60208284031215611d72575f80fd5b5051919050565b634e487b7160e01b5f52601160045260245ffd5b818103818111156102e7576102e7611d79565b808201808211156102e7576102e7611d79565b634e487b7160e01b5f52604160045260245ffd5b6040516101e0810167ffffffffffffffff81118282101715611deb57611deb611db3565b60405290565b604051601f8201601f1916810167ffffffffffffffff81118282101715611e1a57611e1a611db3565b604052919050565b5f60208284031215611e32575f80fd5b6040516020810167ffffffffffffffff81118282101715611e5557611e55611db3565b6040529151825250919050565b80516001600160801b0381168114611e78575f80fd5b919050565b805164ffffffffff81168114611e78575f80fd5b805161ffff81168114611e78575f80fd5b8051611e7881611d30565b5f6101e0828403128015611ebf575f80fd5b50611ec8611dc7565b611ed28484611e22565b8152611ee060208401611e62565b6020820152611ef160408401611e62565b6040820152611f0260608401611e62565b6060820152611f1360808401611e62565b6080820152611f2460a08401611e62565b60a0820152611f3560c08401611e7d565b60c0820152611f4660e08401611e91565b60e0820152611f586101008401611ea2565b610100820152611f6b6101208401611ea2565b610120820152611f7e6101408401611ea2565b610140820152611f916101608401611ea2565b610160820152611fa46101808401611e62565b610180820152611fb76101a08401611e62565b6101a0820152611fca6101c08401611e62565b6101c08201529392505050565b634e487b7160e01b5f52601260045260245ffd5b5f6001600160801b0383168061200357612003611fd7565b806001600160801b0384160491505092915050565b80820281158282048414176102e7576102e7611d79565b5f8261203d5761203d611fd7565b500490565b5f805f60608486031215612054575f80fd5b835161205f81611d30565b602085015190935061207081611d30565b604085015190925061208181611d30565b809150509250925092565b5f6020828403121561209c575f80fd5b81518015158114610273575f80fd5b5f602082840312156120bb575f80fd5b61027382611e62565b634e487b7160e01b5f52603260045260245ffd5b602080825282518282018190525f918401906040840190835b818110156118f957835163ffffffff168352602093840193909201916001016120f1565b5f60208284031215612125575f80fd5b815167ffffffffffffffff81111561213b575f80fd5b8201601f8101841361214b575f80fd5b805167ffffffffffffffff81111561216557612165611db3565b8060051b61217560208201611df1565b91825260208184018101929081019087841115612190575f80fd5b6020850194505b8385101561036257845192506001600160d81b03831683146121b7575f80fd5b82825260209485019490910190612197565b6001600160d81b0382811682821603908111156102e7576102e7611d79565b5f6001600160d81b0383168061220057612200611fd7565b6001600160d81b0392909216919091049291505056fea2646970667358221220a30f40b03bc8983965fadb789a622c0cd45629f4eb874cb7b8d1aa139e1f6afc64736f6c634300081a0033","linkReferences":{}},"methodIdentifiers":{"getBorrowingRates(address)":"a8672515","getNetAPY(address)":"02a15f1d","getSupplyRates(address)":"ac5c510b","getVariableBorrowAPY()":"57d3272f","quotePT()":"01efa05d"},"id":12}