{"abi":[{"type":"function","name":"getVariableBorrowAPY","inputs":[],"outputs":[{"name":"","type":"uint256","internalType":"uint256"}],"stateMutability":"view"},{"type":"function","name":"getVariableSupplyAPY","inputs":[],"outputs":[{"name":"","type":"uint256","internalType":"uint256"}],"stateMutability":"view"},{"type":"function","name":"quotePT","inputs":[],"outputs":[{"name":"quoteInStable","type":"uint256","internalType":"uint256"}],"stateMutability":"view"}],"bytecode":{"object":"0x6080604052348015600e575f80fd5b50611d918061001c5f395ff3fe608060405234801561000f575f80fd5b506004361061003f575f3560e01c806301efa05d1461004357806357d3272f1461005d578063cdf19e5414610065575b5f80fd5b61004b61006b565b60405190815260200160405180910390f35b61004b610144565b5f61004b565b61011b546040516370a0823160e01b81523060048201525f9182916001600160a01b03909116906370a0823190602401602060405180830381865afa1580156100b6573d5f803e3d5ffd5b505050506040513d601f19601f820116820180604052508101906100da9190611a8e565b6014546006549192505f91610104916001600160a01b039091169063ffffffff908116906102fb16565b90505f61011a8383670de0b6b3a764000061034b565b6015549091505f9061012f908361271061034b565b905061013b8183611ab9565b94505050505090565b6014546006545f91829161016d916001600160a01b039091169063ffffffff908116906102fb16565b6014546006549192505f91610197916001600160a01b039091169063ffffffff9081169061036616565b90505f62015180425f6006015f9054906101000a90046001600160a01b03166001600160a01b031663e184c9be6040518163ffffffff1660e01b8152600401602060405180830381865afa1580156101f1573d5f803e3d5ffd5b505050506040513d601f19601f820116820180604052508101906102159190611a8e565b61021f9190611ab9565b6102299190611ae0565b61012a549091505f9061023c9084611af3565b90505f6102498583611ae0565b90505f815f61012a015461025d9190611b0a565b90505f845f61012a015461016d6102749190611af3565b61027e9190611ae0565b61012a549091505f90610292908490610393565b61012a549091505f906102a6908490610393565b61012a549091505f906102e2816102d96102d16102c6600f89900b6103cf565b600f88900b90610407565b600f0b610445565b600f0b90610497565b6102ec9190611ab9565b9b9a5050505050505050505050565b5f805f610307856104fb565b915091508082106103255761031c858561071e565b92505050610345565b8082610331878761071e565b61033b9190611af3565b61031c9190611ae0565b92915050565b5f825f19048411830215820261035f575f80fd5b5091020490565b5f805f610372856104fb565b915091508082106103875761031c85856107e6565b808261033187876107e6565b5f815f0361039f575f80fd5b5f6103aa8484610803565b905060016001607f1b036001600160801b03821611156103c8575f80fd5b9392505050565b5f8082600f0b136103de575f80fd5b60806103e983610962565b600f0b6fb17217f7d1cf79abc9e3b39803f2f6af02901c9050919050565b5f600f83810b9083900b0260401d6f7fffffffffffffffffffffffffffffff19811280159061043d575060016001607f1b038113155b6103c8575f80fd5b5f600160461b82600f0b12610458575f80fd5b683fffffffffffffffff1982600f0b121561047457505f919050565b610345608083600f0b700171547652b82fe1777d0ffda0d23a7d1202901d610a3e565b5f815f036104a657505f610345565b5f83600f0b12156104b5575f80fd5b600f83900b6001600160801b038316810260401c90608084901c026001600160c01b038111156104e3575f80fd5b60401b81198111156104f3575f80fd5b019392505050565b5f805f80846001600160a01b0316632c8ce6bc6040518163ffffffff1660e01b8152600401606060405180830381865afa15801561053b573d5f803e3d5ffd5b505050506040513d601f19601f8201168201806040525081019061055f9190611b34565b9250509150816001600160a01b0316633ba0b9a96040518163ffffffff1660e01b8152600401602060405180830381865afa1580156105a0573d5f803e3d5ffd5b505050506040513d601f19601f820116820180604052508101906105c49190611a8e565b93505f816001600160a01b031663d2a3584e6040518163ffffffff1660e01b8152600401602060405180830381865afa158015610603573d5f803e3d5ffd5b505050506040513d601f19601f820116820180604052508101906106279190611a8e565b9050816001600160a01b031663516399df6040518163ffffffff1660e01b8152600401602060405180830381865afa158015610665573d5f803e3d5ffd5b505050506040513d601f19601f820116820180604052508101906106899190611b7e565b80156106fc575043826001600160a01b03166360e0a9e16040518163ffffffff1660e01b8152600401602060405180830381865afa1580156106cd573d5f803e3d5ffd5b505050506040513d601f19601f820116820180604052508101906106f19190611b9d565b6001600160801b0316145b1561070957809350610716565b61071385826114af565b93505b505050915091565b5f80836001600160a01b031663e184c9be6040518163ffffffff1660e01b8152600401602060405180830381865afa15801561075c573d5f803e3d5ffd5b505050506040513d601f19601f820116820180604052508101906107809190611a8e565b905042811161079a57670de0b6b3a7640000915050610345565b5f6107a585856114c4565b90505f6107b24284611ab9565b90505f6107c76107c284846115e3565b611623565b90506107db670de0b6b3a764000082611634565b945050505050610345565b5f6107f1838361071e565b6103c890670de0b6b3a7640000611ab9565b5f815f0361080f575f80fd5b5f6001600160c01b0384116108395782604085901b8161083157610831611acc565b04905061094f565b60c084811c6401000000008110610852576020918201911c5b620100008110610864576010918201911c5b6101008110610875576008918201911c5b60108110610885576004918201911c5b60048110610895576002918201911c5b600281106108a4576001820191505b60bf820360018603901c6001018260ff0387901b816108c5576108c5611acc565b0492506001600160801b038311156108db575f80fd5b608085901c83026001600160801b038616840260c088901c604089901b82811015610907576001820391505b608084901b9290038281101561091e576001820391505b829003608084901c8214610933576001610944565b88818161094257610942611acc565b045b870196505050505050505b6001600160801b038111156103c8575f80fd5b5f8082600f0b13610971575f80fd5b5f600f83900b68010000000000000000811261098f576040918201911d5b64010000000081126109a3576020918201911d5b6201000081126109b5576010918201911d5b61010081126109c6576008918201911d5b601081126109d6576004918201911d5b600481126109e6576002918201911d5b600281126109f5576001820191505b603f19820160401b600f85900b607f8490031b6001603f1b5b5f811315610a335790800260ff81901c8281029390930192607f011c9060011d610a0e565b509095945050505050565b5f600160461b82600f0b12610a51575f80fd5b683fffffffffffffffff1982600f0b1215610a6d57505f919050565b6001607f1b5f6001603f1b8416600f0b1315610a9a5770016a09e667f3bcc908b2fb1366ea957d3e0260801c5b5f8367400000000000000016600f0b1315610ac6577001306fe0a31b7152de8d5a46305c85edec0260801c5b5f8367200000000000000016600f0b1315610af2577001172b83c7d517adcdf7c8c50eb14a791f0260801c5b5f8367100000000000000016600f0b1315610b1e5770010b5586cf9890f6298b92b71842a983630260801c5b5f8367080000000000000016600f0b1315610b4a577001059b0d31585743ae7c548eb68ca417fd0260801c5b5f8367040000000000000016600f0b1315610b7657700102c9a3e778060ee6f7caca4f7a29bde80260801c5b5f8367020000000000000016600f0b1315610ba25770010163da9fb33356d84a66ae336dcdfa3f0260801c5b5f8367010000000000000016600f0b1315610bce57700100b1afa5abcbed6129ab13ec11dc95430260801c5b5f83668000000000000016600f0b1315610bf95770010058c86da1c09ea1ff19d294cf2f679b0260801c5b5f83664000000000000016600f0b1315610c24577001002c605e2e8cec506d21bfc89a23a00f0260801c5b5f83662000000000000016600f0b1315610c4f57700100162f3904051fa128bca9c55c31e5df0260801c5b5f83661000000000000016600f0b1315610c7a577001000b175effdc76ba38e31671ca9397250260801c5b5f83660800000000000016600f0b1315610ca557700100058ba01fb9f96d6cacd4b180917c3d0260801c5b5f83660400000000000016600f0b1315610cd05770010002c5cc37da9491d0985c348c68e7b30260801c5b5f83660200000000000016600f0b1315610cfb577001000162e525ee054754457d59952920260260801c5b5f83660100000000000016600f0b1315610d265770010000b17255775c040618bf4a4ade83fc0260801c5b5f836580000000000016600f0b1315610d50577001000058b91b5bc9ae2eed81e9b7d4cfab0260801c5b5f836540000000000016600f0b1315610d7a57700100002c5c89d5ec6ca4d7c8acc017b7c90260801c5b5f836520000000000016600f0b1315610da45770010000162e43f4f831060e02d839a9d16d0260801c5b5f836510000000000016600f0b1315610dce57700100000b1721bcfc99d9f890ea069117630260801c5b5f836508000000000016600f0b1315610df85770010000058b90cf1e6d97f9ca14dbcc16280260801c5b5f836504000000000016600f0b1315610e22577001000002c5c863b73f016468f6bac5ca2b0260801c5b5f836502000000000016600f0b1315610e4c57700100000162e430e5a18f6119e3c02282a50260801c5b5f836501000000000016600f0b1315610e76577001000000b1721835514b86e6d96efd1bfe0260801c5b5f8364800000000016600f0b1315610e9f57700100000058b90c0b48c6be5df846c5b2ef0260801c5b5f8364400000000016600f0b1315610ec85770010000002c5c8601cc6b9e94213c72737a0260801c5b5f8364200000000016600f0b1315610ef1577001000000162e42fff037df38aa2b219f060260801c5b5f8364100000000016600f0b1315610f1a5770010000000b17217fba9c739aa5819f44f90260801c5b5f8364080000000016600f0b1315610f43577001000000058b90bfcdee5acd3c1cedc8230260801c5b5f8364040000000016600f0b1315610f6c57700100000002c5c85fe31f35a6a30da1be500260801c5b5f8364020000000016600f0b1315610f955770010000000162e42ff0999ce3541b9fffcf0260801c5b5f8364010000000016600f0b1315610fbe57700100000000b17217f80f4ef5aadda455540260801c5b5f83638000000016600f0b1315610fe65770010000000058b90bfbf8479bd5a81b51ad0260801c5b5f83634000000016600f0b131561100e577001000000002c5c85fdf84bd62ae30a74cc0260801c5b5f83632000000016600f0b131561103657700100000000162e42fefb2fed257559bdaa0260801c5b5f83631000000016600f0b131561105e577001000000000b17217f7d5a7716bba4a9ae0260801c5b5f83630800000016600f0b131561108657700100000000058b90bfbe9ddbac5e109cce0260801c5b5f83630400000016600f0b13156110ae5770010000000002c5c85fdf4b15de6f17eb0d0260801c5b5f83630200000016600f0b13156110d6577001000000000162e42fefa494f1478fde050260801c5b5f83630100000016600f0b13156110fe5770010000000000b17217f7d20cf927c8e94c0260801c5b5f836280000016600f0b1315611125577001000000000058b90bfbe8f71cb4e4b33d0260801c5b5f836240000016600f0b131561114c57700100000000002c5c85fdf477b662b269450260801c5b5f836220000016600f0b13156111735770010000000000162e42fefa3ae53369388c0260801c5b5f836210000016600f0b131561119a57700100000000000b17217f7d1d351a389d400260801c5b5f836208000016600f0b13156111c15770010000000000058b90bfbe8e8b2d3d4ede0260801c5b5f836204000016600f0b13156111e8577001000000000002c5c85fdf4741bea6e77e0260801c5b5f836202000016600f0b131561120f57700100000000000162e42fefa39fe95583c20260801c5b5f836201000016600f0b1315611236577001000000000000b17217f7d1cfb72b45e10260801c5b5f8361800016600f0b131561125c57700100000000000058b90bfbe8e7cc35c3f00260801c5b5f8361400016600f0b13156112825770010000000000002c5c85fdf473e242ea380260801c5b5f8361200016600f0b13156112a8577001000000000000162e42fefa39f02b772c0260801c5b5f8361100016600f0b13156112ce5770010000000000000b17217f7d1cf7d83c1a0260801c5b5f8361080016600f0b13156112f4577001000000000000058b90bfbe8e7bdcbe2e0260801c5b5f8361040016600f0b131561131a57700100000000000002c5c85fdf473dea871f0260801c5b5f8361020016600f0b13156113405770010000000000000162e42fefa39ef44d910260801c5b5f8361010016600f0b131561136657700100000000000000b17217f7d1cf79e9490260801c5b5f83608016600f0b131561138b5770010000000000000058b90bfbe8e7bce5440260801c5b5f83604016600f0b13156113b0577001000000000000002c5c85fdf473de6eca0260801c5b5f83602016600f0b13156113d557700100000000000000162e42fefa39ef366f0260801c5b5f83601016600f0b13156113fa577001000000000000000b17217f7d1cf79afa0260801c5b5f83600816600f0b131561141f57700100000000000000058b90bfbe8e7bcd6d0260801c5b5f83600416600f0b13156114445770010000000000000002c5c85fdf473de6b20260801c5b5f83600216600f0b1315611469577001000000000000000162e42fefa39ef3580260801c5b5f83600116600f0b131561148e5770010000000000000000b17217f7d1cf79ab0260801c5b600f83810b60401d603f03900b1c60016001607f1b03811115610345575f80fd5b5f8183116114bd57816103c8565b5090919050565b6040805160028082526060820183525f928392919060208301908036833701905050905082815f815181106114fb576114fb611bd7565b63ffffffff9092166020928302919091019091015260405163883bdbfd60e01b81525f906001600160a01b0386169063883bdbfd9061153e908590600401611beb565b5f60405180830381865afa158015611558573d5f803e3d5ffd5b505050506040513d5f823e601f3d908101601f1916820160405261157f9190810190611c43565b90508363ffffffff16815f8151811061159a5761159a611bd7565b6020026020010151826001815181106115b5576115b5611bd7565b60200260200101516115c79190611d0e565b6115d19190611d2d565b6001600160d81b031695945050505050565b5f806115f46201518061016d611af3565b6115fe8486611af3565b6116089190611ae0565b905061161b61161682611662565b611676565b949350505050565b5f80821215611630575f80fd5b5090565b5f80611648670de0b6b3a764000085611af3565b905082818161165957611659611acc565b04949350505050565b5f6001600160ff1b03821115611630575f80fd5b5f680238fd42c5cf03ffff19821215801561169a575068070c1cc73b00c800008213155b6116dd5760405162461bcd60e51b815260206004820152601060248201526f125b9d985b1a5908195e1c1bdb995b9d60821b604482015260640160405180910390fd5b5f821215611714576116f0825f03611676565b6ec097ce7bc90715b34b9f10000000008161170d5761170d611acc565b0592915050565b5f6806f05b59d3b2000000831261175357506806f05b59d3b1ffffff1990910190770195e54c5dd42177f53a27172fa9ec630262827000000000611789565b6803782dace9d9000000831261178557506803782dace9d8ffffff19909101906b1425982cf597cd205cef7380611789565b5060015b6064929092029168056bc75e2d6310000068ad78ebc5ac6200000084126117d95768ad78ebc5ac61ffffff199093019268056bc75e2d631000006e01855144814a7ff805980ff008400082020590505b6856bc75e2d6310000008412611815576856bc75e2d630ffffff199093019268056bc75e2d631000006b02df0ab5a80a22c61ab5a70082020590505b682b5e3af16b18800000841261184f57682b5e3af16b187fffff199093019268056bc75e2d63100000693f1fce3da636ea5cf85082020590505b6815af1d78b58c4000008412611889576815af1d78b58c3fffff199093019268056bc75e2d63100000690127fa27722cc06cc5e282020590505b680ad78ebc5ac620000084126118c257680ad78ebc5ac61fffff199093019268056bc75e2d6310000068280e60114edb805d0382020590505b68056bc75e2d6310000084126118fb5768056bc75e2d630fffff199093019268056bc75e2d63100000680ebc5fb4174612111082020590505b6802b5e3af16b18800008412611934576802b5e3af16b187ffff199093019268056bc75e2d631000006808f00f760a4b2db55d82020590505b68015af1d78b58c40000841261196d5768015af1d78b58c3ffff199093019268056bc75e2d631000006806f5f177578893793782020590505b68056bc75e2d631000008481019085906002908280020505918201919050600368056bc75e2d631000008783020505918201919050600468056bc75e2d631000008783020505918201919050600568056bc75e2d631000008783020505918201919050600668056bc75e2d631000008783020505918201919050600768056bc75e2d631000008783020505918201919050600868056bc75e2d631000008783020505918201919050600968056bc75e2d631000008783020505918201919050600a68056bc75e2d631000008783020505918201919050600b68056bc75e2d631000008783020505918201919050600c68056bc75e2d631000008783020505918201919050606468056bc75e2d63100000848402058502059695505050505050565b5f60208284031215611a9e575f80fd5b5051919050565b634e487b7160e01b5f52601160045260245ffd5b8181038181111561034557610345611aa5565b634e487b7160e01b5f52601260045260245ffd5b5f82611aee57611aee611acc565b500490565b808202811582820484141761034557610345611aa5565b8082018082111561034557610345611aa5565b6001600160a01b0381168114611b31575f80fd5b50565b5f805f60608486031215611b46575f80fd5b8351611b5181611b1d565b6020850151909350611b6281611b1d565b6040850151909250611b7381611b1d565b809150509250925092565b5f60208284031215611b8e575f80fd5b815180151581146103c8575f80fd5b5f60208284031215611bad575f80fd5b81516001600160801b03811681146103c8575f80fd5b634e487b7160e01b5f52604160045260245ffd5b634e487b7160e01b5f52603260045260245ffd5b602080825282518282018190525f918401906040840190835b81811015610a3357835163ffffffff16835260209384019390920191600101611c04565b80516001600160d81b0381168114611c3e575f80fd5b919050565b5f60208284031215611c53575f80fd5b815167ffffffffffffffff811115611c69575f80fd5b8201601f81018413611c79575f80fd5b805167ffffffffffffffff811115611c9357611c93611bc3565b8060051b604051601f19603f830116810181811067ffffffffffffffff82111715611cc057611cc0611bc3565b604052918252602081840181019290810187841115611cdd575f80fd5b6020850194505b83851015611d0357611cf585611c28565b815260209485019401611ce4565b509695505050505050565b6001600160d81b03828116828216039081111561034557610345611aa5565b5f6001600160d81b03831680611d4557611d45611acc565b6001600160d81b0392909216919091049291505056fea2646970667358221220bf909fe4fef2ccf4fcdb212815f62b4a4ae92b243c80c7ed60aa6e0f6be24ac664736f6c634300081a0033","linkReferences":{}},"methodIdentifiers":{"getVariableBorrowAPY()":"57d3272f","getVariableSupplyAPY()":"cdf19e54","quotePT()":"01efa05d"},"id":12}