{"abi":[{"type":"function","name":"getBorrowingRates","inputs":[{"name":"token_","type":"address","internalType":"address"},{"name":"formatted_","type":"bool","internalType":"bool"}],"outputs":[{"name":"","type":"uint256","internalType":"uint256"}],"stateMutability":"view"},{"type":"function","name":"getNetAPY","inputs":[{"name":"token_","type":"address","internalType":"address"}],"outputs":[{"name":"","type":"uint256","internalType":"uint256"}],"stateMutability":"view"},{"type":"function","name":"getSupplyRates","inputs":[{"name":"token_","type":"address","internalType":"address"},{"name":"formatted_","type":"bool","internalType":"bool"}],"outputs":[{"name":"","type":"uint256","internalType":"uint256"},{"name":"","type":"uint256","internalType":"uint256"}],"stateMutability":"view"},{"type":"function","name":"getVariableBorrowAPY","inputs":[],"outputs":[{"name":"apy","type":"uint256","internalType":"uint256"}],"stateMutability":"view"},{"type":"function","name":"quotePT","inputs":[],"outputs":[{"name":"quoteInStable","type":"uint256","internalType":"uint256"}],"stateMutability":"view"}],"bytecode":{"object":"0x6080604052348015600e575f80fd5b5061234c8061001c5f395ff3fe608060405234801561000f575f80fd5b5060043610610055575f3560e01c806301efa05d1461005957806302a15f1d1461007457806357d3272f1461008757806390f973151461008d578063eb1f3faf146100b5575b5f80fd5b6100616100c8565b6040519081526020015b60405180910390f35b610061610082366004611e07565b6101a1565b5f610061565b6100a061009b366004611e2f565b6101e0565b6040805192835260208301919091520161006b565b6100616100c3366004611e2f565b610206565b61011b546040516370a0823160e01b81523060048201525f9182916001600160a01b03909116906370a0823190602401602060405180830381865afa158015610113573d5f803e3d5ffd5b505050506040513d601f19601f820116820180604052508101906101379190611e66565b6014546006549192505f91610161916001600160a01b039091169063ffffffff908116906102ea16565b90505f6101778383670de0b6b3a7640000610334565b6015549091505f9061018c9083612710610334565b90506101988183611e91565b94505050505090565b5f806101ad835f610206565b90505f806101bb855f6101e0565b90925090505f836101cc8484611ea4565b6101d69190611e91565b9695505050505050565b5f805f6101ed858561034f565b90505f6101f985610432565b9196919550909350505050565b6002546040516335ea6a7560e01b81526001600160a01b0384811660048301525f9283929116906335ea6a75906024016101e060405180830381865afa158015610252573d5f803e3d5ffd5b505050506040513d601f19601f820116820180604052508101906102769190611fb1565b60800151610118549091505f906001600160a01b03868116911614801561029a5750835b6102a55760016102ac565b6402540be4005b64ffffffffff169050806102d56102c7633b9aca00856120ef565b6001600160801b0316610612565b6102df919061211c565b925050505b92915050565b5f805f6102f685610677565b915091508082106103145761030b858561089a565b925050506102e4565b8082610320878761089a565b61032a919061212f565b61030b919061211c565b5f825f190484118302158202610348575f80fd5b5091020490565b610118545f9081906001600160a01b03858116911614801561036e5750825b610379576001610380565b6402540be4005b6002546040516335ea6a7560e01b81526001600160a01b03878116600483015264ffffffffff939093169350839261042092633b9aca00929116906335ea6a75906024016101e060405180830381865afa1580156103e0573d5f803e3d5ffd5b505050506040513d601f19601f820116820180604052508101906104049190611fb1565b604001516001600160801b031661041b919061211c565b610612565b61042a919061211c565b949350505050565b6014546006545f91829161045b916001600160a01b039091169063ffffffff908116906102ea16565b6014546006549192505f91610485916001600160a01b039091169063ffffffff9081169061096216565b90505f62015180425f6006015f9054906101000a90046001600160a01b03166001600160a01b031663e184c9be6040518163ffffffff1660e01b8152600401602060405180830381865afa1580156104df573d5f803e3d5ffd5b505050506040513d601f19601f820116820180604052508101906105039190611e66565b61050d9190611e91565b610517919061211c565b90505f8561052657600161052d565b6402540be4005b64ffffffffff1690505f8061012a015484610548919061212f565b90505f610555868361211c565b90505f815f61012a01546105699190611ea4565b90505f855f61012a015461016d610580919061212f565b61058a919061211c565b61012a549091505f9061059e90849061098f565b61012a549091505f906105b290849061098f565b61012a5490915087906105ee816105e56105dd6105d2600f89900b6109cb565b600f88900b90610a03565b600f0b610a38565b600f0b90610a8a565b6105f89190611e91565b610602919061211c565b9c9b505050505050505050505050565b5f8061062683670de0b6b3a764000061098f565b90505f61063582600f0b610a38565b90505f6106426001610aee565b90505f610653600f84900b83610b1f565b90505f61066c600f83900b670de0b6b3a7640000610a8a565b979650505050505050565b5f805f80846001600160a01b0316632c8ce6bc6040518163ffffffff1660e01b8152600401606060405180830381865afa1580156106b7573d5f803e3d5ffd5b505050506040513d601f19601f820116820180604052508101906106db9190612146565b9250509150816001600160a01b0316633ba0b9a96040518163ffffffff1660e01b8152600401602060405180830381865afa15801561071c573d5f803e3d5ffd5b505050506040513d601f19601f820116820180604052508101906107409190611e66565b93505f816001600160a01b031663d2a3584e6040518163ffffffff1660e01b8152600401602060405180830381865afa15801561077f573d5f803e3d5ffd5b505050506040513d601f19601f820116820180604052508101906107a39190611e66565b9050816001600160a01b031663516399df6040518163ffffffff1660e01b8152600401602060405180830381865afa1580156107e1573d5f803e3d5ffd5b505050506040513d601f19601f820116820180604052508101906108059190612190565b8015610878575043826001600160a01b03166360e0a9e16040518163ffffffff1660e01b8152600401602060405180830381865afa158015610849573d5f803e3d5ffd5b505050506040513d601f19601f8201168201806040525081019061086d91906121ab565b6001600160801b0316145b1561088557809350610892565b61088f8582610b50565b93505b505050915091565b5f80836001600160a01b031663e184c9be6040518163ffffffff1660e01b8152600401602060405180830381865afa1580156108d8573d5f803e3d5ffd5b505050506040513d601f19601f820116820180604052508101906108fc9190611e66565b905042811161091657670de0b6b3a76400009150506102e4565b5f6109218585610b65565b90505f61092e4284611e91565b90505f61094361093e8484610c84565b610cbc565b9050610957670de0b6b3a764000082610ccd565b9450505050506102e4565b5f805f61096e85610677565b915091508082106109835761030b8585610cfb565b80826103208787610cfb565b5f815f0361099b575f80fd5b5f6109a68484610d18565b905060016001607f1b036001600160801b03821611156109c4575f80fd5b9392505050565b5f8082600f0b136109da575f80fd5b60806109e583610e77565b600f0b6fb17217f7d1cf79abc9e3b39803f2f6af02901c9050919050565b5f600f83810b9083900b0260401d60016001607f1b03198112801590610a30575060016001607f1b038113155b6109c4575f80fd5b5f600160461b82600f0b12610a4b575f80fd5b683fffffffffffffffff1982600f0b1215610a6757505f919050565b6102e4608083600f0b700171547652b82fe1777d0ffda0d23a7d1202901d610f53565b5f815f03610a9957505f6102e4565b5f83600f0b1215610aa8575f80fd5b600f83900b6001600160801b038316810260401c90608084901c026001600160c01b03811115610ad6575f80fd5b60401b8119811115610ae6575f80fd5b019392505050565b5f677fffffffffffffff198212158015610b105750677fffffffffffffff8213155b610b18575f80fd5b5060401b90565b5f600f82810b9084900b0360016001607f1b03198112801590610a30575060016001607f1b038113156109c4575f80fd5b5f818311610b5e57816109c4565b5090919050565b6040805160028082526060820183525f928392919060208301908036833701905050905082815f81518110610b9c57610b9c6121c4565b63ffffffff9092166020928302919091019091015260405163883bdbfd60e01b81525f906001600160a01b0386169063883bdbfd90610bdf9085906004016121d8565b5f60405180830381865afa158015610bf9573d5f803e3d5ffd5b505050506040513d5f823e601f3d908101601f19168201604052610c209190810190612215565b90508363ffffffff16815f81518110610c3b57610c3b6121c4565b602002602001015182600181518110610c5657610c566121c4565b6020026020010151610c6891906122c9565b610c7291906122e8565b6001600160d81b031695945050505050565b5f80610c956201518061016d61212f565b610c9f848661212f565b610ca9919061211c565b905061042a610cb7826119c4565b6119d8565b5f80821215610cc9575f80fd5b5090565b5f80610ce1670de0b6b3a76400008561212f565b9050828181610cf257610cf26120db565b04949350505050565b5f610d06838361089a565b6109c490670de0b6b3a7640000611e91565b5f815f03610d24575f80fd5b5f6001600160c01b038411610d4e5782604085901b81610d4657610d466120db565b049050610e64565b60c084811c6401000000008110610d67576020918201911c5b620100008110610d79576010918201911c5b6101008110610d8a576008918201911c5b60108110610d9a576004918201911c5b60048110610daa576002918201911c5b60028110610db9576001820191505b60bf820360018603901c6001018260ff0387901b81610dda57610dda6120db565b0492506001600160801b03831115610df0575f80fd5b608085901c83026001600160801b038616840260c088901c604089901b82811015610e1c576001820391505b608084901b92900382811015610e33576001820391505b829003608084901c8214610e48576001610e59565b888181610e5757610e576120db565b045b870196505050505050505b6001600160801b038111156109c4575f80fd5b5f8082600f0b13610e86575f80fd5b5f600f83900b680100000000000000008112610ea4576040918201911d5b6401000000008112610eb8576020918201911d5b620100008112610eca576010918201911d5b6101008112610edb576008918201911d5b60108112610eeb576004918201911d5b60048112610efb576002918201911d5b60028112610f0a576001820191505b603f19820160401b600f85900b607f8490031b6001603f1b5b5f811315610f485790800260ff81901c8281029390930192607f011c9060011d610f23565b509095945050505050565b5f600160461b82600f0b12610f66575f80fd5b683fffffffffffffffff1982600f0b1215610f8257505f919050565b6001607f1b5f6001603f1b8416600f0b1315610faf5770016a09e667f3bcc908b2fb1366ea957d3e0260801c5b5f8367400000000000000016600f0b1315610fdb577001306fe0a31b7152de8d5a46305c85edec0260801c5b5f8367200000000000000016600f0b1315611007577001172b83c7d517adcdf7c8c50eb14a791f0260801c5b5f8367100000000000000016600f0b13156110335770010b5586cf9890f6298b92b71842a983630260801c5b5f8367080000000000000016600f0b131561105f577001059b0d31585743ae7c548eb68ca417fd0260801c5b5f8367040000000000000016600f0b131561108b57700102c9a3e778060ee6f7caca4f7a29bde80260801c5b5f8367020000000000000016600f0b13156110b75770010163da9fb33356d84a66ae336dcdfa3f0260801c5b5f8367010000000000000016600f0b13156110e357700100b1afa5abcbed6129ab13ec11dc95430260801c5b5f83668000000000000016600f0b131561110e5770010058c86da1c09ea1ff19d294cf2f679b0260801c5b5f83664000000000000016600f0b1315611139577001002c605e2e8cec506d21bfc89a23a00f0260801c5b5f83662000000000000016600f0b131561116457700100162f3904051fa128bca9c55c31e5df0260801c5b5f83661000000000000016600f0b131561118f577001000b175effdc76ba38e31671ca9397250260801c5b5f83660800000000000016600f0b13156111ba57700100058ba01fb9f96d6cacd4b180917c3d0260801c5b5f83660400000000000016600f0b13156111e55770010002c5cc37da9491d0985c348c68e7b30260801c5b5f83660200000000000016600f0b1315611210577001000162e525ee054754457d59952920260260801c5b5f83660100000000000016600f0b131561123b5770010000b17255775c040618bf4a4ade83fc0260801c5b5f836580000000000016600f0b1315611265577001000058b91b5bc9ae2eed81e9b7d4cfab0260801c5b5f836540000000000016600f0b131561128f57700100002c5c89d5ec6ca4d7c8acc017b7c90260801c5b5f836520000000000016600f0b13156112b95770010000162e43f4f831060e02d839a9d16d0260801c5b5f836510000000000016600f0b13156112e357700100000b1721bcfc99d9f890ea069117630260801c5b5f836508000000000016600f0b131561130d5770010000058b90cf1e6d97f9ca14dbcc16280260801c5b5f836504000000000016600f0b1315611337577001000002c5c863b73f016468f6bac5ca2b0260801c5b5f836502000000000016600f0b131561136157700100000162e430e5a18f6119e3c02282a50260801c5b5f836501000000000016600f0b131561138b577001000000b1721835514b86e6d96efd1bfe0260801c5b5f8364800000000016600f0b13156113b457700100000058b90c0b48c6be5df846c5b2ef0260801c5b5f8364400000000016600f0b13156113dd5770010000002c5c8601cc6b9e94213c72737a0260801c5b5f8364200000000016600f0b1315611406577001000000162e42fff037df38aa2b219f060260801c5b5f8364100000000016600f0b131561142f5770010000000b17217fba9c739aa5819f44f90260801c5b5f8364080000000016600f0b1315611458577001000000058b90bfcdee5acd3c1cedc8230260801c5b5f8364040000000016600f0b131561148157700100000002c5c85fe31f35a6a30da1be500260801c5b5f8364020000000016600f0b13156114aa5770010000000162e42ff0999ce3541b9fffcf0260801c5b5f8364010000000016600f0b13156114d357700100000000b17217f80f4ef5aadda455540260801c5b5f83638000000016600f0b13156114fb5770010000000058b90bfbf8479bd5a81b51ad0260801c5b5f83634000000016600f0b1315611523577001000000002c5c85fdf84bd62ae30a74cc0260801c5b5f83632000000016600f0b131561154b57700100000000162e42fefb2fed257559bdaa0260801c5b5f83631000000016600f0b1315611573577001000000000b17217f7d5a7716bba4a9ae0260801c5b5f83630800000016600f0b131561159b57700100000000058b90bfbe9ddbac5e109cce0260801c5b5f83630400000016600f0b13156115c35770010000000002c5c85fdf4b15de6f17eb0d0260801c5b5f83630200000016600f0b13156115eb577001000000000162e42fefa494f1478fde050260801c5b5f83630100000016600f0b13156116135770010000000000b17217f7d20cf927c8e94c0260801c5b5f836280000016600f0b131561163a577001000000000058b90bfbe8f71cb4e4b33d0260801c5b5f836240000016600f0b131561166157700100000000002c5c85fdf477b662b269450260801c5b5f836220000016600f0b13156116885770010000000000162e42fefa3ae53369388c0260801c5b5f836210000016600f0b13156116af57700100000000000b17217f7d1d351a389d400260801c5b5f836208000016600f0b13156116d65770010000000000058b90bfbe8e8b2d3d4ede0260801c5b5f836204000016600f0b13156116fd577001000000000002c5c85fdf4741bea6e77e0260801c5b5f836202000016600f0b131561172457700100000000000162e42fefa39fe95583c20260801c5b5f836201000016600f0b131561174b577001000000000000b17217f7d1cfb72b45e10260801c5b5f8361800016600f0b131561177157700100000000000058b90bfbe8e7cc35c3f00260801c5b5f8361400016600f0b13156117975770010000000000002c5c85fdf473e242ea380260801c5b5f8361200016600f0b13156117bd577001000000000000162e42fefa39f02b772c0260801c5b5f8361100016600f0b13156117e35770010000000000000b17217f7d1cf7d83c1a0260801c5b5f8361080016600f0b1315611809577001000000000000058b90bfbe8e7bdcbe2e0260801c5b5f8361040016600f0b131561182f57700100000000000002c5c85fdf473dea871f0260801c5b5f8361020016600f0b13156118555770010000000000000162e42fefa39ef44d910260801c5b5f8361010016600f0b131561187b57700100000000000000b17217f7d1cf79e9490260801c5b5f83608016600f0b13156118a05770010000000000000058b90bfbe8e7bce5440260801c5b5f83604016600f0b13156118c5577001000000000000002c5c85fdf473de6eca0260801c5b5f83602016600f0b13156118ea57700100000000000000162e42fefa39ef366f0260801c5b5f83601016600f0b131561190f577001000000000000000b17217f7d1cf79afa0260801c5b5f83600816600f0b131561193457700100000000000000058b90bfbe8e7bcd6d0260801c5b5f83600416600f0b13156119595770010000000000000002c5c85fdf473de6b20260801c5b5f83600216600f0b131561197e577001000000000000000162e42fefa39ef3580260801c5b5f83600116600f0b13156119a35770010000000000000000b17217f7d1cf79ab0260801c5b600f83810b60401d603f03900b1c60016001607f1b038111156102e4575f80fd5b5f6001600160ff1b03821115610cc9575f80fd5b5f680238fd42c5cf03ffff1982121580156119fc575068070c1cc73b00c800008213155b611a3f5760405162461bcd60e51b815260206004820152601060248201526f125b9d985b1a5908195e1c1bdb995b9d60821b604482015260640160405180910390fd5b5f821215611a7657611a52825f036119d8565b6ec097ce7bc90715b34b9f100000000081611a6f57611a6f6120db565b0592915050565b5f6806f05b59d3b20000008312611ab557506806f05b59d3b1ffffff1990910190770195e54c5dd42177f53a27172fa9ec630262827000000000611aeb565b6803782dace9d90000008312611ae757506803782dace9d8ffffff19909101906b1425982cf597cd205cef7380611aeb565b5060015b6064929092029168056bc75e2d6310000068ad78ebc5ac620000008412611b3b5768ad78ebc5ac61ffffff199093019268056bc75e2d631000006e01855144814a7ff805980ff008400082020590505b6856bc75e2d6310000008412611b77576856bc75e2d630ffffff199093019268056bc75e2d631000006b02df0ab5a80a22c61ab5a70082020590505b682b5e3af16b188000008412611bb157682b5e3af16b187fffff199093019268056bc75e2d63100000693f1fce3da636ea5cf85082020590505b6815af1d78b58c4000008412611beb576815af1d78b58c3fffff199093019268056bc75e2d63100000690127fa27722cc06cc5e282020590505b680ad78ebc5ac62000008412611c2457680ad78ebc5ac61fffff199093019268056bc75e2d6310000068280e60114edb805d0382020590505b68056bc75e2d631000008412611c5d5768056bc75e2d630fffff199093019268056bc75e2d63100000680ebc5fb4174612111082020590505b6802b5e3af16b18800008412611c96576802b5e3af16b187ffff199093019268056bc75e2d631000006808f00f760a4b2db55d82020590505b68015af1d78b58c400008412611ccf5768015af1d78b58c3ffff199093019268056bc75e2d631000006806f5f177578893793782020590505b68056bc75e2d631000008481019085906002908280020505918201919050600368056bc75e2d631000008783020505918201919050600468056bc75e2d631000008783020505918201919050600568056bc75e2d631000008783020505918201919050600668056bc75e2d631000008783020505918201919050600768056bc75e2d631000008783020505918201919050600868056bc75e2d631000008783020505918201919050600968056bc75e2d631000008783020505918201919050600a68056bc75e2d631000008783020505918201919050600b68056bc75e2d631000008783020505918201919050600c68056bc75e2d631000008783020505918201919050606468056bc75e2d63100000848402058502059695505050505050565b6001600160a01b0381168114611e04575f80fd5b50565b5f60208284031215611e17575f80fd5b81356109c481611df0565b8015158114611e04575f80fd5b5f8060408385031215611e40575f80fd5b8235611e4b81611df0565b91506020830135611e5b81611e22565b809150509250929050565b5f60208284031215611e76575f80fd5b5051919050565b634e487b7160e01b5f52601160045260245ffd5b818103818111156102e4576102e4611e7d565b808201808211156102e4576102e4611e7d565b634e487b7160e01b5f52604160045260245ffd5b6040516101e0810167ffffffffffffffff81118282101715611eef57611eef611eb7565b60405290565b604051601f8201601f1916810167ffffffffffffffff81118282101715611f1e57611f1e611eb7565b604052919050565b5f60208284031215611f36575f80fd5b6040516020810167ffffffffffffffff81118282101715611f5957611f59611eb7565b6040529151825250919050565b80516001600160801b0381168114611f7c575f80fd5b919050565b805164ffffffffff81168114611f7c575f80fd5b805161ffff81168114611f7c575f80fd5b8051611f7c81611df0565b5f6101e0828403128015611fc3575f80fd5b50611fcc611ecb565b611fd68484611f26565b8152611fe460208401611f66565b6020820152611ff560408401611f66565b604082015261200660608401611f66565b606082015261201760808401611f66565b608082015261202860a08401611f66565b60a082015261203960c08401611f81565b60c082015261204a60e08401611f95565b60e082015261205c6101008401611fa6565b61010082015261206f6101208401611fa6565b6101208201526120826101408401611fa6565b6101408201526120956101608401611fa6565b6101608201526120a86101808401611f66565b6101808201526120bb6101a08401611f66565b6101a08201526120ce6101c08401611f66565b6101c08201529392505050565b634e487b7160e01b5f52601260045260245ffd5b5f6001600160801b03831680612107576121076120db565b806001600160801b0384160491505092915050565b5f8261212a5761212a6120db565b500490565b80820281158282048414176102e4576102e4611e7d565b5f805f60608486031215612158575f80fd5b835161216381611df0565b602085015190935061217481611df0565b604085015190925061218581611df0565b809150509250925092565b5f602082840312156121a0575f80fd5b81516109c481611e22565b5f602082840312156121bb575f80fd5b6109c482611f66565b634e487b7160e01b5f52603260045260245ffd5b602080825282518282018190525f918401906040840190835b81811015610f4857835163ffffffff168352602093840193909201916001016121f1565b5f60208284031215612225575f80fd5b815167ffffffffffffffff81111561223b575f80fd5b8201601f8101841361224b575f80fd5b805167ffffffffffffffff81111561226557612265611eb7565b8060051b61227560208201611ef5565b91825260208184018101929081019087841115612290575f80fd5b6020850194505b8385101561066c57845192506001600160d81b03831683146122b7575f80fd5b82825260209485019490910190612297565b6001600160d81b0382811682821603908111156102e4576102e4611e7d565b5f6001600160d81b03831680612300576123006120db565b6001600160d81b0392909216919091049291505056fea2646970667358221220a35ccc8439a87040fbdc989ee1f93bdd33405564beac9c41e9115ee3625e106064736f6c634300081a0033","linkReferences":{}},"methodIdentifiers":{"getBorrowingRates(address,bool)":"eb1f3faf","getNetAPY(address)":"02a15f1d","getSupplyRates(address,bool)":"90f97315","getVariableBorrowAPY()":"57d3272f","quotePT()":"01efa05d"},"id":12}