{"abi":[{"type":"function","name":"USDC","inputs":[],"outputs":[{"name":"","type":"address","internalType":"contract IERC20"}],"stateMutability":"view"},{"type":"function","name":"USDT","inputs":[],"outputs":[{"name":"","type":"address","internalType":"contract IERC20"}],"stateMutability":"view"},{"type":"function","name":"borrowInternal","inputs":[{"name":"amount_","type":"uint256","internalType":"uint256"},{"name":"receiver_","type":"address","internalType":"address"},{"name":"account_","type":"address","internalType":"address"}],"outputs":[],"stateMutability":"nonpayable"},{"type":"function","name":"buyPT","inputs":[{"name":"amountIn_","type":"uint256","internalType":"uint256"},{"name":"intAccount_","type":"address","internalType":"address"},{"name":"tokenIn_","type":"address","internalType":"address"}],"outputs":[{"name":"","type":"uint256","internalType":"uint256"}],"stateMutability":"nonpayable"},{"type":"function","name":"pendleRouter","inputs":[],"outputs":[{"name":"","type":"address","internalType":"contract IPAllActionV3"}],"stateMutability":"view"},{"type":"function","name":"sUSDe","inputs":[],"outputs":[{"name":"","type":"address","internalType":"contract IERC20"}],"stateMutability":"view"},{"type":"function","name":"sUSDeMarket","inputs":[],"outputs":[{"name":"","type":"address","internalType":"contract IPMarket"}],"stateMutability":"view"},{"type":"error","name":"AddressEmptyCode","inputs":[{"name":"target","type":"address","internalType":"address"}]},{"type":"error","name":"AddressInsufficientBalance","inputs":[{"name":"account","type":"address","internalType":"address"}]},{"type":"error","name":"FailedInnerCall","inputs":[]},{"type":"error","name":"SafeERC20FailedOperation","inputs":[{"name":"token","type":"address","internalType":"address"}]}],"bytecode":{"object":"0x5f80546001600160a01b0319167387870bca3f3fd6335c3f4ce8392d69350b4fa4e217815561012060405260808190525f1960a081905260c082905261010060e0819052655af3107a400080825260018490556002929092556003929092556004919091556005553480156071575f80fd5b50610e168061007f5f395ff3fe608060405234801561000f575f80fd5b506004361061007a575f3560e01c806389a302711161005857806389a30271146100f25780639bac3bc81461010d578063c54e44eb14610122578063e0d05d391461013d575f80fd5b8063206aeab31461007e5780634920cfea146100b65780635df7eb90146100d1575b5f80fd5b61009973888888888889758f76e7103c6cbf23abbf58f94681565b6040516001600160a01b0390911681526020015b60405180910390f35b61009973d1d7d99764f8a52aff007b7831cc02748b2013b581565b6100e46100df3660046108dd565b610158565b6040519081526020016100ad565b61009973a0b86991c6218b36c1d19d4a2e9eb0ce3606eb4881565b61012061011b3660046108dd565b610415565b005b61009973dac17f958d2ee523a2206206994597c13d831ec781565b610099739d39a5de30e57443bff2a8307a4256c8797a349781565b5f808073a0b86991c6218b36c1d19d4a2e9eb0ce3606eb47196001600160a01b038516016101b8576101b573a0b86991c6218b36c1d19d4a2e9eb0ce3606eb48739d39a5de30e57443bff2a8307a4256c8797a34978789856104c9565b91505b60405163095ea7b360e01b815273888888888889758f76e7103c6cbf23abbf58f946600482015260248101839052739d39a5de30e57443bff2a8307a4256c8797a34979063095ea7b3906044016020604051808303815f875af1158015610221573d5f803e3d5ffd5b505050506040513d601f19601f820116820180604052508101906102459190610916565b505f8073888888888889758f76e7103c6cbf23abbf58f9466001600160a01b031663c81f847a8873d1d7d99764f8a52aff007b7831cc02748b2013b58560016103a18a60066040518060800160405290815f82015f9054906101000a900460ff1660038111156102b7576102b7610935565b60038111156102c8576102c8610935565b8152815461010090046001600160a01b031660208201526001820180546040909201916102f490610949565b80601f016020809104026020016040519081016040528092919081815260200182805461032090610949565b801561036b5780601f106103425761010080835404028352916020019161036b565b820191905f5260205f20905b81548152906001019060200180831161034e57829003601f168201915b50505091835250506002919091015460ff161515602090910152739d39a5de30e57443bff2a8307a4256c8797a34979190610655565b60096040518763ffffffff1660e01b81526004016103c496959493929190610cb6565b6060604051808303815f875af11580156103e0573d5f803e3d5ffd5b505050506040513d601f19601f820116820180604052508101906104049190610d2c565b5090955050505050505b9392505050565b5f805460405163a415bcad60e01b815273a0b86991c6218b36c1d19d4a2e9eb0ce3606eb4860048201526024810186905260026044820181905260648201939093526001600160a01b0384811660848301529091169063a415bcad9060a4015f604051808303815f87803b15801561048b575f80fd5b505af115801561049d573d5f803e3d5ffd5b506104c3925073a0b86991c6218b36c1d19d4a2e9eb0ce3606eb48915033905086610693565b50505050565b60405163095ea7b360e01b815273e592427a0aece92de3edee1f18e0157c0586156460048201819052602482018490525f916001600160a01b0388169063095ea7b3906044016020604051808303815f875af115801561052b573d5f803e3d5ffd5b505050506040513d601f19601f8201168201806040525081019061054f9190610916565b506040805160a081018252606089811b6bffffffffffffffffffffffff1990811660c0840152607d60ea1b60d4840181905273dac17f958d2ee523a2206206994597c13d831ec760601b60d785015260eb84015289821b1660ee830152825160e28184030181526101028301845282526001600160a01b038089166020840152428385015290820187905260808201869052915163c04b8d5960e01b81526101f49284169063c04b8d5990610608908490600401610d57565b6020604051808303815f875af1158015610624573d5f803e3d5ffd5b505050506040513d601f19601f820116820180604052508101906106489190610dae565b9998505050505050505050565b61065d610855565b506040805160a0810182526001600160a01b039490941680855260208501939093528301919091525f6060830152608082015290565b604080516001600160a01b038416602482015260448082018490528251808303909101815260649091019091526020810180516001600160e01b031663a9059cbb60e01b1790526106e59084906106ea565b505050565b5f6106fe6001600160a01b03841683610750565b905080515f141580156107225750808060200190518101906107209190610916565b155b156106e557604051635274afe760e01b81526001600160a01b03841660048201526024015b60405180910390fd5b606061040e83835f845f80856001600160a01b031684866040516107749190610dc5565b5f6040518083038185875af1925050503d805f81146107ae576040519150601f19603f3d011682016040523d82523d5f602084013e6107b3565b606091505b50915091506107c38683836107cd565b9695505050505050565b6060826107e2576107dd82610829565b61040e565b81511580156107f957506001600160a01b0384163b155b1561082257604051639996b31560e01b81526001600160a01b0385166004820152602401610747565b508061040e565b8051156108395780518082602001fd5b604051630a12f52160e11b815260040160405180910390fd5b50565b6040518060a001604052805f6001600160a01b031681526020015f81526020015f6001600160a01b031681526020015f6001600160a01b031681526020016108bd6040805160808101909152805f81525f602082018190526060604083018190529091015290565b905290565b80356001600160a01b03811681146108d8575f80fd5b919050565b5f805f606084860312156108ef575f80fd5b833592506108ff602085016108c2565b915061090d604085016108c2565b90509250925092565b5f60208284031215610926575f80fd5b8151801515811461040e575f80fd5b634e487b7160e01b5f52602160045260245ffd5b600181811c9082168061095d57607f821691505b60208210810361097b57634e487b7160e01b5f52602260045260245ffd5b50919050565b6004811061085257634e487b7160e01b5f52602160045260245ffd5b5f5b838110156109b757818101518382015260200161099f565b50505f910152565b5f81518084526109d681602086016020860161099d565b601f01601f19169290920160200192915050565b60018060a01b0381511682526020810151602083015260018060a01b03604082015116604083015260018060a01b0360608201511660608301525f608082015160a060808501528051610a3c81610981565b60a085015260208101516001600160a01b031660c08501526040810151608060e0860152610a6e6101208601826109bf565b905060608201511515610100860152809250505092915050565b610a9181610981565b9052565b80545f90600181811c90821680610aad57607f821691505b602082108103610acb57634e487b7160e01b5f52602260045260245ffd5b81865260208601818015610ae65760018114610afc57610b28565b60ff198516825283151560051b82019550610b28565b5f878152602090205f5b85811015610b2257815484820152600190910190602001610b06565b83019650505b505050505092915050565b5f82825480855260208501945060208160051b830101845f5260205f205f5b83811015610c4557601f19858403018852606083528154606084015260018201546080840152600282015460a08401526003820154610b9760c0850160ff8316610a88565b6001600160a01b03600891821c811660e0860152600484015481166101008601526005840154811661012086015260068401541661014085015260078301546101608501528201546101808085019190915260098301546101a08501526101c0840152610c0b6101e08401600a8401610a95565b8381036020850152610c2081600b8501610a95565b600c840154604095909501949094525060209790970196600d90910190600101610b52565b50909695505050505050565b80546001600160a01b031682526001810154602083015260a0604083018190525f90610c8290840160028401610b33565b8381036060850152610c978160038501610b33565b90508381036080850152610cae8160048501610a95565b949350505050565b6001600160a01b03878116825286166020820152604081018590528354606082015260018401546080820152600284015460a0820152600384015460c0820152600484015460e082015261014061010082018190525f90610d19908301856109ea565b8281036101208401526106488185610c51565b5f805f60608486031215610d3e575f80fd5b5050815160208301516040909301519094929350919050565b602081525f825160a06020840152610d7260c08401826109bf565b905060018060a01b0360208501511660408401526040840151606084015260608401516080840152608084015160a08401528091505092915050565b5f60208284031215610dbe575f80fd5b5051919050565b5f8251610dd681846020870161099d565b919091019291505056fea2646970667358221220eeaeb04c73de9d8bcf63284568c42e2ddf44ad0d6d4befee096018013b300a7664736f6c634300081a0033","linkReferences":{}},"methodIdentifiers":{"USDC()":"89a30271","USDT()":"c54e44eb","borrowInternal(uint256,address,address)":"9bac3bc8","buyPT(uint256,address,address)":"5df7eb90","pendleRouter()":"206aeab3","sUSDe()":"e0d05d39","sUSDeMarket()":"4920cfea"},"id":26}