{"abi":[{"type":"function","name":"borrowInternal","inputs":[{"name":"amount_","type":"uint256","internalType":"uint256"},{"name":"receiver_","type":"address","internalType":"address"},{"name":"account_","type":"address","internalType":"address"}],"outputs":[],"stateMutability":"nonpayable"},{"type":"error","name":"AddressEmptyCode","inputs":[{"name":"target","type":"address","internalType":"address"}]},{"type":"error","name":"AddressInsufficientBalance","inputs":[{"name":"account","type":"address","internalType":"address"}]},{"type":"error","name":"FailedInnerCall","inputs":[]},{"type":"error","name":"SafeERC20FailedOperation","inputs":[{"name":"token","type":"address","internalType":"address"}]}],"bytecode":{"object":"0x6080604052348015600e575f80fd5b5061064a8061001c5f395ff3fe608060405234801561000f575f80fd5b5060043610610029575f3560e01c80639bac3bc81461002d575b5f80fd5b61004061003b3660046104f3565b610042565b005b60405163a415bcad60e01b815273a0b86991c6218b36c1d19d4a2e9eb0ce3606eb4860048201819052602482018590526002604483018190525f60648401526001600160a01b03841660848401527387870bca3f3fd6335c3f4ce8392d69350b4fa4e292839063a415bcad9060a4015f604051808303815f87803b1580156100c8575f80fd5b505af11580156100da573d5f803e3d5ffd5b5050604080518082018252601c81527f757364632062616c206f7a202d20707265207472616e736665723a2000000000602082015290516370a0823160e01b815233600482015261018293509091506001600160a01b038516906370a08231906024015b602060405180830381865afa158015610159573d5f803e3d5ffd5b505050506040513d601f19601f8201168201806040525081019061017d919061052c565b61022f565b6101b06040518060400160405280600c81526020016b036b9b39739b2b73232b91d160a51b81525033610278565b6101c46001600160a01b03831633886102bd565b604080518082018252601d81527f757364632062616c206f7a202d20706f7374207472616e736665723a20000000602082015290516370a0823160e01b815233600482015261022791906001600160a01b038516906370a082319060240161013e565b505050505050565b6102748282604051602401610245929190610590565b60408051601f198184030181529190526020810180516001600160e01b03166309710a9d60e41b179052610314565b5050565b610274828260405160240161028e9291906105b1565b60408051601f198184030181529190526020810180516001600160e01b031663319af33360e01b179052610314565b604080516001600160a01b038416602482015260448082018490528251808303909101815260649091019091526020810180516001600160e01b031663a9059cbb60e01b17905261030f908490610320565b505050565b61031d81610386565b50565b5f6103346001600160a01b038416836103a6565b905080515f1415801561035857508080602001905181019061035691906105da565b155b1561030f57604051635274afe760e01b81526001600160a01b03841660048201526024015b60405180910390fd5b80516a636f6e736f6c652e6c6f67602083015f808483855afa5050505050565b60606103b383835f6103ba565b9392505050565b6060814710156103df5760405163cd78605960e01b815230600482015260240161037d565b5f80856001600160a01b031684866040516103fa91906105f9565b5f6040518083038185875af1925050503d805f8114610434576040519150601f19603f3d011682016040523d82523d5f602084013e610439565b606091505b5091509150610449868383610453565b9695505050505050565b60608261046857610463826104af565b6103b3565b815115801561047f57506001600160a01b0384163b155b156104a857604051639996b31560e01b81526001600160a01b038516600482015260240161037d565b50806103b3565b8051156104bf5780518082602001fd5b604051630a12f52160e11b815260040160405180910390fd5b80356001600160a01b03811681146104ee575f80fd5b919050565b5f805f60608486031215610505575f80fd5b83359250610515602085016104d8565b9150610523604085016104d8565b90509250925092565b5f6020828403121561053c575f80fd5b5051919050565b5f5b8381101561055d578181015183820152602001610545565b50505f910152565b5f815180845261057c816020860160208601610543565b601f01601f19169290920160200192915050565b604081525f6105a26040830185610565565b90508260208301529392505050565b604081525f6105c36040830185610565565b905060018060a01b03831660208301529392505050565b5f602082840312156105ea575f80fd5b815180151581146103b3575f80fd5b5f825161060a818460208701610543565b919091019291505056fea2646970667358221220a1546c33d4929adb58027369b93f8c43fc1f8dfc6c4ceae1645f77d7786b1f1e64736f6c634300081a0033","linkReferences":{}},"methodIdentifiers":{"borrowInternal(uint256,address,address)":"9bac3bc8"},"id":18}