{"abi":[{"type":"function","name":"borrowInternal","inputs":[{"name":"amount_","type":"uint256","internalType":"uint256"},{"name":"receiver_","type":"address","internalType":"address"},{"name":"account_","type":"address","internalType":"address"}],"outputs":[{"name":"","type":"uint256","internalType":"uint256"}],"stateMutability":"nonpayable"},{"type":"error","name":"AddressEmptyCode","inputs":[{"name":"target","type":"address","internalType":"address"}]},{"type":"error","name":"AddressInsufficientBalance","inputs":[{"name":"account","type":"address","internalType":"address"}]},{"type":"error","name":"FailedInnerCall","inputs":[]},{"type":"error","name":"SafeERC20FailedOperation","inputs":[{"name":"token","type":"address","internalType":"address"}]}],"bytecode":{"object":"0x6080604052348015600e575f80fd5b5061047f8061001c5f395ff3fe608060405234801561000f575f80fd5b5060043610610029575f3560e01c80639bac3bc81461002d575b5f80fd5b61004061003b366004610368565b610052565b60405190815260200160405180910390f35b5f7387870bca3f3fd6335c3f4ce8392d69350b4fa4e273a0b86991c6218b36c1d19d4a2e9eb0ce3606eb4860028361008988610121565b60405163a415bcad60e01b81526001600160a01b03858116600483015260248201839052604482018590525f606483015288811660848301529192509085169063a415bcad9060a4015f604051808303815f87803b1580156100e9575f80fd5b505af11580156100fb573d5f803e3d5ffd5b50610114925050506001600160a01b038416338361015c565b93505050505b9392505050565b5f6101f4600a80610134836127106103b5565b61013e91906103b5565b61014a856127106103c8565b61015491906103df565b949350505050565b604080516001600160a01b038416602482015260448082018490528251808303909101815260649091019091526020810180516001600160e01b031663a9059cbb60e01b1790526101ae9084906101b3565b505050565b5f6101c76001600160a01b03841683610219565b905080515f141580156101eb5750808060200190518101906101e991906103fe565b155b156101ae57604051635274afe760e01b81526001600160a01b03841660048201526024015b60405180910390fd5b606061022683835f61022f565b90505b92915050565b6060814710156102545760405163cd78605960e01b8152306004820152602401610210565b5f80856001600160a01b0316848660405161026f919061041d565b5f6040518083038185875af1925050503d805f81146102a9576040519150601f19603f3d011682016040523d82523d5f602084013e6102ae565b606091505b50915091506102be8683836102c8565b9695505050505050565b6060826102dd576102d882610324565b61011a565b81511580156102f457506001600160a01b0384163b155b1561031d57604051639996b31560e01b81526001600160a01b0385166004820152602401610210565b508061011a565b8051156103345780518082602001fd5b604051630a12f52160e11b815260040160405180910390fd5b80356001600160a01b0381168114610363575f80fd5b919050565b5f805f6060848603121561037a575f80fd5b8335925061038a6020850161034d565b91506103986040850161034d565b90509250925092565b634e487b7160e01b5f52601160045260245ffd5b81810381811115610229576102296103a1565b8082028115828204841417610229576102296103a1565b5f826103f957634e487b7160e01b5f52601260045260245ffd5b500490565b5f6020828403121561040e575f80fd5b8151801515811461011a575f80fd5b5f82515f5b8181101561043c5760208186018101518583015201610422565b505f92019182525091905056fea2646970667358221220d606ab45909ef0dbe17aca2216473bea8ff69af5d7791184b8ccad532b546d9164736f6c634300081a0033","linkReferences":{}},"methodIdentifiers":{"borrowInternal(uint256,address,address)":"9bac3bc8"},"id":18}