{"abi":[{"type":"function","name":"supportsInterface","inputs":[{"name":"_interfaceID","type":"bytes4","internalType":"bytes4"}],"outputs":[{"name":"","type":"bool","internalType":"bool"}],"stateMutability":"view"},{"type":"function","name":"test1Func1","inputs":[],"outputs":[],"stateMutability":"nonpayable"},{"type":"function","name":"test1Func10","inputs":[],"outputs":[],"stateMutability":"nonpayable"},{"type":"function","name":"test1Func11","inputs":[],"outputs":[],"stateMutability":"nonpayable"},{"type":"function","name":"test1Func12","inputs":[],"outputs":[],"stateMutability":"nonpayable"},{"type":"function","name":"test1Func13","inputs":[],"outputs":[],"stateMutability":"nonpayable"},{"type":"function","name":"test1Func14","inputs":[],"outputs":[],"stateMutability":"nonpayable"},{"type":"function","name":"test1Func15","inputs":[],"outputs":[],"stateMutability":"nonpayable"},{"type":"function","name":"test1Func16","inputs":[],"outputs":[],"stateMutability":"nonpayable"},{"type":"function","name":"test1Func17","inputs":[],"outputs":[],"stateMutability":"nonpayable"},{"type":"function","name":"test1Func18","inputs":[],"outputs":[],"stateMutability":"nonpayable"},{"type":"function","name":"test1Func19","inputs":[],"outputs":[],"stateMutability":"nonpayable"},{"type":"function","name":"test1Func2","inputs":[],"outputs":[],"stateMutability":"nonpayable"},{"type":"function","name":"test1Func20","inputs":[],"outputs":[],"stateMutability":"nonpayable"},{"type":"function","name":"test1Func3","inputs":[],"outputs":[],"stateMutability":"nonpayable"},{"type":"function","name":"test1Func4","inputs":[],"outputs":[],"stateMutability":"nonpayable"},{"type":"function","name":"test1Func5","inputs":[],"outputs":[],"stateMutability":"nonpayable"},{"type":"function","name":"test1Func6","inputs":[],"outputs":[],"stateMutability":"nonpayable"},{"type":"function","name":"test1Func7","inputs":[],"outputs":[],"stateMutability":"nonpayable"},{"type":"function","name":"test1Func8","inputs":[],"outputs":[],"stateMutability":"nonpayable"},{"type":"function","name":"test1Func9","inputs":[],"outputs":[],"stateMutability":"nonpayable"},{"type":"event","name":"TestEvent","inputs":[{"name":"something","type":"address","indexed":false,"internalType":"address"}],"anonymous":false}],"bytecode":{"object":"0x6080604052348015600e575f80fd5b506101c38061001c5f395ff3fe608060405234801561000f575f80fd5b5060043610610132575f3560e01c806351b68a4d116100b45780639abf97aa116100795780639abf97aa1461015d578063b0e8fcc71461015d578063cbb835f61461015d578063cd0bae091461015d578063cf3bbe181461015d578063db32da151461015d575f80fd5b806351b68a4d1461015d57806371a99d6f1461015d57806377e9d0d61461015d57806381b5207d1461015d57806387952d221461015d575f80fd5b806324c1d5a7116100fa57806324c1d5a71461015d578063292c460d1461015d5780632cb832481461015d5780634484b3b91461015d57806350eb3f431461015d575f80fd5b806301ffc9a7146101365780630716c2ae1461015d578063110460471461015d57806319c841ab1461015d57806319e3b5331461015d575b5f80fd5b61014961014436600461015f565b505f90565b604051901515815260200160405180910390f35b005b5f6020828403121561016f575f80fd5b81356001600160e01b031981168114610186575f80fd5b939250505056fea264697066735822122067e9533cc5d7ed0158e7aa8dfdf4dce99e71e8ad7047310d59eb98c46b487a6d64736f6c634300081a0033","linkReferences":{}},"methodIdentifiers":{"supportsInterface(bytes4)":"01ffc9a7","test1Func1()":"19e3b533","test1Func10()":"87952d22","test1Func11()":"50eb3f43","test1Func12()":"81b5207d","test1Func13()":"19c841ab","test1Func14()":"51b68a4d","test1Func15()":"2cb83248","test1Func16()":"77e9d0d6","test1Func17()":"4484b3b9","test1Func18()":"9abf97aa","test1Func19()":"292c460d","test1Func2()":"0716c2ae","test1Func20()":"b0e8fcc7","test1Func3()":"11046047","test1Func4()":"cf3bbe18","test1Func5()":"24c1d5a7","test1Func6()":"cbb835f6","test1Func7()":"71a99d6f","test1Func8()":"db32da15","test1Func9()":"cd0bae09"},"id":6}