{"abi":[{"type":"function","name":"pendleMarket","inputs":[],"outputs":[{"name":"","type":"address","internalType":"address"}],"stateMutability":"view"},{"type":"function","name":"router","inputs":[],"outputs":[{"name":"","type":"address","internalType":"address"}],"stateMutability":"view"}],"bytecode":{"object":"0x6080604052348015600f57600080fd5b5060bd80601d6000396000f3fe6080604052348015600f57600080fd5b506004361060325760003560e01c806399d9a71f146037578063f887ea4014606d575b600080fd5b605173d1d7d99764f8a52aff007b7831cc02748b2013b581565b6040516001600160a01b03909116815260200160405180910390f35b605173888888888889758f76e7103c6cbf23abbf58f9468156fea2646970667358221220cc70f7cf1bf9323817e60b3f9aadfc9ed7f2fe248dc8b904e43f56cac01da3ad64736f6c63430008190033","linkReferences":{}},"methodIdentifiers":{"pendleMarket()":"99d9a71f","router()":"f887ea40"},"id":0}