{"abi":[{"type":"constructor","inputs":[{"name":"ozDiamond_","type":"address","internalType":"address"}],"stateMutability":"nonpayable"},{"type":"function","name":"OZ","inputs":[],"outputs":[{"name":"","type":"address","internalType":"contract ozIDiamond"}],"stateMutability":"view"},{"type":"function","name":"allowance","inputs":[{"name":"owner","type":"address","internalType":"address"},{"name":"spender","type":"address","internalType":"address"}],"outputs":[{"name":"","type":"uint256","internalType":"uint256"}],"stateMutability":"view"},{"type":"function","name":"approve","inputs":[{"name":"spender","type":"address","internalType":"address"},{"name":"value","type":"uint256","internalType":"uint256"}],"outputs":[{"name":"","type":"bool","internalType":"bool"}],"stateMutability":"nonpayable"},{"type":"function","name":"balanceOf","inputs":[{"name":"account","type":"address","internalType":"address"}],"outputs":[{"name":"","type":"uint256","internalType":"uint256"}],"stateMutability":"view"},{"type":"function","name":"burn","inputs":[{"name":"account_","type":"address","internalType":"address"},{"name":"amount_","type":"uint256","internalType":"uint256"}],"outputs":[],"stateMutability":"nonpayable"},{"type":"function","name":"decimals","inputs":[],"outputs":[{"name":"","type":"uint8","internalType":"uint8"}],"stateMutability":"view"},{"type":"function","name":"initialize","inputs":[{"name":"name_","type":"string","internalType":"string"},{"name":"symbol_","type":"string","internalType":"string"}],"outputs":[],"stateMutability":"nonpayable"},{"type":"function","name":"mint","inputs":[{"name":"account_","type":"address","internalType":"address"},{"name":"amount_","type":"uint256","internalType":"uint256"}],"outputs":[],"stateMutability":"nonpayable"},{"type":"function","name":"name","inputs":[],"outputs":[{"name":"","type":"string","internalType":"string"}],"stateMutability":"view"},{"type":"function","name":"redeem","inputs":[{"name":"amount_","type":"uint256","internalType":"uint256"},{"name":"account_","type":"address","internalType":"address"},{"name":"receiver_","type":"address","internalType":"address"},{"name":"token_","type":"uint8","internalType":"enum Tokens"}],"outputs":[{"name":"","type":"uint256","internalType":"uint256"}],"stateMutability":"nonpayable"},{"type":"function","name":"symbol","inputs":[],"outputs":[{"name":"","type":"string","internalType":"string"}],"stateMutability":"view"},{"type":"function","name":"totalSupply","inputs":[],"outputs":[{"name":"","type":"uint256","internalType":"uint256"}],"stateMutability":"view"},{"type":"function","name":"transfer","inputs":[{"name":"to","type":"address","internalType":"address"},{"name":"value","type":"uint256","internalType":"uint256"}],"outputs":[{"name":"","type":"bool","internalType":"bool"}],"stateMutability":"nonpayable"},{"type":"function","name":"transferFrom","inputs":[{"name":"from","type":"address","internalType":"address"},{"name":"to","type":"address","internalType":"address"},{"name":"value","type":"uint256","internalType":"uint256"}],"outputs":[{"name":"","type":"bool","internalType":"bool"}],"stateMutability":"nonpayable"},{"type":"event","name":"Approval","inputs":[{"name":"owner","type":"address","indexed":true,"internalType":"address"},{"name":"spender","type":"address","indexed":true,"internalType":"address"},{"name":"value","type":"uint256","indexed":false,"internalType":"uint256"}],"anonymous":false},{"type":"event","name":"Initialized","inputs":[{"name":"version","type":"uint64","indexed":false,"internalType":"uint64"}],"anonymous":false},{"type":"event","name":"Transfer","inputs":[{"name":"from","type":"address","indexed":true,"internalType":"address"},{"name":"to","type":"address","indexed":true,"internalType":"address"},{"name":"value","type":"uint256","indexed":false,"internalType":"uint256"}],"anonymous":false},{"type":"error","name":"ERC20InsufficientAllowance","inputs":[{"name":"spender","type":"address","internalType":"address"},{"name":"allowance","type":"uint256","internalType":"uint256"},{"name":"needed","type":"uint256","internalType":"uint256"}]},{"type":"error","name":"ERC20InsufficientBalance","inputs":[{"name":"sender","type":"address","internalType":"address"},{"name":"balance","type":"uint256","internalType":"uint256"},{"name":"needed","type":"uint256","internalType":"uint256"}]},{"type":"error","name":"ERC20InvalidApprover","inputs":[{"name":"approver","type":"address","internalType":"address"}]},{"type":"error","name":"ERC20InvalidReceiver","inputs":[{"name":"receiver","type":"address","internalType":"address"}]},{"type":"error","name":"ERC20InvalidSender","inputs":[{"name":"sender","type":"address","internalType":"address"}]},{"type":"error","name":"ERC20InvalidSpender","inputs":[{"name":"spender","type":"address","internalType":"address"}]},{"type":"error","name":"InvalidInitialization","inputs":[]},{"type":"error","name":"NotInitializing","inputs":[]}],"bytecode":{"object":"0x60a0604052348015600e575f80fd5b50604051610ed3380380610ed3833981016040819052602b91603b565b6001600160a01b03166080526066565b5f60208284031215604a575f80fd5b81516001600160a01b0381168114605f575f80fd5b9392505050565b608051610e4e6100855f395f818161019701526104ff0152610e4e5ff3fe608060405234801561000f575f80fd5b50600436106100e5575f3560e01c80634cd88b76116100885780639dc29fac116100635780639dc29fac14610220578063a9059cbb14610233578063da53766014610246578063dd62ed3e14610259575f80fd5b80634cd88b76146101d157806370a08231146101e457806395d89b4114610218575f80fd5b806323b872dd116100c357806323b872dd1461015b578063313ce5671461016e57806340c10f191461017d57806341c8bcc314610192575f80fd5b806306fdde03146100e9578063095ea7b31461010757806318160ddd1461012a575b5f80fd5b6100f161026c565b6040516100fe91906109d6565b60405180910390f35b61011a610115366004610a3c565b61032c565b60405190151581526020016100fe565b7f52c63247e1f47db19d5ce0460030c497f067ca4cebf71ba98eeadabe20bace02545b6040519081526020016100fe565b61011a610169366004610a64565b610345565b604051601281526020016100fe565b61019061018b366004610a3c565b610368565b005b6101b97f000000000000000000000000000000000000000000000000000000000000000081565b6040516001600160a01b0390911681526020016100fe565b6101906101df366004610b3d565b610376565b61014d6101f2366004610ba2565b6001600160a01b03165f9081525f80516020610df9833981519152602052604090205490565b6100f1610486565b61019061022e366004610a3c565b6104c4565b61011a610241366004610a3c565b6104ce565b61014d610254366004610bc2565b6104db565b61014d610267366004610c11565b610584565b7f52c63247e1f47db19d5ce0460030c497f067ca4cebf71ba98eeadabe20bace0380546060915f80516020610df9833981519152916102aa90610c42565b80601f01602080910402602001604051908101604052809291908181526020018280546102d690610c42565b80156103215780601f106102f857610100808354040283529160200191610321565b820191905f5260205f20905b81548152906001019060200180831161030457829003601f168201915b505050505091505090565b5f336103398185856105cd565b60019150505b92915050565b5f336103528582856105df565b61035d858585610647565b506001949350505050565b61037282826106a4565b5050565b7ff0c57e16840df040f15088dc2f81fe391c3923bec73e23a9662efc9c229c6a008054600160401b810460ff16159067ffffffffffffffff165f811580156103bb5750825b90505f8267ffffffffffffffff1660011480156103d75750303b155b9050811580156103e5575080155b156104035760405163f92ee8a960e01b815260040160405180910390fd5b845467ffffffffffffffff19166001178555831561042d57845460ff60401b1916600160401b1785555b61043787876106d8565b831561047d57845460ff60401b19168555604051600181527fc7f505b2f371ae2175ee4913f4499e1f2633a7b5936321eed1cdaeb6115181d29060200160405180910390a15b50505050505050565b7f52c63247e1f47db19d5ce0460030c497f067ca4cebf71ba98eeadabe20bace0480546060915f80516020610df9833981519152916102aa90610c42565b61037282826106ea565b5f33610339818585610647565b5f6104e684866106ea565b60405163f14d936560e01b81525f906001600160a01b037f0000000000000000000000000000000000000000000000000000000000000000169063f14d93659061053a908990899089908990600401610c7a565b6020604051808303815f875af1158015610556573d5f803e3d5ffd5b505050506040513d601f19601f8201168201806040525081019061057a9190610cc3565b9695505050505050565b6001600160a01b039182165f9081527f52c63247e1f47db19d5ce0460030c497f067ca4cebf71ba98eeadabe20bace016020908152604080832093909416825291909152205490565b6105da838383600161071e565b505050565b5f6105ea8484610584565b90505f198114610641578181101561063357604051637dc7a0d960e11b81526001600160a01b038416600482015260248101829052604481018390526064015b60405180910390fd5b61064184848484035f61071e565b50505050565b6001600160a01b03831661067057604051634b637e8f60e11b81525f600482015260240161062a565b6001600160a01b0382166106995760405163ec442f0560e01b81525f600482015260240161062a565b6105da838383610802565b6001600160a01b0382166106cd5760405163ec442f0560e01b81525f600482015260240161062a565b6103725f8383610802565b6106e061093b565b6103728282610986565b6001600160a01b03821661071357604051634b637e8f60e11b81525f600482015260240161062a565b610372825f83610802565b5f80516020610df98339815191526001600160a01b0385166107555760405163e602df0560e01b81525f600482015260240161062a565b6001600160a01b03841661077e57604051634a1406b160e11b81525f600482015260240161062a565b6001600160a01b038086165f908152600183016020908152604080832093881683529290522083905581156107fb57836001600160a01b0316856001600160a01b03167f8c5be1e5ebec7d5bd14f71427d1e84f3dd0314c0f7b2291e5b200ac8c7c3b925856040516107f291815260200190565b60405180910390a35b5050505050565b5f80516020610df98339815191526001600160a01b03841661083c5781816002015f8282546108319190610cda565b909155506108ac9050565b6001600160a01b0384165f908152602082905260409020548281101561088e5760405163391434e360e21b81526001600160a01b0386166004820152602481018290526044810184905260640161062a565b6001600160a01b0385165f9081526020839052604090209083900390555b6001600160a01b0383166108ca5760028101805483900390556108e8565b6001600160a01b0383165f9081526020829052604090208054830190555b826001600160a01b0316846001600160a01b03167fddf252ad1be2c89b69c2b068fc378daa952ba7f163c4a11628f55a4df523b3ef8460405161092d91815260200190565b60405180910390a350505050565b7ff0c57e16840df040f15088dc2f81fe391c3923bec73e23a9662efc9c229c6a0054600160401b900460ff1661098457604051631afcd79f60e31b815260040160405180910390fd5b565b61098e61093b565b5f80516020610df98339815191527f52c63247e1f47db19d5ce0460030c497f067ca4cebf71ba98eeadabe20bace036109c78482610d3d565b50600481016106418382610d3d565b602081525f82518060208401525f5b81811015610a0257602081860181015160408684010152016109e5565b505f604082850101526040601f19601f83011684010191505092915050565b80356001600160a01b0381168114610a37575f80fd5b919050565b5f8060408385031215610a4d575f80fd5b610a5683610a21565b946020939093013593505050565b5f805f60608486031215610a76575f80fd5b610a7f84610a21565b9250610a8d60208501610a21565b929592945050506040919091013590565b634e487b7160e01b5f52604160045260245ffd5b5f82601f830112610ac1575f80fd5b813567ffffffffffffffff811115610adb57610adb610a9e565b604051601f8201601f19908116603f0116810167ffffffffffffffff81118282101715610b0a57610b0a610a9e565b604052818152838201602001851015610b21575f80fd5b816020850160208301375f918101602001919091529392505050565b5f8060408385031215610b4e575f80fd5b823567ffffffffffffffff811115610b64575f80fd5b610b7085828601610ab2565b925050602083013567ffffffffffffffff811115610b8c575f80fd5b610b9885828601610ab2565b9150509250929050565b5f60208284031215610bb2575f80fd5b610bbb82610a21565b9392505050565b5f805f8060808587031215610bd5575f80fd5b84359350610be560208601610a21565b9250610bf360408601610a21565b9150606085013560058110610c06575f80fd5b939692955090935050565b5f8060408385031215610c22575f80fd5b610c2b83610a21565b9150610c3960208401610a21565b90509250929050565b600181811c90821680610c5657607f821691505b602082108103610c7457634e487b7160e01b5f52602260045260245ffd5b50919050565b8481526001600160a01b038481166020830152831660408201526080810160058310610cb457634e487b7160e01b5f52602160045260245ffd5b82606083015295945050505050565b5f60208284031215610cd3575f80fd5b5051919050565b8082018082111561033f57634e487b7160e01b5f52601160045260245ffd5b601f8211156105da57805f5260205f20601f840160051c81016020851015610d1e5750805b601f840160051c820191505b818110156107fb575f8155600101610d2a565b815167ffffffffffffffff811115610d5757610d57610a9e565b610d6b81610d658454610c42565b84610cf9565b6020601f821160018114610d9d575f8315610d865750848201515b5f19600385901b1c1916600184901b1784556107fb565b5f84815260208120601f198516915b82811015610dcc5787850151825560209485019460019092019101610dac565b5084821015610de957868401515f19600387901b60f8161c191681555b50505050600190811b0190555056fe52c63247e1f47db19d5ce0460030c497f067ca4cebf71ba98eeadabe20bace00a26469706673582212201ecebccc935ec53ae664b0263de0dcf2e1af359db114ad0a12b35e0622b5ec6764736f6c634300081a0033","linkReferences":{}},"methodIdentifiers":{"OZ()":"41c8bcc3","allowance(address,address)":"dd62ed3e","approve(address,uint256)":"095ea7b3","balanceOf(address)":"70a08231","burn(address,uint256)":"9dc29fac","decimals()":"313ce567","initialize(string,string)":"4cd88b76","mint(address,uint256)":"40c10f19","name()":"06fdde03","redeem(uint256,address,address,uint8)":"da537660","symbol()":"95d89b41","totalSupply()":"18160ddd","transfer(address,uint256)":"a9059cbb","transferFrom(address,address,uint256)":"23b872dd"},"id":22}