{"abi":[{"type":"constructor","inputs":[{"name":"ozDiamond_","type":"address","internalType":"address"}],"stateMutability":"nonpayable"},{"type":"function","name":"OZ","inputs":[],"outputs":[{"name":"","type":"address","internalType":"contract ozIDiamond"}],"stateMutability":"view"},{"type":"function","name":"allowance","inputs":[{"name":"owner","type":"address","internalType":"address"},{"name":"spender","type":"address","internalType":"address"}],"outputs":[{"name":"","type":"uint256","internalType":"uint256"}],"stateMutability":"view"},{"type":"function","name":"approve","inputs":[{"name":"spender","type":"address","internalType":"address"},{"name":"value","type":"uint256","internalType":"uint256"}],"outputs":[{"name":"","type":"bool","internalType":"bool"}],"stateMutability":"nonpayable"},{"type":"function","name":"balanceOf","inputs":[{"name":"account","type":"address","internalType":"address"}],"outputs":[{"name":"","type":"uint256","internalType":"uint256"}],"stateMutability":"view"},{"type":"function","name":"burn","inputs":[{"name":"account_","type":"address","internalType":"address"},{"name":"amount_","type":"uint256","internalType":"uint256"}],"outputs":[],"stateMutability":"nonpayable"},{"type":"function","name":"decimals","inputs":[],"outputs":[{"name":"","type":"uint8","internalType":"uint8"}],"stateMutability":"view"},{"type":"function","name":"initialize","inputs":[{"name":"name_","type":"string","internalType":"string"},{"name":"symbol_","type":"string","internalType":"string"}],"outputs":[],"stateMutability":"nonpayable"},{"type":"function","name":"mint","inputs":[{"name":"account_","type":"address","internalType":"address"},{"name":"amount_","type":"uint256","internalType":"uint256"}],"outputs":[],"stateMutability":"nonpayable"},{"type":"function","name":"name","inputs":[],"outputs":[{"name":"","type":"string","internalType":"string"}],"stateMutability":"view"},{"type":"function","name":"redeem","inputs":[{"name":"amount_","type":"uint256","internalType":"uint256"},{"name":"minAmountOut_","type":"uint256","internalType":"uint256"},{"name":"account_","type":"address","internalType":"address"},{"name":"receiver_","type":"address","internalType":"address"},{"name":"token_","type":"uint8","internalType":"enum Tokens"}],"outputs":[{"name":"","type":"uint256","internalType":"uint256"}],"stateMutability":"nonpayable"},{"type":"function","name":"symbol","inputs":[],"outputs":[{"name":"","type":"string","internalType":"string"}],"stateMutability":"view"},{"type":"function","name":"totalSupply","inputs":[],"outputs":[{"name":"","type":"uint256","internalType":"uint256"}],"stateMutability":"view"},{"type":"function","name":"transfer","inputs":[{"name":"to","type":"address","internalType":"address"},{"name":"value","type":"uint256","internalType":"uint256"}],"outputs":[{"name":"","type":"bool","internalType":"bool"}],"stateMutability":"nonpayable"},{"type":"function","name":"transferFrom","inputs":[{"name":"from","type":"address","internalType":"address"},{"name":"to","type":"address","internalType":"address"},{"name":"value","type":"uint256","internalType":"uint256"}],"outputs":[{"name":"","type":"bool","internalType":"bool"}],"stateMutability":"nonpayable"},{"type":"event","name":"Approval","inputs":[{"name":"owner","type":"address","indexed":true,"internalType":"address"},{"name":"spender","type":"address","indexed":true,"internalType":"address"},{"name":"value","type":"uint256","indexed":false,"internalType":"uint256"}],"anonymous":false},{"type":"event","name":"Initialized","inputs":[{"name":"version","type":"uint64","indexed":false,"internalType":"uint64"}],"anonymous":false},{"type":"event","name":"Transfer","inputs":[{"name":"from","type":"address","indexed":true,"internalType":"address"},{"name":"to","type":"address","indexed":true,"internalType":"address"},{"name":"value","type":"uint256","indexed":false,"internalType":"uint256"}],"anonymous":false},{"type":"error","name":"ERC20InsufficientAllowance","inputs":[{"name":"spender","type":"address","internalType":"address"},{"name":"allowance","type":"uint256","internalType":"uint256"},{"name":"needed","type":"uint256","internalType":"uint256"}]},{"type":"error","name":"ERC20InsufficientBalance","inputs":[{"name":"sender","type":"address","internalType":"address"},{"name":"balance","type":"uint256","internalType":"uint256"},{"name":"needed","type":"uint256","internalType":"uint256"}]},{"type":"error","name":"ERC20InvalidApprover","inputs":[{"name":"approver","type":"address","internalType":"address"}]},{"type":"error","name":"ERC20InvalidReceiver","inputs":[{"name":"receiver","type":"address","internalType":"address"}]},{"type":"error","name":"ERC20InvalidSender","inputs":[{"name":"sender","type":"address","internalType":"address"}]},{"type":"error","name":"ERC20InvalidSpender","inputs":[{"name":"spender","type":"address","internalType":"address"}]},{"type":"error","name":"InvalidInitialization","inputs":[]},{"type":"error","name":"NotInitializing","inputs":[]}],"bytecode":{"object":"0x60a0604052348015600e575f80fd5b50604051610ee9380380610ee9833981016040819052602b91603b565b6001600160a01b03166080526066565b5f60208284031215604a575f80fd5b81516001600160a01b0381168114605f575f80fd5b9392505050565b608051610e646100855f395f818161019701526104aa0152610e645ff3fe608060405234801561000f575f80fd5b50600436106100e5575f3560e01c80634cd88b761161008857806395d89b411161006357806395d89b411461022b5780639dc29fac14610233578063a9059cbb14610246578063dd62ed3e14610259575f80fd5b80634cd88b76146101d157806370a08231146101e45780637d6339ba14610218575f80fd5b806323b872dd116100c357806323b872dd1461015b578063313ce5671461016e57806340c10f191461017d57806341c8bcc314610192575f80fd5b806306fdde03146100e9578063095ea7b31461010757806318160ddd1461012a575b5f80fd5b6100f161026c565b6040516100fe91906109d9565b60405180910390f35b61011a610115366004610a3f565b61032c565b60405190151581526020016100fe565b7f52c63247e1f47db19d5ce0460030c497f067ca4cebf71ba98eeadabe20bace02545b6040519081526020016100fe565b61011a610169366004610a67565b610345565b604051601281526020016100fe565b61019061018b366004610a3f565b610368565b005b6101b97f000000000000000000000000000000000000000000000000000000000000000081565b6040516001600160a01b0390911681526020016100fe565b6101906101df366004610b40565b610376565b61014d6101f2366004610ba5565b6001600160a01b03165f9081525f80516020610e0f833981519152602052604090205490565b61014d610226366004610bc5565b610486565b6100f1610532565b610190610241366004610a3f565b610570565b61011a610254366004610a3f565b61057a565b61014d610267366004610c1f565b610587565b7f52c63247e1f47db19d5ce0460030c497f067ca4cebf71ba98eeadabe20bace0380546060915f80516020610e0f833981519152916102aa90610c50565b80601f01602080910402602001604051908101604052809291908181526020018280546102d690610c50565b80156103215780601f106102f857610100808354040283529160200191610321565b820191905f5260205f20905b81548152906001019060200180831161030457829003601f168201915b505050505091505090565b5f336103398185856105d0565b60019150505b92915050565b5f336103528582856105e2565b61035d85858561064a565b506001949350505050565b61037282826106a7565b5050565b7ff0c57e16840df040f15088dc2f81fe391c3923bec73e23a9662efc9c229c6a008054600160401b810460ff16159067ffffffffffffffff165f811580156103bb5750825b90505f8267ffffffffffffffff1660011480156103d75750303b155b9050811580156103e5575080155b156104035760405163f92ee8a960e01b815260040160405180910390fd5b845467ffffffffffffffff19166001178555831561042d57845460ff60401b1916600160401b1785555b61043787876106db565b831561047d57845460ff60401b19168555604051600181527fc7f505b2f371ae2175ee4913f4499e1f2633a7b5936321eed1cdaeb6115181d29060200160405180910390a15b50505050505050565b5f61049184876106ed565b604051630f4771c760e41b81525f906001600160a01b037f0000000000000000000000000000000000000000000000000000000000000000169063f4771c70906104e7908a908a908a908a908a90600401610c88565b6020604051808303815f875af1158015610503573d5f803e3d5ffd5b505050506040513d601f19601f820116820180604052508101906105279190610cd9565b979650505050505050565b7f52c63247e1f47db19d5ce0460030c497f067ca4cebf71ba98eeadabe20bace0480546060915f80516020610e0f833981519152916102aa90610c50565b61037282826106ed565b5f3361033981858561064a565b6001600160a01b039182165f9081527f52c63247e1f47db19d5ce0460030c497f067ca4cebf71ba98eeadabe20bace016020908152604080832093909416825291909152205490565b6105dd8383836001610721565b505050565b5f6105ed8484610587565b90505f198114610644578181101561063657604051637dc7a0d960e11b81526001600160a01b038416600482015260248101829052604481018390526064015b60405180910390fd5b61064484848484035f610721565b50505050565b6001600160a01b03831661067357604051634b637e8f60e11b81525f600482015260240161062d565b6001600160a01b03821661069c5760405163ec442f0560e01b81525f600482015260240161062d565b6105dd838383610805565b6001600160a01b0382166106d05760405163ec442f0560e01b81525f600482015260240161062d565b6103725f8383610805565b6106e361093e565b6103728282610989565b6001600160a01b03821661071657604051634b637e8f60e11b81525f600482015260240161062d565b610372825f83610805565b5f80516020610e0f8339815191526001600160a01b0385166107585760405163e602df0560e01b81525f600482015260240161062d565b6001600160a01b03841661078157604051634a1406b160e11b81525f600482015260240161062d565b6001600160a01b038086165f908152600183016020908152604080832093881683529290522083905581156107fe57836001600160a01b0316856001600160a01b03167f8c5be1e5ebec7d5bd14f71427d1e84f3dd0314c0f7b2291e5b200ac8c7c3b925856040516107f591815260200190565b60405180910390a35b5050505050565b5f80516020610e0f8339815191526001600160a01b03841661083f5781816002015f8282546108349190610cf0565b909155506108af9050565b6001600160a01b0384165f90815260208290526040902054828110156108915760405163391434e360e21b81526001600160a01b0386166004820152602481018290526044810184905260640161062d565b6001600160a01b0385165f9081526020839052604090209083900390555b6001600160a01b0383166108cd5760028101805483900390556108eb565b6001600160a01b0383165f9081526020829052604090208054830190555b826001600160a01b0316846001600160a01b03167fddf252ad1be2c89b69c2b068fc378daa952ba7f163c4a11628f55a4df523b3ef8460405161093091815260200190565b60405180910390a350505050565b7ff0c57e16840df040f15088dc2f81fe391c3923bec73e23a9662efc9c229c6a0054600160401b900460ff1661098757604051631afcd79f60e31b815260040160405180910390fd5b565b61099161093e565b5f80516020610e0f8339815191527f52c63247e1f47db19d5ce0460030c497f067ca4cebf71ba98eeadabe20bace036109ca8482610d53565b50600481016106448382610d53565b602081525f82518060208401525f5b81811015610a0557602081860181015160408684010152016109e8565b505f604082850101526040601f19601f83011684010191505092915050565b80356001600160a01b0381168114610a3a575f80fd5b919050565b5f8060408385031215610a50575f80fd5b610a5983610a24565b946020939093013593505050565b5f805f60608486031215610a79575f80fd5b610a8284610a24565b9250610a9060208501610a24565b929592945050506040919091013590565b634e487b7160e01b5f52604160045260245ffd5b5f82601f830112610ac4575f80fd5b813567ffffffffffffffff811115610ade57610ade610aa1565b604051601f8201601f19908116603f0116810167ffffffffffffffff81118282101715610b0d57610b0d610aa1565b604052818152838201602001851015610b24575f80fd5b816020850160208301375f918101602001919091529392505050565b5f8060408385031215610b51575f80fd5b823567ffffffffffffffff811115610b67575f80fd5b610b7385828601610ab5565b925050602083013567ffffffffffffffff811115610b8f575f80fd5b610b9b85828601610ab5565b9150509250929050565b5f60208284031215610bb5575f80fd5b610bbe82610a24565b9392505050565b5f805f805f60a08688031215610bd9575f80fd5b8535945060208601359350610bf060408701610a24565b9250610bfe60608701610a24565b9150608086013560098110610c11575f80fd5b809150509295509295909350565b5f8060408385031215610c30575f80fd5b610c3983610a24565b9150610c4760208401610a24565b90509250929050565b600181811c90821680610c6457607f821691505b602082108103610c8257634e487b7160e01b5f52602260045260245ffd5b50919050565b858152602081018590526001600160a01b0384811660408301528316606082015260a0810160098310610cc957634e487b7160e01b5f52602160045260245ffd5b8260808301529695505050505050565b5f60208284031215610ce9575f80fd5b5051919050565b8082018082111561033f57634e487b7160e01b5f52601160045260245ffd5b601f8211156105dd57805f5260205f20601f840160051c81016020851015610d345750805b601f840160051c820191505b818110156107fe575f8155600101610d40565b815167ffffffffffffffff811115610d6d57610d6d610aa1565b610d8181610d7b8454610c50565b84610d0f565b6020601f821160018114610db3575f8315610d9c5750848201515b5f19600385901b1c1916600184901b1784556107fe565b5f84815260208120601f198516915b82811015610de25787850151825560209485019460019092019101610dc2565b5084821015610dff57868401515f19600387901b60f8161c191681555b50505050600190811b0190555056fe52c63247e1f47db19d5ce0460030c497f067ca4cebf71ba98eeadabe20bace00a2646970667358221220589ba3c0530735fa9a5554ef3b7e8d8f87b42502191136ad5013c8435b56cf7564736f6c634300081a0033","linkReferences":{}},"methodIdentifiers":{"OZ()":"41c8bcc3","allowance(address,address)":"dd62ed3e","approve(address,uint256)":"095ea7b3","balanceOf(address)":"70a08231","burn(address,uint256)":"9dc29fac","decimals()":"313ce567","initialize(string,string)":"4cd88b76","mint(address,uint256)":"40c10f19","name()":"06fdde03","redeem(uint256,uint256,address,address,uint8)":"7d6339ba","symbol()":"95d89b41","totalSupply()":"18160ddd","transfer(address,uint256)":"a9059cbb","transferFrom(address,address,uint256)":"23b872dd"},"id":25}