{"abi":[{"type":"constructor","inputs":[{"name":"ozDiamond_","type":"address","internalType":"address"}],"stateMutability":"nonpayable"},{"type":"function","name":"OZ","inputs":[],"outputs":[{"name":"","type":"address","internalType":"contract ozIDiamond"}],"stateMutability":"view"},{"type":"function","name":"allowance","inputs":[{"name":"owner","type":"address","internalType":"address"},{"name":"spender","type":"address","internalType":"address"}],"outputs":[{"name":"","type":"uint256","internalType":"uint256"}],"stateMutability":"view"},{"type":"function","name":"approve","inputs":[{"name":"spender","type":"address","internalType":"address"},{"name":"amount","type":"uint256","internalType":"uint256"}],"outputs":[{"name":"","type":"bool","internalType":"bool"}],"stateMutability":"nonpayable"},{"type":"function","name":"balanceOf","inputs":[{"name":"account","type":"address","internalType":"address"}],"outputs":[{"name":"","type":"uint256","internalType":"uint256"}],"stateMutability":"view"},{"type":"function","name":"burn","inputs":[{"name":"account_","type":"address","internalType":"address"},{"name":"amount_","type":"uint256","internalType":"uint256"}],"outputs":[],"stateMutability":"nonpayable"},{"type":"function","name":"decimals","inputs":[],"outputs":[{"name":"","type":"uint8","internalType":"uint8"}],"stateMutability":"view"},{"type":"function","name":"decreaseAllowance","inputs":[{"name":"spender","type":"address","internalType":"address"},{"name":"subtractedValue","type":"uint256","internalType":"uint256"}],"outputs":[{"name":"","type":"bool","internalType":"bool"}],"stateMutability":"nonpayable"},{"type":"function","name":"increaseAllowance","inputs":[{"name":"spender","type":"address","internalType":"address"},{"name":"addedValue","type":"uint256","internalType":"uint256"}],"outputs":[{"name":"","type":"bool","internalType":"bool"}],"stateMutability":"nonpayable"},{"type":"function","name":"initialize","inputs":[{"name":"name_","type":"string","internalType":"string"},{"name":"symbol_","type":"string","internalType":"string"}],"outputs":[],"stateMutability":"nonpayable"},{"type":"function","name":"mint","inputs":[{"name":"account_","type":"address","internalType":"address"},{"name":"amount_","type":"uint256","internalType":"uint256"}],"outputs":[],"stateMutability":"nonpayable"},{"type":"function","name":"name","inputs":[],"outputs":[{"name":"","type":"string","internalType":"string"}],"stateMutability":"view"},{"type":"function","name":"redeem","inputs":[{"name":"amount_","type":"uint256","internalType":"uint256"},{"name":"minAmountOut_","type":"uint256","internalType":"uint256"},{"name":"account_","type":"address","internalType":"address"},{"name":"receiver_","type":"address","internalType":"address"},{"name":"token_","type":"uint8","internalType":"enum Tokens"}],"outputs":[{"name":"","type":"uint256","internalType":"uint256"}],"stateMutability":"nonpayable"},{"type":"function","name":"symbol","inputs":[],"outputs":[{"name":"","type":"string","internalType":"string"}],"stateMutability":"view"},{"type":"function","name":"totalSupply","inputs":[],"outputs":[{"name":"","type":"uint256","internalType":"uint256"}],"stateMutability":"view"},{"type":"function","name":"transfer","inputs":[{"name":"to","type":"address","internalType":"address"},{"name":"amount","type":"uint256","internalType":"uint256"}],"outputs":[{"name":"","type":"bool","internalType":"bool"}],"stateMutability":"nonpayable"},{"type":"function","name":"transferFrom","inputs":[{"name":"from","type":"address","internalType":"address"},{"name":"to","type":"address","internalType":"address"},{"name":"amount","type":"uint256","internalType":"uint256"}],"outputs":[{"name":"","type":"bool","internalType":"bool"}],"stateMutability":"nonpayable"},{"type":"event","name":"Approval","inputs":[{"name":"owner","type":"address","indexed":true,"internalType":"address"},{"name":"spender","type":"address","indexed":true,"internalType":"address"},{"name":"value","type":"uint256","indexed":false,"internalType":"uint256"}],"anonymous":false},{"type":"event","name":"Initialized","inputs":[{"name":"version","type":"uint8","indexed":false,"internalType":"uint8"}],"anonymous":false},{"type":"event","name":"Transfer","inputs":[{"name":"from","type":"address","indexed":true,"internalType":"address"},{"name":"to","type":"address","indexed":true,"internalType":"address"},{"name":"value","type":"uint256","indexed":false,"internalType":"uint256"}],"anonymous":false}],"bytecode":{"object":"0x60a0604052348015600e575f80fd5b506040516110e83803806110e8833981016040819052602b91603b565b6001600160a01b03166080526066565b5f60208284031215604a575f80fd5b81516001600160a01b0381168114605f575f80fd5b9392505050565b6080516110636100855f395f81816101a101526104b001526110635ff3fe608060405234801561000f575f80fd5b50600436106100fb575f3560e01c80634cd88b76116100935780639dc29fac116100635780639dc29fac14610231578063a457c2d714610244578063a9059cbb14610257578063dd62ed3e1461026a575f80fd5b80634cd88b76146101db57806370a08231146101ee5780637d6339ba1461021657806395d89b4114610229575f80fd5b8063313ce567116100ce578063313ce56714610165578063395093511461017457806340c10f191461018757806341c8bcc31461019c575f80fd5b806306fdde03146100ff578063095ea7b31461011d57806318160ddd1461014057806323b872dd14610152575b5f80fd5b61010761027d565b6040516101149190610ba6565b60405180910390f35b61013061012b366004610c0c565b61030d565b6040519015158152602001610114565b6035545b604051908152602001610114565b610130610160366004610c34565b610326565b60405160128152602001610114565b610130610182366004610c0c565b610349565b61019a610195366004610c0c565b61036a565b005b6101c37f000000000000000000000000000000000000000000000000000000000000000081565b6040516001600160a01b039091168152602001610114565b61019a6101e9366004610d0d565b610378565b6101446101fc366004610d72565b6001600160a01b03165f9081526033602052604090205490565b610144610224366004610d92565b61048c565b610107610538565b61019a61023f366004610c0c565b610547565b610130610252366004610c0c565b610551565b610130610265366004610c0c565b6105cb565b610144610278366004610dec565b6105d8565b60606036805461028c90610e1d565b80601f01602080910402602001604051908101604052809291908181526020018280546102b890610e1d565b80156103035780601f106102da57610100808354040283529160200191610303565b820191905f5260205f20905b8154815290600101906020018083116102e657829003601f168201915b5050505050905090565b5f3361031a818585610602565b60019150505b92915050565b5f33610333858285610725565b61033e85858561079d565b506001949350505050565b5f3361031a81858561035b83836105d8565b6103659190610e55565b610602565b6103748282610946565b5050565b5f54610100900460ff161580801561039657505f54600160ff909116105b806103af5750303b1580156103af57505f5460ff166001145b6104175760405162461bcd60e51b815260206004820152602e60248201527f496e697469616c697a61626c653a20636f6e747261637420697320616c72656160448201526d191e481a5b9a5d1a585b1a5e995960921b60648201526084015b60405180910390fd5b5f805460ff191660011790558015610438575f805461ff0019166101001790555b6104428383610a05565b8015610487575f805461ff0019169055604051600181527f7f26b83ff96e1f2b6a682f133852f6798a09c465da95921460cefb38474024989060200160405180910390a15b505050565b5f6104978487610a35565b604051630f4771c760e41b81525f906001600160a01b037f0000000000000000000000000000000000000000000000000000000000000000169063f4771c70906104ed908a908a908a908a908a90600401610e74565b6020604051808303815f875af1158015610509573d5f803e3d5ffd5b505050506040513d601f19601f8201168201806040525081019061052d9190610ec5565b979650505050505050565b60606037805461028c90610e1d565b6103748282610a35565b5f338161055e82866105d8565b9050838110156105be5760405162461bcd60e51b815260206004820152602560248201527f45524332303a2064656372656173656420616c6c6f77616e63652062656c6f77604482015264207a65726f60d81b606482015260840161040e565b61033e8286868403610602565b5f3361031a81858561079d565b6001600160a01b039182165f90815260346020908152604080832093909416825291909152205490565b6001600160a01b0383166106645760405162461bcd60e51b8152602060048201526024808201527f45524332303a20617070726f76652066726f6d20746865207a65726f206164646044820152637265737360e01b606482015260840161040e565b6001600160a01b0382166106c55760405162461bcd60e51b815260206004820152602260248201527f45524332303a20617070726f766520746f20746865207a65726f206164647265604482015261737360f01b606482015260840161040e565b6001600160a01b038381165f8181526034602090815260408083209487168084529482529182902085905590518481527f8c5be1e5ebec7d5bd14f71427d1e84f3dd0314c0f7b2291e5b200ac8c7c3b925910160405180910390a3505050565b5f61073084846105d8565b90505f198114610797578181101561078a5760405162461bcd60e51b815260206004820152601d60248201527f45524332303a20696e73756666696369656e7420616c6c6f77616e6365000000604482015260640161040e565b6107978484848403610602565b50505050565b6001600160a01b0383166108015760405162461bcd60e51b815260206004820152602560248201527f45524332303a207472616e736665722066726f6d20746865207a65726f206164604482015264647265737360d81b606482015260840161040e565b6001600160a01b0382166108635760405162461bcd60e51b815260206004820152602360248201527f45524332303a207472616e7366657220746f20746865207a65726f206164647260448201526265737360e81b606482015260840161040e565b6001600160a01b0383165f90815260336020526040902054818110156108da5760405162461bcd60e51b815260206004820152602660248201527f45524332303a207472616e7366657220616d6f756e7420657863656564732062604482015265616c616e636560d01b606482015260840161040e565b6001600160a01b038085165f8181526033602052604080822086860390559286168082529083902080548601905591517fddf252ad1be2c89b69c2b068fc378daa952ba7f163c4a11628f55a4df523b3ef906109399086815260200190565b60405180910390a3610797565b6001600160a01b03821661099c5760405162461bcd60e51b815260206004820152601f60248201527f45524332303a206d696e7420746f20746865207a65726f206164647265737300604482015260640161040e565b8060355f8282546109ad9190610e55565b90915550506001600160a01b0382165f818152603360209081526040808320805486019055518481527fddf252ad1be2c89b69c2b068fc378daa952ba7f163c4a11628f55a4df523b3ef910160405180910390a35050565b5f54610100900460ff16610a2b5760405162461bcd60e51b815260040161040e90610edc565b6103748282610b67565b6001600160a01b038216610a955760405162461bcd60e51b815260206004820152602160248201527f45524332303a206275726e2066726f6d20746865207a65726f206164647265736044820152607360f81b606482015260840161040e565b6001600160a01b0382165f9081526033602052604090205481811015610b085760405162461bcd60e51b815260206004820152602260248201527f45524332303a206275726e20616d6f756e7420657863656564732062616c616e604482015261636560f01b606482015260840161040e565b6001600160a01b0383165f8181526033602090815260408083208686039055603580548790039055518581529192917fddf252ad1be2c89b69c2b068fc378daa952ba7f163c4a11628f55a4df523b3ef910160405180910390a3505050565b5f54610100900460ff16610b8d5760405162461bcd60e51b815260040161040e90610edc565b6036610b998382610f72565b5060376104878282610f72565b602081525f82518060208401525f5b81811015610bd25760208186018101516040868401015201610bb5565b505f604082850101526040601f19601f83011684010191505092915050565b80356001600160a01b0381168114610c07575f80fd5b919050565b5f8060408385031215610c1d575f80fd5b610c2683610bf1565b946020939093013593505050565b5f805f60608486031215610c46575f80fd5b610c4f84610bf1565b9250610c5d60208501610bf1565b929592945050506040919091013590565b634e487b7160e01b5f52604160045260245ffd5b5f82601f830112610c91575f80fd5b813567ffffffffffffffff811115610cab57610cab610c6e565b604051601f8201601f19908116603f0116810167ffffffffffffffff81118282101715610cda57610cda610c6e565b604052818152838201602001851015610cf1575f80fd5b816020850160208301375f918101602001919091529392505050565b5f8060408385031215610d1e575f80fd5b823567ffffffffffffffff811115610d34575f80fd5b610d4085828601610c82565b925050602083013567ffffffffffffffff811115610d5c575f80fd5b610d6885828601610c82565b9150509250929050565b5f60208284031215610d82575f80fd5b610d8b82610bf1565b9392505050565b5f805f805f60a08688031215610da6575f80fd5b8535945060208601359350610dbd60408701610bf1565b9250610dcb60608701610bf1565b9150608086013560098110610dde575f80fd5b809150509295509295909350565b5f8060408385031215610dfd575f80fd5b610e0683610bf1565b9150610e1460208401610bf1565b90509250929050565b600181811c90821680610e3157607f821691505b602082108103610e4f57634e487b7160e01b5f52602260045260245ffd5b50919050565b8082018082111561032057634e487b7160e01b5f52601160045260245ffd5b858152602081018590526001600160a01b0384811660408301528316606082015260a0810160098310610eb557634e487b7160e01b5f52602160045260245ffd5b8260808301529695505050505050565b5f60208284031215610ed5575f80fd5b5051919050565b6020808252602b908201527f496e697469616c697a61626c653a20636f6e7472616374206973206e6f74206960408201526a6e697469616c697a696e6760a81b606082015260800190565b601f82111561048757805f5260205f20601f840160051c81016020851015610f4c5750805b601f840160051c820191505b81811015610f6b575f8155600101610f58565b5050505050565b815167ffffffffffffffff811115610f8c57610f8c610c6e565b610fa081610f9a8454610e1d565b84610f27565b6020601f821160018114610fd2575f8315610fbb5750848201515b5f19600385901b1c1916600184901b178455610f6b565b5f84815260208120601f198516915b828110156110015787850151825560209485019460019092019101610fe1565b508482101561101e57868401515f19600387901b60f8161c191681555b50505050600190811b0190555056fea26469706673582212209001641eeab983044d628ea03ade2113e6ee222de78e0c53f0d2df36ca8117d464736f6c634300081a0033","linkReferences":{}},"methodIdentifiers":{"OZ()":"41c8bcc3","allowance(address,address)":"dd62ed3e","approve(address,uint256)":"095ea7b3","balanceOf(address)":"70a08231","burn(address,uint256)":"9dc29fac","decimals()":"313ce567","decreaseAllowance(address,uint256)":"a457c2d7","increaseAllowance(address,uint256)":"39509351","initialize(string,string)":"4cd88b76","mint(address,uint256)":"40c10f19","name()":"06fdde03","redeem(uint256,uint256,address,address,uint8)":"7d6339ba","symbol()":"95d89b41","totalSupply()":"18160ddd","transfer(address,uint256)":"a9059cbb","transferFrom(address,address,uint256)":"23b872dd"},"id":31}