{"abi":[{"type":"constructor","inputs":[],"stateMutability":"nonpayable"},{"type":"function","name":"allowance","inputs":[{"name":"owner","type":"address","internalType":"address"},{"name":"spender","type":"address","internalType":"address"}],"outputs":[{"name":"","type":"uint256","internalType":"uint256"}],"stateMutability":"view"},{"type":"function","name":"approve","inputs":[{"name":"spender","type":"address","internalType":"address"},{"name":"value","type":"uint256","internalType":"uint256"}],"outputs":[{"name":"","type":"bool","internalType":"bool"}],"stateMutability":"nonpayable"},{"type":"function","name":"balanceOf","inputs":[{"name":"account","type":"address","internalType":"address"}],"outputs":[{"name":"","type":"uint256","internalType":"uint256"}],"stateMutability":"view"},{"type":"function","name":"decimals","inputs":[],"outputs":[{"name":"","type":"uint8","internalType":"uint8"}],"stateMutability":"view"},{"type":"function","name":"initialize","inputs":[{"name":"name_","type":"string","internalType":"string"},{"name":"symbol_","type":"string","internalType":"string"}],"outputs":[],"stateMutability":"nonpayable"},{"type":"function","name":"mint","inputs":[{"name":"account_","type":"address","internalType":"address"},{"name":"amount_","type":"uint256","internalType":"uint256"}],"outputs":[],"stateMutability":"nonpayable"},{"type":"function","name":"name","inputs":[],"outputs":[{"name":"","type":"string","internalType":"string"}],"stateMutability":"view"},{"type":"function","name":"symbol","inputs":[],"outputs":[{"name":"","type":"string","internalType":"string"}],"stateMutability":"view"},{"type":"function","name":"totalSupply","inputs":[],"outputs":[{"name":"","type":"uint256","internalType":"uint256"}],"stateMutability":"view"},{"type":"function","name":"transfer","inputs":[{"name":"to","type":"address","internalType":"address"},{"name":"value","type":"uint256","internalType":"uint256"}],"outputs":[{"name":"","type":"bool","internalType":"bool"}],"stateMutability":"nonpayable"},{"type":"function","name":"transferFrom","inputs":[{"name":"from","type":"address","internalType":"address"},{"name":"to","type":"address","internalType":"address"},{"name":"value","type":"uint256","internalType":"uint256"}],"outputs":[{"name":"","type":"bool","internalType":"bool"}],"stateMutability":"nonpayable"},{"type":"event","name":"Approval","inputs":[{"name":"owner","type":"address","indexed":true,"internalType":"address"},{"name":"spender","type":"address","indexed":true,"internalType":"address"},{"name":"value","type":"uint256","indexed":false,"internalType":"uint256"}],"anonymous":false},{"type":"event","name":"Initialized","inputs":[{"name":"version","type":"uint64","indexed":false,"internalType":"uint64"}],"anonymous":false},{"type":"event","name":"Transfer","inputs":[{"name":"from","type":"address","indexed":true,"internalType":"address"},{"name":"to","type":"address","indexed":true,"internalType":"address"},{"name":"value","type":"uint256","indexed":false,"internalType":"uint256"}],"anonymous":false},{"type":"error","name":"ERC20InsufficientAllowance","inputs":[{"name":"spender","type":"address","internalType":"address"},{"name":"allowance","type":"uint256","internalType":"uint256"},{"name":"needed","type":"uint256","internalType":"uint256"}]},{"type":"error","name":"ERC20InsufficientBalance","inputs":[{"name":"sender","type":"address","internalType":"address"},{"name":"balance","type":"uint256","internalType":"uint256"},{"name":"needed","type":"uint256","internalType":"uint256"}]},{"type":"error","name":"ERC20InvalidApprover","inputs":[{"name":"approver","type":"address","internalType":"address"}]},{"type":"error","name":"ERC20InvalidReceiver","inputs":[{"name":"receiver","type":"address","internalType":"address"}]},{"type":"error","name":"ERC20InvalidSender","inputs":[{"name":"sender","type":"address","internalType":"address"}]},{"type":"error","name":"ERC20InvalidSpender","inputs":[{"name":"spender","type":"address","internalType":"address"}]},{"type":"error","name":"InvalidInitialization","inputs":[]},{"type":"error","name":"NotInitializing","inputs":[]}],"bytecode":{"object":"0x6080604052348015600e575f80fd5b5060156019565b60c9565b7ff0c57e16840df040f15088dc2f81fe391c3923bec73e23a9662efc9c229c6a00805468010000000000000000900460ff161560685760405163f92ee8a960e01b815260040160405180910390fd5b80546001600160401b039081161460c65780546001600160401b0319166001600160401b0390811782556040519081527fc7f505b2f371ae2175ee4913f4499e1f2633a7b5936321eed1cdaeb6115181d29060200160405180910390a15b50565b610c14806100d65f395ff3fe608060405234801561000f575f80fd5b50600436106100a6575f3560e01c806340c10f191161006e57806340c10f191461013e5780634cd88b761461015357806370a082311461016657806395d89b411461019a578063a9059cbb146101a2578063dd62ed3e146101b5575f80fd5b806306fdde03146100aa578063095ea7b3146100c857806318160ddd146100eb57806323b872dd1461011c578063313ce5671461012f575b5f80fd5b6100b26101c8565b6040516100bf919061084b565b60405180910390f35b6100db6100d63660046108b1565b610288565b60405190151581526020016100bf565b7f52c63247e1f47db19d5ce0460030c497f067ca4cebf71ba98eeadabe20bace02545b6040519081526020016100bf565b6100db61012a3660046108d9565b6102a1565b604051601281526020016100bf565b61015161014c3660046108b1565b6102c4565b005b6101516101613660046109b2565b6102d2565b61010e610174366004610a17565b6001600160a01b03165f9081525f80516020610bbf833981519152602052604090205490565b6100b26103e2565b6100db6101b03660046108b1565b610420565b61010e6101c3366004610a37565b61042d565b7f52c63247e1f47db19d5ce0460030c497f067ca4cebf71ba98eeadabe20bace0380546060915f80516020610bbf8339815191529161020690610a68565b80601f016020809104026020016040519081016040528092919081815260200182805461023290610a68565b801561027d5780601f106102545761010080835404028352916020019161027d565b820191905f5260205f20905b81548152906001019060200180831161026057829003601f168201915b505050505091505090565b5f33610295818585610476565b60019150505b92915050565b5f336102ae858285610488565b6102b98585856104f0565b506001949350505050565b6102ce828261054d565b5050565b7ff0c57e16840df040f15088dc2f81fe391c3923bec73e23a9662efc9c229c6a008054600160401b810460ff16159067ffffffffffffffff165f811580156103175750825b90505f8267ffffffffffffffff1660011480156103335750303b155b905081158015610341575080155b1561035f5760405163f92ee8a960e01b815260040160405180910390fd5b845467ffffffffffffffff19166001178555831561038957845460ff60401b1916600160401b1785555b6103938787610581565b83156103d957845460ff60401b19168555604051600181527fc7f505b2f371ae2175ee4913f4499e1f2633a7b5936321eed1cdaeb6115181d29060200160405180910390a15b50505050505050565b7f52c63247e1f47db19d5ce0460030c497f067ca4cebf71ba98eeadabe20bace0480546060915f80516020610bbf8339815191529161020690610a68565b5f336102958185856104f0565b6001600160a01b039182165f9081527f52c63247e1f47db19d5ce0460030c497f067ca4cebf71ba98eeadabe20bace016020908152604080832093909416825291909152205490565b6104838383836001610593565b505050565b5f610493848461042d565b90505f1981146104ea57818110156104dc57604051637dc7a0d960e11b81526001600160a01b038416600482015260248101829052604481018390526064015b60405180910390fd5b6104ea84848484035f610593565b50505050565b6001600160a01b03831661051957604051634b637e8f60e11b81525f60048201526024016104d3565b6001600160a01b0382166105425760405163ec442f0560e01b81525f60048201526024016104d3565b610483838383610677565b6001600160a01b0382166105765760405163ec442f0560e01b81525f60048201526024016104d3565b6102ce5f8383610677565b6105896107b0565b6102ce82826107fb565b5f80516020610bbf8339815191526001600160a01b0385166105ca5760405163e602df0560e01b81525f60048201526024016104d3565b6001600160a01b0384166105f357604051634a1406b160e11b81525f60048201526024016104d3565b6001600160a01b038086165f9081526001830160209081526040808320938816835292905220839055811561067057836001600160a01b0316856001600160a01b03167f8c5be1e5ebec7d5bd14f71427d1e84f3dd0314c0f7b2291e5b200ac8c7c3b9258560405161066791815260200190565b60405180910390a35b5050505050565b5f80516020610bbf8339815191526001600160a01b0384166106b15781816002015f8282546106a69190610aa0565b909155506107219050565b6001600160a01b0384165f90815260208290526040902054828110156107035760405163391434e360e21b81526001600160a01b038616600482015260248101829052604481018490526064016104d3565b6001600160a01b0385165f9081526020839052604090209083900390555b6001600160a01b03831661073f57600281018054839003905561075d565b6001600160a01b0383165f9081526020829052604090208054830190555b826001600160a01b0316846001600160a01b03167fddf252ad1be2c89b69c2b068fc378daa952ba7f163c4a11628f55a4df523b3ef846040516107a291815260200190565b60405180910390a350505050565b7ff0c57e16840df040f15088dc2f81fe391c3923bec73e23a9662efc9c229c6a0054600160401b900460ff166107f957604051631afcd79f60e31b815260040160405180910390fd5b565b6108036107b0565b5f80516020610bbf8339815191527f52c63247e1f47db19d5ce0460030c497f067ca4cebf71ba98eeadabe20bace0361083c8482610b03565b50600481016104ea8382610b03565b602081525f82518060208401525f5b81811015610877576020818601810151604086840101520161085a565b505f604082850101526040601f19601f83011684010191505092915050565b80356001600160a01b03811681146108ac575f80fd5b919050565b5f80604083850312156108c2575f80fd5b6108cb83610896565b946020939093013593505050565b5f805f606084860312156108eb575f80fd5b6108f484610896565b925061090260208501610896565b929592945050506040919091013590565b634e487b7160e01b5f52604160045260245ffd5b5f82601f830112610936575f80fd5b813567ffffffffffffffff81111561095057610950610913565b604051601f8201601f19908116603f0116810167ffffffffffffffff8111828210171561097f5761097f610913565b604052818152838201602001851015610996575f80fd5b816020850160208301375f918101602001919091529392505050565b5f80604083850312156109c3575f80fd5b823567ffffffffffffffff8111156109d9575f80fd5b6109e585828601610927565b925050602083013567ffffffffffffffff811115610a01575f80fd5b610a0d85828601610927565b9150509250929050565b5f60208284031215610a27575f80fd5b610a3082610896565b9392505050565b5f8060408385031215610a48575f80fd5b610a5183610896565b9150610a5f60208401610896565b90509250929050565b600181811c90821680610a7c57607f821691505b602082108103610a9a57634e487b7160e01b5f52602260045260245ffd5b50919050565b8082018082111561029b57634e487b7160e01b5f52601160045260245ffd5b601f82111561048357805f5260205f20601f840160051c81016020851015610ae45750805b601f840160051c820191505b81811015610670575f8155600101610af0565b815167ffffffffffffffff811115610b1d57610b1d610913565b610b3181610b2b8454610a68565b84610abf565b6020601f821160018114610b63575f8315610b4c5750848201515b5f19600385901b1c1916600184901b178455610670565b5f84815260208120601f198516915b82811015610b925787850151825560209485019460019092019101610b72565b5084821015610baf57868401515f19600387901b60f8161c191681555b50505050600190811b0190555056fe52c63247e1f47db19d5ce0460030c497f067ca4cebf71ba98eeadabe20bace00a2646970667358221220ebba5d9b821f3cd5ebcbbb9dd2787d9f0e78e96236c536078840733cf1cfb72364736f6c634300081a0033","linkReferences":{}},"methodIdentifiers":{"allowance(address,address)":"dd62ed3e","approve(address,uint256)":"095ea7b3","balanceOf(address)":"70a08231","decimals()":"313ce567","initialize(string,string)":"4cd88b76","mint(address,uint256)":"40c10f19","name()":"06fdde03","symbol()":"95d89b41","totalSupply()":"18160ddd","transfer(address,uint256)":"a9059cbb","transferFrom(address,address,uint256)":"23b872dd"},"id":14}