{"abi":[{"type":"function","name":"init","inputs":[{"name":"aave_","type":"tuple","internalType":"struct AaveConfig","components":[{"name":"aaveGW","type":"address","internalType":"address"},{"name":"aavePoolProvider","type":"address","internalType":"address"}]},{"name":"balancer_","type":"tuple","internalType":"struct BalancerConfig","components":[{"name":"balancerPool_wstETHsUSDe","type":"address","internalType":"address"},{"name":"balancerVault","type":"address","internalType":"address"},{"name":"balancerPool_wstETHWETH","type":"address","internalType":"address"}]},{"name":"pendle_","type":"tuple","internalType":"struct PendleConfig","components":[{"name":"pendleRouter","type":"address","internalType":"address"},{"name":"sUSDeMarket","type":"address","internalType":"address"},{"name":"twapDuration","type":"uint32","internalType":"uint32"},{"name":"ptDiscount","type":"uint16","internalType":"uint16"}]},{"name":"curve_","type":"tuple","internalType":"struct CurveConfig","components":[{"name":"curveRouter","type":"address","internalType":"address"},{"name":"curveAddressProvider","type":"address","internalType":"address"},{"name":"curvePool_sUSDesDAI","type":"address","internalType":"address"},{"name":"curvePool_sDAIFRAX","type":"address","internalType":"address"},{"name":"curvePool_FRAXUSDC","type":"address","internalType":"address"},{"name":"curvePool_USDCETHWBTC","type":"address","internalType":"address"},{"name":"curvePool_FRAXUSDe","type":"address","internalType":"address"}]},{"name":"tokens_","type":"tuple","internalType":"struct ERC20s","components":[{"name":"aWETH","type":"address","internalType":"address"},{"name":"USDC","type":"address","internalType":"address"},{"name":"sUSDe","type":"address","internalType":"address"},{"name":"USDT","type":"address","internalType":"address"},{"name":"ozUSDtoken","type":"address","internalType":"address"},{"name":"pendlePT","type":"address","internalType":"address"},{"name":"aaveVariableDebtUSDC","type":"address","internalType":"address"},{"name":"USDe","type":"address","internalType":"address"},{"name":"wstETH","type":"address","internalType":"address"},{"name":"WETH","type":"address","internalType":"address"},{"name":"sDAI","type":"address","internalType":"address"},{"name":"FRAX","type":"address","internalType":"address"},{"name":"WBTC","type":"address","internalType":"address"}]},{"name":"sys_","type":"tuple","internalType":"struct SysConfig","components":[{"name":"OZ","type":"address","internalType":"address"},{"name":"relayer","type":"address","internalType":"address"}]}],"outputs":[],"stateMutability":"nonpayable"}],"bytecode":{"object":"0x6080604052348015600e575f80fd5b506109628061001c5f395ff3fe608060405234801561000f575f80fd5b5060043610610029575f3560e01c8063c84b0d931461002d575b5f80fd5b61004061003b3660046107e8565b610042565b005b7fc8fcad8db84d3cc18b4c41d551ea0ee66dd599cde068d998e57d5e09332c131f60209081527f699d9daa71b280d05a152715774afa0a81a312594b2d731d6b0b2552b7d6f69f805460ff1990811660019081179092557ff97e938d8af42f52387bb74b8b526fda8f184cc2aa534340a8d75a88fbecc77580548216831790557f65d510a5d8f7ef134ec444f7f34ee808c8eeb5177cdfd16be0c40fe1ab43369580548216831790556307f5828d60e41b5f9081527f5622121b47b8cd0120c4efe45dd5483242f54a3d49bd7679be565d47694918c380549092168317909155885181546001600160a01b039182166001600160a01b03199182161790925589840151835491169116811790915560026003556040805163026b1d5f60e01b815290517fc8fcad8db84d3cc18b4c41d551ea0ee66dd599cde068d998e57d5e09332c131c9363026b1d5f92600480820193918290030181865afa1580156101ab573d5f803e3d5ffd5b505050506040513d601f19601f820116820180604052508101906101cf919061090a565b600280546001600160a01b03199081166001600160a01b039384161790915587516015805483169184169190911790556020808901516016805484169185169190911790556040808a0151601780548516918616919091179055885160048054851691861691909117815589830151600580548616918716919091179055815160a0810183525f8082525f198286018190528285018290526101006060808501829052655af3107a40006080909501859052600e849055600f929092556010929092556011919091556012919091558a015161ffff16601455898201516013805463ffffffff191663ffffffff909216919091179055885160188054861691871691909117905591880151601980549094169416938417909255905163124fd3dd60e21b815260079181019190915263493f4f7490602401602060405180830381865afa158015610322573d5f803e3d5ffd5b505050506040513d601f19601f82011682018060405250810190610346919061090a565b601a80546001600160a01b03199081166001600160a01b0393841617909155604086810151601b80548416918516919091179055606080880151601c80548516918616919091179055608080890151601d8054861691871691909117905560a0808a0151601e8054871691881691909117905560c0998a0151601f805487169188169190911790558851602080548716918816919091178155808a015160218054881691891691909117905592890151602280548716918816919091179055908801516023805486169187169190911790558701516024805485169186169190911790559686015160258054841691851691909117905560e0860151602680548416918516919091179055610100860151602780548416918516919091179055610120860151602880548416918516919091179055610140860151602980548416918516919091179055610160860151602a80548416918516919091179055610180860151602b805484169185169190911790559490940151602c805486169183169190911790558251602d80548616918316919091179055919093015160308054909316911617905550505050565b60405160e0810167ffffffffffffffff8111828210171561052557634e487b7160e01b5f52604160045260245ffd5b60405290565b6040516101a0810167ffffffffffffffff8111828210171561052557634e487b7160e01b5f52604160045260245ffd5b6040516060810167ffffffffffffffff8111828210171561052557634e487b7160e01b5f52604160045260245ffd5b6040516080810167ffffffffffffffff8111828210171561052557634e487b7160e01b5f52604160045260245ffd5b6001600160a01b03811681146105cd575f80fd5b50565b80356105db816105b9565b919050565b5f604082840312156105f0575f80fd5b6040805190810167ffffffffffffffff8111828210171561061f57634e487b7160e01b5f52604160045260245ffd5b6040529050808235610630816105b9565b81526020830135610640816105b9565b6020919091015292915050565b5f60e0828403121561065d575f80fd5b6106656104f6565b90508135610672816105b9565b81526020820135610682816105b9565b60208201526040820135610695816105b9565b604082015260608201356106a8816105b9565b60608201526106b9608083016105d0565b60808201526106ca60a083016105d0565b60a08201526106db60c083016105d0565b60c082015292915050565b5f6101a082840312156106f7575f80fd5b6106ff61052b565b905061070a826105d0565b8152610718602083016105d0565b6020820152610729604083016105d0565b604082015261073a606083016105d0565b606082015261074b608083016105d0565b608082015261075c60a083016105d0565b60a082015261076d60c083016105d0565b60c082015261077e60e083016105d0565b60e082015261079061010083016105d0565b6101008201526107a361012083016105d0565b6101208201526107b661014083016105d0565b6101408201526107c961016083016105d0565b6101608201526107dc61018083016105d0565b61018082015292915050565b5f805f805f808688036103e08112156107ff575f80fd5b61080989896105e0565b96506060603f198201121561081c575f80fd5b61082461055b565b6040890135610832816105b9565b81526060890135610842816105b9565b60208201526080890135610855816105b9565b604082015295506080609f198201121561086d575f80fd5b5061087661058a565b60a0880135610884816105b9565b815260c0880135610894816105b9565b602082015260e088013563ffffffff811681146108af575f80fd5b604082015261010088013561ffff811681146108c9575f80fd5b606082015293506108de88610120890161064d565b92506108ee8861020089016106e6565b91506108fe886103a089016105e0565b90509295509295509295565b5f6020828403121561091a575f80fd5b8151610925816105b9565b939250505056fea26469706673582212207d85558a529c1e98a614fe249a87d67498a1cf2ba4c236ec649e385792e1c01f64736f6c634300081a0033","linkReferences":{}},"methodIdentifiers":{"init((address,address),(address,address,address),(address,address,uint32,uint16),(address,address,address,address,address,address,address),(address,address,address,address,address,address,address,address,address,address,address,address,address),(address,address))":"c84b0d93"},"id":26}