{"abi":[{"type":"function","name":"init","inputs":[{"name":"aave_","type":"tuple","internalType":"struct AaveConfig","components":[{"name":"aaveGW","type":"address","internalType":"address"},{"name":"aavePoolProvider","type":"address","internalType":"address"}]},{"name":"tokens_","type":"tuple","internalType":"struct ERC20s","components":[{"name":"aWETH","type":"address","internalType":"address"},{"name":"USDC","type":"address","internalType":"address"},{"name":"sUSDe","type":"address","internalType":"address"},{"name":"USDT","type":"address","internalType":"address"},{"name":"ozUSDtoken","type":"address","internalType":"address"},{"name":"pendlePT","type":"address","internalType":"address"},{"name":"aaveVariableDebtUSDC","type":"address","internalType":"address"},{"name":"USDe","type":"address","internalType":"address"}]},{"name":"pendle_","type":"tuple","internalType":"struct PendleConfig","components":[{"name":"pendleRouter","type":"address","internalType":"address"},{"name":"sUSDeMarket","type":"address","internalType":"address"},{"name":"twapDuration","type":"uint32","internalType":"uint32"},{"name":"ptDiscount","type":"uint16","internalType":"uint16"}]},{"name":"sys_","type":"tuple","internalType":"struct SysConfig","components":[{"name":"OZ","type":"address","internalType":"address"},{"name":"relayer","type":"address","internalType":"address"}]}],"outputs":[],"stateMutability":"nonpayable"}],"bytecode":{"object":"0x6080604052348015600e575f80fd5b506105fe8061001c5f395ff3fe608060405234801561000f575f80fd5b5060043610610029575f3560e01c80635a7e2a041461002d575b5f80fd5b61004061003b3660046104b6565b610042565b005b7fc8fcad8db84d3cc18b4c41d551ea0ee66dd599cde068d998e57d5e09332c131f60209081527f699d9daa71b280d05a152715774afa0a81a312594b2d731d6b0b2552b7d6f69f805460ff1990811660019081179092557ff97e938d8af42f52387bb74b8b526fda8f184cc2aa534340a8d75a88fbecc77580548216831790557f65d510a5d8f7ef134ec444f7f34ee808c8eeb5177cdfd16be0c40fe1ab43369580548216831790556307f5828d60e41b5f9081527f5622121b47b8cd0120c4efe45dd5483242f54a3d49bd7679be565d47694918c380549092168317909155865181546001600160a01b039182166001600160a01b03199182161790925587840151835491169116811790915560026003556040805163026b1d5f60e01b815290517fc8fcad8db84d3cc18b4c41d551ea0ee66dd599cde068d998e57d5e09332c131c9363026b1d5f92600480820193918290030181865afa1580156101ab573d5f803e3d5ffd5b505050506040513d601f19601f820116820180604052508101906101cf91906105a6565b600280546001600160a01b03199081166001600160a01b039384161790915584516004805483169184169190911790556020808601516005805484169185169190911790556040805160a080820183525f8083525f198386018190528385018290526101006060808601829052655af3107a40006080968701819052600e859055600f93909355601093909355601155601255808a015161ffff16601455988301516013805463ffffffff191663ffffffff90921691909117905589516015805487169188169190911790558984015160168054871691881691909117905591890151601780548616918716919091179055968801516018805485169186169190911790559587015160198054841691851691909117905594860151601a8054831691841691909117905560c0860151601b8054831691841691909117905560e090950151601c805487169183169190911790558251601d80548716918316919091179055918301518354909416939091169290921790555050565b604051610100810167ffffffffffffffff8111828210171561037b57634e487b7160e01b5f52604160045260245ffd5b60405290565b6001600160a01b0381168114610395575f80fd5b50565b80356103a381610381565b919050565b5f604082840312156103b8575f80fd5b6040805190810167ffffffffffffffff811182821017156103e757634e487b7160e01b5f52604160045260245ffd5b60405290508082356103f881610381565b8152602083013561040881610381565b6020919091015292915050565b5f60808284031215610425575f80fd5b6040516080810167ffffffffffffffff8111828210171561045457634e487b7160e01b5f52604160045260245ffd5b604052905080823561046581610381565b8152602083013561047581610381565b6020820152604083013563ffffffff81168114610490575f80fd5b6040820152606083013561ffff811681146104a9575f80fd5b6060919091015292915050565b5f805f808486036102008112156104cb575f80fd5b6104d587876103a8565b9450610100603f19820112156104e9575f80fd5b506104f261034b565b604086013561050081610381565b815261050e60608701610398565b602082015261051f60808701610398565b604082015261053060a08701610398565b606082015261054160c08701610398565b608082015261055260e08701610398565b60a08201526105646101008701610398565b60c08201526105766101208701610398565b60e0820152925061058b866101408701610415565b915061059b866101c087016103a8565b905092959194509250565b5f602082840312156105b6575f80fd5b81516105c181610381565b939250505056fea26469706673582212208ed46264f0345a5f4fa737c0d3993f58c29dc4dea41e6ad2e703d857f06987a064736f6c634300081a0033","linkReferences":{}},"methodIdentifiers":{"init((address,address),(address,address,address,address,address,address,address,address),(address,address,uint32,uint16),(address,address))":"5a7e2a04"},"id":20}