{"abi":[{"type":"function","name":"init","inputs":[{"name":"aave_","type":"tuple","internalType":"struct AaveConfig","components":[{"name":"aaveGW","type":"address","internalType":"address"},{"name":"aavePoolProvider","type":"address","internalType":"address"}]},{"name":"tokens_","type":"tuple","internalType":"struct ERC20s","components":[{"name":"aWETH","type":"address","internalType":"address"},{"name":"USDC","type":"address","internalType":"address"},{"name":"sUSDe","type":"address","internalType":"address"},{"name":"USDT","type":"address","internalType":"address"},{"name":"ozUSD","type":"address","internalType":"address"},{"name":"pendlePT","type":"address","internalType":"address"}]},{"name":"pendle_","type":"tuple","internalType":"struct PendleConfig","components":[{"name":"pendleRouter","type":"address","internalType":"address"},{"name":"sUSDeMarket","type":"address","internalType":"address"},{"name":"twapDuration","type":"uint32","internalType":"uint32"},{"name":"ptDiscount","type":"uint16","internalType":"uint16"}]}],"outputs":[],"stateMutability":"nonpayable"}],"bytecode":{"object":"0x6080604052348015600e575f80fd5b506104818061001c5f395ff3fe608060405234801561000f575f80fd5b5060043610610029575f3560e01c806379f7d4d41461002d575b5f80fd5b61025061003b36600461036e565b7fc8fcad8db84d3cc18b4c41d551ea0ee66dd599cde068d998e57d5e09332c131f60209081527f699d9daa71b280d05a152715774afa0a81a312594b2d731d6b0b2552b7d6f69f8054600160ff1991821681179092557ff97e938d8af42f52387bb74b8b526fda8f184cc2aa534340a8d75a88fbecc77580548216831790557f65d510a5d8f7ef134ec444f7f34ee808c8eeb5177cdfd16be0c40fe1ab43369580548216831790556307f5828d60e41b5f9081527f5622121b47b8cd0120c4efe45dd5483242f54a3d49bd7679be565d47694918c380549092168317909155855181546001600160a01b03199081166001600160a01b03928316178355968401518354881690821617909255600280558351600380548816918416919091179055838301516004805488169184169190911790556040805160a080820183528382525f198287018190528284018590526101006060808501829052655af3107a40006080958601819052600d889055600e93909355600f969096556010556011558387015161ffff16601355958201516012805463ffffffff191663ffffffff9092169190911790558651601480548a169186169190911790559386015160158054891691851691909117905585015160168054881691841691909117905584015160178054871691831691909117905590830151601880548616918316919091179055910151601980549093169116179055565b005b6040805190810167ffffffffffffffff8111828210171561028157634e487b7160e01b5f52604160045260245ffd5b60405290565b60405160c0810167ffffffffffffffff8111828210171561028157634e487b7160e01b5f52604160045260245ffd5b80356001600160a01b03811681146102cc575f80fd5b919050565b5f608082840312156102e1575f80fd5b6040516080810167ffffffffffffffff8111828210171561031057634e487b7160e01b5f52604160045260245ffd5b60405290508061031f836102b6565b815261032d602084016102b6565b6020820152604083013563ffffffff81168114610348575f80fd5b6040820152606083013561ffff81168114610361575f80fd5b6060919091015292915050565b5f805f838503610180811215610382575f80fd5b604081121561038f575f80fd5b610397610252565b6103a0866102b6565b81526103ae602087016102b6565b6020820152935060c0603f19820112156103c6575f80fd5b506103cf610287565b6103db604086016102b6565b81526103e9606086016102b6565b60208201526103fa608086016102b6565b604082015261040b60a086016102b6565b606082015261041c60c086016102b6565b608082015261042d60e086016102b6565b60a082015291506104428561010086016102d1565b9050925092509256fea264697066735822122014c6382a03de1241f992ea14c0f86b5c9a9ab8cebc1cc33ebb6c308bec70dd6064736f6c634300081a0033","linkReferences":{}},"methodIdentifiers":{"init((address,address),(address,address,address,address,address,address),(address,address,uint32,uint16))":"79f7d4d4"},"id":17}