{"abi":[{"type":"function","name":"init","inputs":[{"name":"aave_","type":"tuple","internalType":"struct AaveConfig","components":[{"name":"aaveGW","type":"address","internalType":"address"},{"name":"aavePoolProvider","type":"address","internalType":"address"}]},{"name":"tokens_","type":"tuple","internalType":"struct ERC20s","components":[{"name":"aWETH","type":"address","internalType":"address"}]}],"outputs":[],"stateMutability":"nonpayable"}],"bytecode":{"object":"0x6080604052348015600e575f80fd5b506102878061001c5f395ff3fe608060405234801561000f575f80fd5b5060043610610029575f3560e01c8063f5677a591461002d575b5f80fd5b61015b61003b3660046101ad565b7fc8fcad8db84d3cc18b4c41d551ea0ee66dd599cde068d998e57d5e09332c131f60209081527f699d9daa71b280d05a152715774afa0a81a312594b2d731d6b0b2552b7d6f69f805460ff1990811660019081179092557ff97e938d8af42f52387bb74b8b526fda8f184cc2aa534340a8d75a88fbecc77580548216831790557f65d510a5d8f7ef134ec444f7f34ee808c8eeb5177cdfd16be0c40fe1ab43369580548216831790556307f5828d60e41b5f9081527f5622121b47b8cd0120c4efe45dd5483242f54a3d49bd7679be565d47694918c380549092168317909155845181546001600160a01b039182166001600160a01b03199182161790925594909201518154908516908316179055905160028054919093169116179055565b005b6040516020810167ffffffffffffffff8111828210171561018c57634e487b7160e01b5f52604160045260245ffd5b60405290565b80356001600160a01b03811681146101a8575f80fd5b919050565b5f8082840360608112156101bf575f80fd5b60408112156101cc575f80fd5b6040805190810167ffffffffffffffff811182821017156101fb57634e487b7160e01b5f52604160045260245ffd5b60405261020785610192565b815261021560208601610192565b6020820152809350506020603f198201121561022f575f80fd5b5061023861015d565b61024460408501610192565b815280915050925092905056fea264697066735822122029736a84fa3a62e7db9d1b3cd2a5191493501126ecd6b8928b68768db1bb07b164736f6c634300081a0033","linkReferences":{}},"methodIdentifiers":{"init((address,address),(address))":"f5677a59"},"id":14}