{"abi":[{"type":"function","name":"init","inputs":[{"name":"aave_","type":"tuple","internalType":"struct AaveConfig","components":[{"name":"aaveGW","type":"address","internalType":"address"},{"name":"aavePoolProvider","type":"address","internalType":"address"}]},{"name":"tokens_","type":"tuple","internalType":"struct ERC20s","components":[{"name":"aWETH","type":"address","internalType":"address"},{"name":"USDC","type":"address","internalType":"address"},{"name":"sUSDe","type":"address","internalType":"address"},{"name":"USDT","type":"address","internalType":"address"},{"name":"ozUSD","type":"address","internalType":"address"},{"name":"pendlePT","type":"address","internalType":"address"}]},{"name":"pendle_","type":"tuple","internalType":"struct PendleConfig","components":[{"name":"pendleRouter","type":"address","internalType":"address"},{"name":"sUSDeMarket","type":"address","internalType":"address"},{"name":"twapDuration","type":"uint32","internalType":"uint32"},{"name":"ptDiscount","type":"uint16","internalType":"uint16"}]},{"name":"sys_","type":"tuple","internalType":"struct SysConfig","components":[{"name":"OZ","type":"address","internalType":"address"}]}],"outputs":[],"stateMutability":"nonpayable"}],"bytecode":{"object":"0x6080604052348015600e575f80fd5b506105d88061001c5f395ff3fe608060405234801561000f575f80fd5b5060043610610029575f3560e01c80633f3dd0731461002d575b5f80fd5b61004061003b366004610480565b610042565b005b7fc8fcad8db84d3cc18b4c41d551ea0ee66dd599cde068d998e57d5e09332c131f60209081527f699d9daa71b280d05a152715774afa0a81a312594b2d731d6b0b2552b7d6f69f805460ff1990811660019081179092557ff97e938d8af42f52387bb74b8b526fda8f184cc2aa534340a8d75a88fbecc77580548216831790557f65d510a5d8f7ef134ec444f7f34ee808c8eeb5177cdfd16be0c40fe1ab43369580548216831790556307f5828d60e41b5f9081527f5622121b47b8cd0120c4efe45dd5483242f54a3d49bd7679be565d47694918c380549092168317909155865181546001600160a01b039182166001600160a01b03199182161790925587840151835491169116811790915560026003556040805163026b1d5f60e01b815290517fc8fcad8db84d3cc18b4c41d551ea0ee66dd599cde068d998e57d5e09332c131c9363026b1d5f92600480820193918290030181865afa1580156101ab573d5f803e3d5ffd5b505050506040513d601f19601f820116820180604052508101906101cf9190610580565b600280546001600160a01b03199081166001600160a01b039384161790915584516004805483169184169190911790556020808601516005805484169185169190911790556040805160a080820183525f8083525f198386018190528385018290526101006060808601829052655af3107a40006080968701819052600e859055600f93909355601093909355601155601255808a015161ffff16601455988301516013805463ffffffff191663ffffffff9092169190911790558951601580548716918816919091179055928901516016805486169187169190911790559088015160178054851691861691909117905595870151601880548416918516919091179055948601516019805483169184169190911790559490930151601a805486169185169190911790555051601b8054909316911617905550565b6040805190810167ffffffffffffffff8111828210171561033b57634e487b7160e01b5f52604160045260245ffd5b60405290565b60405160c0810167ffffffffffffffff8111828210171561033b57634e487b7160e01b5f52604160045260245ffd5b6001600160a01b0381168114610384575f80fd5b50565b5f60808284031215610397575f80fd5b6040516080810167ffffffffffffffff811182821017156103c657634e487b7160e01b5f52604160045260245ffd5b60405290508082356103d781610370565b815260208301356103e781610370565b6020820152604083013563ffffffff81168114610402575f80fd5b6040820152606083013561ffff8116811461041b575f80fd5b6060919091015292915050565b5f60208284031215610438575f80fd5b6040516020810167ffffffffffffffff8111828210171561046757634e487b7160e01b5f52604160045260245ffd5b604052905080823561047881610370565b905292915050565b5f805f808486036101a0811215610495575f80fd5b60408112156104a2575f80fd5b6104aa61030c565b86356104b581610370565b815260208701356104c581610370565b6020820152945060c0603f19820112156104dd575f80fd5b506104e6610341565b60408601356104f481610370565b8152606086013561050481610370565b6020820152608086013561051781610370565b604082015260a086013561052a81610370565b606082015260c086013561053d81610370565b608082015260e086013561055081610370565b60a08201529250610565866101008701610387565b9150610575866101808701610428565b905092959194509250565b5f60208284031215610590575f80fd5b815161059b81610370565b939250505056fea2646970667358221220bf9eefecfbca0852946da2e30509c8ecb1b5b5aa8fd261f0c8ad08a5ae422af164736f6c634300081a0033","linkReferences":{}},"methodIdentifiers":{"init((address,address),(address,address,address,address,address,address),(address,address,uint32,uint16),(address))":"3f3dd073"},"id":19}