{"abi":[{"type":"function","name":"init","inputs":[{"name":"aave_","type":"tuple","internalType":"struct AaveConfig","components":[{"name":"aaveGW","type":"address","internalType":"address"},{"name":"aavePoolProvider","type":"address","internalType":"address"}]},{"name":"balancer_","type":"tuple","internalType":"struct BalancerConfig","components":[{"name":"balancerPool_wstETHsUSDe","type":"address","internalType":"address"},{"name":"balancerVault","type":"address","internalType":"address"},{"name":"balancerPool_wstETHWETH","type":"address","internalType":"address"}]},{"name":"tokens_","type":"tuple","internalType":"struct ERC20s","components":[{"name":"aWETH","type":"address","internalType":"address"},{"name":"USDC","type":"address","internalType":"address"},{"name":"sUSDe","type":"address","internalType":"address"},{"name":"USDT","type":"address","internalType":"address"},{"name":"ozUSDtoken","type":"address","internalType":"address"},{"name":"pendlePT","type":"address","internalType":"address"},{"name":"aaveVariableDebtUSDC","type":"address","internalType":"address"},{"name":"USDe","type":"address","internalType":"address"},{"name":"wstETH","type":"address","internalType":"address"},{"name":"WETH","type":"address","internalType":"address"}]},{"name":"pendle_","type":"tuple","internalType":"struct PendleConfig","components":[{"name":"pendleRouter","type":"address","internalType":"address"},{"name":"sUSDeMarket","type":"address","internalType":"address"},{"name":"twapDuration","type":"uint32","internalType":"uint32"},{"name":"ptDiscount","type":"uint16","internalType":"uint16"}]},{"name":"sys_","type":"tuple","internalType":"struct SysConfig","components":[{"name":"OZ","type":"address","internalType":"address"},{"name":"relayer","type":"address","internalType":"address"}]}],"outputs":[],"stateMutability":"nonpayable"}],"bytecode":{"object":"0x6080604052348015600e575f80fd5b506107028061001c5f395ff3fe608060405234801561000f575f80fd5b5060043610610029575f3560e01c8063973db4361461002d575b5f80fd5b61004061003b366004610540565b610042565b005b7fc8fcad8db84d3cc18b4c41d551ea0ee66dd599cde068d998e57d5e09332c131f60209081527f699d9daa71b280d05a152715774afa0a81a312594b2d731d6b0b2552b7d6f69f805460ff1990811660019081179092557ff97e938d8af42f52387bb74b8b526fda8f184cc2aa534340a8d75a88fbecc77580548216831790557f65d510a5d8f7ef134ec444f7f34ee808c8eeb5177cdfd16be0c40fe1ab43369580548216831790556307f5828d60e41b5f9081527f5622121b47b8cd0120c4efe45dd5483242f54a3d49bd7679be565d47694918c380549092168317909155875181546001600160a01b039182166001600160a01b03199182161790925588840151835491169116811790915560026003556040805163026b1d5f60e01b815290517fc8fcad8db84d3cc18b4c41d551ea0ee66dd599cde068d998e57d5e09332c131c9363026b1d5f92600480820193918290030181865afa1580156101ab573d5f803e3d5ffd5b505050506040513d601f19601f820116820180604052508101906101cf91906106aa565b600280546001600160a01b03199081166001600160a01b03938416179091558651601580548316918416919091179055602080880151601680548416918516919091179055604097880151601780548416918516919091179055855160048054841691851691909117905585810151600580548416918516919091179055875160a08082018a525f8083525f19838501819052838c018290526101006060808601829052655af3107a40006080968701819052600e859055600f939093556010939093556011819055601291909155818a015161ffff16601455988b01516013805463ffffffff191663ffffffff909216919091179055895160188054871691881691909117905589840151601980548716918816919091179055890151601a8054861691871691909117905590880151601b80548516918616919091179055870151601c8054841691851691909117905560c0870151601d8054841691851691909117905560e0870151601e8054841691851691909117905594860151601f80548316918416919091179055610120860151855482169083161785559490950151602180548616918716919091179055508051602280548516918616919091179055015160258054909216921691909117905550565b6040516060810167ffffffffffffffff811182821017156103d557634e487b7160e01b5f52604160045260245ffd5b60405290565b604051610140810167ffffffffffffffff811182821017156103d557634e487b7160e01b5f52604160045260245ffd5b6001600160a01b038116811461041f575f80fd5b50565b803561042d8161040b565b919050565b5f60408284031215610442575f80fd5b6040805190810167ffffffffffffffff8111828210171561047157634e487b7160e01b5f52604160045260245ffd5b60405290508082356104828161040b565b815260208301356104928161040b565b6020919091015292915050565b5f608082840312156104af575f80fd5b6040516080810167ffffffffffffffff811182821017156104de57634e487b7160e01b5f52604160045260245ffd5b60405290508082356104ef8161040b565b815260208301356104ff8161040b565b6020820152604083013563ffffffff8116811461051a575f80fd5b6040820152606083013561ffff81168114610533575f80fd5b6060919091015292915050565b5f805f805f8587036102a0811215610556575f80fd5b6105608888610432565b95506060603f1982011215610573575f80fd5b61057b6103a6565b60408801356105898161040b565b815260608801356105998161040b565b602082015260808801356105ac8161040b565b60408201529450610140609f19820112156105c5575f80fd5b506105ce6103db565b6105da60a08801610422565b81526105e860c08801610422565b60208201526105f960e08801610422565b604082015261060b6101008801610422565b606082015261061d6101208801610422565b608082015261062f6101408801610422565b60a08201526106416101608801610422565b60c08201526106536101808801610422565b60e08201526106656101a08801610422565b6101008201526106786101c08801610422565b610120820152925061068e876101e0880161049f565b915061069e876102608801610432565b90509295509295909350565b5f602082840312156106ba575f80fd5b81516106c58161040b565b939250505056fea264697066735822122070c2cfd56ae25ca6425fe8ad908629c2b972ee38356de0e09f181edc9bbe88fb64736f6c634300081a0033","linkReferences":{}},"methodIdentifiers":{"init((address,address),(address,address,address),(address,address,address,address,address,address,address,address,address,address),(address,address,uint32,uint16),(address,address))":"973db436"},"id":21}