{"abi":[{"type":"function","name":"init","inputs":[{"name":"aave_","type":"tuple","internalType":"struct AaveConfig","components":[{"name":"aaveGW","type":"address","internalType":"address"},{"name":"aavePoolProvider","type":"address","internalType":"address"}]},{"name":"tokens_","type":"tuple","internalType":"struct ERC20s","components":[{"name":"aWETH","type":"address","internalType":"address"},{"name":"USDC","type":"address","internalType":"address"}]}],"outputs":[],"stateMutability":"nonpayable"}],"bytecode":{"object":"0x6080604052348015600e575f80fd5b5061025f8061001c5f395ff3fe608060405234801561000f575f80fd5b5060043610610029575f3560e01c806360f7d2291461002d575b5f80fd5b61017161003b3660046101f6565b7fc8fcad8db84d3cc18b4c41d551ea0ee66dd599cde068d998e57d5e09332c131f60209081527f699d9daa71b280d05a152715774afa0a81a312594b2d731d6b0b2552b7d6f69f8054600160ff1991821681179092557ff97e938d8af42f52387bb74b8b526fda8f184cc2aa534340a8d75a88fbecc77580548216831790557f65d510a5d8f7ef134ec444f7f34ee808c8eeb5177cdfd16be0c40fe1ab43369580548216831790556307f5828d60e41b5f9081527f5622121b47b8cd0120c4efe45dd5483242f54a3d49bd7679be565d47694918c380549092168317909155845181546001600160a01b03199081166001600160a01b0392831617909255948301518254821690861617909155600280558251600380548316918616919091179055910151600480549092169216919091179055565b005b80356001600160a01b0381168114610189575f80fd5b919050565b5f6040828403121561019e575f80fd5b6040516040810181811067ffffffffffffffff821117156101cd57634e487b7160e01b5f52604160045260245ffd5b6040529050806101dc83610173565b81526101ea60208401610173565b60208201525092915050565b5f8060808385031215610207575f80fd5b610211848461018e565b9150610220846040850161018e565b9050925092905056fea26469706673582212200399148254224409468a306212aeeb2dc415cf4e0e13a1b146a9d29d181ebe4764736f6c634300081a0033","linkReferences":{}},"methodIdentifiers":{"init((address,address),(address,address))":"60f7d229"},"id":14}