{"abi":[{"type":"function","name":"init","inputs":[{"name":"aave_","type":"tuple","internalType":"struct AaveConfig","components":[{"name":"aaveGW","type":"address","internalType":"address"},{"name":"aavePoolProvider","type":"address","internalType":"address"}]},{"name":"balancer_","type":"tuple","internalType":"struct BalancerConfig","components":[{"name":"balancerPool_wstETHsUSDe","type":"address","internalType":"address"},{"name":"balancerVault","type":"address","internalType":"address"},{"name":"balancerPool_wstETHWETH","type":"address","internalType":"address"}]},{"name":"pendle_","type":"tuple","internalType":"struct PendleConfig","components":[{"name":"pendleRouter","type":"address","internalType":"address"},{"name":"sUSDeMarket","type":"address","internalType":"address"},{"name":"twapDuration","type":"uint32","internalType":"uint32"},{"name":"ptDiscount","type":"uint16","internalType":"uint16"}]},{"name":"curve_","type":"tuple","internalType":"struct CurveConfig","components":[{"name":"curveRouter","type":"address","internalType":"address"},{"name":"curveAddressProvider","type":"address","internalType":"address"},{"name":"curvePool_sUSDesDAI","type":"address","internalType":"address"},{"name":"curvePool_sDAIFRAX","type":"address","internalType":"address"},{"name":"curvePool_FRAXUSDC","type":"address","internalType":"address"},{"name":"curvePool_USDCETHWBTC","type":"address","internalType":"address"},{"name":"curvePool_FRAXUSDe","type":"address","internalType":"address"}]},{"name":"tokens_","type":"tuple","internalType":"struct ERC20s","components":[{"name":"aWETH","type":"address","internalType":"address"},{"name":"USDC","type":"address","internalType":"address"},{"name":"sUSDe","type":"address","internalType":"address"},{"name":"USDT","type":"address","internalType":"address"},{"name":"ozUSDtoken","type":"address","internalType":"address"},{"name":"pendlePT","type":"address","internalType":"address"},{"name":"aaveVariableDebtUSDC","type":"address","internalType":"address"},{"name":"USDe","type":"address","internalType":"address"},{"name":"wstETH","type":"address","internalType":"address"},{"name":"WETH","type":"address","internalType":"address"},{"name":"sDAI","type":"address","internalType":"address"},{"name":"FRAX","type":"address","internalType":"address"},{"name":"WBTC","type":"address","internalType":"address"}]},{"name":"sys_","type":"tuple","internalType":"struct SysConfig","components":[{"name":"OZ","type":"address","internalType":"address"},{"name":"relayer","type":"address","internalType":"address"}]}],"outputs":[],"stateMutability":"nonpayable"}],"bytecode":{"object":"0x6080604052348015600e575f80fd5b5061193a8061001c5f395ff3fe608060405234801561000f575f80fd5b5060043610610029575f3560e01c8063c84b0d931461002d575b5f80fd5b61004061003b3660046115b9565b610042565b005b7fc8fcad8db84d3cc18b4c41d551ea0ee66dd599cde068d998e57d5e09332c131f60209081527f699d9daa71b280d05a152715774afa0a81a312594b2d731d6b0b2552b7d6f69f8054600160ff1991821681179092557ff97e938d8af42f52387bb74b8b526fda8f184cc2aa534340a8d75a88fbecc77580548216831790557f65d510a5d8f7ef134ec444f7f34ee808c8eeb5177cdfd16be0c40fe1ab43369580548216831790556307f5828d60e41b5f9081527f5622121b47b8cd0120c4efe45dd5483242f54a3d49bd7679be565d47694918c380549092168317909155845161011680546001600160a01b03199081166001600160a01b0393841617909155868501516101178054831691841691909117905560608701516101188054831691841691909117905560808701516101198054831691841691909117905560a087015161011a8054831691841691909117905560c087015161011b8054831691841691909117905560e087015161011c8054831691841691909117905561010087015161011d805483169184169190911790556101208088015161011e8054841691851691909117905561014088015161011f805484169185169190911790556101608801518154831690841617905561018087015161012180548316918416919091179055604080880151610122805484169185169190911790558b5184548316908416179093558a850151845490911691169081179092556002600355805163026b1d5f60e01b815290517fc8fcad8db84d3cc18b4c41d551ea0ee66dd599cde068d998e57d5e09332c131c9363026b1d5f92600480820193918290030181865afa1580156102b6573d5f803e3d5ffd5b505050506040513d601f19601f820116820180604052508101906102da91906116db565b600280546001600160a01b03199081166001600160a01b039384161790915587516015805483169184169190911790556020808901516016805484169185169190911790556040808a0151601780548516918616919091179055885160048054851691861691909117815589830151600580548616918716919091179055815160a0810183525f8082525f198286018190528285018290526101006060808501829052655af3107a40006080909501859052600e849055600f929092556010929092556011919091556012919091558a015161ffff16601455898201516013805463ffffffff191663ffffffff909216919091179055885160188054861691871691909117905591880151601980549094169416938417909255905163124fd3dd60e21b815260079181019190915263493f4f7490602401602060405180830381865afa15801561042d573d5f803e3d5ffd5b505050506040513d601f19601f8201168201806040525081019061045191906116db565b601a80546001600160a01b03199081166001600160a01b03938416179091556040860151601b805483169184169190911790556060860151601c805483169184169190911790556080860151601d8054831691841691909117905560a0860151601e8054831691841691909117905560c0860151601f805490921692169190911790556101408301516104e3906106f0565b80516020906104f5908290600b6110cc565b50602082015161050b90600b8301906005611124565b506040820151610521906024830190600561116b565b509050506105338361016001516106f0565b8051604990610545908290600b6110cc565b50602082015161055b90600b8301906005611124565b506040820151610571906024830190600561116b565b5090505061058283602001516106f0565b8051607290610594908290600b6110cc565b5060208201516105aa90600b8301906005611124565b5060408201516105c0906024830190600561116b565b509050506105d18360e001516106f0565b8051609b906105e3908290600b6110cc565b5060208201516105f990600b8301906005611124565b50604082015161060f906024830190600561116b565b509050506106218361012001516106f0565b805160c490610633908290600b6110cc565b50602082015161064990600b8301906005611124565b50604082015161065f906024830190600561116b565b509050506106718361018001516106f0565b805160ed90610683908290600b6110cc565b50602082015161069990600b8301906005611124565b5060408201516106af906024830190600561116b565b5050825161012380546001600160a01b03199081166001600160a01b0393841617909155602090940151610126805490951691161790925550505050505050565b6106f86111b2565b5f60606107036111e4565b61070b611203565b610713611230565b61071c8561085e565b6101205490965091945092506001600160a01b03908116908816036107515761074685855f6108df565b50909350915061083d565b610117546001600160a01b038881169116148061077c575061011c546001600160a01b038881169116145b156107ac5761078d858560016108df565b955086915061079d905081611711565b95505061074685855f8a610956565b61011e546001600160a01b03888116911614806107d75750610121546001600160a01b038881169116145b1561083d576107e8858560016108df565b95508691506107f8905081611711565b610117549096506108199150869086906001906001600160a01b0316610956565b9550869150610829905081611711565b9550506108378588866109fd565b90935091505b60408051606081018252938452602084019290925290820152949350505050565b6108666111e4565b61086e611203565b601b546101225461011f54604080515f808252602082019092526060946108af94929389936001600160a01b03928316939083169290911690600190610a3e565b60405191945092506108c79084908490602001611729565b60405160208183030381529060405290509193909250565b6108e76111e4565b6108ef611203565b601c5461011f546101205460609261091d926003928a926001600160a01b0390811692811691165f8b610a3e565b9093509150831561094d57828260405160200161093b929190611729565b60405160208183030381529060405290505b93509350939050565b61095e6111e4565b610966611203565b610117546060905f906001600160a01b0386811691161461099257601f546001600160a01b031661099f565b601d546001600160a01b03165b610120549091506109c2906005908a9084906001600160a01b0316895f8d610a3e565b909450925085156109f25783836040516020016109e0929190611729565b60405160208183030381529060405291505b509450945094915050565b610a056111e4565b610a0d611203565b601e5461011754610a329160079188916001600160a01b039081169116885f89610a3e565b90969095509350505050565b610a466111e4565b610a4e611203565b5f80610a5985610bbc565b915091508515610aee5787828c600b8110610a7657610a766117b5565b6001600160a01b0390921660209290920201528882610a968d60016117c9565b600b8110610aa657610aa66117b5565b6001600160a01b0390921660209290920201528682610ac68d60026117c9565b600b8110610ad657610ad66117b5565b6001600160a01b039092166020929092020152610b5e565b84806020019051810190610b0291906117e2565b909250905088828c600b8110610b1a57610b1a6117b5565b6001600160a01b0390921660209290920201528682610b3a8d60016117c9565b600b8110610b4a57610b4a6117b5565b6001600160a01b0390921660209290920201525b5f610b6a8b60026117c9565b610b74908d6118de565b90505f808212610b845781610b86565b5f5b9050610b938b8b8b610bf2565b838260058110610ba557610ba56117b5565b602002015250919b909a5098505050505050505050565b610bc46111e4565b610bcc611203565b825115610bed5782806020019051810190610be791906117e2565b90925090505b915091565b610bfa611230565b60405163c661065760e01b8152600260048201525f906001600160a01b0386169063c661065790602401602060405180830381865afa925050508015610c5d575060408051601f3d908101601f19168201909252610c5a918101906116db565b60015b610c6957506002610c6b565b505b80600203610d0c5760405163c661065760e01b81525f60048201526001600160a01b03808616919087169063c661065790602401602060405180830381865afa158015610cba573d5f803e3d5ffd5b505050506040513d601f19601f82011682018060405250810190610cde91906116db565b6001600160a01b031603610cfe575f8252600182815b602002015261101c565b60018083525f908390610cf4565b60405163c661065760e01b81525f60048201526001600160a01b03808616919087169063c661065790602401602060405180830381865afa158015610d53573d5f803e3d5ffd5b505050506040513d601f19601f82011682018060405250810190610d7791906116db565b6001600160a01b031603610d93575f82815b6020020152610e95565b60405163c661065760e01b8152600160048201526001600160a01b03808616919087169063c661065790602401602060405180830381865afa158015610ddb573d5f803e3d5ffd5b505050506040513d601f19601f82011682018060405250810190610dff91906116db565b6001600160a01b031603610e16576001825f610d89565b60405163c661065760e01b8152600260048201526001600160a01b03808616919087169063c661065790602401602060405180830381865afa158015610e5e573d5f803e3d5ffd5b505050506040513d601f19601f82011682018060405250810190610e8291906116db565b6001600160a01b031603610e9557600282525b60405163c661065760e01b81525f60048201526001600160a01b03808516919087169063c661065790602401602060405180830381865afa158015610edc573d5f803e3d5ffd5b505050506040513d601f19601f82011682018060405250810190610f0091906116db565b6001600160a01b031603610f17575f826001610cf4565b60405163c661065760e01b8152600160048201526001600160a01b03808516919087169063c661065790602401602060405180830381865afa158015610f5f573d5f803e3d5ffd5b505050506040513d601f19601f82011682018060405250810190610f8391906116db565b6001600160a01b031603610f9a5760018281610cf4565b60405163c661065760e01b8152600260048201526001600160a01b03808516919087169063c661065790602401602060405180830381865afa158015610fe2573d5f803e3d5ffd5b505050506040513d601f19601f8201168201806040525081019061100691906116db565b6001600160a01b03160361101c57600260208301525b60016040830152610122546001600160a01b038581169116148061104e5750610120546001600160a01b038581169116145b156110605760015b606083015261109d565b61011f546001600160a01b039081169085160361107e576001611056565b610117546001600160a01b039081169085160361109d57600360608301525b601e546001600160a01b038681169116146110b95760026110bc565b60035b60ff166080830152509392505050565b82600b8101928215611114579160200282015b8281111561111457825182546001600160a01b0319166001600160a01b039091161782556020909201916001909101906110df565b5061112092915061124e565b5090565b60198301918390821561115f579160200282015b8281111561115f57825161114f9083906005611262565b5091602001919060050190611138565b50611120929150611290565b8260058101928215611114579160200282018281111561111457825182546001600160a01b0319166001600160a01b039091161782556020909201916001909101906110df565b60405180606001604052806111c56111e4565b81526020016111d2611203565b81526020016111df611230565b905290565b604051806101600160405280600b906020820280368337509192915050565b6040518060a001604052806005905b61121a611230565b8152602001906001900390816112125790505090565b6040518060a001604052806005906020820280368337509192915050565b5b80821115611120575f815560010161124f565b8260058101928215611114579160200282015b82811115611114578251825591602001919060010190611275565b80821115611120575f8082556001820181905560028201819055600382018190556004820155600501611290565b634e487b7160e01b5f52604160045260245ffd5b60405160e0810167ffffffffffffffff811182821017156112f5576112f56112be565b60405290565b6040516101a0810167ffffffffffffffff811182821017156112f5576112f56112be565b6040516060810167ffffffffffffffff811182821017156112f5576112f56112be565b6040516080810167ffffffffffffffff811182821017156112f5576112f56112be565b604051601f8201601f1916810167ffffffffffffffff8111828210171561138e5761138e6112be565b604052919050565b6001600160a01b03811681146113aa575f80fd5b50565b80356113b881611396565b919050565b5f604082840312156113cd575f80fd5b6040805190810167ffffffffffffffff811182821017156113f0576113f06112be565b604052905080823561140181611396565b8152602083013561141181611396565b6020919091015292915050565b5f60e0828403121561142e575f80fd5b6114366112d2565b9050813561144381611396565b8152602082013561145381611396565b6020820152604082013561146681611396565b6040820152606082013561147981611396565b606082015261148a608083016113ad565b608082015261149b60a083016113ad565b60a08201526114ac60c083016113ad565b60c082015292915050565b5f6101a082840312156114c8575f80fd5b6114d06112fb565b90506114db826113ad565b81526114e9602083016113ad565b60208201526114fa604083016113ad565b604082015261150b606083016113ad565b606082015261151c608083016113ad565b608082015261152d60a083016113ad565b60a082015261153e60c083016113ad565b60c082015261154f60e083016113ad565b60e082015261156161010083016113ad565b61010082015261157461012083016113ad565b61012082015261158761014083016113ad565b61014082015261159a61016083016113ad565b6101608201526115ad61018083016113ad565b61018082015292915050565b5f805f805f808688036103e08112156115d0575f80fd5b6115da89896113bd565b96506060603f19820112156115ed575f80fd5b6115f561131f565b604089013561160381611396565b8152606089013561161381611396565b6020820152608089013561162681611396565b604082015295506080609f198201121561163e575f80fd5b50611647611342565b60a088013561165581611396565b815260c088013561166581611396565b602082015260e088013563ffffffff81168114611680575f80fd5b604082015261010088013561ffff8116811461169a575f80fd5b606082015293506116af88610120890161141e565b92506116bf8861020089016114b7565b91506116cf886103a089016113bd565b90509295509295509295565b5f602082840312156116eb575f80fd5b81516116f681611396565b9392505050565b634e487b7160e01b5f52601160045260245ffd5b5f60018201611722576117226116fd565b5060010190565b610480810181845f5b600b81101561175a5781516001600160a01b0316835260209283019290910190600101611732565b5050506101608201835f5b60058110156117ab578151835f5b6005811015611792578251825260209283019290910190600101611773565b50505060a0929092019160209190910190600101611765565b5050509392505050565b634e487b7160e01b5f52603260045260245ffd5b808201808211156117dc576117dc6116fd565b92915050565b5f8061048083850312156117f4575f80fd5b83601f840112611802575f80fd5b61016061180e81611365565b90840190808683111561181f575f80fd5b855b8381101561184257805161183481611396565b835260209283019201611821565b5093505061017f84018513611855575f80fd5b60a061186081611365565b80610480870188811115611872575f80fd5b808510156118cf5788601f860112611888575f80fd5b61189184611365565b808587018b8111156118a1575f80fd5b875b818110156118bb5780518452602093840193016118a3565b505084525093830193602090920191611872565b50809450505050509250929050565b8181035f8312801583831316838312821617156118fd576118fd6116fd565b509291505056fea26469706673582212205fb3ce384f366b2582bc7c11cc846bdee27e3c784088e6790351256d02727ca864736f6c634300081a0033","linkReferences":{}},"methodIdentifiers":{"init((address,address),(address,address,address),(address,address,uint32,uint16),(address,address,address,address,address,address,address),(address,address,address,address,address,address,address,address,address,address,address,address,address),(address,address))":"c84b0d93"},"id":26}