{"abi":[{"type":"constructor","inputs":[{"name":"name_","type":"string","internalType":"string"},{"name":"symbol_","type":"string","internalType":"string"},{"name":"oz_","type":"address","internalType":"address"}],"stateMutability":"nonpayable"},{"type":"function","name":"allowance","inputs":[{"name":"owner","type":"address","internalType":"address"},{"name":"spender","type":"address","internalType":"address"}],"outputs":[{"name":"","type":"uint256","internalType":"uint256"}],"stateMutability":"view"},{"type":"function","name":"approve","inputs":[{"name":"spender","type":"address","internalType":"address"},{"name":"value","type":"uint256","internalType":"uint256"}],"outputs":[{"name":"","type":"bool","internalType":"bool"}],"stateMutability":"nonpayable"},{"type":"function","name":"balanceOf","inputs":[{"name":"account_","type":"address","internalType":"address"}],"outputs":[{"name":"","type":"uint256","internalType":"uint256"}],"stateMutability":"view"},{"type":"function","name":"decimals","inputs":[],"outputs":[{"name":"","type":"uint8","internalType":"uint8"}],"stateMutability":"view"},{"type":"function","name":"mint","inputs":[{"name":"account_","type":"address","internalType":"address"},{"name":"amount_","type":"uint256","internalType":"uint256"}],"outputs":[],"stateMutability":"nonpayable"},{"type":"function","name":"name","inputs":[],"outputs":[{"name":"","type":"string","internalType":"string"}],"stateMutability":"view"},{"type":"function","name":"rebase","inputs":[],"outputs":[],"stateMutability":"nonpayable"},{"type":"function","name":"setInitialRate","inputs":[],"outputs":[],"stateMutability":"nonpayable"},{"type":"function","name":"symbol","inputs":[],"outputs":[{"name":"","type":"string","internalType":"string"}],"stateMutability":"view"},{"type":"function","name":"totalSupply","inputs":[],"outputs":[{"name":"","type":"uint256","internalType":"uint256"}],"stateMutability":"view"},{"type":"function","name":"transfer","inputs":[{"name":"to","type":"address","internalType":"address"},{"name":"value","type":"uint256","internalType":"uint256"}],"outputs":[{"name":"","type":"bool","internalType":"bool"}],"stateMutability":"nonpayable"},{"type":"function","name":"transferFrom","inputs":[{"name":"from","type":"address","internalType":"address"},{"name":"to","type":"address","internalType":"address"},{"name":"value","type":"uint256","internalType":"uint256"}],"outputs":[{"name":"","type":"bool","internalType":"bool"}],"stateMutability":"nonpayable"},{"type":"event","name":"Approval","inputs":[{"name":"owner","type":"address","indexed":true,"internalType":"address"},{"name":"spender","type":"address","indexed":true,"internalType":"address"},{"name":"value","type":"uint256","indexed":false,"internalType":"uint256"}],"anonymous":false},{"type":"event","name":"Rebase","inputs":[{"name":"newScalingFactor","type":"uint256","indexed":true,"internalType":"uint256"},{"name":"rebaseTime","type":"uint256","indexed":true,"internalType":"uint256"}],"anonymous":false},{"type":"event","name":"Transfer","inputs":[{"name":"from","type":"address","indexed":true,"internalType":"address"},{"name":"to","type":"address","indexed":true,"internalType":"address"},{"name":"value","type":"uint256","indexed":false,"internalType":"uint256"}],"anonymous":false},{"type":"error","name":"ERC20InsufficientAllowance","inputs":[{"name":"spender","type":"address","internalType":"address"},{"name":"allowance","type":"uint256","internalType":"uint256"},{"name":"needed","type":"uint256","internalType":"uint256"}]},{"type":"error","name":"ERC20InsufficientBalance","inputs":[{"name":"sender","type":"address","internalType":"address"},{"name":"balance","type":"uint256","internalType":"uint256"},{"name":"needed","type":"uint256","internalType":"uint256"}]},{"type":"error","name":"ERC20InvalidApprover","inputs":[{"name":"approver","type":"address","internalType":"address"}]},{"type":"error","name":"ERC20InvalidReceiver","inputs":[{"name":"receiver","type":"address","internalType":"address"}]},{"type":"error","name":"ERC20InvalidSender","inputs":[{"name":"sender","type":"address","internalType":"address"}]},{"type":"error","name":"ERC20InvalidSpender","inputs":[{"name":"spender","type":"address","internalType":"address"}]},{"type":"error","name":"OZError03","inputs":[]},{"type":"error","name":"OZError04","inputs":[]}],"bytecode":{"object":"0x6080604052670de0b6b3a764000060065562015180600855348015610022575f80fd5b50604051610d42380380610d4283398101604081905261004191610196565b8282600361004f838261029f565b50600461005c828261029f565b5050506001600160a01b0381166100b95760405162461bcd60e51b815260206004820152601860248201527f6f7a55534443746f6b656e3a206f7a5f206973207a65726f0000000000000000604482015260640160405180910390fd5b600580546001600160a01b0319166001600160a01b0392909216919091179055505042600755610359565b634e487b7160e01b5f52604160045260245ffd5b5f82601f830112610107575f80fd5b81516001600160401b03811115610120576101206100e4565b604051601f8201601f19908116603f011681016001600160401b038111828210171561014e5761014e6100e4565b604052818152838201602001851015610165575f80fd5b5f5b8281101561018357602081860181015183830182015201610167565b505f918101602001919091529392505050565b5f805f606084860312156101a8575f80fd5b83516001600160401b038111156101bd575f80fd5b6101c9868287016100f8565b602086015190945090506001600160401b038111156101e6575f80fd5b6101f2868287016100f8565b604086015190935090506001600160a01b0381168114610210575f80fd5b809150509250925092565b600181811c9082168061022f57607f821691505b60208210810361024d57634e487b7160e01b5f52602260045260245ffd5b50919050565b601f82111561029a57805f5260205f20601f840160051c810160208510156102785750805b601f840160051c820191505b81811015610297575f8155600101610284565b50505b505050565b81516001600160401b038111156102b8576102b86100e4565b6102cc816102c6845461021b565b84610253565b6020601f8211600181146102fe575f83156102e75750848201515b5f19600385901b1c1916600184901b178455610297565b5f84815260208120601f198516915b8281101561032d578785015182556020948501946001909201910161030d565b508482101561034a57868401515f19600387901b60f8161c191681555b50505050600190811b01905550565b6109dc806103665f395ff3fe608060405234801561000f575f80fd5b50600436106100b1575f3560e01c806340c10f191161006e57806340c10f191461013457806370a082311461014757806395d89b411461015a578063a9059cbb14610162578063af14052c14610175578063dd62ed3e1461017d575f80fd5b806306fdde03146100b5578063095ea7b3146100d35780630a2431bc146100f657806318160ddd1461010057806323b872dd14610112578063313ce56714610125575b5f80fd5b6100bd6101b5565b6040516100ca91906107d5565b60405180910390f35b6100e66100e136600461083b565b610245565b60405190151581526020016100ca565b6100fe61025e565b005b6002545b6040519081526020016100ca565b6100e6610120366004610863565b6102d7565b604051601281526020016100ca565b6100fe61014236600461083b565b6102fa565b61010461015536600461089d565b610308565b6100bd610348565b6100e661017036600461083b565b610357565b6100fe610364565b61010461018b3660046108b6565b6001600160a01b039182165f90815260016020908152604080832093909416825291909152205490565b6060600380546101c4906108e7565b80601f01602080910402602001604051908101604052809291908181526020018280546101f0906108e7565b801561023b5780601f106102125761010080835404028352916020019161023b565b820191905f5260205f20905b81548152906001019060200180831161021e57829003601f168201915b5050505050905090565b5f336102528185856104ba565b60019150505b92915050565b60055f9054906101000a90046001600160a01b03166001600160a01b031663bbc8af0a6040518163ffffffff1660e01b8152600401602060405180830381865afa1580156102ae573d5f803e3d5ffd5b505050506040513d601f19601f820116820180604052508101906102d2919061091f565b600955565b5f336102e48582856104cc565b6102ef85858561054c565b506001949350505050565b61030482826105a9565b5050565b6001600160a01b0381165f90815260208190526040812054670de0b6b3a764000060065482610337919061094a565b6103419190610961565b9392505050565b6060600480546101c4906108e7565b5f3361025281858561054c565b6008546007546103749190610980565b421015610394576040516361ceb1d360e01b815260040160405180910390fd5b60055460408051635de4578560e11b815290515f926001600160a01b03169163bbc8af0a9160048083019260209291908290030181865afa1580156103db573d5f803e3d5ffd5b505050506040513d601f19601f820116820180604052508101906103ff919061091f565b905060095481101561042457604051637a094ad360e01b815260040160405180910390fd5b6009545f906104338184610993565b61044590670de0b6b3a764000061094a565b61044f9190610961565b9050670de0b6b3a76400006104648282610980565b600654610471919061094a565b61047b9190610961565b600681905560098390554260078190556040519091907f11c6bf55864ff83827df712625d7a80e5583eef0264921025e7cd22003a21511905f90a35050565b6104c783838360016105dd565b505050565b6001600160a01b038381165f908152600160209081526040808320938616835292905220545f198114610546578181101561053857604051637dc7a0d960e11b81526001600160a01b038416600482015260248101829052604481018390526064015b60405180910390fd5b61054684848484035f6105dd565b50505050565b6001600160a01b03831661057557604051634b637e8f60e11b81525f600482015260240161052f565b6001600160a01b03821661059e5760405163ec442f0560e01b81525f600482015260240161052f565b6104c78383836106af565b6001600160a01b0382166105d25760405163ec442f0560e01b81525f600482015260240161052f565b6103045f83836106af565b6001600160a01b0384166106065760405163e602df0560e01b81525f600482015260240161052f565b6001600160a01b03831661062f57604051634a1406b160e11b81525f600482015260240161052f565b6001600160a01b038085165f908152600160209081526040808320938716835292905220829055801561054657826001600160a01b0316846001600160a01b03167f8c5be1e5ebec7d5bd14f71427d1e84f3dd0314c0f7b2291e5b200ac8c7c3b925846040516106a191815260200190565b60405180910390a350505050565b6001600160a01b0383166106d9578060025f8282546106ce9190610980565b909155506107499050565b6001600160a01b0383165f908152602081905260409020548181101561072b5760405163391434e360e21b81526001600160a01b0385166004820152602481018290526044810183905260640161052f565b6001600160a01b0384165f9081526020819052604090209082900390555b6001600160a01b03821661076557600280548290039055610783565b6001600160a01b0382165f9081526020819052604090208054820190555b816001600160a01b0316836001600160a01b03167fddf252ad1be2c89b69c2b068fc378daa952ba7f163c4a11628f55a4df523b3ef836040516107c891815260200190565b60405180910390a3505050565b602081525f82518060208401525f5b8181101561080157602081860181015160408684010152016107e4565b505f604082850101526040601f19601f83011684010191505092915050565b80356001600160a01b0381168114610836575f80fd5b919050565b5f806040838503121561084c575f80fd5b61085583610820565b946020939093013593505050565b5f805f60608486031215610875575f80fd5b61087e84610820565b925061088c60208501610820565b929592945050506040919091013590565b5f602082840312156108ad575f80fd5b61034182610820565b5f80604083850312156108c7575f80fd5b6108d083610820565b91506108de60208401610820565b90509250929050565b600181811c908216806108fb57607f821691505b60208210810361091957634e487b7160e01b5f52602260045260245ffd5b50919050565b5f6020828403121561092f575f80fd5b5051919050565b634e487b7160e01b5f52601160045260245ffd5b808202811582820484141761025857610258610936565b5f8261097b57634e487b7160e01b5f52601260045260245ffd5b500490565b8082018082111561025857610258610936565b818103818111156102585761025861093656fea2646970667358221220d793d7f525cbd66b7ebbc5a65f9395679072a60f529f81b82ec93790558e97da64736f6c634300081a0033","linkReferences":{}},"methodIdentifiers":{"allowance(address,address)":"dd62ed3e","approve(address,uint256)":"095ea7b3","balanceOf(address)":"70a08231","decimals()":"313ce567","mint(address,uint256)":"40c10f19","name()":"06fdde03","rebase()":"af14052c","setInitialRate()":"0a2431bc","symbol()":"95d89b41","totalSupply()":"18160ddd","transfer(address,uint256)":"a9059cbb","transferFrom(address,address,uint256)":"23b872dd"},"id":27}