{"abi":[{"type":"constructor","inputs":[{"name":"relayer_","type":"address","internalType":"address"},{"name":"eth_","type":"address","internalType":"address"},{"name":"aaveGW_","type":"address","internalType":"address"},{"name":"aavePool_","type":"address","internalType":"address"},{"name":"aaveDebtUsdc_","type":"address","internalType":"address"}],"stateMutability":"nonpayable"},{"type":"function","name":"buyPT","inputs":[{"name":"amountIn_","type":"uint256","internalType":"uint256"},{"name":"internalAccount_","type":"address","internalType":"address"}],"outputs":[{"name":"","type":"uint256","internalType":"uint256"}],"stateMutability":"payable"},{"type":"function","name":"depositInAave","inputs":[{"name":"amountIn_","type":"uint256","internalType":"uint256"},{"name":"tokenIn_","type":"address","internalType":"address"}],"outputs":[],"stateMutability":"payable"},{"type":"function","name":"relayer","inputs":[],"outputs":[{"name":"","type":"address","internalType":"address"}],"stateMutability":"view"},{"type":"event","name":"FundsDelegated","inputs":[{"name":"internalAccount","type":"address","indexed":true,"internalType":"address"},{"name":"depositToken","type":"address","indexed":true,"internalType":"address"},{"name":"amount","type":"uint256","indexed":true,"internalType":"uint256"}],"anonymous":false}],"bytecode":{"object":"0x608060405234801561000f575f80fd5b5060405161045f38038061045f83398101604081905261002e916100aa565b5f80546001600160a01b03199081166001600160a01b0397881617909155600180548216958716959095179094556002805485169386169390931790925560038054841691851691909117905560048054909216921691909117905561010b565b80516001600160a01b03811681146100a5575f80fd5b919050565b5f805f805f60a086880312156100be575f80fd5b6100c78661008f565b94506100d56020870161008f565b93506100e36040870161008f565b92506100f16060870161008f565b91506100ff6080870161008f565b90509295509295909350565b610347806101185f395ff3fe608060405260043610610033575f3560e01c806318546f12146100375780638406c0791461004c57806396b3de0614610087575b5f80fd5b61004a6100453660046102b2565b6100aa565b005b348015610057575f80fd5b505f5461006a906001600160a01b031681565b6040516001600160a01b0390911681526020015b60405180910390f35b61009c6100953660046102b2565b5f92915050565b60405190815260200161007e565b6001546001600160a01b03908116908216036101305760025460035460405163474cf53d60e01b81526001600160a01b0391821660048201523060248201525f604482015291169063474cf53d9034906064015f604051808303818588803b158015610114575f80fd5b505af1158015610126573d5f803e3d5ffd5b5050505050610213565b60035460405163095ea7b360e01b81526001600160a01b039182166004820152602481018490529082169063095ea7b3906044016020604051808303815f875af1158015610180573d5f803e3d5ffd5b505050506040513d601f19601f820116820180604052508101906101a491906102eb565b5060035460405163617ba03760e01b81526001600160a01b038381166004830152602482018590523060448301525f60648301529091169063617ba037906084015f604051808303815f87803b1580156101fc575f80fd5b505af115801561020e573d5f803e3d5ffd5b505050505b600480545f54604051630c04a8a160e41b81526001600160a01b03918216938101939093525f196024840152169063c04a8a10906044015f604051808303815f87803b158015610261575f80fd5b505af1158015610273573d5f803e3d5ffd5b50506040518492506001600160a01b038416915030907f75134c5a30206e01639de7bebafb4f915e3e6cef465a59b1424e26ea3c9faeb7905f90a45050565b5f80604083850312156102c3575f80fd5b8235915060208301356001600160a01b03811681146102e0575f80fd5b809150509250929050565b5f602082840312156102fb575f80fd5b8151801515811461030a575f80fd5b939250505056fea264697066735822122016f9a274a582519a2b089069dde4d40f29d73bbb4799ffba82a01711f94980b564736f6c634300081a0033","linkReferences":{}},"methodIdentifiers":{"buyPT(uint256,address)":"96b3de06","depositInAave(uint256,address)":"18546f12","relayer()":"8406c079"},"id":2}