{"abi":[{"type":"constructor","inputs":[{"name":"relayer_","type":"address","internalType":"address"},{"name":"eth_","type":"address","internalType":"address"},{"name":"aaveGW_","type":"address","internalType":"address"},{"name":"aavePool_","type":"address","internalType":"address"},{"name":"aaveDebtUsdc_","type":"address","internalType":"address"}],"stateMutability":"nonpayable"},{"type":"function","name":"USDC","inputs":[],"outputs":[{"name":"","type":"address","internalType":"contract IERC20"}],"stateMutability":"view"},{"type":"function","name":"USDT","inputs":[],"outputs":[{"name":"","type":"address","internalType":"contract IERC20"}],"stateMutability":"view"},{"type":"function","name":"buyPT","inputs":[{"name":"amountIn_","type":"uint256","internalType":"uint256"},{"name":"intAcc_","type":"address","internalType":"address"},{"name":"tokenIn_","type":"address","internalType":"address"}],"outputs":[{"name":"","type":"uint256","internalType":"uint256"}],"stateMutability":"nonpayable"},{"type":"function","name":"depositInAave","inputs":[{"name":"amountIn_","type":"uint256","internalType":"uint256"},{"name":"tokenIn_","type":"address","internalType":"address"}],"outputs":[],"stateMutability":"payable"},{"type":"function","name":"pendleRouter","inputs":[],"outputs":[{"name":"","type":"address","internalType":"contract IPAllActionV3"}],"stateMutability":"view"},{"type":"function","name":"relayer","inputs":[],"outputs":[{"name":"","type":"address","internalType":"address"}],"stateMutability":"view"},{"type":"function","name":"sUSDe","inputs":[],"outputs":[{"name":"","type":"address","internalType":"contract IERC20"}],"stateMutability":"view"},{"type":"function","name":"sUSDeMarket","inputs":[],"outputs":[{"name":"","type":"address","internalType":"contract IPMarket"}],"stateMutability":"view"},{"type":"function","name":"sellPT","inputs":[{"name":"amountInPT_","type":"uint256","internalType":"uint256"},{"name":"intAcc_","type":"address","internalType":"address"},{"name":"tokenOut_","type":"address","internalType":"address"}],"outputs":[{"name":"","type":"uint256","internalType":"uint256"}],"stateMutability":"nonpayable"},{"type":"event","name":"FundsDelegated","inputs":[{"name":"internalAccount","type":"address","indexed":true,"internalType":"address"},{"name":"depositToken","type":"address","indexed":true,"internalType":"address"},{"name":"amount","type":"uint256","indexed":true,"internalType":"uint256"}],"anonymous":false}],"bytecode":{"object":"0x6101206040525f60808190525f1960a081905260c082905261010060e0819052655af3107a4000808252600584905560069290925560079290925560089190915560095534801561004e575f80fd5b50604051611d1e380380611d1e83398101604081905261006d916100e9565b5f80546001600160a01b03199081166001600160a01b0397881617909155600180548216958716959095179094556002805485169386169390931790925560038054841691851691909117905560048054909216921691909117905561014a565b80516001600160a01b03811681146100e4575f80fd5b919050565b5f805f805f60a086880312156100fd575f80fd5b610106866100ce565b9450610114602087016100ce565b9350610122604087016100ce565b9250610130606087016100ce565b915061013e608087016100ce565b90509295509295909350565b611bc7806101575f395ff3fe608060405260043610610084575f3560e01c80638406c079116100575780638406c0791461013557806389a3027114610153578063c54e44eb1461017a578063dc38a179146101a1578063e0d05d39146101c3575f80fd5b806318546f1214610088578063206aeab31461009d5780634920cfea146100e15780635df7eb9014610108575b5f80fd5b61009b6100963660046113e7565b6101ea565b005b3480156100a8575f80fd5b506100c473888888888889758f76e7103c6cbf23abbf58f94681565b6040516001600160a01b0390911681526020015b60405180910390f35b3480156100ec575f80fd5b506100c473d1d7d99764f8a52aff007b7831cc02748b2013b581565b348015610113575f80fd5b50610127610122366004611415565b6103f2565b6040519081526020016100d8565b348015610140575f80fd5b505f546100c4906001600160a01b031681565b34801561015e575f80fd5b506100c473a0b86991c6218b36c1d19d4a2e9eb0ce3606eb4881565b348015610185575f80fd5b506100c473dac17f958d2ee523a2206206994597c13d831ec781565b3480156101ac575f80fd5b506101276101bb366004611415565b5f9392505050565b3480156101ce575f80fd5b506100c4739d39a5de30e57443bff2a8307a4256c8797a349781565b6001546001600160a01b03908116908216036102705760025460035460405163474cf53d60e01b81526001600160a01b0391821660048201523060248201525f604482015291169063474cf53d9034906064015f604051808303818588803b158015610254575f80fd5b505af1158015610266573d5f803e3d5ffd5b5050505050610353565b60035460405163095ea7b360e01b81526001600160a01b039182166004820152602481018490529082169063095ea7b3906044016020604051808303815f875af11580156102c0573d5f803e3d5ffd5b505050506040513d601f19601f820116820180604052508101906102e49190611454565b5060035460405163617ba03760e01b81526001600160a01b038381166004830152602482018590523060448301525f60648301529091169063617ba037906084015f604051808303815f87803b15801561033c575f80fd5b505af115801561034e573d5f803e3d5ffd5b505050505b600480545f54604051630c04a8a160e41b81526001600160a01b03918216938101939093525f196024840152169063c04a8a10906044015f604051808303815f87803b1580156103a1575f80fd5b505af11580156103b3573d5f803e3d5ffd5b50506040518492506001600160a01b038416915030907f75134c5a30206e01639de7bebafb4f915e3e6cef465a59b1424e26ea3c9faeb7905f90a45050565b5f808073a0b86991c6218b36c1d19d4a2e9eb0ce3606eb47196001600160a01b038516016104525761044f73a0b86991c6218b36c1d19d4a2e9eb0ce3606eb48739d39a5de30e57443bff2a8307a4256c8797a349787898561078f565b91505b60405163095ea7b360e01b815273888888888889758f76e7103c6cbf23abbf58f946600482015260248101839052739d39a5de30e57443bff2a8307a4256c8797a34979063095ea7b3906044016020604051808303815f875af11580156104bb573d5f803e3d5ffd5b505050506040513d601f19601f820116820180604052508101906104df9190611454565b505f8073888888888889758f76e7103c6cbf23abbf58f9466001600160a01b031663c81f847a8873d1d7d99764f8a52aff007b7831cc02748b2013b585600561063b8a600a6040518060800160405290815f82015f9054906101000a900460ff16600381111561055157610551611473565b600381111561056257610562611473565b8152815461010090046001600160a01b0316602082015260018201805460409092019161058e90611487565b80601f01602080910402602001604051908101604052809291908181526020018280546105ba90611487565b80156106055780601f106105dc57610100808354040283529160200191610605565b820191905f5260205f20905b8154815290600101906020018083116105e857829003601f168201915b50505091835250506002919091015460ff161515602090910152739d39a5de30e57443bff2a8307a4256c8797a3497919061091b565b600d6040518763ffffffff1660e01b815260040161065e969594939291906117e2565b6060604051808303815f875af115801561067a573d5f803e3d5ffd5b505050506040513d601f19601f8201168201806040525081019061069e9190611858565b505090506106d16040518060400160405280600d81526020016c030b6b7bab73a27baba282a1d1609d1b81525082610959565b604080518082019091526012815271033b2ba283a2a37a0b9b9b2ba2930ba329d160751b6020820152600f906107249061071f73d1d7d99764f8a52aff007b7831cc02748b2013b5846109a2565b610959565b60408051808201909152600f81526e033b2ba283a2a37a9bca930ba329d1608d1b602082015261076c9061071f73d1d7d99764f8a52aff007b7831cc02748b2013b5846109f2565b61078360405180602001604052805f815250610a2b565b50979650505050505050565b60405163095ea7b360e01b815273e592427a0aece92de3edee1f18e0157c0586156460048201819052602482018490525f916001600160a01b0388169063095ea7b3906044016020604051808303815f875af11580156107f1573d5f803e3d5ffd5b505050506040513d601f19601f820116820180604052508101906108159190611454565b506040805160a081018252606089811b6bffffffffffffffffffffffff1990811660c0840152607d60ea1b60d4840181905273dac17f958d2ee523a2206206994597c13d831ec760601b60d785015260eb84015289821b1660ee830152825160e28184030181526101028301845282526001600160a01b038089166020840152428385015290820187905260808201869052915163c04b8d5960e01b81526101f49284169063c04b8d59906108ce908490600401611883565b6020604051808303815f875af11580156108ea573d5f803e3d5ffd5b505050506040513d601f19601f8201168201806040525081019061090e91906118da565b9998505050505050505050565b610923611366565b506040805160a0810182526001600160a01b039490941680855260208501939093528301919091525f6060830152608082015290565b61099e828260405160240161096f9291906118f1565b60408051601f198184030181529190526020810180516001600160e01b03166309710a9d60e41b179052610a71565b5050565b5f805f6109ae85610a7a565b915091508082106109cc576109c38585610c9d565b925050506109ec565b80826109d88787610c9d565b6109e29190611926565b6109c39190611951565b92915050565b5f805f6109fe85610a7a565b91509150808210610a1d576109c382610a178787610c9d565b90610d65565b6109c381610a178787610c9d565b610a6e81604051602401610a3f9190611964565b60408051601f198184030181529190526020810180516001600160e01b031663104c13eb60e21b179052610a71565b50565b610a6e81610d93565b5f805f80846001600160a01b0316632c8ce6bc6040518163ffffffff1660e01b8152600401606060405180830381865afa158015610aba573d5f803e3d5ffd5b505050506040513d601f19601f82011682018060405250810190610ade9190611976565b9250509150816001600160a01b0316633ba0b9a96040518163ffffffff1660e01b8152600401602060405180830381865afa158015610b1f573d5f803e3d5ffd5b505050506040513d601f19601f82011682018060405250810190610b4391906118da565b93505f816001600160a01b031663d2a3584e6040518163ffffffff1660e01b8152600401602060405180830381865afa158015610b82573d5f803e3d5ffd5b505050506040513d601f19601f82011682018060405250810190610ba691906118da565b9050816001600160a01b031663516399df6040518163ffffffff1660e01b8152600401602060405180830381865afa158015610be4573d5f803e3d5ffd5b505050506040513d601f19601f82011682018060405250810190610c089190611454565b8015610c7b575043826001600160a01b03166360e0a9e16040518163ffffffff1660e01b8152600401602060405180830381865afa158015610c4c573d5f803e3d5ffd5b505050506040513d601f19601f82011682018060405250810190610c7091906119b5565b6001600160801b0316145b15610c8857809350610c95565b610c928582610db3565b93505b505050915091565b5f80836001600160a01b031663e184c9be6040518163ffffffff1660e01b8152600401602060405180830381865afa158015610cdb573d5f803e3d5ffd5b505050506040513d601f19601f82011682018060405250810190610cff91906118da565b9050428111610d1957670de0b6b3a76400009150506109ec565b5f610d248585610dca565b90505f610d3142846119db565b90505f610d46610d418484610ee9565b610f29565b9050610d5a670de0b6b3a764000082610d65565b9450505050506109ec565b5f80610d79670de0b6b3a764000085611926565b9050828181610d8a57610d8a61193d565b04949350505050565b80516a636f6e736f6c652e6c6f67602083015f808483855afa5050505050565b5f818311610dc15781610dc3565b825b9392505050565b6040805160028082526060820183525f928392919060208301908036833701905050905082815f81518110610e0157610e01611a02565b63ffffffff9092166020928302919091019091015260405163883bdbfd60e01b81525f906001600160a01b0386169063883bdbfd90610e44908590600401611a16565b5f60405180830381865afa158015610e5e573d5f803e3d5ffd5b505050506040513d5f823e601f3d908101601f19168201604052610e859190810190611a79565b90508363ffffffff16815f81518110610ea057610ea0611a02565b602002602001015182600181518110610ebb57610ebb611a02565b6020026020010151610ecd9190611b44565b610ed79190611b63565b6001600160d81b031695945050505050565b5f80610efa6201518061016d611926565b610f048486611926565b610f0e9190611951565b9050610f21610f1c82610f3a565b610f4e565b949350505050565b5f80821215610f36575f80fd5b5090565b5f6001600160ff1b03821115610f36575f80fd5b5f680238fd42c5cf03ffff198212158015610f72575068070c1cc73b00c800008213155b610fb55760405162461bcd60e51b815260206004820152601060248201526f125b9d985b1a5908195e1c1bdb995b9d60821b604482015260640160405180910390fd5b5f821215610fec57610fc8825f03610f4e565b6ec097ce7bc90715b34b9f100000000081610fe557610fe561193d565b0592915050565b5f6806f05b59d3b2000000831261102b57506806f05b59d3b1ffffff1990910190770195e54c5dd42177f53a27172fa9ec630262827000000000611061565b6803782dace9d9000000831261105d57506803782dace9d8ffffff19909101906b1425982cf597cd205cef7380611061565b5060015b6064929092029168056bc75e2d6310000068ad78ebc5ac6200000084126110b15768ad78ebc5ac61ffffff199093019268056bc75e2d631000006e01855144814a7ff805980ff008400082020590505b6856bc75e2d63100000084126110ed576856bc75e2d630ffffff199093019268056bc75e2d631000006b02df0ab5a80a22c61ab5a70082020590505b682b5e3af16b18800000841261112757682b5e3af16b187fffff199093019268056bc75e2d63100000693f1fce3da636ea5cf85082020590505b6815af1d78b58c4000008412611161576815af1d78b58c3fffff199093019268056bc75e2d63100000690127fa27722cc06cc5e282020590505b680ad78ebc5ac6200000841261119a57680ad78ebc5ac61fffff199093019268056bc75e2d6310000068280e60114edb805d0382020590505b68056bc75e2d6310000084126111d35768056bc75e2d630fffff199093019268056bc75e2d63100000680ebc5fb4174612111082020590505b6802b5e3af16b1880000841261120c576802b5e3af16b187ffff199093019268056bc75e2d631000006808f00f760a4b2db55d82020590505b68015af1d78b58c4000084126112455768015af1d78b58c3ffff199093019268056bc75e2d631000006806f5f177578893793782020590505b68056bc75e2d631000008481019085906002908280020505918201919050600368056bc75e2d631000008783020505918201919050600468056bc75e2d631000008783020505918201919050600568056bc75e2d631000008783020505918201919050600668056bc75e2d631000008783020505918201919050600768056bc75e2d631000008783020505918201919050600868056bc75e2d631000008783020505918201919050600968056bc75e2d631000008783020505918201919050600a68056bc75e2d631000008783020505918201919050600b68056bc75e2d631000008783020505918201919050600c68056bc75e2d631000008783020505918201919050606468056bc75e2d63100000848402058502059695505050505050565b6040518060a001604052805f6001600160a01b031681526020015f81526020015f6001600160a01b031681526020015f6001600160a01b031681526020016113ce6040805160808101909152805f81525f602082018190526060604083018190529091015290565b905290565b6001600160a01b0381168114610a6e575f80fd5b5f80604083850312156113f8575f80fd5b82359150602083013561140a816113d3565b809150509250929050565b5f805f60608486031215611427575f80fd5b833592506020840135611439816113d3565b91506040840135611449816113d3565b809150509250925092565b5f60208284031215611464575f80fd5b81518015158114610dc3575f80fd5b634e487b7160e01b5f52602160045260245ffd5b600181811c9082168061149b57607f821691505b6020821081036114b957634e487b7160e01b5f52602260045260245ffd5b50919050565b60048110610a6e57634e487b7160e01b5f52602160045260245ffd5b5f81518084525f5b818110156114ff576020818501810151868301820152016114e3565b505f602082860101526020601f19601f83011685010191505092915050565b60018060a01b0381511682526020810151602083015260018060a01b03604082015116604083015260018060a01b0360608201511660608301525f608082015160a060808501528051611570816114bf565b60a085015260208101516001600160a01b031660c08501526040810151608060e08601526115a26101208601826114db565b905060608201511515610100860152809250505092915050565b6115c5816114bf565b9052565b80545f90600181811c908216806115e157607f821691505b6020821081036115ff57634e487b7160e01b5f52602260045260245ffd5b8186526020860181801561161a57600181146116305761165c565b60ff198516825283151560051b8201955061165c565b5f878152602090205f5b858110156116565781548482015260019091019060200161163a565b83019650505b505050505092915050565b5f82825480855260208501945060208160051b830101845f5260205f205f5b8381101561177957601f19858403018852606083528154606084015260018201546080840152600282015460a084015260038201546116cb60c0850160ff83166115bc565b6001600160a01b03600891821c811660e0860152600484015481166101008601526005840154811661012086015260068401541661014085015260078301546101608501528201546101808085019190915260098301546101a08501526101c084015261173f6101e08401600a84016115c9565b838103602085015261175481600b85016115c9565b600c840154604095909501949094525060209790970196600d90910190600101611686565b50909695505050505050565b80546001600160a01b031682526001810154602083015260a0604083018190525f906117b690840160028401611667565b83810360608501526117cb8160038501611667565b90508381036080850152610f2181600485016115c9565b6001600160a01b03878116825286166020820152604081018590528354606082015260018401546080820152600284015460a0820152600384015460c0820152600484015460e082015261014061010082018190525f906118459083018561151e565b82810361012084015261090e8185611785565b5f805f6060848603121561186a575f80fd5b5050815160208301516040909301519094929350919050565b602081525f825160a0602084015261189e60c08401826114db565b905060018060a01b0360208501511660408401526040840151606084015260608401516080840152608084015160a08401528091505092915050565b5f602082840312156118ea575f80fd5b5051919050565b604081525f61190360408301856114db565b90508260208301529392505050565b634e487b7160e01b5f52601160045260245ffd5b80820281158282048414176109ec576109ec611912565b634e487b7160e01b5f52601260045260245ffd5b5f8261195f5761195f61193d565b500490565b602081525f610dc360208301846114db565b5f805f60608486031215611988575f80fd5b8351611993816113d3565b60208501519093506119a4816113d3565b6040850151909250611449816113d3565b5f602082840312156119c5575f80fd5b81516001600160801b0381168114610dc3575f80fd5b818103818111156109ec576109ec611912565b634e487b7160e01b5f52604160045260245ffd5b634e487b7160e01b5f52603260045260245ffd5b602080825282518282018190525f918401906040840190835b81811015611a5357835163ffffffff16835260209384019390920191600101611a2f565b509095945050505050565b80516001600160d81b0381168114611a74575f80fd5b919050565b5f60208284031215611a89575f80fd5b815167ffffffffffffffff811115611a9f575f80fd5b8201601f81018413611aaf575f80fd5b805167ffffffffffffffff811115611ac957611ac96119ee565b8060051b604051601f19603f830116810181811067ffffffffffffffff82111715611af657611af66119ee565b604052918252602081840181019290810187841115611b13575f80fd5b6020850194505b83851015611b3957611b2b85611a5e565b815260209485019401611b1a565b509695505050505050565b6001600160d81b0382811682821603908111156109ec576109ec611912565b5f6001600160d81b03831680611b7b57611b7b61193d565b6001600160d81b0392909216919091049291505056fea264697066735822122039085a6580374dcf89accf5fc111e9232452ad1279f69d84fbdb68331050127564736f6c634300081a0033","linkReferences":{}},"methodIdentifiers":{"USDC()":"89a30271","USDT()":"c54e44eb","buyPT(uint256,address,address)":"5df7eb90","depositInAave(uint256,address)":"18546f12","pendleRouter()":"206aeab3","relayer()":"8406c079","sUSDe()":"e0d05d39","sUSDeMarket()":"4920cfea","sellPT(uint256,address,address)":"dc38a179"},"id":4}