{"abi":[{"type":"constructor","inputs":[{"name":"relayer_","type":"address","internalType":"address"},{"name":"eth_","type":"address","internalType":"address"},{"name":"aaveGW_","type":"address","internalType":"address"},{"name":"aavePool_","type":"address","internalType":"address"},{"name":"aaveDebtUsdc_","type":"address","internalType":"address"}],"stateMutability":"nonpayable"},{"type":"function","name":"USDC","inputs":[],"outputs":[{"name":"","type":"address","internalType":"contract IERC20"}],"stateMutability":"view"},{"type":"function","name":"USDT","inputs":[],"outputs":[{"name":"","type":"address","internalType":"contract IERC20"}],"stateMutability":"view"},{"type":"function","name":"buyPT","inputs":[{"name":"amountIn_","type":"uint256","internalType":"uint256"},{"name":"intAcc_","type":"address","internalType":"address"},{"name":"tokenIn_","type":"address","internalType":"address"}],"outputs":[{"name":"","type":"uint256","internalType":"uint256"}],"stateMutability":"nonpayable"},{"type":"function","name":"depositInAave","inputs":[{"name":"amountIn_","type":"uint256","internalType":"uint256"},{"name":"tokenIn_","type":"address","internalType":"address"}],"outputs":[],"stateMutability":"payable"},{"type":"function","name":"pendleRouter","inputs":[],"outputs":[{"name":"","type":"address","internalType":"contract IPAllActionV3"}],"stateMutability":"view"},{"type":"function","name":"relayer","inputs":[],"outputs":[{"name":"","type":"address","internalType":"address"}],"stateMutability":"view"},{"type":"function","name":"sUSDe","inputs":[],"outputs":[{"name":"","type":"address","internalType":"contract IERC20"}],"stateMutability":"view"},{"type":"function","name":"sUSDeMarket","inputs":[],"outputs":[{"name":"","type":"address","internalType":"contract IPMarket"}],"stateMutability":"view"},{"type":"function","name":"sUSDe_PT_26SEP","inputs":[],"outputs":[{"name":"","type":"address","internalType":"contract IERC20"}],"stateMutability":"view"},{"type":"function","name":"sellPT","inputs":[{"name":"amountInPT_","type":"uint256","internalType":"uint256"},{"name":"tokenOut_","type":"address","internalType":"address"},{"name":"receiver_","type":"address","internalType":"address"}],"outputs":[{"name":"","type":"uint256","internalType":"uint256"}],"stateMutability":"nonpayable"},{"type":"event","name":"FundsDelegated","inputs":[{"name":"internalAccount","type":"address","indexed":true,"internalType":"address"},{"name":"depositToken","type":"address","indexed":true,"internalType":"address"},{"name":"amount","type":"uint256","indexed":true,"internalType":"uint256"}],"anonymous":false}],"bytecode":{"object":"0x6101206040525f60808190525f1960a081905260c082905261010060e0819052655af3107a4000808252600584905560069290925560079290925560089190915560095534801561004e575f80fd5b5060405161142038038061142083398101604081905261006d916100e9565b5f80546001600160a01b03199081166001600160a01b0397881617909155600180548216958716959095179094556002805485169386169390931790925560038054841691851691909117905560048054909216921691909117905561014a565b80516001600160a01b03811681146100e4575f80fd5b919050565b5f805f805f60a086880312156100fd575f80fd5b610106866100ce565b9450610114602087016100ce565b9350610122604087016100ce565b9250610130606087016100ce565b915061013e608087016100ce565b90509295509295909350565b6112c9806101575f395ff3fe60806040526004361061008f575f3560e01c80638406c079116100575780638406c0791461016757806389a3027114610185578063c54e44eb146101ac578063dc38a179146101d3578063e0d05d39146101f2575f80fd5b806318546f1214610093578063206aeab3146100a85780634920cfea146100ec5780635df7eb901461011357806382092a7f14610140575b5f80fd5b6100a66100a1366004610d01565b610219565b005b3480156100b3575f80fd5b506100cf73888888888889758f76e7103c6cbf23abbf58f94681565b6040516001600160a01b0390911681526020015b60405180910390f35b3480156100f7575f80fd5b506100cf73d1d7d99764f8a52aff007b7831cc02748b2013b581565b34801561011e575f80fd5b5061013261012d366004610d2b565b610421565b6040519081526020016100e3565b34801561014b575f80fd5b506100cf736c9f097e044506712b58eac670c9a5fd4bccef1381565b348015610172575f80fd5b505f546100cf906001600160a01b031681565b348015610190575f80fd5b506100cf73a0b86991c6218b36c1d19d4a2e9eb0ce3606eb4881565b3480156101b7575f80fd5b506100cf73dac17f958d2ee523a2206206994597c13d831ec781565b3480156101de575f80fd5b506101326101ed366004610d2b565b61079a565b3480156101fd575f80fd5b506100cf739d39a5de30e57443bff2a8307a4256c8797a349781565b6001546001600160a01b039081169082160361029f5760025460035460405163474cf53d60e01b81526001600160a01b0391821660048201523060248201525f604482015291169063474cf53d9034906064015f604051808303818588803b158015610283575f80fd5b505af1158015610295573d5f803e3d5ffd5b5050505050610382565b60035460405163095ea7b360e01b81526001600160a01b039182166004820152602481018490529082169063095ea7b3906044016020604051808303815f875af11580156102ef573d5f803e3d5ffd5b505050506040513d601f19601f820116820180604052508101906103139190610d64565b5060035460405163617ba03760e01b81526001600160a01b038381166004830152602482018590523060448301525f60648301529091169063617ba037906084015f604051808303815f87803b15801561036b575f80fd5b505af115801561037d573d5f803e3d5ffd5b505050505b600480545f54604051630c04a8a160e41b81526001600160a01b03918216938101939093525f196024840152169063c04a8a10906044015f604051808303815f87803b1580156103d0575f80fd5b505af11580156103e2573d5f803e3d5ffd5b50506040518492506001600160a01b038416915030907f75134c5a30206e01639de7bebafb4f915e3e6cef465a59b1424e26ea3c9faeb7905f90a45050565b5f808073a0b86991c6218b36c1d19d4a2e9eb0ce3606eb47196001600160a01b038516016105105761046e604051806040016040528060048152602001636865726560e01b8152506109fc565b6104a373a0b86991c6218b36c1d19d4a2e9eb0ce3606eb48739d39a5de30e57443bff2a8307a4256c8797a3497878985610a42565b91506104db60405180604001604052806014815260200173039aaa9a232a7baba1016903ab734b9bbb0b81d160651b81525083610bce565b60405162461bcd60e51b815260206004820152600660248201526568657265313760d01b604482015260640160405180910390fd5b60405163095ea7b360e01b815273888888888889758f76e7103c6cbf23abbf58f946600482015260248101839052739d39a5de30e57443bff2a8307a4256c8797a34979063095ea7b3906044016020604051808303815f875af1158015610579573d5f803e3d5ffd5b505050506040513d601f19601f8201168201806040525081019061059d9190610d64565b505f8073888888888889758f76e7103c6cbf23abbf58f9466001600160a01b031663c81f847a8873d1d7d99764f8a52aff007b7831cc02748b2013b58560056106f98a600a6040518060800160405290815f82015f9054906101000a900460ff16600381111561060f5761060f610d8a565b600381111561062057610620610d8a565b8152815461010090046001600160a01b0316602082015260018201805460409092019161064c90610d9e565b80601f016020809104026020016040519081016040528092919081815260200182805461067890610d9e565b80156106c35780601f1061069a576101008083540402835291602001916106c3565b820191905f5260205f20905b8154815290600101906020018083116106a657829003601f168201915b50505091835250506002919091015460ff161515602090910152739d39a5de30e57443bff2a8307a4256c8797a34979190610c17565b600d6040518763ffffffff1660e01b815260040161071c96959493929190611101565b6060604051808303815f875af1158015610738573d5f803e3d5ffd5b505050506040513d601f19601f8201168201806040525081019061075c9190611177565b5050905061078f6040518060400160405280600d81526020016c030b6b7bab73a27baba282a1d1609d1b81525082610bce565b979650505050505050565b60405163095ea7b360e01b815273888888888889758f76e7103c6cbf23abbf58f9466004820152602481018490525f90736c9f097e044506712b58eac670c9a5fd4bccef139063095ea7b3906044016020604051808303815f875af1158015610805573d5f803e3d5ffd5b505050506040513d601f19601f820116820180604052508101906108299190610d64565b505f61085a6040518060400160405280600d81526020016c030b6b7bab73a24b7282a2f9d1609d1b81525086610bce565b5f73888888888889758f76e7103c6cbf23abbf58f9466001600160a01b031663594a88cc3073d1d7d99764f8a52aff007b7831cc02748b2013b5896108c887600a6040518060800160405290815f82015f9054906101000a900460ff16600381111561060f5761060f610d8a565b600d6040518663ffffffff1660e01b81526004016108ea9594939291906111a2565b6060604051808303815f875af1158015610906573d5f803e3d5ffd5b505050506040513d601f19601f8201168201806040525081019061092a9190611177565b5050905061096360405180604001604052806013815260200172030b6b7bab73a27baba10169039aaa9a2329d1606d1b81525082610bce565b5f73a0b86991c6218b36c1d19d4a2e9eb0ce3606eb47196001600160a01b038716016109c1576109be739d39a5de30e57443bff2a8307a4256c8797a349773a0b86991c6218b36c1d19d4a2e9eb0ce3606eb48878587610a42565b90505b6109f26040518060400160405280600f81526020016e030b6b7bab73a27baba2aa9a2219d1608d1b81525082610bce565b5050509392505050565b610a3f81604051602401610a1091906111f2565b60408051601f198184030181529190526020810180516001600160e01b031663104c13eb60e21b179052610c55565b50565b60405163095ea7b360e01b815273e592427a0aece92de3edee1f18e0157c0586156460048201819052602482018490525f916001600160a01b0388169063095ea7b3906044016020604051808303815f875af1158015610aa4573d5f803e3d5ffd5b505050506040513d601f19601f82011682018060405250810190610ac89190610d64565b506040805160a081018252606089811b6bffffffffffffffffffffffff1990811660c0840152607d60ea1b60d4840181905273dac17f958d2ee523a2206206994597c13d831ec760601b60d785015260eb84015289821b1660ee830152825160e28184030181526101028301845282526001600160a01b038089166020840152428385015290820187905260808201869052915163c04b8d5960e01b81526101f49284169063c04b8d5990610b81908490600401611204565b6020604051808303815f875af1158015610b9d573d5f803e3d5ffd5b505050506040513d601f19601f82011682018060405250810190610bc1919061125b565b9998505050505050505050565b610c138282604051602401610be4929190611272565b60408051601f198184030181529190526020810180516001600160e01b03166309710a9d60e41b179052610c55565b5050565b610c1f610c79565b506040805160a0810182526001600160a01b039490941680855260208501939093528301919091525f6060830152608082015290565b610a3f8180516a636f6e736f6c652e6c6f67602083015f808483855afa5050505050565b6040518060a001604052805f6001600160a01b031681526020015f81526020015f6001600160a01b031681526020015f6001600160a01b03168152602001610ce16040805160808101909152805f81525f602082018190526060604083018190529091015290565b905290565b80356001600160a01b0381168114610cfc575f80fd5b919050565b5f8060408385031215610d12575f80fd5b82359150610d2260208401610ce6565b90509250929050565b5f805f60608486031215610d3d575f80fd5b83359250610d4d60208501610ce6565b9150610d5b60408501610ce6565b90509250925092565b5f60208284031215610d74575f80fd5b81518015158114610d83575f80fd5b9392505050565b634e487b7160e01b5f52602160045260245ffd5b600181811c90821680610db257607f821691505b602082108103610dd057634e487b7160e01b5f52602260045260245ffd5b50919050565b60048110610a3f57634e487b7160e01b5f52602160045260245ffd5b5f81518084525f5b81811015610e1657602081850181015186830182015201610dfa565b505f602082860101526020601f19601f83011685010191505092915050565b60018060a01b0381511682526020810151602083015260018060a01b03604082015116604083015260018060a01b0360608201511660608301525f608082015160a060808501528051610e8781610dd6565b60a085015260208101516001600160a01b031660c08501526040810151608060e0860152610eb9610120860182610df2565b905060608201511515610100860152809250505092915050565b610edc81610dd6565b9052565b80545f90600181811c90821680610ef857607f821691505b602082108103610f1657634e487b7160e01b5f52602260045260245ffd5b81865260208601818015610f315760018114610f4757610f73565b60ff198516825283151560051b82019550610f73565b5f878152602090205f5b85811015610f6d57815484820152600190910190602001610f51565b83019650505b505050505092915050565b5f82825480855260208501945060208160051b830101845f5260205f205f5b8381101561109057601f19858403018852606083528154606084015260018201546080840152600282015460a08401526003820154610fe260c0850160ff8316610ed3565b6001600160a01b03600891821c811660e0860152600484015481166101008601526005840154811661012086015260068401541661014085015260078301546101608501528201546101808085019190915260098301546101a08501526101c08401526110566101e08401600a8401610ee0565b838103602085015261106b81600b8501610ee0565b600c840154604095909501949094525060209790970196600d90910190600101610f9d565b50909695505050505050565b80546001600160a01b031682526001810154602083015260a0604083018190525f906110cd90840160028401610f7e565b83810360608501526110e28160038501610f7e565b905083810360808501526110f98160048501610ee0565b949350505050565b6001600160a01b03878116825286166020820152604081018590528354606082015260018401546080820152600284015460a0820152600384015460c0820152600484015460e082015261014061010082018190525f9061116490830185610e35565b828103610120840152610bc1818561109c565b5f805f60608486031215611189575f80fd5b5050815160208301516040909301519094929350919050565b6001600160a01b038681168252851660208201526040810184905260a0606082018190525f906111d490830185610e35565b82810360808401526111e6818561109c565b98975050505050505050565b602081525f610d836020830184610df2565b602081525f825160a0602084015261121f60c0840182610df2565b905060018060a01b0360208501511660408401526040840151606084015260608401516080840152608084015160a08401528091505092915050565b5f6020828403121561126b575f80fd5b5051919050565b604081525f6112846040830185610df2565b9050826020830152939250505056fea26469706673582212207e9ee98b3894cf8503460e2f1da1f42a18034fc4c2a2095fec391c127d447a4364736f6c634300081a0033","linkReferences":{}},"methodIdentifiers":{"USDC()":"89a30271","USDT()":"c54e44eb","buyPT(uint256,address,address)":"5df7eb90","depositInAave(uint256,address)":"18546f12","pendleRouter()":"206aeab3","relayer()":"8406c079","sUSDe()":"e0d05d39","sUSDeMarket()":"4920cfea","sUSDe_PT_26SEP()":"82092a7f","sellPT(uint256,address,address)":"dc38a179"},"id":4}