{"abi":[{"type":"function","name":"delegateCredit","inputs":[],"outputs":[],"stateMutability":"nonpayable"},{"type":"function","name":"depositInAave","inputs":[],"outputs":[],"stateMutability":"payable"}],"bytecode":{"object":"0x6080604052348015600e575f80fd5b506102098061001c5f395ff3fe608060405260043610610028575f3560e01c8063de407d8f1461002c578063eb3ff01714610036575b5f80fd5b610034610041565b005b348015610034575f80fd5b60405163474cf53d60e01b81527387870bca3f3fd6335c3f4ce8392d69350b4fa4e2600482018190523360248301525f604483015273893411580e590d62ddbca8a703d61cc4a8c7b2b991829063474cf53d9034906064015f604051808303818588803b1580156100b0575f80fd5b505af11580156100c2573d5f803e3d5ffd5b50505050506101066040518060400160405280601881526020017f6d73672e73656e646572202d206f7a4469616d6f6e643a2000000000000000008152503361010a565b5050565b6101068282604051602401610120929190610176565b60408051601f198184030181529190526020810180516001600160e01b031663319af33360e01b17905261015381610156565b50565b80516a636f6e736f6c652e6c6f67602083015f808483855afa5050505050565b604081525f83518060408401525f5b818110156101a25760208187018101516060868401015201610185565b505f60608285018101919091526001600160a01b03949094166020840152601f01601f19169091019091019291505056fea2646970667358221220c14f198674fa4b2768c9c7804717863285b1b24c1d921e23dab3abdba1722b8864736f6c634300081a0033","linkReferences":{}},"methodIdentifiers":{"delegateCredit()":"eb3ff017","depositInAave()":"de407d8f"},"id":2}