{"abi":[{"type":"constructor","inputs":[{"name":"relayer_","type":"address","internalType":"address"},{"name":"eth_","type":"address","internalType":"address"},{"name":"aaveGW_","type":"address","internalType":"address"},{"name":"aavePool_","type":"address","internalType":"address"},{"name":"aaveDebtUsdc_","type":"address","internalType":"address"}],"stateMutability":"nonpayable"},{"type":"function","name":"USDC","inputs":[],"outputs":[{"name":"","type":"address","internalType":"contract IERC20"}],"stateMutability":"view"},{"type":"function","name":"USDT","inputs":[],"outputs":[{"name":"","type":"address","internalType":"contract IERC20"}],"stateMutability":"view"},{"type":"function","name":"buyPT","inputs":[{"name":"amountIn_","type":"uint256","internalType":"uint256"},{"name":"intAccount_","type":"address","internalType":"address"},{"name":"tokenIn_","type":"address","internalType":"address"}],"outputs":[{"name":"","type":"uint256","internalType":"uint256"}],"stateMutability":"nonpayable"},{"type":"function","name":"depositInAave","inputs":[{"name":"amountIn_","type":"uint256","internalType":"uint256"},{"name":"tokenIn_","type":"address","internalType":"address"}],"outputs":[],"stateMutability":"payable"},{"type":"function","name":"pendleRouter","inputs":[],"outputs":[{"name":"","type":"address","internalType":"contract IPAllActionV3"}],"stateMutability":"view"},{"type":"function","name":"relayer","inputs":[],"outputs":[{"name":"","type":"address","internalType":"address"}],"stateMutability":"view"},{"type":"function","name":"sUSDe","inputs":[],"outputs":[{"name":"","type":"address","internalType":"contract IERC20"}],"stateMutability":"view"},{"type":"function","name":"sUSDeMarket","inputs":[],"outputs":[{"name":"","type":"address","internalType":"contract IPMarket"}],"stateMutability":"view"},{"type":"event","name":"FundsDelegated","inputs":[{"name":"internalAccount","type":"address","indexed":true,"internalType":"address"},{"name":"depositToken","type":"address","indexed":true,"internalType":"address"},{"name":"amount","type":"uint256","indexed":true,"internalType":"uint256"}],"anonymous":false}],"bytecode":{"object":"0x6101206040525f60808190525f1960a081905260c082905261010060e0819052655af3107a4000808252600584905560069290925560079290925560089190915560095534801561004e575f80fd5b50604051610f71380380610f7183398101604081905261006d916100e9565b5f80546001600160a01b03199081166001600160a01b0397881617909155600180548216958716959095179094556002805485169386169390931790925560038054841691851691909117905560048054909216921691909117905561014a565b80516001600160a01b03811681146100e4575f80fd5b919050565b5f805f805f60a086880312156100fd575f80fd5b610106866100ce565b9450610114602087016100ce565b9350610122604087016100ce565b9250610130606087016100ce565b915061013e608087016100ce565b90509295509295909350565b610e1a806101575f395ff3fe608060405260043610610079575f3560e01c80638406c0791161004c5780638406c0791461012a57806389a3027114610148578063c54e44eb1461016f578063e0d05d3914610196575f80fd5b806318546f121461007d578063206aeab3146100925780634920cfea146100d65780635df7eb90146100fd575b5f80fd5b61009061008b3660046108d2565b6101bd565b005b34801561009d575f80fd5b506100b973888888888889758f76e7103c6cbf23abbf58f94681565b6040516001600160a01b0390911681526020015b60405180910390f35b3480156100e1575f80fd5b506100b973d1d7d99764f8a52aff007b7831cc02748b2013b581565b348015610108575f80fd5b5061011c6101173660046108fc565b6103c5565b6040519081526020016100cd565b348015610135575f80fd5b505f546100b9906001600160a01b031681565b348015610153575f80fd5b506100b973a0b86991c6218b36c1d19d4a2e9eb0ce3606eb4881565b34801561017a575f80fd5b506100b973dac17f958d2ee523a2206206994597c13d831ec781565b3480156101a1575f80fd5b506100b9739d39a5de30e57443bff2a8307a4256c8797a349781565b6001546001600160a01b03908116908216036102435760025460035460405163474cf53d60e01b81526001600160a01b0391821660048201523060248201525f604482015291169063474cf53d9034906064015f604051808303818588803b158015610227575f80fd5b505af1158015610239573d5f803e3d5ffd5b5050505050610326565b60035460405163095ea7b360e01b81526001600160a01b039182166004820152602481018490529082169063095ea7b3906044016020604051808303815f875af1158015610293573d5f803e3d5ffd5b505050506040513d601f19601f820116820180604052508101906102b79190610935565b5060035460405163617ba03760e01b81526001600160a01b038381166004830152602482018590523060448301525f60648301529091169063617ba037906084015f604051808303815f87803b15801561030f575f80fd5b505af1158015610321573d5f803e3d5ffd5b505050505b600480545f54604051630c04a8a160e41b81526001600160a01b03918216938101939093525f196024840152169063c04a8a10906044015f604051808303815f87803b158015610374575f80fd5b505af1158015610386573d5f803e3d5ffd5b50506040518492506001600160a01b038416915030907f75134c5a30206e01639de7bebafb4f915e3e6cef465a59b1424e26ea3c9faeb7905f90a45050565b5f808073a0b86991c6218b36c1d19d4a2e9eb0ce3606eb47196001600160a01b038516016104255761042273a0b86991c6218b36c1d19d4a2e9eb0ce3606eb48739d39a5de30e57443bff2a8307a4256c8797a3497878985610680565b91505b60405163095ea7b360e01b815273888888888889758f76e7103c6cbf23abbf58f946600482015260248101839052739d39a5de30e57443bff2a8307a4256c8797a34979063095ea7b3906044016020604051808303815f875af115801561048e573d5f803e3d5ffd5b505050506040513d601f19601f820116820180604052508101906104b29190610935565b505f8073888888888889758f76e7103c6cbf23abbf58f9466001600160a01b031663c81f847a8873d1d7d99764f8a52aff007b7831cc02748b2013b585600561060e8a600a6040518060800160405290815f82015f9054906101000a900460ff1660038111156105245761052461095b565b60038111156105355761053561095b565b8152815461010090046001600160a01b031660208201526001820180546040909201916105619061096f565b80601f016020809104026020016040519081016040528092919081815260200182805461058d9061096f565b80156105d85780601f106105af576101008083540402835291602001916105d8565b820191905f5260205f20905b8154815290600101906020018083116105bb57829003601f168201915b50505091835250506002919091015460ff161515602090910152739d39a5de30e57443bff2a8307a4256c8797a3497919061080c565b600d6040518763ffffffff1660e01b815260040161063196959493929190610cd5565b6060604051808303815f875af115801561064d573d5f803e3d5ffd5b505050506040513d601f19601f820116820180604052508101906106719190610d4b565b50909998505050505050505050565b60405163095ea7b360e01b815273e592427a0aece92de3edee1f18e0157c0586156460048201819052602482018490525f916001600160a01b0388169063095ea7b3906044016020604051808303815f875af11580156106e2573d5f803e3d5ffd5b505050506040513d601f19601f820116820180604052508101906107069190610935565b506040805160a081018252606089811b6bffffffffffffffffffffffff1990811660c0840152607d60ea1b60d4840181905273dac17f958d2ee523a2206206994597c13d831ec760601b60d785015260eb84015289821b1660ee830152825160e28184030181526101028301845282526001600160a01b038089166020840152428385015290820187905260808201869052915163c04b8d5960e01b81526101f49284169063c04b8d59906107bf908490600401610d76565b6020604051808303815f875af11580156107db573d5f803e3d5ffd5b505050506040513d601f19601f820116820180604052508101906107ff9190610dcd565b9998505050505050505050565b61081461084a565b506040805160a0810182526001600160a01b039490941680855260208501939093528301919091525f6060830152608082015290565b6040518060a001604052805f6001600160a01b031681526020015f81526020015f6001600160a01b031681526020015f6001600160a01b031681526020016108b26040805160808101909152805f81525f602082018190526060604083018190529091015290565b905290565b80356001600160a01b03811681146108cd575f80fd5b919050565b5f80604083850312156108e3575f80fd5b823591506108f3602084016108b7565b90509250929050565b5f805f6060848603121561090e575f80fd5b8335925061091e602085016108b7565b915061092c604085016108b7565b90509250925092565b5f60208284031215610945575f80fd5b81518015158114610954575f80fd5b9392505050565b634e487b7160e01b5f52602160045260245ffd5b600181811c9082168061098357607f821691505b6020821081036109a157634e487b7160e01b5f52602260045260245ffd5b50919050565b600481106109c357634e487b7160e01b5f52602160045260245ffd5b50565b5f81518084525f5b818110156109ea576020818501810151868301820152016109ce565b505f602082860101526020601f19601f83011685010191505092915050565b60018060a01b0381511682526020810151602083015260018060a01b03604082015116604083015260018060a01b0360608201511660608301525f608082015160a060808501528051610a5b816109a7565b60a085015260208101516001600160a01b031660c08501526040810151608060e0860152610a8d6101208601826109c6565b905060608201511515610100860152809250505092915050565b610ab0816109a7565b9052565b80545f90600181811c90821680610acc57607f821691505b602082108103610aea57634e487b7160e01b5f52602260045260245ffd5b81865260208601818015610b055760018114610b1b57610b47565b60ff198516825283151560051b82019550610b47565b5f878152602090205f5b85811015610b4157815484820152600190910190602001610b25565b83019650505b505050505092915050565b5f82825480855260208501945060208160051b830101845f5260205f205f5b83811015610c6457601f19858403018852606083528154606084015260018201546080840152600282015460a08401526003820154610bb660c0850160ff8316610aa7565b6001600160a01b03600891821c811660e0860152600484015481166101008601526005840154811661012086015260068401541661014085015260078301546101608501528201546101808085019190915260098301546101a08501526101c0840152610c2a6101e08401600a8401610ab4565b8381036020850152610c3f81600b8501610ab4565b600c840154604095909501949094525060209790970196600d90910190600101610b71565b50909695505050505050565b80546001600160a01b031682526001810154602083015260a0604083018190525f90610ca190840160028401610b52565b8381036060850152610cb68160038501610b52565b90508381036080850152610ccd8160048501610ab4565b949350505050565b6001600160a01b03878116825286166020820152604081018590528354606082015260018401546080820152600284015460a0820152600384015460c0820152600484015460e082015261014061010082018190525f90610d3890830185610a09565b8281036101208401526107ff8185610c70565b5f805f60608486031215610d5d575f80fd5b5050815160208301516040909301519094929350919050565b602081525f825160a06020840152610d9160c08401826109c6565b905060018060a01b0360208501511660408401526040840151606084015260608401516080840152608084015160a08401528091505092915050565b5f60208284031215610ddd575f80fd5b505191905056fea264697066735822122069774376a1a1f22a3eb5a973899ae7654d9b7c18f89564f839b2a33d1ca4291b64736f6c634300081a0033","linkReferences":{}},"methodIdentifiers":{"USDC()":"89a30271","USDT()":"c54e44eb","buyPT(uint256,address,address)":"5df7eb90","depositInAave(uint256,address)":"18546f12","pendleRouter()":"206aeab3","relayer()":"8406c079","sUSDe()":"e0d05d39","sUSDeMarket()":"4920cfea"},"id":2}