{"abi":[{"type":"constructor","inputs":[{"name":"relayer_","type":"address","internalType":"address"}],"stateMutability":"nonpayable"},{"type":"function","name":"borrowInternal","inputs":[{"name":"amount_","type":"uint256","internalType":"uint256"},{"name":"receiver_","type":"address","internalType":"address"}],"outputs":[],"stateMutability":"nonpayable"},{"type":"function","name":"delegateCredit","inputs":[],"outputs":[],"stateMutability":"nonpayable"},{"type":"function","name":"depositInAave","inputs":[],"outputs":[],"stateMutability":"payable"},{"type":"function","name":"relayer","inputs":[],"outputs":[{"name":"","type":"address","internalType":"address"}],"stateMutability":"view"}],"bytecode":{"object":"0x6080604052348015600e575f80fd5b50604051610a41380380610a41833981016040819052602b91604e565b5f80546001600160a01b0319166001600160a01b03929092169190911790556079565b5f60208284031215605d575f80fd5b81516001600160a01b03811681146072575f80fd5b9392505050565b6109bb806100865f395ff3fe60806040526004361061003e575f3560e01c806349292abd146100425780638406c07914610063578063de407d8f1461009d578063eb3ff017146100a5575b5f80fd5b34801561004d575f80fd5b5061006161005c3660046107d5565b6100b0565b005b34801561006e575f80fd5b505f54610081906001600160a01b031681565b6040516001600160a01b03909116815260200160405180910390f35b61006161042c565b348015610061575f80fd5b60408051808201909152601a81527f73656e64657220696e20626f72726f77496e7465726e616c3a20000000000000602082015273893411580e590d62ddbca8a703d61cc4a8c7b2b9907387870bca3f3fd6335c3f4ce8392d69350b4fa4e29073a0b86991c6218b36c1d19d4a2e9eb0ce3606eb4890339061013290826106dd565b604080518082018252601a81527f6f7a20757364632062616c202d2070726520626f72726f773a20000000000000602082015290516370a0823160e01b81526001600160a01b038381166004830152600292737c8999dc9a822c1f0df42023113edb4fdd543266926101ef928716906370a08231906024015b602060405180830381865afa1580156101c6573d5f803e3d5ffd5b505050506040513d601f19601f820116820180604052508101906101ea919061080e565b610726565b610237604051806060016040528060228152602001610941602291396040516370a0823160e01b81523060048201526001600160a01b038716906370a08231906024016101ab565b604080518082018252601d81527f6f776e657220757364632062616c202d2070726520626f72726f773a20000000602082015290516370a0823160e01b81526001600160a01b03838116600483015261029d9291908716906370a08231906024016101ab565b60405163a415bcad60e01b81526001600160a01b038581166004830152602482018a9052604482018490525f606483015230608483015286169063a415bcad9060a4015f604051808303815f87803b1580156102f7575f80fd5b505af1158015610309573d5f803e3d5ffd5b5050604080518082018252601b81527f6f7a20757364632062616c202d20706f737420626f72726f773a200000000000602082015290516370a0823160e01b81526001600160a01b0387811660048301526103749450919250908716906370a08231906024016101ab565b6103bc604051806060016040528060238152602001610963602391396040516370a0823160e01b81523060048201526001600160a01b038716906370a08231906024016101ab565b604080518082018252601e81527f6f776e657220757364632062616c202d20706f737420626f72726f773a200000602082015290516370a0823160e01b81526001600160a01b0383811660048301526104229291908716906370a08231906024016101ab565b5050505050505050565b60405163474cf53d60e01b81527387870bca3f3fd6335c3f4ce8392d69350b4fa4e2600482018190523060248301525f604483015273893411580e590d62ddbca8a703d61cc4a8c7b2b991829063474cf53d9034906064015f604051808303818588803b15801561049b575f80fd5b505af11580156104ad573d5f803e3d5ffd5b50505050506104f16040518060400160405280601881526020017f6d73672e73656e646572202d206f7a4469616d6f6e643a200000000000000000815250336106dd565b61051c60405180604001604052806009815260200168034b73a1030b1b19d160bd1b815250306106dd565b604051632fe4a15f60e21b81523060048201525f906001600160a01b0383169063bf92857c9060240160c060405180830381865afa158015610560573d5f803e3d5ffd5b505050506040513d601f19601f820116820180604052508101906105849190610825565b505050925050506105ad6040518060600160405280602f8152602001610912602f913982610726565b6105c460405180602001604052805f81525061076b565b6106026040518060400160405280601781526020017f2d2d2d2064656c656761746520637265646974202d2d2d00000000000000000081525061076b565b61061960405180602001604052805f81525061076b565b61064c60405180604001604052806011815260200170036b9b39739b2b73232b910169037bd1d1607d1b815250336106dd565b5f54604051630c04a8a160e41b81526001600160a01b0390911660048201525f19602482015273c7183455a4c133ae270771860664b6b7ec320bb1907372e95b8931767c79ba4eee721354d6e99a61d00490819063c04a8a10906044015f604051808303815f87803b1580156106c0575f80fd5b505af11580156106d2573d5f803e3d5ffd5b505050505050505050565b61072282826040516024016106f39291906108ae565b60408051601f198184030181529190526020810180516001600160e01b031663319af33360e01b1790526107b1565b5050565b610722828260405160240161073c9291906108d7565b60408051601f198184030181529190526020810180516001600160e01b03166309710a9d60e41b1790526107b1565b6107ae8160405160240161077f91906108f8565b60408051601f198184030181529190526020810180516001600160e01b031663104c13eb60e21b1790526107b1565b50565b6107ae8180516a636f6e736f6c652e6c6f67602083015f808483855afa5050505050565b5f80604083850312156107e6575f80fd5b8235915060208301356001600160a01b0381168114610803575f80fd5b809150509250929050565b5f6020828403121561081e575f80fd5b5051919050565b5f805f805f8060c0878903121561083a575f80fd5b50508451602086015160408701516060880151608089015160a090990151939a929950909790965094509092509050565b5f81518084525f5b8181101561088f57602081850181015186830182015201610873565b505f602082860101526020601f19601f83011685010191505092915050565b604081525f6108c0604083018561086b565b905060018060a01b03831660208301529392505050565b604081525f6108e9604083018561086b565b90508260208301529392505050565b602081525f61090a602083018461086b565b939250505056fe617661696c61626c65426f72726f777342617365202d20696e7420616363202d207072652064656c65676174653a20696e744163636f756e7420757364632062616c202d2070726520626f72726f773a20696e744163636f756e7420757364632062616c202d20706f737420626f72726f773a20a2646970667358221220a923135097ec7a3ac465b60ed092aecd96f2afde135f67fdf67918bdb154774f64736f6c634300081a0033","linkReferences":{}},"methodIdentifiers":{"borrowInternal(uint256,address)":"49292abd","delegateCredit()":"eb3ff017","depositInAave()":"de407d8f","relayer()":"8406c079"},"id":2}