{"abi":[{"type":"constructor","inputs":[{"name":"relayer_","type":"address","internalType":"address"},{"name":"eth_","type":"address","internalType":"address"},{"name":"aaveGW_","type":"address","internalType":"address"},{"name":"aavePool_","type":"address","internalType":"address"},{"name":"aaveDebtUsdc_","type":"address","internalType":"address"}],"stateMutability":"nonpayable"},{"type":"function","name":"USDC","inputs":[],"outputs":[{"name":"","type":"address","internalType":"contract IERC20"}],"stateMutability":"view"},{"type":"function","name":"USDT","inputs":[],"outputs":[{"name":"","type":"address","internalType":"contract IERC20"}],"stateMutability":"view"},{"type":"function","name":"buyPT","inputs":[{"name":"amountIn_","type":"uint256","internalType":"uint256"},{"name":"intAcc_","type":"address","internalType":"address"},{"name":"tokenIn_","type":"address","internalType":"address"}],"outputs":[{"name":"","type":"uint256","internalType":"uint256"}],"stateMutability":"nonpayable"},{"type":"function","name":"depositInAave","inputs":[{"name":"amountIn_","type":"uint256","internalType":"uint256"},{"name":"tokenIn_","type":"address","internalType":"address"}],"outputs":[],"stateMutability":"payable"},{"type":"function","name":"pendleRouter","inputs":[],"outputs":[{"name":"","type":"address","internalType":"contract IPAllActionV3"}],"stateMutability":"view"},{"type":"function","name":"relayer","inputs":[],"outputs":[{"name":"","type":"address","internalType":"address"}],"stateMutability":"view"},{"type":"function","name":"sUSDe","inputs":[],"outputs":[{"name":"","type":"address","internalType":"contract IERC20"}],"stateMutability":"view"},{"type":"function","name":"sUSDeMarket","inputs":[],"outputs":[{"name":"","type":"address","internalType":"contract IPMarket"}],"stateMutability":"view"},{"type":"function","name":"sellPT","inputs":[{"name":"amountInPT_","type":"uint256","internalType":"uint256"},{"name":"intAcc_","type":"address","internalType":"address"},{"name":"tokenOut_","type":"address","internalType":"address"}],"outputs":[{"name":"","type":"uint256","internalType":"uint256"}],"stateMutability":"nonpayable"},{"type":"event","name":"FundsDelegated","inputs":[{"name":"internalAccount","type":"address","indexed":true,"internalType":"address"},{"name":"depositToken","type":"address","indexed":true,"internalType":"address"},{"name":"amount","type":"uint256","indexed":true,"internalType":"uint256"}],"anonymous":false}],"bytecode":{"object":"0x6101206040525f60808190525f1960a081905260c082905261010060e0819052655af3107a4000808252600584905560069290925560079290925560089190915560095534801561004e575f80fd5b50604051611d9c380380611d9c83398101604081905261006d916100e9565b5f80546001600160a01b03199081166001600160a01b0397881617909155600180548216958716959095179094556002805485169386169390931790925560038054841691851691909117905560048054909216921691909117905561014a565b80516001600160a01b03811681146100e4575f80fd5b919050565b5f805f805f60a086880312156100fd575f80fd5b610106866100ce565b9450610114602087016100ce565b9350610122604087016100ce565b9250610130606087016100ce565b915061013e608087016100ce565b90509295509295909350565b611c45806101575f395ff3fe608060405260043610610084575f3560e01c80638406c079116100575780638406c0791461013557806389a3027114610153578063c54e44eb1461017a578063dc38a179146101a1578063e0d05d39146101c3575f80fd5b806318546f1214610088578063206aeab31461009d5780634920cfea146100e15780635df7eb9014610108575b5f80fd5b61009b610096366004611465565b6101ea565b005b3480156100a8575f80fd5b506100c473888888888889758f76e7103c6cbf23abbf58f94681565b6040516001600160a01b0390911681526020015b60405180910390f35b3480156100ec575f80fd5b506100c473d1d7d99764f8a52aff007b7831cc02748b2013b581565b348015610113575f80fd5b50610127610122366004611493565b6103f2565b6040519081526020016100d8565b348015610140575f80fd5b505f546100c4906001600160a01b031681565b34801561015e575f80fd5b506100c473a0b86991c6218b36c1d19d4a2e9eb0ce3606eb4881565b348015610185575f80fd5b506100c473dac17f958d2ee523a2206206994597c13d831ec781565b3480156101ac575f80fd5b506101276101bb366004611493565b5f9392505050565b3480156101ce575f80fd5b506100c4739d39a5de30e57443bff2a8307a4256c8797a349781565b6001546001600160a01b03908116908216036102705760025460035460405163474cf53d60e01b81526001600160a01b0391821660048201523060248201525f604482015291169063474cf53d9034906064015f604051808303818588803b158015610254575f80fd5b505af1158015610266573d5f803e3d5ffd5b5050505050610353565b60035460405163095ea7b360e01b81526001600160a01b039182166004820152602481018490529082169063095ea7b3906044016020604051808303815f875af11580156102c0573d5f803e3d5ffd5b505050506040513d601f19601f820116820180604052508101906102e491906114d2565b5060035460405163617ba03760e01b81526001600160a01b038381166004830152602482018590523060448301525f60648301529091169063617ba037906084015f604051808303815f87803b15801561033c575f80fd5b505af115801561034e573d5f803e3d5ffd5b505050505b600480545f54604051630c04a8a160e41b81526001600160a01b03918216938101939093525f196024840152169063c04a8a10906044015f604051808303815f87803b1580156103a1575f80fd5b505af11580156103b3573d5f803e3d5ffd5b50506040518492506001600160a01b038416915030907f75134c5a30206e01639de7bebafb4f915e3e6cef465a59b1424e26ea3c9faeb7905f90a45050565b5f805f61040c60405180602001604052805f81525061080d565b61043f604051806040016040528060128152602001712d2d2d20696e2062757950542829202d2d2d60701b81525061080d565b61047360405180604001604052806012815260200171030b6b7bab73a24b72f9016903ab9b2319d160751b81525087610853565b73a0b86991c6218b36c1d19d4a2e9eb0ce3606eb47196001600160a01b038516016104d0576104cd73a0b86991c6218b36c1d19d4a2e9eb0ce3606eb48739d39a5de30e57443bff2a8307a4256c8797a349787898561089c565b91505b60405163095ea7b360e01b815273888888888889758f76e7103c6cbf23abbf58f946600482015260248101839052739d39a5de30e57443bff2a8307a4256c8797a34979063095ea7b3906044016020604051808303815f875af1158015610539573d5f803e3d5ffd5b505050506040513d601f19601f8201168201806040525081019061055d91906114d2565b505f8073888888888889758f76e7103c6cbf23abbf58f9466001600160a01b031663c81f847a8873d1d7d99764f8a52aff007b7831cc02748b2013b58560056106b98a600a6040518060800160405290815f82015f9054906101000a900460ff1660038111156105cf576105cf6114f1565b60038111156105e0576105e06114f1565b8152815461010090046001600160a01b0316602082015260018201805460409092019161060c90611505565b80601f016020809104026020016040519081016040528092919081815260200182805461063890611505565b80156106835780601f1061065a57610100808354040283529160200191610683565b820191905f5260205f20905b81548152906001019060200180831161066657829003601f168201915b50505091835250506002919091015460ff161515602090910152739d39a5de30e57443bff2a8307a4256c8797a34979190610a28565b600d6040518763ffffffff1660e01b81526004016106dc96959493929190611860565b6060604051808303815f875af11580156106f8573d5f803e3d5ffd5b505050506040513d601f19601f8201168201806040525081019061071c91906118d6565b5050905061074f6040518060400160405280600d81526020016c030b6b7bab73a27baba282a1d1609d1b81525082610853565b604080518082019091526012815271033b2ba283a2a37a0b9b9b2ba2930ba329d160751b6020820152600f906107a29061079d73d1d7d99764f8a52aff007b7831cc02748b2013b584610a66565b610853565b60408051808201909152600f81526e033b2ba283a2a37a9bca930ba329d1608d1b60208201526107ea9061079d73d1d7d99764f8a52aff007b7831cc02748b2013b584610ab6565b61080160405180602001604052805f81525061080d565b50979650505050505050565b610850816040516024016108219190611901565b60408051601f198184030181529190526020810180516001600160e01b031663104c13eb60e21b179052610aef565b50565b6108988282604051602401610869929190611913565b60408051601f198184030181529190526020810180516001600160e01b03166309710a9d60e41b179052610aef565b5050565b60405163095ea7b360e01b815273e592427a0aece92de3edee1f18e0157c0586156460048201819052602482018490525f916001600160a01b0388169063095ea7b3906044016020604051808303815f875af11580156108fe573d5f803e3d5ffd5b505050506040513d601f19601f8201168201806040525081019061092291906114d2565b506040805160a081018252606089811b6bffffffffffffffffffffffff1990811660c0840152607d60ea1b60d4840181905273dac17f958d2ee523a2206206994597c13d831ec760601b60d785015260eb84015289821b1660ee830152825160e28184030181526101028301845282526001600160a01b038089166020840152428385015290820187905260808201869052915163c04b8d5960e01b81526101f49284169063c04b8d59906109db908490600401611934565b6020604051808303815f875af11580156109f7573d5f803e3d5ffd5b505050506040513d601f19601f82011682018060405250810190610a1b919061198b565b9998505050505050505050565b610a306113e4565b506040805160a0810182526001600160a01b039490941680855260208501939093528301919091525f6060830152608082015290565b5f805f610a7285610af8565b91509150808210610a9057610a878585610d1b565b92505050610ab0565b8082610a9c8787610d1b565b610aa691906119b6565b610a8791906119e1565b92915050565b5f805f610ac285610af8565b91509150808210610ae157610a8782610adb8787610d1b565b90610de3565b610a8781610adb8787610d1b565b61085081610e11565b5f805f80846001600160a01b0316632c8ce6bc6040518163ffffffff1660e01b8152600401606060405180830381865afa158015610b38573d5f803e3d5ffd5b505050506040513d601f19601f82011682018060405250810190610b5c91906119f4565b9250509150816001600160a01b0316633ba0b9a96040518163ffffffff1660e01b8152600401602060405180830381865afa158015610b9d573d5f803e3d5ffd5b505050506040513d601f19601f82011682018060405250810190610bc1919061198b565b93505f816001600160a01b031663d2a3584e6040518163ffffffff1660e01b8152600401602060405180830381865afa158015610c00573d5f803e3d5ffd5b505050506040513d601f19601f82011682018060405250810190610c24919061198b565b9050816001600160a01b031663516399df6040518163ffffffff1660e01b8152600401602060405180830381865afa158015610c62573d5f803e3d5ffd5b505050506040513d601f19601f82011682018060405250810190610c8691906114d2565b8015610cf9575043826001600160a01b03166360e0a9e16040518163ffffffff1660e01b8152600401602060405180830381865afa158015610cca573d5f803e3d5ffd5b505050506040513d601f19601f82011682018060405250810190610cee9190611a33565b6001600160801b0316145b15610d0657809350610d13565b610d108582610e31565b93505b505050915091565b5f80836001600160a01b031663e184c9be6040518163ffffffff1660e01b8152600401602060405180830381865afa158015610d59573d5f803e3d5ffd5b505050506040513d601f19601f82011682018060405250810190610d7d919061198b565b9050428111610d9757670de0b6b3a7640000915050610ab0565b5f610da28585610e48565b90505f610daf4284611a59565b90505f610dc4610dbf8484610f67565b610fa7565b9050610dd8670de0b6b3a764000082610de3565b945050505050610ab0565b5f80610df7670de0b6b3a7640000856119b6565b9050828181610e0857610e086119cd565b04949350505050565b80516a636f6e736f6c652e6c6f67602083015f808483855afa5050505050565b5f818311610e3f5781610e41565b825b9392505050565b6040805160028082526060820183525f928392919060208301908036833701905050905082815f81518110610e7f57610e7f611a80565b63ffffffff9092166020928302919091019091015260405163883bdbfd60e01b81525f906001600160a01b0386169063883bdbfd90610ec2908590600401611a94565b5f60405180830381865afa158015610edc573d5f803e3d5ffd5b505050506040513d5f823e601f3d908101601f19168201604052610f039190810190611af7565b90508363ffffffff16815f81518110610f1e57610f1e611a80565b602002602001015182600181518110610f3957610f39611a80565b6020026020010151610f4b9190611bc2565b610f559190611be1565b6001600160d81b031695945050505050565b5f80610f786201518061016d6119b6565b610f8284866119b6565b610f8c91906119e1565b9050610f9f610f9a82610fb8565b610fcc565b949350505050565b5f80821215610fb4575f80fd5b5090565b5f6001600160ff1b03821115610fb4575f80fd5b5f680238fd42c5cf03ffff198212158015610ff0575068070c1cc73b00c800008213155b6110335760405162461bcd60e51b815260206004820152601060248201526f125b9d985b1a5908195e1c1bdb995b9d60821b604482015260640160405180910390fd5b5f82121561106a57611046825f03610fcc565b6ec097ce7bc90715b34b9f100000000081611063576110636119cd565b0592915050565b5f6806f05b59d3b200000083126110a957506806f05b59d3b1ffffff1990910190770195e54c5dd42177f53a27172fa9ec6302628270000000006110df565b6803782dace9d900000083126110db57506803782dace9d8ffffff19909101906b1425982cf597cd205cef73806110df565b5060015b6064929092029168056bc75e2d6310000068ad78ebc5ac62000000841261112f5768ad78ebc5ac61ffffff199093019268056bc75e2d631000006e01855144814a7ff805980ff008400082020590505b6856bc75e2d631000000841261116b576856bc75e2d630ffffff199093019268056bc75e2d631000006b02df0ab5a80a22c61ab5a70082020590505b682b5e3af16b1880000084126111a557682b5e3af16b187fffff199093019268056bc75e2d63100000693f1fce3da636ea5cf85082020590505b6815af1d78b58c40000084126111df576815af1d78b58c3fffff199093019268056bc75e2d63100000690127fa27722cc06cc5e282020590505b680ad78ebc5ac6200000841261121857680ad78ebc5ac61fffff199093019268056bc75e2d6310000068280e60114edb805d0382020590505b68056bc75e2d6310000084126112515768056bc75e2d630fffff199093019268056bc75e2d63100000680ebc5fb4174612111082020590505b6802b5e3af16b1880000841261128a576802b5e3af16b187ffff199093019268056bc75e2d631000006808f00f760a4b2db55d82020590505b68015af1d78b58c4000084126112c35768015af1d78b58c3ffff199093019268056bc75e2d631000006806f5f177578893793782020590505b68056bc75e2d631000008481019085906002908280020505918201919050600368056bc75e2d631000008783020505918201919050600468056bc75e2d631000008783020505918201919050600568056bc75e2d631000008783020505918201919050600668056bc75e2d631000008783020505918201919050600768056bc75e2d631000008783020505918201919050600868056bc75e2d631000008783020505918201919050600968056bc75e2d631000008783020505918201919050600a68056bc75e2d631000008783020505918201919050600b68056bc75e2d631000008783020505918201919050600c68056bc75e2d631000008783020505918201919050606468056bc75e2d63100000848402058502059695505050505050565b6040518060a001604052805f6001600160a01b031681526020015f81526020015f6001600160a01b031681526020015f6001600160a01b0316815260200161144c6040805160808101909152805f81525f602082018190526060604083018190529091015290565b905290565b6001600160a01b0381168114610850575f80fd5b5f8060408385031215611476575f80fd5b82359150602083013561148881611451565b809150509250929050565b5f805f606084860312156114a5575f80fd5b8335925060208401356114b781611451565b915060408401356114c781611451565b809150509250925092565b5f602082840312156114e2575f80fd5b81518015158114610e41575f80fd5b634e487b7160e01b5f52602160045260245ffd5b600181811c9082168061151957607f821691505b60208210810361153757634e487b7160e01b5f52602260045260245ffd5b50919050565b6004811061085057634e487b7160e01b5f52602160045260245ffd5b5f81518084525f5b8181101561157d57602081850181015186830182015201611561565b505f602082860101526020601f19601f83011685010191505092915050565b60018060a01b0381511682526020810151602083015260018060a01b03604082015116604083015260018060a01b0360608201511660608301525f608082015160a0608085015280516115ee8161153d565b60a085015260208101516001600160a01b031660c08501526040810151608060e0860152611620610120860182611559565b905060608201511515610100860152809250505092915050565b6116438161153d565b9052565b80545f90600181811c9082168061165f57607f821691505b60208210810361167d57634e487b7160e01b5f52602260045260245ffd5b8186526020860181801561169857600181146116ae576116da565b60ff198516825283151560051b820195506116da565b5f878152602090205f5b858110156116d4578154848201526001909101906020016116b8565b83019650505b505050505092915050565b5f82825480855260208501945060208160051b830101845f5260205f205f5b838110156117f757601f19858403018852606083528154606084015260018201546080840152600282015460a0840152600382015461174960c0850160ff831661163a565b6001600160a01b03600891821c811660e0860152600484015481166101008601526005840154811661012086015260068401541661014085015260078301546101608501528201546101808085019190915260098301546101a08501526101c08401526117bd6101e08401600a8401611647565b83810360208501526117d281600b8501611647565b600c840154604095909501949094525060209790970196600d90910190600101611704565b50909695505050505050565b80546001600160a01b031682526001810154602083015260a0604083018190525f90611834908401600284016116e5565b838103606085015261184981600385016116e5565b90508381036080850152610f9f8160048501611647565b6001600160a01b03878116825286166020820152604081018590528354606082015260018401546080820152600284015460a0820152600384015460c0820152600484015460e082015261014061010082018190525f906118c39083018561159c565b828103610120840152610a1b8185611803565b5f805f606084860312156118e8575f80fd5b5050815160208301516040909301519094929350919050565b602081525f610e416020830184611559565b604081525f6119256040830185611559565b90508260208301529392505050565b602081525f825160a0602084015261194f60c0840182611559565b905060018060a01b0360208501511660408401526040840151606084015260608401516080840152608084015160a08401528091505092915050565b5f6020828403121561199b575f80fd5b5051919050565b634e487b7160e01b5f52601160045260245ffd5b8082028115828204841417610ab057610ab06119a2565b634e487b7160e01b5f52601260045260245ffd5b5f826119ef576119ef6119cd565b500490565b5f805f60608486031215611a06575f80fd5b8351611a1181611451565b6020850151909350611a2281611451565b60408501519092506114c781611451565b5f60208284031215611a43575f80fd5b81516001600160801b0381168114610e41575f80fd5b81810381811115610ab057610ab06119a2565b634e487b7160e01b5f52604160045260245ffd5b634e487b7160e01b5f52603260045260245ffd5b602080825282518282018190525f918401906040840190835b81811015611ad157835163ffffffff16835260209384019390920191600101611aad565b509095945050505050565b80516001600160d81b0381168114611af2575f80fd5b919050565b5f60208284031215611b07575f80fd5b815167ffffffffffffffff811115611b1d575f80fd5b8201601f81018413611b2d575f80fd5b805167ffffffffffffffff811115611b4757611b47611a6c565b8060051b604051601f19603f830116810181811067ffffffffffffffff82111715611b7457611b74611a6c565b604052918252602081840181019290810187841115611b91575f80fd5b6020850194505b83851015611bb757611ba985611adc565b815260209485019401611b98565b509695505050505050565b6001600160d81b038281168282160390811115610ab057610ab06119a2565b5f6001600160d81b03831680611bf957611bf96119cd565b6001600160d81b0392909216919091049291505056fea2646970667358221220400098f36e5a89e7d2a3edeeba3180cc3e2c112f0ac20f991f854822717903cc64736f6c634300081a0033","linkReferences":{}},"methodIdentifiers":{"USDC()":"89a30271","USDT()":"c54e44eb","buyPT(uint256,address,address)":"5df7eb90","depositInAave(uint256,address)":"18546f12","pendleRouter()":"206aeab3","relayer()":"8406c079","sUSDe()":"e0d05d39","sUSDeMarket()":"4920cfea","sellPT(uint256,address,address)":"dc38a179"},"id":2}