{"abi":[{"type":"function","name":"borrowInternal","inputs":[{"name":"amount_","type":"uint256","internalType":"uint256"},{"name":"receiver_","type":"address","internalType":"address"}],"outputs":[],"stateMutability":"nonpayable"},{"type":"function","name":"delegateCredit","inputs":[],"outputs":[],"stateMutability":"nonpayable"},{"type":"function","name":"depositInAave","inputs":[],"outputs":[],"stateMutability":"payable"}],"bytecode":{"object":"0x6080604052348015600e575f80fd5b506109848061001c5f395ff3fe608060405260043610610033575f3560e01c806349292abd14610037578063de407d8f14610058578063eb3ff01714610060575b5f80fd5b348015610042575f80fd5b5061005661005136600461075e565b61006b565b005b61005661022f565b348015610056575f80fd5b604080518082018252601a81527f6f7a20757364632062616c202d2070726520626f72726f773a20000000000000602082015290516370a0823160e01b8152336004820181905273893411580e590d62ddbca8a703d61cc4a8c7b2b9927387870bca3f3fd6335c3f4ce8392d69350b4fa4e29273a0b86991c6218b36c1d19d4a2e9eb0ce3606eb48929160029161014d919085906370a08231906024015b602060405180830381865afa158015610124573d5f803e3d5ffd5b505050506040513d601f19601f820116820180604052508101906101489190610797565b610666565b60405163a415bcad60e01b81526001600160a01b03848116600483015260248201899052604482018390525f6064830152838116608483015285169063a415bcad9060a4015f604051808303815f87803b1580156101a9575f80fd5b505af11580156101bb573d5f803e3d5ffd5b5050604080518082018252601b81527f6f7a20757364632062616c202d20706f737420626f72726f773a200000000000602082015290516370a0823160e01b81526001600160a01b0386811660048301526102269450919250908616906370a0823190602401610109565b50505050505050565b60405163474cf53d60e01b81527387870bca3f3fd6335c3f4ce8392d69350b4fa4e2600482018190523060248301525f604483015273893411580e590d62ddbca8a703d61cc4a8c7b2b991829063474cf53d9034906064015f604051808303818588803b15801561029e575f80fd5b505af11580156102b0573d5f803e3d5ffd5b50505050506102f46040518060400160405280601881526020017f6d73672e73656e646572202d206f7a4469616d6f6e643a200000000000000000815250336106af565b61031f60405180604001604052806009815260200168034b73a1030b1b19d160bd1b815250306106af565b604051632fe4a15f60e21b81523360048201525f906001600160a01b0383169063bf92857c9060240160c060405180830381865afa158015610363573d5f803e3d5ffd5b505050506040513d601f19601f8201168201806040525081019061038791906107ae565b505050925050506103b06040518060600160405280602a8152602001610925602a913982610666565b604051632fe4a15f60e21b81523060048201525f906001600160a01b0384169063bf92857c9060240160c060405180830381865afa1580156103f4573d5f803e3d5ffd5b505050506040513d601f19601f8201168201806040525081019061041891906107ae565b505050925050506104416040518060600160405280602f81526020016108cb602f913982610666565b61045860405180602001604052805f8152506106f4565b6104966040518060400160405280601781526020017f2d2d2d2064656c656761746520637265646974202d2d2d0000000000000000008152506106f4565b6104ad60405180602001604052805f8152506106f4565b6104e060405180604001604052806011815260200170036b9b39739b2b73232b910169037bd1d1607d1b815250336106af565b604051630c04a8a160e41b81523360048201525f1960248201527372e95b8931767c79ba4eee721354d6e99a61d00490819063c04a8a10906044015f604051808303815f87803b158015610532575f80fd5b505af1158015610544573d5f803e3d5ffd5b5050604051632fe4a15f60e21b81523360048201525f92506001600160a01b038716915063bf92857c9060240160c060405180830381865afa15801561058c573d5f803e3d5ffd5b505050506040513d601f19601f820116820180604052508101906105b091906107ae565b505050925050506105d96040518060600160405280602b81526020016108fa602b913982610666565b604051632fe4a15f60e21b81523060048201525f906001600160a01b0387169063bf92857c9060240160c060405180830381865afa15801561061d573d5f803e3d5ffd5b505050506040513d601f19601f8201168201806040525081019061064191906107ae565b5050509250505061022660405180606001604052806030815260200161089b60309139825b6106ab828260405160240161067c929190610837565b60408051601f198184030181529190526020810180516001600160e01b03166309710a9d60e41b17905261073a565b5050565b6106ab82826040516024016106c5929190610858565b60408051601f198184030181529190526020810180516001600160e01b031663319af33360e01b17905261073a565b610737816040516024016107089190610881565b60408051601f198184030181529190526020810180516001600160e01b031663104c13eb60e21b17905261073a565b50565b6107378180516a636f6e736f6c652e6c6f67602083015f808483855afa5050505050565b5f806040838503121561076f575f80fd5b8235915060208301356001600160a01b038116811461078c575f80fd5b809150509250929050565b5f602082840312156107a7575f80fd5b5051919050565b5f805f805f8060c087890312156107c3575f80fd5b50508451602086015160408701516060880151608089015160a090990151939a929950909790965094509092509050565b5f81518084525f5b81811015610818576020818501810151868301820152016107fc565b505f602082860101526020601f19601f83011685010191505092915050565b604081525f61084960408301856107f4565b90508260208301529392505050565b604081525f61086a60408301856107f4565b905060018060a01b03831660208301529392505050565b602081525f61089360208301846107f4565b939250505056fe617661696c61626c65426f72726f777342617365202d20696e7420616363202d20706f73742064656c65676174653a20617661696c61626c65426f72726f777342617365202d20696e7420616363202d207072652064656c65676174653a20617661696c61626c65426f72726f777342617365202d206f7a202d20706f73742064656c65676174653a20617661696c61626c65426f72726f777342617365202d206f7a202d207072652064656c65676174653a20a26469706673582212207ed871677ca3e727f6c3fd0260a62d720feff59035dda02b85ac0f96311b3f4364736f6c634300081a0033","linkReferences":{}},"methodIdentifiers":{"borrowInternal(uint256,address)":"49292abd","delegateCredit()":"eb3ff017","depositInAave()":"de407d8f"},"id":2}