{"abi":[{"type":"function","name":"delegateCredit","inputs":[],"outputs":[],"stateMutability":"nonpayable"},{"type":"function","name":"depositInAave","inputs":[],"outputs":[],"stateMutability":"payable"}],"bytecode":{"object":"0x6080604052348015600e575f80fd5b506104528061001c5f395ff3fe608060405260043610610028575f3560e01c8063de407d8f1461002c578063eb3ff01714610036575b5f80fd5b610034610041565b005b348015610034575f80fd5b60405163474cf53d60e01b81527387870bca3f3fd6335c3f4ce8392d69350b4fa4e2600482018190523060248301525f604483015273893411580e590d62ddbca8a703d61cc4a8c7b2b991829063474cf53d9034906064015f604051808303818588803b1580156100b0575f80fd5b505af11580156100c2573d5f803e3d5ffd5b50505050506101066040518060400160405280601881526020017f6d73672e73656e646572202d206f7a4469616d6f6e643a20000000000000000081525033610293565b61013160405180604001604052806009815260200168034b73a1030b1b19d160bd1b81525030610293565b604051632fe4a15f60e21b81523360048201525f906001600160a01b0383169063bf92857c9060240160c060405180830381865afa158015610175573d5f803e3d5ffd5b505050506040513d601f19601f820116820180604052508101906101999190610349565b505050925050506101df6040518060400160405280601b81526020017f617661696c61626c65426f72726f777342617365202d206f7a3a200000000000815250826102dc565b604051632fe4a15f60e21b81523060048201525f906001600160a01b0384169063bf92857c9060240160c060405180830381865afa158015610223573d5f803e3d5ffd5b505050506040513d601f19601f820116820180604052508101906102479190610349565b5050509250505061028d6040518060400160405280602081526020017f617661696c61626c65426f72726f777342617365202d20696e74206163633a20815250826102dc565b50505050565b6102d882826040516024016102a99291906103d2565b60408051601f198184030181529190526020810180516001600160e01b031663319af33360e01b17905261031d565b5050565b6102d882826040516024016102f29291906103fb565b60408051601f198184030181529190526020810180516001600160e01b03166309710a9d60e41b1790525b61032681610329565b50565b80516a636f6e736f6c652e6c6f67602083015f808483855afa5050505050565b5f805f805f8060c0878903121561035e575f80fd5b50508451602086015160408701516060880151608089015160a090990151939a929950909790965094509092509050565b5f81518084525f5b818110156103b357602081850181015186830182015201610397565b505f602082860101526020601f19601f83011685010191505092915050565b604081525f6103e4604083018561038f565b905060018060a01b03831660208301529392505050565b604081525f61040d604083018561038f565b9050826020830152939250505056fea2646970667358221220d8db741d477db8f6aafc7fb7432734a6850b2161d2362c58f85b7bc3c308cd5c64736f6c634300081a0033","linkReferences":{}},"methodIdentifiers":{"delegateCredit()":"eb3ff017","depositInAave()":"de407d8f"},"id":2}