{"abi":[{"type":"constructor","inputs":[{"name":"relayer_","type":"address","internalType":"address"},{"name":"aaveGW_","type":"address","internalType":"address"},{"name":"aavePool_","type":"address","internalType":"address"}],"stateMutability":"nonpayable"},{"type":"function","name":"depositInAave","inputs":[{"name":"amountIn_","type":"uint256","internalType":"uint256"},{"name":"tokenIn_","type":"address","internalType":"address"}],"outputs":[],"stateMutability":"payable"},{"type":"function","name":"relayer","inputs":[],"outputs":[{"name":"","type":"address","internalType":"address"}],"stateMutability":"view"},{"type":"event","name":"FundsDelegated","inputs":[{"name":"internalAccount","type":"address","indexed":true,"internalType":"address"},{"name":"amount","type":"uint256","indexed":true,"internalType":"uint256"}],"anonymous":false}],"bytecode":{"object":"0x6080604052348015600e575f80fd5b50604051610373380380610373833981016040819052602b916085565b5f80546001600160a01b039485166001600160a01b03199182161790915560018054938516938216939093179092556002805491909316911617905560be565b80516001600160a01b03811681146080575f80fd5b919050565b5f805f606084860312156096575f80fd5b609d84606b565b925060a960208501606b565b915060b560408501606b565b90509250925092565b6102a8806100cb5f395ff3fe608060405260043610610028575f3560e01c806318546f121461002c5780638406c07914610041575b5f80fd5b61003f61003a366004610239565b61007b565b005b34801561004c575f80fd5b505f5461005f906001600160a01b031681565b6040516001600160a01b03909116815260200160405180910390f35b73eeeeeeeeeeeeeeeeeeeeeeeeeeeeeeeeeeeeeeee73eeeeeeeeeeeeeeeeeeeeeeeeeeeeeeeeeeeeeeed196001600160a01b038316016101255760015460025460405163474cf53d60e01b81526001600160a01b0391821660048201523060248201525f604482015291169063474cf53d9034906064015f604051808303818588803b158015610109575f80fd5b505af115801561011b573d5f803e3d5ffd5b5050505050610193565b60025460405163617ba03760e01b81526001600160a01b038481166004830152602482018690523060448301525f60648301529091169063617ba037906084015f604051808303815f87803b15801561017c575f80fd5b505af115801561018e573d5f803e3d5ffd5b505050505b5f54604051630c04a8a160e41b81526001600160a01b0390911660048201525f1960248201527372e95b8931767c79ba4eee721354d6e99a61d00490819063c04a8a10906044015f604051808303815f87803b1580156101f1575f80fd5b505af1158015610203573d5f803e3d5ffd5b50506040513492503091507f60ecce3105bf3b202d7a83cd679868ea5fd87b35901b96d3748136fafe323c65905f90a350505050565b5f806040838503121561024a575f80fd5b8235915060208301356001600160a01b0381168114610267575f80fd5b80915050925092905056fea26469706673582212206a3cfcc6e3f52f512defa5f7725f7ca5b885db95750f56d24ad245d50cd41eab64736f6c634300081a0033","linkReferences":{}},"methodIdentifiers":{"depositInAave(uint256,address)":"18546f12","relayer()":"8406c079"},"id":2}