{"abi":[{"type":"function","name":"borrowInternal","inputs":[{"name":"amount_","type":"uint256","internalType":"uint256"},{"name":"receiver_","type":"address","internalType":"address"}],"outputs":[],"stateMutability":"nonpayable"},{"type":"function","name":"delegateCredit","inputs":[],"outputs":[],"stateMutability":"nonpayable"},{"type":"function","name":"depositInAave","inputs":[],"outputs":[],"stateMutability":"payable"}],"bytecode":{"object":"0x6080604052348015600e575f80fd5b506109e78061001c5f395ff3fe608060405260043610610033575f3560e01c806349292abd14610037578063de407d8f14610058578063eb3ff01714610060575b5f80fd5b348015610042575f80fd5b506100566100513660046107dc565b61006b565b005b61005661045d565b348015610056575f80fd5b60408051808201909152601a81527f73656e64657220696e20626f72726f77496e7465726e616c3a20000000000000602082015273893411580e590d62ddbca8a703d61cc4a8c7b2b9907387870bca3f3fd6335c3f4ce8392d69350b4fa4e29073a0b86991c6218b36c1d19d4a2e9eb0ce3606eb489033906100ed90826106e4565b604080518082018252601a81527f6f7a20757364632062616c202d2070726520626f72726f773a20000000000000602082015290516370a0823160e01b81526001600160a01b038381166004830152600292737c8999dc9a822c1f0df42023113edb4fdd543266926101aa928716906370a08231906024015b602060405180830381865afa158015610181573d5f803e3d5ffd5b505050506040513d601f19601f820116820180604052508101906101a59190610815565b61072d565b6101f260405180606001604052806022815260200161096d602291396040516370a0823160e01b81523060048201526001600160a01b038716906370a0823190602401610166565b604080518082018252601d81527f6f776e657220757364632062616c202d2070726520626f72726f773a20000000602082015290516370a0823160e01b81526001600160a01b0383811660048301526102589291908716906370a0823190602401610166565b604080516001600160a01b038681166024830152604482018b9052606482018590525f608483018190523060a4808501919091528451808503909101815260c490930184526020830180516001600160e01b031663a415bcad60e01b1790529251908816916102c69161084e565b5f60405180830381855af49150503d805f81146102fe576040519150601f19603f3d011682016040523d82523d5f602084013e610303565b606091505b505090508061033e5760405162461bcd60e51b815260206004820152600360248201526233333360e91b604482015260640160405180910390fd5b604080518082018252601b81527f6f7a20757364632062616c202d20706f737420626f72726f773a200000000000602082015290516370a0823160e01b81526001600160a01b0386811660048301526103a49291908816906370a0823190602401610166565b6103ec60405180606001604052806023815260200161098f602391396040516370a0823160e01b81523060048201526001600160a01b038816906370a0823190602401610166565b604080518082018252601e81527f6f776e657220757364632062616c202d20706f737420626f72726f773a200000602082015290516370a0823160e01b81526001600160a01b0384811660048301526104529291908816906370a0823190602401610166565b505050505050505050565b60405163474cf53d60e01b81527387870bca3f3fd6335c3f4ce8392d69350b4fa4e2600482018190523060248301525f604483015273893411580e590d62ddbca8a703d61cc4a8c7b2b991829063474cf53d9034906064015f604051808303818588803b1580156104cc575f80fd5b505af11580156104de573d5f803e3d5ffd5b50505050506105226040518060400160405280601881526020017f6d73672e73656e646572202d206f7a4469616d6f6e643a200000000000000000815250336106e4565b61054d60405180604001604052806009815260200168034b73a1030b1b19d160bd1b815250306106e4565b604051632fe4a15f60e21b81523060048201525f906001600160a01b0383169063bf92857c9060240160c060405180830381865afa158015610591573d5f803e3d5ffd5b505050506040513d601f19601f820116820180604052508101906105b59190610869565b505050925050506105de6040518060600160405280602f815260200161093e602f91398261072d565b6105f560405180602001604052805f815250610772565b6106336040518060400160405280601781526020017f2d2d2d2064656c656761746520637265646974202d2d2d000000000000000000815250610772565b61064a60405180602001604052805f815250610772565b61067d60405180604001604052806011815260200170036b9b39739b2b73232b910169037bd1d1607d1b815250336106e4565b604051630c04a8a160e41b815233600482018190525f196024830152907372e95b8931767c79ba4eee721354d6e99a61d00490819063c04a8a10906044015f604051808303815f87803b1580156106d2575f80fd5b505af1158015610452573d5f803e3d5ffd5b61072982826040516024016106fa9291906108da565b60408051601f198184030181529190526020810180516001600160e01b031663319af33360e01b1790526107b8565b5050565b6107298282604051602401610743929190610903565b60408051601f198184030181529190526020810180516001600160e01b03166309710a9d60e41b1790526107b8565b6107b5816040516024016107869190610924565b60408051601f198184030181529190526020810180516001600160e01b031663104c13eb60e21b1790526107b8565b50565b6107b58180516a636f6e736f6c652e6c6f67602083015f808483855afa5050505050565b5f80604083850312156107ed575f80fd5b8235915060208301356001600160a01b038116811461080a575f80fd5b809150509250929050565b5f60208284031215610825575f80fd5b5051919050565b5f5b8381101561084657818101518382015260200161082e565b50505f910152565b5f825161085f81846020870161082c565b9190910192915050565b5f805f805f8060c0878903121561087e575f80fd5b50508451602086015160408701516060880151608089015160a090990151939a929950909790965094509092509050565b5f81518084526108c681602086016020860161082c565b601f01601f19169290920160200192915050565b604081525f6108ec60408301856108af565b905060018060a01b03831660208301529392505050565b604081525f61091560408301856108af565b90508260208301529392505050565b602081525f61093660208301846108af565b939250505056fe617661696c61626c65426f72726f777342617365202d20696e7420616363202d207072652064656c65676174653a20696e744163636f756e7420757364632062616c202d2070726520626f72726f773a20696e744163636f756e7420757364632062616c202d20706f737420626f72726f773a20a2646970667358221220630761cc59581b6fced24369f1e895e80ab578a8ded199799c8db101b48f8a6464736f6c634300081a0033","linkReferences":{}},"methodIdentifiers":{"borrowInternal(uint256,address)":"49292abd","delegateCredit()":"eb3ff017","depositInAave()":"de407d8f"},"id":2}