{"abi":[{"type":"constructor","inputs":[{"name":"relayer_","type":"address","internalType":"address"},{"name":"aaveGW_","type":"address","internalType":"address"},{"name":"aavePool_","type":"address","internalType":"address"}],"stateMutability":"nonpayable"},{"type":"function","name":"depositInAave","inputs":[{"name":"amountIn_","type":"uint256","internalType":"uint256"},{"name":"tokenIn_","type":"address","internalType":"address"}],"outputs":[],"stateMutability":"payable"},{"type":"function","name":"internalApprove","inputs":[{"name":"tokenIn_","type":"address","internalType":"address"},{"name":"amountIn_","type":"uint256","internalType":"uint256"}],"outputs":[],"stateMutability":"nonpayable"},{"type":"function","name":"relayer","inputs":[],"outputs":[{"name":"","type":"address","internalType":"address"}],"stateMutability":"view"},{"type":"event","name":"FundsDelegated","inputs":[{"name":"internalAccount","type":"address","indexed":true,"internalType":"address"},{"name":"amount","type":"uint256","indexed":true,"internalType":"uint256"}],"anonymous":false}],"bytecode":{"object":"0x6080604052348015600e575f80fd5b506040516104e53803806104e5833981016040819052602b916085565b5f80546001600160a01b039485166001600160a01b03199182161790915560018054938516938216939093179092556002805491909316911617905560be565b80516001600160a01b03811681146080575f80fd5b919050565b5f805f606084860312156096575f80fd5b609d84606b565b925060a960208501606b565b915060b560408501606b565b90509250925092565b61041a806100cb5f395ff3fe608060405260043610610033575f3560e01c806318546f121461003757806318d50f931461004c5780638406c0791461006b575b5f80fd5b61004a61004536600461036c565b6100a5565b005b348015610057575f80fd5b5061004a610066366004610396565b6102d8565b348015610076575f80fd5b505f54610089906001600160a01b031681565b6040516001600160a01b03909116815260200160405180910390f35b73eeeeeeeeeeeeeeeeeeeeeeeeeeeeeeeeeeeeeeee73eeeeeeeeeeeeeeeeeeeeeeeeeeeeeeeeeeeeeeed196001600160a01b0383160161014f5760015460025460405163474cf53d60e01b81526001600160a01b0391821660048201523060248201525f604482015291169063474cf53d9034906064015f604051808303818588803b158015610133575f80fd5b505af1158015610145573d5f803e3d5ffd5b5050505050610232565b60025460405163095ea7b360e01b81526001600160a01b039182166004820152602481018590529083169063095ea7b3906044016020604051808303815f875af115801561019f573d5f803e3d5ffd5b505050506040513d601f19601f820116820180604052508101906101c391906103be565b5060025460405163617ba03760e01b81526001600160a01b038481166004830152602482018690523060448301525f60648301529091169063617ba037906084015f604051808303815f87803b15801561021b575f80fd5b505af115801561022d573d5f803e3d5ffd5b505050505b5f54604051630c04a8a160e41b81526001600160a01b0390911660048201525f1960248201527372e95b8931767c79ba4eee721354d6e99a61d00490819063c04a8a10906044015f604051808303815f87803b158015610290575f80fd5b505af11580156102a2573d5f803e3d5ffd5b50506040513492503091507f60ecce3105bf3b202d7a83cd679868ea5fd87b35901b96d3748136fafe323c65905f90a350505050565b60025460405163095ea7b360e01b81526001600160a01b039182166004820152602481018390529083169063095ea7b3906044016020604051808303815f875af1158015610328573d5f803e3d5ffd5b505050506040513d601f19601f8201168201806040525081019061034c91906103be565b505050565b80356001600160a01b0381168114610367575f80fd5b919050565b5f806040838503121561037d575f80fd5b8235915061038d60208401610351565b90509250929050565b5f80604083850312156103a7575f80fd5b6103b083610351565b946020939093013593505050565b5f602082840312156103ce575f80fd5b815180151581146103dd575f80fd5b939250505056fea2646970667358221220a1e8e06d4c1173eb9a1afb2f7ae566114581eecae3e794bd4270613b50dc3e3464736f6c634300081a0033","linkReferences":{}},"methodIdentifiers":{"depositInAave(uint256,address)":"18546f12","internalApprove(address,uint256)":"18d50f93","relayer()":"8406c079"},"id":2}