{"abi":[{"type":"constructor","inputs":[{"name":"relayer_","type":"address","internalType":"address"},{"name":"eth_","type":"address","internalType":"address"},{"name":"aaveGW_","type":"address","internalType":"address"},{"name":"aavePool_","type":"address","internalType":"address"},{"name":"aaveDebtUsdc_","type":"address","internalType":"address"}],"stateMutability":"nonpayable"},{"type":"function","name":"depositInAave","inputs":[{"name":"amountIn_","type":"uint256","internalType":"uint256"},{"name":"tokenIn_","type":"address","internalType":"address"}],"outputs":[],"stateMutability":"payable"},{"type":"function","name":"internalApprove","inputs":[{"name":"tokenIn_","type":"address","internalType":"address"},{"name":"amountIn_","type":"uint256","internalType":"uint256"}],"outputs":[],"stateMutability":"nonpayable"},{"type":"function","name":"relayer","inputs":[],"outputs":[{"name":"","type":"address","internalType":"address"}],"stateMutability":"view"},{"type":"event","name":"FundsDelegated","inputs":[{"name":"internalAccount","type":"address","indexed":true,"internalType":"address"},{"name":"amount","type":"uint256","indexed":true,"internalType":"uint256"}],"anonymous":false}],"bytecode":{"object":"0x608060405234801561000f575f80fd5b506040516104fc3803806104fc83398101604081905261002e916100aa565b5f80546001600160a01b03199081166001600160a01b0397881617909155600180548216958716959095179094556002805485169386169390931790925560038054841691851691909117905560048054909216921691909117905561010b565b80516001600160a01b03811681146100a5575f80fd5b919050565b5f805f805f60a086880312156100be575f80fd5b6100c78661008f565b94506100d56020870161008f565b93506100e36040870161008f565b92506100f16060870161008f565b91506100ff6080870161008f565b90509295509295909350565b6103e4806101185f395ff3fe608060405260043610610033575f3560e01c806318546f121461003757806318d50f931461004c5780638406c0791461006b575b5f80fd5b61004a610045366004610336565b6100a5565b005b348015610057575f80fd5b5061004a610066366004610360565b6102a2565b348015610076575f80fd5b505f54610089906001600160a01b031681565b6040516001600160a01b03909116815260200160405180910390f35b6001546001600160a01b039081169082160361012b5760025460035460405163474cf53d60e01b81526001600160a01b0391821660048201523060248201525f604482015291169063474cf53d9034906064015f604051808303818588803b15801561010f575f80fd5b505af1158015610121573d5f803e3d5ffd5b505050505061020e565b60035460405163095ea7b360e01b81526001600160a01b039182166004820152602481018490529082169063095ea7b3906044016020604051808303815f875af115801561017b573d5f803e3d5ffd5b505050506040513d601f19601f8201168201806040525081019061019f9190610388565b5060035460405163617ba03760e01b81526001600160a01b038381166004830152602482018590523060448301525f60648301529091169063617ba037906084015f604051808303815f87803b1580156101f7575f80fd5b505af1158015610209573d5f803e3d5ffd5b505050505b600480545f54604051630c04a8a160e41b81526001600160a01b03918216938101939093525f196024840152169063c04a8a10906044015f604051808303815f87803b15801561025c575f80fd5b505af115801561026e573d5f803e3d5ffd5b50506040513492503091507f60ecce3105bf3b202d7a83cd679868ea5fd87b35901b96d3748136fafe323c65905f90a35050565b60035460405163095ea7b360e01b81526001600160a01b039182166004820152602481018390529083169063095ea7b3906044016020604051808303815f875af11580156102f2573d5f803e3d5ffd5b505050506040513d601f19601f820116820180604052508101906103169190610388565b505050565b80356001600160a01b0381168114610331575f80fd5b919050565b5f8060408385031215610347575f80fd5b823591506103576020840161031b565b90509250929050565b5f8060408385031215610371575f80fd5b61037a8361031b565b946020939093013593505050565b5f60208284031215610398575f80fd5b815180151581146103a7575f80fd5b939250505056fea2646970667358221220b5da0a23ab8a8d9f6c25e61fd5913f450d4e4c3473f6c118f5f384dc8dddc59264736f6c634300081a0033","linkReferences":{}},"methodIdentifiers":{"depositInAave(uint256,address)":"18546f12","internalApprove(address,uint256)":"18d50f93","relayer()":"8406c079"},"id":2}